{"contracts/DappTickets.sol":{"DappTickets":{"abi":[{"inputs":[{"internalType":"address","name":"_dappCinemas","type":"address"},{"internalType":"string","name":"_name","type":"string"},{"internalType":"string","name":"_symbol","type":"string"}],"stateMutability":"nonpayable","type":"constructor"},{"anonymous":false,"inputs":[{"indexed":false,"internalType":"string","name":"actionType","type":"string"}],"name":"Action","type":"event"},{"anonymous":false,"inputs":[{"indexed":true,"internalType":"address","name":"account","type":"address"},{"indexed":true,"internalType":"address","name":"operator","type":"address"},{"indexed":false,"internalType":"bool","name":"approved","type":"bool"}],"name":"ApprovalForAll","type":"event"},{"anonymous":false,"inputs":[{"indexed":true,"internalType":"address","name":"previousOwner","type":"address"},{"indexed":true,"internalType":"address","name":"newOwner","type":"address"}],"name":"OwnershipTransferred","type":"event"},{"anonymous":false,"inputs":[{"indexed":true,"internalType":"address","name":"operator","type":"address"},{"indexed":true,"internalType":"address","name":"from","type":"address"},{"indexed":true,"internalType":"address","name":"to","type":"address"},{"indexed":false,"internalType":"uint256[]","name":"ids","type":"uint256[]"},{"indexed":false,"internalType":"uint256[]","name":"values","type":"uint256[]"}],"name":"TransferBatch","type":"event"},{"anonymous":false,"inputs":[{"indexed":true,"internalType":"address","name":"operator","type":"address"},{"indexed":true,"internalType":"address","name":"from","type":"address"},{"indexed":true,"internalType":"address","name":"to","type":"address"},{"indexed":false,"internalType":"uint256","name":"id","type":"uint256"},{"indexed":false,"internalType":"uint256","name":"value","type":"uint256"}],"name":"TransferSingle","type":"event"},{"anonymous":false,"inputs":[{"indexed":false,"internalType":"string","name":"value","type":"string"},{"indexed":true,"internalType":"uint256","name":"id","type":"uint256"}],"name":"URI","type":"event"},{"inputs":[],"name":"balance","outputs":[{"internalType":"uint256","name":"","type":"uint256"}],"stateMutability":"view","type":"function"},{"inputs":[{"internalType":"address","name":"account","type":"address"},{"internalType":"uint256","name":"id","type":"uint256"}],"name":"balanceOf","outputs":[{"internalType":"uint256","name":"","type":"uint256"}],"stateMutability":"view","type":"function"},{"inputs":[{"internalType":"address[]","name":"accounts","type":"address[]"},{"internalType":"uint256[]","name":"ids","type":"uint256[]"}],"name":"balanceOfBatch","outputs":[{"internalType":"uint256[]","name":"","type":"uint256[]"}],"stateMutability":"view","type":"function"},{"inputs":[{"internalType":"address","name":"account","type":"address"},{"internalType":"uint256","name":"id","type":"uint256"},{"internalType":"uint256","name":"value","type":"uint256"}],"name":"burn","outputs":[],"stateMutability":"nonpayable","type":"function"},{"inputs":[{"internalType":"address","name":"account","type":"address"},{"internalType":"uint256[]","name":"ids","type":"uint256[]"},{"internalType":"uint256[]","name":"values","type":"uint256[]"}],"name":"burnBatch","outputs":[],"stateMutability":"nonpayable","type":"function"},{"inputs":[{"internalType":"uint256","name":"_slotId","type":"uint256"},{"internalType":"uint256","name":"_tickets","type":"uint256"}],"name":"buyTickets","outputs":[],"stateMutability":"payable","type":"function"},{"inputs":[{"internalType":"uint256","name":"_slotId","type":"uint256"}],"name":"completeTickets","outputs":[],"stateMutability":"nonpayable","type":"function"},{"inputs":[{"internalType":"uint256","name":"_slotId","type":"uint256"}],"name":"deleteTickets","outputs":[],"stateMutability":"nonpayable","type":"function"},{"inputs":[{"internalType":"uint256","name":"_slotId","type":"uint256"}],"name":"getTicketHolders","outputs":[{"internalType":"address[]","name":"Holders","type":"address[]"}],"stateMutability":"view","type":"function"},{"inputs":[{"internalType":"uint256","name":"_slotId","type":"uint256"}],"name":"getTickets","outputs":[{"components":[{"internalType":"uint256","name":"id","type":"uint256"},{"internalType":"uint256","name":"movieId","type":"uint256"},{"internalType":"uint256","name":"slotId","type":"uint256"},{"internalType":"address","name":"owner","type":"address"},{"internalType":"uint256","name":"cost","type":"uint256"},{"internalType":"uint256","name":"timestamp","type":"uint256"},{"internalType":"uint256","name":"day","type":"uint256"},{"internalType":"bool","name":"used","type":"bool"},{"internalType":"bool","name":"refunded","type":"bool"}],"internalType":"struct DappTickets.TicketStruct[]","name":"Tickets","type":"tuple[]"}],"stateMutability":"view","type":"function"},{"inputs":[{"internalType":"uint256","name":"_slotId","type":"uint256"}],"name":"invalidateTickets","outputs":[],"stateMutability":"nonpayable","type":"function"},{"inputs":[{"internalType":"address","name":"account","type":"address"},{"internalType":"address","name":"operator","type":"address"}],"name":"isApprovedForAll","outputs":[{"internalType":"bool","name":"","type":"bool"}],"stateMutability":"view","type":"function"},{"inputs":[],"name":"name","outputs":[{"internalType":"string","name":"","type":"string"}],"stateMutability":"view","type":"function"},{"inputs":[],"name":"owner","outputs":[{"internalType":"address","name":"","type":"address"}],"stateMutability":"view","type":"function"},{"inputs":[{"internalType":"uint256","name":"_slotId","type":"uint256"}],"name":"refundTickets","outputs":[],"stateMutability":"nonpayable","type":"function"},{"inputs":[],"name":"renounceOwnership","outputs":[],"stateMutability":"nonpayable","type":"function"},{"inputs":[{"internalType":"address","name":"from","type":"address"},{"internalType":"address","name":"to","type":"address"},{"internalType":"uint256[]","name":"ids","type":"uint256[]"},{"internalType":"uint256[]","name":"amounts","type":"uint256[]"},{"internalType":"bytes","name":"data","type":"bytes"}],"name":"safeBatchTransferFrom","outputs":[],"stateMutability":"nonpayable","type":"function"},{"inputs":[{"internalType":"address","name":"from","type":"address"},{"internalType":"address","name":"to","type":"address"},{"internalType":"uint256","name":"id","type":"uint256"},{"internalType":"uint256","name":"amount","type":"uint256"},{"internalType":"bytes","name":"data","type":"bytes"}],"name":"safeTransferFrom","outputs":[],"stateMutability":"nonpayable","type":"function"},{"inputs":[{"internalType":"address","name":"operator","type":"address"},{"internalType":"bool","name":"approved","type":"bool"}],"name":"setApprovalForAll","outputs":[],"stateMutability":"nonpayable","type":"function"},{"inputs":[{"internalType":"bytes4","name":"interfaceId","type":"bytes4"}],"name":"supportsInterface","outputs":[{"internalType":"bool","name":"","type":"bool"}],"stateMutability":"view","type":"function"},{"inputs":[],"name":"symbol","outputs":[{"internalType":"string","name":"","type":"string"}],"stateMutability":"view","type":"function"},{"inputs":[{"internalType":"uint256","name":"","type":"uint256"}],"name":"ticketBuild","outputs":[{"internalType":"string","name":"name","type":"string"},{"internalType":"string","name":"description","type":"string"},{"internalType":"string","name":"bgHue","type":"string"},{"internalType":"string","name":"textHue","type":"string"},{"internalType":"string","name":"value","type":"string"},{"components":[{"internalType":"uint256","name":"id","type":"uint256"},{"internalType":"uint256","name":"movieId","type":"uint256"},{"internalType":"uint256","name":"slotId","type":"uint256"},{"internalType":"address","name":"owner","type":"address"},{"internalType":"uint256","name":"cost","type":"uint256"},{"internalType":"uint256","name":"timestamp","type":"uint256"},{"internalType":"uint256","name":"day","type":"uint256"},{"internalType":"bool","name":"used","type":"bool"},{"internalType":"bool","name":"refunded","type":"bool"}],"internalType":"struct DappTickets.TicketStruct","name":"ticket","type":"tuple"}],"stateMutability":"view","type":"function"},{"inputs":[{"internalType":"address","name":"newOwner","type":"address"}],"name":"transferOwnership","outputs":[],"stateMutability":"nonpayable","type":"function"},{"inputs":[{"internalType":"uint256","name":"_tid","type":"uint256"}],"name":"uri","outputs":[{"internalType":"string","name":"","type":"string"}],"stateMutability":"view","type":"function"},{"inputs":[{"internalType":"address","name":"to","type":"address"},{"internalType":"uint256","name":"amount","type":"uint256"}],"name":"withdrawTo","outputs":[],"stateMutability":"nonpayable","type":"function"}],"evm":{"bytecode":{"linkReferences":{},"object":"60806040523480156200001157600080fd5b50604051620046e8380380620046e88339810160408190526200003491620001c3565b6040805160208101909152600081526200004e336200009c565b6200005981620000ec565b50600580546001600160a01b0319166001600160a01b0385161790556007620000838382620002dc565b506008620000928282620002dc565b50505050620003a8565b600080546001600160a01b038381166001600160a01b0319831681178455604051919092169283917f8be0079c531659141344cd1fd0a4f28419497f9722a3daafe3b4186f6b6457e09190a35050565b6003620000fa8282620002dc565b5050565b634e487b7160e01b600052604160045260246000fd5b600082601f8301126200012657600080fd5b81516001600160401b0380821115620001435762000143620000fe565b604051601f8301601f19908116603f011681019082821181831017156200016e576200016e620000fe565b816040528381526020925086838588010111156200018b57600080fd5b600091505b83821015620001af578582018301518183018401529082019062000190565b600093810190920192909252949350505050565b600080600060608486031215620001d957600080fd5b83516001600160a01b0381168114620001f157600080fd5b60208501519093506001600160401b03808211156200020f57600080fd5b6200021d8783880162000114565b935060408601519150808211156200023457600080fd5b50620002438682870162000114565b9150509250925092565b600181811c908216806200026257607f821691505b6020821081036200028357634e487b7160e01b600052602260045260246000fd5b50919050565b601f821115620002d757600081815260208120601f850160051c81016020861015620002b25750805b601f850160051c820191505b81811015620002d357828155600101620002be565b5050505b505050565b81516001600160401b03811115620002f857620002f8620000fe565b62000310816200030984546200024d565b8462000289565b602080601f8311600181146200034857600084156200032f5750858301515b600019600386901b1c1916600185901b178555620002d3565b600085815260208120601f198616915b82811015620003795788860151825594840194600190910190840162000358565b5085821015620003985787850151600019600388901b60f8161c191681555b5050505050600190811b01905550565b61433080620003b86000396000f3fe6080604052600436106101645760003560e01c8063715018a6116100d1578063a22cb4651161008a578063e985e9c511610064578063e985e9c514610448578063f242432a14610491578063f2fde38b146104b1578063f5298aca146104d157600080fd5b8063a22cb465146103f2578063a70b725e14610412578063b69ef8a81461043257600080fd5b8063715018a61461034d578063773dd66c146103625780638627df46146103825780638da5cb5b14610395578063933412de146103bd57806395d89b41146103dd57600080fd5b8063205c287811610123578063205c28781461026c57806322c79ffb1461028e5780632eb2c2d6146102ae57806340b882cf146102ce5780634e1273f4146103005780636b20c4541461032d57600080fd5b80622a5cc914610169578062fdd58e1461019f57806301ffc9a7146101cd57806306fdde03146101fd5780630e89341c1461021f57806314f2979f1461023f575b600080fd5b34801561017557600080fd5b5061018961018436600461303b565b6104f1565b6040516101969190613054565b60405180910390f35b3480156101ab57600080fd5b506101bf6101ba3660046130bd565b61065f565b604051908152602001610196565b3480156101d957600080fd5b506101ed6101e83660046130fd565b6106fa565b6040519015158152602001610196565b34801561020957600080fd5b5061021261074a565b604051610196919061316a565b34801561022b57600080fd5b5061021261023a36600461303b565b6107d8565b34801561024b57600080fd5b5061025f61025a36600461303b565b6107e3565b60405161019691906131e5565b34801561027857600080fd5b5061028c6102873660046130bd565b6109b3565b005b34801561029a57600080fd5b5061028c6102a936600461303b565b610a25565b3480156102ba57600080fd5b5061028c6102c936600461339a565b610aee565b3480156102da57600080fd5b506102ee6102e936600461303b565b610b3a565b60405161019696959493929190613443565b34801561030c57600080fd5b5061032061031b3660046134c2565b610e8b565b60405161019691906135c7565b34801561033957600080fd5b5061028c6103483660046135da565b610fb4565b34801561035957600080fd5b5061028c610ffc565b34801561036e57600080fd5b5061028c61037d36600461303b565b611010565b61028c61039036600461364d565b61116e565b3480156103a157600080fd5b506000546040516001600160a01b039091168152602001610196565b3480156103c957600080fd5b5061028c6103d836600461303b565b611433565b3480156103e957600080fd5b50610212611577565b3480156103fe57600080fd5b5061028c61040d36600461367d565b611584565b34801561041e57600080fd5b5061028c61042d36600461303b565b61158f565b34801561043e57600080fd5b506101bf60065481565b34801561045457600080fd5b506101ed6104633660046136b4565b6001600160a01b03918216600090815260026020908152604080832093909416825291909152205460ff1690565b34801561049d57600080fd5b5061028c6104ac3660046136e7565b611650565b3480156104bd57600080fd5b5061028c6104cc36600461374b565b611695565b3480156104dd57600080fd5b5061028c6104ec366004613766565b61170e565b6060600060015b600454811161055d576000818152600a60205260409020600701548414801561053857506000818152600a60205260409020600c0154610100900460ff16155b1561054b5781610547816137af565b9250505b80610555816137af565b9150506104f8565b50806001600160401b0381111561057657610576613228565b60405190808252806020026020018201604052801561059f578160200160208202803683370190505b509150600060015b6004548111610657576000818152600a6020526040902060070154851480156105e757506000818152600a60205260409020600c0154610100900460ff16155b15610645576000818152600a60205260409020600801546001600160a01b03168483610612816137af565b945081518110610624576106246137c8565b60200260200101906001600160a01b031690816001600160a01b0316815250505b8061064f816137af565b9150506105a7565b505050919050565b60006001600160a01b0383166106cf5760405162461bcd60e51b815260206004820152602a60248201527f455243313135353a2061646472657373207a65726f206973206e6f742061207660448201526930b634b21037bbb732b960b11b60648201526084015b60405180910390fd5b5060008181526001602090815260408083206001600160a01b03861684529091529020545b92915050565b60006001600160e01b03198216636cdb3d1360e11b148061072b57506001600160e01b031982166303a24d0760e21b145b806106f457506301ffc9a760e01b6001600160e01b03198316146106f4565b60078054610757906137de565b80601f0160208091040260200160405190810160405280929190818152602001828054610783906137de565b80156107d05780601f106107a5576101008083540402835291602001916107d0565b820191906000526020600020905b8154815290600101906020018083116107b357829003601f168201915b505050505081565b60606106f482611751565b6060600060015b600454811161084f576000818152600a60205260409020600701548414801561082a57506000818152600a60205260409020600c0154610100900460ff16155b1561083d5781610839816137af565b9250505b80610847816137af565b9150506107ea565b50806001600160401b0381111561086857610868613228565b6040519080825280602002602001820160405280156108a157816020015b61088e612fe2565b8152602001906001900390816108865790505b509150600060015b6004548111610657576000818152600a6020526040902060070154851480156108e957506000818152600a60205260409020600c0154610100900460ff16155b156109a1576000818152600a60208181526040928390208351610120810185526005820154815260068201549281019290925260078101549382019390935260088301546001600160a01b03166060820152600983015460808201529082015460a0820152600b82015460c0820152600c9091015460ff808216151560e084015261010091829004161515908201528483610983816137af565b945081518110610995576109956137c8565b60200260200101819052505b806109ab816137af565b9150506108a9565b6109bb611b3f565b8060065410156109ff5760405162461bcd60e51b815260206004820152600f60248201526e125b9cdd59999a595b9d08199d5b99608a1b60448201526064016106c6565b8060066000828254610a119190613818565b90915550610a2190508282611b99565b5050565b610a2d611b3f565b600554604051633b6559c160e01b8152600481018390526001600160a01b0390911690633b6559c190602401600060405180830381600087803b158015610a7357600080fd5b505af1158015610a87573d6000803e3d6000fd5b50505050610a9481611433565b7f8b2c14fe955d044ef95ba32b88d2ceb87c6f73fcefdcebe906063a6d75690f27604051610ae3906020808252600d908201526c151a58dad95d1cc8189d5c9b9d609a1b604082015260600190565b60405180910390a150565b6001600160a01b038516331480610b0a5750610b0a8533610463565b610b265760405162461bcd60e51b81526004016106c69061382b565b610b338585858585611bf9565b5050505050565b600a60205260009081526040902080548190610b55906137de565b80601f0160208091040260200160405190810160405280929190818152602001828054610b81906137de565b8015610bce5780601f10610ba357610100808354040283529160200191610bce565b820191906000526020600020905b815481529060010190602001808311610bb157829003601f168201915b505050505090806001018054610be3906137de565b80601f0160208091040260200160405190810160405280929190818152602001828054610c0f906137de565b8015610c5c5780601f10610c3157610100808354040283529160200191610c5c565b820191906000526020600020905b815481529060010190602001808311610c3f57829003601f168201915b505050505090806002018054610c71906137de565b80601f0160208091040260200160405190810160405280929190818152602001828054610c9d906137de565b8015610cea5780601f10610cbf57610100808354040283529160200191610cea565b820191906000526020600020905b815481529060010190602001808311610ccd57829003601f168201915b505050505090806003018054610cff906137de565b80601f0160208091040260200160405190810160405280929190818152602001828054610d2b906137de565b8015610d785780601f10610d4d57610100808354040283529160200191610d78565b820191906000526020600020905b815481529060010190602001808311610d5b57829003601f168201915b505050505090806004018054610d8d906137de565b80601f0160208091040260200160405190810160405280929190818152602001828054610db9906137de565b8015610e065780601f10610ddb57610100808354040283529160200191610e06565b820191906000526020600020905b815481529060010190602001808311610de957829003601f168201915b50506040805161012081018252600587015481526006870154602082015260078701549181019190915260088601546001600160a01b0316606082015260098601546080820152600a86015460a0820152600b86015460c0820152600c9095015460ff808216151560e088015261010091829004161515908601525091929150879050565b60608151835114610ef05760405162461bcd60e51b815260206004820152602960248201527f455243313135353a206163636f756e747320616e6420696473206c656e677468604482015268040dad2e6dac2e8c6d60bb1b60648201526084016106c6565b600083516001600160401b03811115610f0b57610f0b613228565b604051908082528060200260200182016040528015610f34578160200160208202803683370190505b50905060005b8451811015610fac57610f7f858281518110610f5857610f586137c8565b6020026020010151858381518110610f7257610f726137c8565b602002602001015161065f565b828281518110610f9157610f916137c8565b6020908102919091010152610fa5816137af565b9050610f3a565b509392505050565b6001600160a01b038316331480610fd05750610fd08333610463565b610fec5760405162461bcd60e51b81526004016106c69061382b565b610ff7838383611d98565b505050565b611004611b3f565b61100e6000611f27565b565b611018611b3f565b600554604051632b85dcc960e01b81526004810183905282916001600160a01b031690632b85dcc99060240161016060405180830381865afa158015611062573d6000803e3d6000fd5b505050506040513d601f19601f820116820180604052508101906110869190613884565b51146110c55760405162461bcd60e51b815260206004820152600e60248201526d14db1bdd081b9bdd08199bdd5b9960921b60448201526064016106c6565b60015b6004548111610a21576000818152600a60205260409020600701548214801561110357506000818152600a60205260409020600c015460ff16155b1561115c576000818152600a60205260409020600581015460098201546008830154600c909301805461ff00191661010017905590916001600160a01b031661114c8183611b99565b61115881846001611f77565b5050505b80611166816137af565b9150506110c8565b600554604051632b85dcc960e01b8152600481018490526000916001600160a01b031690632b85dcc99060240161016060405180830381865afa1580156111b9573d6000803e3d6000fd5b505050506040513d601f19601f820116820180604052508101906111dd9190613884565b90508181604001516111ef9190613921565b3410156112345760405162461bcd60e51b8152602060048201526013602482015272125b9cdd59999a58da595b9d08185b5bdd5b9d606a1b60448201526064016106c6565b8060c001518160a001511161128b5760405162461bcd60e51b815260206004820152601760248201527f4f7574206f662073656174696e6720636170616369747900000000000000000060448201526064016106c6565b60005b82811015611388576112a4600480546001019055565b6112ac612fe2565b600454815260408084015160808301528351908201523360608201526112d061207e565b60a0820190815281516000908152600a60208181526040928390208551600582015590850151600682015591840151600783015560608401516008830180546001600160a01b0319166001600160a01b039092169190911790556080840151600983015591519181019190915560c0820151600b82015560e0820151600c90910180546101009384015161ffff1990911692151561ff0019169290921791151590920217905580611380816137af565b91505061128e565b50818160c00181815161139b9190613938565b90525060408101516113ae908390613921565b81610140018181516113c09190613938565b9052506113cc8261209d565b6005546040516361853e9360e01b81526001600160a01b03909116906361853e93906113fc90849060040161394b565b600060405180830381600087803b15801561141657600080fd5b505af115801561142a573d6000803e3d6000fd5b50505050505050565b61143b611b3f565b600554604051632b85dcc960e01b81526004810183905282916001600160a01b031690632b85dcc99060240161016060405180830381865afa158015611485573d6000803e3d6000fd5b505050506040513d601f19601f820116820180604052508101906114a99190613884565b51146114e85760405162461bcd60e51b815260206004820152600e60248201526d14db1bdd081b9bdd08199bdd5b9960921b60448201526064016106c6565b60015b6004548111610a21576000818152600a60205260409020600701548214801561152657506000818152600a60205260409020600c015460ff16155b15611565576000818152600a60205260408120600c8101805460ff1916600117905560090154600680549192909161155f908490613938565b90915550505b8061156f816137af565b9150506114eb565b60088054610757906137de565b610a21338383612309565b611597611b3f565b600554604051633b6559c160e01b8152600481018390526001600160a01b0390911690633b6559c190602401600060405180830381600087803b1580156115dd57600080fd5b505af11580156115f1573d6000803e3d6000fd5b505050506115fe81611010565b7f8b2c14fe955d044ef95ba32b88d2ceb87c6f73fcefdcebe906063a6d75690f27604051610ae39060208082526010908201526f151a58dad95d1cc81c99599d5b99195960821b604082015260600190565b6001600160a01b03851633148061166c575061166c8533610463565b6116885760405162461bcd60e51b81526004016106c69061382b565b610b3385858585856123e9565b61169d611b3f565b6001600160a01b0381166117025760405162461bcd60e51b815260206004820152602660248201527f4f776e61626c653a206e6577206f776e657220697320746865207a65726f206160448201526564647265737360d01b60648201526084016106c6565b61170b81611f27565b50565b6001600160a01b03831633148061172a575061172a8333610463565b6117465760405162461bcd60e51b81526004016106c69061382b565b610ff7838383611f77565b60606000600a60008481526020019081526020016000206040518060c0016040529081600082018054611783906137de565b80601f01602080910402602001604051908101604052809291908181526020018280546117af906137de565b80156117fc5780601f106117d1576101008083540402835291602001916117fc565b820191906000526020600020905b8154815290600101906020018083116117df57829003601f168201915b50505050508152602001600182018054611815906137de565b80601f0160208091040260200160405190810160405280929190818152602001828054611841906137de565b801561188e5780601f106118635761010080835404028352916020019161188e565b820191906000526020600020905b81548152906001019060200180831161187157829003601f168201915b505050505081526020016002820180546118a7906137de565b80601f01602080910402602001604051908101604052809291908181526020018280546118d3906137de565b80156119205780601f106118f557610100808354040283529160200191611920565b820191906000526020600020905b81548152906001019060200180831161190357829003601f168201915b50505050508152602001600382018054611939906137de565b80601f0160208091040260200160405190810160405280929190818152602001828054611965906137de565b80156119b25780601f10611987576101008083540402835291602001916119b2565b820191906000526020600020905b81548152906001019060200180831161199557829003601f168201915b505050505081526020016004820180546119cb906137de565b80601f01602080910402602001604051908101604052809291908181526020018280546119f7906137de565b8015611a445780601f10611a1957610100808354040283529160200191611a44565b820191906000526020600020905b815481529060010190602001808311611a2757829003601f168201915b5050509183525050604080516101208101825260058401548152600684015460208281019190915260078501549282019290925260088401546001600160a01b0316606082015260098401546080820152600a84015460a0820152600b84015460c0820152600c9093015460ff808216151560e0860152610100918290041615159084015290810191909152815190820151919250611b1891611ae686612517565b84604001518560600151604051602001611b049594939291906139ee565b6040516020818303038152906040526128c3565b604051602001611b289190613b6a565b604051602081830303815290604052915050919050565b6000546001600160a01b0316331461100e5760405162461bcd60e51b815260206004820181905260248201527f4f776e61626c653a2063616c6c6572206973206e6f7420746865206f776e657260448201526064016106c6565b6000826001600160a01b03168260405160006040518083038185875af1925050503d8060008114611be6576040519150601f19603f3d011682016040523d82523d6000602084013e611beb565b606091505b5050905080610ff757600080fd5b8151835114611c1a5760405162461bcd60e51b81526004016106c690613baf565b6001600160a01b038416611c405760405162461bcd60e51b81526004016106c690613bf7565b3360005b8451811015611d2a576000858281518110611c6157611c616137c8565b602002602001015190506000858381518110611c7f57611c7f6137c8565b60209081029190910181015160008481526001835260408082206001600160a01b038e168352909352919091205490915081811015611cd05760405162461bcd60e51b81526004016106c690613c3c565b60008381526001602090815260408083206001600160a01b038e8116855292528083208585039055908b16825281208054849290611d0f908490613938565b9250508190555050505080611d23906137af565b9050611c44565b50846001600160a01b0316866001600160a01b0316826001600160a01b03167f4a39dc06d4c0dbc64b70af90fd698a233a518aa5d07e595d983b8c0526c8f7fb8787604051611d7a929190613c86565b60405180910390a4611d90818787878787612a29565b505050505050565b6001600160a01b038316611dbe5760405162461bcd60e51b81526004016106c690613cab565b8051825114611ddf5760405162461bcd60e51b81526004016106c690613baf565b604080516020810190915260009081905233905b8351811015611eb8576000848281518110611e1057611e106137c8565b602002602001015190506000848381518110611e2e57611e2e6137c8565b60209081029190910181015160008481526001835260408082206001600160a01b038c168352909352919091205490915081811015611e7f5760405162461bcd60e51b81526004016106c690613cee565b60009283526001602090815260408085206001600160a01b038b1686529091529092209103905580611eb0816137af565b915050611df3565b5060006001600160a01b0316846001600160a01b0316826001600160a01b03167f4a39dc06d4c0dbc64b70af90fd698a233a518aa5d07e595d983b8c0526c8f7fb8686604051611f09929190613c86565b60405180910390a46040805160208101909152600090525b50505050565b600080546001600160a01b038381166001600160a01b0319831681178455604051919092169283917f8be0079c531659141344cd1fd0a4f28419497f9722a3daafe3b4186f6b6457e09190a35050565b6001600160a01b038316611f9d5760405162461bcd60e51b81526004016106c690613cab565b336000611fa984612b84565b90506000611fb684612b84565b6040805160208082018352600091829052888252600181528282206001600160a01b038b16835290522054909150848110156120045760405162461bcd60e51b81526004016106c690613cee565b60008681526001602090815260408083206001600160a01b038b81168086529184528285208a8703905582518b81529384018a90529092908816917fc3d58168c5ae7397731d063d5bbf3d657854427343f4c083240f7aacaa2d0f62910160405180910390a460408051602081019091526000905261142a565b600061208c426103e8613921565b612098906103e8613938565b905090565b6000816001600160401b038111156120b7576120b7613228565b6040519080825280602002602001820160405280156120e0578160200160208202803683370190505b5090506000826001600160401b038111156120fd576120fd613228565b604051908082528060200260200182016040528015612126578160200160208202803683370190505b50905060008361213560045490565b61213f9190613818565b905060005b848110156122d65781612156816137af565b925050600061216483612bcf565b9050600060088260405160200161217c929190613d32565b60408051601f198184030181526060830190915260318083529092506000919061428a60208301396000868152600a602052604090209091506121bf8382613e0d565b506000858152600a602052604090206004016121db8382613e0d565b506000858152600a602052604090206001016121f78282613e0d565b5061221461220f61016961220961207e565b88612c61565b612bcf565b6000868152600a60205260409020600201906122309082613e0d565b5061224161220f6101694288612c61565b6000868152600a602052604090206003019061225d9082613e0d565b50612267856107d8565b6000868152600960205260409020906122809082613e0d565b5084878581518110612294576122946137c8565b60200260200101818152505060018685815181106122b4576122b46137c8565b60200260200101818152505050505080806122ce906137af565b915050612144565b50600083836040516020016122ec929190613ef1565b6040516020818303038152906040529050610b3333858584612cc9565b816001600160a01b0316836001600160a01b03160361237c5760405162461bcd60e51b815260206004820152602960248201527f455243313135353a2073657474696e6720617070726f76616c20737461747573604482015268103337b91039b2b63360b91b60648201526084016106c6565b6001600160a01b03838116600081815260026020908152604080832094871680845294825291829020805460ff191686151590811790915591519182527f17307eab39ab6107e8899845ad3d59bd9653f200f220920489ca2b5937696c31910160405180910390a3505050565b6001600160a01b03841661240f5760405162461bcd60e51b81526004016106c690613bf7565b33600061241b85612b84565b9050600061242885612b84565b905060008681526001602090815260408083206001600160a01b038c1684529091529020548581101561246d5760405162461bcd60e51b81526004016106c690613c3c565b60008781526001602090815260408083206001600160a01b038d8116855292528083208985039055908a168252812080548892906124ac908490613938565b909155505060408051888152602081018890526001600160a01b03808b16928c821692918816917fc3d58168c5ae7397731d063d5bbf3d657854427343f4c083240f7aacaa2d0f62910160405180910390a461250c848a8a8a8a8a612e4f565b505050505050505050565b60606000600a60008481526020019081526020016000206040518060c0016040529081600082018054612549906137de565b80601f0160208091040260200160405190810160405280929190818152602001828054612575906137de565b80156125c25780601f10612597576101008083540402835291602001916125c2565b820191906000526020600020905b8154815290600101906020018083116125a557829003601f168201915b505050505081526020016001820180546125db906137de565b80601f0160208091040260200160405190810160405280929190818152602001828054612607906137de565b80156126545780601f1061262957610100808354040283529160200191612654565b820191906000526020600020905b81548152906001019060200180831161263757829003601f168201915b5050505050815260200160028201805461266d906137de565b80601f0160208091040260200160405190810160405280929190818152602001828054612699906137de565b80156126e65780601f106126bb576101008083540402835291602001916126e6565b820191906000526020600020905b8154815290600101906020018083116126c957829003601f168201915b505050505081526020016003820180546126ff906137de565b80601f016020809104026020016040519081016040528092919081815260200182805461272b906137de565b80156127785780601f1061274d57610100808354040283529160200191612778565b820191906000526020600020905b81548152906001019060200180831161275b57829003601f168201915b50505050508152602001600482018054612791906137de565b80601f01602080910402602001604051908101604052809291908181526020018280546127bd906137de565b801561280a5780601f106127df5761010080835404028352916020019161280a565b820191906000526020600020905b8154815290600101906020018083116127ed57829003601f168201915b5050509183525050604080516101208101825260058401548152600684015460208281019190915260078501548284015260088501546001600160a01b03166060808401919091526009860154608080850191909152600a87015460a0850152600b87015460c0850152600c9096015460ff808216151560e086015261010091829004161515908401529381019190915284820151928501519385015191519495506128bc94611b0494929101613f0e565b9392505050565b606081516000036128e257505060408051602081019091526000815290565b60006040518060600160405280604081526020016142bb60409139905060006003845160026129119190613938565b61291b91906140bf565b612926906004613921565b90506000612935826020613938565b6001600160401b0381111561294c5761294c613228565b6040519080825280601f01601f191660200182016040528015612976576020820181803683370190505b509050818152600183018586518101602084015b818310156129e45760039283018051603f601282901c811687015160f890811b8552600c83901c8216880151811b6001860152600683901c8216880151811b60028601529116860151901b9382019390935260040161298a565b6003895106600181146129fe5760028114612a0f57612a1b565b613d3d60f01b600119830152612a1b565b603d60f81b6000198301525b509398975050505050505050565b6001600160a01b0384163b15611d905760405163bc197c8160e01b81526001600160a01b0385169063bc197c8190612a6d90899089908890889088906004016140d3565b6020604051808303816000875af1925050508015612aa8575060408051601f3d908101601f19168201909252612aa591810190614131565b60015b612b5457612ab461414e565b806308c379a003612aed5750612ac861416a565b80612ad35750612aef565b8060405162461bcd60e51b81526004016106c6919061316a565b505b60405162461bcd60e51b815260206004820152603460248201527f455243313135353a207472616e7366657220746f206e6f6e2d455243313135356044820152732932b1b2b4bb32b91034b6b83632b6b2b73a32b960611b60648201526084016106c6565b6001600160e01b0319811663bc197c8160e01b1461142a5760405162461bcd60e51b81526004016106c6906141f3565b60408051600180825281830190925260609160009190602080830190803683370190505090508281600081518110612bbe57612bbe6137c8565b602090810291909101015292915050565b60606000612bdc83612f0a565b60010190506000816001600160401b03811115612bfb57612bfb613228565b6040519080825280601f01601f191660200182016040528015612c25576020820181803683370190505b5090508181016020015b600019016f181899199a1a9b1b9c1cb0b131b232b360811b600a86061a8153600a8504945084612c2f57509392505050565b604080514260208201526bffffffffffffffffffffffff193360601b16918101919091526054810183905260748101829052600090819085906094016040516020818303038152906040528051906020012060001c612cc0919061423b565b95945050505050565b6001600160a01b038416612d295760405162461bcd60e51b815260206004820152602160248201527f455243313135353a206d696e7420746f20746865207a65726f206164647265736044820152607360f81b60648201526084016106c6565b8151835114612d4a5760405162461bcd60e51b81526004016106c690613baf565b3360005b8451811015612de757838181518110612d6957612d696137c8565b602002602001015160016000878481518110612d8757612d876137c8565b602002602001015181526020019081526020016000206000886001600160a01b03166001600160a01b031681526020019081526020016000206000828254612dcf9190613938565b90915550819050612ddf816137af565b915050612d4e565b50846001600160a01b031660006001600160a01b0316826001600160a01b03167f4a39dc06d4c0dbc64b70af90fd698a233a518aa5d07e595d983b8c0526c8f7fb8787604051612e38929190613c86565b60405180910390a4610b3381600087878787612a29565b6001600160a01b0384163b15611d905760405163f23a6e6160e01b81526001600160a01b0385169063f23a6e6190612e93908990899088908890889060040161424f565b6020604051808303816000875af1925050508015612ece575060408051601f3d908101601f19168201909252612ecb91810190614131565b60015b612eda57612ab461414e565b6001600160e01b0319811663f23a6e6160e01b1461142a5760405162461bcd60e51b81526004016106c6906141f3565b60008072184f03e93ff9f4daa797ed6e38ed64bf6a1f0160401b8310612f495772184f03e93ff9f4daa797ed6e38ed64bf6a1f0160401b830492506040015b6d04ee2d6d415b85acef81000000008310612f75576d04ee2d6d415b85acef8100000000830492506020015b662386f26fc100008310612f9357662386f26fc10000830492506010015b6305f5e1008310612fab576305f5e100830492506008015b6127108310612fbf57612710830492506004015b60648310612fd1576064830492506002015b600a83106106f45760010192915050565b60405180610120016040528060008152602001600081526020016000815260200160006001600160a01b031681526020016000815260200160008152602001600081526020016000151581526020016000151581525090565b60006020828403121561304d57600080fd5b5035919050565b6020808252825182820181905260009190848201906040850190845b818110156130955783516001600160a01b031683529284019291840191600101613070565b50909695505050505050565b80356001600160a01b03811681146130b857600080fd5b919050565b600080604083850312156130d057600080fd5b6130d9836130a1565b946020939093013593505050565b6001600160e01b03198116811461170b57600080fd5b60006020828403121561310f57600080fd5b81356128bc816130e7565b60005b8381101561313557818101518382015260200161311d565b50506000910152565b6000815180845261315681602086016020860161311a565b601f01601f19169290920160200192915050565b6020815260006128bc602083018461313e565b80518252602081015160208301526040810151604083015260018060a01b0360608201511660608301526080810151608083015260a081015160a083015260c081015160c083015260e0810151151560e083015261010080820151611f218285018215159052565b6020808252825182820181905260009190848201906040850190845b818110156130955761321483855161317d565b928401926101209290920191600101613201565b634e487b7160e01b600052604160045260246000fd5b601f8201601f191681016001600160401b038111828210171561326357613263613228565b6040525050565b60405161016081016001600160401b038111828210171561328d5761328d613228565b60405290565b60006001600160401b038211156132ac576132ac613228565b5060051b60200190565b600082601f8301126132c757600080fd5b813560206132d482613293565b6040516132e1828261323e565b83815260059390931b850182019282810191508684111561330157600080fd5b8286015b8481101561331c5780358352918301918301613305565b509695505050505050565b600082601f83011261333857600080fd5b81356001600160401b0381111561335157613351613228565b604051613368601f8301601f19166020018261323e565b81815284602083860101111561337d57600080fd5b816020850160208301376000918101602001919091529392505050565b600080600080600060a086880312156133b257600080fd5b6133bb866130a1565b94506133c9602087016130a1565b935060408601356001600160401b03808211156133e557600080fd5b6133f189838a016132b6565b9450606088013591508082111561340757600080fd5b61341389838a016132b6565b9350608088013591508082111561342957600080fd5b5061343688828901613327565b9150509295509295909350565b60006101c08083526134578184018a61313e565b9050828103602084015261346b818961313e565b9050828103604084015261347f818861313e565b90508281036060840152613493818761313e565b905082810360808401526134a7818661313e565b9150506134b760a083018461317d565b979650505050505050565b600080604083850312156134d557600080fd5b82356001600160401b03808211156134ec57600080fd5b818501915085601f83011261350057600080fd5b8135602061350d82613293565b60405161351a828261323e565b83815260059390931b850182019282810191508984111561353a57600080fd5b948201945b8386101561355f57613550866130a1565b8252948201949082019061353f565b9650508601359250508082111561357557600080fd5b50613582858286016132b6565b9150509250929050565b600081518084526020808501945080840160005b838110156135bc578151875295820195908201906001016135a0565b509495945050505050565b6020815260006128bc602083018461358c565b6000806000606084860312156135ef57600080fd5b6135f8846130a1565b925060208401356001600160401b038082111561361457600080fd5b613620878388016132b6565b9350604086013591508082111561363657600080fd5b50613643868287016132b6565b9150509250925092565b6000806040838503121561366057600080fd5b50508035926020909101359150565b801515811461170b57600080fd5b6000806040838503121561369057600080fd5b613699836130a1565b915060208301356136a98161366f565b809150509250929050565b600080604083850312156136c757600080fd5b6136d0836130a1565b91506136de602084016130a1565b90509250929050565b600080600080600060a086880312156136ff57600080fd5b613708866130a1565b9450613716602087016130a1565b9350604086013592506060860135915060808601356001600160401b0381111561373f57600080fd5b61343688828901613327565b60006020828403121561375d57600080fd5b6128bc826130a1565b60008060006060848603121561377b57600080fd5b613784846130a1565b95602085013595506040909401359392505050565b634e487b7160e01b600052601160045260246000fd5b6000600182016137c1576137c1613799565b5060010190565b634e487b7160e01b600052603260045260246000fd5b600181811c908216806137f257607f821691505b60208210810361381257634e487b7160e01b600052602260045260246000fd5b50919050565b818103818111156106f4576106f4613799565b6020808252602e908201527f455243313135353a2063616c6c6572206973206e6f7420746f6b656e206f776e60408201526d195c881bdc88185c1c1c9bdd995960921b606082015260800190565b80516130b88161366f565b6000610160828403121561389757600080fd5b61389f61326a565b825181526020830151602082015260408301516040820152606083015160608201526080830151608082015260a083015160a082015260c083015160c08201526138eb60e08401613879565b60e08201526101006138fe818501613879565b908201526101208381015190820152610140928301519281019290925250919050565b80820281158282048414176106f4576106f4613799565b808201808211156106f4576106f4613799565b600061016082019050825182526020830151602083015260408301516040830152606083015160608301526080830151608083015260a083015160a083015260c083015160c083015260e08301516139a760e084018215159052565b5061010083810151151590830152610120808401519083015261014092830151929091019190915290565b600081516139e481856020860161311a565b9290920192915050565b683d913730b6b2911d1160b91b81528551600090613a13816009850160208b0161311a565b71111610113232b9b1b934b83a34b7b7111d1160711b6009918401918201528651613a4581601b840160208b0161311a565b6c1116101134b6b0b3b2911d101160991b601b92909101918201527f646174613a696d6167652f7376672b786d6c3b6261736536342c00000000000060288201528551613a99816042840160208a0161311a565b7f222c202261747472696275746573223a205b7b2274726169745f74797065223a604292909101918201527f20224261636b67726f756e6420487565222c202276616c7565223a202200000060628201528451613afd81607f84016020890161311a565b613b5d613b4d613b47607f848601017f227d2c207b2274726169745f74797065223a20225465787420487565222c20228152683b30b63ab2911d101160b91b602082015260290190565b876139d2565b63227d5d7d60e01b815260040190565b9998505050505050505050565b7f646174613a6170706c69636174696f6e2f6a736f6e3b6261736536342c000000815260008251613ba281601d85016020870161311a565b91909101601d0192915050565b60208082526028908201527f455243313135353a2069647320616e6420616d6f756e7473206c656e677468206040820152670dad2e6dac2e8c6d60c31b606082015260800190565b60208082526025908201527f455243313135353a207472616e7366657220746f20746865207a65726f206164604082015264647265737360d81b606082015260800190565b6020808252602a908201527f455243313135353a20696e73756666696369656e742062616c616e636520666f60408201526939103a3930b739b332b960b11b606082015260800190565b604081526000613c99604083018561358c565b8281036020840152612cc0818561358c565b60208082526023908201527f455243313135353a206275726e2066726f6d20746865207a65726f206164647260408201526265737360e81b606082015260800190565b60208082526024908201527f455243313135353a206275726e20616d6f756e7420657863656564732062616c604082015263616e636560e01b606082015260800190565b6000808454613d40816137de565b60018281168015613d585760018114613d6d57613d9c565b60ff1984168752821515830287019450613d9c565b8860005260208060002060005b85811015613d935781548a820152908401908201613d7a565b50505082870194505b5050505061202360f01b81528351613dbb81600284016020880161311a565b01600201949350505050565b601f821115610ff757600081815260208120601f850160051c81016020861015613dee5750805b601f850160051c820191505b81811015611d9057828155600101613dfa565b81516001600160401b03811115613e2657613e26613228565b613e3a81613e3484546137de565b84613dc7565b602080601f831160018114613e6f5760008415613e575750858301515b600019600386901b1c1916600185901b178555611d90565b600085815260208120601f198616915b82811015613e9e57888601518255948401946001909101908401613e7f565b5085821015613ebc5787850151600019600388901b60f8161c191681555b5050505050600190811b01905550565b805160009060208084018383156135bc578151875295820195908201906001016135a0565b6000613f06613f008386613ecc565b84613ecc565b949350505050565b7f3c7376672077696474683d2235303022206865696768743d223530302220786d81527f6c6e733d22687474703a2f2f7777772e77332e6f72672f323030302f737667226020820152601f60f91b60408201527f3c72656374206865696768743d22353030222077696474683d223530302220666041820152680d2d8d87a44d0e6d8560bb1b606182015260008451613fae81606a85016020890161311a565b6d16101a98129610191a929491179f60911b606a918401918201527f3c7465787420783d223530252220793d223530252220646f6d696e616e742d6260788201527f6173656c696e653d226d6964646c65222066696c6c3d2268736c280000000000609882015284516140288160b384016020890161311a565b6134b761409761408461407e60b3858701017f2c20313030252c20383025292220746578742d616e63686f723d226d6964646c8152713291103337b73a16b9b4bd329e911a18911f60711b602082015260320190565b886139d2565b661e17ba32bc3a1f60c91b815260070190565b651e17b9bb339f60d11b815260060190565b634e487b7160e01b600052601260045260246000fd5b6000826140ce576140ce6140a9565b500490565b6001600160a01b0386811682528516602082015260a0604082018190526000906140ff9083018661358c565b8281036060840152614111818661358c565b90508281036080840152614125818561313e565b98975050505050505050565b60006020828403121561414357600080fd5b81516128bc816130e7565b600060033d11156141675760046000803e5060005160e01c5b90565b600060443d10156141785790565b6040516003193d81016004833e81513d6001600160401b0381602484011181841117156141a757505050505090565b82850191508151818111156141bf5750505050505090565b843d87010160208285010111156141d95750505050505090565b6141e86020828601018761323e565b509095945050505050565b60208082526028908201527f455243313135353a204552433131353552656365697665722072656a656374656040820152676420746f6b656e7360c01b606082015260800190565b60008261424a5761424a6140a9565b500690565b6001600160a01b03868116825285166020820152604081018490526060810183905260a0608082018190526000906134b79083018461313e56fe5468657365204e465473206172652061637475616c6c79207469636b65747320666f7220446170702043696e656d61732e4142434445464748494a4b4c4d4e4f505152535455565758595a6162636465666768696a6b6c6d6e6f707172737475767778797a303132333435363738392b2fa2646970667358221220b314ae603d1a450f630d0e25ace14803d8d10505f3e1ba6ce1c711ab657ddb9764736f6c63430008130033","opcodes":"PUSH1 0x80 PUSH1 0x40 MSTORE CALLVALUE DUP1 ISZERO PUSH3 0x11 JUMPI PUSH1 0x0 DUP1 REVERT JUMPDEST POP PUSH1 0x40 MLOAD PUSH3 0x46E8 CODESIZE SUB DUP1 PUSH3 0x46E8 DUP4 CODECOPY DUP2 ADD PUSH1 0x40 DUP2 SWAP1 MSTORE PUSH3 0x34 SWAP2 PUSH3 0x1C3 JUMP JUMPDEST PUSH1 0x40 DUP1 MLOAD PUSH1 0x20 DUP2 ADD SWAP1 SWAP2 MSTORE PUSH1 0x0 DUP2 MSTORE PUSH3 0x4E CALLER PUSH3 0x9C JUMP JUMPDEST PUSH3 0x59 DUP2 PUSH3 0xEC JUMP JUMPDEST POP PUSH1 0x5 DUP1 SLOAD PUSH1 0x1 PUSH1 0x1 PUSH1 0xA0 SHL SUB NOT AND PUSH1 0x1 PUSH1 0x1 PUSH1 0xA0 SHL SUB DUP6 AND OR SWAP1 SSTORE PUSH1 0x7 PUSH3 0x83 DUP4 DUP3 PUSH3 0x2DC JUMP JUMPDEST POP PUSH1 0x8 PUSH3 0x92 DUP3 DUP3 PUSH3 0x2DC JUMP JUMPDEST POP POP POP POP PUSH3 0x3A8 JUMP JUMPDEST PUSH1 0x0 DUP1 SLOAD PUSH1 0x1 PUSH1 0x1 PUSH1 0xA0 SHL SUB DUP4 DUP2 AND PUSH1 0x1 PUSH1 0x1 PUSH1 0xA0 SHL SUB NOT DUP4 AND DUP2 OR DUP5 SSTORE PUSH1 0x40 MLOAD SWAP2 SWAP1 SWAP3 AND SWAP3 DUP4 SWAP2 PUSH32 0x8BE0079C531659141344CD1FD0A4F28419497F9722A3DAAFE3B4186F6B6457E0 SWAP2 SWAP1 LOG3 POP POP JUMP JUMPDEST PUSH1 0x3 PUSH3 0xFA DUP3 DUP3 PUSH3 0x2DC JUMP JUMPDEST POP POP JUMP JUMPDEST PUSH4 0x4E487B71 PUSH1 0xE0 SHL PUSH1 0x0 MSTORE PUSH1 0x41 PUSH1 0x4 MSTORE PUSH1 0x24 PUSH1 0x0 REVERT JUMPDEST PUSH1 0x0 DUP3 PUSH1 0x1F DUP4 ADD SLT PUSH3 0x126 JUMPI PUSH1 0x0 DUP1 REVERT JUMPDEST DUP2 MLOAD PUSH1 0x1 PUSH1 0x1 PUSH1 0x40 SHL SUB DUP1 DUP3 GT ISZERO PUSH3 0x143 JUMPI PUSH3 0x143 PUSH3 0xFE JUMP JUMPDEST PUSH1 0x40 MLOAD PUSH1 0x1F DUP4 ADD PUSH1 0x1F NOT SWAP1 DUP2 AND PUSH1 0x3F ADD AND DUP2 ADD SWAP1 DUP3 DUP3 GT DUP2 DUP4 LT OR ISZERO PUSH3 0x16E JUMPI PUSH3 0x16E PUSH3 0xFE JUMP JUMPDEST DUP2 PUSH1 0x40 MSTORE DUP4 DUP2 MSTORE PUSH1 0x20 SWAP3 POP DUP7 DUP4 DUP6 DUP9 ADD ADD GT ISZERO PUSH3 0x18B JUMPI PUSH1 0x0 DUP1 REVERT JUMPDEST PUSH1 0x0 SWAP2 POP JUMPDEST DUP4 DUP3 LT ISZERO PUSH3 0x1AF JUMPI DUP6 DUP3 ADD DUP4 ADD MLOAD DUP2 DUP4 ADD DUP5 ADD MSTORE SWAP1 DUP3 ADD SWAP1 PUSH3 0x190 JUMP JUMPDEST PUSH1 0x0 SWAP4 DUP2 ADD SWAP1 SWAP3 ADD SWAP3 SWAP1 SWAP3 MSTORE SWAP5 SWAP4 POP POP POP POP JUMP JUMPDEST PUSH1 0x0 DUP1 PUSH1 0x0 PUSH1 0x60 DUP5 DUP7 SUB SLT ISZERO PUSH3 0x1D9 JUMPI PUSH1 0x0 DUP1 REVERT JUMPDEST DUP4 MLOAD PUSH1 0x1 PUSH1 0x1 PUSH1 0xA0 SHL SUB DUP2 AND DUP2 EQ PUSH3 0x1F1 JUMPI PUSH1 0x0 DUP1 REVERT JUMPDEST PUSH1 0x20 DUP6 ADD MLOAD SWAP1 SWAP4 POP PUSH1 0x1 PUSH1 0x1 PUSH1 0x40 SHL SUB DUP1 DUP3 GT ISZERO PUSH3 0x20F JUMPI PUSH1 0x0 DUP1 REVERT JUMPDEST PUSH3 0x21D DUP8 DUP4 DUP9 ADD PUSH3 0x114 JUMP JUMPDEST SWAP4 POP PUSH1 0x40 DUP7 ADD MLOAD SWAP2 POP DUP1 DUP3 GT ISZERO PUSH3 0x234 JUMPI PUSH1 0x0 DUP1 REVERT JUMPDEST POP PUSH3 0x243 DUP7 DUP3 DUP8 ADD PUSH3 0x114 JUMP JUMPDEST SWAP2 POP POP SWAP3 POP SWAP3 POP SWAP3 JUMP JUMPDEST PUSH1 0x1 DUP2 DUP2 SHR SWAP1 DUP3 AND DUP1 PUSH3 0x262 JUMPI PUSH1 0x7F DUP3 AND SWAP2 POP JUMPDEST PUSH1 0x20 DUP3 LT DUP2 SUB PUSH3 0x283 JUMPI PUSH4 0x4E487B71 PUSH1 0xE0 SHL PUSH1 0x0 MSTORE PUSH1 0x22 PUSH1 0x4 MSTORE PUSH1 0x24 PUSH1 0x0 REVERT JUMPDEST POP SWAP2 SWAP1 POP JUMP JUMPDEST PUSH1 0x1F DUP3 GT ISZERO PUSH3 0x2D7 JUMPI PUSH1 0x0 DUP2 DUP2 MSTORE PUSH1 0x20 DUP2 KECCAK256 PUSH1 0x1F DUP6 ADD PUSH1 0x5 SHR DUP2 ADD PUSH1 0x20 DUP7 LT ISZERO PUSH3 0x2B2 JUMPI POP DUP1 JUMPDEST PUSH1 0x1F DUP6 ADD PUSH1 0x5 SHR DUP3 ADD SWAP2 POP JUMPDEST DUP2 DUP2 LT ISZERO PUSH3 0x2D3 JUMPI DUP3 DUP2 SSTORE PUSH1 0x1 ADD PUSH3 0x2BE JUMP JUMPDEST POP POP POP JUMPDEST POP POP POP JUMP JUMPDEST DUP2 MLOAD PUSH1 0x1 PUSH1 0x1 PUSH1 0x40 SHL SUB DUP2 GT ISZERO PUSH3 0x2F8 JUMPI PUSH3 0x2F8 PUSH3 0xFE JUMP JUMPDEST PUSH3 0x310 DUP2 PUSH3 0x309 DUP5 SLOAD PUSH3 0x24D JUMP JUMPDEST DUP5 PUSH3 0x289 JUMP JUMPDEST PUSH1 0x20 DUP1 PUSH1 0x1F DUP4 GT PUSH1 0x1 DUP2 EQ PUSH3 0x348 JUMPI PUSH1 0x0 DUP5 ISZERO PUSH3 0x32F JUMPI POP DUP6 DUP4 ADD MLOAD JUMPDEST PUSH1 0x0 NOT PUSH1 0x3 DUP7 SWAP1 SHL SHR NOT AND PUSH1 0x1 DUP6 SWAP1 SHL OR DUP6 SSTORE PUSH3 0x2D3 JUMP JUMPDEST PUSH1 0x0 DUP6 DUP2 MSTORE PUSH1 0x20 DUP2 KECCAK256 PUSH1 0x1F NOT DUP7 AND SWAP2 JUMPDEST DUP3 DUP2 LT ISZERO PUSH3 0x379 JUMPI DUP9 DUP7 ADD MLOAD DUP3 SSTORE SWAP5 DUP5 ADD SWAP5 PUSH1 0x1 SWAP1 SWAP2 ADD SWAP1 DUP5 ADD PUSH3 0x358 JUMP JUMPDEST POP DUP6 DUP3 LT ISZERO PUSH3 0x398 JUMPI DUP8 DUP6 ADD MLOAD PUSH1 0x0 NOT PUSH1 0x3 DUP9 SWAP1 SHL PUSH1 0xF8 AND SHR NOT AND DUP2 SSTORE JUMPDEST POP POP POP POP POP PUSH1 0x1 SWAP1 DUP2 SHL ADD SWAP1 SSTORE POP JUMP JUMPDEST PUSH2 0x4330 DUP1 PUSH3 0x3B8 PUSH1 0x0 CODECOPY PUSH1 0x0 RETURN INVALID PUSH1 0x80 PUSH1 0x40 MSTORE PUSH1 0x4 CALLDATASIZE LT PUSH2 0x164 JUMPI PUSH1 0x0 CALLDATALOAD PUSH1 0xE0 SHR DUP1 PUSH4 0x715018A6 GT PUSH2 0xD1 JUMPI DUP1 PUSH4 0xA22CB465 GT PUSH2 0x8A JUMPI DUP1 PUSH4 0xE985E9C5 GT PUSH2 0x64 JUMPI DUP1 PUSH4 0xE985E9C5 EQ PUSH2 0x448 JUMPI DUP1 PUSH4 0xF242432A EQ PUSH2 0x491 JUMPI DUP1 PUSH4 0xF2FDE38B EQ PUSH2 0x4B1 JUMPI DUP1 PUSH4 0xF5298ACA EQ PUSH2 0x4D1 JUMPI PUSH1 0x0 DUP1 REVERT JUMPDEST DUP1 PUSH4 0xA22CB465 EQ PUSH2 0x3F2 JUMPI DUP1 PUSH4 0xA70B725E EQ PUSH2 0x412 JUMPI DUP1 PUSH4 0xB69EF8A8 EQ PUSH2 0x432 JUMPI PUSH1 0x0 DUP1 REVERT JUMPDEST DUP1 PUSH4 0x715018A6 EQ PUSH2 0x34D JUMPI DUP1 PUSH4 0x773DD66C EQ PUSH2 0x362 JUMPI DUP1 PUSH4 0x8627DF46 EQ PUSH2 0x382 JUMPI DUP1 PUSH4 0x8DA5CB5B EQ PUSH2 0x395 JUMPI DUP1 PUSH4 0x933412DE EQ PUSH2 0x3BD JUMPI DUP1 PUSH4 0x95D89B41 EQ PUSH2 0x3DD JUMPI PUSH1 0x0 DUP1 REVERT JUMPDEST DUP1 PUSH4 0x205C2878 GT PUSH2 0x123 JUMPI DUP1 PUSH4 0x205C2878 EQ PUSH2 0x26C JUMPI DUP1 PUSH4 0x22C79FFB EQ PUSH2 0x28E JUMPI DUP1 PUSH4 0x2EB2C2D6 EQ PUSH2 0x2AE JUMPI DUP1 PUSH4 0x40B882CF EQ PUSH2 0x2CE JUMPI DUP1 PUSH4 0x4E1273F4 EQ PUSH2 0x300 JUMPI DUP1 PUSH4 0x6B20C454 EQ PUSH2 0x32D JUMPI PUSH1 0x0 DUP1 REVERT JUMPDEST DUP1 PUSH3 0x2A5CC9 EQ PUSH2 0x169 JUMPI DUP1 PUSH3 0xFDD58E EQ PUSH2 0x19F JUMPI DUP1 PUSH4 0x1FFC9A7 EQ PUSH2 0x1CD JUMPI DUP1 PUSH4 0x6FDDE03 EQ PUSH2 0x1FD JUMPI DUP1 PUSH4 0xE89341C EQ PUSH2 0x21F JUMPI DUP1 PUSH4 0x14F2979F EQ PUSH2 0x23F JUMPI JUMPDEST PUSH1 0x0 DUP1 REVERT JUMPDEST CALLVALUE DUP1 ISZERO PUSH2 0x175 JUMPI PUSH1 0x0 DUP1 REVERT JUMPDEST POP PUSH2 0x189 PUSH2 0x184 CALLDATASIZE PUSH1 0x4 PUSH2 0x303B JUMP JUMPDEST PUSH2 0x4F1 JUMP JUMPDEST PUSH1 0x40 MLOAD PUSH2 0x196 SWAP2 SWAP1 PUSH2 0x3054 JUMP JUMPDEST PUSH1 0x40 MLOAD DUP1 SWAP2 SUB SWAP1 RETURN JUMPDEST CALLVALUE DUP1 ISZERO PUSH2 0x1AB JUMPI PUSH1 0x0 DUP1 REVERT JUMPDEST POP PUSH2 0x1BF PUSH2 0x1BA CALLDATASIZE PUSH1 0x4 PUSH2 0x30BD JUMP JUMPDEST PUSH2 0x65F JUMP JUMPDEST PUSH1 0x40 MLOAD SWAP1 DUP2 MSTORE PUSH1 0x20 ADD PUSH2 0x196 JUMP JUMPDEST CALLVALUE DUP1 ISZERO PUSH2 0x1D9 JUMPI PUSH1 0x0 DUP1 REVERT JUMPDEST POP PUSH2 0x1ED PUSH2 0x1E8 CALLDATASIZE PUSH1 0x4 PUSH2 0x30FD JUMP JUMPDEST PUSH2 0x6FA JUMP JUMPDEST PUSH1 0x40 MLOAD SWAP1 ISZERO ISZERO DUP2 MSTORE PUSH1 0x20 ADD PUSH2 0x196 JUMP JUMPDEST CALLVALUE DUP1 ISZERO PUSH2 0x209 JUMPI PUSH1 0x0 DUP1 REVERT JUMPDEST POP PUSH2 0x212 PUSH2 0x74A JUMP JUMPDEST PUSH1 0x40 MLOAD PUSH2 0x196 SWAP2 SWAP1 PUSH2 0x316A JUMP JUMPDEST CALLVALUE DUP1 ISZERO PUSH2 0x22B JUMPI PUSH1 0x0 DUP1 REVERT JUMPDEST POP PUSH2 0x212 PUSH2 0x23A CALLDATASIZE PUSH1 0x4 PUSH2 0x303B JUMP JUMPDEST PUSH2 0x7D8 JUMP JUMPDEST CALLVALUE DUP1 ISZERO PUSH2 0x24B JUMPI PUSH1 0x0 DUP1 REVERT JUMPDEST POP PUSH2 0x25F PUSH2 0x25A CALLDATASIZE PUSH1 0x4 PUSH2 0x303B JUMP JUMPDEST PUSH2 0x7E3 JUMP JUMPDEST PUSH1 0x40 MLOAD PUSH2 0x196 SWAP2 SWAP1 PUSH2 0x31E5 JUMP JUMPDEST CALLVALUE DUP1 ISZERO PUSH2 0x278 JUMPI PUSH1 0x0 DUP1 REVERT JUMPDEST POP PUSH2 0x28C PUSH2 0x287 CALLDATASIZE PUSH1 0x4 PUSH2 0x30BD JUMP JUMPDEST PUSH2 0x9B3 JUMP JUMPDEST STOP JUMPDEST CALLVALUE DUP1 ISZERO PUSH2 0x29A JUMPI PUSH1 0x0 DUP1 REVERT JUMPDEST POP PUSH2 0x28C PUSH2 0x2A9 CALLDATASIZE PUSH1 0x4 PUSH2 0x303B JUMP JUMPDEST PUSH2 0xA25 JUMP JUMPDEST CALLVALUE DUP1 ISZERO PUSH2 0x2BA JUMPI PUSH1 0x0 DUP1 REVERT JUMPDEST POP PUSH2 0x28C PUSH2 0x2C9 CALLDATASIZE PUSH1 0x4 PUSH2 0x339A JUMP JUMPDEST PUSH2 0xAEE JUMP JUMPDEST CALLVALUE DUP1 ISZERO PUSH2 0x2DA JUMPI PUSH1 0x0 DUP1 REVERT JUMPDEST POP PUSH2 0x2EE PUSH2 0x2E9 CALLDATASIZE PUSH1 0x4 PUSH2 0x303B JUMP JUMPDEST PUSH2 0xB3A JUMP JUMPDEST PUSH1 0x40 MLOAD PUSH2 0x196 SWAP7 SWAP6 SWAP5 SWAP4 SWAP3 SWAP2 SWAP1 PUSH2 0x3443 JUMP JUMPDEST CALLVALUE DUP1 ISZERO PUSH2 0x30C JUMPI PUSH1 0x0 DUP1 REVERT JUMPDEST POP PUSH2 0x320 PUSH2 0x31B CALLDATASIZE PUSH1 0x4 PUSH2 0x34C2 JUMP JUMPDEST PUSH2 0xE8B JUMP JUMPDEST PUSH1 0x40 MLOAD PUSH2 0x196 SWAP2 SWAP1 PUSH2 0x35C7 JUMP JUMPDEST CALLVALUE DUP1 ISZERO PUSH2 0x339 JUMPI PUSH1 0x0 DUP1 REVERT JUMPDEST POP PUSH2 0x28C PUSH2 0x348 CALLDATASIZE PUSH1 0x4 PUSH2 0x35DA JUMP JUMPDEST PUSH2 0xFB4 JUMP JUMPDEST CALLVALUE DUP1 ISZERO PUSH2 0x359 JUMPI PUSH1 0x0 DUP1 REVERT JUMPDEST POP PUSH2 0x28C PUSH2 0xFFC JUMP JUMPDEST CALLVALUE DUP1 ISZERO PUSH2 0x36E JUMPI PUSH1 0x0 DUP1 REVERT JUMPDEST POP PUSH2 0x28C PUSH2 0x37D CALLDATASIZE PUSH1 0x4 PUSH2 0x303B JUMP JUMPDEST PUSH2 0x1010 JUMP JUMPDEST PUSH2 0x28C PUSH2 0x390 CALLDATASIZE PUSH1 0x4 PUSH2 0x364D JUMP JUMPDEST PUSH2 0x116E JUMP JUMPDEST CALLVALUE DUP1 ISZERO PUSH2 0x3A1 JUMPI PUSH1 0x0 DUP1 REVERT JUMPDEST POP PUSH1 0x0 SLOAD PUSH1 0x40 MLOAD PUSH1 0x1 PUSH1 0x1 PUSH1 0xA0 SHL SUB SWAP1 SWAP2 AND DUP2 MSTORE PUSH1 0x20 ADD PUSH2 0x196 JUMP JUMPDEST CALLVALUE DUP1 ISZERO PUSH2 0x3C9 JUMPI PUSH1 0x0 DUP1 REVERT JUMPDEST POP PUSH2 0x28C PUSH2 0x3D8 CALLDATASIZE PUSH1 0x4 PUSH2 0x303B JUMP JUMPDEST PUSH2 0x1433 JUMP JUMPDEST CALLVALUE DUP1 ISZERO PUSH2 0x3E9 JUMPI PUSH1 0x0 DUP1 REVERT JUMPDEST POP PUSH2 0x212 PUSH2 0x1577 JUMP JUMPDEST CALLVALUE DUP1 ISZERO PUSH2 0x3FE JUMPI PUSH1 0x0 DUP1 REVERT JUMPDEST POP PUSH2 0x28C PUSH2 0x40D CALLDATASIZE PUSH1 0x4 PUSH2 0x367D JUMP JUMPDEST PUSH2 0x1584 JUMP JUMPDEST CALLVALUE DUP1 ISZERO PUSH2 0x41E JUMPI PUSH1 0x0 DUP1 REVERT JUMPDEST POP PUSH2 0x28C PUSH2 0x42D CALLDATASIZE PUSH1 0x4 PUSH2 0x303B JUMP JUMPDEST PUSH2 0x158F JUMP JUMPDEST CALLVALUE DUP1 ISZERO PUSH2 0x43E JUMPI PUSH1 0x0 DUP1 REVERT JUMPDEST POP PUSH2 0x1BF PUSH1 0x6 SLOAD DUP2 JUMP JUMPDEST CALLVALUE DUP1 ISZERO PUSH2 0x454 JUMPI PUSH1 0x0 DUP1 REVERT JUMPDEST POP PUSH2 0x1ED PUSH2 0x463 CALLDATASIZE PUSH1 0x4 PUSH2 0x36B4 JUMP JUMPDEST PUSH1 0x1 PUSH1 0x1 PUSH1 0xA0 SHL SUB SWAP2 DUP3 AND PUSH1 0x0 SWAP1 DUP2 MSTORE PUSH1 0x2 PUSH1 0x20 SWAP1 DUP2 MSTORE PUSH1 0x40 DUP1 DUP4 KECCAK256 SWAP4 SWAP1 SWAP5 AND DUP3 MSTORE SWAP2 SWAP1 SWAP2 MSTORE KECCAK256 SLOAD PUSH1 0xFF AND SWAP1 JUMP JUMPDEST CALLVALUE DUP1 ISZERO PUSH2 0x49D JUMPI PUSH1 0x0 DUP1 REVERT JUMPDEST POP PUSH2 0x28C PUSH2 0x4AC CALLDATASIZE PUSH1 0x4 PUSH2 0x36E7 JUMP JUMPDEST PUSH2 0x1650 JUMP JUMPDEST CALLVALUE DUP1 ISZERO PUSH2 0x4BD JUMPI PUSH1 0x0 DUP1 REVERT JUMPDEST POP PUSH2 0x28C PUSH2 0x4CC CALLDATASIZE PUSH1 0x4 PUSH2 0x374B JUMP JUMPDEST PUSH2 0x1695 JUMP JUMPDEST CALLVALUE DUP1 ISZERO PUSH2 0x4DD JUMPI PUSH1 0x0 DUP1 REVERT JUMPDEST POP PUSH2 0x28C PUSH2 0x4EC CALLDATASIZE PUSH1 0x4 PUSH2 0x3766 JUMP JUMPDEST PUSH2 0x170E JUMP JUMPDEST PUSH1 0x60 PUSH1 0x0 PUSH1 0x1 JUMPDEST PUSH1 0x4 SLOAD DUP2 GT PUSH2 0x55D JUMPI PUSH1 0x0 DUP2 DUP2 MSTORE PUSH1 0xA PUSH1 0x20 MSTORE PUSH1 0x40 SWAP1 KECCAK256 PUSH1 0x7 ADD SLOAD DUP5 EQ DUP1 ISZERO PUSH2 0x538 JUMPI POP PUSH1 0x0 DUP2 DUP2 MSTORE PUSH1 0xA PUSH1 0x20 MSTORE PUSH1 0x40 SWAP1 KECCAK256 PUSH1 0xC ADD SLOAD PUSH2 0x100 SWAP1 DIV PUSH1 0xFF AND ISZERO JUMPDEST ISZERO PUSH2 0x54B JUMPI DUP2 PUSH2 0x547 DUP2 PUSH2 0x37AF JUMP JUMPDEST SWAP3 POP POP JUMPDEST DUP1 PUSH2 0x555 DUP2 PUSH2 0x37AF JUMP JUMPDEST SWAP2 POP POP PUSH2 0x4F8 JUMP JUMPDEST POP DUP1 PUSH1 0x1 PUSH1 0x1 PUSH1 0x40 SHL SUB DUP2 GT ISZERO PUSH2 0x576 JUMPI PUSH2 0x576 PUSH2 0x3228 JUMP JUMPDEST PUSH1 0x40 MLOAD SWAP1 DUP1 DUP3 MSTORE DUP1 PUSH1 0x20 MUL PUSH1 0x20 ADD DUP3 ADD PUSH1 0x40 MSTORE DUP1 ISZERO PUSH2 0x59F JUMPI DUP2 PUSH1 0x20 ADD PUSH1 0x20 DUP3 MUL DUP1 CALLDATASIZE DUP4 CALLDATACOPY ADD SWAP1 POP JUMPDEST POP SWAP2 POP PUSH1 0x0 PUSH1 0x1 JUMPDEST PUSH1 0x4 SLOAD DUP2 GT PUSH2 0x657 JUMPI PUSH1 0x0 DUP2 DUP2 MSTORE PUSH1 0xA PUSH1 0x20 MSTORE PUSH1 0x40 SWAP1 KECCAK256 PUSH1 0x7 ADD SLOAD DUP6 EQ DUP1 ISZERO PUSH2 0x5E7 JUMPI POP PUSH1 0x0 DUP2 DUP2 MSTORE PUSH1 0xA PUSH1 0x20 MSTORE PUSH1 0x40 SWAP1 KECCAK256 PUSH1 0xC ADD SLOAD PUSH2 0x100 SWAP1 DIV PUSH1 0xFF AND ISZERO JUMPDEST ISZERO PUSH2 0x645 JUMPI PUSH1 0x0 DUP2 DUP2 MSTORE PUSH1 0xA PUSH1 0x20 MSTORE PUSH1 0x40 SWAP1 KECCAK256 PUSH1 0x8 ADD SLOAD PUSH1 0x1 PUSH1 0x1 PUSH1 0xA0 SHL SUB AND DUP5 DUP4 PUSH2 0x612 DUP2 PUSH2 0x37AF JUMP JUMPDEST SWAP5 POP DUP2 MLOAD DUP2 LT PUSH2 0x624 JUMPI PUSH2 0x624 PUSH2 0x37C8 JUMP JUMPDEST PUSH1 0x20 MUL PUSH1 0x20 ADD ADD SWAP1 PUSH1 0x1 PUSH1 0x1 PUSH1 0xA0 SHL SUB AND SWAP1 DUP2 PUSH1 0x1 PUSH1 0x1 PUSH1 0xA0 SHL SUB AND DUP2 MSTORE POP POP JUMPDEST DUP1 PUSH2 0x64F DUP2 PUSH2 0x37AF JUMP JUMPDEST SWAP2 POP POP PUSH2 0x5A7 JUMP JUMPDEST POP POP POP SWAP2 SWAP1 POP JUMP JUMPDEST PUSH1 0x0 PUSH1 0x1 PUSH1 0x1 PUSH1 0xA0 SHL SUB DUP4 AND PUSH2 0x6CF JUMPI PUSH1 0x40 MLOAD PUSH3 0x461BCD PUSH1 0xE5 SHL DUP2 MSTORE PUSH1 0x20 PUSH1 0x4 DUP3 ADD MSTORE PUSH1 0x2A PUSH1 0x24 DUP3 ADD MSTORE PUSH32 0x455243313135353A2061646472657373207A65726F206973206E6F7420612076 PUSH1 0x44 DUP3 ADD MSTORE PUSH10 0x30B634B21037BBB732B9 PUSH1 0xB1 SHL PUSH1 0x64 DUP3 ADD MSTORE PUSH1 0x84 ADD JUMPDEST PUSH1 0x40 MLOAD DUP1 SWAP2 SUB SWAP1 REVERT JUMPDEST POP PUSH1 0x0 DUP2 DUP2 MSTORE PUSH1 0x1 PUSH1 0x20 SWAP1 DUP2 MSTORE PUSH1 0x40 DUP1 DUP4 KECCAK256 PUSH1 0x1 PUSH1 0x1 PUSH1 0xA0 SHL SUB DUP7 AND DUP5 MSTORE SWAP1 SWAP2 MSTORE SWAP1 KECCAK256 SLOAD JUMPDEST SWAP3 SWAP2 POP POP JUMP JUMPDEST PUSH1 0x0 PUSH1 0x1 PUSH1 0x1 PUSH1 0xE0 SHL SUB NOT DUP3 AND PUSH4 0x6CDB3D13 PUSH1 0xE1 SHL EQ DUP1 PUSH2 0x72B JUMPI POP PUSH1 0x1 PUSH1 0x1 PUSH1 0xE0 SHL SUB NOT DUP3 AND PUSH4 0x3A24D07 PUSH1 0xE2 SHL EQ JUMPDEST DUP1 PUSH2 0x6F4 JUMPI POP PUSH4 0x1FFC9A7 PUSH1 0xE0 SHL PUSH1 0x1 PUSH1 0x1 PUSH1 0xE0 SHL SUB NOT DUP4 AND EQ PUSH2 0x6F4 JUMP JUMPDEST PUSH1 0x7 DUP1 SLOAD PUSH2 0x757 SWAP1 PUSH2 0x37DE JUMP JUMPDEST DUP1 PUSH1 0x1F ADD PUSH1 0x20 DUP1 SWAP2 DIV MUL PUSH1 0x20 ADD PUSH1 0x40 MLOAD SWAP1 DUP2 ADD PUSH1 0x40 MSTORE DUP1 SWAP3 SWAP2 SWAP1 DUP2 DUP2 MSTORE PUSH1 0x20 ADD DUP3 DUP1 SLOAD PUSH2 0x783 SWAP1 PUSH2 0x37DE JUMP JUMPDEST DUP1 ISZERO PUSH2 0x7D0 JUMPI DUP1 PUSH1 0x1F LT PUSH2 0x7A5 JUMPI PUSH2 0x100 DUP1 DUP4 SLOAD DIV MUL DUP4 MSTORE SWAP2 PUSH1 0x20 ADD SWAP2 PUSH2 0x7D0 JUMP JUMPDEST DUP3 ADD SWAP2 SWAP1 PUSH1 0x0 MSTORE PUSH1 0x20 PUSH1 0x0 KECCAK256 SWAP1 JUMPDEST DUP2 SLOAD DUP2 MSTORE SWAP1 PUSH1 0x1 ADD SWAP1 PUSH1 0x20 ADD DUP1 DUP4 GT PUSH2 0x7B3 JUMPI DUP3 SWAP1 SUB PUSH1 0x1F AND DUP3 ADD SWAP2 JUMPDEST POP POP POP POP POP DUP2 JUMP JUMPDEST PUSH1 0x60 PUSH2 0x6F4 DUP3 PUSH2 0x1751 JUMP JUMPDEST PUSH1 0x60 PUSH1 0x0 PUSH1 0x1 JUMPDEST PUSH1 0x4 SLOAD DUP2 GT PUSH2 0x84F JUMPI PUSH1 0x0 DUP2 DUP2 MSTORE PUSH1 0xA PUSH1 0x20 MSTORE PUSH1 0x40 SWAP1 KECCAK256 PUSH1 0x7 ADD SLOAD DUP5 EQ DUP1 ISZERO PUSH2 0x82A JUMPI POP PUSH1 0x0 DUP2 DUP2 MSTORE PUSH1 0xA PUSH1 0x20 MSTORE PUSH1 0x40 SWAP1 KECCAK256 PUSH1 0xC ADD SLOAD PUSH2 0x100 SWAP1 DIV PUSH1 0xFF AND ISZERO JUMPDEST ISZERO PUSH2 0x83D JUMPI DUP2 PUSH2 0x839 DUP2 PUSH2 0x37AF JUMP JUMPDEST SWAP3 POP POP JUMPDEST DUP1 PUSH2 0x847 DUP2 PUSH2 0x37AF JUMP JUMPDEST SWAP2 POP POP PUSH2 0x7EA JUMP JUMPDEST POP DUP1 PUSH1 0x1 PUSH1 0x1 PUSH1 0x40 SHL SUB DUP2 GT ISZERO PUSH2 0x868 JUMPI PUSH2 0x868 PUSH2 0x3228 JUMP JUMPDEST PUSH1 0x40 MLOAD SWAP1 DUP1 DUP3 MSTORE DUP1 PUSH1 0x20 MUL PUSH1 0x20 ADD DUP3 ADD PUSH1 0x40 MSTORE DUP1 ISZERO PUSH2 0x8A1 JUMPI DUP2 PUSH1 0x20 ADD JUMPDEST PUSH2 0x88E PUSH2 0x2FE2 JUMP JUMPDEST DUP2 MSTORE PUSH1 0x20 ADD SWAP1 PUSH1 0x1 SWAP1 SUB SWAP1 DUP2 PUSH2 0x886 JUMPI SWAP1 POP JUMPDEST POP SWAP2 POP PUSH1 0x0 PUSH1 0x1 JUMPDEST PUSH1 0x4 SLOAD DUP2 GT PUSH2 0x657 JUMPI PUSH1 0x0 DUP2 DUP2 MSTORE PUSH1 0xA PUSH1 0x20 MSTORE PUSH1 0x40 SWAP1 KECCAK256 PUSH1 0x7 ADD SLOAD DUP6 EQ DUP1 ISZERO PUSH2 0x8E9 JUMPI POP PUSH1 0x0 DUP2 DUP2 MSTORE PUSH1 0xA PUSH1 0x20 MSTORE PUSH1 0x40 SWAP1 KECCAK256 PUSH1 0xC ADD SLOAD PUSH2 0x100 SWAP1 DIV PUSH1 0xFF AND ISZERO JUMPDEST ISZERO PUSH2 0x9A1 JUMPI PUSH1 0x0 DUP2 DUP2 MSTORE PUSH1 0xA PUSH1 0x20 DUP2 DUP2 MSTORE PUSH1 0x40 SWAP3 DUP4 SWAP1 KECCAK256 DUP4 MLOAD PUSH2 0x120 DUP2 ADD DUP6 MSTORE PUSH1 0x5 DUP3 ADD SLOAD DUP2 MSTORE PUSH1 0x6 DUP3 ADD SLOAD SWAP3 DUP2 ADD SWAP3 SWAP1 SWAP3 MSTORE PUSH1 0x7 DUP2 ADD SLOAD SWAP4 DUP3 ADD SWAP4 SWAP1 SWAP4 MSTORE PUSH1 0x8 DUP4 ADD SLOAD PUSH1 0x1 PUSH1 0x1 PUSH1 0xA0 SHL SUB AND PUSH1 0x60 DUP3 ADD MSTORE PUSH1 0x9 DUP4 ADD SLOAD PUSH1 0x80 DUP3 ADD MSTORE SWAP1 DUP3 ADD SLOAD PUSH1 0xA0 DUP3 ADD MSTORE PUSH1 0xB DUP3 ADD SLOAD PUSH1 0xC0 DUP3 ADD MSTORE PUSH1 0xC SWAP1 SWAP2 ADD SLOAD PUSH1 0xFF DUP1 DUP3 AND ISZERO ISZERO PUSH1 0xE0 DUP5 ADD MSTORE PUSH2 0x100 SWAP2 DUP3 SWAP1 DIV AND ISZERO ISZERO SWAP1 DUP3 ADD MSTORE DUP5 DUP4 PUSH2 0x983 DUP2 PUSH2 0x37AF JUMP JUMPDEST SWAP5 POP DUP2 MLOAD DUP2 LT PUSH2 0x995 JUMPI PUSH2 0x995 PUSH2 0x37C8 JUMP JUMPDEST PUSH1 0x20 MUL PUSH1 0x20 ADD ADD DUP2 SWAP1 MSTORE POP JUMPDEST DUP1 PUSH2 0x9AB DUP2 PUSH2 0x37AF JUMP JUMPDEST SWAP2 POP POP PUSH2 0x8A9 JUMP JUMPDEST PUSH2 0x9BB PUSH2 0x1B3F JUMP JUMPDEST DUP1 PUSH1 0x6 SLOAD LT ISZERO PUSH2 0x9FF JUMPI PUSH1 0x40 MLOAD PUSH3 0x461BCD PUSH1 0xE5 SHL DUP2 MSTORE PUSH1 0x20 PUSH1 0x4 DUP3 ADD MSTORE PUSH1 0xF PUSH1 0x24 DUP3 ADD MSTORE PUSH15 0x125B9CDD59999A595B9D08199D5B99 PUSH1 0x8A SHL PUSH1 0x44 DUP3 ADD MSTORE PUSH1 0x64 ADD PUSH2 0x6C6 JUMP JUMPDEST DUP1 PUSH1 0x6 PUSH1 0x0 DUP3 DUP3 SLOAD PUSH2 0xA11 SWAP2 SWAP1 PUSH2 0x3818 JUMP JUMPDEST SWAP1 SWAP2 SSTORE POP PUSH2 0xA21 SWAP1 POP DUP3 DUP3 PUSH2 0x1B99 JUMP JUMPDEST POP POP JUMP JUMPDEST PUSH2 0xA2D PUSH2 0x1B3F JUMP JUMPDEST PUSH1 0x5 SLOAD PUSH1 0x40 MLOAD PUSH4 0x3B6559C1 PUSH1 0xE0 SHL DUP2 MSTORE PUSH1 0x4 DUP2 ADD DUP4 SWAP1 MSTORE PUSH1 0x1 PUSH1 0x1 PUSH1 0xA0 SHL SUB SWAP1 SWAP2 AND SWAP1 PUSH4 0x3B6559C1 SWAP1 PUSH1 0x24 ADD PUSH1 0x0 PUSH1 0x40 MLOAD DUP1 DUP4 SUB DUP2 PUSH1 0x0 DUP8 DUP1 EXTCODESIZE ISZERO DUP1 ISZERO PUSH2 0xA73 JUMPI PUSH1 0x0 DUP1 REVERT JUMPDEST POP GAS CALL ISZERO DUP1 ISZERO PUSH2 0xA87 JUMPI RETURNDATASIZE PUSH1 0x0 DUP1 RETURNDATACOPY RETURNDATASIZE PUSH1 0x0 REVERT JUMPDEST POP POP POP POP PUSH2 0xA94 DUP2 PUSH2 0x1433 JUMP JUMPDEST PUSH32 0x8B2C14FE955D044EF95BA32B88D2CEB87C6F73FCEFDCEBE906063A6D75690F27 PUSH1 0x40 MLOAD PUSH2 0xAE3 SWAP1 PUSH1 0x20 DUP1 DUP3 MSTORE PUSH1 0xD SWAP1 DUP3 ADD MSTORE PUSH13 0x151A58DAD95D1CC8189D5C9B9D PUSH1 0x9A SHL PUSH1 0x40 DUP3 ADD MSTORE PUSH1 0x60 ADD SWAP1 JUMP JUMPDEST PUSH1 0x40 MLOAD DUP1 SWAP2 SUB SWAP1 LOG1 POP JUMP JUMPDEST PUSH1 0x1 PUSH1 0x1 PUSH1 0xA0 SHL SUB DUP6 AND CALLER EQ DUP1 PUSH2 0xB0A JUMPI POP PUSH2 0xB0A DUP6 CALLER PUSH2 0x463 JUMP JUMPDEST PUSH2 0xB26 JUMPI PUSH1 0x40 MLOAD PUSH3 0x461BCD PUSH1 0xE5 SHL DUP2 MSTORE PUSH1 0x4 ADD PUSH2 0x6C6 SWAP1 PUSH2 0x382B JUMP JUMPDEST PUSH2 0xB33 DUP6 DUP6 DUP6 DUP6 DUP6 PUSH2 0x1BF9 JUMP JUMPDEST POP POP POP POP POP JUMP JUMPDEST PUSH1 0xA PUSH1 0x20 MSTORE PUSH1 0x0 SWAP1 DUP2 MSTORE PUSH1 0x40 SWAP1 KECCAK256 DUP1 SLOAD DUP2 SWAP1 PUSH2 0xB55 SWAP1 PUSH2 0x37DE JUMP JUMPDEST DUP1 PUSH1 0x1F ADD PUSH1 0x20 DUP1 SWAP2 DIV MUL PUSH1 0x20 ADD PUSH1 0x40 MLOAD SWAP1 DUP2 ADD PUSH1 0x40 MSTORE DUP1 SWAP3 SWAP2 SWAP1 DUP2 DUP2 MSTORE PUSH1 0x20 ADD DUP3 DUP1 SLOAD PUSH2 0xB81 SWAP1 PUSH2 0x37DE JUMP JUMPDEST DUP1 ISZERO PUSH2 0xBCE JUMPI DUP1 PUSH1 0x1F LT PUSH2 0xBA3 JUMPI PUSH2 0x100 DUP1 DUP4 SLOAD DIV MUL DUP4 MSTORE SWAP2 PUSH1 0x20 ADD SWAP2 PUSH2 0xBCE JUMP JUMPDEST DUP3 ADD SWAP2 SWAP1 PUSH1 0x0 MSTORE PUSH1 0x20 PUSH1 0x0 KECCAK256 SWAP1 JUMPDEST DUP2 SLOAD DUP2 MSTORE SWAP1 PUSH1 0x1 ADD SWAP1 PUSH1 0x20 ADD DUP1 DUP4 GT PUSH2 0xBB1 JUMPI DUP3 SWAP1 SUB PUSH1 0x1F AND DUP3 ADD SWAP2 JUMPDEST POP POP POP POP POP SWAP1 DUP1 PUSH1 0x1 ADD DUP1 SLOAD PUSH2 0xBE3 SWAP1 PUSH2 0x37DE JUMP JUMPDEST DUP1 PUSH1 0x1F ADD PUSH1 0x20 DUP1 SWAP2 DIV MUL PUSH1 0x20 ADD PUSH1 0x40 MLOAD SWAP1 DUP2 ADD PUSH1 0x40 MSTORE DUP1 SWAP3 SWAP2 SWAP1 DUP2 DUP2 MSTORE PUSH1 0x20 ADD DUP3 DUP1 SLOAD PUSH2 0xC0F SWAP1 PUSH2 0x37DE JUMP JUMPDEST DUP1 ISZERO PUSH2 0xC5C JUMPI DUP1 PUSH1 0x1F LT PUSH2 0xC31 JUMPI PUSH2 0x100 DUP1 DUP4 SLOAD DIV MUL DUP4 MSTORE SWAP2 PUSH1 0x20 ADD SWAP2 PUSH2 0xC5C JUMP JUMPDEST DUP3 ADD SWAP2 SWAP1 PUSH1 0x0 MSTORE PUSH1 0x20 PUSH1 0x0 KECCAK256 SWAP1 JUMPDEST DUP2 SLOAD DUP2 MSTORE SWAP1 PUSH1 0x1 ADD SWAP1 PUSH1 0x20 ADD DUP1 DUP4 GT PUSH2 0xC3F JUMPI DUP3 SWAP1 SUB PUSH1 0x1F AND DUP3 ADD SWAP2 JUMPDEST POP POP POP POP POP SWAP1 DUP1 PUSH1 0x2 ADD DUP1 SLOAD PUSH2 0xC71 SWAP1 PUSH2 0x37DE JUMP JUMPDEST DUP1 PUSH1 0x1F ADD PUSH1 0x20 DUP1 SWAP2 DIV MUL PUSH1 0x20 ADD PUSH1 0x40 MLOAD SWAP1 DUP2 ADD PUSH1 0x40 MSTORE DUP1 SWAP3 SWAP2 SWAP1 DUP2 DUP2 MSTORE PUSH1 0x20 ADD DUP3 DUP1 SLOAD PUSH2 0xC9D SWAP1 PUSH2 0x37DE JUMP JUMPDEST DUP1 ISZERO PUSH2 0xCEA JUMPI DUP1 PUSH1 0x1F LT PUSH2 0xCBF JUMPI PUSH2 0x100 DUP1 DUP4 SLOAD DIV MUL DUP4 MSTORE SWAP2 PUSH1 0x20 ADD SWAP2 PUSH2 0xCEA JUMP JUMPDEST DUP3 ADD SWAP2 SWAP1 PUSH1 0x0 MSTORE PUSH1 0x20 PUSH1 0x0 KECCAK256 SWAP1 JUMPDEST DUP2 SLOAD DUP2 MSTORE SWAP1 PUSH1 0x1 ADD SWAP1 PUSH1 0x20 ADD DUP1 DUP4 GT PUSH2 0xCCD JUMPI DUP3 SWAP1 SUB PUSH1 0x1F AND DUP3 ADD SWAP2 JUMPDEST POP POP POP POP POP SWAP1 DUP1 PUSH1 0x3 ADD DUP1 SLOAD PUSH2 0xCFF SWAP1 PUSH2 0x37DE JUMP JUMPDEST DUP1 PUSH1 0x1F ADD PUSH1 0x20 DUP1 SWAP2 DIV MUL PUSH1 0x20 ADD PUSH1 0x40 MLOAD SWAP1 DUP2 ADD PUSH1 0x40 MSTORE DUP1 SWAP3 SWAP2 SWAP1 DUP2 DUP2 MSTORE PUSH1 0x20 ADD DUP3 DUP1 SLOAD PUSH2 0xD2B SWAP1 PUSH2 0x37DE JUMP JUMPDEST DUP1 ISZERO PUSH2 0xD78 JUMPI DUP1 PUSH1 0x1F LT PUSH2 0xD4D JUMPI PUSH2 0x100 DUP1 DUP4 SLOAD DIV MUL DUP4 MSTORE SWAP2 PUSH1 0x20 ADD SWAP2 PUSH2 0xD78 JUMP JUMPDEST DUP3 ADD SWAP2 SWAP1 PUSH1 0x0 MSTORE PUSH1 0x20 PUSH1 0x0 KECCAK256 SWAP1 JUMPDEST DUP2 SLOAD DUP2 MSTORE SWAP1 PUSH1 0x1 ADD SWAP1 PUSH1 0x20 ADD DUP1 DUP4 GT PUSH2 0xD5B JUMPI DUP3 SWAP1 SUB PUSH1 0x1F AND DUP3 ADD SWAP2 JUMPDEST POP POP POP POP POP SWAP1 DUP1 PUSH1 0x4 ADD DUP1 SLOAD PUSH2 0xD8D SWAP1 PUSH2 0x37DE JUMP JUMPDEST DUP1 PUSH1 0x1F ADD PUSH1 0x20 DUP1 SWAP2 DIV MUL PUSH1 0x20 ADD PUSH1 0x40 MLOAD SWAP1 DUP2 ADD PUSH1 0x40 MSTORE DUP1 SWAP3 SWAP2 SWAP1 DUP2 DUP2 MSTORE PUSH1 0x20 ADD DUP3 DUP1 SLOAD PUSH2 0xDB9 SWAP1 PUSH2 0x37DE JUMP JUMPDEST DUP1 ISZERO PUSH2 0xE06 JUMPI DUP1 PUSH1 0x1F LT PUSH2 0xDDB JUMPI PUSH2 0x100 DUP1 DUP4 SLOAD DIV MUL DUP4 MSTORE SWAP2 PUSH1 0x20 ADD SWAP2 PUSH2 0xE06 JUMP JUMPDEST DUP3 ADD SWAP2 SWAP1 PUSH1 0x0 MSTORE PUSH1 0x20 PUSH1 0x0 KECCAK256 SWAP1 JUMPDEST DUP2 SLOAD DUP2 MSTORE SWAP1 PUSH1 0x1 ADD SWAP1 PUSH1 0x20 ADD DUP1 DUP4 GT PUSH2 0xDE9 JUMPI DUP3 SWAP1 SUB PUSH1 0x1F AND DUP3 ADD SWAP2 JUMPDEST POP POP PUSH1 0x40 DUP1 MLOAD PUSH2 0x120 DUP2 ADD DUP3 MSTORE PUSH1 0x5 DUP8 ADD SLOAD DUP2 MSTORE PUSH1 0x6 DUP8 ADD SLOAD PUSH1 0x20 DUP3 ADD MSTORE PUSH1 0x7 DUP8 ADD SLOAD SWAP2 DUP2 ADD SWAP2 SWAP1 SWAP2 MSTORE PUSH1 0x8 DUP7 ADD SLOAD PUSH1 0x1 PUSH1 0x1 PUSH1 0xA0 SHL SUB AND PUSH1 0x60 DUP3 ADD MSTORE PUSH1 0x9 DUP7 ADD SLOAD PUSH1 0x80 DUP3 ADD MSTORE PUSH1 0xA DUP7 ADD SLOAD PUSH1 0xA0 DUP3 ADD MSTORE PUSH1 0xB DUP7 ADD SLOAD PUSH1 0xC0 DUP3 ADD MSTORE PUSH1 0xC SWAP1 SWAP6 ADD SLOAD PUSH1 0xFF DUP1 DUP3 AND ISZERO ISZERO PUSH1 0xE0 DUP9 ADD MSTORE PUSH2 0x100 SWAP2 DUP3 SWAP1 DIV AND ISZERO ISZERO SWAP1 DUP7 ADD MSTORE POP SWAP2 SWAP3 SWAP2 POP DUP8 SWAP1 POP JUMP JUMPDEST PUSH1 0x60 DUP2 MLOAD DUP4 MLOAD EQ PUSH2 0xEF0 JUMPI PUSH1 0x40 MLOAD PUSH3 0x461BCD PUSH1 0xE5 SHL DUP2 MSTORE PUSH1 0x20 PUSH1 0x4 DUP3 ADD MSTORE PUSH1 0x29 PUSH1 0x24 DUP3 ADD MSTORE PUSH32 0x455243313135353A206163636F756E747320616E6420696473206C656E677468 PUSH1 0x44 DUP3 ADD MSTORE PUSH9 0x40DAD2E6DAC2E8C6D PUSH1 0xBB SHL PUSH1 0x64 DUP3 ADD MSTORE PUSH1 0x84 ADD PUSH2 0x6C6 JUMP JUMPDEST PUSH1 0x0 DUP4 MLOAD PUSH1 0x1 PUSH1 0x1 PUSH1 0x40 SHL SUB DUP2 GT ISZERO PUSH2 0xF0B JUMPI PUSH2 0xF0B PUSH2 0x3228 JUMP JUMPDEST PUSH1 0x40 MLOAD SWAP1 DUP1 DUP3 MSTORE DUP1 PUSH1 0x20 MUL PUSH1 0x20 ADD DUP3 ADD PUSH1 0x40 MSTORE DUP1 ISZERO PUSH2 0xF34 JUMPI DUP2 PUSH1 0x20 ADD PUSH1 0x20 DUP3 MUL DUP1 CALLDATASIZE DUP4 CALLDATACOPY ADD SWAP1 POP JUMPDEST POP SWAP1 POP PUSH1 0x0 JUMPDEST DUP5 MLOAD DUP2 LT ISZERO PUSH2 0xFAC JUMPI PUSH2 0xF7F DUP6 DUP3 DUP2 MLOAD DUP2 LT PUSH2 0xF58 JUMPI PUSH2 0xF58 PUSH2 0x37C8 JUMP JUMPDEST PUSH1 0x20 MUL PUSH1 0x20 ADD ADD MLOAD DUP6 DUP4 DUP2 MLOAD DUP2 LT PUSH2 0xF72 JUMPI PUSH2 0xF72 PUSH2 0x37C8 JUMP JUMPDEST PUSH1 0x20 MUL PUSH1 0x20 ADD ADD MLOAD PUSH2 0x65F JUMP JUMPDEST DUP3 DUP3 DUP2 MLOAD DUP2 LT PUSH2 0xF91 JUMPI PUSH2 0xF91 PUSH2 0x37C8 JUMP JUMPDEST PUSH1 0x20 SWAP1 DUP2 MUL SWAP2 SWAP1 SWAP2 ADD ADD MSTORE PUSH2 0xFA5 DUP2 PUSH2 0x37AF JUMP JUMPDEST SWAP1 POP PUSH2 0xF3A JUMP JUMPDEST POP SWAP4 SWAP3 POP POP POP JUMP JUMPDEST PUSH1 0x1 PUSH1 0x1 PUSH1 0xA0 SHL SUB DUP4 AND CALLER EQ DUP1 PUSH2 0xFD0 JUMPI POP PUSH2 0xFD0 DUP4 CALLER PUSH2 0x463 JUMP JUMPDEST PUSH2 0xFEC JUMPI PUSH1 0x40 MLOAD PUSH3 0x461BCD PUSH1 0xE5 SHL DUP2 MSTORE PUSH1 0x4 ADD PUSH2 0x6C6 SWAP1 PUSH2 0x382B JUMP JUMPDEST PUSH2 0xFF7 DUP4 DUP4 DUP4 PUSH2 0x1D98 JUMP JUMPDEST POP POP POP JUMP JUMPDEST PUSH2 0x1004 PUSH2 0x1B3F JUMP JUMPDEST PUSH2 0x100E PUSH1 0x0 PUSH2 0x1F27 JUMP JUMPDEST JUMP JUMPDEST PUSH2 0x1018 PUSH2 0x1B3F JUMP JUMPDEST PUSH1 0x5 SLOAD PUSH1 0x40 MLOAD PUSH4 0x2B85DCC9 PUSH1 0xE0 SHL DUP2 MSTORE PUSH1 0x4 DUP2 ADD DUP4 SWAP1 MSTORE DUP3 SWAP2 PUSH1 0x1 PUSH1 0x1 PUSH1 0xA0 SHL SUB AND SWAP1 PUSH4 0x2B85DCC9 SWAP1 PUSH1 0x24 ADD PUSH2 0x160 PUSH1 0x40 MLOAD DUP1 DUP4 SUB DUP2 DUP7 GAS STATICCALL ISZERO DUP1 ISZERO PUSH2 0x1062 JUMPI RETURNDATASIZE PUSH1 0x0 DUP1 RETURNDATACOPY RETURNDATASIZE PUSH1 0x0 REVERT JUMPDEST POP POP POP POP PUSH1 0x40 MLOAD RETURNDATASIZE PUSH1 0x1F NOT PUSH1 0x1F DUP3 ADD AND DUP3 ADD DUP1 PUSH1 0x40 MSTORE POP DUP2 ADD SWAP1 PUSH2 0x1086 SWAP2 SWAP1 PUSH2 0x3884 JUMP JUMPDEST MLOAD EQ PUSH2 0x10C5 JUMPI PUSH1 0x40 MLOAD PUSH3 0x461BCD PUSH1 0xE5 SHL DUP2 MSTORE PUSH1 0x20 PUSH1 0x4 DUP3 ADD MSTORE PUSH1 0xE PUSH1 0x24 DUP3 ADD MSTORE PUSH14 0x14DB1BDD081B9BDD08199BDD5B99 PUSH1 0x92 SHL PUSH1 0x44 DUP3 ADD MSTORE PUSH1 0x64 ADD PUSH2 0x6C6 JUMP JUMPDEST PUSH1 0x1 JUMPDEST PUSH1 0x4 SLOAD DUP2 GT PUSH2 0xA21 JUMPI PUSH1 0x0 DUP2 DUP2 MSTORE PUSH1 0xA PUSH1 0x20 MSTORE PUSH1 0x40 SWAP1 KECCAK256 PUSH1 0x7 ADD SLOAD DUP3 EQ DUP1 ISZERO PUSH2 0x1103 JUMPI POP PUSH1 0x0 DUP2 DUP2 MSTORE PUSH1 0xA PUSH1 0x20 MSTORE PUSH1 0x40 SWAP1 KECCAK256 PUSH1 0xC ADD SLOAD PUSH1 0xFF AND ISZERO JUMPDEST ISZERO PUSH2 0x115C JUMPI PUSH1 0x0 DUP2 DUP2 MSTORE PUSH1 0xA PUSH1 0x20 MSTORE PUSH1 0x40 SWAP1 KECCAK256 PUSH1 0x5 DUP2 ADD SLOAD PUSH1 0x9 DUP3 ADD SLOAD PUSH1 0x8 DUP4 ADD SLOAD PUSH1 0xC SWAP1 SWAP4 ADD DUP1 SLOAD PUSH2 0xFF00 NOT AND PUSH2 0x100 OR SWAP1 SSTORE SWAP1 SWAP2 PUSH1 0x1 PUSH1 0x1 PUSH1 0xA0 SHL SUB AND PUSH2 0x114C DUP2 DUP4 PUSH2 0x1B99 JUMP JUMPDEST PUSH2 0x1158 DUP2 DUP5 PUSH1 0x1 PUSH2 0x1F77 JUMP JUMPDEST POP POP POP JUMPDEST DUP1 PUSH2 0x1166 DUP2 PUSH2 0x37AF JUMP JUMPDEST SWAP2 POP POP PUSH2 0x10C8 JUMP JUMPDEST PUSH1 0x5 SLOAD PUSH1 0x40 MLOAD PUSH4 0x2B85DCC9 PUSH1 0xE0 SHL DUP2 MSTORE PUSH1 0x4 DUP2 ADD DUP5 SWAP1 MSTORE PUSH1 0x0 SWAP2 PUSH1 0x1 PUSH1 0x1 PUSH1 0xA0 SHL SUB AND SWAP1 PUSH4 0x2B85DCC9 SWAP1 PUSH1 0x24 ADD PUSH2 0x160 PUSH1 0x40 MLOAD DUP1 DUP4 SUB DUP2 DUP7 GAS STATICCALL ISZERO DUP1 ISZERO PUSH2 0x11B9 JUMPI RETURNDATASIZE PUSH1 0x0 DUP1 RETURNDATACOPY RETURNDATASIZE PUSH1 0x0 REVERT JUMPDEST POP POP POP POP PUSH1 0x40 MLOAD RETURNDATASIZE PUSH1 0x1F NOT PUSH1 0x1F DUP3 ADD AND DUP3 ADD DUP1 PUSH1 0x40 MSTORE POP DUP2 ADD SWAP1 PUSH2 0x11DD SWAP2 SWAP1 PUSH2 0x3884 JUMP JUMPDEST SWAP1 POP DUP2 DUP2 PUSH1 0x40 ADD MLOAD PUSH2 0x11EF SWAP2 SWAP1 PUSH2 0x3921 JUMP JUMPDEST CALLVALUE LT ISZERO PUSH2 0x1234 JUMPI PUSH1 0x40 MLOAD PUSH3 0x461BCD PUSH1 0xE5 SHL DUP2 MSTORE PUSH1 0x20 PUSH1 0x4 DUP3 ADD MSTORE PUSH1 0x13 PUSH1 0x24 DUP3 ADD MSTORE PUSH19 0x125B9CDD59999A58DA595B9D08185B5BDD5B9D PUSH1 0x6A SHL PUSH1 0x44 DUP3 ADD MSTORE PUSH1 0x64 ADD PUSH2 0x6C6 JUMP JUMPDEST DUP1 PUSH1 0xC0 ADD MLOAD DUP2 PUSH1 0xA0 ADD MLOAD GT PUSH2 0x128B JUMPI PUSH1 0x40 MLOAD PUSH3 0x461BCD PUSH1 0xE5 SHL DUP2 MSTORE PUSH1 0x20 PUSH1 0x4 DUP3 ADD MSTORE PUSH1 0x17 PUSH1 0x24 DUP3 ADD MSTORE PUSH32 0x4F7574206F662073656174696E67206361706163697479000000000000000000 PUSH1 0x44 DUP3 ADD MSTORE PUSH1 0x64 ADD PUSH2 0x6C6 JUMP JUMPDEST PUSH1 0x0 JUMPDEST DUP3 DUP2 LT ISZERO PUSH2 0x1388 JUMPI PUSH2 0x12A4 PUSH1 0x4 DUP1 SLOAD PUSH1 0x1 ADD SWAP1 SSTORE JUMP JUMPDEST PUSH2 0x12AC PUSH2 0x2FE2 JUMP JUMPDEST PUSH1 0x4 SLOAD DUP2 MSTORE PUSH1 0x40 DUP1 DUP5 ADD MLOAD PUSH1 0x80 DUP4 ADD MSTORE DUP4 MLOAD SWAP1 DUP3 ADD MSTORE CALLER PUSH1 0x60 DUP3 ADD MSTORE PUSH2 0x12D0 PUSH2 0x207E JUMP JUMPDEST PUSH1 0xA0 DUP3 ADD SWAP1 DUP2 MSTORE DUP2 MLOAD PUSH1 0x0 SWAP1 DUP2 MSTORE PUSH1 0xA PUSH1 0x20 DUP2 DUP2 MSTORE PUSH1 0x40 SWAP3 DUP4 SWAP1 KECCAK256 DUP6 MLOAD PUSH1 0x5 DUP3 ADD SSTORE SWAP1 DUP6 ADD MLOAD PUSH1 0x6 DUP3 ADD SSTORE SWAP2 DUP5 ADD MLOAD PUSH1 0x7 DUP4 ADD SSTORE PUSH1 0x60 DUP5 ADD MLOAD PUSH1 0x8 DUP4 ADD DUP1 SLOAD PUSH1 0x1 PUSH1 0x1 PUSH1 0xA0 SHL SUB NOT AND PUSH1 0x1 PUSH1 0x1 PUSH1 0xA0 SHL SUB SWAP1 SWAP3 AND SWAP2 SWAP1 SWAP2 OR SWAP1 SSTORE PUSH1 0x80 DUP5 ADD MLOAD PUSH1 0x9 DUP4 ADD SSTORE SWAP2 MLOAD SWAP2 DUP2 ADD SWAP2 SWAP1 SWAP2 SSTORE PUSH1 0xC0 DUP3 ADD MLOAD PUSH1 0xB DUP3 ADD SSTORE PUSH1 0xE0 DUP3 ADD MLOAD PUSH1 0xC SWAP1 SWAP2 ADD DUP1 SLOAD PUSH2 0x100 SWAP4 DUP5 ADD MLOAD PUSH2 0xFFFF NOT SWAP1 SWAP2 AND SWAP3 ISZERO ISZERO PUSH2 0xFF00 NOT AND SWAP3 SWAP1 SWAP3 OR SWAP2 ISZERO ISZERO SWAP1 SWAP3 MUL OR SWAP1 SSTORE DUP1 PUSH2 0x1380 DUP2 PUSH2 0x37AF JUMP JUMPDEST SWAP2 POP POP PUSH2 0x128E JUMP JUMPDEST POP DUP2 DUP2 PUSH1 0xC0 ADD DUP2 DUP2 MLOAD PUSH2 0x139B SWAP2 SWAP1 PUSH2 0x3938 JUMP JUMPDEST SWAP1 MSTORE POP PUSH1 0x40 DUP2 ADD MLOAD PUSH2 0x13AE SWAP1 DUP4 SWAP1 PUSH2 0x3921 JUMP JUMPDEST DUP2 PUSH2 0x140 ADD DUP2 DUP2 MLOAD PUSH2 0x13C0 SWAP2 SWAP1 PUSH2 0x3938 JUMP JUMPDEST SWAP1 MSTORE POP PUSH2 0x13CC DUP3 PUSH2 0x209D JUMP JUMPDEST PUSH1 0x5 SLOAD PUSH1 0x40 MLOAD PUSH4 0x61853E93 PUSH1 0xE0 SHL DUP2 MSTORE PUSH1 0x1 PUSH1 0x1 PUSH1 0xA0 SHL SUB SWAP1 SWAP2 AND SWAP1 PUSH4 0x61853E93 SWAP1 PUSH2 0x13FC SWAP1 DUP5 SWAP1 PUSH1 0x4 ADD PUSH2 0x394B JUMP JUMPDEST PUSH1 0x0 PUSH1 0x40 MLOAD DUP1 DUP4 SUB DUP2 PUSH1 0x0 DUP8 DUP1 EXTCODESIZE ISZERO DUP1 ISZERO PUSH2 0x1416 JUMPI PUSH1 0x0 DUP1 REVERT JUMPDEST POP GAS CALL ISZERO DUP1 ISZERO PUSH2 0x142A JUMPI RETURNDATASIZE PUSH1 0x0 DUP1 RETURNDATACOPY RETURNDATASIZE PUSH1 0x0 REVERT JUMPDEST POP POP POP POP POP POP POP JUMP JUMPDEST PUSH2 0x143B PUSH2 0x1B3F JUMP JUMPDEST PUSH1 0x5 SLOAD PUSH1 0x40 MLOAD PUSH4 0x2B85DCC9 PUSH1 0xE0 SHL DUP2 MSTORE PUSH1 0x4 DUP2 ADD DUP4 SWAP1 MSTORE DUP3 SWAP2 PUSH1 0x1 PUSH1 0x1 PUSH1 0xA0 SHL SUB AND SWAP1 PUSH4 0x2B85DCC9 SWAP1 PUSH1 0x24 ADD PUSH2 0x160 PUSH1 0x40 MLOAD DUP1 DUP4 SUB DUP2 DUP7 GAS STATICCALL ISZERO DUP1 ISZERO PUSH2 0x1485 JUMPI RETURNDATASIZE PUSH1 0x0 DUP1 RETURNDATACOPY RETURNDATASIZE PUSH1 0x0 REVERT JUMPDEST POP POP POP POP PUSH1 0x40 MLOAD RETURNDATASIZE PUSH1 0x1F NOT PUSH1 0x1F DUP3 ADD AND DUP3 ADD DUP1 PUSH1 0x40 MSTORE POP DUP2 ADD SWAP1 PUSH2 0x14A9 SWAP2 SWAP1 PUSH2 0x3884 JUMP JUMPDEST MLOAD EQ PUSH2 0x14E8 JUMPI PUSH1 0x40 MLOAD PUSH3 0x461BCD PUSH1 0xE5 SHL DUP2 MSTORE PUSH1 0x20 PUSH1 0x4 DUP3 ADD MSTORE PUSH1 0xE PUSH1 0x24 DUP3 ADD MSTORE PUSH14 0x14DB1BDD081B9BDD08199BDD5B99 PUSH1 0x92 SHL PUSH1 0x44 DUP3 ADD MSTORE PUSH1 0x64 ADD PUSH2 0x6C6 JUMP JUMPDEST PUSH1 0x1 JUMPDEST PUSH1 0x4 SLOAD DUP2 GT PUSH2 0xA21 JUMPI PUSH1 0x0 DUP2 DUP2 MSTORE PUSH1 0xA PUSH1 0x20 MSTORE PUSH1 0x40 SWAP1 KECCAK256 PUSH1 0x7 ADD SLOAD DUP3 EQ DUP1 ISZERO PUSH2 0x1526 JUMPI POP PUSH1 0x0 DUP2 DUP2 MSTORE PUSH1 0xA PUSH1 0x20 MSTORE PUSH1 0x40 SWAP1 KECCAK256 PUSH1 0xC ADD SLOAD PUSH1 0xFF AND ISZERO JUMPDEST ISZERO PUSH2 0x1565 JUMPI PUSH1 0x0 DUP2 DUP2 MSTORE PUSH1 0xA PUSH1 0x20 MSTORE PUSH1 0x40 DUP2 KECCAK256 PUSH1 0xC DUP2 ADD DUP1 SLOAD PUSH1 0xFF NOT AND PUSH1 0x1 OR SWAP1 SSTORE PUSH1 0x9 ADD SLOAD PUSH1 0x6 DUP1 SLOAD SWAP2 SWAP3 SWAP1 SWAP2 PUSH2 0x155F SWAP1 DUP5 SWAP1 PUSH2 0x3938 JUMP JUMPDEST SWAP1 SWAP2 SSTORE POP POP JUMPDEST DUP1 PUSH2 0x156F DUP2 PUSH2 0x37AF JUMP JUMPDEST SWAP2 POP POP PUSH2 0x14EB JUMP JUMPDEST PUSH1 0x8 DUP1 SLOAD PUSH2 0x757 SWAP1 PUSH2 0x37DE JUMP JUMPDEST PUSH2 0xA21 CALLER DUP4 DUP4 PUSH2 0x2309 JUMP JUMPDEST PUSH2 0x1597 PUSH2 0x1B3F JUMP JUMPDEST PUSH1 0x5 SLOAD PUSH1 0x40 MLOAD PUSH4 0x3B6559C1 PUSH1 0xE0 SHL DUP2 MSTORE PUSH1 0x4 DUP2 ADD DUP4 SWAP1 MSTORE PUSH1 0x1 PUSH1 0x1 PUSH1 0xA0 SHL SUB SWAP1 SWAP2 AND SWAP1 PUSH4 0x3B6559C1 SWAP1 PUSH1 0x24 ADD PUSH1 0x0 PUSH1 0x40 MLOAD DUP1 DUP4 SUB DUP2 PUSH1 0x0 DUP8 DUP1 EXTCODESIZE ISZERO DUP1 ISZERO PUSH2 0x15DD JUMPI PUSH1 0x0 DUP1 REVERT JUMPDEST POP GAS CALL ISZERO DUP1 ISZERO PUSH2 0x15F1 JUMPI RETURNDATASIZE PUSH1 0x0 DUP1 RETURNDATACOPY RETURNDATASIZE PUSH1 0x0 REVERT JUMPDEST POP POP POP POP PUSH2 0x15FE DUP2 PUSH2 0x1010 JUMP JUMPDEST PUSH32 0x8B2C14FE955D044EF95BA32B88D2CEB87C6F73FCEFDCEBE906063A6D75690F27 PUSH1 0x40 MLOAD PUSH2 0xAE3 SWAP1 PUSH1 0x20 DUP1 DUP3 MSTORE PUSH1 0x10 SWAP1 DUP3 ADD MSTORE PUSH16 0x151A58DAD95D1CC81C99599D5B991959 PUSH1 0x82 SHL PUSH1 0x40 DUP3 ADD MSTORE PUSH1 0x60 ADD SWAP1 JUMP JUMPDEST PUSH1 0x1 PUSH1 0x1 PUSH1 0xA0 SHL SUB DUP6 AND CALLER EQ DUP1 PUSH2 0x166C JUMPI POP PUSH2 0x166C DUP6 CALLER PUSH2 0x463 JUMP JUMPDEST PUSH2 0x1688 JUMPI PUSH1 0x40 MLOAD PUSH3 0x461BCD PUSH1 0xE5 SHL DUP2 MSTORE PUSH1 0x4 ADD PUSH2 0x6C6 SWAP1 PUSH2 0x382B JUMP JUMPDEST PUSH2 0xB33 DUP6 DUP6 DUP6 DUP6 DUP6 PUSH2 0x23E9 JUMP JUMPDEST PUSH2 0x169D PUSH2 0x1B3F JUMP JUMPDEST PUSH1 0x1 PUSH1 0x1 PUSH1 0xA0 SHL SUB DUP2 AND PUSH2 0x1702 JUMPI PUSH1 0x40 MLOAD PUSH3 0x461BCD PUSH1 0xE5 SHL DUP2 MSTORE PUSH1 0x20 PUSH1 0x4 DUP3 ADD MSTORE PUSH1 0x26 PUSH1 0x24 DUP3 ADD MSTORE PUSH32 0x4F776E61626C653A206E6577206F776E657220697320746865207A65726F2061 PUSH1 0x44 DUP3 ADD MSTORE PUSH6 0x646472657373 PUSH1 0xD0 SHL PUSH1 0x64 DUP3 ADD MSTORE PUSH1 0x84 ADD PUSH2 0x6C6 JUMP JUMPDEST PUSH2 0x170B DUP2 PUSH2 0x1F27 JUMP JUMPDEST POP JUMP JUMPDEST PUSH1 0x1 PUSH1 0x1 PUSH1 0xA0 SHL SUB DUP4 AND CALLER EQ DUP1 PUSH2 0x172A JUMPI POP PUSH2 0x172A DUP4 CALLER PUSH2 0x463 JUMP JUMPDEST PUSH2 0x1746 JUMPI PUSH1 0x40 MLOAD PUSH3 0x461BCD PUSH1 0xE5 SHL DUP2 MSTORE PUSH1 0x4 ADD PUSH2 0x6C6 SWAP1 PUSH2 0x382B JUMP JUMPDEST PUSH2 0xFF7 DUP4 DUP4 DUP4 PUSH2 0x1F77 JUMP JUMPDEST PUSH1 0x60 PUSH1 0x0 PUSH1 0xA PUSH1 0x0 DUP5 DUP2 MSTORE PUSH1 0x20 ADD SWAP1 DUP2 MSTORE PUSH1 0x20 ADD PUSH1 0x0 KECCAK256 PUSH1 0x40 MLOAD DUP1 PUSH1 0xC0 ADD PUSH1 0x40 MSTORE SWAP1 DUP2 PUSH1 0x0 DUP3 ADD DUP1 SLOAD PUSH2 0x1783 SWAP1 PUSH2 0x37DE JUMP JUMPDEST DUP1 PUSH1 0x1F ADD PUSH1 0x20 DUP1 SWAP2 DIV MUL PUSH1 0x20 ADD PUSH1 0x40 MLOAD SWAP1 DUP2 ADD PUSH1 0x40 MSTORE DUP1 SWAP3 SWAP2 SWAP1 DUP2 DUP2 MSTORE PUSH1 0x20 ADD DUP3 DUP1 SLOAD PUSH2 0x17AF SWAP1 PUSH2 0x37DE JUMP JUMPDEST DUP1 ISZERO PUSH2 0x17FC JUMPI DUP1 PUSH1 0x1F LT PUSH2 0x17D1 JUMPI PUSH2 0x100 DUP1 DUP4 SLOAD DIV MUL DUP4 MSTORE SWAP2 PUSH1 0x20 ADD SWAP2 PUSH2 0x17FC JUMP JUMPDEST DUP3 ADD SWAP2 SWAP1 PUSH1 0x0 MSTORE PUSH1 0x20 PUSH1 0x0 KECCAK256 SWAP1 JUMPDEST DUP2 SLOAD DUP2 MSTORE SWAP1 PUSH1 0x1 ADD SWAP1 PUSH1 0x20 ADD DUP1 DUP4 GT PUSH2 0x17DF JUMPI DUP3 SWAP1 SUB PUSH1 0x1F AND DUP3 ADD SWAP2 JUMPDEST POP POP POP POP POP DUP2 MSTORE PUSH1 0x20 ADD PUSH1 0x1 DUP3 ADD DUP1 SLOAD PUSH2 0x1815 SWAP1 PUSH2 0x37DE JUMP JUMPDEST DUP1 PUSH1 0x1F ADD PUSH1 0x20 DUP1 SWAP2 DIV MUL PUSH1 0x20 ADD PUSH1 0x40 MLOAD SWAP1 DUP2 ADD PUSH1 0x40 MSTORE DUP1 SWAP3 SWAP2 SWAP1 DUP2 DUP2 MSTORE PUSH1 0x20 ADD DUP3 DUP1 SLOAD PUSH2 0x1841 SWAP1 PUSH2 0x37DE JUMP JUMPDEST DUP1 ISZERO PUSH2 0x188E JUMPI DUP1 PUSH1 0x1F LT PUSH2 0x1863 JUMPI PUSH2 0x100 DUP1 DUP4 SLOAD DIV MUL DUP4 MSTORE SWAP2 PUSH1 0x20 ADD SWAP2 PUSH2 0x188E JUMP JUMPDEST DUP3 ADD SWAP2 SWAP1 PUSH1 0x0 MSTORE PUSH1 0x20 PUSH1 0x0 KECCAK256 SWAP1 JUMPDEST DUP2 SLOAD DUP2 MSTORE SWAP1 PUSH1 0x1 ADD SWAP1 PUSH1 0x20 ADD DUP1 DUP4 GT PUSH2 0x1871 JUMPI DUP3 SWAP1 SUB PUSH1 0x1F AND DUP3 ADD SWAP2 JUMPDEST POP POP POP POP POP DUP2 MSTORE PUSH1 0x20 ADD PUSH1 0x2 DUP3 ADD DUP1 SLOAD PUSH2 0x18A7 SWAP1 PUSH2 0x37DE JUMP JUMPDEST DUP1 PUSH1 0x1F ADD PUSH1 0x20 DUP1 SWAP2 DIV MUL PUSH1 0x20 ADD PUSH1 0x40 MLOAD SWAP1 DUP2 ADD PUSH1 0x40 MSTORE DUP1 SWAP3 SWAP2 SWAP1 DUP2 DUP2 MSTORE PUSH1 0x20 ADD DUP3 DUP1 SLOAD PUSH2 0x18D3 SWAP1 PUSH2 0x37DE JUMP JUMPDEST DUP1 ISZERO PUSH2 0x1920 JUMPI DUP1 PUSH1 0x1F LT PUSH2 0x18F5 JUMPI PUSH2 0x100 DUP1 DUP4 SLOAD DIV MUL DUP4 MSTORE SWAP2 PUSH1 0x20 ADD SWAP2 PUSH2 0x1920 JUMP JUMPDEST DUP3 ADD SWAP2 SWAP1 PUSH1 0x0 MSTORE PUSH1 0x20 PUSH1 0x0 KECCAK256 SWAP1 JUMPDEST DUP2 SLOAD DUP2 MSTORE SWAP1 PUSH1 0x1 ADD SWAP1 PUSH1 0x20 ADD DUP1 DUP4 GT PUSH2 0x1903 JUMPI DUP3 SWAP1 SUB PUSH1 0x1F AND DUP3 ADD SWAP2 JUMPDEST POP POP POP POP POP DUP2 MSTORE PUSH1 0x20 ADD PUSH1 0x3 DUP3 ADD DUP1 SLOAD PUSH2 0x1939 SWAP1 PUSH2 0x37DE JUMP JUMPDEST DUP1 PUSH1 0x1F ADD PUSH1 0x20 DUP1 SWAP2 DIV MUL PUSH1 0x20 ADD PUSH1 0x40 MLOAD SWAP1 DUP2 ADD PUSH1 0x40 MSTORE DUP1 SWAP3 SWAP2 SWAP1 DUP2 DUP2 MSTORE PUSH1 0x20 ADD DUP3 DUP1 SLOAD PUSH2 0x1965 SWAP1 PUSH2 0x37DE JUMP JUMPDEST DUP1 ISZERO PUSH2 0x19B2 JUMPI DUP1 PUSH1 0x1F LT PUSH2 0x1987 JUMPI PUSH2 0x100 DUP1 DUP4 SLOAD DIV MUL DUP4 MSTORE SWAP2 PUSH1 0x20 ADD SWAP2 PUSH2 0x19B2 JUMP JUMPDEST DUP3 ADD SWAP2 SWAP1 PUSH1 0x0 MSTORE PUSH1 0x20 PUSH1 0x0 KECCAK256 SWAP1 JUMPDEST DUP2 SLOAD DUP2 MSTORE SWAP1 PUSH1 0x1 ADD SWAP1 PUSH1 0x20 ADD DUP1 DUP4 GT PUSH2 0x1995 JUMPI DUP3 SWAP1 SUB PUSH1 0x1F AND DUP3 ADD SWAP2 JUMPDEST POP POP POP POP POP DUP2 MSTORE PUSH1 0x20 ADD PUSH1 0x4 DUP3 ADD DUP1 SLOAD PUSH2 0x19CB SWAP1 PUSH2 0x37DE JUMP JUMPDEST DUP1 PUSH1 0x1F ADD PUSH1 0x20 DUP1 SWAP2 DIV MUL PUSH1 0x20 ADD PUSH1 0x40 MLOAD SWAP1 DUP2 ADD PUSH1 0x40 MSTORE DUP1 SWAP3 SWAP2 SWAP1 DUP2 DUP2 MSTORE PUSH1 0x20 ADD DUP3 DUP1 SLOAD PUSH2 0x19F7 SWAP1 PUSH2 0x37DE JUMP JUMPDEST DUP1 ISZERO PUSH2 0x1A44 JUMPI DUP1 PUSH1 0x1F LT PUSH2 0x1A19 JUMPI PUSH2 0x100 DUP1 DUP4 SLOAD DIV MUL DUP4 MSTORE SWAP2 PUSH1 0x20 ADD SWAP2 PUSH2 0x1A44 JUMP JUMPDEST DUP3 ADD SWAP2 SWAP1 PUSH1 0x0 MSTORE PUSH1 0x20 PUSH1 0x0 KECCAK256 SWAP1 JUMPDEST DUP2 SLOAD DUP2 MSTORE SWAP1 PUSH1 0x1 ADD SWAP1 PUSH1 0x20 ADD DUP1 DUP4 GT PUSH2 0x1A27 JUMPI DUP3 SWAP1 SUB PUSH1 0x1F AND DUP3 ADD SWAP2 JUMPDEST POP POP POP SWAP2 DUP4 MSTORE POP POP PUSH1 0x40 DUP1 MLOAD PUSH2 0x120 DUP2 ADD DUP3 MSTORE PUSH1 0x5 DUP5 ADD SLOAD DUP2 MSTORE PUSH1 0x6 DUP5 ADD SLOAD PUSH1 0x20 DUP3 DUP2 ADD SWAP2 SWAP1 SWAP2 MSTORE PUSH1 0x7 DUP6 ADD SLOAD SWAP3 DUP3 ADD SWAP3 SWAP1 SWAP3 MSTORE PUSH1 0x8 DUP5 ADD SLOAD PUSH1 0x1 PUSH1 0x1 PUSH1 0xA0 SHL SUB AND PUSH1 0x60 DUP3 ADD MSTORE PUSH1 0x9 DUP5 ADD SLOAD PUSH1 0x80 DUP3 ADD MSTORE PUSH1 0xA DUP5 ADD SLOAD PUSH1 0xA0 DUP3 ADD MSTORE PUSH1 0xB DUP5 ADD SLOAD PUSH1 0xC0 DUP3 ADD MSTORE PUSH1 0xC SWAP1 SWAP4 ADD SLOAD PUSH1 0xFF DUP1 DUP3 AND ISZERO ISZERO PUSH1 0xE0 DUP7 ADD MSTORE PUSH2 0x100 SWAP2 DUP3 SWAP1 DIV AND ISZERO ISZERO SWAP1 DUP5 ADD MSTORE SWAP1 DUP2 ADD SWAP2 SWAP1 SWAP2 MSTORE DUP2 MLOAD SWAP1 DUP3 ADD MLOAD SWAP2 SWAP3 POP PUSH2 0x1B18 SWAP2 PUSH2 0x1AE6 DUP7 PUSH2 0x2517 JUMP JUMPDEST DUP5 PUSH1 0x40 ADD MLOAD DUP6 PUSH1 0x60 ADD MLOAD PUSH1 0x40 MLOAD PUSH1 0x20 ADD PUSH2 0x1B04 SWAP6 SWAP5 SWAP4 SWAP3 SWAP2 SWAP1 PUSH2 0x39EE JUMP JUMPDEST PUSH1 0x40 MLOAD PUSH1 0x20 DUP2 DUP4 SUB SUB DUP2 MSTORE SWAP1 PUSH1 0x40 MSTORE PUSH2 0x28C3 JUMP JUMPDEST PUSH1 0x40 MLOAD PUSH1 0x20 ADD PUSH2 0x1B28 SWAP2 SWAP1 PUSH2 0x3B6A JUMP JUMPDEST PUSH1 0x40 MLOAD PUSH1 0x20 DUP2 DUP4 SUB SUB DUP2 MSTORE SWAP1 PUSH1 0x40 MSTORE SWAP2 POP POP SWAP2 SWAP1 POP JUMP JUMPDEST PUSH1 0x0 SLOAD PUSH1 0x1 PUSH1 0x1 PUSH1 0xA0 SHL SUB AND CALLER EQ PUSH2 0x100E JUMPI PUSH1 0x40 MLOAD PUSH3 0x461BCD PUSH1 0xE5 SHL DUP2 MSTORE PUSH1 0x20 PUSH1 0x4 DUP3 ADD DUP2 SWAP1 MSTORE PUSH1 0x24 DUP3 ADD MSTORE PUSH32 0x4F776E61626C653A2063616C6C6572206973206E6F7420746865206F776E6572 PUSH1 0x44 DUP3 ADD MSTORE PUSH1 0x64 ADD PUSH2 0x6C6 JUMP JUMPDEST PUSH1 0x0 DUP3 PUSH1 0x1 PUSH1 0x1 PUSH1 0xA0 SHL SUB AND DUP3 PUSH1 0x40 MLOAD PUSH1 0x0 PUSH1 0x40 MLOAD DUP1 DUP4 SUB DUP2 DUP6 DUP8 GAS CALL SWAP3 POP POP POP RETURNDATASIZE DUP1 PUSH1 0x0 DUP2 EQ PUSH2 0x1BE6 JUMPI PUSH1 0x40 MLOAD SWAP2 POP PUSH1 0x1F NOT PUSH1 0x3F RETURNDATASIZE ADD AND DUP3 ADD PUSH1 0x40 MSTORE RETURNDATASIZE DUP3 MSTORE RETURNDATASIZE PUSH1 0x0 PUSH1 0x20 DUP5 ADD RETURNDATACOPY PUSH2 0x1BEB JUMP JUMPDEST PUSH1 0x60 SWAP2 POP JUMPDEST POP POP SWAP1 POP DUP1 PUSH2 0xFF7 JUMPI PUSH1 0x0 DUP1 REVERT JUMPDEST DUP2 MLOAD DUP4 MLOAD EQ PUSH2 0x1C1A JUMPI PUSH1 0x40 MLOAD PUSH3 0x461BCD PUSH1 0xE5 SHL DUP2 MSTORE PUSH1 0x4 ADD PUSH2 0x6C6 SWAP1 PUSH2 0x3BAF JUMP JUMPDEST PUSH1 0x1 PUSH1 0x1 PUSH1 0xA0 SHL SUB DUP5 AND PUSH2 0x1C40 JUMPI PUSH1 0x40 MLOAD PUSH3 0x461BCD PUSH1 0xE5 SHL DUP2 MSTORE PUSH1 0x4 ADD PUSH2 0x6C6 SWAP1 PUSH2 0x3BF7 JUMP JUMPDEST CALLER PUSH1 0x0 JUMPDEST DUP5 MLOAD DUP2 LT ISZERO PUSH2 0x1D2A JUMPI PUSH1 0x0 DUP6 DUP3 DUP2 MLOAD DUP2 LT PUSH2 0x1C61 JUMPI PUSH2 0x1C61 PUSH2 0x37C8 JUMP JUMPDEST PUSH1 0x20 MUL PUSH1 0x20 ADD ADD MLOAD SWAP1 POP PUSH1 0x0 DUP6 DUP4 DUP2 MLOAD DUP2 LT PUSH2 0x1C7F JUMPI PUSH2 0x1C7F PUSH2 0x37C8 JUMP JUMPDEST PUSH1 0x20 SWAP1 DUP2 MUL SWAP2 SWAP1 SWAP2 ADD DUP2 ADD MLOAD PUSH1 0x0 DUP5 DUP2 MSTORE PUSH1 0x1 DUP4 MSTORE PUSH1 0x40 DUP1 DUP3 KECCAK256 PUSH1 0x1 PUSH1 0x1 PUSH1 0xA0 SHL SUB DUP15 AND DUP4 MSTORE SWAP1 SWAP4 MSTORE SWAP2 SWAP1 SWAP2 KECCAK256 SLOAD SWAP1 SWAP2 POP DUP2 DUP2 LT ISZERO PUSH2 0x1CD0 JUMPI PUSH1 0x40 MLOAD PUSH3 0x461BCD PUSH1 0xE5 SHL DUP2 MSTORE PUSH1 0x4 ADD PUSH2 0x6C6 SWAP1 PUSH2 0x3C3C JUMP JUMPDEST PUSH1 0x0 DUP4 DUP2 MSTORE PUSH1 0x1 PUSH1 0x20 SWAP1 DUP2 MSTORE PUSH1 0x40 DUP1 DUP4 KECCAK256 PUSH1 0x1 PUSH1 0x1 PUSH1 0xA0 SHL SUB DUP15 DUP2 AND DUP6 MSTORE SWAP3 MSTORE DUP1 DUP4 KECCAK256 DUP6 DUP6 SUB SWAP1 SSTORE SWAP1 DUP12 AND DUP3 MSTORE DUP2 KECCAK256 DUP1 SLOAD DUP5 SWAP3 SWAP1 PUSH2 0x1D0F SWAP1 DUP5 SWAP1 PUSH2 0x3938 JUMP JUMPDEST SWAP3 POP POP DUP2 SWAP1 SSTORE POP POP POP POP DUP1 PUSH2 0x1D23 SWAP1 PUSH2 0x37AF JUMP JUMPDEST SWAP1 POP PUSH2 0x1C44 JUMP JUMPDEST POP DUP5 PUSH1 0x1 PUSH1 0x1 PUSH1 0xA0 SHL SUB AND DUP7 PUSH1 0x1 PUSH1 0x1 PUSH1 0xA0 SHL SUB AND DUP3 PUSH1 0x1 PUSH1 0x1 PUSH1 0xA0 SHL SUB AND PUSH32 0x4A39DC06D4C0DBC64B70AF90FD698A233A518AA5D07E595D983B8C0526C8F7FB DUP8 DUP8 PUSH1 0x40 MLOAD PUSH2 0x1D7A SWAP3 SWAP2 SWAP1 PUSH2 0x3C86 JUMP JUMPDEST PUSH1 0x40 MLOAD DUP1 SWAP2 SUB SWAP1 LOG4 PUSH2 0x1D90 DUP2 DUP8 DUP8 DUP8 DUP8 DUP8 PUSH2 0x2A29 JUMP JUMPDEST POP POP POP POP POP POP JUMP JUMPDEST PUSH1 0x1 PUSH1 0x1 PUSH1 0xA0 SHL SUB DUP4 AND PUSH2 0x1DBE JUMPI PUSH1 0x40 MLOAD PUSH3 0x461BCD PUSH1 0xE5 SHL DUP2 MSTORE PUSH1 0x4 ADD PUSH2 0x6C6 SWAP1 PUSH2 0x3CAB JUMP JUMPDEST DUP1 MLOAD DUP3 MLOAD EQ PUSH2 0x1DDF JUMPI PUSH1 0x40 MLOAD PUSH3 0x461BCD PUSH1 0xE5 SHL DUP2 MSTORE PUSH1 0x4 ADD PUSH2 0x6C6 SWAP1 PUSH2 0x3BAF JUMP JUMPDEST PUSH1 0x40 DUP1 MLOAD PUSH1 0x20 DUP2 ADD SWAP1 SWAP2 MSTORE PUSH1 0x0 SWAP1 DUP2 SWAP1 MSTORE CALLER SWAP1 JUMPDEST DUP4 MLOAD DUP2 LT ISZERO PUSH2 0x1EB8 JUMPI PUSH1 0x0 DUP5 DUP3 DUP2 MLOAD DUP2 LT PUSH2 0x1E10 JUMPI PUSH2 0x1E10 PUSH2 0x37C8 JUMP JUMPDEST PUSH1 0x20 MUL PUSH1 0x20 ADD ADD MLOAD SWAP1 POP PUSH1 0x0 DUP5 DUP4 DUP2 MLOAD DUP2 LT PUSH2 0x1E2E JUMPI PUSH2 0x1E2E PUSH2 0x37C8 JUMP JUMPDEST PUSH1 0x20 SWAP1 DUP2 MUL SWAP2 SWAP1 SWAP2 ADD DUP2 ADD MLOAD PUSH1 0x0 DUP5 DUP2 MSTORE PUSH1 0x1 DUP4 MSTORE PUSH1 0x40 DUP1 DUP3 KECCAK256 PUSH1 0x1 PUSH1 0x1 PUSH1 0xA0 SHL SUB DUP13 AND DUP4 MSTORE SWAP1 SWAP4 MSTORE SWAP2 SWAP1 SWAP2 KECCAK256 SLOAD SWAP1 SWAP2 POP DUP2 DUP2 LT ISZERO PUSH2 0x1E7F JUMPI PUSH1 0x40 MLOAD PUSH3 0x461BCD PUSH1 0xE5 SHL DUP2 MSTORE PUSH1 0x4 ADD PUSH2 0x6C6 SWAP1 PUSH2 0x3CEE JUMP JUMPDEST PUSH1 0x0 SWAP3 DUP4 MSTORE PUSH1 0x1 PUSH1 0x20 SWAP1 DUP2 MSTORE PUSH1 0x40 DUP1 DUP6 KECCAK256 PUSH1 0x1 PUSH1 0x1 PUSH1 0xA0 SHL SUB DUP12 AND DUP7 MSTORE SWAP1 SWAP2 MSTORE SWAP1 SWAP3 KECCAK256 SWAP2 SUB SWAP1 SSTORE DUP1 PUSH2 0x1EB0 DUP2 PUSH2 0x37AF JUMP JUMPDEST SWAP2 POP POP PUSH2 0x1DF3 JUMP JUMPDEST POP PUSH1 0x0 PUSH1 0x1 PUSH1 0x1 PUSH1 0xA0 SHL SUB AND DUP5 PUSH1 0x1 PUSH1 0x1 PUSH1 0xA0 SHL SUB AND DUP3 PUSH1 0x1 PUSH1 0x1 PUSH1 0xA0 SHL SUB AND PUSH32 0x4A39DC06D4C0DBC64B70AF90FD698A233A518AA5D07E595D983B8C0526C8F7FB DUP7 DUP7 PUSH1 0x40 MLOAD PUSH2 0x1F09 SWAP3 SWAP2 SWAP1 PUSH2 0x3C86 JUMP JUMPDEST PUSH1 0x40 MLOAD DUP1 SWAP2 SUB SWAP1 LOG4 PUSH1 0x40 DUP1 MLOAD PUSH1 0x20 DUP2 ADD SWAP1 SWAP2 MSTORE PUSH1 0x0 SWAP1 MSTORE JUMPDEST POP POP POP POP JUMP JUMPDEST PUSH1 0x0 DUP1 SLOAD PUSH1 0x1 PUSH1 0x1 PUSH1 0xA0 SHL SUB DUP4 DUP2 AND PUSH1 0x1 PUSH1 0x1 PUSH1 0xA0 SHL SUB NOT DUP4 AND DUP2 OR DUP5 SSTORE PUSH1 0x40 MLOAD SWAP2 SWAP1 SWAP3 AND SWAP3 DUP4 SWAP2 PUSH32 0x8BE0079C531659141344CD1FD0A4F28419497F9722A3DAAFE3B4186F6B6457E0 SWAP2 SWAP1 LOG3 POP POP JUMP JUMPDEST PUSH1 0x1 PUSH1 0x1 PUSH1 0xA0 SHL SUB DUP4 AND PUSH2 0x1F9D JUMPI PUSH1 0x40 MLOAD PUSH3 0x461BCD PUSH1 0xE5 SHL DUP2 MSTORE PUSH1 0x4 ADD PUSH2 0x6C6 SWAP1 PUSH2 0x3CAB JUMP JUMPDEST CALLER PUSH1 0x0 PUSH2 0x1FA9 DUP5 PUSH2 0x2B84 JUMP JUMPDEST SWAP1 POP PUSH1 0x0 PUSH2 0x1FB6 DUP5 PUSH2 0x2B84 JUMP JUMPDEST PUSH1 0x40 DUP1 MLOAD PUSH1 0x20 DUP1 DUP3 ADD DUP4 MSTORE PUSH1 0x0 SWAP2 DUP3 SWAP1 MSTORE DUP9 DUP3 MSTORE PUSH1 0x1 DUP2 MSTORE DUP3 DUP3 KECCAK256 PUSH1 0x1 PUSH1 0x1 PUSH1 0xA0 SHL SUB DUP12 AND DUP4 MSTORE SWAP1 MSTORE KECCAK256 SLOAD SWAP1 SWAP2 POP DUP5 DUP2 LT ISZERO PUSH2 0x2004 JUMPI PUSH1 0x40 MLOAD PUSH3 0x461BCD PUSH1 0xE5 SHL DUP2 MSTORE PUSH1 0x4 ADD PUSH2 0x6C6 SWAP1 PUSH2 0x3CEE JUMP JUMPDEST PUSH1 0x0 DUP7 DUP2 MSTORE PUSH1 0x1 PUSH1 0x20 SWAP1 DUP2 MSTORE PUSH1 0x40 DUP1 DUP4 KECCAK256 PUSH1 0x1 PUSH1 0x1 PUSH1 0xA0 SHL SUB DUP12 DUP2 AND DUP1 DUP7 MSTORE SWAP2 DUP5 MSTORE DUP3 DUP6 KECCAK256 DUP11 DUP8 SUB SWAP1 SSTORE DUP3 MLOAD DUP12 DUP2 MSTORE SWAP4 DUP5 ADD DUP11 SWAP1 MSTORE SWAP1 SWAP3 SWAP1 DUP9 AND SWAP2 PUSH32 0xC3D58168C5AE7397731D063D5BBF3D657854427343F4C083240F7AACAA2D0F62 SWAP2 ADD PUSH1 0x40 MLOAD DUP1 SWAP2 SUB SWAP1 LOG4 PUSH1 0x40 DUP1 MLOAD PUSH1 0x20 DUP2 ADD SWAP1 SWAP2 MSTORE PUSH1 0x0 SWAP1 MSTORE PUSH2 0x142A JUMP JUMPDEST PUSH1 0x0 PUSH2 0x208C TIMESTAMP PUSH2 0x3E8 PUSH2 0x3921 JUMP JUMPDEST PUSH2 0x2098 SWAP1 PUSH2 0x3E8 PUSH2 0x3938 JUMP JUMPDEST SWAP1 POP SWAP1 JUMP JUMPDEST PUSH1 0x0 DUP2 PUSH1 0x1 PUSH1 0x1 PUSH1 0x40 SHL SUB DUP2 GT ISZERO PUSH2 0x20B7 JUMPI PUSH2 0x20B7 PUSH2 0x3228 JUMP JUMPDEST PUSH1 0x40 MLOAD SWAP1 DUP1 DUP3 MSTORE DUP1 PUSH1 0x20 MUL PUSH1 0x20 ADD DUP3 ADD PUSH1 0x40 MSTORE DUP1 ISZERO PUSH2 0x20E0 JUMPI DUP2 PUSH1 0x20 ADD PUSH1 0x20 DUP3 MUL DUP1 CALLDATASIZE DUP4 CALLDATACOPY ADD SWAP1 POP JUMPDEST POP SWAP1 POP PUSH1 0x0 DUP3 PUSH1 0x1 PUSH1 0x1 PUSH1 0x40 SHL SUB DUP2 GT ISZERO PUSH2 0x20FD JUMPI PUSH2 0x20FD PUSH2 0x3228 JUMP JUMPDEST PUSH1 0x40 MLOAD SWAP1 DUP1 DUP3 MSTORE DUP1 PUSH1 0x20 MUL PUSH1 0x20 ADD DUP3 ADD PUSH1 0x40 MSTORE DUP1 ISZERO PUSH2 0x2126 JUMPI DUP2 PUSH1 0x20 ADD PUSH1 0x20 DUP3 MUL DUP1 CALLDATASIZE DUP4 CALLDATACOPY ADD SWAP1 POP JUMPDEST POP SWAP1 POP PUSH1 0x0 DUP4 PUSH2 0x2135 PUSH1 0x4 SLOAD SWAP1 JUMP JUMPDEST PUSH2 0x213F SWAP2 SWAP1 PUSH2 0x3818 JUMP JUMPDEST SWAP1 POP PUSH1 0x0 JUMPDEST DUP5 DUP2 LT ISZERO PUSH2 0x22D6 JUMPI DUP2 PUSH2 0x2156 DUP2 PUSH2 0x37AF JUMP JUMPDEST SWAP3 POP POP PUSH1 0x0 PUSH2 0x2164 DUP4 PUSH2 0x2BCF JUMP JUMPDEST SWAP1 POP PUSH1 0x0 PUSH1 0x8 DUP3 PUSH1 0x40 MLOAD PUSH1 0x20 ADD PUSH2 0x217C SWAP3 SWAP2 SWAP1 PUSH2 0x3D32 JUMP JUMPDEST PUSH1 0x40 DUP1 MLOAD PUSH1 0x1F NOT DUP2 DUP5 SUB ADD DUP2 MSTORE PUSH1 0x60 DUP4 ADD SWAP1 SWAP2 MSTORE PUSH1 0x31 DUP1 DUP4 MSTORE SWAP1 SWAP3 POP PUSH1 0x0 SWAP2 SWAP1 PUSH2 0x428A PUSH1 0x20 DUP4 ADD CODECOPY PUSH1 0x0 DUP7 DUP2 MSTORE PUSH1 0xA PUSH1 0x20 MSTORE PUSH1 0x40 SWAP1 KECCAK256 SWAP1 SWAP2 POP PUSH2 0x21BF DUP4 DUP3 PUSH2 0x3E0D JUMP JUMPDEST POP PUSH1 0x0 DUP6 DUP2 MSTORE PUSH1 0xA PUSH1 0x20 MSTORE PUSH1 0x40 SWAP1 KECCAK256 PUSH1 0x4 ADD PUSH2 0x21DB DUP4 DUP3 PUSH2 0x3E0D JUMP JUMPDEST POP PUSH1 0x0 DUP6 DUP2 MSTORE PUSH1 0xA PUSH1 0x20 MSTORE PUSH1 0x40 SWAP1 KECCAK256 PUSH1 0x1 ADD PUSH2 0x21F7 DUP3 DUP3 PUSH2 0x3E0D JUMP JUMPDEST POP PUSH2 0x2214 PUSH2 0x220F PUSH2 0x169 PUSH2 0x2209 PUSH2 0x207E JUMP JUMPDEST DUP9 PUSH2 0x2C61 JUMP JUMPDEST PUSH2 0x2BCF JUMP JUMPDEST PUSH1 0x0 DUP7 DUP2 MSTORE PUSH1 0xA PUSH1 0x20 MSTORE PUSH1 0x40 SWAP1 KECCAK256 PUSH1 0x2 ADD SWAP1 PUSH2 0x2230 SWAP1 DUP3 PUSH2 0x3E0D JUMP JUMPDEST POP PUSH2 0x2241 PUSH2 0x220F PUSH2 0x169 TIMESTAMP DUP9 PUSH2 0x2C61 JUMP JUMPDEST PUSH1 0x0 DUP7 DUP2 MSTORE PUSH1 0xA PUSH1 0x20 MSTORE PUSH1 0x40 SWAP1 KECCAK256 PUSH1 0x3 ADD SWAP1 PUSH2 0x225D SWAP1 DUP3 PUSH2 0x3E0D JUMP JUMPDEST POP PUSH2 0x2267 DUP6 PUSH2 0x7D8 JUMP JUMPDEST PUSH1 0x0 DUP7 DUP2 MSTORE PUSH1 0x9 PUSH1 0x20 MSTORE PUSH1 0x40 SWAP1 KECCAK256 SWAP1 PUSH2 0x2280 SWAP1 DUP3 PUSH2 0x3E0D JUMP JUMPDEST POP DUP5 DUP8 DUP6 DUP2 MLOAD DUP2 LT PUSH2 0x2294 JUMPI PUSH2 0x2294 PUSH2 0x37C8 JUMP JUMPDEST PUSH1 0x20 MUL PUSH1 0x20 ADD ADD DUP2 DUP2 MSTORE POP POP PUSH1 0x1 DUP7 DUP6 DUP2 MLOAD DUP2 LT PUSH2 0x22B4 JUMPI PUSH2 0x22B4 PUSH2 0x37C8 JUMP JUMPDEST PUSH1 0x20 MUL PUSH1 0x20 ADD ADD DUP2 DUP2 MSTORE POP POP POP POP POP DUP1 DUP1 PUSH2 0x22CE SWAP1 PUSH2 0x37AF JUMP JUMPDEST SWAP2 POP POP PUSH2 0x2144 JUMP JUMPDEST POP PUSH1 0x0 DUP4 DUP4 PUSH1 0x40 MLOAD PUSH1 0x20 ADD PUSH2 0x22EC SWAP3 SWAP2 SWAP1 PUSH2 0x3EF1 JUMP JUMPDEST PUSH1 0x40 MLOAD PUSH1 0x20 DUP2 DUP4 SUB SUB DUP2 MSTORE SWAP1 PUSH1 0x40 MSTORE SWAP1 POP PUSH2 0xB33 CALLER DUP6 DUP6 DUP5 PUSH2 0x2CC9 JUMP JUMPDEST DUP2 PUSH1 0x1 PUSH1 0x1 PUSH1 0xA0 SHL SUB AND DUP4 PUSH1 0x1 PUSH1 0x1 PUSH1 0xA0 SHL SUB AND SUB PUSH2 0x237C JUMPI PUSH1 0x40 MLOAD PUSH3 0x461BCD PUSH1 0xE5 SHL DUP2 MSTORE PUSH1 0x20 PUSH1 0x4 DUP3 ADD MSTORE PUSH1 0x29 PUSH1 0x24 DUP3 ADD MSTORE PUSH32 0x455243313135353A2073657474696E6720617070726F76616C20737461747573 PUSH1 0x44 DUP3 ADD MSTORE PUSH9 0x103337B91039B2B633 PUSH1 0xB9 SHL PUSH1 0x64 DUP3 ADD MSTORE PUSH1 0x84 ADD PUSH2 0x6C6 JUMP JUMPDEST PUSH1 0x1 PUSH1 0x1 PUSH1 0xA0 SHL SUB DUP4 DUP2 AND PUSH1 0x0 DUP2 DUP2 MSTORE PUSH1 0x2 PUSH1 0x20 SWAP1 DUP2 MSTORE PUSH1 0x40 DUP1 DUP4 KECCAK256 SWAP5 DUP8 AND DUP1 DUP5 MSTORE SWAP5 DUP3 MSTORE SWAP2 DUP3 SWAP1 KECCAK256 DUP1 SLOAD PUSH1 0xFF NOT AND DUP7 ISZERO ISZERO SWAP1 DUP2 OR SWAP1 SWAP2 SSTORE SWAP2 MLOAD SWAP2 DUP3 MSTORE PUSH32 0x17307EAB39AB6107E8899845AD3D59BD9653F200F220920489CA2B5937696C31 SWAP2 ADD PUSH1 0x40 MLOAD DUP1 SWAP2 SUB SWAP1 LOG3 POP POP POP JUMP JUMPDEST PUSH1 0x1 PUSH1 0x1 PUSH1 0xA0 SHL SUB DUP5 AND PUSH2 0x240F JUMPI PUSH1 0x40 MLOAD PUSH3 0x461BCD PUSH1 0xE5 SHL DUP2 MSTORE PUSH1 0x4 ADD PUSH2 0x6C6 SWAP1 PUSH2 0x3BF7 JUMP JUMPDEST CALLER PUSH1 0x0 PUSH2 0x241B DUP6 PUSH2 0x2B84 JUMP JUMPDEST SWAP1 POP PUSH1 0x0 PUSH2 0x2428 DUP6 PUSH2 0x2B84 JUMP JUMPDEST SWAP1 POP PUSH1 0x0 DUP7 DUP2 MSTORE PUSH1 0x1 PUSH1 0x20 SWAP1 DUP2 MSTORE PUSH1 0x40 DUP1 DUP4 KECCAK256 PUSH1 0x1 PUSH1 0x1 PUSH1 0xA0 SHL SUB DUP13 AND DUP5 MSTORE SWAP1 SWAP2 MSTORE SWAP1 KECCAK256 SLOAD DUP6 DUP2 LT ISZERO PUSH2 0x246D JUMPI PUSH1 0x40 MLOAD PUSH3 0x461BCD PUSH1 0xE5 SHL DUP2 MSTORE PUSH1 0x4 ADD PUSH2 0x6C6 SWAP1 PUSH2 0x3C3C JUMP JUMPDEST PUSH1 0x0 DUP8 DUP2 MSTORE PUSH1 0x1 PUSH1 0x20 SWAP1 DUP2 MSTORE PUSH1 0x40 DUP1 DUP4 KECCAK256 PUSH1 0x1 PUSH1 0x1 PUSH1 0xA0 SHL SUB DUP14 DUP2 AND DUP6 MSTORE SWAP3 MSTORE DUP1 DUP4 KECCAK256 DUP10 DUP6 SUB SWAP1 SSTORE SWAP1 DUP11 AND DUP3 MSTORE DUP2 KECCAK256 DUP1 SLOAD DUP9 SWAP3 SWAP1 PUSH2 0x24AC SWAP1 DUP5 SWAP1 PUSH2 0x3938 JUMP JUMPDEST SWAP1 SWAP2 SSTORE POP POP PUSH1 0x40 DUP1 MLOAD DUP9 DUP2 MSTORE PUSH1 0x20 DUP2 ADD DUP9 SWAP1 MSTORE PUSH1 0x1 PUSH1 0x1 PUSH1 0xA0 SHL SUB DUP1 DUP12 AND SWAP3 DUP13 DUP3 AND SWAP3 SWAP2 DUP9 AND SWAP2 PUSH32 0xC3D58168C5AE7397731D063D5BBF3D657854427343F4C083240F7AACAA2D0F62 SWAP2 ADD PUSH1 0x40 MLOAD DUP1 SWAP2 SUB SWAP1 LOG4 PUSH2 0x250C DUP5 DUP11 DUP11 DUP11 DUP11 DUP11 PUSH2 0x2E4F JUMP JUMPDEST POP POP POP POP POP POP POP POP POP JUMP JUMPDEST PUSH1 0x60 PUSH1 0x0 PUSH1 0xA PUSH1 0x0 DUP5 DUP2 MSTORE PUSH1 0x20 ADD SWAP1 DUP2 MSTORE PUSH1 0x20 ADD PUSH1 0x0 KECCAK256 PUSH1 0x40 MLOAD DUP1 PUSH1 0xC0 ADD PUSH1 0x40 MSTORE SWAP1 DUP2 PUSH1 0x0 DUP3 ADD DUP1 SLOAD PUSH2 0x2549 SWAP1 PUSH2 0x37DE JUMP JUMPDEST DUP1 PUSH1 0x1F ADD PUSH1 0x20 DUP1 SWAP2 DIV MUL PUSH1 0x20 ADD PUSH1 0x40 MLOAD SWAP1 DUP2 ADD PUSH1 0x40 MSTORE DUP1 SWAP3 SWAP2 SWAP1 DUP2 DUP2 MSTORE PUSH1 0x20 ADD DUP3 DUP1 SLOAD PUSH2 0x2575 SWAP1 PUSH2 0x37DE JUMP JUMPDEST DUP1 ISZERO PUSH2 0x25C2 JUMPI DUP1 PUSH1 0x1F LT PUSH2 0x2597 JUMPI PUSH2 0x100 DUP1 DUP4 SLOAD DIV MUL DUP4 MSTORE SWAP2 PUSH1 0x20 ADD SWAP2 PUSH2 0x25C2 JUMP JUMPDEST DUP3 ADD SWAP2 SWAP1 PUSH1 0x0 MSTORE PUSH1 0x20 PUSH1 0x0 KECCAK256 SWAP1 JUMPDEST DUP2 SLOAD DUP2 MSTORE SWAP1 PUSH1 0x1 ADD SWAP1 PUSH1 0x20 ADD DUP1 DUP4 GT PUSH2 0x25A5 JUMPI DUP3 SWAP1 SUB PUSH1 0x1F AND DUP3 ADD SWAP2 JUMPDEST POP POP POP POP POP DUP2 MSTORE PUSH1 0x20 ADD PUSH1 0x1 DUP3 ADD DUP1 SLOAD PUSH2 0x25DB SWAP1 PUSH2 0x37DE JUMP JUMPDEST DUP1 PUSH1 0x1F ADD PUSH1 0x20 DUP1 SWAP2 DIV MUL PUSH1 0x20 ADD PUSH1 0x40 MLOAD SWAP1 DUP2 ADD PUSH1 0x40 MSTORE DUP1 SWAP3 SWAP2 SWAP1 DUP2 DUP2 MSTORE PUSH1 0x20 ADD DUP3 DUP1 SLOAD PUSH2 0x2607 SWAP1 PUSH2 0x37DE JUMP JUMPDEST DUP1 ISZERO PUSH2 0x2654 JUMPI DUP1 PUSH1 0x1F LT PUSH2 0x2629 JUMPI PUSH2 0x100 DUP1 DUP4 SLOAD DIV MUL DUP4 MSTORE SWAP2 PUSH1 0x20 ADD SWAP2 PUSH2 0x2654 JUMP JUMPDEST DUP3 ADD SWAP2 SWAP1 PUSH1 0x0 MSTORE PUSH1 0x20 PUSH1 0x0 KECCAK256 SWAP1 JUMPDEST DUP2 SLOAD DUP2 MSTORE SWAP1 PUSH1 0x1 ADD SWAP1 PUSH1 0x20 ADD DUP1 DUP4 GT PUSH2 0x2637 JUMPI DUP3 SWAP1 SUB PUSH1 0x1F AND DUP3 ADD SWAP2 JUMPDEST POP POP POP POP POP DUP2 MSTORE PUSH1 0x20 ADD PUSH1 0x2 DUP3 ADD DUP1 SLOAD PUSH2 0x266D SWAP1 PUSH2 0x37DE JUMP JUMPDEST DUP1 PUSH1 0x1F ADD PUSH1 0x20 DUP1 SWAP2 DIV MUL PUSH1 0x20 ADD PUSH1 0x40 MLOAD SWAP1 DUP2 ADD PUSH1 0x40 MSTORE DUP1 SWAP3 SWAP2 SWAP1 DUP2 DUP2 MSTORE PUSH1 0x20 ADD DUP3 DUP1 SLOAD PUSH2 0x2699 SWAP1 PUSH2 0x37DE JUMP JUMPDEST DUP1 ISZERO PUSH2 0x26E6 JUMPI DUP1 PUSH1 0x1F LT PUSH2 0x26BB JUMPI PUSH2 0x100 DUP1 DUP4 SLOAD DIV MUL DUP4 MSTORE SWAP2 PUSH1 0x20 ADD SWAP2 PUSH2 0x26E6 JUMP JUMPDEST DUP3 ADD SWAP2 SWAP1 PUSH1 0x0 MSTORE PUSH1 0x20 PUSH1 0x0 KECCAK256 SWAP1 JUMPDEST DUP2 SLOAD DUP2 MSTORE SWAP1 PUSH1 0x1 ADD SWAP1 PUSH1 0x20 ADD DUP1 DUP4 GT PUSH2 0x26C9 JUMPI DUP3 SWAP1 SUB PUSH1 0x1F AND DUP3 ADD SWAP2 JUMPDEST POP POP POP POP POP DUP2 MSTORE PUSH1 0x20 ADD PUSH1 0x3 DUP3 ADD DUP1 SLOAD PUSH2 0x26FF SWAP1 PUSH2 0x37DE JUMP JUMPDEST DUP1 PUSH1 0x1F ADD PUSH1 0x20 DUP1 SWAP2 DIV MUL PUSH1 0x20 ADD PUSH1 0x40 MLOAD SWAP1 DUP2 ADD PUSH1 0x40 MSTORE DUP1 SWAP3 SWAP2 SWAP1 DUP2 DUP2 MSTORE PUSH1 0x20 ADD DUP3 DUP1 SLOAD PUSH2 0x272B SWAP1 PUSH2 0x37DE JUMP JUMPDEST DUP1 ISZERO PUSH2 0x2778 JUMPI DUP1 PUSH1 0x1F LT PUSH2 0x274D JUMPI PUSH2 0x100 DUP1 DUP4 SLOAD DIV MUL DUP4 MSTORE SWAP2 PUSH1 0x20 ADD SWAP2 PUSH2 0x2778 JUMP JUMPDEST DUP3 ADD SWAP2 SWAP1 PUSH1 0x0 MSTORE PUSH1 0x20 PUSH1 0x0 KECCAK256 SWAP1 JUMPDEST DUP2 SLOAD DUP2 MSTORE SWAP1 PUSH1 0x1 ADD SWAP1 PUSH1 0x20 ADD DUP1 DUP4 GT PUSH2 0x275B JUMPI DUP3 SWAP1 SUB PUSH1 0x1F AND DUP3 ADD SWAP2 JUMPDEST POP POP POP POP POP DUP2 MSTORE PUSH1 0x20 ADD PUSH1 0x4 DUP3 ADD DUP1 SLOAD PUSH2 0x2791 SWAP1 PUSH2 0x37DE JUMP JUMPDEST DUP1 PUSH1 0x1F ADD PUSH1 0x20 DUP1 SWAP2 DIV MUL PUSH1 0x20 ADD PUSH1 0x40 MLOAD SWAP1 DUP2 ADD PUSH1 0x40 MSTORE DUP1 SWAP3 SWAP2 SWAP1 DUP2 DUP2 MSTORE PUSH1 0x20 ADD DUP3 DUP1 SLOAD PUSH2 0x27BD SWAP1 PUSH2 0x37DE JUMP JUMPDEST DUP1 ISZERO PUSH2 0x280A JUMPI DUP1 PUSH1 0x1F LT PUSH2 0x27DF JUMPI PUSH2 0x100 DUP1 DUP4 SLOAD DIV MUL DUP4 MSTORE SWAP2 PUSH1 0x20 ADD SWAP2 PUSH2 0x280A JUMP JUMPDEST DUP3 ADD SWAP2 SWAP1 PUSH1 0x0 MSTORE PUSH1 0x20 PUSH1 0x0 KECCAK256 SWAP1 JUMPDEST DUP2 SLOAD DUP2 MSTORE SWAP1 PUSH1 0x1 ADD SWAP1 PUSH1 0x20 ADD DUP1 DUP4 GT PUSH2 0x27ED JUMPI DUP3 SWAP1 SUB PUSH1 0x1F AND DUP3 ADD SWAP2 JUMPDEST POP POP POP SWAP2 DUP4 MSTORE POP POP PUSH1 0x40 DUP1 MLOAD PUSH2 0x120 DUP2 ADD DUP3 MSTORE PUSH1 0x5 DUP5 ADD SLOAD DUP2 MSTORE PUSH1 0x6 DUP5 ADD SLOAD PUSH1 0x20 DUP3 DUP2 ADD SWAP2 SWAP1 SWAP2 MSTORE PUSH1 0x7 DUP6 ADD SLOAD DUP3 DUP5 ADD MSTORE PUSH1 0x8 DUP6 ADD SLOAD PUSH1 0x1 PUSH1 0x1 PUSH1 0xA0 SHL SUB AND PUSH1 0x60 DUP1 DUP5 ADD SWAP2 SWAP1 SWAP2 MSTORE PUSH1 0x9 DUP7 ADD SLOAD PUSH1 0x80 DUP1 DUP6 ADD SWAP2 SWAP1 SWAP2 MSTORE PUSH1 0xA DUP8 ADD SLOAD PUSH1 0xA0 DUP6 ADD MSTORE PUSH1 0xB DUP8 ADD SLOAD PUSH1 0xC0 DUP6 ADD MSTORE PUSH1 0xC SWAP1 SWAP7 ADD SLOAD PUSH1 0xFF DUP1 DUP3 AND ISZERO ISZERO PUSH1 0xE0 DUP7 ADD MSTORE PUSH2 0x100 SWAP2 DUP3 SWAP1 DIV AND ISZERO ISZERO SWAP1 DUP5 ADD MSTORE SWAP4 DUP2 ADD SWAP2 SWAP1 SWAP2 MSTORE DUP5 DUP3 ADD MLOAD SWAP3 DUP6 ADD MLOAD SWAP4 DUP6 ADD MLOAD SWAP2 MLOAD SWAP5 SWAP6 POP PUSH2 0x28BC SWAP5 PUSH2 0x1B04 SWAP5 SWAP3 SWAP2 ADD PUSH2 0x3F0E JUMP JUMPDEST SWAP4 SWAP3 POP POP POP JUMP JUMPDEST PUSH1 0x60 DUP2 MLOAD PUSH1 0x0 SUB PUSH2 0x28E2 JUMPI POP POP PUSH1 0x40 DUP1 MLOAD PUSH1 0x20 DUP2 ADD SWAP1 SWAP2 MSTORE PUSH1 0x0 DUP2 MSTORE SWAP1 JUMP JUMPDEST PUSH1 0x0 PUSH1 0x40 MLOAD DUP1 PUSH1 0x60 ADD PUSH1 0x40 MSTORE DUP1 PUSH1 0x40 DUP2 MSTORE PUSH1 0x20 ADD PUSH2 0x42BB PUSH1 0x40 SWAP2 CODECOPY SWAP1 POP PUSH1 0x0 PUSH1 0x3 DUP5 MLOAD PUSH1 0x2 PUSH2 0x2911 SWAP2 SWAP1 PUSH2 0x3938 JUMP JUMPDEST PUSH2 0x291B SWAP2 SWAP1 PUSH2 0x40BF JUMP JUMPDEST PUSH2 0x2926 SWAP1 PUSH1 0x4 PUSH2 0x3921 JUMP JUMPDEST SWAP1 POP PUSH1 0x0 PUSH2 0x2935 DUP3 PUSH1 0x20 PUSH2 0x3938 JUMP JUMPDEST PUSH1 0x1 PUSH1 0x1 PUSH1 0x40 SHL SUB DUP2 GT ISZERO PUSH2 0x294C JUMPI PUSH2 0x294C PUSH2 0x3228 JUMP JUMPDEST PUSH1 0x40 MLOAD SWAP1 DUP1 DUP3 MSTORE DUP1 PUSH1 0x1F ADD PUSH1 0x1F NOT AND PUSH1 0x20 ADD DUP3 ADD PUSH1 0x40 MSTORE DUP1 ISZERO PUSH2 0x2976 JUMPI PUSH1 0x20 DUP3 ADD DUP2 DUP1 CALLDATASIZE DUP4 CALLDATACOPY ADD SWAP1 POP JUMPDEST POP SWAP1 POP DUP2 DUP2 MSTORE PUSH1 0x1 DUP4 ADD DUP6 DUP7 MLOAD DUP2 ADD PUSH1 0x20 DUP5 ADD JUMPDEST DUP2 DUP4 LT ISZERO PUSH2 0x29E4 JUMPI PUSH1 0x3 SWAP3 DUP4 ADD DUP1 MLOAD PUSH1 0x3F PUSH1 0x12 DUP3 SWAP1 SHR DUP2 AND DUP8 ADD MLOAD PUSH1 0xF8 SWAP1 DUP2 SHL DUP6 MSTORE PUSH1 0xC DUP4 SWAP1 SHR DUP3 AND DUP9 ADD MLOAD DUP2 SHL PUSH1 0x1 DUP7 ADD MSTORE PUSH1 0x6 DUP4 SWAP1 SHR DUP3 AND DUP9 ADD MLOAD DUP2 SHL PUSH1 0x2 DUP7 ADD MSTORE SWAP2 AND DUP7 ADD MLOAD SWAP1 SHL SWAP4 DUP3 ADD SWAP4 SWAP1 SWAP4 MSTORE PUSH1 0x4 ADD PUSH2 0x298A JUMP JUMPDEST PUSH1 0x3 DUP10 MLOAD MOD PUSH1 0x1 DUP2 EQ PUSH2 0x29FE JUMPI PUSH1 0x2 DUP2 EQ PUSH2 0x2A0F JUMPI PUSH2 0x2A1B JUMP JUMPDEST PUSH2 0x3D3D PUSH1 0xF0 SHL PUSH1 0x1 NOT DUP4 ADD MSTORE PUSH2 0x2A1B JUMP JUMPDEST PUSH1 0x3D PUSH1 0xF8 SHL PUSH1 0x0 NOT DUP4 ADD MSTORE JUMPDEST POP SWAP4 SWAP9 SWAP8 POP POP POP POP POP POP POP POP JUMP JUMPDEST PUSH1 0x1 PUSH1 0x1 PUSH1 0xA0 SHL SUB DUP5 AND EXTCODESIZE ISZERO PUSH2 0x1D90 JUMPI PUSH1 0x40 MLOAD PUSH4 0xBC197C81 PUSH1 0xE0 SHL DUP2 MSTORE PUSH1 0x1 PUSH1 0x1 PUSH1 0xA0 SHL SUB DUP6 AND SWAP1 PUSH4 0xBC197C81 SWAP1 PUSH2 0x2A6D SWAP1 DUP10 SWAP1 DUP10 SWAP1 DUP9 SWAP1 DUP9 SWAP1 DUP9 SWAP1 PUSH1 0x4 ADD PUSH2 0x40D3 JUMP JUMPDEST PUSH1 0x20 PUSH1 0x40 MLOAD DUP1 DUP4 SUB DUP2 PUSH1 0x0 DUP8 GAS CALL SWAP3 POP POP POP DUP1 ISZERO PUSH2 0x2AA8 JUMPI POP PUSH1 0x40 DUP1 MLOAD PUSH1 0x1F RETURNDATASIZE SWAP1 DUP2 ADD PUSH1 0x1F NOT AND DUP3 ADD SWAP1 SWAP3 MSTORE PUSH2 0x2AA5 SWAP2 DUP2 ADD SWAP1 PUSH2 0x4131 JUMP JUMPDEST PUSH1 0x1 JUMPDEST PUSH2 0x2B54 JUMPI PUSH2 0x2AB4 PUSH2 0x414E JUMP JUMPDEST DUP1 PUSH4 0x8C379A0 SUB PUSH2 0x2AED JUMPI POP PUSH2 0x2AC8 PUSH2 0x416A JUMP JUMPDEST DUP1 PUSH2 0x2AD3 JUMPI POP PUSH2 0x2AEF JUMP JUMPDEST DUP1 PUSH1 0x40 MLOAD PUSH3 0x461BCD PUSH1 0xE5 SHL DUP2 MSTORE PUSH1 0x4 ADD PUSH2 0x6C6 SWAP2 SWAP1 PUSH2 0x316A JUMP JUMPDEST POP JUMPDEST PUSH1 0x40 MLOAD PUSH3 0x461BCD PUSH1 0xE5 SHL DUP2 MSTORE PUSH1 0x20 PUSH1 0x4 DUP3 ADD MSTORE PUSH1 0x34 PUSH1 0x24 DUP3 ADD MSTORE PUSH32 0x455243313135353A207472616E7366657220746F206E6F6E2D45524331313535 PUSH1 0x44 DUP3 ADD MSTORE PUSH20 0x2932B1B2B4BB32B91034B6B83632B6B2B73A32B9 PUSH1 0x61 SHL PUSH1 0x64 DUP3 ADD MSTORE PUSH1 0x84 ADD PUSH2 0x6C6 JUMP JUMPDEST PUSH1 0x1 PUSH1 0x1 PUSH1 0xE0 SHL SUB NOT DUP2 AND PUSH4 0xBC197C81 PUSH1 0xE0 SHL EQ PUSH2 0x142A JUMPI PUSH1 0x40 MLOAD PUSH3 0x461BCD PUSH1 0xE5 SHL DUP2 MSTORE PUSH1 0x4 ADD PUSH2 0x6C6 SWAP1 PUSH2 0x41F3 JUMP JUMPDEST PUSH1 0x40 DUP1 MLOAD PUSH1 0x1 DUP1 DUP3 MSTORE DUP2 DUP4 ADD SWAP1 SWAP3 MSTORE PUSH1 0x60 SWAP2 PUSH1 0x0 SWAP2 SWAP1 PUSH1 0x20 DUP1 DUP4 ADD SWAP1 DUP1 CALLDATASIZE DUP4 CALLDATACOPY ADD SWAP1 POP POP SWAP1 POP DUP3 DUP2 PUSH1 0x0 DUP2 MLOAD DUP2 LT PUSH2 0x2BBE JUMPI PUSH2 0x2BBE PUSH2 0x37C8 JUMP JUMPDEST PUSH1 0x20 SWAP1 DUP2 MUL SWAP2 SWAP1 SWAP2 ADD ADD MSTORE SWAP3 SWAP2 POP POP JUMP JUMPDEST PUSH1 0x60 PUSH1 0x0 PUSH2 0x2BDC DUP4 PUSH2 0x2F0A JUMP JUMPDEST PUSH1 0x1 ADD SWAP1 POP PUSH1 0x0 DUP2 PUSH1 0x1 PUSH1 0x1 PUSH1 0x40 SHL SUB DUP2 GT ISZERO PUSH2 0x2BFB JUMPI PUSH2 0x2BFB PUSH2 0x3228 JUMP JUMPDEST PUSH1 0x40 MLOAD SWAP1 DUP1 DUP3 MSTORE DUP1 PUSH1 0x1F ADD PUSH1 0x1F NOT AND PUSH1 0x20 ADD DUP3 ADD PUSH1 0x40 MSTORE DUP1 ISZERO PUSH2 0x2C25 JUMPI PUSH1 0x20 DUP3 ADD DUP2 DUP1 CALLDATASIZE DUP4 CALLDATACOPY ADD SWAP1 POP JUMPDEST POP SWAP1 POP DUP2 DUP2 ADD PUSH1 0x20 ADD JUMPDEST PUSH1 0x0 NOT ADD PUSH16 0x181899199A1A9B1B9C1CB0B131B232B3 PUSH1 0x81 SHL PUSH1 0xA DUP7 MOD BYTE DUP2 MSTORE8 PUSH1 0xA DUP6 DIV SWAP5 POP DUP5 PUSH2 0x2C2F JUMPI POP SWAP4 SWAP3 POP POP POP JUMP JUMPDEST PUSH1 0x40 DUP1 MLOAD TIMESTAMP PUSH1 0x20 DUP3 ADD MSTORE PUSH12 0xFFFFFFFFFFFFFFFFFFFFFFFF NOT CALLER PUSH1 0x60 SHL AND SWAP2 DUP2 ADD SWAP2 SWAP1 SWAP2 MSTORE PUSH1 0x54 DUP2 ADD DUP4 SWAP1 MSTORE PUSH1 0x74 DUP2 ADD DUP3 SWAP1 MSTORE PUSH1 0x0 SWAP1 DUP2 SWAP1 DUP6 SWAP1 PUSH1 0x94 ADD PUSH1 0x40 MLOAD PUSH1 0x20 DUP2 DUP4 SUB SUB DUP2 MSTORE SWAP1 PUSH1 0x40 MSTORE DUP1 MLOAD SWAP1 PUSH1 0x20 ADD KECCAK256 PUSH1 0x0 SHR PUSH2 0x2CC0 SWAP2 SWAP1 PUSH2 0x423B JUMP JUMPDEST SWAP6 SWAP5 POP POP POP POP POP JUMP JUMPDEST PUSH1 0x1 PUSH1 0x1 PUSH1 0xA0 SHL SUB DUP5 AND PUSH2 0x2D29 JUMPI PUSH1 0x40 MLOAD PUSH3 0x461BCD PUSH1 0xE5 SHL DUP2 MSTORE PUSH1 0x20 PUSH1 0x4 DUP3 ADD MSTORE PUSH1 0x21 PUSH1 0x24 DUP3 ADD MSTORE PUSH32 0x455243313135353A206D696E7420746F20746865207A65726F20616464726573 PUSH1 0x44 DUP3 ADD MSTORE PUSH1 0x73 PUSH1 0xF8 SHL PUSH1 0x64 DUP3 ADD MSTORE PUSH1 0x84 ADD PUSH2 0x6C6 JUMP JUMPDEST DUP2 MLOAD DUP4 MLOAD EQ PUSH2 0x2D4A JUMPI PUSH1 0x40 MLOAD PUSH3 0x461BCD PUSH1 0xE5 SHL DUP2 MSTORE PUSH1 0x4 ADD PUSH2 0x6C6 SWAP1 PUSH2 0x3BAF JUMP JUMPDEST CALLER PUSH1 0x0 JUMPDEST DUP5 MLOAD DUP2 LT ISZERO PUSH2 0x2DE7 JUMPI DUP4 DUP2 DUP2 MLOAD DUP2 LT PUSH2 0x2D69 JUMPI PUSH2 0x2D69 PUSH2 0x37C8 JUMP JUMPDEST PUSH1 0x20 MUL PUSH1 0x20 ADD ADD MLOAD PUSH1 0x1 PUSH1 0x0 DUP8 DUP5 DUP2 MLOAD DUP2 LT PUSH2 0x2D87 JUMPI PUSH2 0x2D87 PUSH2 0x37C8 JUMP JUMPDEST PUSH1 0x20 MUL PUSH1 0x20 ADD ADD MLOAD DUP2 MSTORE PUSH1 0x20 ADD SWAP1 DUP2 MSTORE PUSH1 0x20 ADD PUSH1 0x0 KECCAK256 PUSH1 0x0 DUP9 PUSH1 0x1 PUSH1 0x1 PUSH1 0xA0 SHL SUB AND PUSH1 0x1 PUSH1 0x1 PUSH1 0xA0 SHL SUB AND DUP2 MSTORE PUSH1 0x20 ADD SWAP1 DUP2 MSTORE PUSH1 0x20 ADD PUSH1 0x0 KECCAK256 PUSH1 0x0 DUP3 DUP3 SLOAD PUSH2 0x2DCF SWAP2 SWAP1 PUSH2 0x3938 JUMP JUMPDEST SWAP1 SWAP2 SSTORE POP DUP2 SWAP1 POP PUSH2 0x2DDF DUP2 PUSH2 0x37AF JUMP JUMPDEST SWAP2 POP POP PUSH2 0x2D4E JUMP JUMPDEST POP DUP5 PUSH1 0x1 PUSH1 0x1 PUSH1 0xA0 SHL SUB AND PUSH1 0x0 PUSH1 0x1 PUSH1 0x1 PUSH1 0xA0 SHL SUB AND DUP3 PUSH1 0x1 PUSH1 0x1 PUSH1 0xA0 SHL SUB AND PUSH32 0x4A39DC06D4C0DBC64B70AF90FD698A233A518AA5D07E595D983B8C0526C8F7FB DUP8 DUP8 PUSH1 0x40 MLOAD PUSH2 0x2E38 SWAP3 SWAP2 SWAP1 PUSH2 0x3C86 JUMP JUMPDEST PUSH1 0x40 MLOAD DUP1 SWAP2 SUB SWAP1 LOG4 PUSH2 0xB33 DUP2 PUSH1 0x0 DUP8 DUP8 DUP8 DUP8 PUSH2 0x2A29 JUMP JUMPDEST PUSH1 0x1 PUSH1 0x1 PUSH1 0xA0 SHL SUB DUP5 AND EXTCODESIZE ISZERO PUSH2 0x1D90 JUMPI PUSH1 0x40 MLOAD PUSH4 0xF23A6E61 PUSH1 0xE0 SHL DUP2 MSTORE PUSH1 0x1 PUSH1 0x1 PUSH1 0xA0 SHL SUB DUP6 AND SWAP1 PUSH4 0xF23A6E61 SWAP1 PUSH2 0x2E93 SWAP1 DUP10 SWAP1 DUP10 SWAP1 DUP9 SWAP1 DUP9 SWAP1 DUP9 SWAP1 PUSH1 0x4 ADD PUSH2 0x424F JUMP JUMPDEST PUSH1 0x20 PUSH1 0x40 MLOAD DUP1 DUP4 SUB DUP2 PUSH1 0x0 DUP8 GAS CALL SWAP3 POP POP POP DUP1 ISZERO PUSH2 0x2ECE JUMPI POP PUSH1 0x40 DUP1 MLOAD PUSH1 0x1F RETURNDATASIZE SWAP1 DUP2 ADD PUSH1 0x1F NOT AND DUP3 ADD SWAP1 SWAP3 MSTORE PUSH2 0x2ECB SWAP2 DUP2 ADD SWAP1 PUSH2 0x4131 JUMP JUMPDEST PUSH1 0x1 JUMPDEST PUSH2 0x2EDA JUMPI PUSH2 0x2AB4 PUSH2 0x414E JUMP JUMPDEST PUSH1 0x1 PUSH1 0x1 PUSH1 0xE0 SHL SUB NOT DUP2 AND PUSH4 0xF23A6E61 PUSH1 0xE0 SHL EQ PUSH2 0x142A JUMPI PUSH1 0x40 MLOAD PUSH3 0x461BCD PUSH1 0xE5 SHL DUP2 MSTORE PUSH1 0x4 ADD PUSH2 0x6C6 SWAP1 PUSH2 0x41F3 JUMP JUMPDEST PUSH1 0x0 DUP1 PUSH19 0x184F03E93FF9F4DAA797ED6E38ED64BF6A1F01 PUSH1 0x40 SHL DUP4 LT PUSH2 0x2F49 JUMPI PUSH19 0x184F03E93FF9F4DAA797ED6E38ED64BF6A1F01 PUSH1 0x40 SHL DUP4 DIV SWAP3 POP PUSH1 0x40 ADD JUMPDEST PUSH14 0x4EE2D6D415B85ACEF8100000000 DUP4 LT PUSH2 0x2F75 JUMPI PUSH14 0x4EE2D6D415B85ACEF8100000000 DUP4 DIV SWAP3 POP PUSH1 0x20 ADD JUMPDEST PUSH7 0x2386F26FC10000 DUP4 LT PUSH2 0x2F93 JUMPI PUSH7 0x2386F26FC10000 DUP4 DIV SWAP3 POP PUSH1 0x10 ADD JUMPDEST PUSH4 0x5F5E100 DUP4 LT PUSH2 0x2FAB JUMPI PUSH4 0x5F5E100 DUP4 DIV SWAP3 POP PUSH1 0x8 ADD JUMPDEST PUSH2 0x2710 DUP4 LT PUSH2 0x2FBF JUMPI PUSH2 0x2710 DUP4 DIV SWAP3 POP PUSH1 0x4 ADD JUMPDEST PUSH1 0x64 DUP4 LT PUSH2 0x2FD1 JUMPI PUSH1 0x64 DUP4 DIV SWAP3 POP PUSH1 0x2 ADD JUMPDEST PUSH1 0xA DUP4 LT PUSH2 0x6F4 JUMPI PUSH1 0x1 ADD SWAP3 SWAP2 POP POP JUMP JUMPDEST PUSH1 0x40 MLOAD DUP1 PUSH2 0x120 ADD PUSH1 0x40 MSTORE DUP1 PUSH1 0x0 DUP2 MSTORE PUSH1 0x20 ADD PUSH1 0x0 DUP2 MSTORE PUSH1 0x20 ADD PUSH1 0x0 DUP2 MSTORE PUSH1 0x20 ADD PUSH1 0x0 PUSH1 0x1 PUSH1 0x1 PUSH1 0xA0 SHL SUB AND DUP2 MSTORE PUSH1 0x20 ADD PUSH1 0x0 DUP2 MSTORE PUSH1 0x20 ADD PUSH1 0x0 DUP2 MSTORE PUSH1 0x20 ADD PUSH1 0x0 DUP2 MSTORE PUSH1 0x20 ADD PUSH1 0x0 ISZERO ISZERO DUP2 MSTORE PUSH1 0x20 ADD PUSH1 0x0 ISZERO ISZERO DUP2 MSTORE POP SWAP1 JUMP JUMPDEST PUSH1 0x0 PUSH1 0x20 DUP3 DUP5 SUB SLT ISZERO PUSH2 0x304D JUMPI PUSH1 0x0 DUP1 REVERT JUMPDEST POP CALLDATALOAD SWAP2 SWAP1 POP JUMP JUMPDEST PUSH1 0x20 DUP1 DUP3 MSTORE DUP3 MLOAD DUP3 DUP3 ADD DUP2 SWAP1 MSTORE PUSH1 0x0 SWAP2 SWAP1 DUP5 DUP3 ADD SWAP1 PUSH1 0x40 DUP6 ADD SWAP1 DUP5 JUMPDEST DUP2 DUP2 LT ISZERO PUSH2 0x3095 JUMPI DUP4 MLOAD PUSH1 0x1 PUSH1 0x1 PUSH1 0xA0 SHL SUB AND DUP4 MSTORE SWAP3 DUP5 ADD SWAP3 SWAP2 DUP5 ADD SWAP2 PUSH1 0x1 ADD PUSH2 0x3070 JUMP JUMPDEST POP SWAP1 SWAP7 SWAP6 POP POP POP POP POP POP JUMP JUMPDEST DUP1 CALLDATALOAD PUSH1 0x1 PUSH1 0x1 PUSH1 0xA0 SHL SUB DUP2 AND DUP2 EQ PUSH2 0x30B8 JUMPI PUSH1 0x0 DUP1 REVERT JUMPDEST SWAP2 SWAP1 POP JUMP JUMPDEST PUSH1 0x0 DUP1 PUSH1 0x40 DUP4 DUP6 SUB SLT ISZERO PUSH2 0x30D0 JUMPI PUSH1 0x0 DUP1 REVERT JUMPDEST PUSH2 0x30D9 DUP4 PUSH2 0x30A1 JUMP JUMPDEST SWAP5 PUSH1 0x20 SWAP4 SWAP1 SWAP4 ADD CALLDATALOAD SWAP4 POP POP POP JUMP JUMPDEST PUSH1 0x1 PUSH1 0x1 PUSH1 0xE0 SHL SUB NOT DUP2 AND DUP2 EQ PUSH2 0x170B JUMPI PUSH1 0x0 DUP1 REVERT JUMPDEST PUSH1 0x0 PUSH1 0x20 DUP3 DUP5 SUB SLT ISZERO PUSH2 0x310F JUMPI PUSH1 0x0 DUP1 REVERT JUMPDEST DUP2 CALLDATALOAD PUSH2 0x28BC DUP2 PUSH2 0x30E7 JUMP JUMPDEST PUSH1 0x0 JUMPDEST DUP4 DUP2 LT ISZERO PUSH2 0x3135 JUMPI DUP2 DUP2 ADD MLOAD DUP4 DUP3 ADD MSTORE PUSH1 0x20 ADD PUSH2 0x311D JUMP JUMPDEST POP POP PUSH1 0x0 SWAP2 ADD MSTORE JUMP JUMPDEST PUSH1 0x0 DUP2 MLOAD DUP1 DUP5 MSTORE PUSH2 0x3156 DUP2 PUSH1 0x20 DUP7 ADD PUSH1 0x20 DUP7 ADD PUSH2 0x311A JUMP JUMPDEST PUSH1 0x1F ADD PUSH1 0x1F NOT AND SWAP3 SWAP1 SWAP3 ADD PUSH1 0x20 ADD SWAP3 SWAP2 POP POP JUMP JUMPDEST PUSH1 0x20 DUP2 MSTORE PUSH1 0x0 PUSH2 0x28BC PUSH1 0x20 DUP4 ADD DUP5 PUSH2 0x313E JUMP JUMPDEST DUP1 MLOAD DUP3 MSTORE PUSH1 0x20 DUP2 ADD MLOAD PUSH1 0x20 DUP4 ADD MSTORE PUSH1 0x40 DUP2 ADD MLOAD PUSH1 0x40 DUP4 ADD MSTORE PUSH1 0x1 DUP1 PUSH1 0xA0 SHL SUB PUSH1 0x60 DUP3 ADD MLOAD AND PUSH1 0x60 DUP4 ADD MSTORE PUSH1 0x80 DUP2 ADD MLOAD PUSH1 0x80 DUP4 ADD MSTORE PUSH1 0xA0 DUP2 ADD MLOAD PUSH1 0xA0 DUP4 ADD MSTORE PUSH1 0xC0 DUP2 ADD MLOAD PUSH1 0xC0 DUP4 ADD MSTORE PUSH1 0xE0 DUP2 ADD MLOAD ISZERO ISZERO PUSH1 0xE0 DUP4 ADD MSTORE PUSH2 0x100 DUP1 DUP3 ADD MLOAD PUSH2 0x1F21 DUP3 DUP6 ADD DUP3 ISZERO ISZERO SWAP1 MSTORE JUMP JUMPDEST PUSH1 0x20 DUP1 DUP3 MSTORE DUP3 MLOAD DUP3 DUP3 ADD DUP2 SWAP1 MSTORE PUSH1 0x0 SWAP2 SWAP1 DUP5 DUP3 ADD SWAP1 PUSH1 0x40 DUP6 ADD SWAP1 DUP5 JUMPDEST DUP2 DUP2 LT ISZERO PUSH2 0x3095 JUMPI PUSH2 0x3214 DUP4 DUP6 MLOAD PUSH2 0x317D JUMP JUMPDEST SWAP3 DUP5 ADD SWAP3 PUSH2 0x120 SWAP3 SWAP1 SWAP3 ADD SWAP2 PUSH1 0x1 ADD PUSH2 0x3201 JUMP JUMPDEST PUSH4 0x4E487B71 PUSH1 0xE0 SHL PUSH1 0x0 MSTORE PUSH1 0x41 PUSH1 0x4 MSTORE PUSH1 0x24 PUSH1 0x0 REVERT JUMPDEST PUSH1 0x1F DUP3 ADD PUSH1 0x1F NOT AND DUP2 ADD PUSH1 0x1 PUSH1 0x1 PUSH1 0x40 SHL SUB DUP2 GT DUP3 DUP3 LT OR ISZERO PUSH2 0x3263 JUMPI PUSH2 0x3263 PUSH2 0x3228 JUMP JUMPDEST PUSH1 0x40 MSTORE POP POP JUMP JUMPDEST PUSH1 0x40 MLOAD PUSH2 0x160 DUP2 ADD PUSH1 0x1 PUSH1 0x1 PUSH1 0x40 SHL SUB DUP2 GT DUP3 DUP3 LT OR ISZERO PUSH2 0x328D JUMPI PUSH2 0x328D PUSH2 0x3228 JUMP JUMPDEST PUSH1 0x40 MSTORE SWAP1 JUMP JUMPDEST PUSH1 0x0 PUSH1 0x1 PUSH1 0x1 PUSH1 0x40 SHL SUB DUP3 GT ISZERO PUSH2 0x32AC JUMPI PUSH2 0x32AC PUSH2 0x3228 JUMP JUMPDEST POP PUSH1 0x5 SHL PUSH1 0x20 ADD SWAP1 JUMP JUMPDEST PUSH1 0x0 DUP3 PUSH1 0x1F DUP4 ADD SLT PUSH2 0x32C7 JUMPI PUSH1 0x0 DUP1 REVERT JUMPDEST DUP2 CALLDATALOAD PUSH1 0x20 PUSH2 0x32D4 DUP3 PUSH2 0x3293 JUMP JUMPDEST PUSH1 0x40 MLOAD PUSH2 0x32E1 DUP3 DUP3 PUSH2 0x323E JUMP JUMPDEST DUP4 DUP2 MSTORE PUSH1 0x5 SWAP4 SWAP1 SWAP4 SHL DUP6 ADD DUP3 ADD SWAP3 DUP3 DUP2 ADD SWAP2 POP DUP7 DUP5 GT ISZERO PUSH2 0x3301 JUMPI PUSH1 0x0 DUP1 REVERT JUMPDEST DUP3 DUP7 ADD JUMPDEST DUP5 DUP2 LT ISZERO PUSH2 0x331C JUMPI DUP1 CALLDATALOAD DUP4 MSTORE SWAP2 DUP4 ADD SWAP2 DUP4 ADD PUSH2 0x3305 JUMP JUMPDEST POP SWAP7 SWAP6 POP POP POP POP POP POP JUMP JUMPDEST PUSH1 0x0 DUP3 PUSH1 0x1F DUP4 ADD SLT PUSH2 0x3338 JUMPI PUSH1 0x0 DUP1 REVERT JUMPDEST DUP2 CALLDATALOAD PUSH1 0x1 PUSH1 0x1 PUSH1 0x40 SHL SUB DUP2 GT ISZERO PUSH2 0x3351 JUMPI PUSH2 0x3351 PUSH2 0x3228 JUMP JUMPDEST PUSH1 0x40 MLOAD PUSH2 0x3368 PUSH1 0x1F DUP4 ADD PUSH1 0x1F NOT AND PUSH1 0x20 ADD DUP3 PUSH2 0x323E JUMP JUMPDEST DUP2 DUP2 MSTORE DUP5 PUSH1 0x20 DUP4 DUP7 ADD ADD GT ISZERO PUSH2 0x337D JUMPI PUSH1 0x0 DUP1 REVERT JUMPDEST DUP2 PUSH1 0x20 DUP6 ADD PUSH1 0x20 DUP4 ADD CALLDATACOPY PUSH1 0x0 SWAP2 DUP2 ADD PUSH1 0x20 ADD SWAP2 SWAP1 SWAP2 MSTORE SWAP4 SWAP3 POP POP POP JUMP JUMPDEST PUSH1 0x0 DUP1 PUSH1 0x0 DUP1 PUSH1 0x0 PUSH1 0xA0 DUP7 DUP9 SUB SLT ISZERO PUSH2 0x33B2 JUMPI PUSH1 0x0 DUP1 REVERT JUMPDEST PUSH2 0x33BB DUP7 PUSH2 0x30A1 JUMP JUMPDEST SWAP5 POP PUSH2 0x33C9 PUSH1 0x20 DUP8 ADD PUSH2 0x30A1 JUMP JUMPDEST SWAP4 POP PUSH1 0x40 DUP7 ADD CALLDATALOAD PUSH1 0x1 PUSH1 0x1 PUSH1 0x40 SHL SUB DUP1 DUP3 GT ISZERO PUSH2 0x33E5 JUMPI PUSH1 0x0 DUP1 REVERT JUMPDEST PUSH2 0x33F1 DUP10 DUP4 DUP11 ADD PUSH2 0x32B6 JUMP JUMPDEST SWAP5 POP PUSH1 0x60 DUP9 ADD CALLDATALOAD SWAP2 POP DUP1 DUP3 GT ISZERO PUSH2 0x3407 JUMPI PUSH1 0x0 DUP1 REVERT JUMPDEST PUSH2 0x3413 DUP10 DUP4 DUP11 ADD PUSH2 0x32B6 JUMP JUMPDEST SWAP4 POP PUSH1 0x80 DUP9 ADD CALLDATALOAD SWAP2 POP DUP1 DUP3 GT ISZERO PUSH2 0x3429 JUMPI PUSH1 0x0 DUP1 REVERT JUMPDEST POP PUSH2 0x3436 DUP9 DUP3 DUP10 ADD PUSH2 0x3327 JUMP JUMPDEST SWAP2 POP POP SWAP3 SWAP6 POP SWAP3 SWAP6 SWAP1 SWAP4 POP JUMP JUMPDEST PUSH1 0x0 PUSH2 0x1C0 DUP1 DUP4 MSTORE PUSH2 0x3457 DUP2 DUP5 ADD DUP11 PUSH2 0x313E JUMP JUMPDEST SWAP1 POP DUP3 DUP2 SUB PUSH1 0x20 DUP5 ADD MSTORE PUSH2 0x346B DUP2 DUP10 PUSH2 0x313E JUMP JUMPDEST SWAP1 POP DUP3 DUP2 SUB PUSH1 0x40 DUP5 ADD MSTORE PUSH2 0x347F DUP2 DUP9 PUSH2 0x313E JUMP JUMPDEST SWAP1 POP DUP3 DUP2 SUB PUSH1 0x60 DUP5 ADD MSTORE PUSH2 0x3493 DUP2 DUP8 PUSH2 0x313E JUMP JUMPDEST SWAP1 POP DUP3 DUP2 SUB PUSH1 0x80 DUP5 ADD MSTORE PUSH2 0x34A7 DUP2 DUP7 PUSH2 0x313E JUMP JUMPDEST SWAP2 POP POP PUSH2 0x34B7 PUSH1 0xA0 DUP4 ADD DUP5 PUSH2 0x317D JUMP JUMPDEST SWAP8 SWAP7 POP POP POP POP POP POP POP JUMP JUMPDEST PUSH1 0x0 DUP1 PUSH1 0x40 DUP4 DUP6 SUB SLT ISZERO PUSH2 0x34D5 JUMPI PUSH1 0x0 DUP1 REVERT JUMPDEST DUP3 CALLDATALOAD PUSH1 0x1 PUSH1 0x1 PUSH1 0x40 SHL SUB DUP1 DUP3 GT ISZERO PUSH2 0x34EC JUMPI PUSH1 0x0 DUP1 REVERT JUMPDEST DUP2 DUP6 ADD SWAP2 POP DUP6 PUSH1 0x1F DUP4 ADD SLT PUSH2 0x3500 JUMPI PUSH1 0x0 DUP1 REVERT JUMPDEST DUP2 CALLDATALOAD PUSH1 0x20 PUSH2 0x350D DUP3 PUSH2 0x3293 JUMP JUMPDEST PUSH1 0x40 MLOAD PUSH2 0x351A DUP3 DUP3 PUSH2 0x323E JUMP JUMPDEST DUP4 DUP2 MSTORE PUSH1 0x5 SWAP4 SWAP1 SWAP4 SHL DUP6 ADD DUP3 ADD SWAP3 DUP3 DUP2 ADD SWAP2 POP DUP10 DUP5 GT ISZERO PUSH2 0x353A JUMPI PUSH1 0x0 DUP1 REVERT JUMPDEST SWAP5 DUP3 ADD SWAP5 JUMPDEST DUP4 DUP7 LT ISZERO PUSH2 0x355F JUMPI PUSH2 0x3550 DUP7 PUSH2 0x30A1 JUMP JUMPDEST DUP3 MSTORE SWAP5 DUP3 ADD SWAP5 SWAP1 DUP3 ADD SWAP1 PUSH2 0x353F JUMP JUMPDEST SWAP7 POP POP DUP7 ADD CALLDATALOAD SWAP3 POP POP DUP1 DUP3 GT ISZERO PUSH2 0x3575 JUMPI PUSH1 0x0 DUP1 REVERT JUMPDEST POP PUSH2 0x3582 DUP6 DUP3 DUP7 ADD PUSH2 0x32B6 JUMP JUMPDEST SWAP2 POP POP SWAP3 POP SWAP3 SWAP1 POP JUMP JUMPDEST PUSH1 0x0 DUP2 MLOAD DUP1 DUP5 MSTORE PUSH1 0x20 DUP1 DUP6 ADD SWAP5 POP DUP1 DUP5 ADD PUSH1 0x0 JUMPDEST DUP4 DUP2 LT ISZERO PUSH2 0x35BC JUMPI DUP2 MLOAD DUP8 MSTORE SWAP6 DUP3 ADD SWAP6 SWAP1 DUP3 ADD SWAP1 PUSH1 0x1 ADD PUSH2 0x35A0 JUMP JUMPDEST POP SWAP5 SWAP6 SWAP5 POP POP POP POP POP JUMP JUMPDEST PUSH1 0x20 DUP2 MSTORE PUSH1 0x0 PUSH2 0x28BC PUSH1 0x20 DUP4 ADD DUP5 PUSH2 0x358C JUMP JUMPDEST PUSH1 0x0 DUP1 PUSH1 0x0 PUSH1 0x60 DUP5 DUP7 SUB SLT ISZERO PUSH2 0x35EF JUMPI PUSH1 0x0 DUP1 REVERT JUMPDEST PUSH2 0x35F8 DUP5 PUSH2 0x30A1 JUMP JUMPDEST SWAP3 POP PUSH1 0x20 DUP5 ADD CALLDATALOAD PUSH1 0x1 PUSH1 0x1 PUSH1 0x40 SHL SUB DUP1 DUP3 GT ISZERO PUSH2 0x3614 JUMPI PUSH1 0x0 DUP1 REVERT JUMPDEST PUSH2 0x3620 DUP8 DUP4 DUP9 ADD PUSH2 0x32B6 JUMP JUMPDEST SWAP4 POP PUSH1 0x40 DUP7 ADD CALLDATALOAD SWAP2 POP DUP1 DUP3 GT ISZERO PUSH2 0x3636 JUMPI PUSH1 0x0 DUP1 REVERT JUMPDEST POP PUSH2 0x3643 DUP7 DUP3 DUP8 ADD PUSH2 0x32B6 JUMP JUMPDEST SWAP2 POP POP SWAP3 POP SWAP3 POP SWAP3 JUMP JUMPDEST PUSH1 0x0 DUP1 PUSH1 0x40 DUP4 DUP6 SUB SLT ISZERO PUSH2 0x3660 JUMPI PUSH1 0x0 DUP1 REVERT JUMPDEST POP POP DUP1 CALLDATALOAD SWAP3 PUSH1 0x20 SWAP1 SWAP2 ADD CALLDATALOAD SWAP2 POP JUMP JUMPDEST DUP1 ISZERO ISZERO DUP2 EQ PUSH2 0x170B JUMPI PUSH1 0x0 DUP1 REVERT JUMPDEST PUSH1 0x0 DUP1 PUSH1 0x40 DUP4 DUP6 SUB SLT ISZERO PUSH2 0x3690 JUMPI PUSH1 0x0 DUP1 REVERT JUMPDEST PUSH2 0x3699 DUP4 PUSH2 0x30A1 JUMP JUMPDEST SWAP2 POP PUSH1 0x20 DUP4 ADD CALLDATALOAD PUSH2 0x36A9 DUP2 PUSH2 0x366F JUMP JUMPDEST DUP1 SWAP2 POP POP SWAP3 POP SWAP3 SWAP1 POP JUMP JUMPDEST PUSH1 0x0 DUP1 PUSH1 0x40 DUP4 DUP6 SUB SLT ISZERO PUSH2 0x36C7 JUMPI PUSH1 0x0 DUP1 REVERT JUMPDEST PUSH2 0x36D0 DUP4 PUSH2 0x30A1 JUMP JUMPDEST SWAP2 POP PUSH2 0x36DE PUSH1 0x20 DUP5 ADD PUSH2 0x30A1 JUMP JUMPDEST SWAP1 POP SWAP3 POP SWAP3 SWAP1 POP JUMP JUMPDEST PUSH1 0x0 DUP1 PUSH1 0x0 DUP1 PUSH1 0x0 PUSH1 0xA0 DUP7 DUP9 SUB SLT ISZERO PUSH2 0x36FF JUMPI PUSH1 0x0 DUP1 REVERT JUMPDEST PUSH2 0x3708 DUP7 PUSH2 0x30A1 JUMP JUMPDEST SWAP5 POP PUSH2 0x3716 PUSH1 0x20 DUP8 ADD PUSH2 0x30A1 JUMP JUMPDEST SWAP4 POP PUSH1 0x40 DUP7 ADD CALLDATALOAD SWAP3 POP PUSH1 0x60 DUP7 ADD CALLDATALOAD SWAP2 POP PUSH1 0x80 DUP7 ADD CALLDATALOAD PUSH1 0x1 PUSH1 0x1 PUSH1 0x40 SHL SUB DUP2 GT ISZERO PUSH2 0x373F JUMPI PUSH1 0x0 DUP1 REVERT JUMPDEST PUSH2 0x3436 DUP9 DUP3 DUP10 ADD PUSH2 0x3327 JUMP JUMPDEST PUSH1 0x0 PUSH1 0x20 DUP3 DUP5 SUB SLT ISZERO PUSH2 0x375D JUMPI PUSH1 0x0 DUP1 REVERT JUMPDEST PUSH2 0x28BC DUP3 PUSH2 0x30A1 JUMP JUMPDEST PUSH1 0x0 DUP1 PUSH1 0x0 PUSH1 0x60 DUP5 DUP7 SUB SLT ISZERO PUSH2 0x377B JUMPI PUSH1 0x0 DUP1 REVERT JUMPDEST PUSH2 0x3784 DUP5 PUSH2 0x30A1 JUMP JUMPDEST SWAP6 PUSH1 0x20 DUP6 ADD CALLDATALOAD SWAP6 POP PUSH1 0x40 SWAP1 SWAP5 ADD CALLDATALOAD SWAP4 SWAP3 POP POP POP JUMP JUMPDEST PUSH4 0x4E487B71 PUSH1 0xE0 SHL PUSH1 0x0 MSTORE PUSH1 0x11 PUSH1 0x4 MSTORE PUSH1 0x24 PUSH1 0x0 REVERT JUMPDEST PUSH1 0x0 PUSH1 0x1 DUP3 ADD PUSH2 0x37C1 JUMPI PUSH2 0x37C1 PUSH2 0x3799 JUMP JUMPDEST POP PUSH1 0x1 ADD SWAP1 JUMP JUMPDEST PUSH4 0x4E487B71 PUSH1 0xE0 SHL PUSH1 0x0 MSTORE PUSH1 0x32 PUSH1 0x4 MSTORE PUSH1 0x24 PUSH1 0x0 REVERT JUMPDEST PUSH1 0x1 DUP2 DUP2 SHR SWAP1 DUP3 AND DUP1 PUSH2 0x37F2 JUMPI PUSH1 0x7F DUP3 AND SWAP2 POP JUMPDEST PUSH1 0x20 DUP3 LT DUP2 SUB PUSH2 0x3812 JUMPI PUSH4 0x4E487B71 PUSH1 0xE0 SHL PUSH1 0x0 MSTORE PUSH1 0x22 PUSH1 0x4 MSTORE PUSH1 0x24 PUSH1 0x0 REVERT JUMPDEST POP SWAP2 SWAP1 POP JUMP JUMPDEST DUP2 DUP2 SUB DUP2 DUP2 GT ISZERO PUSH2 0x6F4 JUMPI PUSH2 0x6F4 PUSH2 0x3799 JUMP JUMPDEST PUSH1 0x20 DUP1 DUP3 MSTORE PUSH1 0x2E SWAP1 DUP3 ADD MSTORE PUSH32 0x455243313135353A2063616C6C6572206973206E6F7420746F6B656E206F776E PUSH1 0x40 DUP3 ADD MSTORE PUSH14 0x195C881BDC88185C1C1C9BDD9959 PUSH1 0x92 SHL PUSH1 0x60 DUP3 ADD MSTORE PUSH1 0x80 ADD SWAP1 JUMP JUMPDEST DUP1 MLOAD PUSH2 0x30B8 DUP2 PUSH2 0x366F JUMP JUMPDEST PUSH1 0x0 PUSH2 0x160 DUP3 DUP5 SUB SLT ISZERO PUSH2 0x3897 JUMPI PUSH1 0x0 DUP1 REVERT JUMPDEST PUSH2 0x389F PUSH2 0x326A JUMP JUMPDEST DUP3 MLOAD DUP2 MSTORE PUSH1 0x20 DUP4 ADD MLOAD PUSH1 0x20 DUP3 ADD MSTORE PUSH1 0x40 DUP4 ADD MLOAD PUSH1 0x40 DUP3 ADD MSTORE PUSH1 0x60 DUP4 ADD MLOAD PUSH1 0x60 DUP3 ADD MSTORE PUSH1 0x80 DUP4 ADD MLOAD PUSH1 0x80 DUP3 ADD MSTORE PUSH1 0xA0 DUP4 ADD MLOAD PUSH1 0xA0 DUP3 ADD MSTORE PUSH1 0xC0 DUP4 ADD MLOAD PUSH1 0xC0 DUP3 ADD MSTORE PUSH2 0x38EB PUSH1 0xE0 DUP5 ADD PUSH2 0x3879 JUMP JUMPDEST PUSH1 0xE0 DUP3 ADD MSTORE PUSH2 0x100 PUSH2 0x38FE DUP2 DUP6 ADD PUSH2 0x3879 JUMP JUMPDEST SWAP1 DUP3 ADD MSTORE PUSH2 0x120 DUP4 DUP2 ADD MLOAD SWAP1 DUP3 ADD MSTORE PUSH2 0x140 SWAP3 DUP4 ADD MLOAD SWAP3 DUP2 ADD SWAP3 SWAP1 SWAP3 MSTORE POP SWAP2 SWAP1 POP JUMP JUMPDEST DUP1 DUP3 MUL DUP2 ISZERO DUP3 DUP3 DIV DUP5 EQ OR PUSH2 0x6F4 JUMPI PUSH2 0x6F4 PUSH2 0x3799 JUMP JUMPDEST DUP1 DUP3 ADD DUP1 DUP3 GT ISZERO PUSH2 0x6F4 JUMPI PUSH2 0x6F4 PUSH2 0x3799 JUMP JUMPDEST PUSH1 0x0 PUSH2 0x160 DUP3 ADD SWAP1 POP DUP3 MLOAD DUP3 MSTORE PUSH1 0x20 DUP4 ADD MLOAD PUSH1 0x20 DUP4 ADD MSTORE PUSH1 0x40 DUP4 ADD MLOAD PUSH1 0x40 DUP4 ADD MSTORE PUSH1 0x60 DUP4 ADD MLOAD PUSH1 0x60 DUP4 ADD MSTORE PUSH1 0x80 DUP4 ADD MLOAD PUSH1 0x80 DUP4 ADD MSTORE PUSH1 0xA0 DUP4 ADD MLOAD PUSH1 0xA0 DUP4 ADD MSTORE PUSH1 0xC0 DUP4 ADD MLOAD PUSH1 0xC0 DUP4 ADD MSTORE PUSH1 0xE0 DUP4 ADD MLOAD PUSH2 0x39A7 PUSH1 0xE0 DUP5 ADD DUP3 ISZERO ISZERO SWAP1 MSTORE JUMP JUMPDEST POP PUSH2 0x100 DUP4 DUP2 ADD MLOAD ISZERO ISZERO SWAP1 DUP4 ADD MSTORE PUSH2 0x120 DUP1 DUP5 ADD MLOAD SWAP1 DUP4 ADD MSTORE PUSH2 0x140 SWAP3 DUP4 ADD MLOAD SWAP3 SWAP1 SWAP2 ADD SWAP2 SWAP1 SWAP2 MSTORE SWAP1 JUMP JUMPDEST PUSH1 0x0 DUP2 MLOAD PUSH2 0x39E4 DUP2 DUP6 PUSH1 0x20 DUP7 ADD PUSH2 0x311A JUMP JUMPDEST SWAP3 SWAP1 SWAP3 ADD SWAP3 SWAP2 POP POP JUMP JUMPDEST PUSH9 0x3D913730B6B2911D11 PUSH1 0xB9 SHL DUP2 MSTORE DUP6 MLOAD PUSH1 0x0 SWAP1 PUSH2 0x3A13 DUP2 PUSH1 0x9 DUP6 ADD PUSH1 0x20 DUP12 ADD PUSH2 0x311A JUMP JUMPDEST PUSH18 0x111610113232B9B1B934B83A34B7B7111D11 PUSH1 0x71 SHL PUSH1 0x9 SWAP2 DUP5 ADD SWAP2 DUP3 ADD MSTORE DUP7 MLOAD PUSH2 0x3A45 DUP2 PUSH1 0x1B DUP5 ADD PUSH1 0x20 DUP12 ADD PUSH2 0x311A JUMP JUMPDEST PUSH13 0x1116101134B6B0B3B2911D1011 PUSH1 0x99 SHL PUSH1 0x1B SWAP3 SWAP1 SWAP2 ADD SWAP2 DUP3 ADD MSTORE PUSH32 0x646174613A696D6167652F7376672B786D6C3B6261736536342C000000000000 PUSH1 0x28 DUP3 ADD MSTORE DUP6 MLOAD PUSH2 0x3A99 DUP2 PUSH1 0x42 DUP5 ADD PUSH1 0x20 DUP11 ADD PUSH2 0x311A JUMP JUMPDEST PUSH32 0x222C202261747472696275746573223A205B7B2274726169745F74797065223A PUSH1 0x42 SWAP3 SWAP1 SWAP2 ADD SWAP2 DUP3 ADD MSTORE PUSH32 0x20224261636B67726F756E6420487565222C202276616C7565223A2022000000 PUSH1 0x62 DUP3 ADD MSTORE DUP5 MLOAD PUSH2 0x3AFD DUP2 PUSH1 0x7F DUP5 ADD PUSH1 0x20 DUP10 ADD PUSH2 0x311A JUMP JUMPDEST PUSH2 0x3B5D PUSH2 0x3B4D PUSH2 0x3B47 PUSH1 0x7F DUP5 DUP7 ADD ADD PUSH32 0x227D2C207B2274726169745F74797065223A20225465787420487565222C2022 DUP2 MSTORE PUSH9 0x3B30B63AB2911D1011 PUSH1 0xB9 SHL PUSH1 0x20 DUP3 ADD MSTORE PUSH1 0x29 ADD SWAP1 JUMP JUMPDEST DUP8 PUSH2 0x39D2 JUMP JUMPDEST PUSH4 0x227D5D7D PUSH1 0xE0 SHL DUP2 MSTORE PUSH1 0x4 ADD SWAP1 JUMP JUMPDEST SWAP10 SWAP9 POP POP POP POP POP POP POP POP POP JUMP JUMPDEST PUSH32 0x646174613A6170706C69636174696F6E2F6A736F6E3B6261736536342C000000 DUP2 MSTORE PUSH1 0x0 DUP3 MLOAD PUSH2 0x3BA2 DUP2 PUSH1 0x1D DUP6 ADD PUSH1 0x20 DUP8 ADD PUSH2 0x311A JUMP JUMPDEST SWAP2 SWAP1 SWAP2 ADD PUSH1 0x1D ADD SWAP3 SWAP2 POP POP JUMP JUMPDEST PUSH1 0x20 DUP1 DUP3 MSTORE PUSH1 0x28 SWAP1 DUP3 ADD MSTORE PUSH32 0x455243313135353A2069647320616E6420616D6F756E7473206C656E67746820 PUSH1 0x40 DUP3 ADD MSTORE PUSH8 0xDAD2E6DAC2E8C6D PUSH1 0xC3 SHL PUSH1 0x60 DUP3 ADD MSTORE PUSH1 0x80 ADD SWAP1 JUMP JUMPDEST PUSH1 0x20 DUP1 DUP3 MSTORE PUSH1 0x25 SWAP1 DUP3 ADD MSTORE PUSH32 0x455243313135353A207472616E7366657220746F20746865207A65726F206164 PUSH1 0x40 DUP3 ADD MSTORE PUSH5 0x6472657373 PUSH1 0xD8 SHL PUSH1 0x60 DUP3 ADD MSTORE PUSH1 0x80 ADD SWAP1 JUMP JUMPDEST PUSH1 0x20 DUP1 DUP3 MSTORE PUSH1 0x2A SWAP1 DUP3 ADD MSTORE PUSH32 0x455243313135353A20696E73756666696369656E742062616C616E636520666F PUSH1 0x40 DUP3 ADD MSTORE PUSH10 0x39103A3930B739B332B9 PUSH1 0xB1 SHL PUSH1 0x60 DUP3 ADD MSTORE PUSH1 0x80 ADD SWAP1 JUMP JUMPDEST PUSH1 0x40 DUP2 MSTORE PUSH1 0x0 PUSH2 0x3C99 PUSH1 0x40 DUP4 ADD DUP6 PUSH2 0x358C JUMP JUMPDEST DUP3 DUP2 SUB PUSH1 0x20 DUP5 ADD MSTORE PUSH2 0x2CC0 DUP2 DUP6 PUSH2 0x358C JUMP JUMPDEST PUSH1 0x20 DUP1 DUP3 MSTORE PUSH1 0x23 SWAP1 DUP3 ADD MSTORE PUSH32 0x455243313135353A206275726E2066726F6D20746865207A65726F2061646472 PUSH1 0x40 DUP3 ADD MSTORE PUSH3 0x657373 PUSH1 0xE8 SHL PUSH1 0x60 DUP3 ADD MSTORE PUSH1 0x80 ADD SWAP1 JUMP JUMPDEST PUSH1 0x20 DUP1 DUP3 MSTORE PUSH1 0x24 SWAP1 DUP3 ADD MSTORE PUSH32 0x455243313135353A206275726E20616D6F756E7420657863656564732062616C PUSH1 0x40 DUP3 ADD MSTORE PUSH4 0x616E6365 PUSH1 0xE0 SHL PUSH1 0x60 DUP3 ADD MSTORE PUSH1 0x80 ADD SWAP1 JUMP JUMPDEST PUSH1 0x0 DUP1 DUP5 SLOAD PUSH2 0x3D40 DUP2 PUSH2 0x37DE JUMP JUMPDEST PUSH1 0x1 DUP3 DUP2 AND DUP1 ISZERO PUSH2 0x3D58 JUMPI PUSH1 0x1 DUP2 EQ PUSH2 0x3D6D JUMPI PUSH2 0x3D9C JUMP JUMPDEST PUSH1 0xFF NOT DUP5 AND DUP8 MSTORE DUP3 ISZERO ISZERO DUP4 MUL DUP8 ADD SWAP5 POP PUSH2 0x3D9C JUMP JUMPDEST DUP9 PUSH1 0x0 MSTORE PUSH1 0x20 DUP1 PUSH1 0x0 KECCAK256 PUSH1 0x0 JUMPDEST DUP6 DUP2 LT ISZERO PUSH2 0x3D93 JUMPI DUP2 SLOAD DUP11 DUP3 ADD MSTORE SWAP1 DUP5 ADD SWAP1 DUP3 ADD PUSH2 0x3D7A JUMP JUMPDEST POP POP POP DUP3 DUP8 ADD SWAP5 POP JUMPDEST POP POP POP POP PUSH2 0x2023 PUSH1 0xF0 SHL DUP2 MSTORE DUP4 MLOAD PUSH2 0x3DBB DUP2 PUSH1 0x2 DUP5 ADD PUSH1 0x20 DUP9 ADD PUSH2 0x311A JUMP JUMPDEST ADD PUSH1 0x2 ADD SWAP5 SWAP4 POP POP POP POP JUMP JUMPDEST PUSH1 0x1F DUP3 GT ISZERO PUSH2 0xFF7 JUMPI PUSH1 0x0 DUP2 DUP2 MSTORE PUSH1 0x20 DUP2 KECCAK256 PUSH1 0x1F DUP6 ADD PUSH1 0x5 SHR DUP2 ADD PUSH1 0x20 DUP7 LT ISZERO PUSH2 0x3DEE JUMPI POP DUP1 JUMPDEST PUSH1 0x1F DUP6 ADD PUSH1 0x5 SHR DUP3 ADD SWAP2 POP JUMPDEST DUP2 DUP2 LT ISZERO PUSH2 0x1D90 JUMPI DUP3 DUP2 SSTORE PUSH1 0x1 ADD PUSH2 0x3DFA JUMP JUMPDEST DUP2 MLOAD PUSH1 0x1 PUSH1 0x1 PUSH1 0x40 SHL SUB DUP2 GT ISZERO PUSH2 0x3E26 JUMPI PUSH2 0x3E26 PUSH2 0x3228 JUMP JUMPDEST PUSH2 0x3E3A DUP2 PUSH2 0x3E34 DUP5 SLOAD PUSH2 0x37DE JUMP JUMPDEST DUP5 PUSH2 0x3DC7 JUMP JUMPDEST PUSH1 0x20 DUP1 PUSH1 0x1F DUP4 GT PUSH1 0x1 DUP2 EQ PUSH2 0x3E6F JUMPI PUSH1 0x0 DUP5 ISZERO PUSH2 0x3E57 JUMPI POP DUP6 DUP4 ADD MLOAD JUMPDEST PUSH1 0x0 NOT PUSH1 0x3 DUP7 SWAP1 SHL SHR NOT AND PUSH1 0x1 DUP6 SWAP1 SHL OR DUP6 SSTORE PUSH2 0x1D90 JUMP JUMPDEST PUSH1 0x0 DUP6 DUP2 MSTORE PUSH1 0x20 DUP2 KECCAK256 PUSH1 0x1F NOT DUP7 AND SWAP2 JUMPDEST DUP3 DUP2 LT ISZERO PUSH2 0x3E9E JUMPI DUP9 DUP7 ADD MLOAD DUP3 SSTORE SWAP5 DUP5 ADD SWAP5 PUSH1 0x1 SWAP1 SWAP2 ADD SWAP1 DUP5 ADD PUSH2 0x3E7F JUMP JUMPDEST POP DUP6 DUP3 LT ISZERO PUSH2 0x3EBC JUMPI DUP8 DUP6 ADD MLOAD PUSH1 0x0 NOT PUSH1 0x3 DUP9 SWAP1 SHL PUSH1 0xF8 AND SHR NOT AND DUP2 SSTORE JUMPDEST POP POP POP POP POP PUSH1 0x1 SWAP1 DUP2 SHL ADD SWAP1 SSTORE POP JUMP JUMPDEST DUP1 MLOAD PUSH1 0x0 SWAP1 PUSH1 0x20 DUP1 DUP5 ADD DUP4 DUP4 ISZERO PUSH2 0x35BC JUMPI DUP2 MLOAD DUP8 MSTORE SWAP6 DUP3 ADD SWAP6 SWAP1 DUP3 ADD SWAP1 PUSH1 0x1 ADD PUSH2 0x35A0 JUMP JUMPDEST PUSH1 0x0 PUSH2 0x3F06 PUSH2 0x3F00 DUP4 DUP7 PUSH2 0x3ECC JUMP JUMPDEST DUP5 PUSH2 0x3ECC JUMP JUMPDEST SWAP5 SWAP4 POP POP POP POP JUMP JUMPDEST PUSH32 0x3C7376672077696474683D2235303022206865696768743D223530302220786D DUP2 MSTORE PUSH32 0x6C6E733D22687474703A2F2F7777772E77332E6F72672F323030302F73766722 PUSH1 0x20 DUP3 ADD MSTORE PUSH1 0x1F PUSH1 0xF9 SHL PUSH1 0x40 DUP3 ADD MSTORE PUSH32 0x3C72656374206865696768743D22353030222077696474683D22353030222066 PUSH1 0x41 DUP3 ADD MSTORE PUSH9 0xD2D8D87A44D0E6D85 PUSH1 0xBB SHL PUSH1 0x61 DUP3 ADD MSTORE PUSH1 0x0 DUP5 MLOAD PUSH2 0x3FAE DUP2 PUSH1 0x6A DUP6 ADD PUSH1 0x20 DUP10 ADD PUSH2 0x311A JUMP JUMPDEST PUSH14 0x16101A98129610191A929491179F PUSH1 0x91 SHL PUSH1 0x6A SWAP2 DUP5 ADD SWAP2 DUP3 ADD MSTORE PUSH32 0x3C7465787420783D223530252220793D223530252220646F6D696E616E742D62 PUSH1 0x78 DUP3 ADD MSTORE PUSH32 0x6173656C696E653D226D6964646C65222066696C6C3D2268736C280000000000 PUSH1 0x98 DUP3 ADD MSTORE DUP5 MLOAD PUSH2 0x4028 DUP2 PUSH1 0xB3 DUP5 ADD PUSH1 0x20 DUP10 ADD PUSH2 0x311A JUMP JUMPDEST PUSH2 0x34B7 PUSH2 0x4097 PUSH2 0x4084 PUSH2 0x407E PUSH1 0xB3 DUP6 DUP8 ADD ADD PUSH32 0x2C20313030252C20383025292220746578742D616E63686F723D226D6964646C DUP2 MSTORE PUSH18 0x3291103337B73A16B9B4BD329E911A18911F PUSH1 0x71 SHL PUSH1 0x20 DUP3 ADD MSTORE PUSH1 0x32 ADD SWAP1 JUMP JUMPDEST DUP9 PUSH2 0x39D2 JUMP JUMPDEST PUSH7 0x1E17BA32BC3A1F PUSH1 0xC9 SHL DUP2 MSTORE PUSH1 0x7 ADD SWAP1 JUMP JUMPDEST PUSH6 0x1E17B9BB339F PUSH1 0xD1 SHL DUP2 MSTORE PUSH1 0x6 ADD SWAP1 JUMP JUMPDEST PUSH4 0x4E487B71 PUSH1 0xE0 SHL PUSH1 0x0 MSTORE PUSH1 0x12 PUSH1 0x4 MSTORE PUSH1 0x24 PUSH1 0x0 REVERT JUMPDEST PUSH1 0x0 DUP3 PUSH2 0x40CE JUMPI PUSH2 0x40CE PUSH2 0x40A9 JUMP JUMPDEST POP DIV SWAP1 JUMP JUMPDEST PUSH1 0x1 PUSH1 0x1 PUSH1 0xA0 SHL SUB DUP7 DUP2 AND DUP3 MSTORE DUP6 AND PUSH1 0x20 DUP3 ADD MSTORE PUSH1 0xA0 PUSH1 0x40 DUP3 ADD DUP2 SWAP1 MSTORE PUSH1 0x0 SWAP1 PUSH2 0x40FF SWAP1 DUP4 ADD DUP7 PUSH2 0x358C JUMP JUMPDEST DUP3 DUP2 SUB PUSH1 0x60 DUP5 ADD MSTORE PUSH2 0x4111 DUP2 DUP7 PUSH2 0x358C JUMP JUMPDEST SWAP1 POP DUP3 DUP2 SUB PUSH1 0x80 DUP5 ADD MSTORE PUSH2 0x4125 DUP2 DUP6 PUSH2 0x313E JUMP JUMPDEST SWAP9 SWAP8 POP POP POP POP POP POP POP POP JUMP JUMPDEST PUSH1 0x0 PUSH1 0x20 DUP3 DUP5 SUB SLT ISZERO PUSH2 0x4143 JUMPI PUSH1 0x0 DUP1 REVERT JUMPDEST DUP2 MLOAD PUSH2 0x28BC DUP2 PUSH2 0x30E7 JUMP JUMPDEST PUSH1 0x0 PUSH1 0x3 RETURNDATASIZE GT ISZERO PUSH2 0x4167 JUMPI PUSH1 0x4 PUSH1 0x0 DUP1 RETURNDATACOPY POP PUSH1 0x0 MLOAD PUSH1 0xE0 SHR JUMPDEST SWAP1 JUMP JUMPDEST PUSH1 0x0 PUSH1 0x44 RETURNDATASIZE LT ISZERO PUSH2 0x4178 JUMPI SWAP1 JUMP JUMPDEST PUSH1 0x40 MLOAD PUSH1 0x3 NOT RETURNDATASIZE DUP2 ADD PUSH1 0x4 DUP4 RETURNDATACOPY DUP2 MLOAD RETURNDATASIZE PUSH1 0x1 PUSH1 0x1 PUSH1 0x40 SHL SUB DUP2 PUSH1 0x24 DUP5 ADD GT DUP2 DUP5 GT OR ISZERO PUSH2 0x41A7 JUMPI POP POP POP POP POP SWAP1 JUMP JUMPDEST DUP3 DUP6 ADD SWAP2 POP DUP2 MLOAD DUP2 DUP2 GT ISZERO PUSH2 0x41BF JUMPI POP POP POP POP POP POP SWAP1 JUMP JUMPDEST DUP5 RETURNDATASIZE DUP8 ADD ADD PUSH1 0x20 DUP3 DUP6 ADD ADD GT ISZERO PUSH2 0x41D9 JUMPI POP POP POP POP POP POP SWAP1 JUMP JUMPDEST PUSH2 0x41E8 PUSH1 0x20 DUP3 DUP7 ADD ADD DUP8 PUSH2 0x323E JUMP JUMPDEST POP SWAP1 SWAP6 SWAP5 POP POP POP POP POP JUMP JUMPDEST PUSH1 0x20 DUP1 DUP3 MSTORE PUSH1 0x28 SWAP1 DUP3 ADD MSTORE PUSH32 0x455243313135353A204552433131353552656365697665722072656A65637465 PUSH1 0x40 DUP3 ADD MSTORE PUSH8 0x6420746F6B656E73 PUSH1 0xC0 SHL PUSH1 0x60 DUP3 ADD MSTORE PUSH1 0x80 ADD SWAP1 JUMP JUMPDEST PUSH1 0x0 DUP3 PUSH2 0x424A JUMPI PUSH2 0x424A PUSH2 0x40A9 JUMP JUMPDEST POP MOD SWAP1 JUMP JUMPDEST PUSH1 0x1 PUSH1 0x1 PUSH1 0xA0 SHL SUB DUP7 DUP2 AND DUP3 MSTORE DUP6 AND PUSH1 0x20 DUP3 ADD MSTORE PUSH1 0x40 DUP2 ADD DUP5 SWAP1 MSTORE PUSH1 0x60 DUP2 ADD DUP4 SWAP1 MSTORE PUSH1 0xA0 PUSH1 0x80 DUP3 ADD DUP2 SWAP1 MSTORE PUSH1 0x0 SWAP1 PUSH2 0x34B7 SWAP1 DUP4 ADD DUP5 PUSH2 0x313E JUMP INVALID SLOAD PUSH9 0x657365204E46547320 PUSH2 0x7265 KECCAK256 PUSH2 0x6374 PUSH22 0x616C6C79207469636B65747320666F72204461707020 NUMBER PUSH10 0x6E656D61732E41424344 GASLIMIT CHAINID SELFBALANCE BASEFEE 0x49 0x4A 0x4B 0x4C 0x4D 0x4E 0x4F POP MLOAD MSTORE MSTORE8 SLOAD SSTORE JUMP JUMPI PC MSIZE GAS PUSH2 0x6263 PUSH5 0x6566676869 PUSH11 0x6B6C6D6E6F707172737475 PUSH23 0x7778797A303132333435363738392B2FA2646970667358 0x22 SLT KECCAK256 0xB3 EQ 0xAE PUSH1 0x3D BYTE GASLIMIT 0xF PUSH4 0xD0E25AC 0xE1 BASEFEE SUB 0xD8 0xD1 SDIV SDIV RETURN 0xE1 0xBA PUSH13 0xE1C711AB657DDB9764736F6C63 NUMBER STOP ADDMOD SGT STOP CALLER "},"methodIdentifiers":{"balance()":"b69ef8a8","balanceOf(address,uint256)":"00fdd58e","balanceOfBatch(address[],uint256[])":"4e1273f4","burn(address,uint256,uint256)":"f5298aca","burnBatch(address,uint256[],uint256[])":"6b20c454","buyTickets(uint256,uint256)":"8627df46","completeTickets(uint256)":"22c79ffb","deleteTickets(uint256)":"a70b725e","getTicketHolders(uint256)":"002a5cc9","getTickets(uint256)":"14f2979f","invalidateTickets(uint256)":"933412de","isApprovedForAll(address,address)":"e985e9c5","name()":"06fdde03","owner()":"8da5cb5b","refundTickets(uint256)":"773dd66c","renounceOwnership()":"715018a6","safeBatchTransferFrom(address,address,uint256[],uint256[],bytes)":"2eb2c2d6","safeTransferFrom(address,address,uint256,uint256,bytes)":"f242432a","setApprovalForAll(address,bool)":"a22cb465","supportsInterface(bytes4)":"01ffc9a7","symbol()":"95d89b41","ticketBuild(uint256)":"40b882cf","transferOwnership(address)":"f2fde38b","uri(uint256)":"0e89341c","withdrawTo(address,uint256)":"205c2878"}}}}}