{"contracts/DappCinemas.sol":{"DappCinemas":{"abi":[{"anonymous":false,"inputs":[{"indexed":false,"internalType":"string","name":"actionType","type":"string"}],"name":"Action","type":"event"},{"anonymous":false,"inputs":[{"indexed":true,"internalType":"address","name":"previousOwner","type":"address"},{"indexed":true,"internalType":"address","name":"newOwner","type":"address"}],"name":"OwnershipTransferred","type":"event"},{"anonymous":false,"inputs":[{"indexed":true,"internalType":"bytes32","name":"role","type":"bytes32"},{"indexed":true,"internalType":"bytes32","name":"previousAdminRole","type":"bytes32"},{"indexed":true,"internalType":"bytes32","name":"newAdminRole","type":"bytes32"}],"name":"RoleAdminChanged","type":"event"},{"anonymous":false,"inputs":[{"indexed":true,"internalType":"bytes32","name":"role","type":"bytes32"},{"indexed":true,"internalType":"address","name":"account","type":"address"},{"indexed":true,"internalType":"address","name":"sender","type":"address"}],"name":"RoleGranted","type":"event"},{"anonymous":false,"inputs":[{"indexed":true,"internalType":"bytes32","name":"role","type":"bytes32"},{"indexed":true,"internalType":"address","name":"account","type":"address"},{"indexed":true,"internalType":"address","name":"sender","type":"address"}],"name":"RoleRevoked","type":"event"},{"inputs":[],"name":"DEFAULT_ADMIN_ROLE","outputs":[{"internalType":"bytes32","name":"","type":"bytes32"}],"stateMutability":"view","type":"function"},{"inputs":[],"name":"TICKET_ROLE","outputs":[{"internalType":"bytes32","name":"","type":"bytes32"}],"stateMutability":"view","type":"function"},{"inputs":[{"internalType":"string","name":"_name","type":"string"},{"internalType":"string","name":"_banner","type":"string"},{"internalType":"string","name":"_imageUrl","type":"string"},{"internalType":"string","name":"_videoUrl","type":"string"},{"internalType":"string","name":"_genre","type":"string"},{"internalType":"string","name":"_description","type":"string"},{"internalType":"string","name":"_caption","type":"string"},{"internalType":"string","name":"_casts","type":"string"},{"internalType":"uint256","name":"_running","type":"uint256"},{"internalType":"uint256","name":"_released","type":"uint256"}],"name":"addMovie","outputs":[],"stateMutability":"nonpayable","type":"function"},{"inputs":[{"internalType":"uint256","name":"_movieId","type":"uint256"},{"internalType":"uint256","name":"_ticketCost","type":"uint256"},{"internalType":"uint256","name":"_startTime","type":"uint256"},{"internalType":"uint256","name":"_endTime","type":"uint256"},{"internalType":"uint256","name":"_capacity","type":"uint256"},{"internalType":"uint256","name":"_day","type":"uint256"}],"name":"addTimeSlot","outputs":[],"stateMutability":"nonpayable","type":"function"},{"inputs":[{"internalType":"uint256","name":"_slotId","type":"uint256"}],"name":"completeTimeSlot","outputs":[],"stateMutability":"nonpayable","type":"function"},{"inputs":[{"internalType":"uint256","name":"_movieId","type":"uint256"}],"name":"deleteMovie","outputs":[],"stateMutability":"nonpayable","type":"function"},{"inputs":[{"internalType":"uint256","name":"_slotId","type":"uint256"}],"name":"deleteTimeSlot","outputs":[],"stateMutability":"nonpayable","type":"function"},{"inputs":[{"internalType":"uint256","name":"movieId","type":"uint256"}],"name":"getMovie","outputs":[{"components":[{"internalType":"uint256","name":"id","type":"uint256"},{"internalType":"string","name":"name","type":"string"},{"internalType":"string","name":"banner","type":"string"},{"internalType":"string","name":"imageUrl","type":"string"},{"internalType":"string","name":"videoUrl","type":"string"},{"internalType":"string","name":"genre","type":"string"},{"internalType":"string","name":"description","type":"string"},{"internalType":"string","name":"caption","type":"string"},{"internalType":"string","name":"casts","type":"string"},{"internalType":"uint256","name":"running","type":"uint256"},{"internalType":"uint256","name":"released","type":"uint256"},{"internalType":"uint256","name":"timestamp","type":"uint256"},{"internalType":"bool","name":"deleted","type":"bool"}],"internalType":"struct DappCinemas.MovieStruct","name":"","type":"tuple"}],"stateMutability":"view","type":"function"},{"inputs":[],"name":"getMovies","outputs":[{"components":[{"internalType":"uint256","name":"id","type":"uint256"},{"internalType":"string","name":"name","type":"string"},{"internalType":"string","name":"banner","type":"string"},{"internalType":"string","name":"imageUrl","type":"string"},{"internalType":"string","name":"videoUrl","type":"string"},{"internalType":"string","name":"genre","type":"string"},{"internalType":"string","name":"description","type":"string"},{"internalType":"string","name":"caption","type":"string"},{"internalType":"string","name":"casts","type":"string"},{"internalType":"uint256","name":"running","type":"uint256"},{"internalType":"uint256","name":"released","type":"uint256"},{"internalType":"uint256","name":"timestamp","type":"uint256"},{"internalType":"bool","name":"deleted","type":"bool"}],"internalType":"struct DappCinemas.MovieStruct[]","name":"Movies","type":"tuple[]"}],"stateMutability":"view","type":"function"},{"inputs":[{"internalType":"bytes32","name":"role","type":"bytes32"}],"name":"getRoleAdmin","outputs":[{"internalType":"bytes32","name":"","type":"bytes32"}],"stateMutability":"view","type":"function"},{"inputs":[{"internalType":"uint256","name":"slotId","type":"uint256"}],"name":"getTimeSlot","outputs":[{"components":[{"internalType":"uint256","name":"id","type":"uint256"},{"internalType":"uint256","name":"movieId","type":"uint256"},{"internalType":"uint256","name":"ticketCost","type":"uint256"},{"internalType":"uint256","name":"startTime","type":"uint256"},{"internalType":"uint256","name":"endTime","type":"uint256"},{"internalType":"uint256","name":"capacity","type":"uint256"},{"internalType":"uint256","name":"seats","type":"uint256"},{"internalType":"bool","name":"deleted","type":"bool"},{"internalType":"bool","name":"completed","type":"bool"},{"internalType":"uint256","name":"day","type":"uint256"},{"internalType":"uint256","name":"balance","type":"uint256"}],"internalType":"struct DappCinemas.TimeSlotStruct","name":"","type":"tuple"}],"stateMutability":"view","type":"function"},{"inputs":[{"internalType":"uint256","name":"movieId","type":"uint256"}],"name":"getTimeSlots","outputs":[{"components":[{"internalType":"uint256","name":"id","type":"uint256"},{"internalType":"uint256","name":"movieId","type":"uint256"},{"internalType":"uint256","name":"ticketCost","type":"uint256"},{"internalType":"uint256","name":"startTime","type":"uint256"},{"internalType":"uint256","name":"endTime","type":"uint256"},{"internalType":"uint256","name":"capacity","type":"uint256"},{"internalType":"uint256","name":"seats","type":"uint256"},{"internalType":"bool","name":"deleted","type":"bool"},{"internalType":"bool","name":"completed","type":"bool"},{"internalType":"uint256","name":"day","type":"uint256"},{"internalType":"uint256","name":"balance","type":"uint256"}],"internalType":"struct DappCinemas.TimeSlotStruct[]","name":"MovieSlots","type":"tuple[]"}],"stateMutability":"view","type":"function"},{"inputs":[{"internalType":"uint256","name":"day","type":"uint256"}],"name":"getTimeSlotsByDay","outputs":[{"components":[{"internalType":"uint256","name":"id","type":"uint256"},{"internalType":"uint256","name":"movieId","type":"uint256"},{"internalType":"uint256","name":"ticketCost","type":"uint256"},{"internalType":"uint256","name":"startTime","type":"uint256"},{"internalType":"uint256","name":"endTime","type":"uint256"},{"internalType":"uint256","name":"capacity","type":"uint256"},{"internalType":"uint256","name":"seats","type":"uint256"},{"internalType":"bool","name":"deleted","type":"bool"},{"internalType":"bool","name":"completed","type":"bool"},{"internalType":"uint256","name":"day","type":"uint256"},{"internalType":"uint256","name":"balance","type":"uint256"}],"internalType":"struct DappCinemas.TimeSlotStruct[]","name":"MovieSlots","type":"tuple[]"}],"stateMutability":"view","type":"function"},{"inputs":[{"internalType":"address","name":"_dappTicket","type":"address"}],"name":"grantAccess","outputs":[],"stateMutability":"nonpayable","type":"function"},{"inputs":[{"internalType":"bytes32","name":"role","type":"bytes32"},{"internalType":"address","name":"account","type":"address"}],"name":"grantRole","outputs":[],"stateMutability":"nonpayable","type":"function"},{"inputs":[{"internalType":"bytes32","name":"role","type":"bytes32"},{"internalType":"address","name":"account","type":"address"}],"name":"hasRole","outputs":[{"internalType":"bool","name":"","type":"bool"}],"stateMutability":"view","type":"function"},{"inputs":[{"internalType":"uint256","name":"slotId","type":"uint256"}],"name":"hasSlot","outputs":[{"components":[{"internalType":"uint256","name":"id","type":"uint256"},{"internalType":"uint256","name":"movieId","type":"uint256"},{"internalType":"uint256","name":"ticketCost","type":"uint256"},{"internalType":"uint256","name":"startTime","type":"uint256"},{"internalType":"uint256","name":"endTime","type":"uint256"},{"internalType":"uint256","name":"capacity","type":"uint256"},{"internalType":"uint256","name":"seats","type":"uint256"},{"internalType":"bool","name":"deleted","type":"bool"},{"internalType":"bool","name":"completed","type":"bool"},{"internalType":"uint256","name":"day","type":"uint256"},{"internalType":"uint256","name":"balance","type":"uint256"}],"internalType":"struct DappCinemas.TimeSlotStruct","name":"","type":"tuple"}],"stateMutability":"view","type":"function"},{"inputs":[],"name":"owner","outputs":[{"internalType":"address","name":"","type":"address"}],"stateMutability":"view","type":"function"},{"inputs":[],"name":"renounceOwnership","outputs":[],"stateMutability":"nonpayable","type":"function"},{"inputs":[{"internalType":"bytes32","name":"role","type":"bytes32"},{"internalType":"address","name":"account","type":"address"}],"name":"renounceRole","outputs":[],"stateMutability":"nonpayable","type":"function"},{"inputs":[{"internalType":"bytes32","name":"role","type":"bytes32"},{"internalType":"address","name":"account","type":"address"}],"name":"revokeRole","outputs":[],"stateMutability":"nonpayable","type":"function"},{"inputs":[{"internalType":"bytes4","name":"interfaceId","type":"bytes4"}],"name":"supportsInterface","outputs":[{"internalType":"bool","name":"","type":"bool"}],"stateMutability":"view","type":"function"},{"inputs":[{"internalType":"address","name":"newOwner","type":"address"}],"name":"transferOwnership","outputs":[],"stateMutability":"nonpayable","type":"function"},{"inputs":[{"internalType":"uint256","name":"_movieId","type":"uint256"},{"internalType":"string","name":"_name","type":"string"},{"internalType":"string","name":"_banner","type":"string"},{"internalType":"string","name":"_imageUrl","type":"string"},{"internalType":"string","name":"_videoUrl","type":"string"},{"internalType":"string","name":"_genre","type":"string"},{"internalType":"string","name":"_description","type":"string"},{"internalType":"string","name":"_caption","type":"string"},{"internalType":"string","name":"_casts","type":"string"},{"internalType":"uint256","name":"_running","type":"uint256"},{"internalType":"uint256","name":"_released","type":"uint256"}],"name":"updateMovie","outputs":[],"stateMutability":"nonpayable","type":"function"}],"evm":{"bytecode":{"linkReferences":{},"object":"608060405234801561001057600080fd5b5061001a3361001f565b61006f565b600080546001600160a01b038381166001600160a01b0319831681178455604051919092169283917f8be0079c531659141344cd1fd0a4f28419497f9722a3daafe3b4186f6b6457e09190a35050565b612aa98061007e6000396000f3fe608060405234801561001057600080fd5b50600436106101585760003560e01c8063715018a6116100c3578063a217fddf1161007c578063a217fddf14610311578063b6da3f0914610319578063d547741f1461032c578063d6330454146101ff578063d6cbac901461033f578063f2fde38b1461035257600080fd5b8063715018a61461029357806374a6d6671461029b5780637cd35a0a146102ae57806389964e22146102ce5780638da5cb5b146102e357806391d14854146102fe57600080fd5b80632c53b406116101155780632c53b4061461021f5780632f2ff15d146102345780633632d2ee1461024757806336568abe1461025a5780633b6559c11461026d5780636b4f6cb71461028057600080fd5b806301ffc9a71461015d5780630ae5e73914610185578063179ffe761461019a578063248a9ca3146101ba5780632b4bbba2146101ec5780632b85dcc9146101ff575b600080fd5b61017061016b3660046120b7565b610365565b60405190151581526020015b60405180910390f35b6101986101933660046120fd565b61039c565b005b6101ad6101a8366004612118565b610403565b60405161017c9190612293565b6101de6101c8366004612118565b6000908152600160208190526040909120015490565b60405190815260200161017c565b6101986101fa3660046122a6565b6108f8565b61021261020d366004612118565b610a6e565b60405161017c9190612361565b610227610b0e565b60405161017c9190612370565b6101986102423660046123d2565b6110fc565b6101986102553660046124a1565b611127565b6101986102683660046123d2565b6112ac565b61019861027b366004612118565b61132a565b61019861028e366004612118565b6113f6565b61019861149a565b6101986102a936600461260b565b6114ae565b6102c16102bc366004612118565b611699565b60405161017c9190612760565b6101de600080516020612a3483398151915281565b6000546040516001600160a01b03909116815260200161017c565b61017061030c3660046123d2565b6118c1565b6101de600081565b610198610327366004612118565b6118ec565b61019861033a3660046123d2565b6119b1565b6102c161034d366004612118565b6119d7565b6101986103603660046120fd565b611bbd565b60006001600160e01b03198216637965db0b60e01b148061039657506301ffc9a760e01b6001600160e01b03198316145b92915050565b6103a4611c36565b6103bc600080516020612a3483398151915282611c90565b6007546103e190600080516020612a34833981519152906001600160a01b0316611c9a565b600780546001600160a01b0319166001600160a01b0392909216919091179055565b61040b611fef565b60056000838152602001908152602001600020604051806101a001604052908160008201548152602001600182018054610444906127af565b80601f0160208091040260200160405190810160405280929190818152602001828054610470906127af565b80156104bd5780601f10610492576101008083540402835291602001916104bd565b820191906000526020600020905b8154815290600101906020018083116104a057829003601f168201915b505050505081526020016002820180546104d6906127af565b80601f0160208091040260200160405190810160405280929190818152602001828054610502906127af565b801561054f5780601f106105245761010080835404028352916020019161054f565b820191906000526020600020905b81548152906001019060200180831161053257829003601f168201915b50505050508152602001600382018054610568906127af565b80601f0160208091040260200160405190810160405280929190818152602001828054610594906127af565b80156105e15780601f106105b6576101008083540402835291602001916105e1565b820191906000526020600020905b8154815290600101906020018083116105c457829003601f168201915b505050505081526020016004820180546105fa906127af565b80601f0160208091040260200160405190810160405280929190818152602001828054610626906127af565b80156106735780601f1061064857610100808354040283529160200191610673565b820191906000526020600020905b81548152906001019060200180831161065657829003601f168201915b5050505050815260200160058201805461068c906127af565b80601f01602080910402602001604051908101604052809291908181526020018280546106b8906127af565b80156107055780601f106106da57610100808354040283529160200191610705565b820191906000526020600020905b8154815290600101906020018083116106e857829003601f168201915b5050505050815260200160068201805461071e906127af565b80601f016020809104026020016040519081016040528092919081815260200182805461074a906127af565b80156107975780601f1061076c57610100808354040283529160200191610797565b820191906000526020600020905b81548152906001019060200180831161077a57829003601f168201915b505050505081526020016007820180546107b0906127af565b80601f01602080910402602001604051908101604052809291908181526020018280546107dc906127af565b80156108295780601f106107fe57610100808354040283529160200191610829565b820191906000526020600020905b81548152906001019060200180831161080c57829003601f168201915b50505050508152602001600882018054610842906127af565b80601f016020809104026020016040519081016040528092919081815260200182805461086e906127af565b80156108bb5780601f10610890576101008083540402835291602001916108bb565b820191906000526020600020905b81548152906001019060200180831161089e57829003601f168201915b505050918352505060098201546020820152600a8201546040820152600b8201546060820152600c9091015460ff16151560809091015292915050565b610900611c36565b60008681526004602052604090205460ff166109375760405162461bcd60e51b815260040161092e906127e9565b60405180910390fd5b610945600380546001019055565b600061095060035490565b905061095a612059565b818152602080820189815260408084018a8152606085018a8152608086018a815260a087018a8152600060c0890181815260e08a01828152610100808c018481526101208d018f81526101408e018681528f875260069d8e9052958b90208e5181559b5160018d0155985160028c0155965160038b0155945160048a0155925160058901555197870197909755516007860180549351151590920261ff00199115159190911661ffff1990931692909217919091179055516008830155915160099091015551600080516020612a5483398151915290610a5c906020808252600e908201526d151a5b595cdb1bdd08185919195960921b604082015260600190565b60405180910390a15050505050505050565b610a76612059565b50600090815260066020818152604092839020835161016081018552815481526001820154928101929092526002810154938201939093526003830154606082015260048301546080820152600583015460a08201529082015460c0820152600782015460ff808216151560e08401526101009182900416151590820152600882015461012082015260099091015461014082015290565b6060600060015b6002548111610b57576000818152600560205260409020600c015460ff16610b455781610b418161282d565b9250505b80610b4f8161282d565b915050610b15565b508067ffffffffffffffff811115610b7157610b716123fe565b604051908082528060200260200182016040528015610baa57816020015b610b97611fef565b815260200190600190039081610b8f5790505b509150600060015b60025481116110f6576000818152600560205260409020600c015460ff166110e45760056000828152602001908152602001600020604051806101a001604052908160008201548152602001600182018054610c0d906127af565b80601f0160208091040260200160405190810160405280929190818152602001828054610c39906127af565b8015610c865780601f10610c5b57610100808354040283529160200191610c86565b820191906000526020600020905b815481529060010190602001808311610c6957829003601f168201915b50505050508152602001600282018054610c9f906127af565b80601f0160208091040260200160405190810160405280929190818152602001828054610ccb906127af565b8015610d185780601f10610ced57610100808354040283529160200191610d18565b820191906000526020600020905b815481529060010190602001808311610cfb57829003601f168201915b50505050508152602001600382018054610d31906127af565b80601f0160208091040260200160405190810160405280929190818152602001828054610d5d906127af565b8015610daa5780601f10610d7f57610100808354040283529160200191610daa565b820191906000526020600020905b815481529060010190602001808311610d8d57829003601f168201915b50505050508152602001600482018054610dc3906127af565b80601f0160208091040260200160405190810160405280929190818152602001828054610def906127af565b8015610e3c5780601f10610e1157610100808354040283529160200191610e3c565b820191906000526020600020905b815481529060010190602001808311610e1f57829003601f168201915b50505050508152602001600582018054610e55906127af565b80601f0160208091040260200160405190810160405280929190818152602001828054610e81906127af565b8015610ece5780601f10610ea357610100808354040283529160200191610ece565b820191906000526020600020905b815481529060010190602001808311610eb157829003601f168201915b50505050508152602001600682018054610ee7906127af565b80601f0160208091040260200160405190810160405280929190818152602001828054610f13906127af565b8015610f605780601f10610f3557610100808354040283529160200191610f60565b820191906000526020600020905b815481529060010190602001808311610f4357829003601f168201915b50505050508152602001600782018054610f79906127af565b80601f0160208091040260200160405190810160405280929190818152602001828054610fa5906127af565b8015610ff25780601f10610fc757610100808354040283529160200191610ff2565b820191906000526020600020905b815481529060010190602001808311610fd557829003601f168201915b5050505050815260200160088201805461100b906127af565b80601f0160208091040260200160405190810160405280929190818152602001828054611037906127af565b80156110845780601f1061105957610100808354040283529160200191611084565b820191906000526020600020905b81548152906001019060200180831161106757829003601f168201915b505050918352505060098201546020820152600a8201546040820152600b8201546060820152600c9091015460ff16151560809091015284836110c68161282d565b9450815181106110d8576110d8612846565b60200260200101819052505b806110ee8161282d565b915050610bb2565b50505090565b6000828152600160208190526040909120015461111881611d01565b6111228383611d0b565b505050565b61112f611c36565b60008b81526004602052604090205460ff1661115d5760405162461bcd60e51b815260040161092e906127e9565b60008b81526005602052604090206001016111788b826128aa565b5060008b81526005602052604090206002016111948a826128aa565b5060008b81526005602052604090206003016111b089826128aa565b5060008b81526005602052604090206004016111cc88826128aa565b5060008b8152600560208190526040909120016111e987826128aa565b5060008b815260056020526040902060060161120586826128aa565b5060008b815260056020526040902060070161122185826128aa565b5060008b815260056020526040902060080161123d84826128aa565b5060008b8152600560205260409081902060098101849055600a0182905551600080516020612a5483398151915290611297906020808252600d908201526c135bdd9a59481d5c19185d1959609a1b604082015260600190565b60405180910390a15050505050505050505050565b6001600160a01b038116331461131c5760405162461bcd60e51b815260206004820152602f60248201527f416363657373436f6e74726f6c3a2063616e206f6e6c792072656e6f756e636560448201526e103937b632b9903337b91039b2b63360891b606482015260840161092e565b6113268282611c9a565b5050565b611342600080516020612a34833981519152336118c1565b61138e5760405162461bcd60e51b815260206004820152601f60248201527f43616c6c6572206973206e6f742061207469636b657420636f6e747261637400604482015260640161092e565b60008181526006602052604090819020600701805460ff1916600117905551600080516020612a54833981519152906113eb9060208082526010908201526f151a5b595cdb1bdd0819195b195d195960821b604082015260600190565b60405180910390a150565b6113fe611c36565b60008181526004602052604090205460ff1661142c5760405162461bcd60e51b815260040161092e906127e9565b6000818152600560209081526040808320600c01805460ff199081166001179091556004909252918290208054909116905551600080516020612a54833981519152906113eb906020808252600d908201526c135bdd9a594819195b195d1959609a1b604082015260600190565b6114a2611c36565b6114ac6000611d76565b565b6114b6611c36565b6114c4600280546001019055565b60006114cf60025490565b90506114d9611fef565b818152602081018c9052604081018b9052606081018a90526080810189905260a0810188905260c0810187905260e0810186905261010081018590526101208101849052610140810183905261152d611dc6565b61016082015260008281526005602090815260409091208251815590820151829190600182019061155e90826128aa565b506040820151600282019061157390826128aa565b506060820151600382019061158890826128aa565b506080820151600482019061159d90826128aa565b5060a082015160058201906115b290826128aa565b5060c082015160068201906115c790826128aa565b5060e082015160078201906115dc90826128aa565b5061010082015160088201906115f290826128aa565b506101208201516009820155610140820151600a820155610160820151600b82015561018090910151600c909101805491151560ff1992831617905560008381526004602052604090819020805490921660011790915551600080516020612a5483398151915290611683906020808252600b908201526a135bdd9a5948185919195960aa1b604082015260600190565b60405180910390a1505050505050505050505050565b60606000805b6003548110156117205783600660006116b984600161296a565b8152602001908152602001600020600101541480156116fb5750600660006116e283600161296a565b815260208101919091526040016000206007015460ff16155b1561170e578161170a8161282d565b9250505b806117188161282d565b91505061169f565b508067ffffffffffffffff81111561173a5761173a6123fe565b60405190808252806020026020018201604052801561177357816020015b611760612059565b8152602001906001900390816117585790505b5091506000805b6003548110156118b957846006600061179484600161296a565b8152602001908152602001600020600101541480156117d65750600660006117bd83600161296a565b815260208101919091526040016000206007015460ff16155b156118a757600660006117ea83600161296a565b81526020808201929092526040908101600020815161016081018352815481526001820154938101939093526002810154918301919091526003810154606083015260048101546080830152600581015460a0830152600681015460c0830152600781015460ff808216151560e0850152610100918290041615159083015260088101546101208301526009015461014082015284836118898161282d565b94508151811061189b5761189b612846565b60200260200101819052505b806118b18161282d565b91505061177a565b505050919050565b60009182526001602090815260408084206001600160a01b0393909316845291905290205460ff1690565b611904600080516020612a34833981519152336118c1565b6119505760405162461bcd60e51b815260206004820152601f60248201527f43616c6c6572206973206e6f742061207469636b657420636f6e747261637400604482015260640161092e565b60008181526006602052604090819020600701805461ff00191661010017905551600080516020612a54833981519152906113eb90602080825260129082015271151a5b595cdb1bdd0818dbdb5c1b195d195960721b604082015260600190565b600082815260016020819052604090912001546119cd81611d01565b6111228383611c9a565b60606000805b600354811015611a5e5783600660006119f784600161296a565b815260200190815260200160002060080154148015611a39575060066000611a2083600161296a565b815260208101919091526040016000206007015460ff16155b15611a4c5781611a488161282d565b9250505b80611a568161282d565b9150506119dd565b508067ffffffffffffffff811115611a7857611a786123fe565b604051908082528060200260200182016040528015611ab157816020015b611a9e612059565b815260200190600190039081611a965790505b5091506000805b6003548110156118b9578460066000611ad284600161296a565b815260200190815260200160002060080154148015611b14575060066000611afb83600161296a565b815260208101919091526040016000206007015460ff16155b15611bab5760066000611b2883600161296a565b815260200190815260200160002060030154848381518110611b4c57611b4c612846565b60209081029190910101516060015260066000611b6a83600161296a565b815260200190815260200160002060040154848380611b889061282d565b945081518110611b9a57611b9a612846565b602002602001015160800181815250505b80611bb58161282d565b915050611ab8565b611bc5611c36565b6001600160a01b038116611c2a5760405162461bcd60e51b815260206004820152602660248201527f4f776e61626c653a206e6577206f776e657220697320746865207a65726f206160448201526564647265737360d01b606482015260840161092e565b611c3381611d76565b50565b6000546001600160a01b031633146114ac5760405162461bcd60e51b815260206004820181905260248201527f4f776e61626c653a2063616c6c6572206973206e6f7420746865206f776e6572604482015260640161092e565b6113268282611d0b565b611ca482826118c1565b156113265760008281526001602090815260408083206001600160a01b0385168085529252808320805460ff1916905551339285917ff6391f5c32d9c69d2a47ea670b442974b53935d1edc7fd64eb21e047a839171b9190a45050565b611c338133611de1565b611d1582826118c1565b6113265760008281526001602081815260408084206001600160a01b0386168086529252808420805460ff19169093179092559051339285917f2f8788117e7eff1d82e926ec794901d17c78024a50270940304540a733656f0d9190a45050565b600080546001600160a01b038381166001600160a01b0319831681178455604051919092169283917f8be0079c531659141344cd1fd0a4f28419497f9722a3daafe3b4186f6b6457e09190a35050565b600080611dd5426103e861297d565b610396906103e861296a565b611deb82826118c1565b61132657611df881611e3a565b611e03836020611e4c565b604051602001611e14929190612994565b60408051601f198184030181529082905262461bcd60e51b825261092e91600401612a09565b60606103966001600160a01b03831660145b60606000611e5b83600261297d565b611e6690600261296a565b67ffffffffffffffff811115611e7e57611e7e6123fe565b6040519080825280601f01601f191660200182016040528015611ea8576020820181803683370190505b509050600360fc1b81600081518110611ec357611ec3612846565b60200101906001600160f81b031916908160001a905350600f60fb1b81600181518110611ef257611ef2612846565b60200101906001600160f81b031916908160001a9053506000611f1684600261297d565b611f2190600161296a565b90505b6001811115611f99576f181899199a1a9b1b9c1cb0b131b232b360811b85600f1660108110611f5557611f55612846565b1a60f81b828281518110611f6b57611f6b612846565b60200101906001600160f81b031916908160001a90535060049490941c93611f9281612a1c565b9050611f24565b508315611fe85760405162461bcd60e51b815260206004820181905260248201527f537472696e67733a20686578206c656e67746820696e73756666696369656e74604482015260640161092e565b9392505050565b604051806101a001604052806000815260200160608152602001606081526020016060815260200160608152602001606081526020016060815260200160608152602001606081526020016000815260200160008152602001600081526020016000151581525090565b6040518061016001604052806000815260200160008152602001600081526020016000815260200160008152602001600081526020016000815260200160001515815260200160001515815260200160008152602001600081525090565b6000602082840312156120c957600080fd5b81356001600160e01b031981168114611fe857600080fd5b80356001600160a01b03811681146120f857600080fd5b919050565b60006020828403121561210f57600080fd5b611fe8826120e1565b60006020828403121561212a57600080fd5b5035919050565b60005b8381101561214c578181015183820152602001612134565b50506000910152565b6000815180845261216d816020860160208601612131565b601f01601f19169290920160200192915050565b60006101a08251845260208301518160208601526121a182860182612155565b915050604083015184820360408601526121bb8282612155565b915050606083015184820360608601526121d58282612155565b915050608083015184820360808601526121ef8282612155565b91505060a083015184820360a08601526122098282612155565b91505060c083015184820360c08601526122238282612155565b91505060e083015184820360e086015261223d8282612155565b91505061010080840151858303828701526122588382612155565b610120868101519088015261014080870151908801526101608087015190880152610180958601511515959096019490945250929392505050565b602081526000611fe86020830184612181565b60008060008060008060c087890312156122bf57600080fd5b505084359660208601359650604086013595606081013595506080810135945060a0013592509050565b805182526020810151602083015260408101516040830152606081015160608301526080810151608083015260a081015160a083015260c081015160c083015260e081015161233c60e084018215159052565b5061010081810151151590830152610120808201519083015261014090810151910152565b610160810161039682846122e9565b6000602080830181845280855180835260408601915060408160051b870101925083870160005b828110156123c557603f198886030184526123b3858351612181565b94509285019290850190600101612397565b5092979650505050505050565b600080604083850312156123e557600080fd5b823591506123f5602084016120e1565b90509250929050565b634e487b7160e01b600052604160045260246000fd5b600082601f83011261242557600080fd5b813567ffffffffffffffff80821115612440576124406123fe565b604051601f8301601f19908116603f01168101908282118183101715612468576124686123fe565b8160405283815286602085880101111561248157600080fd5b836020870160208301376000602085830101528094505050505092915050565b60008060008060008060008060008060006101608c8e0312156124c357600080fd5b8b359a5067ffffffffffffffff8060208e013511156124e157600080fd5b6124f18e60208f01358f01612414565b9a508060408e0135111561250457600080fd5b6125148e60408f01358f01612414565b99508060608e0135111561252757600080fd5b6125378e60608f01358f01612414565b98508060808e0135111561254a57600080fd5b61255a8e60808f01358f01612414565b97508060a08e0135111561256d57600080fd5b61257d8e60a08f01358f01612414565b96508060c08e0135111561259057600080fd5b6125a08e60c08f01358f01612414565b95508060e08e013511156125b357600080fd5b6125c38e60e08f01358f01612414565b9450806101008e013511156125d757600080fd5b506125e98d6101008e01358e01612414565b92506101208c013591506101408c013590509295989b509295989b9093969950565b6000806000806000806000806000806101408b8d03121561262b57600080fd5b8a3567ffffffffffffffff8082111561264357600080fd5b61264f8e838f01612414565b9b5060208d013591508082111561266557600080fd5b6126718e838f01612414565b9a5060408d013591508082111561268757600080fd5b6126938e838f01612414565b995060608d01359150808211156126a957600080fd5b6126b58e838f01612414565b985060808d01359150808211156126cb57600080fd5b6126d78e838f01612414565b975060a08d01359150808211156126ed57600080fd5b6126f98e838f01612414565b965060c08d013591508082111561270f57600080fd5b61271b8e838f01612414565b955060e08d013591508082111561273157600080fd5b5061273e8d828e01612414565b9350506101008b013591506101208b013590509295989b9194979a5092959850565b6020808252825182820181905260009190848201906040850190845b818110156127a35761278f8385516122e9565b92840192610160929092019160010161277c565b50909695505050505050565b600181811c908216806127c357607f821691505b6020821081036127e357634e487b7160e01b600052602260045260246000fd5b50919050565b602080825260149082015273135bdd9a5948191bd95cc81b9bdd08195e1a5cdd60621b604082015260600190565b634e487b7160e01b600052601160045260246000fd5b60006001820161283f5761283f612817565b5060010190565b634e487b7160e01b600052603260045260246000fd5b601f82111561112257600081815260208120601f850160051c810160208610156128835750805b601f850160051c820191505b818110156128a25782815560010161288f565b505050505050565b815167ffffffffffffffff8111156128c4576128c46123fe565b6128d8816128d284546127af565b8461285c565b602080601f83116001811461290d57600084156128f55750858301515b600019600386901b1c1916600185901b1785556128a2565b600085815260208120601f198616915b8281101561293c5788860151825594840194600190910190840161291d565b508582101561295a5787850151600019600388901b60f8161c191681555b5050505050600190811b01905550565b8082018082111561039657610396612817565b808202811582820484141761039657610396612817565b7f416363657373436f6e74726f6c3a206163636f756e74200000000000000000008152600083516129cc816017850160208801612131565b7001034b99036b4b9b9b4b733903937b6329607d1b60179184019182015283516129fd816028840160208801612131565b01602801949350505050565b602081526000611fe86020830184612155565b600081612a2b57612a2b612817565b50600019019056fe84c0e6936832819e27761bd60cca25b2ef9a185b925c2c99a066a29a80d42f038b2c14fe955d044ef95ba32b88d2ceb87c6f73fcefdcebe906063a6d75690f27a26469706673582212203870c986978f2cadef9429acf1b31c1cff5295cbb038f147826c692a2a11164a64736f6c63430008130033","opcodes":"PUSH1 0x80 PUSH1 0x40 MSTORE CALLVALUE DUP1 ISZERO PUSH2 0x10 JUMPI PUSH1 0x0 DUP1 REVERT JUMPDEST POP PUSH2 0x1A CALLER PUSH2 0x1F JUMP JUMPDEST PUSH2 0x6F JUMP JUMPDEST PUSH1 0x0 DUP1 SLOAD PUSH1 0x1 PUSH1 0x1 PUSH1 0xA0 SHL SUB DUP4 DUP2 AND PUSH1 0x1 PUSH1 0x1 PUSH1 0xA0 SHL SUB NOT DUP4 AND DUP2 OR DUP5 SSTORE PUSH1 0x40 MLOAD SWAP2 SWAP1 SWAP3 AND SWAP3 DUP4 SWAP2 PUSH32 0x8BE0079C531659141344CD1FD0A4F28419497F9722A3DAAFE3B4186F6B6457E0 SWAP2 SWAP1 LOG3 POP POP JUMP JUMPDEST PUSH2 0x2AA9 DUP1 PUSH2 0x7E PUSH1 0x0 CODECOPY PUSH1 0x0 RETURN INVALID PUSH1 0x80 PUSH1 0x40 MSTORE CALLVALUE DUP1 ISZERO PUSH2 0x10 JUMPI PUSH1 0x0 DUP1 REVERT JUMPDEST POP PUSH1 0x4 CALLDATASIZE LT PUSH2 0x158 JUMPI PUSH1 0x0 CALLDATALOAD PUSH1 0xE0 SHR DUP1 PUSH4 0x715018A6 GT PUSH2 0xC3 JUMPI DUP1 PUSH4 0xA217FDDF GT PUSH2 0x7C JUMPI DUP1 PUSH4 0xA217FDDF EQ PUSH2 0x311 JUMPI DUP1 PUSH4 0xB6DA3F09 EQ PUSH2 0x319 JUMPI DUP1 PUSH4 0xD547741F EQ PUSH2 0x32C JUMPI DUP1 PUSH4 0xD6330454 EQ PUSH2 0x1FF JUMPI DUP1 PUSH4 0xD6CBAC90 EQ PUSH2 0x33F JUMPI DUP1 PUSH4 0xF2FDE38B EQ PUSH2 0x352 JUMPI PUSH1 0x0 DUP1 REVERT JUMPDEST DUP1 PUSH4 0x715018A6 EQ PUSH2 0x293 JUMPI DUP1 PUSH4 0x74A6D667 EQ PUSH2 0x29B JUMPI DUP1 PUSH4 0x7CD35A0A EQ PUSH2 0x2AE JUMPI DUP1 PUSH4 0x89964E22 EQ PUSH2 0x2CE JUMPI DUP1 PUSH4 0x8DA5CB5B EQ PUSH2 0x2E3 JUMPI DUP1 PUSH4 0x91D14854 EQ PUSH2 0x2FE JUMPI PUSH1 0x0 DUP1 REVERT JUMPDEST DUP1 PUSH4 0x2C53B406 GT PUSH2 0x115 JUMPI DUP1 PUSH4 0x2C53B406 EQ PUSH2 0x21F JUMPI DUP1 PUSH4 0x2F2FF15D EQ PUSH2 0x234 JUMPI DUP1 PUSH4 0x3632D2EE EQ PUSH2 0x247 JUMPI DUP1 PUSH4 0x36568ABE EQ PUSH2 0x25A JUMPI DUP1 PUSH4 0x3B6559C1 EQ PUSH2 0x26D JUMPI DUP1 PUSH4 0x6B4F6CB7 EQ PUSH2 0x280 JUMPI PUSH1 0x0 DUP1 REVERT JUMPDEST DUP1 PUSH4 0x1FFC9A7 EQ PUSH2 0x15D JUMPI DUP1 PUSH4 0xAE5E739 EQ PUSH2 0x185 JUMPI DUP1 PUSH4 0x179FFE76 EQ PUSH2 0x19A JUMPI DUP1 PUSH4 0x248A9CA3 EQ PUSH2 0x1BA JUMPI DUP1 PUSH4 0x2B4BBBA2 EQ PUSH2 0x1EC JUMPI DUP1 PUSH4 0x2B85DCC9 EQ PUSH2 0x1FF JUMPI JUMPDEST PUSH1 0x0 DUP1 REVERT JUMPDEST PUSH2 0x170 PUSH2 0x16B CALLDATASIZE PUSH1 0x4 PUSH2 0x20B7 JUMP JUMPDEST PUSH2 0x365 JUMP JUMPDEST PUSH1 0x40 MLOAD SWAP1 ISZERO ISZERO DUP2 MSTORE PUSH1 0x20 ADD JUMPDEST PUSH1 0x40 MLOAD DUP1 SWAP2 SUB SWAP1 RETURN JUMPDEST PUSH2 0x198 PUSH2 0x193 CALLDATASIZE PUSH1 0x4 PUSH2 0x20FD JUMP JUMPDEST PUSH2 0x39C JUMP JUMPDEST STOP JUMPDEST PUSH2 0x1AD PUSH2 0x1A8 CALLDATASIZE PUSH1 0x4 PUSH2 0x2118 JUMP JUMPDEST PUSH2 0x403 JUMP JUMPDEST PUSH1 0x40 MLOAD PUSH2 0x17C SWAP2 SWAP1 PUSH2 0x2293 JUMP JUMPDEST PUSH2 0x1DE PUSH2 0x1C8 CALLDATASIZE PUSH1 0x4 PUSH2 0x2118 JUMP JUMPDEST PUSH1 0x0 SWAP1 DUP2 MSTORE PUSH1 0x1 PUSH1 0x20 DUP2 SWAP1 MSTORE PUSH1 0x40 SWAP1 SWAP2 KECCAK256 ADD SLOAD SWAP1 JUMP JUMPDEST PUSH1 0x40 MLOAD SWAP1 DUP2 MSTORE PUSH1 0x20 ADD PUSH2 0x17C JUMP JUMPDEST PUSH2 0x198 PUSH2 0x1FA CALLDATASIZE PUSH1 0x4 PUSH2 0x22A6 JUMP JUMPDEST PUSH2 0x8F8 JUMP JUMPDEST PUSH2 0x212 PUSH2 0x20D CALLDATASIZE PUSH1 0x4 PUSH2 0x2118 JUMP JUMPDEST PUSH2 0xA6E JUMP JUMPDEST PUSH1 0x40 MLOAD PUSH2 0x17C SWAP2 SWAP1 PUSH2 0x2361 JUMP JUMPDEST PUSH2 0x227 PUSH2 0xB0E JUMP JUMPDEST PUSH1 0x40 MLOAD PUSH2 0x17C SWAP2 SWAP1 PUSH2 0x2370 JUMP JUMPDEST PUSH2 0x198 PUSH2 0x242 CALLDATASIZE PUSH1 0x4 PUSH2 0x23D2 JUMP JUMPDEST PUSH2 0x10FC JUMP JUMPDEST PUSH2 0x198 PUSH2 0x255 CALLDATASIZE PUSH1 0x4 PUSH2 0x24A1 JUMP JUMPDEST PUSH2 0x1127 JUMP JUMPDEST PUSH2 0x198 PUSH2 0x268 CALLDATASIZE PUSH1 0x4 PUSH2 0x23D2 JUMP JUMPDEST PUSH2 0x12AC JUMP JUMPDEST PUSH2 0x198 PUSH2 0x27B CALLDATASIZE PUSH1 0x4 PUSH2 0x2118 JUMP JUMPDEST PUSH2 0x132A JUMP JUMPDEST PUSH2 0x198 PUSH2 0x28E CALLDATASIZE PUSH1 0x4 PUSH2 0x2118 JUMP JUMPDEST PUSH2 0x13F6 JUMP JUMPDEST PUSH2 0x198 PUSH2 0x149A JUMP JUMPDEST PUSH2 0x198 PUSH2 0x2A9 CALLDATASIZE PUSH1 0x4 PUSH2 0x260B JUMP JUMPDEST PUSH2 0x14AE JUMP JUMPDEST PUSH2 0x2C1 PUSH2 0x2BC CALLDATASIZE PUSH1 0x4 PUSH2 0x2118 JUMP JUMPDEST PUSH2 0x1699 JUMP JUMPDEST PUSH1 0x40 MLOAD PUSH2 0x17C SWAP2 SWAP1 PUSH2 0x2760 JUMP JUMPDEST PUSH2 0x1DE PUSH1 0x0 DUP1 MLOAD PUSH1 0x20 PUSH2 0x2A34 DUP4 CODECOPY DUP2 MLOAD SWAP2 MSTORE DUP2 JUMP JUMPDEST PUSH1 0x0 SLOAD PUSH1 0x40 MLOAD PUSH1 0x1 PUSH1 0x1 PUSH1 0xA0 SHL SUB SWAP1 SWAP2 AND DUP2 MSTORE PUSH1 0x20 ADD PUSH2 0x17C JUMP JUMPDEST PUSH2 0x170 PUSH2 0x30C CALLDATASIZE PUSH1 0x4 PUSH2 0x23D2 JUMP JUMPDEST PUSH2 0x18C1 JUMP JUMPDEST PUSH2 0x1DE PUSH1 0x0 DUP2 JUMP JUMPDEST PUSH2 0x198 PUSH2 0x327 CALLDATASIZE PUSH1 0x4 PUSH2 0x2118 JUMP JUMPDEST PUSH2 0x18EC JUMP JUMPDEST PUSH2 0x198 PUSH2 0x33A CALLDATASIZE PUSH1 0x4 PUSH2 0x23D2 JUMP JUMPDEST PUSH2 0x19B1 JUMP JUMPDEST PUSH2 0x2C1 PUSH2 0x34D CALLDATASIZE PUSH1 0x4 PUSH2 0x2118 JUMP JUMPDEST PUSH2 0x19D7 JUMP JUMPDEST PUSH2 0x198 PUSH2 0x360 CALLDATASIZE PUSH1 0x4 PUSH2 0x20FD JUMP JUMPDEST PUSH2 0x1BBD JUMP JUMPDEST PUSH1 0x0 PUSH1 0x1 PUSH1 0x1 PUSH1 0xE0 SHL SUB NOT DUP3 AND PUSH4 0x7965DB0B PUSH1 0xE0 SHL EQ DUP1 PUSH2 0x396 JUMPI POP PUSH4 0x1FFC9A7 PUSH1 0xE0 SHL PUSH1 0x1 PUSH1 0x1 PUSH1 0xE0 SHL SUB NOT DUP4 AND EQ JUMPDEST SWAP3 SWAP2 POP POP JUMP JUMPDEST PUSH2 0x3A4 PUSH2 0x1C36 JUMP JUMPDEST PUSH2 0x3BC PUSH1 0x0 DUP1 MLOAD PUSH1 0x20 PUSH2 0x2A34 DUP4 CODECOPY DUP2 MLOAD SWAP2 MSTORE DUP3 PUSH2 0x1C90 JUMP JUMPDEST PUSH1 0x7 SLOAD PUSH2 0x3E1 SWAP1 PUSH1 0x0 DUP1 MLOAD PUSH1 0x20 PUSH2 0x2A34 DUP4 CODECOPY DUP2 MLOAD SWAP2 MSTORE SWAP1 PUSH1 0x1 PUSH1 0x1 PUSH1 0xA0 SHL SUB AND PUSH2 0x1C9A JUMP JUMPDEST PUSH1 0x7 DUP1 SLOAD PUSH1 0x1 PUSH1 0x1 PUSH1 0xA0 SHL SUB NOT AND PUSH1 0x1 PUSH1 0x1 PUSH1 0xA0 SHL SUB SWAP3 SWAP1 SWAP3 AND SWAP2 SWAP1 SWAP2 OR SWAP1 SSTORE JUMP JUMPDEST PUSH2 0x40B PUSH2 0x1FEF JUMP JUMPDEST PUSH1 0x5 PUSH1 0x0 DUP4 DUP2 MSTORE PUSH1 0x20 ADD SWAP1 DUP2 MSTORE PUSH1 0x20 ADD PUSH1 0x0 KECCAK256 PUSH1 0x40 MLOAD DUP1 PUSH2 0x1A0 ADD PUSH1 0x40 MSTORE SWAP1 DUP2 PUSH1 0x0 DUP3 ADD SLOAD DUP2 MSTORE PUSH1 0x20 ADD PUSH1 0x1 DUP3 ADD DUP1 SLOAD PUSH2 0x444 SWAP1 PUSH2 0x27AF JUMP JUMPDEST DUP1 PUSH1 0x1F ADD PUSH1 0x20 DUP1 SWAP2 DIV MUL PUSH1 0x20 ADD PUSH1 0x40 MLOAD SWAP1 DUP2 ADD PUSH1 0x40 MSTORE DUP1 SWAP3 SWAP2 SWAP1 DUP2 DUP2 MSTORE PUSH1 0x20 ADD DUP3 DUP1 SLOAD PUSH2 0x470 SWAP1 PUSH2 0x27AF JUMP JUMPDEST DUP1 ISZERO PUSH2 0x4BD JUMPI DUP1 PUSH1 0x1F LT PUSH2 0x492 JUMPI PUSH2 0x100 DUP1 DUP4 SLOAD DIV MUL DUP4 MSTORE SWAP2 PUSH1 0x20 ADD SWAP2 PUSH2 0x4BD JUMP JUMPDEST DUP3 ADD SWAP2 SWAP1 PUSH1 0x0 MSTORE PUSH1 0x20 PUSH1 0x0 KECCAK256 SWAP1 JUMPDEST DUP2 SLOAD DUP2 MSTORE SWAP1 PUSH1 0x1 ADD SWAP1 PUSH1 0x20 ADD DUP1 DUP4 GT PUSH2 0x4A0 JUMPI DUP3 SWAP1 SUB PUSH1 0x1F AND DUP3 ADD SWAP2 JUMPDEST POP POP POP POP POP DUP2 MSTORE PUSH1 0x20 ADD PUSH1 0x2 DUP3 ADD DUP1 SLOAD PUSH2 0x4D6 SWAP1 PUSH2 0x27AF JUMP JUMPDEST DUP1 PUSH1 0x1F ADD PUSH1 0x20 DUP1 SWAP2 DIV MUL PUSH1 0x20 ADD PUSH1 0x40 MLOAD SWAP1 DUP2 ADD PUSH1 0x40 MSTORE DUP1 SWAP3 SWAP2 SWAP1 DUP2 DUP2 MSTORE PUSH1 0x20 ADD DUP3 DUP1 SLOAD PUSH2 0x502 SWAP1 PUSH2 0x27AF JUMP JUMPDEST DUP1 ISZERO PUSH2 0x54F JUMPI DUP1 PUSH1 0x1F LT PUSH2 0x524 JUMPI PUSH2 0x100 DUP1 DUP4 SLOAD DIV MUL DUP4 MSTORE SWAP2 PUSH1 0x20 ADD SWAP2 PUSH2 0x54F JUMP JUMPDEST DUP3 ADD SWAP2 SWAP1 PUSH1 0x0 MSTORE PUSH1 0x20 PUSH1 0x0 KECCAK256 SWAP1 JUMPDEST DUP2 SLOAD DUP2 MSTORE SWAP1 PUSH1 0x1 ADD SWAP1 PUSH1 0x20 ADD DUP1 DUP4 GT PUSH2 0x532 JUMPI DUP3 SWAP1 SUB PUSH1 0x1F AND DUP3 ADD SWAP2 JUMPDEST POP POP POP POP POP DUP2 MSTORE PUSH1 0x20 ADD PUSH1 0x3 DUP3 ADD DUP1 SLOAD PUSH2 0x568 SWAP1 PUSH2 0x27AF JUMP JUMPDEST DUP1 PUSH1 0x1F ADD PUSH1 0x20 DUP1 SWAP2 DIV MUL PUSH1 0x20 ADD PUSH1 0x40 MLOAD SWAP1 DUP2 ADD PUSH1 0x40 MSTORE DUP1 SWAP3 SWAP2 SWAP1 DUP2 DUP2 MSTORE PUSH1 0x20 ADD DUP3 DUP1 SLOAD PUSH2 0x594 SWAP1 PUSH2 0x27AF JUMP JUMPDEST DUP1 ISZERO PUSH2 0x5E1 JUMPI DUP1 PUSH1 0x1F LT PUSH2 0x5B6 JUMPI PUSH2 0x100 DUP1 DUP4 SLOAD DIV MUL DUP4 MSTORE SWAP2 PUSH1 0x20 ADD SWAP2 PUSH2 0x5E1 JUMP JUMPDEST DUP3 ADD SWAP2 SWAP1 PUSH1 0x0 MSTORE PUSH1 0x20 PUSH1 0x0 KECCAK256 SWAP1 JUMPDEST DUP2 SLOAD DUP2 MSTORE SWAP1 PUSH1 0x1 ADD SWAP1 PUSH1 0x20 ADD DUP1 DUP4 GT PUSH2 0x5C4 JUMPI DUP3 SWAP1 SUB PUSH1 0x1F AND DUP3 ADD SWAP2 JUMPDEST POP POP POP POP POP DUP2 MSTORE PUSH1 0x20 ADD PUSH1 0x4 DUP3 ADD DUP1 SLOAD PUSH2 0x5FA SWAP1 PUSH2 0x27AF JUMP JUMPDEST DUP1 PUSH1 0x1F ADD PUSH1 0x20 DUP1 SWAP2 DIV MUL PUSH1 0x20 ADD PUSH1 0x40 MLOAD SWAP1 DUP2 ADD PUSH1 0x40 MSTORE DUP1 SWAP3 SWAP2 SWAP1 DUP2 DUP2 MSTORE PUSH1 0x20 ADD DUP3 DUP1 SLOAD PUSH2 0x626 SWAP1 PUSH2 0x27AF JUMP JUMPDEST DUP1 ISZERO PUSH2 0x673 JUMPI DUP1 PUSH1 0x1F LT PUSH2 0x648 JUMPI PUSH2 0x100 DUP1 DUP4 SLOAD DIV MUL DUP4 MSTORE SWAP2 PUSH1 0x20 ADD SWAP2 PUSH2 0x673 JUMP JUMPDEST DUP3 ADD SWAP2 SWAP1 PUSH1 0x0 MSTORE PUSH1 0x20 PUSH1 0x0 KECCAK256 SWAP1 JUMPDEST DUP2 SLOAD DUP2 MSTORE SWAP1 PUSH1 0x1 ADD SWAP1 PUSH1 0x20 ADD DUP1 DUP4 GT PUSH2 0x656 JUMPI DUP3 SWAP1 SUB PUSH1 0x1F AND DUP3 ADD SWAP2 JUMPDEST POP POP POP POP POP DUP2 MSTORE PUSH1 0x20 ADD PUSH1 0x5 DUP3 ADD DUP1 SLOAD PUSH2 0x68C SWAP1 PUSH2 0x27AF JUMP JUMPDEST DUP1 PUSH1 0x1F ADD PUSH1 0x20 DUP1 SWAP2 DIV MUL PUSH1 0x20 ADD PUSH1 0x40 MLOAD SWAP1 DUP2 ADD PUSH1 0x40 MSTORE DUP1 SWAP3 SWAP2 SWAP1 DUP2 DUP2 MSTORE PUSH1 0x20 ADD DUP3 DUP1 SLOAD PUSH2 0x6B8 SWAP1 PUSH2 0x27AF JUMP JUMPDEST DUP1 ISZERO PUSH2 0x705 JUMPI DUP1 PUSH1 0x1F LT PUSH2 0x6DA JUMPI PUSH2 0x100 DUP1 DUP4 SLOAD DIV MUL DUP4 MSTORE SWAP2 PUSH1 0x20 ADD SWAP2 PUSH2 0x705 JUMP JUMPDEST DUP3 ADD SWAP2 SWAP1 PUSH1 0x0 MSTORE PUSH1 0x20 PUSH1 0x0 KECCAK256 SWAP1 JUMPDEST DUP2 SLOAD DUP2 MSTORE SWAP1 PUSH1 0x1 ADD SWAP1 PUSH1 0x20 ADD DUP1 DUP4 GT PUSH2 0x6E8 JUMPI DUP3 SWAP1 SUB PUSH1 0x1F AND DUP3 ADD SWAP2 JUMPDEST POP POP POP POP POP DUP2 MSTORE PUSH1 0x20 ADD PUSH1 0x6 DUP3 ADD DUP1 SLOAD PUSH2 0x71E SWAP1 PUSH2 0x27AF JUMP JUMPDEST DUP1 PUSH1 0x1F ADD PUSH1 0x20 DUP1 SWAP2 DIV MUL PUSH1 0x20 ADD PUSH1 0x40 MLOAD SWAP1 DUP2 ADD PUSH1 0x40 MSTORE DUP1 SWAP3 SWAP2 SWAP1 DUP2 DUP2 MSTORE PUSH1 0x20 ADD DUP3 DUP1 SLOAD PUSH2 0x74A SWAP1 PUSH2 0x27AF JUMP JUMPDEST DUP1 ISZERO PUSH2 0x797 JUMPI DUP1 PUSH1 0x1F LT PUSH2 0x76C JUMPI PUSH2 0x100 DUP1 DUP4 SLOAD DIV MUL DUP4 MSTORE SWAP2 PUSH1 0x20 ADD SWAP2 PUSH2 0x797 JUMP JUMPDEST DUP3 ADD SWAP2 SWAP1 PUSH1 0x0 MSTORE PUSH1 0x20 PUSH1 0x0 KECCAK256 SWAP1 JUMPDEST DUP2 SLOAD DUP2 MSTORE SWAP1 PUSH1 0x1 ADD SWAP1 PUSH1 0x20 ADD DUP1 DUP4 GT PUSH2 0x77A JUMPI DUP3 SWAP1 SUB PUSH1 0x1F AND DUP3 ADD SWAP2 JUMPDEST POP POP POP POP POP DUP2 MSTORE PUSH1 0x20 ADD PUSH1 0x7 DUP3 ADD DUP1 SLOAD PUSH2 0x7B0 SWAP1 PUSH2 0x27AF JUMP JUMPDEST DUP1 PUSH1 0x1F ADD PUSH1 0x20 DUP1 SWAP2 DIV MUL PUSH1 0x20 ADD PUSH1 0x40 MLOAD SWAP1 DUP2 ADD PUSH1 0x40 MSTORE DUP1 SWAP3 SWAP2 SWAP1 DUP2 DUP2 MSTORE PUSH1 0x20 ADD DUP3 DUP1 SLOAD PUSH2 0x7DC SWAP1 PUSH2 0x27AF JUMP JUMPDEST DUP1 ISZERO PUSH2 0x829 JUMPI DUP1 PUSH1 0x1F LT PUSH2 0x7FE JUMPI PUSH2 0x100 DUP1 DUP4 SLOAD DIV MUL DUP4 MSTORE SWAP2 PUSH1 0x20 ADD SWAP2 PUSH2 0x829 JUMP JUMPDEST DUP3 ADD SWAP2 SWAP1 PUSH1 0x0 MSTORE PUSH1 0x20 PUSH1 0x0 KECCAK256 SWAP1 JUMPDEST DUP2 SLOAD DUP2 MSTORE SWAP1 PUSH1 0x1 ADD SWAP1 PUSH1 0x20 ADD DUP1 DUP4 GT PUSH2 0x80C JUMPI DUP3 SWAP1 SUB PUSH1 0x1F AND DUP3 ADD SWAP2 JUMPDEST POP POP POP POP POP DUP2 MSTORE PUSH1 0x20 ADD PUSH1 0x8 DUP3 ADD DUP1 SLOAD PUSH2 0x842 SWAP1 PUSH2 0x27AF JUMP JUMPDEST DUP1 PUSH1 0x1F ADD PUSH1 0x20 DUP1 SWAP2 DIV MUL PUSH1 0x20 ADD PUSH1 0x40 MLOAD SWAP1 DUP2 ADD PUSH1 0x40 MSTORE DUP1 SWAP3 SWAP2 SWAP1 DUP2 DUP2 MSTORE PUSH1 0x20 ADD DUP3 DUP1 SLOAD PUSH2 0x86E SWAP1 PUSH2 0x27AF JUMP JUMPDEST DUP1 ISZERO PUSH2 0x8BB JUMPI DUP1 PUSH1 0x1F LT PUSH2 0x890 JUMPI PUSH2 0x100 DUP1 DUP4 SLOAD DIV MUL DUP4 MSTORE SWAP2 PUSH1 0x20 ADD SWAP2 PUSH2 0x8BB JUMP JUMPDEST DUP3 ADD SWAP2 SWAP1 PUSH1 0x0 MSTORE PUSH1 0x20 PUSH1 0x0 KECCAK256 SWAP1 JUMPDEST DUP2 SLOAD DUP2 MSTORE SWAP1 PUSH1 0x1 ADD SWAP1 PUSH1 0x20 ADD DUP1 DUP4 GT PUSH2 0x89E JUMPI DUP3 SWAP1 SUB PUSH1 0x1F AND DUP3 ADD SWAP2 JUMPDEST POP POP POP SWAP2 DUP4 MSTORE POP POP PUSH1 0x9 DUP3 ADD SLOAD PUSH1 0x20 DUP3 ADD MSTORE PUSH1 0xA DUP3 ADD SLOAD PUSH1 0x40 DUP3 ADD MSTORE PUSH1 0xB DUP3 ADD SLOAD PUSH1 0x60 DUP3 ADD MSTORE PUSH1 0xC SWAP1 SWAP2 ADD SLOAD PUSH1 0xFF AND ISZERO ISZERO PUSH1 0x80 SWAP1 SWAP2 ADD MSTORE SWAP3 SWAP2 POP POP JUMP JUMPDEST PUSH2 0x900 PUSH2 0x1C36 JUMP JUMPDEST PUSH1 0x0 DUP7 DUP2 MSTORE PUSH1 0x4 PUSH1 0x20 MSTORE PUSH1 0x40 SWAP1 KECCAK256 SLOAD PUSH1 0xFF AND PUSH2 0x937 JUMPI PUSH1 0x40 MLOAD PUSH3 0x461BCD PUSH1 0xE5 SHL DUP2 MSTORE PUSH1 0x4 ADD PUSH2 0x92E SWAP1 PUSH2 0x27E9 JUMP JUMPDEST PUSH1 0x40 MLOAD DUP1 SWAP2 SUB SWAP1 REVERT JUMPDEST PUSH2 0x945 PUSH1 0x3 DUP1 SLOAD PUSH1 0x1 ADD SWAP1 SSTORE JUMP JUMPDEST PUSH1 0x0 PUSH2 0x950 PUSH1 0x3 SLOAD SWAP1 JUMP JUMPDEST SWAP1 POP PUSH2 0x95A PUSH2 0x2059 JUMP JUMPDEST DUP2 DUP2 MSTORE PUSH1 0x20 DUP1 DUP3 ADD DUP10 DUP2 MSTORE PUSH1 0x40 DUP1 DUP5 ADD DUP11 DUP2 MSTORE PUSH1 0x60 DUP6 ADD DUP11 DUP2 MSTORE PUSH1 0x80 DUP7 ADD DUP11 DUP2 MSTORE PUSH1 0xA0 DUP8 ADD DUP11 DUP2 MSTORE PUSH1 0x0 PUSH1 0xC0 DUP10 ADD DUP2 DUP2 MSTORE PUSH1 0xE0 DUP11 ADD DUP3 DUP2 MSTORE PUSH2 0x100 DUP1 DUP13 ADD DUP5 DUP2 MSTORE PUSH2 0x120 DUP14 ADD DUP16 DUP2 MSTORE PUSH2 0x140 DUP15 ADD DUP7 DUP2 MSTORE DUP16 DUP8 MSTORE PUSH1 0x6 SWAP14 DUP15 SWAP1 MSTORE SWAP6 DUP12 SWAP1 KECCAK256 DUP15 MLOAD DUP2 SSTORE SWAP12 MLOAD PUSH1 0x1 DUP14 ADD SSTORE SWAP9 MLOAD PUSH1 0x2 DUP13 ADD SSTORE SWAP7 MLOAD PUSH1 0x3 DUP12 ADD SSTORE SWAP5 MLOAD PUSH1 0x4 DUP11 ADD SSTORE SWAP3 MLOAD PUSH1 0x5 DUP10 ADD SSTORE MLOAD SWAP8 DUP8 ADD SWAP8 SWAP1 SWAP8 SSTORE MLOAD PUSH1 0x7 DUP7 ADD DUP1 SLOAD SWAP4 MLOAD ISZERO ISZERO SWAP1 SWAP3 MUL PUSH2 0xFF00 NOT SWAP2 ISZERO ISZERO SWAP2 SWAP1 SWAP2 AND PUSH2 0xFFFF NOT SWAP1 SWAP4 AND SWAP3 SWAP1 SWAP3 OR SWAP2 SWAP1 SWAP2 OR SWAP1 SSTORE MLOAD PUSH1 0x8 DUP4 ADD SSTORE SWAP2 MLOAD PUSH1 0x9 SWAP1 SWAP2 ADD SSTORE MLOAD PUSH1 0x0 DUP1 MLOAD PUSH1 0x20 PUSH2 0x2A54 DUP4 CODECOPY DUP2 MLOAD SWAP2 MSTORE SWAP1 PUSH2 0xA5C SWAP1 PUSH1 0x20 DUP1 DUP3 MSTORE PUSH1 0xE SWAP1 DUP3 ADD MSTORE PUSH14 0x151A5B595CDB1BDD081859191959 PUSH1 0x92 SHL PUSH1 0x40 DUP3 ADD MSTORE PUSH1 0x60 ADD SWAP1 JUMP JUMPDEST PUSH1 0x40 MLOAD DUP1 SWAP2 SUB SWAP1 LOG1 POP POP POP POP POP POP POP POP JUMP JUMPDEST PUSH2 0xA76 PUSH2 0x2059 JUMP JUMPDEST POP PUSH1 0x0 SWAP1 DUP2 MSTORE PUSH1 0x6 PUSH1 0x20 DUP2 DUP2 MSTORE PUSH1 0x40 SWAP3 DUP4 SWAP1 KECCAK256 DUP4 MLOAD PUSH2 0x160 DUP2 ADD DUP6 MSTORE DUP2 SLOAD DUP2 MSTORE PUSH1 0x1 DUP3 ADD SLOAD SWAP3 DUP2 ADD SWAP3 SWAP1 SWAP3 MSTORE PUSH1 0x2 DUP2 ADD SLOAD SWAP4 DUP3 ADD SWAP4 SWAP1 SWAP4 MSTORE PUSH1 0x3 DUP4 ADD SLOAD PUSH1 0x60 DUP3 ADD MSTORE PUSH1 0x4 DUP4 ADD SLOAD PUSH1 0x80 DUP3 ADD MSTORE PUSH1 0x5 DUP4 ADD SLOAD PUSH1 0xA0 DUP3 ADD MSTORE SWAP1 DUP3 ADD SLOAD PUSH1 0xC0 DUP3 ADD MSTORE PUSH1 0x7 DUP3 ADD SLOAD PUSH1 0xFF DUP1 DUP3 AND ISZERO ISZERO PUSH1 0xE0 DUP5 ADD MSTORE PUSH2 0x100 SWAP2 DUP3 SWAP1 DIV AND ISZERO ISZERO SWAP1 DUP3 ADD MSTORE PUSH1 0x8 DUP3 ADD SLOAD PUSH2 0x120 DUP3 ADD MSTORE PUSH1 0x9 SWAP1 SWAP2 ADD SLOAD PUSH2 0x140 DUP3 ADD MSTORE SWAP1 JUMP JUMPDEST PUSH1 0x60 PUSH1 0x0 PUSH1 0x1 JUMPDEST PUSH1 0x2 SLOAD DUP2 GT PUSH2 0xB57 JUMPI PUSH1 0x0 DUP2 DUP2 MSTORE PUSH1 0x5 PUSH1 0x20 MSTORE PUSH1 0x40 SWAP1 KECCAK256 PUSH1 0xC ADD SLOAD PUSH1 0xFF AND PUSH2 0xB45 JUMPI DUP2 PUSH2 0xB41 DUP2 PUSH2 0x282D JUMP JUMPDEST SWAP3 POP POP JUMPDEST DUP1 PUSH2 0xB4F DUP2 PUSH2 0x282D JUMP JUMPDEST SWAP2 POP POP PUSH2 0xB15 JUMP JUMPDEST POP DUP1 PUSH8 0xFFFFFFFFFFFFFFFF DUP2 GT ISZERO PUSH2 0xB71 JUMPI PUSH2 0xB71 PUSH2 0x23FE JUMP JUMPDEST PUSH1 0x40 MLOAD SWAP1 DUP1 DUP3 MSTORE DUP1 PUSH1 0x20 MUL PUSH1 0x20 ADD DUP3 ADD PUSH1 0x40 MSTORE DUP1 ISZERO PUSH2 0xBAA JUMPI DUP2 PUSH1 0x20 ADD JUMPDEST PUSH2 0xB97 PUSH2 0x1FEF JUMP JUMPDEST DUP2 MSTORE PUSH1 0x20 ADD SWAP1 PUSH1 0x1 SWAP1 SUB SWAP1 DUP2 PUSH2 0xB8F JUMPI SWAP1 POP JUMPDEST POP SWAP2 POP PUSH1 0x0 PUSH1 0x1 JUMPDEST PUSH1 0x2 SLOAD DUP2 GT PUSH2 0x10F6 JUMPI PUSH1 0x0 DUP2 DUP2 MSTORE PUSH1 0x5 PUSH1 0x20 MSTORE PUSH1 0x40 SWAP1 KECCAK256 PUSH1 0xC ADD SLOAD PUSH1 0xFF AND PUSH2 0x10E4 JUMPI PUSH1 0x5 PUSH1 0x0 DUP3 DUP2 MSTORE PUSH1 0x20 ADD SWAP1 DUP2 MSTORE PUSH1 0x20 ADD PUSH1 0x0 KECCAK256 PUSH1 0x40 MLOAD DUP1 PUSH2 0x1A0 ADD PUSH1 0x40 MSTORE SWAP1 DUP2 PUSH1 0x0 DUP3 ADD SLOAD DUP2 MSTORE PUSH1 0x20 ADD PUSH1 0x1 DUP3 ADD DUP1 SLOAD PUSH2 0xC0D SWAP1 PUSH2 0x27AF JUMP JUMPDEST DUP1 PUSH1 0x1F ADD PUSH1 0x20 DUP1 SWAP2 DIV MUL PUSH1 0x20 ADD PUSH1 0x40 MLOAD SWAP1 DUP2 ADD PUSH1 0x40 MSTORE DUP1 SWAP3 SWAP2 SWAP1 DUP2 DUP2 MSTORE PUSH1 0x20 ADD DUP3 DUP1 SLOAD PUSH2 0xC39 SWAP1 PUSH2 0x27AF JUMP JUMPDEST DUP1 ISZERO PUSH2 0xC86 JUMPI DUP1 PUSH1 0x1F LT PUSH2 0xC5B JUMPI PUSH2 0x100 DUP1 DUP4 SLOAD DIV MUL DUP4 MSTORE SWAP2 PUSH1 0x20 ADD SWAP2 PUSH2 0xC86 JUMP JUMPDEST DUP3 ADD SWAP2 SWAP1 PUSH1 0x0 MSTORE PUSH1 0x20 PUSH1 0x0 KECCAK256 SWAP1 JUMPDEST DUP2 SLOAD DUP2 MSTORE SWAP1 PUSH1 0x1 ADD SWAP1 PUSH1 0x20 ADD DUP1 DUP4 GT PUSH2 0xC69 JUMPI DUP3 SWAP1 SUB PUSH1 0x1F AND DUP3 ADD SWAP2 JUMPDEST POP POP POP POP POP DUP2 MSTORE PUSH1 0x20 ADD PUSH1 0x2 DUP3 ADD DUP1 SLOAD PUSH2 0xC9F SWAP1 PUSH2 0x27AF JUMP JUMPDEST DUP1 PUSH1 0x1F ADD PUSH1 0x20 DUP1 SWAP2 DIV MUL PUSH1 0x20 ADD PUSH1 0x40 MLOAD SWAP1 DUP2 ADD PUSH1 0x40 MSTORE DUP1 SWAP3 SWAP2 SWAP1 DUP2 DUP2 MSTORE PUSH1 0x20 ADD DUP3 DUP1 SLOAD PUSH2 0xCCB SWAP1 PUSH2 0x27AF JUMP JUMPDEST DUP1 ISZERO PUSH2 0xD18 JUMPI DUP1 PUSH1 0x1F LT PUSH2 0xCED JUMPI PUSH2 0x100 DUP1 DUP4 SLOAD DIV MUL DUP4 MSTORE SWAP2 PUSH1 0x20 ADD SWAP2 PUSH2 0xD18 JUMP JUMPDEST DUP3 ADD SWAP2 SWAP1 PUSH1 0x0 MSTORE PUSH1 0x20 PUSH1 0x0 KECCAK256 SWAP1 JUMPDEST DUP2 SLOAD DUP2 MSTORE SWAP1 PUSH1 0x1 ADD SWAP1 PUSH1 0x20 ADD DUP1 DUP4 GT PUSH2 0xCFB JUMPI DUP3 SWAP1 SUB PUSH1 0x1F AND DUP3 ADD SWAP2 JUMPDEST POP POP POP POP POP DUP2 MSTORE PUSH1 0x20 ADD PUSH1 0x3 DUP3 ADD DUP1 SLOAD PUSH2 0xD31 SWAP1 PUSH2 0x27AF JUMP JUMPDEST DUP1 PUSH1 0x1F ADD PUSH1 0x20 DUP1 SWAP2 DIV MUL PUSH1 0x20 ADD PUSH1 0x40 MLOAD SWAP1 DUP2 ADD PUSH1 0x40 MSTORE DUP1 SWAP3 SWAP2 SWAP1 DUP2 DUP2 MSTORE PUSH1 0x20 ADD DUP3 DUP1 SLOAD PUSH2 0xD5D SWAP1 PUSH2 0x27AF JUMP JUMPDEST DUP1 ISZERO PUSH2 0xDAA JUMPI DUP1 PUSH1 0x1F LT PUSH2 0xD7F JUMPI PUSH2 0x100 DUP1 DUP4 SLOAD DIV MUL DUP4 MSTORE SWAP2 PUSH1 0x20 ADD SWAP2 PUSH2 0xDAA JUMP JUMPDEST DUP3 ADD SWAP2 SWAP1 PUSH1 0x0 MSTORE PUSH1 0x20 PUSH1 0x0 KECCAK256 SWAP1 JUMPDEST DUP2 SLOAD DUP2 MSTORE SWAP1 PUSH1 0x1 ADD SWAP1 PUSH1 0x20 ADD DUP1 DUP4 GT PUSH2 0xD8D JUMPI DUP3 SWAP1 SUB PUSH1 0x1F AND DUP3 ADD SWAP2 JUMPDEST POP POP POP POP POP DUP2 MSTORE PUSH1 0x20 ADD PUSH1 0x4 DUP3 ADD DUP1 SLOAD PUSH2 0xDC3 SWAP1 PUSH2 0x27AF JUMP JUMPDEST DUP1 PUSH1 0x1F ADD PUSH1 0x20 DUP1 SWAP2 DIV MUL PUSH1 0x20 ADD PUSH1 0x40 MLOAD SWAP1 DUP2 ADD PUSH1 0x40 MSTORE DUP1 SWAP3 SWAP2 SWAP1 DUP2 DUP2 MSTORE PUSH1 0x20 ADD DUP3 DUP1 SLOAD PUSH2 0xDEF SWAP1 PUSH2 0x27AF JUMP JUMPDEST DUP1 ISZERO PUSH2 0xE3C JUMPI DUP1 PUSH1 0x1F LT PUSH2 0xE11 JUMPI PUSH2 0x100 DUP1 DUP4 SLOAD DIV MUL DUP4 MSTORE SWAP2 PUSH1 0x20 ADD SWAP2 PUSH2 0xE3C JUMP JUMPDEST DUP3 ADD SWAP2 SWAP1 PUSH1 0x0 MSTORE PUSH1 0x20 PUSH1 0x0 KECCAK256 SWAP1 JUMPDEST DUP2 SLOAD DUP2 MSTORE SWAP1 PUSH1 0x1 ADD SWAP1 PUSH1 0x20 ADD DUP1 DUP4 GT PUSH2 0xE1F JUMPI DUP3 SWAP1 SUB PUSH1 0x1F AND DUP3 ADD SWAP2 JUMPDEST POP POP POP POP POP DUP2 MSTORE PUSH1 0x20 ADD PUSH1 0x5 DUP3 ADD DUP1 SLOAD PUSH2 0xE55 SWAP1 PUSH2 0x27AF JUMP JUMPDEST DUP1 PUSH1 0x1F ADD PUSH1 0x20 DUP1 SWAP2 DIV MUL PUSH1 0x20 ADD PUSH1 0x40 MLOAD SWAP1 DUP2 ADD PUSH1 0x40 MSTORE DUP1 SWAP3 SWAP2 SWAP1 DUP2 DUP2 MSTORE PUSH1 0x20 ADD DUP3 DUP1 SLOAD PUSH2 0xE81 SWAP1 PUSH2 0x27AF JUMP JUMPDEST DUP1 ISZERO PUSH2 0xECE JUMPI DUP1 PUSH1 0x1F LT PUSH2 0xEA3 JUMPI PUSH2 0x100 DUP1 DUP4 SLOAD DIV MUL DUP4 MSTORE SWAP2 PUSH1 0x20 ADD SWAP2 PUSH2 0xECE JUMP JUMPDEST DUP3 ADD SWAP2 SWAP1 PUSH1 0x0 MSTORE PUSH1 0x20 PUSH1 0x0 KECCAK256 SWAP1 JUMPDEST DUP2 SLOAD DUP2 MSTORE SWAP1 PUSH1 0x1 ADD SWAP1 PUSH1 0x20 ADD DUP1 DUP4 GT PUSH2 0xEB1 JUMPI DUP3 SWAP1 SUB PUSH1 0x1F AND DUP3 ADD SWAP2 JUMPDEST POP POP POP POP POP DUP2 MSTORE PUSH1 0x20 ADD PUSH1 0x6 DUP3 ADD DUP1 SLOAD PUSH2 0xEE7 SWAP1 PUSH2 0x27AF JUMP JUMPDEST DUP1 PUSH1 0x1F ADD PUSH1 0x20 DUP1 SWAP2 DIV MUL PUSH1 0x20 ADD PUSH1 0x40 MLOAD SWAP1 DUP2 ADD PUSH1 0x40 MSTORE DUP1 SWAP3 SWAP2 SWAP1 DUP2 DUP2 MSTORE PUSH1 0x20 ADD DUP3 DUP1 SLOAD PUSH2 0xF13 SWAP1 PUSH2 0x27AF JUMP JUMPDEST DUP1 ISZERO PUSH2 0xF60 JUMPI DUP1 PUSH1 0x1F LT PUSH2 0xF35 JUMPI PUSH2 0x100 DUP1 DUP4 SLOAD DIV MUL DUP4 MSTORE SWAP2 PUSH1 0x20 ADD SWAP2 PUSH2 0xF60 JUMP JUMPDEST DUP3 ADD SWAP2 SWAP1 PUSH1 0x0 MSTORE PUSH1 0x20 PUSH1 0x0 KECCAK256 SWAP1 JUMPDEST DUP2 SLOAD DUP2 MSTORE SWAP1 PUSH1 0x1 ADD SWAP1 PUSH1 0x20 ADD DUP1 DUP4 GT PUSH2 0xF43 JUMPI DUP3 SWAP1 SUB PUSH1 0x1F AND DUP3 ADD SWAP2 JUMPDEST POP POP POP POP POP DUP2 MSTORE PUSH1 0x20 ADD PUSH1 0x7 DUP3 ADD DUP1 SLOAD PUSH2 0xF79 SWAP1 PUSH2 0x27AF JUMP JUMPDEST DUP1 PUSH1 0x1F ADD PUSH1 0x20 DUP1 SWAP2 DIV MUL PUSH1 0x20 ADD PUSH1 0x40 MLOAD SWAP1 DUP2 ADD PUSH1 0x40 MSTORE DUP1 SWAP3 SWAP2 SWAP1 DUP2 DUP2 MSTORE PUSH1 0x20 ADD DUP3 DUP1 SLOAD PUSH2 0xFA5 SWAP1 PUSH2 0x27AF JUMP JUMPDEST DUP1 ISZERO PUSH2 0xFF2 JUMPI DUP1 PUSH1 0x1F LT PUSH2 0xFC7 JUMPI PUSH2 0x100 DUP1 DUP4 SLOAD DIV MUL DUP4 MSTORE SWAP2 PUSH1 0x20 ADD SWAP2 PUSH2 0xFF2 JUMP JUMPDEST DUP3 ADD SWAP2 SWAP1 PUSH1 0x0 MSTORE PUSH1 0x20 PUSH1 0x0 KECCAK256 SWAP1 JUMPDEST DUP2 SLOAD DUP2 MSTORE SWAP1 PUSH1 0x1 ADD SWAP1 PUSH1 0x20 ADD DUP1 DUP4 GT PUSH2 0xFD5 JUMPI DUP3 SWAP1 SUB PUSH1 0x1F AND DUP3 ADD SWAP2 JUMPDEST POP POP POP POP POP DUP2 MSTORE PUSH1 0x20 ADD PUSH1 0x8 DUP3 ADD DUP1 SLOAD PUSH2 0x100B SWAP1 PUSH2 0x27AF JUMP JUMPDEST DUP1 PUSH1 0x1F ADD PUSH1 0x20 DUP1 SWAP2 DIV MUL PUSH1 0x20 ADD PUSH1 0x40 MLOAD SWAP1 DUP2 ADD PUSH1 0x40 MSTORE DUP1 SWAP3 SWAP2 SWAP1 DUP2 DUP2 MSTORE PUSH1 0x20 ADD DUP3 DUP1 SLOAD PUSH2 0x1037 SWAP1 PUSH2 0x27AF JUMP JUMPDEST DUP1 ISZERO PUSH2 0x1084 JUMPI DUP1 PUSH1 0x1F LT PUSH2 0x1059 JUMPI PUSH2 0x100 DUP1 DUP4 SLOAD DIV MUL DUP4 MSTORE SWAP2 PUSH1 0x20 ADD SWAP2 PUSH2 0x1084 JUMP JUMPDEST DUP3 ADD SWAP2 SWAP1 PUSH1 0x0 MSTORE PUSH1 0x20 PUSH1 0x0 KECCAK256 SWAP1 JUMPDEST DUP2 SLOAD DUP2 MSTORE SWAP1 PUSH1 0x1 ADD SWAP1 PUSH1 0x20 ADD DUP1 DUP4 GT PUSH2 0x1067 JUMPI DUP3 SWAP1 SUB PUSH1 0x1F AND DUP3 ADD SWAP2 JUMPDEST POP POP POP SWAP2 DUP4 MSTORE POP POP PUSH1 0x9 DUP3 ADD SLOAD PUSH1 0x20 DUP3 ADD MSTORE PUSH1 0xA DUP3 ADD SLOAD PUSH1 0x40 DUP3 ADD MSTORE PUSH1 0xB DUP3 ADD SLOAD PUSH1 0x60 DUP3 ADD MSTORE PUSH1 0xC SWAP1 SWAP2 ADD SLOAD PUSH1 0xFF AND ISZERO ISZERO PUSH1 0x80 SWAP1 SWAP2 ADD MSTORE DUP5 DUP4 PUSH2 0x10C6 DUP2 PUSH2 0x282D JUMP JUMPDEST SWAP5 POP DUP2 MLOAD DUP2 LT PUSH2 0x10D8 JUMPI PUSH2 0x10D8 PUSH2 0x2846 JUMP JUMPDEST PUSH1 0x20 MUL PUSH1 0x20 ADD ADD DUP2 SWAP1 MSTORE POP JUMPDEST DUP1 PUSH2 0x10EE DUP2 PUSH2 0x282D JUMP JUMPDEST SWAP2 POP POP PUSH2 0xBB2 JUMP JUMPDEST POP POP POP SWAP1 JUMP JUMPDEST PUSH1 0x0 DUP3 DUP2 MSTORE PUSH1 0x1 PUSH1 0x20 DUP2 SWAP1 MSTORE PUSH1 0x40 SWAP1 SWAP2 KECCAK256 ADD SLOAD PUSH2 0x1118 DUP2 PUSH2 0x1D01 JUMP JUMPDEST PUSH2 0x1122 DUP4 DUP4 PUSH2 0x1D0B JUMP JUMPDEST POP POP POP JUMP JUMPDEST PUSH2 0x112F PUSH2 0x1C36 JUMP JUMPDEST PUSH1 0x0 DUP12 DUP2 MSTORE PUSH1 0x4 PUSH1 0x20 MSTORE PUSH1 0x40 SWAP1 KECCAK256 SLOAD PUSH1 0xFF AND PUSH2 0x115D JUMPI PUSH1 0x40 MLOAD PUSH3 0x461BCD PUSH1 0xE5 SHL DUP2 MSTORE PUSH1 0x4 ADD PUSH2 0x92E SWAP1 PUSH2 0x27E9 JUMP JUMPDEST PUSH1 0x0 DUP12 DUP2 MSTORE PUSH1 0x5 PUSH1 0x20 MSTORE PUSH1 0x40 SWAP1 KECCAK256 PUSH1 0x1 ADD PUSH2 0x1178 DUP12 DUP3 PUSH2 0x28AA JUMP JUMPDEST POP PUSH1 0x0 DUP12 DUP2 MSTORE PUSH1 0x5 PUSH1 0x20 MSTORE PUSH1 0x40 SWAP1 KECCAK256 PUSH1 0x2 ADD PUSH2 0x1194 DUP11 DUP3 PUSH2 0x28AA JUMP JUMPDEST POP PUSH1 0x0 DUP12 DUP2 MSTORE PUSH1 0x5 PUSH1 0x20 MSTORE PUSH1 0x40 SWAP1 KECCAK256 PUSH1 0x3 ADD PUSH2 0x11B0 DUP10 DUP3 PUSH2 0x28AA JUMP JUMPDEST POP PUSH1 0x0 DUP12 DUP2 MSTORE PUSH1 0x5 PUSH1 0x20 MSTORE PUSH1 0x40 SWAP1 KECCAK256 PUSH1 0x4 ADD PUSH2 0x11CC DUP9 DUP3 PUSH2 0x28AA JUMP JUMPDEST POP PUSH1 0x0 DUP12 DUP2 MSTORE PUSH1 0x5 PUSH1 0x20 DUP2 SWAP1 MSTORE PUSH1 0x40 SWAP1 SWAP2 KECCAK256 ADD PUSH2 0x11E9 DUP8 DUP3 PUSH2 0x28AA JUMP JUMPDEST POP PUSH1 0x0 DUP12 DUP2 MSTORE PUSH1 0x5 PUSH1 0x20 MSTORE PUSH1 0x40 SWAP1 KECCAK256 PUSH1 0x6 ADD PUSH2 0x1205 DUP7 DUP3 PUSH2 0x28AA JUMP JUMPDEST POP PUSH1 0x0 DUP12 DUP2 MSTORE PUSH1 0x5 PUSH1 0x20 MSTORE PUSH1 0x40 SWAP1 KECCAK256 PUSH1 0x7 ADD PUSH2 0x1221 DUP6 DUP3 PUSH2 0x28AA JUMP JUMPDEST POP PUSH1 0x0 DUP12 DUP2 MSTORE PUSH1 0x5 PUSH1 0x20 MSTORE PUSH1 0x40 SWAP1 KECCAK256 PUSH1 0x8 ADD PUSH2 0x123D DUP5 DUP3 PUSH2 0x28AA JUMP JUMPDEST POP PUSH1 0x0 DUP12 DUP2 MSTORE PUSH1 0x5 PUSH1 0x20 MSTORE PUSH1 0x40 SWAP1 DUP2 SWAP1 KECCAK256 PUSH1 0x9 DUP2 ADD DUP5 SWAP1 SSTORE PUSH1 0xA ADD DUP3 SWAP1 SSTORE MLOAD PUSH1 0x0 DUP1 MLOAD PUSH1 0x20 PUSH2 0x2A54 DUP4 CODECOPY DUP2 MLOAD SWAP2 MSTORE SWAP1 PUSH2 0x1297 SWAP1 PUSH1 0x20 DUP1 DUP3 MSTORE PUSH1 0xD SWAP1 DUP3 ADD MSTORE PUSH13 0x135BDD9A59481D5C19185D1959 PUSH1 0x9A SHL PUSH1 0x40 DUP3 ADD MSTORE PUSH1 0x60 ADD SWAP1 JUMP JUMPDEST PUSH1 0x40 MLOAD DUP1 SWAP2 SUB SWAP1 LOG1 POP POP POP POP POP POP POP POP POP POP POP JUMP JUMPDEST PUSH1 0x1 PUSH1 0x1 PUSH1 0xA0 SHL SUB DUP2 AND CALLER EQ PUSH2 0x131C JUMPI PUSH1 0x40 MLOAD PUSH3 0x461BCD PUSH1 0xE5 SHL DUP2 MSTORE PUSH1 0x20 PUSH1 0x4 DUP3 ADD MSTORE PUSH1 0x2F PUSH1 0x24 DUP3 ADD MSTORE PUSH32 0x416363657373436F6E74726F6C3A2063616E206F6E6C792072656E6F756E6365 PUSH1 0x44 DUP3 ADD MSTORE PUSH15 0x103937B632B9903337B91039B2B633 PUSH1 0x89 SHL PUSH1 0x64 DUP3 ADD MSTORE PUSH1 0x84 ADD PUSH2 0x92E JUMP JUMPDEST PUSH2 0x1326 DUP3 DUP3 PUSH2 0x1C9A JUMP JUMPDEST POP POP JUMP JUMPDEST PUSH2 0x1342 PUSH1 0x0 DUP1 MLOAD PUSH1 0x20 PUSH2 0x2A34 DUP4 CODECOPY DUP2 MLOAD SWAP2 MSTORE CALLER PUSH2 0x18C1 JUMP JUMPDEST PUSH2 0x138E JUMPI PUSH1 0x40 MLOAD PUSH3 0x461BCD PUSH1 0xE5 SHL DUP2 MSTORE PUSH1 0x20 PUSH1 0x4 DUP3 ADD MSTORE PUSH1 0x1F PUSH1 0x24 DUP3 ADD MSTORE PUSH32 0x43616C6C6572206973206E6F742061207469636B657420636F6E747261637400 PUSH1 0x44 DUP3 ADD MSTORE PUSH1 0x64 ADD PUSH2 0x92E JUMP JUMPDEST PUSH1 0x0 DUP2 DUP2 MSTORE PUSH1 0x6 PUSH1 0x20 MSTORE PUSH1 0x40 SWAP1 DUP2 SWAP1 KECCAK256 PUSH1 0x7 ADD DUP1 SLOAD PUSH1 0xFF NOT AND PUSH1 0x1 OR SWAP1 SSTORE MLOAD PUSH1 0x0 DUP1 MLOAD PUSH1 0x20 PUSH2 0x2A54 DUP4 CODECOPY DUP2 MLOAD SWAP2 MSTORE SWAP1 PUSH2 0x13EB SWAP1 PUSH1 0x20 DUP1 DUP3 MSTORE PUSH1 0x10 SWAP1 DUP3 ADD MSTORE PUSH16 0x151A5B595CDB1BDD0819195B195D1959 PUSH1 0x82 SHL PUSH1 0x40 DUP3 ADD MSTORE PUSH1 0x60 ADD SWAP1 JUMP JUMPDEST PUSH1 0x40 MLOAD DUP1 SWAP2 SUB SWAP1 LOG1 POP JUMP JUMPDEST PUSH2 0x13FE PUSH2 0x1C36 JUMP JUMPDEST PUSH1 0x0 DUP2 DUP2 MSTORE PUSH1 0x4 PUSH1 0x20 MSTORE PUSH1 0x40 SWAP1 KECCAK256 SLOAD PUSH1 0xFF AND PUSH2 0x142C JUMPI PUSH1 0x40 MLOAD PUSH3 0x461BCD PUSH1 0xE5 SHL DUP2 MSTORE PUSH1 0x4 ADD PUSH2 0x92E SWAP1 PUSH2 0x27E9 JUMP JUMPDEST PUSH1 0x0 DUP2 DUP2 MSTORE PUSH1 0x5 PUSH1 0x20 SWAP1 DUP2 MSTORE PUSH1 0x40 DUP1 DUP4 KECCAK256 PUSH1 0xC ADD DUP1 SLOAD PUSH1 0xFF NOT SWAP1 DUP2 AND PUSH1 0x1 OR SWAP1 SWAP2 SSTORE PUSH1 0x4 SWAP1 SWAP3 MSTORE SWAP2 DUP3 SWAP1 KECCAK256 DUP1 SLOAD SWAP1 SWAP2 AND SWAP1 SSTORE MLOAD PUSH1 0x0 DUP1 MLOAD PUSH1 0x20 PUSH2 0x2A54 DUP4 CODECOPY DUP2 MLOAD SWAP2 MSTORE SWAP1 PUSH2 0x13EB SWAP1 PUSH1 0x20 DUP1 DUP3 MSTORE PUSH1 0xD SWAP1 DUP3 ADD MSTORE PUSH13 0x135BDD9A594819195B195D1959 PUSH1 0x9A SHL PUSH1 0x40 DUP3 ADD MSTORE PUSH1 0x60 ADD SWAP1 JUMP JUMPDEST PUSH2 0x14A2 PUSH2 0x1C36 JUMP JUMPDEST PUSH2 0x14AC PUSH1 0x0 PUSH2 0x1D76 JUMP JUMPDEST JUMP JUMPDEST PUSH2 0x14B6 PUSH2 0x1C36 JUMP JUMPDEST PUSH2 0x14C4 PUSH1 0x2 DUP1 SLOAD PUSH1 0x1 ADD SWAP1 SSTORE JUMP JUMPDEST PUSH1 0x0 PUSH2 0x14CF PUSH1 0x2 SLOAD SWAP1 JUMP JUMPDEST SWAP1 POP PUSH2 0x14D9 PUSH2 0x1FEF JUMP JUMPDEST DUP2 DUP2 MSTORE PUSH1 0x20 DUP2 ADD DUP13 SWAP1 MSTORE PUSH1 0x40 DUP2 ADD DUP12 SWAP1 MSTORE PUSH1 0x60 DUP2 ADD DUP11 SWAP1 MSTORE PUSH1 0x80 DUP2 ADD DUP10 SWAP1 MSTORE PUSH1 0xA0 DUP2 ADD DUP9 SWAP1 MSTORE PUSH1 0xC0 DUP2 ADD DUP8 SWAP1 MSTORE PUSH1 0xE0 DUP2 ADD DUP7 SWAP1 MSTORE PUSH2 0x100 DUP2 ADD DUP6 SWAP1 MSTORE PUSH2 0x120 DUP2 ADD DUP5 SWAP1 MSTORE PUSH2 0x140 DUP2 ADD DUP4 SWAP1 MSTORE PUSH2 0x152D PUSH2 0x1DC6 JUMP JUMPDEST PUSH2 0x160 DUP3 ADD MSTORE PUSH1 0x0 DUP3 DUP2 MSTORE PUSH1 0x5 PUSH1 0x20 SWAP1 DUP2 MSTORE PUSH1 0x40 SWAP1 SWAP2 KECCAK256 DUP3 MLOAD DUP2 SSTORE SWAP1 DUP3 ADD MLOAD DUP3 SWAP2 SWAP1 PUSH1 0x1 DUP3 ADD SWAP1 PUSH2 0x155E SWAP1 DUP3 PUSH2 0x28AA JUMP JUMPDEST POP PUSH1 0x40 DUP3 ADD MLOAD PUSH1 0x2 DUP3 ADD SWAP1 PUSH2 0x1573 SWAP1 DUP3 PUSH2 0x28AA JUMP JUMPDEST POP PUSH1 0x60 DUP3 ADD MLOAD PUSH1 0x3 DUP3 ADD SWAP1 PUSH2 0x1588 SWAP1 DUP3 PUSH2 0x28AA JUMP JUMPDEST POP PUSH1 0x80 DUP3 ADD MLOAD PUSH1 0x4 DUP3 ADD SWAP1 PUSH2 0x159D SWAP1 DUP3 PUSH2 0x28AA JUMP JUMPDEST POP PUSH1 0xA0 DUP3 ADD MLOAD PUSH1 0x5 DUP3 ADD SWAP1 PUSH2 0x15B2 SWAP1 DUP3 PUSH2 0x28AA JUMP JUMPDEST POP PUSH1 0xC0 DUP3 ADD MLOAD PUSH1 0x6 DUP3 ADD SWAP1 PUSH2 0x15C7 SWAP1 DUP3 PUSH2 0x28AA JUMP JUMPDEST POP PUSH1 0xE0 DUP3 ADD MLOAD PUSH1 0x7 DUP3 ADD SWAP1 PUSH2 0x15DC SWAP1 DUP3 PUSH2 0x28AA JUMP JUMPDEST POP PUSH2 0x100 DUP3 ADD MLOAD PUSH1 0x8 DUP3 ADD SWAP1 PUSH2 0x15F2 SWAP1 DUP3 PUSH2 0x28AA JUMP JUMPDEST POP PUSH2 0x120 DUP3 ADD MLOAD PUSH1 0x9 DUP3 ADD SSTORE PUSH2 0x140 DUP3 ADD MLOAD PUSH1 0xA DUP3 ADD SSTORE PUSH2 0x160 DUP3 ADD MLOAD PUSH1 0xB DUP3 ADD SSTORE PUSH2 0x180 SWAP1 SWAP2 ADD MLOAD PUSH1 0xC SWAP1 SWAP2 ADD DUP1 SLOAD SWAP2 ISZERO ISZERO PUSH1 0xFF NOT SWAP3 DUP4 AND OR SWAP1 SSTORE PUSH1 0x0 DUP4 DUP2 MSTORE PUSH1 0x4 PUSH1 0x20 MSTORE PUSH1 0x40 SWAP1 DUP2 SWAP1 KECCAK256 DUP1 SLOAD SWAP1 SWAP3 AND PUSH1 0x1 OR SWAP1 SWAP2 SSTORE MLOAD PUSH1 0x0 DUP1 MLOAD PUSH1 0x20 PUSH2 0x2A54 DUP4 CODECOPY DUP2 MLOAD SWAP2 MSTORE SWAP1 PUSH2 0x1683 SWAP1 PUSH1 0x20 DUP1 DUP3 MSTORE PUSH1 0xB SWAP1 DUP3 ADD MSTORE PUSH11 0x135BDD9A59481859191959 PUSH1 0xAA SHL PUSH1 0x40 DUP3 ADD MSTORE PUSH1 0x60 ADD SWAP1 JUMP JUMPDEST PUSH1 0x40 MLOAD DUP1 SWAP2 SUB SWAP1 LOG1 POP POP POP POP POP POP POP POP POP POP POP POP JUMP JUMPDEST PUSH1 0x60 PUSH1 0x0 DUP1 JUMPDEST PUSH1 0x3 SLOAD DUP2 LT ISZERO PUSH2 0x1720 JUMPI DUP4 PUSH1 0x6 PUSH1 0x0 PUSH2 0x16B9 DUP5 PUSH1 0x1 PUSH2 0x296A JUMP JUMPDEST DUP2 MSTORE PUSH1 0x20 ADD SWAP1 DUP2 MSTORE PUSH1 0x20 ADD PUSH1 0x0 KECCAK256 PUSH1 0x1 ADD SLOAD EQ DUP1 ISZERO PUSH2 0x16FB JUMPI POP PUSH1 0x6 PUSH1 0x0 PUSH2 0x16E2 DUP4 PUSH1 0x1 PUSH2 0x296A JUMP JUMPDEST DUP2 MSTORE PUSH1 0x20 DUP2 ADD SWAP2 SWAP1 SWAP2 MSTORE PUSH1 0x40 ADD PUSH1 0x0 KECCAK256 PUSH1 0x7 ADD SLOAD PUSH1 0xFF AND ISZERO JUMPDEST ISZERO PUSH2 0x170E JUMPI DUP2 PUSH2 0x170A DUP2 PUSH2 0x282D JUMP JUMPDEST SWAP3 POP POP JUMPDEST DUP1 PUSH2 0x1718 DUP2 PUSH2 0x282D JUMP JUMPDEST SWAP2 POP POP PUSH2 0x169F JUMP JUMPDEST POP DUP1 PUSH8 0xFFFFFFFFFFFFFFFF DUP2 GT ISZERO PUSH2 0x173A JUMPI PUSH2 0x173A PUSH2 0x23FE JUMP JUMPDEST PUSH1 0x40 MLOAD SWAP1 DUP1 DUP3 MSTORE DUP1 PUSH1 0x20 MUL PUSH1 0x20 ADD DUP3 ADD PUSH1 0x40 MSTORE DUP1 ISZERO PUSH2 0x1773 JUMPI DUP2 PUSH1 0x20 ADD JUMPDEST PUSH2 0x1760 PUSH2 0x2059 JUMP JUMPDEST DUP2 MSTORE PUSH1 0x20 ADD SWAP1 PUSH1 0x1 SWAP1 SUB SWAP1 DUP2 PUSH2 0x1758 JUMPI SWAP1 POP JUMPDEST POP SWAP2 POP PUSH1 0x0 DUP1 JUMPDEST PUSH1 0x3 SLOAD DUP2 LT ISZERO PUSH2 0x18B9 JUMPI DUP5 PUSH1 0x6 PUSH1 0x0 PUSH2 0x1794 DUP5 PUSH1 0x1 PUSH2 0x296A JUMP JUMPDEST DUP2 MSTORE PUSH1 0x20 ADD SWAP1 DUP2 MSTORE PUSH1 0x20 ADD PUSH1 0x0 KECCAK256 PUSH1 0x1 ADD SLOAD EQ DUP1 ISZERO PUSH2 0x17D6 JUMPI POP PUSH1 0x6 PUSH1 0x0 PUSH2 0x17BD DUP4 PUSH1 0x1 PUSH2 0x296A JUMP JUMPDEST DUP2 MSTORE PUSH1 0x20 DUP2 ADD SWAP2 SWAP1 SWAP2 MSTORE PUSH1 0x40 ADD PUSH1 0x0 KECCAK256 PUSH1 0x7 ADD SLOAD PUSH1 0xFF AND ISZERO JUMPDEST ISZERO PUSH2 0x18A7 JUMPI PUSH1 0x6 PUSH1 0x0 PUSH2 0x17EA DUP4 PUSH1 0x1 PUSH2 0x296A JUMP JUMPDEST DUP2 MSTORE PUSH1 0x20 DUP1 DUP3 ADD SWAP3 SWAP1 SWAP3 MSTORE PUSH1 0x40 SWAP1 DUP2 ADD PUSH1 0x0 KECCAK256 DUP2 MLOAD PUSH2 0x160 DUP2 ADD DUP4 MSTORE DUP2 SLOAD DUP2 MSTORE PUSH1 0x1 DUP3 ADD SLOAD SWAP4 DUP2 ADD SWAP4 SWAP1 SWAP4 MSTORE PUSH1 0x2 DUP2 ADD SLOAD SWAP2 DUP4 ADD SWAP2 SWAP1 SWAP2 MSTORE PUSH1 0x3 DUP2 ADD SLOAD PUSH1 0x60 DUP4 ADD MSTORE PUSH1 0x4 DUP2 ADD SLOAD PUSH1 0x80 DUP4 ADD MSTORE PUSH1 0x5 DUP2 ADD SLOAD PUSH1 0xA0 DUP4 ADD MSTORE PUSH1 0x6 DUP2 ADD SLOAD PUSH1 0xC0 DUP4 ADD MSTORE PUSH1 0x7 DUP2 ADD SLOAD PUSH1 0xFF DUP1 DUP3 AND ISZERO ISZERO PUSH1 0xE0 DUP6 ADD MSTORE PUSH2 0x100 SWAP2 DUP3 SWAP1 DIV AND ISZERO ISZERO SWAP1 DUP4 ADD MSTORE PUSH1 0x8 DUP2 ADD SLOAD PUSH2 0x120 DUP4 ADD MSTORE PUSH1 0x9 ADD SLOAD PUSH2 0x140 DUP3 ADD MSTORE DUP5 DUP4 PUSH2 0x1889 DUP2 PUSH2 0x282D JUMP JUMPDEST SWAP5 POP DUP2 MLOAD DUP2 LT PUSH2 0x189B JUMPI PUSH2 0x189B PUSH2 0x2846 JUMP JUMPDEST PUSH1 0x20 MUL PUSH1 0x20 ADD ADD DUP2 SWAP1 MSTORE POP JUMPDEST DUP1 PUSH2 0x18B1 DUP2 PUSH2 0x282D JUMP JUMPDEST SWAP2 POP POP PUSH2 0x177A JUMP JUMPDEST POP POP POP SWAP2 SWAP1 POP JUMP JUMPDEST PUSH1 0x0 SWAP2 DUP3 MSTORE PUSH1 0x1 PUSH1 0x20 SWAP1 DUP2 MSTORE PUSH1 0x40 DUP1 DUP5 KECCAK256 PUSH1 0x1 PUSH1 0x1 PUSH1 0xA0 SHL SUB SWAP4 SWAP1 SWAP4 AND DUP5 MSTORE SWAP2 SWAP1 MSTORE SWAP1 KECCAK256 SLOAD PUSH1 0xFF AND SWAP1 JUMP JUMPDEST PUSH2 0x1904 PUSH1 0x0 DUP1 MLOAD PUSH1 0x20 PUSH2 0x2A34 DUP4 CODECOPY DUP2 MLOAD SWAP2 MSTORE CALLER PUSH2 0x18C1 JUMP JUMPDEST PUSH2 0x1950 JUMPI PUSH1 0x40 MLOAD PUSH3 0x461BCD PUSH1 0xE5 SHL DUP2 MSTORE PUSH1 0x20 PUSH1 0x4 DUP3 ADD MSTORE PUSH1 0x1F PUSH1 0x24 DUP3 ADD MSTORE PUSH32 0x43616C6C6572206973206E6F742061207469636B657420636F6E747261637400 PUSH1 0x44 DUP3 ADD MSTORE PUSH1 0x64 ADD PUSH2 0x92E JUMP JUMPDEST PUSH1 0x0 DUP2 DUP2 MSTORE PUSH1 0x6 PUSH1 0x20 MSTORE PUSH1 0x40 SWAP1 DUP2 SWAP1 KECCAK256 PUSH1 0x7 ADD DUP1 SLOAD PUSH2 0xFF00 NOT AND PUSH2 0x100 OR SWAP1 SSTORE MLOAD PUSH1 0x0 DUP1 MLOAD PUSH1 0x20 PUSH2 0x2A54 DUP4 CODECOPY DUP2 MLOAD SWAP2 MSTORE SWAP1 PUSH2 0x13EB SWAP1 PUSH1 0x20 DUP1 DUP3 MSTORE PUSH1 0x12 SWAP1 DUP3 ADD MSTORE PUSH18 0x151A5B595CDB1BDD0818DBDB5C1B195D1959 PUSH1 0x72 SHL PUSH1 0x40 DUP3 ADD MSTORE PUSH1 0x60 ADD SWAP1 JUMP JUMPDEST PUSH1 0x0 DUP3 DUP2 MSTORE PUSH1 0x1 PUSH1 0x20 DUP2 SWAP1 MSTORE PUSH1 0x40 SWAP1 SWAP2 KECCAK256 ADD SLOAD PUSH2 0x19CD DUP2 PUSH2 0x1D01 JUMP JUMPDEST PUSH2 0x1122 DUP4 DUP4 PUSH2 0x1C9A JUMP JUMPDEST PUSH1 0x60 PUSH1 0x0 DUP1 JUMPDEST PUSH1 0x3 SLOAD DUP2 LT ISZERO PUSH2 0x1A5E JUMPI DUP4 PUSH1 0x6 PUSH1 0x0 PUSH2 0x19F7 DUP5 PUSH1 0x1 PUSH2 0x296A JUMP JUMPDEST DUP2 MSTORE PUSH1 0x20 ADD SWAP1 DUP2 MSTORE PUSH1 0x20 ADD PUSH1 0x0 KECCAK256 PUSH1 0x8 ADD SLOAD EQ DUP1 ISZERO PUSH2 0x1A39 JUMPI POP PUSH1 0x6 PUSH1 0x0 PUSH2 0x1A20 DUP4 PUSH1 0x1 PUSH2 0x296A JUMP JUMPDEST DUP2 MSTORE PUSH1 0x20 DUP2 ADD SWAP2 SWAP1 SWAP2 MSTORE PUSH1 0x40 ADD PUSH1 0x0 KECCAK256 PUSH1 0x7 ADD SLOAD PUSH1 0xFF AND ISZERO JUMPDEST ISZERO PUSH2 0x1A4C JUMPI DUP2 PUSH2 0x1A48 DUP2 PUSH2 0x282D JUMP JUMPDEST SWAP3 POP POP JUMPDEST DUP1 PUSH2 0x1A56 DUP2 PUSH2 0x282D JUMP JUMPDEST SWAP2 POP POP PUSH2 0x19DD JUMP JUMPDEST POP DUP1 PUSH8 0xFFFFFFFFFFFFFFFF DUP2 GT ISZERO PUSH2 0x1A78 JUMPI PUSH2 0x1A78 PUSH2 0x23FE JUMP JUMPDEST PUSH1 0x40 MLOAD SWAP1 DUP1 DUP3 MSTORE DUP1 PUSH1 0x20 MUL PUSH1 0x20 ADD DUP3 ADD PUSH1 0x40 MSTORE DUP1 ISZERO PUSH2 0x1AB1 JUMPI DUP2 PUSH1 0x20 ADD JUMPDEST PUSH2 0x1A9E PUSH2 0x2059 JUMP JUMPDEST DUP2 MSTORE PUSH1 0x20 ADD SWAP1 PUSH1 0x1 SWAP1 SUB SWAP1 DUP2 PUSH2 0x1A96 JUMPI SWAP1 POP JUMPDEST POP SWAP2 POP PUSH1 0x0 DUP1 JUMPDEST PUSH1 0x3 SLOAD DUP2 LT ISZERO PUSH2 0x18B9 JUMPI DUP5 PUSH1 0x6 PUSH1 0x0 PUSH2 0x1AD2 DUP5 PUSH1 0x1 PUSH2 0x296A JUMP JUMPDEST DUP2 MSTORE PUSH1 0x20 ADD SWAP1 DUP2 MSTORE PUSH1 0x20 ADD PUSH1 0x0 KECCAK256 PUSH1 0x8 ADD SLOAD EQ DUP1 ISZERO PUSH2 0x1B14 JUMPI POP PUSH1 0x6 PUSH1 0x0 PUSH2 0x1AFB DUP4 PUSH1 0x1 PUSH2 0x296A JUMP JUMPDEST DUP2 MSTORE PUSH1 0x20 DUP2 ADD SWAP2 SWAP1 SWAP2 MSTORE PUSH1 0x40 ADD PUSH1 0x0 KECCAK256 PUSH1 0x7 ADD SLOAD PUSH1 0xFF AND ISZERO JUMPDEST ISZERO PUSH2 0x1BAB JUMPI PUSH1 0x6 PUSH1 0x0 PUSH2 0x1B28 DUP4 PUSH1 0x1 PUSH2 0x296A JUMP JUMPDEST DUP2 MSTORE PUSH1 0x20 ADD SWAP1 DUP2 MSTORE PUSH1 0x20 ADD PUSH1 0x0 KECCAK256 PUSH1 0x3 ADD SLOAD DUP5 DUP4 DUP2 MLOAD DUP2 LT PUSH2 0x1B4C JUMPI PUSH2 0x1B4C PUSH2 0x2846 JUMP JUMPDEST PUSH1 0x20 SWAP1 DUP2 MUL SWAP2 SWAP1 SWAP2 ADD ADD MLOAD PUSH1 0x60 ADD MSTORE PUSH1 0x6 PUSH1 0x0 PUSH2 0x1B6A DUP4 PUSH1 0x1 PUSH2 0x296A JUMP JUMPDEST DUP2 MSTORE PUSH1 0x20 ADD SWAP1 DUP2 MSTORE PUSH1 0x20 ADD PUSH1 0x0 KECCAK256 PUSH1 0x4 ADD SLOAD DUP5 DUP4 DUP1 PUSH2 0x1B88 SWAP1 PUSH2 0x282D JUMP JUMPDEST SWAP5 POP DUP2 MLOAD DUP2 LT PUSH2 0x1B9A JUMPI PUSH2 0x1B9A PUSH2 0x2846 JUMP JUMPDEST PUSH1 0x20 MUL PUSH1 0x20 ADD ADD MLOAD PUSH1 0x80 ADD DUP2 DUP2 MSTORE POP POP JUMPDEST DUP1 PUSH2 0x1BB5 DUP2 PUSH2 0x282D JUMP JUMPDEST SWAP2 POP POP PUSH2 0x1AB8 JUMP JUMPDEST PUSH2 0x1BC5 PUSH2 0x1C36 JUMP JUMPDEST PUSH1 0x1 PUSH1 0x1 PUSH1 0xA0 SHL SUB DUP2 AND PUSH2 0x1C2A JUMPI PUSH1 0x40 MLOAD PUSH3 0x461BCD PUSH1 0xE5 SHL DUP2 MSTORE PUSH1 0x20 PUSH1 0x4 DUP3 ADD MSTORE PUSH1 0x26 PUSH1 0x24 DUP3 ADD MSTORE PUSH32 0x4F776E61626C653A206E6577206F776E657220697320746865207A65726F2061 PUSH1 0x44 DUP3 ADD MSTORE PUSH6 0x646472657373 PUSH1 0xD0 SHL PUSH1 0x64 DUP3 ADD MSTORE PUSH1 0x84 ADD PUSH2 0x92E JUMP JUMPDEST PUSH2 0x1C33 DUP2 PUSH2 0x1D76 JUMP JUMPDEST POP JUMP JUMPDEST PUSH1 0x0 SLOAD PUSH1 0x1 PUSH1 0x1 PUSH1 0xA0 SHL SUB AND CALLER EQ PUSH2 0x14AC JUMPI PUSH1 0x40 MLOAD PUSH3 0x461BCD PUSH1 0xE5 SHL DUP2 MSTORE PUSH1 0x20 PUSH1 0x4 DUP3 ADD DUP2 SWAP1 MSTORE PUSH1 0x24 DUP3 ADD MSTORE PUSH32 0x4F776E61626C653A2063616C6C6572206973206E6F7420746865206F776E6572 PUSH1 0x44 DUP3 ADD MSTORE PUSH1 0x64 ADD PUSH2 0x92E JUMP JUMPDEST PUSH2 0x1326 DUP3 DUP3 PUSH2 0x1D0B JUMP JUMPDEST PUSH2 0x1CA4 DUP3 DUP3 PUSH2 0x18C1 JUMP JUMPDEST ISZERO PUSH2 0x1326 JUMPI PUSH1 0x0 DUP3 DUP2 MSTORE PUSH1 0x1 PUSH1 0x20 SWAP1 DUP2 MSTORE PUSH1 0x40 DUP1 DUP4 KECCAK256 PUSH1 0x1 PUSH1 0x1 PUSH1 0xA0 SHL SUB DUP6 AND DUP1 DUP6 MSTORE SWAP3 MSTORE DUP1 DUP4 KECCAK256 DUP1 SLOAD PUSH1 0xFF NOT AND SWAP1 SSTORE MLOAD CALLER SWAP3 DUP6 SWAP2 PUSH32 0xF6391F5C32D9C69D2A47EA670B442974B53935D1EDC7FD64EB21E047A839171B SWAP2 SWAP1 LOG4 POP POP JUMP JUMPDEST PUSH2 0x1C33 DUP2 CALLER PUSH2 0x1DE1 JUMP JUMPDEST PUSH2 0x1D15 DUP3 DUP3 PUSH2 0x18C1 JUMP JUMPDEST PUSH2 0x1326 JUMPI PUSH1 0x0 DUP3 DUP2 MSTORE PUSH1 0x1 PUSH1 0x20 DUP2 DUP2 MSTORE PUSH1 0x40 DUP1 DUP5 KECCAK256 PUSH1 0x1 PUSH1 0x1 PUSH1 0xA0 SHL SUB DUP7 AND DUP1 DUP7 MSTORE SWAP3 MSTORE DUP1 DUP5 KECCAK256 DUP1 SLOAD PUSH1 0xFF NOT AND SWAP1 SWAP4 OR SWAP1 SWAP3 SSTORE SWAP1 MLOAD CALLER SWAP3 DUP6 SWAP2 PUSH32 0x2F8788117E7EFF1D82E926EC794901D17C78024A50270940304540A733656F0D SWAP2 SWAP1 LOG4 POP POP JUMP JUMPDEST PUSH1 0x0 DUP1 SLOAD PUSH1 0x1 PUSH1 0x1 PUSH1 0xA0 SHL SUB DUP4 DUP2 AND PUSH1 0x1 PUSH1 0x1 PUSH1 0xA0 SHL SUB NOT DUP4 AND DUP2 OR DUP5 SSTORE PUSH1 0x40 MLOAD SWAP2 SWAP1 SWAP3 AND SWAP3 DUP4 SWAP2 PUSH32 0x8BE0079C531659141344CD1FD0A4F28419497F9722A3DAAFE3B4186F6B6457E0 SWAP2 SWAP1 LOG3 POP POP JUMP JUMPDEST PUSH1 0x0 DUP1 PUSH2 0x1DD5 TIMESTAMP PUSH2 0x3E8 PUSH2 0x297D JUMP JUMPDEST PUSH2 0x396 SWAP1 PUSH2 0x3E8 PUSH2 0x296A JUMP JUMPDEST PUSH2 0x1DEB DUP3 DUP3 PUSH2 0x18C1 JUMP JUMPDEST PUSH2 0x1326 JUMPI PUSH2 0x1DF8 DUP2 PUSH2 0x1E3A JUMP JUMPDEST PUSH2 0x1E03 DUP4 PUSH1 0x20 PUSH2 0x1E4C JUMP JUMPDEST PUSH1 0x40 MLOAD PUSH1 0x20 ADD PUSH2 0x1E14 SWAP3 SWAP2 SWAP1 PUSH2 0x2994 JUMP JUMPDEST PUSH1 0x40 DUP1 MLOAD PUSH1 0x1F NOT DUP2 DUP5 SUB ADD DUP2 MSTORE SWAP1 DUP3 SWAP1 MSTORE PUSH3 0x461BCD PUSH1 0xE5 SHL DUP3 MSTORE PUSH2 0x92E SWAP2 PUSH1 0x4 ADD PUSH2 0x2A09 JUMP JUMPDEST PUSH1 0x60 PUSH2 0x396 PUSH1 0x1 PUSH1 0x1 PUSH1 0xA0 SHL SUB DUP4 AND PUSH1 0x14 JUMPDEST PUSH1 0x60 PUSH1 0x0 PUSH2 0x1E5B DUP4 PUSH1 0x2 PUSH2 0x297D JUMP JUMPDEST PUSH2 0x1E66 SWAP1 PUSH1 0x2 PUSH2 0x296A JUMP JUMPDEST PUSH8 0xFFFFFFFFFFFFFFFF DUP2 GT ISZERO PUSH2 0x1E7E JUMPI PUSH2 0x1E7E PUSH2 0x23FE JUMP JUMPDEST PUSH1 0x40 MLOAD SWAP1 DUP1 DUP3 MSTORE DUP1 PUSH1 0x1F ADD PUSH1 0x1F NOT AND PUSH1 0x20 ADD DUP3 ADD PUSH1 0x40 MSTORE DUP1 ISZERO PUSH2 0x1EA8 JUMPI PUSH1 0x20 DUP3 ADD DUP2 DUP1 CALLDATASIZE DUP4 CALLDATACOPY ADD SWAP1 POP JUMPDEST POP SWAP1 POP PUSH1 0x3 PUSH1 0xFC SHL DUP2 PUSH1 0x0 DUP2 MLOAD DUP2 LT PUSH2 0x1EC3 JUMPI PUSH2 0x1EC3 PUSH2 0x2846 JUMP JUMPDEST PUSH1 0x20 ADD ADD SWAP1 PUSH1 0x1 PUSH1 0x1 PUSH1 0xF8 SHL SUB NOT AND SWAP1 DUP2 PUSH1 0x0 BYTE SWAP1 MSTORE8 POP PUSH1 0xF PUSH1 0xFB SHL DUP2 PUSH1 0x1 DUP2 MLOAD DUP2 LT PUSH2 0x1EF2 JUMPI PUSH2 0x1EF2 PUSH2 0x2846 JUMP JUMPDEST PUSH1 0x20 ADD ADD SWAP1 PUSH1 0x1 PUSH1 0x1 PUSH1 0xF8 SHL SUB NOT AND SWAP1 DUP2 PUSH1 0x0 BYTE SWAP1 MSTORE8 POP PUSH1 0x0 PUSH2 0x1F16 DUP5 PUSH1 0x2 PUSH2 0x297D JUMP JUMPDEST PUSH2 0x1F21 SWAP1 PUSH1 0x1 PUSH2 0x296A JUMP JUMPDEST SWAP1 POP JUMPDEST PUSH1 0x1 DUP2 GT ISZERO PUSH2 0x1F99 JUMPI PUSH16 0x181899199A1A9B1B9C1CB0B131B232B3 PUSH1 0x81 SHL DUP6 PUSH1 0xF AND PUSH1 0x10 DUP2 LT PUSH2 0x1F55 JUMPI PUSH2 0x1F55 PUSH2 0x2846 JUMP JUMPDEST BYTE PUSH1 0xF8 SHL DUP3 DUP3 DUP2 MLOAD DUP2 LT PUSH2 0x1F6B JUMPI PUSH2 0x1F6B PUSH2 0x2846 JUMP JUMPDEST PUSH1 0x20 ADD ADD SWAP1 PUSH1 0x1 PUSH1 0x1 PUSH1 0xF8 SHL SUB NOT AND SWAP1 DUP2 PUSH1 0x0 BYTE SWAP1 MSTORE8 POP PUSH1 0x4 SWAP5 SWAP1 SWAP5 SHR SWAP4 PUSH2 0x1F92 DUP2 PUSH2 0x2A1C JUMP JUMPDEST SWAP1 POP PUSH2 0x1F24 JUMP JUMPDEST POP DUP4 ISZERO PUSH2 0x1FE8 JUMPI PUSH1 0x40 MLOAD PUSH3 0x461BCD PUSH1 0xE5 SHL DUP2 MSTORE PUSH1 0x20 PUSH1 0x4 DUP3 ADD DUP2 SWAP1 MSTORE PUSH1 0x24 DUP3 ADD MSTORE PUSH32 0x537472696E67733A20686578206C656E67746820696E73756666696369656E74 PUSH1 0x44 DUP3 ADD MSTORE PUSH1 0x64 ADD PUSH2 0x92E JUMP JUMPDEST SWAP4 SWAP3 POP POP POP JUMP JUMPDEST PUSH1 0x40 MLOAD DUP1 PUSH2 0x1A0 ADD PUSH1 0x40 MSTORE DUP1 PUSH1 0x0 DUP2 MSTORE PUSH1 0x20 ADD PUSH1 0x60 DUP2 MSTORE PUSH1 0x20 ADD PUSH1 0x60 DUP2 MSTORE PUSH1 0x20 ADD PUSH1 0x60 DUP2 MSTORE PUSH1 0x20 ADD PUSH1 0x60 DUP2 MSTORE PUSH1 0x20 ADD PUSH1 0x60 DUP2 MSTORE PUSH1 0x20 ADD PUSH1 0x60 DUP2 MSTORE PUSH1 0x20 ADD PUSH1 0x60 DUP2 MSTORE PUSH1 0x20 ADD PUSH1 0x60 DUP2 MSTORE PUSH1 0x20 ADD PUSH1 0x0 DUP2 MSTORE PUSH1 0x20 ADD PUSH1 0x0 DUP2 MSTORE PUSH1 0x20 ADD PUSH1 0x0 DUP2 MSTORE PUSH1 0x20 ADD PUSH1 0x0 ISZERO ISZERO DUP2 MSTORE POP SWAP1 JUMP JUMPDEST PUSH1 0x40 MLOAD DUP1 PUSH2 0x160 ADD PUSH1 0x40 MSTORE DUP1 PUSH1 0x0 DUP2 MSTORE PUSH1 0x20 ADD PUSH1 0x0 DUP2 MSTORE PUSH1 0x20 ADD PUSH1 0x0 DUP2 MSTORE PUSH1 0x20 ADD PUSH1 0x0 DUP2 MSTORE PUSH1 0x20 ADD PUSH1 0x0 DUP2 MSTORE PUSH1 0x20 ADD PUSH1 0x0 DUP2 MSTORE PUSH1 0x20 ADD PUSH1 0x0 DUP2 MSTORE PUSH1 0x20 ADD PUSH1 0x0 ISZERO ISZERO DUP2 MSTORE PUSH1 0x20 ADD PUSH1 0x0 ISZERO ISZERO DUP2 MSTORE PUSH1 0x20 ADD PUSH1 0x0 DUP2 MSTORE PUSH1 0x20 ADD PUSH1 0x0 DUP2 MSTORE POP SWAP1 JUMP JUMPDEST PUSH1 0x0 PUSH1 0x20 DUP3 DUP5 SUB SLT ISZERO PUSH2 0x20C9 JUMPI PUSH1 0x0 DUP1 REVERT JUMPDEST DUP2 CALLDATALOAD PUSH1 0x1 PUSH1 0x1 PUSH1 0xE0 SHL SUB NOT DUP2 AND DUP2 EQ PUSH2 0x1FE8 JUMPI PUSH1 0x0 DUP1 REVERT JUMPDEST DUP1 CALLDATALOAD PUSH1 0x1 PUSH1 0x1 PUSH1 0xA0 SHL SUB DUP2 AND DUP2 EQ PUSH2 0x20F8 JUMPI PUSH1 0x0 DUP1 REVERT JUMPDEST SWAP2 SWAP1 POP JUMP JUMPDEST PUSH1 0x0 PUSH1 0x20 DUP3 DUP5 SUB SLT ISZERO PUSH2 0x210F JUMPI PUSH1 0x0 DUP1 REVERT JUMPDEST PUSH2 0x1FE8 DUP3 PUSH2 0x20E1 JUMP JUMPDEST PUSH1 0x0 PUSH1 0x20 DUP3 DUP5 SUB SLT ISZERO PUSH2 0x212A JUMPI PUSH1 0x0 DUP1 REVERT JUMPDEST POP CALLDATALOAD SWAP2 SWAP1 POP JUMP JUMPDEST PUSH1 0x0 JUMPDEST DUP4 DUP2 LT ISZERO PUSH2 0x214C JUMPI DUP2 DUP2 ADD MLOAD DUP4 DUP3 ADD MSTORE PUSH1 0x20 ADD PUSH2 0x2134 JUMP JUMPDEST POP POP PUSH1 0x0 SWAP2 ADD MSTORE JUMP JUMPDEST PUSH1 0x0 DUP2 MLOAD DUP1 DUP5 MSTORE PUSH2 0x216D DUP2 PUSH1 0x20 DUP7 ADD PUSH1 0x20 DUP7 ADD PUSH2 0x2131 JUMP JUMPDEST PUSH1 0x1F ADD PUSH1 0x1F NOT AND SWAP3 SWAP1 SWAP3 ADD PUSH1 0x20 ADD SWAP3 SWAP2 POP POP JUMP JUMPDEST PUSH1 0x0 PUSH2 0x1A0 DUP3 MLOAD DUP5 MSTORE PUSH1 0x20 DUP4 ADD MLOAD DUP2 PUSH1 0x20 DUP7 ADD MSTORE PUSH2 0x21A1 DUP3 DUP7 ADD DUP3 PUSH2 0x2155 JUMP JUMPDEST SWAP2 POP POP PUSH1 0x40 DUP4 ADD MLOAD DUP5 DUP3 SUB PUSH1 0x40 DUP7 ADD MSTORE PUSH2 0x21BB DUP3 DUP3 PUSH2 0x2155 JUMP JUMPDEST SWAP2 POP POP PUSH1 0x60 DUP4 ADD MLOAD DUP5 DUP3 SUB PUSH1 0x60 DUP7 ADD MSTORE PUSH2 0x21D5 DUP3 DUP3 PUSH2 0x2155 JUMP JUMPDEST SWAP2 POP POP PUSH1 0x80 DUP4 ADD MLOAD DUP5 DUP3 SUB PUSH1 0x80 DUP7 ADD MSTORE PUSH2 0x21EF DUP3 DUP3 PUSH2 0x2155 JUMP JUMPDEST SWAP2 POP POP PUSH1 0xA0 DUP4 ADD MLOAD DUP5 DUP3 SUB PUSH1 0xA0 DUP7 ADD MSTORE PUSH2 0x2209 DUP3 DUP3 PUSH2 0x2155 JUMP JUMPDEST SWAP2 POP POP PUSH1 0xC0 DUP4 ADD MLOAD DUP5 DUP3 SUB PUSH1 0xC0 DUP7 ADD MSTORE PUSH2 0x2223 DUP3 DUP3 PUSH2 0x2155 JUMP JUMPDEST SWAP2 POP POP PUSH1 0xE0 DUP4 ADD MLOAD DUP5 DUP3 SUB PUSH1 0xE0 DUP7 ADD MSTORE PUSH2 0x223D DUP3 DUP3 PUSH2 0x2155 JUMP JUMPDEST SWAP2 POP POP PUSH2 0x100 DUP1 DUP5 ADD MLOAD DUP6 DUP4 SUB DUP3 DUP8 ADD MSTORE PUSH2 0x2258 DUP4 DUP3 PUSH2 0x2155 JUMP JUMPDEST PUSH2 0x120 DUP7 DUP2 ADD MLOAD SWAP1 DUP9 ADD MSTORE PUSH2 0x140 DUP1 DUP8 ADD MLOAD SWAP1 DUP9 ADD MSTORE PUSH2 0x160 DUP1 DUP8 ADD MLOAD SWAP1 DUP9 ADD MSTORE PUSH2 0x180 SWAP6 DUP7 ADD MLOAD ISZERO ISZERO SWAP6 SWAP1 SWAP7 ADD SWAP5 SWAP1 SWAP5 MSTORE POP SWAP3 SWAP4 SWAP3 POP POP POP JUMP JUMPDEST PUSH1 0x20 DUP2 MSTORE PUSH1 0x0 PUSH2 0x1FE8 PUSH1 0x20 DUP4 ADD DUP5 PUSH2 0x2181 JUMP JUMPDEST PUSH1 0x0 DUP1 PUSH1 0x0 DUP1 PUSH1 0x0 DUP1 PUSH1 0xC0 DUP8 DUP10 SUB SLT ISZERO PUSH2 0x22BF JUMPI PUSH1 0x0 DUP1 REVERT JUMPDEST POP POP DUP5 CALLDATALOAD SWAP7 PUSH1 0x20 DUP7 ADD CALLDATALOAD SWAP7 POP PUSH1 0x40 DUP7 ADD CALLDATALOAD SWAP6 PUSH1 0x60 DUP2 ADD CALLDATALOAD SWAP6 POP PUSH1 0x80 DUP2 ADD CALLDATALOAD SWAP5 POP PUSH1 0xA0 ADD CALLDATALOAD SWAP3 POP SWAP1 POP JUMP JUMPDEST DUP1 MLOAD DUP3 MSTORE PUSH1 0x20 DUP2 ADD MLOAD PUSH1 0x20 DUP4 ADD MSTORE PUSH1 0x40 DUP2 ADD MLOAD PUSH1 0x40 DUP4 ADD MSTORE PUSH1 0x60 DUP2 ADD MLOAD PUSH1 0x60 DUP4 ADD MSTORE PUSH1 0x80 DUP2 ADD MLOAD PUSH1 0x80 DUP4 ADD MSTORE PUSH1 0xA0 DUP2 ADD MLOAD PUSH1 0xA0 DUP4 ADD MSTORE PUSH1 0xC0 DUP2 ADD MLOAD PUSH1 0xC0 DUP4 ADD MSTORE PUSH1 0xE0 DUP2 ADD MLOAD PUSH2 0x233C PUSH1 0xE0 DUP5 ADD DUP3 ISZERO ISZERO SWAP1 MSTORE JUMP JUMPDEST POP PUSH2 0x100 DUP2 DUP2 ADD MLOAD ISZERO ISZERO SWAP1 DUP4 ADD MSTORE PUSH2 0x120 DUP1 DUP3 ADD MLOAD SWAP1 DUP4 ADD MSTORE PUSH2 0x140 SWAP1 DUP2 ADD MLOAD SWAP2 ADD MSTORE JUMP JUMPDEST PUSH2 0x160 DUP2 ADD PUSH2 0x396 DUP3 DUP5 PUSH2 0x22E9 JUMP JUMPDEST PUSH1 0x0 PUSH1 0x20 DUP1 DUP4 ADD DUP2 DUP5 MSTORE DUP1 DUP6 MLOAD DUP1 DUP4 MSTORE PUSH1 0x40 DUP7 ADD SWAP2 POP PUSH1 0x40 DUP2 PUSH1 0x5 SHL DUP8 ADD ADD SWAP3 POP DUP4 DUP8 ADD PUSH1 0x0 JUMPDEST DUP3 DUP2 LT ISZERO PUSH2 0x23C5 JUMPI PUSH1 0x3F NOT DUP9 DUP7 SUB ADD DUP5 MSTORE PUSH2 0x23B3 DUP6 DUP4 MLOAD PUSH2 0x2181 JUMP JUMPDEST SWAP5 POP SWAP3 DUP6 ADD SWAP3 SWAP1 DUP6 ADD SWAP1 PUSH1 0x1 ADD PUSH2 0x2397 JUMP JUMPDEST POP SWAP3 SWAP8 SWAP7 POP POP POP POP POP POP POP JUMP JUMPDEST PUSH1 0x0 DUP1 PUSH1 0x40 DUP4 DUP6 SUB SLT ISZERO PUSH2 0x23E5 JUMPI PUSH1 0x0 DUP1 REVERT JUMPDEST DUP3 CALLDATALOAD SWAP2 POP PUSH2 0x23F5 PUSH1 0x20 DUP5 ADD PUSH2 0x20E1 JUMP JUMPDEST SWAP1 POP SWAP3 POP SWAP3 SWAP1 POP JUMP JUMPDEST PUSH4 0x4E487B71 PUSH1 0xE0 SHL PUSH1 0x0 MSTORE PUSH1 0x41 PUSH1 0x4 MSTORE PUSH1 0x24 PUSH1 0x0 REVERT JUMPDEST PUSH1 0x0 DUP3 PUSH1 0x1F DUP4 ADD SLT PUSH2 0x2425 JUMPI PUSH1 0x0 DUP1 REVERT JUMPDEST DUP2 CALLDATALOAD PUSH8 0xFFFFFFFFFFFFFFFF DUP1 DUP3 GT ISZERO PUSH2 0x2440 JUMPI PUSH2 0x2440 PUSH2 0x23FE JUMP JUMPDEST PUSH1 0x40 MLOAD PUSH1 0x1F DUP4 ADD PUSH1 0x1F NOT SWAP1 DUP2 AND PUSH1 0x3F ADD AND DUP2 ADD SWAP1 DUP3 DUP3 GT DUP2 DUP4 LT OR ISZERO PUSH2 0x2468 JUMPI PUSH2 0x2468 PUSH2 0x23FE JUMP JUMPDEST DUP2 PUSH1 0x40 MSTORE DUP4 DUP2 MSTORE DUP7 PUSH1 0x20 DUP6 DUP9 ADD ADD GT ISZERO PUSH2 0x2481 JUMPI PUSH1 0x0 DUP1 REVERT JUMPDEST DUP4 PUSH1 0x20 DUP8 ADD PUSH1 0x20 DUP4 ADD CALLDATACOPY PUSH1 0x0 PUSH1 0x20 DUP6 DUP4 ADD ADD MSTORE DUP1 SWAP5 POP POP POP POP POP SWAP3 SWAP2 POP POP JUMP JUMPDEST PUSH1 0x0 DUP1 PUSH1 0x0 DUP1 PUSH1 0x0 DUP1 PUSH1 0x0 DUP1 PUSH1 0x0 DUP1 PUSH1 0x0 PUSH2 0x160 DUP13 DUP15 SUB SLT ISZERO PUSH2 0x24C3 JUMPI PUSH1 0x0 DUP1 REVERT JUMPDEST DUP12 CALLDATALOAD SWAP11 POP PUSH8 0xFFFFFFFFFFFFFFFF DUP1 PUSH1 0x20 DUP15 ADD CALLDATALOAD GT ISZERO PUSH2 0x24E1 JUMPI PUSH1 0x0 DUP1 REVERT JUMPDEST PUSH2 0x24F1 DUP15 PUSH1 0x20 DUP16 ADD CALLDATALOAD DUP16 ADD PUSH2 0x2414 JUMP JUMPDEST SWAP11 POP DUP1 PUSH1 0x40 DUP15 ADD CALLDATALOAD GT ISZERO PUSH2 0x2504 JUMPI PUSH1 0x0 DUP1 REVERT JUMPDEST PUSH2 0x2514 DUP15 PUSH1 0x40 DUP16 ADD CALLDATALOAD DUP16 ADD PUSH2 0x2414 JUMP JUMPDEST SWAP10 POP DUP1 PUSH1 0x60 DUP15 ADD CALLDATALOAD GT ISZERO PUSH2 0x2527 JUMPI PUSH1 0x0 DUP1 REVERT JUMPDEST PUSH2 0x2537 DUP15 PUSH1 0x60 DUP16 ADD CALLDATALOAD DUP16 ADD PUSH2 0x2414 JUMP JUMPDEST SWAP9 POP DUP1 PUSH1 0x80 DUP15 ADD CALLDATALOAD GT ISZERO PUSH2 0x254A JUMPI PUSH1 0x0 DUP1 REVERT JUMPDEST PUSH2 0x255A DUP15 PUSH1 0x80 DUP16 ADD CALLDATALOAD DUP16 ADD PUSH2 0x2414 JUMP JUMPDEST SWAP8 POP DUP1 PUSH1 0xA0 DUP15 ADD CALLDATALOAD GT ISZERO PUSH2 0x256D JUMPI PUSH1 0x0 DUP1 REVERT JUMPDEST PUSH2 0x257D DUP15 PUSH1 0xA0 DUP16 ADD CALLDATALOAD DUP16 ADD PUSH2 0x2414 JUMP JUMPDEST SWAP7 POP DUP1 PUSH1 0xC0 DUP15 ADD CALLDATALOAD GT ISZERO PUSH2 0x2590 JUMPI PUSH1 0x0 DUP1 REVERT JUMPDEST PUSH2 0x25A0 DUP15 PUSH1 0xC0 DUP16 ADD CALLDATALOAD DUP16 ADD PUSH2 0x2414 JUMP JUMPDEST SWAP6 POP DUP1 PUSH1 0xE0 DUP15 ADD CALLDATALOAD GT ISZERO PUSH2 0x25B3 JUMPI PUSH1 0x0 DUP1 REVERT JUMPDEST PUSH2 0x25C3 DUP15 PUSH1 0xE0 DUP16 ADD CALLDATALOAD DUP16 ADD PUSH2 0x2414 JUMP JUMPDEST SWAP5 POP DUP1 PUSH2 0x100 DUP15 ADD CALLDATALOAD GT ISZERO PUSH2 0x25D7 JUMPI PUSH1 0x0 DUP1 REVERT JUMPDEST POP PUSH2 0x25E9 DUP14 PUSH2 0x100 DUP15 ADD CALLDATALOAD DUP15 ADD PUSH2 0x2414 JUMP JUMPDEST SWAP3 POP PUSH2 0x120 DUP13 ADD CALLDATALOAD SWAP2 POP PUSH2 0x140 DUP13 ADD CALLDATALOAD SWAP1 POP SWAP3 SWAP6 SWAP9 SWAP12 POP SWAP3 SWAP6 SWAP9 SWAP12 SWAP1 SWAP4 SWAP7 SWAP10 POP JUMP JUMPDEST PUSH1 0x0 DUP1 PUSH1 0x0 DUP1 PUSH1 0x0 DUP1 PUSH1 0x0 DUP1 PUSH1 0x0 DUP1 PUSH2 0x140 DUP12 DUP14 SUB SLT ISZERO PUSH2 0x262B JUMPI PUSH1 0x0 DUP1 REVERT JUMPDEST DUP11 CALLDATALOAD PUSH8 0xFFFFFFFFFFFFFFFF DUP1 DUP3 GT ISZERO PUSH2 0x2643 JUMPI PUSH1 0x0 DUP1 REVERT JUMPDEST PUSH2 0x264F DUP15 DUP4 DUP16 ADD PUSH2 0x2414 JUMP JUMPDEST SWAP12 POP PUSH1 0x20 DUP14 ADD CALLDATALOAD SWAP2 POP DUP1 DUP3 GT ISZERO PUSH2 0x2665 JUMPI PUSH1 0x0 DUP1 REVERT JUMPDEST PUSH2 0x2671 DUP15 DUP4 DUP16 ADD PUSH2 0x2414 JUMP JUMPDEST SWAP11 POP PUSH1 0x40 DUP14 ADD CALLDATALOAD SWAP2 POP DUP1 DUP3 GT ISZERO PUSH2 0x2687 JUMPI PUSH1 0x0 DUP1 REVERT JUMPDEST PUSH2 0x2693 DUP15 DUP4 DUP16 ADD PUSH2 0x2414 JUMP JUMPDEST SWAP10 POP PUSH1 0x60 DUP14 ADD CALLDATALOAD SWAP2 POP DUP1 DUP3 GT ISZERO PUSH2 0x26A9 JUMPI PUSH1 0x0 DUP1 REVERT JUMPDEST PUSH2 0x26B5 DUP15 DUP4 DUP16 ADD PUSH2 0x2414 JUMP JUMPDEST SWAP9 POP PUSH1 0x80 DUP14 ADD CALLDATALOAD SWAP2 POP DUP1 DUP3 GT ISZERO PUSH2 0x26CB JUMPI PUSH1 0x0 DUP1 REVERT JUMPDEST PUSH2 0x26D7 DUP15 DUP4 DUP16 ADD PUSH2 0x2414 JUMP JUMPDEST SWAP8 POP PUSH1 0xA0 DUP14 ADD CALLDATALOAD SWAP2 POP DUP1 DUP3 GT ISZERO PUSH2 0x26ED JUMPI PUSH1 0x0 DUP1 REVERT JUMPDEST PUSH2 0x26F9 DUP15 DUP4 DUP16 ADD PUSH2 0x2414 JUMP JUMPDEST SWAP7 POP PUSH1 0xC0 DUP14 ADD CALLDATALOAD SWAP2 POP DUP1 DUP3 GT ISZERO PUSH2 0x270F JUMPI PUSH1 0x0 DUP1 REVERT JUMPDEST PUSH2 0x271B DUP15 DUP4 DUP16 ADD PUSH2 0x2414 JUMP JUMPDEST SWAP6 POP PUSH1 0xE0 DUP14 ADD CALLDATALOAD SWAP2 POP DUP1 DUP3 GT ISZERO PUSH2 0x2731 JUMPI PUSH1 0x0 DUP1 REVERT JUMPDEST POP PUSH2 0x273E DUP14 DUP3 DUP15 ADD PUSH2 0x2414 JUMP JUMPDEST SWAP4 POP POP PUSH2 0x100 DUP12 ADD CALLDATALOAD SWAP2 POP PUSH2 0x120 DUP12 ADD CALLDATALOAD SWAP1 POP SWAP3 SWAP6 SWAP9 SWAP12 SWAP2 SWAP5 SWAP8 SWAP11 POP SWAP3 SWAP6 SWAP9 POP JUMP JUMPDEST PUSH1 0x20 DUP1 DUP3 MSTORE DUP3 MLOAD DUP3 DUP3 ADD DUP2 SWAP1 MSTORE PUSH1 0x0 SWAP2 SWAP1 DUP5 DUP3 ADD SWAP1 PUSH1 0x40 DUP6 ADD SWAP1 DUP5 JUMPDEST DUP2 DUP2 LT ISZERO PUSH2 0x27A3 JUMPI PUSH2 0x278F DUP4 DUP6 MLOAD PUSH2 0x22E9 JUMP JUMPDEST SWAP3 DUP5 ADD SWAP3 PUSH2 0x160 SWAP3 SWAP1 SWAP3 ADD SWAP2 PUSH1 0x1 ADD PUSH2 0x277C JUMP JUMPDEST POP SWAP1 SWAP7 SWAP6 POP POP POP POP POP POP JUMP JUMPDEST PUSH1 0x1 DUP2 DUP2 SHR SWAP1 DUP3 AND DUP1 PUSH2 0x27C3 JUMPI PUSH1 0x7F DUP3 AND SWAP2 POP JUMPDEST PUSH1 0x20 DUP3 LT DUP2 SUB PUSH2 0x27E3 JUMPI PUSH4 0x4E487B71 PUSH1 0xE0 SHL PUSH1 0x0 MSTORE PUSH1 0x22 PUSH1 0x4 MSTORE PUSH1 0x24 PUSH1 0x0 REVERT JUMPDEST POP SWAP2 SWAP1 POP JUMP JUMPDEST PUSH1 0x20 DUP1 DUP3 MSTORE PUSH1 0x14 SWAP1 DUP3 ADD MSTORE PUSH20 0x135BDD9A5948191BD95CC81B9BDD08195E1A5CDD PUSH1 0x62 SHL PUSH1 0x40 DUP3 ADD MSTORE PUSH1 0x60 ADD SWAP1 JUMP JUMPDEST PUSH4 0x4E487B71 PUSH1 0xE0 SHL PUSH1 0x0 MSTORE PUSH1 0x11 PUSH1 0x4 MSTORE PUSH1 0x24 PUSH1 0x0 REVERT JUMPDEST PUSH1 0x0 PUSH1 0x1 DUP3 ADD PUSH2 0x283F JUMPI PUSH2 0x283F PUSH2 0x2817 JUMP JUMPDEST POP PUSH1 0x1 ADD SWAP1 JUMP JUMPDEST PUSH4 0x4E487B71 PUSH1 0xE0 SHL PUSH1 0x0 MSTORE PUSH1 0x32 PUSH1 0x4 MSTORE PUSH1 0x24 PUSH1 0x0 REVERT JUMPDEST PUSH1 0x1F DUP3 GT ISZERO PUSH2 0x1122 JUMPI PUSH1 0x0 DUP2 DUP2 MSTORE PUSH1 0x20 DUP2 KECCAK256 PUSH1 0x1F DUP6 ADD PUSH1 0x5 SHR DUP2 ADD PUSH1 0x20 DUP7 LT ISZERO PUSH2 0x2883 JUMPI POP DUP1 JUMPDEST PUSH1 0x1F DUP6 ADD PUSH1 0x5 SHR DUP3 ADD SWAP2 POP JUMPDEST DUP2 DUP2 LT ISZERO PUSH2 0x28A2 JUMPI DUP3 DUP2 SSTORE PUSH1 0x1 ADD PUSH2 0x288F JUMP JUMPDEST POP POP POP POP POP POP JUMP JUMPDEST DUP2 MLOAD PUSH8 0xFFFFFFFFFFFFFFFF DUP2 GT ISZERO PUSH2 0x28C4 JUMPI PUSH2 0x28C4 PUSH2 0x23FE JUMP JUMPDEST PUSH2 0x28D8 DUP2 PUSH2 0x28D2 DUP5 SLOAD PUSH2 0x27AF JUMP JUMPDEST DUP5 PUSH2 0x285C JUMP JUMPDEST PUSH1 0x20 DUP1 PUSH1 0x1F DUP4 GT PUSH1 0x1 DUP2 EQ PUSH2 0x290D JUMPI PUSH1 0x0 DUP5 ISZERO PUSH2 0x28F5 JUMPI POP DUP6 DUP4 ADD MLOAD JUMPDEST PUSH1 0x0 NOT PUSH1 0x3 DUP7 SWAP1 SHL SHR NOT AND PUSH1 0x1 DUP6 SWAP1 SHL OR DUP6 SSTORE PUSH2 0x28A2 JUMP JUMPDEST PUSH1 0x0 DUP6 DUP2 MSTORE PUSH1 0x20 DUP2 KECCAK256 PUSH1 0x1F NOT DUP7 AND SWAP2 JUMPDEST DUP3 DUP2 LT ISZERO PUSH2 0x293C JUMPI DUP9 DUP7 ADD MLOAD DUP3 SSTORE SWAP5 DUP5 ADD SWAP5 PUSH1 0x1 SWAP1 SWAP2 ADD SWAP1 DUP5 ADD PUSH2 0x291D JUMP JUMPDEST POP DUP6 DUP3 LT ISZERO PUSH2 0x295A JUMPI DUP8 DUP6 ADD MLOAD PUSH1 0x0 NOT PUSH1 0x3 DUP9 SWAP1 SHL PUSH1 0xF8 AND SHR NOT AND DUP2 SSTORE JUMPDEST POP POP POP POP POP PUSH1 0x1 SWAP1 DUP2 SHL ADD SWAP1 SSTORE POP JUMP JUMPDEST DUP1 DUP3 ADD DUP1 DUP3 GT ISZERO PUSH2 0x396 JUMPI PUSH2 0x396 PUSH2 0x2817 JUMP JUMPDEST DUP1 DUP3 MUL DUP2 ISZERO DUP3 DUP3 DIV DUP5 EQ OR PUSH2 0x396 JUMPI PUSH2 0x396 PUSH2 0x2817 JUMP JUMPDEST PUSH32 0x416363657373436F6E74726F6C3A206163636F756E7420000000000000000000 DUP2 MSTORE PUSH1 0x0 DUP4 MLOAD PUSH2 0x29CC DUP2 PUSH1 0x17 DUP6 ADD PUSH1 0x20 DUP9 ADD PUSH2 0x2131 JUMP JUMPDEST PUSH17 0x1034B99036B4B9B9B4B733903937B6329 PUSH1 0x7D SHL PUSH1 0x17 SWAP2 DUP5 ADD SWAP2 DUP3 ADD MSTORE DUP4 MLOAD PUSH2 0x29FD DUP2 PUSH1 0x28 DUP5 ADD PUSH1 0x20 DUP9 ADD PUSH2 0x2131 JUMP JUMPDEST ADD PUSH1 0x28 ADD SWAP5 SWAP4 POP POP POP POP JUMP JUMPDEST PUSH1 0x20 DUP2 MSTORE PUSH1 0x0 PUSH2 0x1FE8 PUSH1 0x20 DUP4 ADD DUP5 PUSH2 0x2155 JUMP JUMPDEST PUSH1 0x0 DUP2 PUSH2 0x2A2B JUMPI PUSH2 0x2A2B PUSH2 0x2817 JUMP JUMPDEST POP PUSH1 0x0 NOT ADD SWAP1 JUMP INVALID DUP5 0xC0 0xE6 SWAP4 PUSH9 0x32819E27761BD60CCA 0x25 0xB2 0xEF SWAP11 XOR JUMPDEST SWAP3 0x5C 0x2C SWAP10 LOG0 PUSH7 0xA29A80D42F038B 0x2C EQ INVALID SWAP6 0x5D DIV 0x4E 0xF9 JUMPDEST LOG3 0x2B DUP9 0xD2 0xCE 0xB8 PUSH29 0x6F73FCEFDCEBE906063A6D75690F27A26469706673582212203870C986 SWAP8 DUP16 0x2C 0xAD 0xEF SWAP5 0x29 0xAC CALL 0xB3 SHR SHR SELFDESTRUCT MSTORE SWAP6 0xCB 0xB0 CODESIZE CALL SELFBALANCE DUP3 PUSH13 0x692A2A11164A64736F6C634300 ADDMOD SGT STOP CALLER "},"methodIdentifiers":{"DEFAULT_ADMIN_ROLE()":"a217fddf","TICKET_ROLE()":"89964e22","addMovie(string,string,string,string,string,string,string,string,uint256,uint256)":"74a6d667","addTimeSlot(uint256,uint256,uint256,uint256,uint256,uint256)":"2b4bbba2","completeTimeSlot(uint256)":"b6da3f09","deleteMovie(uint256)":"6b4f6cb7","deleteTimeSlot(uint256)":"3b6559c1","getMovie(uint256)":"179ffe76","getMovies()":"2c53b406","getRoleAdmin(bytes32)":"248a9ca3","getTimeSlot(uint256)":"2b85dcc9","getTimeSlots(uint256)":"7cd35a0a","getTimeSlotsByDay(uint256)":"d6cbac90","grantAccess(address)":"0ae5e739","grantRole(bytes32,address)":"2f2ff15d","hasRole(bytes32,address)":"91d14854","hasSlot(uint256)":"d6330454","owner()":"8da5cb5b","renounceOwnership()":"715018a6","renounceRole(bytes32,address)":"36568abe","revokeRole(bytes32,address)":"d547741f","supportsInterface(bytes4)":"01ffc9a7","transferOwnership(address)":"f2fde38b","updateMovie(uint256,string,string,string,string,string,string,string,string,uint256,uint256)":"3632d2ee"}}}}}