{"contracts/DappCinemas.sol":{"DappCinemas":{"abi":[{"anonymous":false,"inputs":[{"indexed":false,"internalType":"string","name":"actionType","type":"string"}],"name":"Action","type":"event"},{"anonymous":false,"inputs":[{"indexed":true,"internalType":"address","name":"previousOwner","type":"address"},{"indexed":true,"internalType":"address","name":"newOwner","type":"address"}],"name":"OwnershipTransferred","type":"event"},{"anonymous":false,"inputs":[{"indexed":true,"internalType":"bytes32","name":"role","type":"bytes32"},{"indexed":true,"internalType":"bytes32","name":"previousAdminRole","type":"bytes32"},{"indexed":true,"internalType":"bytes32","name":"newAdminRole","type":"bytes32"}],"name":"RoleAdminChanged","type":"event"},{"anonymous":false,"inputs":[{"indexed":true,"internalType":"bytes32","name":"role","type":"bytes32"},{"indexed":true,"internalType":"address","name":"account","type":"address"},{"indexed":true,"internalType":"address","name":"sender","type":"address"}],"name":"RoleGranted","type":"event"},{"anonymous":false,"inputs":[{"indexed":true,"internalType":"bytes32","name":"role","type":"bytes32"},{"indexed":true,"internalType":"address","name":"account","type":"address"},{"indexed":true,"internalType":"address","name":"sender","type":"address"}],"name":"RoleRevoked","type":"event"},{"inputs":[],"name":"DEFAULT_ADMIN_ROLE","outputs":[{"internalType":"bytes32","name":"","type":"bytes32"}],"stateMutability":"view","type":"function"},{"inputs":[],"name":"TICKET_ROLE","outputs":[{"internalType":"bytes32","name":"","type":"bytes32"}],"stateMutability":"view","type":"function"},{"inputs":[{"internalType":"string","name":"_name","type":"string"},{"internalType":"string","name":"_banner","type":"string"},{"internalType":"string","name":"_imageUrl","type":"string"},{"internalType":"string","name":"_videoUrl","type":"string"},{"internalType":"string","name":"_genre","type":"string"},{"internalType":"string","name":"_description","type":"string"},{"internalType":"string","name":"_caption","type":"string"},{"internalType":"string","name":"_casts","type":"string"},{"internalType":"string","name":"_running","type":"string"},{"internalType":"string","name":"_released","type":"string"}],"name":"addMovie","outputs":[],"stateMutability":"nonpayable","type":"function"},{"inputs":[{"internalType":"uint256","name":"_movieId","type":"uint256"},{"internalType":"uint256[]","name":"_ticketCosts","type":"uint256[]"},{"internalType":"uint256[]","name":"_startTimes","type":"uint256[]"},{"internalType":"uint256[]","name":"_endTimes","type":"uint256[]"},{"internalType":"uint256[]","name":"_capacities","type":"uint256[]"},{"internalType":"uint256[]","name":"_days","type":"uint256[]"}],"name":"addTimeSlot","outputs":[],"stateMutability":"nonpayable","type":"function"},{"inputs":[{"internalType":"uint256","name":"_slotId","type":"uint256"}],"name":"completeTimeSlot","outputs":[],"stateMutability":"nonpayable","type":"function"},{"inputs":[{"internalType":"uint256","name":"_movieId","type":"uint256"}],"name":"deleteMovie","outputs":[],"stateMutability":"nonpayable","type":"function"},{"inputs":[{"internalType":"uint256","name":"_slotId","type":"uint256"}],"name":"deleteTimeSlot","outputs":[],"stateMutability":"nonpayable","type":"function"},{"inputs":[{"internalType":"uint256","name":"movieId","type":"uint256"}],"name":"getActiveTimeSlots","outputs":[{"components":[{"internalType":"uint256","name":"id","type":"uint256"},{"internalType":"uint256","name":"movieId","type":"uint256"},{"internalType":"uint256","name":"ticketCost","type":"uint256"},{"internalType":"uint256","name":"startTime","type":"uint256"},{"internalType":"uint256","name":"endTime","type":"uint256"},{"internalType":"uint256","name":"capacity","type":"uint256"},{"internalType":"uint256","name":"seats","type":"uint256"},{"internalType":"bool","name":"deleted","type":"bool"},{"internalType":"bool","name":"completed","type":"bool"},{"internalType":"uint256","name":"day","type":"uint256"},{"internalType":"uint256","name":"balance","type":"uint256"}],"internalType":"struct DappShared.TimeSlotStruct[]","name":"MovieSlots","type":"tuple[]"}],"stateMutability":"view","type":"function"},{"inputs":[{"internalType":"uint256","name":"movieId","type":"uint256"}],"name":"getMovie","outputs":[{"components":[{"internalType":"uint256","name":"id","type":"uint256"},{"internalType":"string","name":"name","type":"string"},{"internalType":"string","name":"banner","type":"string"},{"internalType":"string","name":"imageUrl","type":"string"},{"internalType":"string","name":"videoUrl","type":"string"},{"internalType":"string","name":"genre","type":"string"},{"internalType":"string","name":"description","type":"string"},{"internalType":"string","name":"caption","type":"string"},{"internalType":"string","name":"casts","type":"string"},{"internalType":"string","name":"running","type":"string"},{"internalType":"string","name":"released","type":"string"},{"internalType":"uint256","name":"timestamp","type":"uint256"},{"internalType":"bool","name":"deleted","type":"bool"}],"internalType":"struct DappCinemas.MovieStruct","name":"","type":"tuple"}],"stateMutability":"view","type":"function"},{"inputs":[],"name":"getMovies","outputs":[{"components":[{"internalType":"uint256","name":"id","type":"uint256"},{"internalType":"string","name":"name","type":"string"},{"internalType":"string","name":"banner","type":"string"},{"internalType":"string","name":"imageUrl","type":"string"},{"internalType":"string","name":"videoUrl","type":"string"},{"internalType":"string","name":"genre","type":"string"},{"internalType":"string","name":"description","type":"string"},{"internalType":"string","name":"caption","type":"string"},{"internalType":"string","name":"casts","type":"string"},{"internalType":"string","name":"running","type":"string"},{"internalType":"string","name":"released","type":"string"},{"internalType":"uint256","name":"timestamp","type":"uint256"},{"internalType":"bool","name":"deleted","type":"bool"}],"internalType":"struct DappCinemas.MovieStruct[]","name":"Movies","type":"tuple[]"}],"stateMutability":"view","type":"function"},{"inputs":[{"internalType":"bytes32","name":"role","type":"bytes32"}],"name":"getRoleAdmin","outputs":[{"internalType":"bytes32","name":"","type":"bytes32"}],"stateMutability":"view","type":"function"},{"inputs":[{"internalType":"uint256","name":"slotId","type":"uint256"}],"name":"getTimeSlot","outputs":[{"components":[{"internalType":"uint256","name":"id","type":"uint256"},{"internalType":"uint256","name":"movieId","type":"uint256"},{"internalType":"uint256","name":"ticketCost","type":"uint256"},{"internalType":"uint256","name":"startTime","type":"uint256"},{"internalType":"uint256","name":"endTime","type":"uint256"},{"internalType":"uint256","name":"capacity","type":"uint256"},{"internalType":"uint256","name":"seats","type":"uint256"},{"internalType":"bool","name":"deleted","type":"bool"},{"internalType":"bool","name":"completed","type":"bool"},{"internalType":"uint256","name":"day","type":"uint256"},{"internalType":"uint256","name":"balance","type":"uint256"}],"internalType":"struct DappShared.TimeSlotStruct","name":"","type":"tuple"}],"stateMutability":"view","type":"function"},{"inputs":[{"internalType":"uint256","name":"movieId","type":"uint256"}],"name":"getTimeSlots","outputs":[{"components":[{"internalType":"uint256","name":"id","type":"uint256"},{"internalType":"uint256","name":"movieId","type":"uint256"},{"internalType":"uint256","name":"ticketCost","type":"uint256"},{"internalType":"uint256","name":"startTime","type":"uint256"},{"internalType":"uint256","name":"endTime","type":"uint256"},{"internalType":"uint256","name":"capacity","type":"uint256"},{"internalType":"uint256","name":"seats","type":"uint256"},{"internalType":"bool","name":"deleted","type":"bool"},{"internalType":"bool","name":"completed","type":"bool"},{"internalType":"uint256","name":"day","type":"uint256"},{"internalType":"uint256","name":"balance","type":"uint256"}],"internalType":"struct DappShared.TimeSlotStruct[]","name":"MovieSlots","type":"tuple[]"}],"stateMutability":"view","type":"function"},{"inputs":[{"internalType":"uint256","name":"day","type":"uint256"}],"name":"getTimeSlotsByDay","outputs":[{"components":[{"internalType":"uint256","name":"id","type":"uint256"},{"internalType":"uint256","name":"movieId","type":"uint256"},{"internalType":"uint256","name":"ticketCost","type":"uint256"},{"internalType":"uint256","name":"startTime","type":"uint256"},{"internalType":"uint256","name":"endTime","type":"uint256"},{"internalType":"uint256","name":"capacity","type":"uint256"},{"internalType":"uint256","name":"seats","type":"uint256"},{"internalType":"bool","name":"deleted","type":"bool"},{"internalType":"bool","name":"completed","type":"bool"},{"internalType":"uint256","name":"day","type":"uint256"},{"internalType":"uint256","name":"balance","type":"uint256"}],"internalType":"struct DappShared.TimeSlotStruct[]","name":"MovieSlots","type":"tuple[]"}],"stateMutability":"view","type":"function"},{"inputs":[{"internalType":"address","name":"_dappTicket","type":"address"}],"name":"grantAccess","outputs":[],"stateMutability":"nonpayable","type":"function"},{"inputs":[{"internalType":"bytes32","name":"role","type":"bytes32"},{"internalType":"address","name":"account","type":"address"}],"name":"grantRole","outputs":[],"stateMutability":"nonpayable","type":"function"},{"inputs":[{"internalType":"bytes32","name":"role","type":"bytes32"},{"internalType":"address","name":"account","type":"address"}],"name":"hasRole","outputs":[{"internalType":"bool","name":"","type":"bool"}],"stateMutability":"view","type":"function"},{"inputs":[],"name":"owner","outputs":[{"internalType":"address","name":"","type":"address"}],"stateMutability":"view","type":"function"},{"inputs":[],"name":"renounceOwnership","outputs":[],"stateMutability":"nonpayable","type":"function"},{"inputs":[{"internalType":"bytes32","name":"role","type":"bytes32"},{"internalType":"address","name":"account","type":"address"}],"name":"renounceRole","outputs":[],"stateMutability":"nonpayable","type":"function"},{"inputs":[{"internalType":"bytes32","name":"role","type":"bytes32"},{"internalType":"address","name":"account","type":"address"}],"name":"revokeRole","outputs":[],"stateMutability":"nonpayable","type":"function"},{"inputs":[{"components":[{"internalType":"uint256","name":"id","type":"uint256"},{"internalType":"uint256","name":"movieId","type":"uint256"},{"internalType":"uint256","name":"ticketCost","type":"uint256"},{"internalType":"uint256","name":"startTime","type":"uint256"},{"internalType":"uint256","name":"endTime","type":"uint256"},{"internalType":"uint256","name":"capacity","type":"uint256"},{"internalType":"uint256","name":"seats","type":"uint256"},{"internalType":"bool","name":"deleted","type":"bool"},{"internalType":"bool","name":"completed","type":"bool"},{"internalType":"uint256","name":"day","type":"uint256"},{"internalType":"uint256","name":"balance","type":"uint256"}],"internalType":"struct DappShared.TimeSlotStruct","name":"slot","type":"tuple"}],"name":"setTimeSlot","outputs":[],"stateMutability":"nonpayable","type":"function"},{"inputs":[{"internalType":"bytes4","name":"interfaceId","type":"bytes4"}],"name":"supportsInterface","outputs":[{"internalType":"bool","name":"","type":"bool"}],"stateMutability":"view","type":"function"},{"inputs":[{"internalType":"address","name":"newOwner","type":"address"}],"name":"transferOwnership","outputs":[],"stateMutability":"nonpayable","type":"function"},{"inputs":[{"internalType":"uint256","name":"_movieId","type":"uint256"},{"internalType":"string","name":"_name","type":"string"},{"internalType":"string","name":"_banner","type":"string"},{"internalType":"string","name":"_imageUrl","type":"string"},{"internalType":"string","name":"_videoUrl","type":"string"},{"internalType":"string","name":"_genre","type":"string"},{"internalType":"string","name":"_description","type":"string"},{"internalType":"string","name":"_caption","type":"string"},{"internalType":"string","name":"_casts","type":"string"},{"internalType":"string","name":"_running","type":"string"},{"internalType":"string","name":"_released","type":"string"}],"name":"updateMovie","outputs":[],"stateMutability":"nonpayable","type":"function"}],"evm":{"bytecode":{"linkReferences":{},"object":"60806040523480156200001157600080fd5b506200001d3362000023565b62000073565b600080546001600160a01b038381166001600160a01b0319831681178455604051919092169283917f8be0079c531659141344cd1fd0a4f28419497f9722a3daafe3b4186f6b6457e09190a35050565b61352a80620000836000396000f3fe608060405234801561001057600080fd5b50600436106101735760003560e01c8063715018a6116100de578063a217fddf11610097578063b83b2c5211610071578063b83b2c521461035a578063d547741f1461036d578063d6cbac9014610380578063f2fde38b1461039357600080fd5b8063a217fddf1461032c578063a65c7ce414610334578063b6da3f091461034757600080fd5b8063715018a6146102ae5780637cd35a0a146102b657806389964e22146102d65780638da5cb5b146102eb57806391b1841b1461030657806391d148541461031957600080fd5b80632c53b406116101305780632c53b4061461023a5780632f2ff15d1461024f57806336568abe146102625780633b6559c11461027557806361853e93146102885780636b4f6cb71461029b57600080fd5b806301ffc9a7146101785780630ae5e739146101a05780630ee2c58c146101b5578063179ffe76146101c8578063248a9ca3146101e85780632b85dcc91461021a575b600080fd5b61018b61018636600461286c565b6103a6565b60405190151581526020015b60405180910390f35b6101b36101ae3660046128b2565b6103dd565b005b6101b36101c33660046129bb565b610444565b6101db6101d6366004612a94565b6107ec565b6040516101979190612c3a565b61020c6101f6366004612a94565b6000908152600160208190526040909120015490565b604051908152602001610197565b61022d610228366004612a94565b610df1565b6040516101979190612cc5565b610242610e91565b6040516101979190612cd4565b6101b361025d366004612d36565b61158e565b6101b3610270366004612d36565b6115b9565b6101b3610283366004612a94565b611637565b6101b3610296366004612d72565b6116d3565b6101b36102a9366004612a94565b6117a0565b6101b3611844565b6102c96102c4366004612a94565b611858565b6040516101979190612e0f565b61020c6000805160206134b583398151915281565b6000546040516001600160a01b039091168152602001610197565b6101b3610314366004612ecd565b611a7f565b61018b610327366004612d36565b611c20565b61020c600081565b6101b3610342366004613070565b611c4b565b6101b3610355366004612a94565b611e4c565b6102c9610368366004612a94565b611ee1565b6101b361037b366004612d36565b612168565b6102c961038e366004612a94565b61218e565b6101b36103a13660046128b2565b612373565b60006001600160e01b03198216637965db0b60e01b14806103d757506301ffc9a760e01b6001600160e01b03198316145b92915050565b6103e56123ec565b6103fd6000805160206134b583398151915282612446565b600754610422906000805160206134b5833981519152906001600160a01b0316612450565b600780546001600160a01b0319166001600160a01b0392909216919091179055565b61044c6123ec565b60008681526004602052604090205460ff166104835760405162461bcd60e51b815260040161047a906131fa565b60405180910390fd5b60008551116104d45760405162461bcd60e51b815260206004820152601b60248201527f5469636b657420636f7374732063616e6e6f74206265206e756c6c0000000000604482015260640161047a565b60008451116105255760405162461bcd60e51b815260206004820152601a60248201527f53746172742074696d65732063616e6e6f74206265206e756c6c000000000000604482015260640161047a565b60008351116105765760405162461bcd60e51b815260206004820152601860248201527f456e642074696d65732063616e6e6f74206265206e756c6c0000000000000000604482015260640161047a565b60008251116105c75760405162461bcd60e51b815260206004820152601960248201527f436170616369746965732063616e6e6f74206265206e756c6c00000000000000604482015260640161047a565b600081511161060e5760405162461bcd60e51b815260206004820152601360248201527211185e5cc818d85b9b9bdd081899481b9d5b1b606a1b604482015260640161047a565b60005b855181101561079d57610628600380546001019055565b600061063360035490565b905061063d6127a4565b81815260208101899052875188908490811061065b5761065b613228565b602002602001015181604001818152505086838151811061067e5761067e613228565b60200260200101518160600181815250508583815181106106a1576106a1613228565b60200260200101518160800181815250508483815181106106c4576106c4613228565b60200260200101518160a00181815250508383815181106106e7576106e7613228565b60209081029190910181015161012083019081526000938452600680835260409485902084518155928401516001840155938301516002830155606083015160038301556080830151600483015560a0830151600583015560c08301519382019390935560e08201516007820180546101008086015115150261ff00199315159390931661ffff19909116179190911790559151600883015561014001516009909101558061079581613254565b915050610611565b506000805160206134d58339815191526040516107dc906020808252600e908201526d151a5b595cdb1bdd08185919195960921b604082015260600190565b60405180910390a1505050505050565b6107f4612802565b60056000838152602001908152602001600020604051806101a00160405290816000820154815260200160018201805461082d9061326d565b80601f01602080910402602001604051908101604052809291908181526020018280546108599061326d565b80156108a65780601f1061087b576101008083540402835291602001916108a6565b820191906000526020600020905b81548152906001019060200180831161088957829003601f168201915b505050505081526020016002820180546108bf9061326d565b80601f01602080910402602001604051908101604052809291908181526020018280546108eb9061326d565b80156109385780601f1061090d57610100808354040283529160200191610938565b820191906000526020600020905b81548152906001019060200180831161091b57829003601f168201915b505050505081526020016003820180546109519061326d565b80601f016020809104026020016040519081016040528092919081815260200182805461097d9061326d565b80156109ca5780601f1061099f576101008083540402835291602001916109ca565b820191906000526020600020905b8154815290600101906020018083116109ad57829003601f168201915b505050505081526020016004820180546109e39061326d565b80601f0160208091040260200160405190810160405280929190818152602001828054610a0f9061326d565b8015610a5c5780601f10610a3157610100808354040283529160200191610a5c565b820191906000526020600020905b815481529060010190602001808311610a3f57829003601f168201915b50505050508152602001600582018054610a759061326d565b80601f0160208091040260200160405190810160405280929190818152602001828054610aa19061326d565b8015610aee5780601f10610ac357610100808354040283529160200191610aee565b820191906000526020600020905b815481529060010190602001808311610ad157829003601f168201915b50505050508152602001600682018054610b079061326d565b80601f0160208091040260200160405190810160405280929190818152602001828054610b339061326d565b8015610b805780601f10610b5557610100808354040283529160200191610b80565b820191906000526020600020905b815481529060010190602001808311610b6357829003601f168201915b50505050508152602001600782018054610b999061326d565b80601f0160208091040260200160405190810160405280929190818152602001828054610bc59061326d565b8015610c125780601f10610be757610100808354040283529160200191610c12565b820191906000526020600020905b815481529060010190602001808311610bf557829003601f168201915b50505050508152602001600882018054610c2b9061326d565b80601f0160208091040260200160405190810160405280929190818152602001828054610c579061326d565b8015610ca45780601f10610c7957610100808354040283529160200191610ca4565b820191906000526020600020905b815481529060010190602001808311610c8757829003601f168201915b50505050508152602001600982018054610cbd9061326d565b80601f0160208091040260200160405190810160405280929190818152602001828054610ce99061326d565b8015610d365780601f10610d0b57610100808354040283529160200191610d36565b820191906000526020600020905b815481529060010190602001808311610d1957829003601f168201915b50505050508152602001600a82018054610d4f9061326d565b80601f0160208091040260200160405190810160405280929190818152602001828054610d7b9061326d565b8015610dc85780601f10610d9d57610100808354040283529160200191610dc8565b820191906000526020600020905b815481529060010190602001808311610dab57829003601f168201915b5050509183525050600b8201546020820152600c9091015460ff16151560409091015292915050565b610df96127a4565b50600090815260066020818152604092839020835161016081018552815481526001820154928101929092526002810154938201939093526003830154606082015260048301546080820152600583015460a08201529082015460c0820152600782015460ff808216151560e08401526101009182900416151590820152600882015461012082015260099091015461014082015290565b6060600060015b6002548111610eda576000818152600560205260409020600c015460ff16610ec85781610ec481613254565b9250505b80610ed281613254565b915050610e98565b50806001600160401b03811115610ef357610ef36128cd565b604051908082528060200260200182016040528015610f2c57816020015b610f19612802565b815260200190600190039081610f115790505b509150600060015b6002548111611588576000818152600560205260409020600c015460ff166115765760056000828152602001908152602001600020604051806101a001604052908160008201548152602001600182018054610f8f9061326d565b80601f0160208091040260200160405190810160405280929190818152602001828054610fbb9061326d565b80156110085780601f10610fdd57610100808354040283529160200191611008565b820191906000526020600020905b815481529060010190602001808311610feb57829003601f168201915b505050505081526020016002820180546110219061326d565b80601f016020809104026020016040519081016040528092919081815260200182805461104d9061326d565b801561109a5780601f1061106f5761010080835404028352916020019161109a565b820191906000526020600020905b81548152906001019060200180831161107d57829003601f168201915b505050505081526020016003820180546110b39061326d565b80601f01602080910402602001604051908101604052809291908181526020018280546110df9061326d565b801561112c5780601f106111015761010080835404028352916020019161112c565b820191906000526020600020905b81548152906001019060200180831161110f57829003601f168201915b505050505081526020016004820180546111459061326d565b80601f01602080910402602001604051908101604052809291908181526020018280546111719061326d565b80156111be5780601f10611193576101008083540402835291602001916111be565b820191906000526020600020905b8154815290600101906020018083116111a157829003601f168201915b505050505081526020016005820180546111d79061326d565b80601f01602080910402602001604051908101604052809291908181526020018280546112039061326d565b80156112505780601f1061122557610100808354040283529160200191611250565b820191906000526020600020905b81548152906001019060200180831161123357829003601f168201915b505050505081526020016006820180546112699061326d565b80601f01602080910402602001604051908101604052809291908181526020018280546112959061326d565b80156112e25780601f106112b7576101008083540402835291602001916112e2565b820191906000526020600020905b8154815290600101906020018083116112c557829003601f168201915b505050505081526020016007820180546112fb9061326d565b80601f01602080910402602001604051908101604052809291908181526020018280546113279061326d565b80156113745780601f1061134957610100808354040283529160200191611374565b820191906000526020600020905b81548152906001019060200180831161135757829003601f168201915b5050505050815260200160088201805461138d9061326d565b80601f01602080910402602001604051908101604052809291908181526020018280546113b99061326d565b80156114065780601f106113db57610100808354040283529160200191611406565b820191906000526020600020905b8154815290600101906020018083116113e957829003601f168201915b5050505050815260200160098201805461141f9061326d565b80601f016020809104026020016040519081016040528092919081815260200182805461144b9061326d565b80156114985780601f1061146d57610100808354040283529160200191611498565b820191906000526020600020905b81548152906001019060200180831161147b57829003601f168201915b50505050508152602001600a820180546114b19061326d565b80601f01602080910402602001604051908101604052809291908181526020018280546114dd9061326d565b801561152a5780601f106114ff5761010080835404028352916020019161152a565b820191906000526020600020905b81548152906001019060200180831161150d57829003601f168201915b5050509183525050600b8201546020820152600c9091015460ff161515604090910152848361155881613254565b94508151811061156a5761156a613228565b60200260200101819052505b8061158081613254565b915050610f34565b50505090565b600082815260016020819052604090912001546115aa816124b7565b6115b483836124c1565b505050565b6001600160a01b03811633146116295760405162461bcd60e51b815260206004820152602f60248201527f416363657373436f6e74726f6c3a2063616e206f6e6c792072656e6f756e636560448201526e103937b632b9903337b91039b2b63360891b606482015260840161047a565b6116338282612450565b5050565b61164f6000805160206134b583398151915233611c20565b61166b5760405162461bcd60e51b815260040161047a906132a7565b60008181526006602052604090819020600701805460ff19166001179055516000805160206134d5833981519152906116c89060208082526010908201526f151a5b595cdb1bdd0819195b195d195960821b604082015260600190565b60405180910390a150565b6116eb6000805160206134b583398151915233611c20565b6117075760405162461bcd60e51b815260040161047a906132a7565b805160009081526006602081815260409283902084518155908401516001820155918301516002830155606083015160038301556080830151600483015560a0830151600583015560c08301519082015560e08201516007820180546101008086015115150261ff00199315159390931661ffff1990911617919091179055610120820151600882015561014090910151600990910155565b6117a86123ec565b60008181526004602052604090205460ff166117d65760405162461bcd60e51b815260040161047a906131fa565b6000818152600560209081526040808320600c01805460ff1990811660011790915560049092529182902080549091169055516000805160206134d5833981519152906116c8906020808252600d908201526c135bdd9a594819195b195d1959609a1b604082015260600190565b61184c6123ec565b611856600061252c565b565b60606000805b6003548110156118df5783600660006118788460016132de565b8152602001908152602001600020600101541480156118ba5750600660006118a18360016132de565b815260208101919091526040016000206007015460ff16155b156118cd57816118c981613254565b9250505b806118d781613254565b91505061185e565b50806001600160401b038111156118f8576118f86128cd565b60405190808252806020026020018201604052801561193157816020015b61191e6127a4565b8152602001906001900390816119165790505b5091506000805b600354811015611a775784600660006119528460016132de565b81526020019081526020016000206001015414801561199457506006600061197b8360016132de565b815260208101919091526040016000206007015460ff16155b15611a6557600660006119a88360016132de565b81526020808201929092526040908101600020815161016081018352815481526001820154938101939093526002810154918301919091526003810154606083015260048101546080830152600581015460a0830152600681015460c0830152600781015460ff808216151560e085015261010091829004161515908301526008810154610120830152600901546101408201528483611a4781613254565b945081518110611a5957611a59613228565b60200260200101819052505b80611a6f81613254565b915050611938565b505050919050565b611a876123ec565b60008b81526004602052604090205460ff16611ab55760405162461bcd60e51b815260040161047a906131fa565b60008b8152600560205260409020600101611ad08b8261333f565b5060008b8152600560205260409020600201611aec8a8261333f565b5060008b8152600560205260409020600301611b08898261333f565b5060008b8152600560205260409020600401611b24888261333f565b5060008b815260056020819052604090912001611b41878261333f565b5060008b8152600560205260409020600601611b5d868261333f565b5060008b8152600560205260409020600701611b79858261333f565b5060008b8152600560205260409020600801611b95848261333f565b5060008b8152600560205260409020600901611bb1838261333f565b5060008b8152600560205260409020600a01611bcd828261333f565b506000805160206134d5833981519152604051611c0b906020808252600d908201526c135bdd9a59481d5c19185d1959609a1b604082015260600190565b60405180910390a15050505050505050505050565b60009182526001602090815260408084206001600160a01b0393909316845291905290205460ff1690565b611c536123ec565b611c61600280546001019055565b6000611c6c60025490565b9050611c76612802565b818152602081018c9052604081018b9052606081018a90526080810189905260a0810188905260c0810187905260e08101869052610100810185905261012081018490526101408101839052611cca61257c565b610160820152600082815260056020908152604090912082518155908201518291906001820190611cfb908261333f565b5060408201516002820190611d10908261333f565b5060608201516003820190611d25908261333f565b5060808201516004820190611d3a908261333f565b5060a08201516005820190611d4f908261333f565b5060c08201516006820190611d64908261333f565b5060e08201516007820190611d79908261333f565b506101008201516008820190611d8f908261333f565b506101208201516009820190611da5908261333f565b50610140820151600a820190611dbb908261333f565b50610160820151600b82015561018090910151600c909101805491151560ff19928316179055600083815260046020526040908190208054909216600117909155516000805160206134d583398151915290611e36906020808252600b908201526a135bdd9a5948185919195960aa1b604082015260600190565b60405180910390a1505050505050505050505050565b611e646000805160206134b583398151915233611c20565b611e805760405162461bcd60e51b815260040161047a906132a7565b60008181526006602052604090819020600701805461ff001916610100179055516000805160206134d5833981519152906116c890602080825260129082015271151a5b595cdb1bdd0818dbdb5c1b195d195960721b604082015260600190565b60606000805b600354811015611f9c578360066000611f018460016132de565b815260200190815260200160002060010154148015611f43575060066000611f2a8360016132de565b815260208101919091526040016000206007015460ff16155b8015611f77575060066000611f598360016132de565b8152602081019190915260400160002060070154610100900460ff16155b15611f8a5781611f8681613254565b9250505b80611f9481613254565b915050611ee7565b50806001600160401b03811115611fb557611fb56128cd565b604051908082528060200260200182016040528015611fee57816020015b611fdb6127a4565b815260200190600190039081611fd35790505b5091506000805b600354811015611a7757846006600061200f8460016132de565b8152602001908152602001600020600101541480156120515750600660006120388360016132de565b815260208101919091526040016000206007015460ff16155b80156120855750600660006120678360016132de565b8152602081019190915260400160002060070154610100900460ff16155b1561215657600660006120998360016132de565b81526020808201929092526040908101600020815161016081018352815481526001820154938101939093526002810154918301919091526003810154606083015260048101546080830152600581015460a0830152600681015460c0830152600781015460ff808216151560e08501526101009182900416151590830152600881015461012083015260090154610140820152848361213881613254565b94508151811061214a5761214a613228565b60200260200101819052505b8061216081613254565b915050611ff5565b60008281526001602081905260409091200154612184816124b7565b6115b48383612450565b60606000805b6003548110156122155783600660006121ae8460016132de565b8152602001908152602001600020600801541480156121f05750600660006121d78360016132de565b815260208101919091526040016000206007015460ff16155b1561220357816121ff81613254565b9250505b8061220d81613254565b915050612194565b50806001600160401b0381111561222e5761222e6128cd565b60405190808252806020026020018201604052801561226757816020015b6122546127a4565b81526020019060019003908161224c5790505b5091506000805b600354811015611a775784600660006122888460016132de565b8152602001908152602001600020600801541480156122ca5750600660006122b18360016132de565b815260208101919091526040016000206007015460ff16155b1561236157600660006122de8360016132de565b81526020019081526020016000206003015484838151811061230257612302613228565b602090810291909101015160600152600660006123208360016132de565b81526020019081526020016000206004015484838061233e90613254565b94508151811061235057612350613228565b602002602001015160800181815250505b8061236b81613254565b91505061226e565b61237b6123ec565b6001600160a01b0381166123e05760405162461bcd60e51b815260206004820152602660248201527f4f776e61626c653a206e6577206f776e657220697320746865207a65726f206160448201526564647265737360d01b606482015260840161047a565b6123e98161252c565b50565b6000546001600160a01b031633146118565760405162461bcd60e51b815260206004820181905260248201527f4f776e61626c653a2063616c6c6572206973206e6f7420746865206f776e6572604482015260640161047a565b61163382826124c1565b61245a8282611c20565b156116335760008281526001602090815260408083206001600160a01b0385168085529252808320805460ff1916905551339285917ff6391f5c32d9c69d2a47ea670b442974b53935d1edc7fd64eb21e047a839171b9190a45050565b6123e98133612597565b6124cb8282611c20565b6116335760008281526001602081815260408084206001600160a01b0386168086529252808420805460ff19169093179092559051339285917f2f8788117e7eff1d82e926ec794901d17c78024a50270940304540a733656f0d9190a45050565b600080546001600160a01b038381166001600160a01b0319831681178455604051919092169283917f8be0079c531659141344cd1fd0a4f28419497f9722a3daafe3b4186f6b6457e09190a35050565b60008061258b426103e86133fe565b6103d7906103e86132de565b6125a18282611c20565b611633576125ae816125f0565b6125b9836020612602565b6040516020016125ca929190613415565b60408051601f198184030181529082905262461bcd60e51b825261047a9160040161348a565b60606103d76001600160a01b03831660145b606060006126118360026133fe565b61261c9060026132de565b6001600160401b03811115612633576126336128cd565b6040519080825280601f01601f19166020018201604052801561265d576020820181803683370190505b509050600360fc1b8160008151811061267857612678613228565b60200101906001600160f81b031916908160001a905350600f60fb1b816001815181106126a7576126a7613228565b60200101906001600160f81b031916908160001a90535060006126cb8460026133fe565b6126d69060016132de565b90505b600181111561274e576f181899199a1a9b1b9c1cb0b131b232b360811b85600f166010811061270a5761270a613228565b1a60f81b82828151811061272057612720613228565b60200101906001600160f81b031916908160001a90535060049490941c936127478161349d565b90506126d9565b50831561279d5760405162461bcd60e51b815260206004820181905260248201527f537472696e67733a20686578206c656e67746820696e73756666696369656e74604482015260640161047a565b9392505050565b6040518061016001604052806000815260200160008152602001600081526020016000815260200160008152602001600081526020016000815260200160001515815260200160001515815260200160008152602001600081525090565b604051806101a001604052806000815260200160608152602001606081526020016060815260200160608152602001606081526020016060815260200160608152602001606081526020016060815260200160608152602001600081526020016000151581525090565b60006020828403121561287e57600080fd5b81356001600160e01b03198116811461279d57600080fd5b80356001600160a01b03811681146128ad57600080fd5b919050565b6000602082840312156128c457600080fd5b61279d82612896565b634e487b7160e01b600052604160045260246000fd5b60405161016081016001600160401b0381118282101715612906576129066128cd565b60405290565b604051601f8201601f191681016001600160401b0381118282101715612934576129346128cd565b604052919050565b600082601f83011261294d57600080fd5b813560206001600160401b03821115612968576129686128cd565b8160051b61297782820161290c565b928352848101820192828101908785111561299157600080fd5b83870192505b848310156129b057823582529183019190830190612997565b979650505050505050565b60008060008060008060c087890312156129d457600080fd5b8635955060208701356001600160401b03808211156129f257600080fd5b6129fe8a838b0161293c565b96506040890135915080821115612a1457600080fd5b612a208a838b0161293c565b95506060890135915080821115612a3657600080fd5b612a428a838b0161293c565b94506080890135915080821115612a5857600080fd5b612a648a838b0161293c565b935060a0890135915080821115612a7a57600080fd5b50612a8789828a0161293c565b9150509295509295509295565b600060208284031215612aa657600080fd5b5035919050565b60005b83811015612ac8578181015183820152602001612ab0565b50506000910152565b60008151808452612ae9816020860160208601612aad565b601f01601f19169290920160200192915050565b60006101a0825184526020830151816020860152612b1d82860182612ad1565b91505060408301518482036040860152612b378282612ad1565b91505060608301518482036060860152612b518282612ad1565b91505060808301518482036080860152612b6b8282612ad1565b91505060a083015184820360a0860152612b858282612ad1565b91505060c083015184820360c0860152612b9f8282612ad1565b91505060e083015184820360e0860152612bb98282612ad1565b9150506101008084015185830382870152612bd48382612ad1565b925050506101208084015185830382870152612bf08382612ad1565b925050506101408084015185830382870152612c0c8382612ad1565b9250505061016080840151818601525061018080840151612c308287018215159052565b5090949350505050565b60208152600061279d6020830184612afd565b805182526020810151602083015260408101516040830152606081015160608301526080810151608083015260a081015160a083015260c081015160c083015260e0810151612ca060e084018215159052565b5061010081810151151590830152610120808201519083015261014090810151910152565b61016081016103d78284612c4d565b6000602080830181845280855180835260408601915060408160051b870101925083870160005b82811015612d2957603f19888603018452612d17858351612afd565b94509285019290850190600101612cfb565b5092979650505050505050565b60008060408385031215612d4957600080fd5b82359150612d5960208401612896565b90509250929050565b803580151581146128ad57600080fd5b60006101608284031215612d8557600080fd5b612d8d6128e3565b823581526020830135602082015260408301356040820152606083013560608201526080830135608082015260a083013560a082015260c083013560c0820152612dd960e08401612d62565b60e0820152610100612dec818501612d62565b908201526101208381013590820152610140928301359281019290925250919050565b6020808252825182820181905260009190848201906040850190845b81811015612e5257612e3e838551612c4d565b928401926101609290920191600101612e2b565b50909695505050505050565b600082601f830112612e6f57600080fd5b81356001600160401b03811115612e8857612e886128cd565b612e9b601f8201601f191660200161290c565b818152846020838601011115612eb057600080fd5b816020850160208301376000918101602001919091529392505050565b60008060008060008060008060008060006101608c8e031215612eef57600080fd5b8b359a506001600160401b038060208e01351115612f0c57600080fd5b612f1c8e60208f01358f01612e5e565b9a508060408e01351115612f2f57600080fd5b612f3f8e60408f01358f01612e5e565b99508060608e01351115612f5257600080fd5b612f628e60608f01358f01612e5e565b98508060808e01351115612f7557600080fd5b612f858e60808f01358f01612e5e565b97508060a08e01351115612f9857600080fd5b612fa88e60a08f01358f01612e5e565b96508060c08e01351115612fbb57600080fd5b612fcb8e60c08f01358f01612e5e565b95508060e08e01351115612fde57600080fd5b612fee8e60e08f01358f01612e5e565b9450806101008e0135111561300257600080fd5b6130138e6101008f01358f01612e5e565b9350806101208e0135111561302757600080fd5b6130388e6101208f01358f01612e5e565b9250806101408e0135111561304c57600080fd5b5061305e8d6101408e01358e01612e5e565b90509295989b509295989b9093969950565b6000806000806000806000806000806101408b8d03121561309057600080fd5b8a356001600160401b03808211156130a757600080fd5b6130b38e838f01612e5e565b9b5060208d01359150808211156130c957600080fd5b6130d58e838f01612e5e565b9a5060408d01359150808211156130eb57600080fd5b6130f78e838f01612e5e565b995060608d013591508082111561310d57600080fd5b6131198e838f01612e5e565b985060808d013591508082111561312f57600080fd5b61313b8e838f01612e5e565b975060a08d013591508082111561315157600080fd5b61315d8e838f01612e5e565b965060c08d013591508082111561317357600080fd5b61317f8e838f01612e5e565b955060e08d013591508082111561319557600080fd5b6131a18e838f01612e5e565b94506101008d01359150808211156131b857600080fd5b6131c48e838f01612e5e565b93506101208d01359150808211156131db57600080fd5b506131e88d828e01612e5e565b9150509295989b9194979a5092959850565b602080825260149082015273135bdd9a5948191bd95cc81b9bdd08195e1a5cdd60621b604082015260600190565b634e487b7160e01b600052603260045260246000fd5b634e487b7160e01b600052601160045260246000fd5b6000600182016132665761326661323e565b5060010190565b600181811c9082168061328157607f821691505b6020821081036132a157634e487b7160e01b600052602260045260246000fd5b50919050565b6020808252601f908201527f43616c6c6572206973206e6f742061207469636b657420636f6e747261637400604082015260600190565b808201808211156103d7576103d761323e565b601f8211156115b457600081815260208120601f850160051c810160208610156133185750805b601f850160051c820191505b8181101561333757828155600101613324565b505050505050565b81516001600160401b03811115613358576133586128cd565b61336c81613366845461326d565b846132f1565b602080601f8311600181146133a157600084156133895750858301515b600019600386901b1c1916600185901b178555613337565b600085815260208120601f198616915b828110156133d0578886015182559484019460019091019084016133b1565b50858210156133ee5787850151600019600388901b60f8161c191681555b5050505050600190811b01905550565b80820281158282048414176103d7576103d761323e565b7f416363657373436f6e74726f6c3a206163636f756e742000000000000000000081526000835161344d816017850160208801612aad565b7001034b99036b4b9b9b4b733903937b6329607d1b601791840191820152835161347e816028840160208801612aad565b01602801949350505050565b60208152600061279d6020830184612ad1565b6000816134ac576134ac61323e565b50600019019056fe84c0e6936832819e27761bd60cca25b2ef9a185b925c2c99a066a29a80d42f038b2c14fe955d044ef95ba32b88d2ceb87c6f73fcefdcebe906063a6d75690f27a26469706673582212208c4a26c0cb5592c3a57845b8505a07cfa4e7c32b9388ea6a27b1dff80080198d64736f6c63430008130033","opcodes":"PUSH1 0x80 PUSH1 0x40 MSTORE CALLVALUE DUP1 ISZERO PUSH3 0x11 JUMPI PUSH1 0x0 DUP1 REVERT JUMPDEST POP PUSH3 0x1D CALLER PUSH3 0x23 JUMP JUMPDEST PUSH3 0x73 JUMP JUMPDEST PUSH1 0x0 DUP1 SLOAD PUSH1 0x1 PUSH1 0x1 PUSH1 0xA0 SHL SUB DUP4 DUP2 AND PUSH1 0x1 PUSH1 0x1 PUSH1 0xA0 SHL SUB NOT DUP4 AND DUP2 OR DUP5 SSTORE PUSH1 0x40 MLOAD SWAP2 SWAP1 SWAP3 AND SWAP3 DUP4 SWAP2 PUSH32 0x8BE0079C531659141344CD1FD0A4F28419497F9722A3DAAFE3B4186F6B6457E0 SWAP2 SWAP1 LOG3 POP POP JUMP JUMPDEST PUSH2 0x352A DUP1 PUSH3 0x83 PUSH1 0x0 CODECOPY PUSH1 0x0 RETURN INVALID PUSH1 0x80 PUSH1 0x40 MSTORE CALLVALUE DUP1 ISZERO PUSH2 0x10 JUMPI PUSH1 0x0 DUP1 REVERT JUMPDEST POP PUSH1 0x4 CALLDATASIZE LT PUSH2 0x173 JUMPI PUSH1 0x0 CALLDATALOAD PUSH1 0xE0 SHR DUP1 PUSH4 0x715018A6 GT PUSH2 0xDE JUMPI DUP1 PUSH4 0xA217FDDF GT PUSH2 0x97 JUMPI DUP1 PUSH4 0xB83B2C52 GT PUSH2 0x71 JUMPI DUP1 PUSH4 0xB83B2C52 EQ PUSH2 0x35A JUMPI DUP1 PUSH4 0xD547741F EQ PUSH2 0x36D JUMPI DUP1 PUSH4 0xD6CBAC90 EQ PUSH2 0x380 JUMPI DUP1 PUSH4 0xF2FDE38B EQ PUSH2 0x393 JUMPI PUSH1 0x0 DUP1 REVERT JUMPDEST DUP1 PUSH4 0xA217FDDF EQ PUSH2 0x32C JUMPI DUP1 PUSH4 0xA65C7CE4 EQ PUSH2 0x334 JUMPI DUP1 PUSH4 0xB6DA3F09 EQ PUSH2 0x347 JUMPI PUSH1 0x0 DUP1 REVERT JUMPDEST DUP1 PUSH4 0x715018A6 EQ PUSH2 0x2AE JUMPI DUP1 PUSH4 0x7CD35A0A EQ PUSH2 0x2B6 JUMPI DUP1 PUSH4 0x89964E22 EQ PUSH2 0x2D6 JUMPI DUP1 PUSH4 0x8DA5CB5B EQ PUSH2 0x2EB JUMPI DUP1 PUSH4 0x91B1841B EQ PUSH2 0x306 JUMPI DUP1 PUSH4 0x91D14854 EQ PUSH2 0x319 JUMPI PUSH1 0x0 DUP1 REVERT JUMPDEST DUP1 PUSH4 0x2C53B406 GT PUSH2 0x130 JUMPI DUP1 PUSH4 0x2C53B406 EQ PUSH2 0x23A JUMPI DUP1 PUSH4 0x2F2FF15D EQ PUSH2 0x24F JUMPI DUP1 PUSH4 0x36568ABE EQ PUSH2 0x262 JUMPI DUP1 PUSH4 0x3B6559C1 EQ PUSH2 0x275 JUMPI DUP1 PUSH4 0x61853E93 EQ PUSH2 0x288 JUMPI DUP1 PUSH4 0x6B4F6CB7 EQ PUSH2 0x29B JUMPI PUSH1 0x0 DUP1 REVERT JUMPDEST DUP1 PUSH4 0x1FFC9A7 EQ PUSH2 0x178 JUMPI DUP1 PUSH4 0xAE5E739 EQ PUSH2 0x1A0 JUMPI DUP1 PUSH4 0xEE2C58C EQ PUSH2 0x1B5 JUMPI DUP1 PUSH4 0x179FFE76 EQ PUSH2 0x1C8 JUMPI DUP1 PUSH4 0x248A9CA3 EQ PUSH2 0x1E8 JUMPI DUP1 PUSH4 0x2B85DCC9 EQ PUSH2 0x21A JUMPI JUMPDEST PUSH1 0x0 DUP1 REVERT JUMPDEST PUSH2 0x18B PUSH2 0x186 CALLDATASIZE PUSH1 0x4 PUSH2 0x286C JUMP JUMPDEST PUSH2 0x3A6 JUMP JUMPDEST PUSH1 0x40 MLOAD SWAP1 ISZERO ISZERO DUP2 MSTORE PUSH1 0x20 ADD JUMPDEST PUSH1 0x40 MLOAD DUP1 SWAP2 SUB SWAP1 RETURN JUMPDEST PUSH2 0x1B3 PUSH2 0x1AE CALLDATASIZE PUSH1 0x4 PUSH2 0x28B2 JUMP JUMPDEST PUSH2 0x3DD JUMP JUMPDEST STOP JUMPDEST PUSH2 0x1B3 PUSH2 0x1C3 CALLDATASIZE PUSH1 0x4 PUSH2 0x29BB JUMP JUMPDEST PUSH2 0x444 JUMP JUMPDEST PUSH2 0x1DB PUSH2 0x1D6 CALLDATASIZE PUSH1 0x4 PUSH2 0x2A94 JUMP JUMPDEST PUSH2 0x7EC JUMP JUMPDEST PUSH1 0x40 MLOAD PUSH2 0x197 SWAP2 SWAP1 PUSH2 0x2C3A JUMP JUMPDEST PUSH2 0x20C PUSH2 0x1F6 CALLDATASIZE PUSH1 0x4 PUSH2 0x2A94 JUMP JUMPDEST PUSH1 0x0 SWAP1 DUP2 MSTORE PUSH1 0x1 PUSH1 0x20 DUP2 SWAP1 MSTORE PUSH1 0x40 SWAP1 SWAP2 KECCAK256 ADD SLOAD SWAP1 JUMP JUMPDEST PUSH1 0x40 MLOAD SWAP1 DUP2 MSTORE PUSH1 0x20 ADD PUSH2 0x197 JUMP JUMPDEST PUSH2 0x22D PUSH2 0x228 CALLDATASIZE PUSH1 0x4 PUSH2 0x2A94 JUMP JUMPDEST PUSH2 0xDF1 JUMP JUMPDEST PUSH1 0x40 MLOAD PUSH2 0x197 SWAP2 SWAP1 PUSH2 0x2CC5 JUMP JUMPDEST PUSH2 0x242 PUSH2 0xE91 JUMP JUMPDEST PUSH1 0x40 MLOAD PUSH2 0x197 SWAP2 SWAP1 PUSH2 0x2CD4 JUMP JUMPDEST PUSH2 0x1B3 PUSH2 0x25D CALLDATASIZE PUSH1 0x4 PUSH2 0x2D36 JUMP JUMPDEST PUSH2 0x158E JUMP JUMPDEST PUSH2 0x1B3 PUSH2 0x270 CALLDATASIZE PUSH1 0x4 PUSH2 0x2D36 JUMP JUMPDEST PUSH2 0x15B9 JUMP JUMPDEST PUSH2 0x1B3 PUSH2 0x283 CALLDATASIZE PUSH1 0x4 PUSH2 0x2A94 JUMP JUMPDEST PUSH2 0x1637 JUMP JUMPDEST PUSH2 0x1B3 PUSH2 0x296 CALLDATASIZE PUSH1 0x4 PUSH2 0x2D72 JUMP JUMPDEST PUSH2 0x16D3 JUMP JUMPDEST PUSH2 0x1B3 PUSH2 0x2A9 CALLDATASIZE PUSH1 0x4 PUSH2 0x2A94 JUMP JUMPDEST PUSH2 0x17A0 JUMP JUMPDEST PUSH2 0x1B3 PUSH2 0x1844 JUMP JUMPDEST PUSH2 0x2C9 PUSH2 0x2C4 CALLDATASIZE PUSH1 0x4 PUSH2 0x2A94 JUMP JUMPDEST PUSH2 0x1858 JUMP JUMPDEST PUSH1 0x40 MLOAD PUSH2 0x197 SWAP2 SWAP1 PUSH2 0x2E0F JUMP JUMPDEST PUSH2 0x20C PUSH1 0x0 DUP1 MLOAD PUSH1 0x20 PUSH2 0x34B5 DUP4 CODECOPY DUP2 MLOAD SWAP2 MSTORE DUP2 JUMP JUMPDEST PUSH1 0x0 SLOAD PUSH1 0x40 MLOAD PUSH1 0x1 PUSH1 0x1 PUSH1 0xA0 SHL SUB SWAP1 SWAP2 AND DUP2 MSTORE PUSH1 0x20 ADD PUSH2 0x197 JUMP JUMPDEST PUSH2 0x1B3 PUSH2 0x314 CALLDATASIZE PUSH1 0x4 PUSH2 0x2ECD JUMP JUMPDEST PUSH2 0x1A7F JUMP JUMPDEST PUSH2 0x18B PUSH2 0x327 CALLDATASIZE PUSH1 0x4 PUSH2 0x2D36 JUMP JUMPDEST PUSH2 0x1C20 JUMP JUMPDEST PUSH2 0x20C PUSH1 0x0 DUP2 JUMP JUMPDEST PUSH2 0x1B3 PUSH2 0x342 CALLDATASIZE PUSH1 0x4 PUSH2 0x3070 JUMP JUMPDEST PUSH2 0x1C4B JUMP JUMPDEST PUSH2 0x1B3 PUSH2 0x355 CALLDATASIZE PUSH1 0x4 PUSH2 0x2A94 JUMP JUMPDEST PUSH2 0x1E4C JUMP JUMPDEST PUSH2 0x2C9 PUSH2 0x368 CALLDATASIZE PUSH1 0x4 PUSH2 0x2A94 JUMP JUMPDEST PUSH2 0x1EE1 JUMP JUMPDEST PUSH2 0x1B3 PUSH2 0x37B CALLDATASIZE PUSH1 0x4 PUSH2 0x2D36 JUMP JUMPDEST PUSH2 0x2168 JUMP JUMPDEST PUSH2 0x2C9 PUSH2 0x38E CALLDATASIZE PUSH1 0x4 PUSH2 0x2A94 JUMP JUMPDEST PUSH2 0x218E JUMP JUMPDEST PUSH2 0x1B3 PUSH2 0x3A1 CALLDATASIZE PUSH1 0x4 PUSH2 0x28B2 JUMP JUMPDEST PUSH2 0x2373 JUMP JUMPDEST PUSH1 0x0 PUSH1 0x1 PUSH1 0x1 PUSH1 0xE0 SHL SUB NOT DUP3 AND PUSH4 0x7965DB0B PUSH1 0xE0 SHL EQ DUP1 PUSH2 0x3D7 JUMPI POP PUSH4 0x1FFC9A7 PUSH1 0xE0 SHL PUSH1 0x1 PUSH1 0x1 PUSH1 0xE0 SHL SUB NOT DUP4 AND EQ JUMPDEST SWAP3 SWAP2 POP POP JUMP JUMPDEST PUSH2 0x3E5 PUSH2 0x23EC JUMP JUMPDEST PUSH2 0x3FD PUSH1 0x0 DUP1 MLOAD PUSH1 0x20 PUSH2 0x34B5 DUP4 CODECOPY DUP2 MLOAD SWAP2 MSTORE DUP3 PUSH2 0x2446 JUMP JUMPDEST PUSH1 0x7 SLOAD PUSH2 0x422 SWAP1 PUSH1 0x0 DUP1 MLOAD PUSH1 0x20 PUSH2 0x34B5 DUP4 CODECOPY DUP2 MLOAD SWAP2 MSTORE SWAP1 PUSH1 0x1 PUSH1 0x1 PUSH1 0xA0 SHL SUB AND PUSH2 0x2450 JUMP JUMPDEST PUSH1 0x7 DUP1 SLOAD PUSH1 0x1 PUSH1 0x1 PUSH1 0xA0 SHL SUB NOT AND PUSH1 0x1 PUSH1 0x1 PUSH1 0xA0 SHL SUB SWAP3 SWAP1 SWAP3 AND SWAP2 SWAP1 SWAP2 OR SWAP1 SSTORE JUMP JUMPDEST PUSH2 0x44C PUSH2 0x23EC JUMP JUMPDEST PUSH1 0x0 DUP7 DUP2 MSTORE PUSH1 0x4 PUSH1 0x20 MSTORE PUSH1 0x40 SWAP1 KECCAK256 SLOAD PUSH1 0xFF AND PUSH2 0x483 JUMPI PUSH1 0x40 MLOAD PUSH3 0x461BCD PUSH1 0xE5 SHL DUP2 MSTORE PUSH1 0x4 ADD PUSH2 0x47A SWAP1 PUSH2 0x31FA JUMP JUMPDEST PUSH1 0x40 MLOAD DUP1 SWAP2 SUB SWAP1 REVERT JUMPDEST PUSH1 0x0 DUP6 MLOAD GT PUSH2 0x4D4 JUMPI PUSH1 0x40 MLOAD PUSH3 0x461BCD PUSH1 0xE5 SHL DUP2 MSTORE PUSH1 0x20 PUSH1 0x4 DUP3 ADD MSTORE PUSH1 0x1B PUSH1 0x24 DUP3 ADD MSTORE PUSH32 0x5469636B657420636F7374732063616E6E6F74206265206E756C6C0000000000 PUSH1 0x44 DUP3 ADD MSTORE PUSH1 0x64 ADD PUSH2 0x47A JUMP JUMPDEST PUSH1 0x0 DUP5 MLOAD GT PUSH2 0x525 JUMPI PUSH1 0x40 MLOAD PUSH3 0x461BCD PUSH1 0xE5 SHL DUP2 MSTORE PUSH1 0x20 PUSH1 0x4 DUP3 ADD MSTORE PUSH1 0x1A PUSH1 0x24 DUP3 ADD MSTORE PUSH32 0x53746172742074696D65732063616E6E6F74206265206E756C6C000000000000 PUSH1 0x44 DUP3 ADD MSTORE PUSH1 0x64 ADD PUSH2 0x47A JUMP JUMPDEST PUSH1 0x0 DUP4 MLOAD GT PUSH2 0x576 JUMPI PUSH1 0x40 MLOAD PUSH3 0x461BCD PUSH1 0xE5 SHL DUP2 MSTORE PUSH1 0x20 PUSH1 0x4 DUP3 ADD MSTORE PUSH1 0x18 PUSH1 0x24 DUP3 ADD MSTORE PUSH32 0x456E642074696D65732063616E6E6F74206265206E756C6C0000000000000000 PUSH1 0x44 DUP3 ADD MSTORE PUSH1 0x64 ADD PUSH2 0x47A JUMP JUMPDEST PUSH1 0x0 DUP3 MLOAD GT PUSH2 0x5C7 JUMPI PUSH1 0x40 MLOAD PUSH3 0x461BCD PUSH1 0xE5 SHL DUP2 MSTORE PUSH1 0x20 PUSH1 0x4 DUP3 ADD MSTORE PUSH1 0x19 PUSH1 0x24 DUP3 ADD MSTORE PUSH32 0x436170616369746965732063616E6E6F74206265206E756C6C00000000000000 PUSH1 0x44 DUP3 ADD MSTORE PUSH1 0x64 ADD PUSH2 0x47A JUMP JUMPDEST PUSH1 0x0 DUP2 MLOAD GT PUSH2 0x60E JUMPI PUSH1 0x40 MLOAD PUSH3 0x461BCD PUSH1 0xE5 SHL DUP2 MSTORE PUSH1 0x20 PUSH1 0x4 DUP3 ADD MSTORE PUSH1 0x13 PUSH1 0x24 DUP3 ADD MSTORE PUSH19 0x11185E5CC818D85B9B9BDD081899481B9D5B1B PUSH1 0x6A SHL PUSH1 0x44 DUP3 ADD MSTORE PUSH1 0x64 ADD PUSH2 0x47A JUMP JUMPDEST PUSH1 0x0 JUMPDEST DUP6 MLOAD DUP2 LT ISZERO PUSH2 0x79D JUMPI PUSH2 0x628 PUSH1 0x3 DUP1 SLOAD PUSH1 0x1 ADD SWAP1 SSTORE JUMP JUMPDEST PUSH1 0x0 PUSH2 0x633 PUSH1 0x3 SLOAD SWAP1 JUMP JUMPDEST SWAP1 POP PUSH2 0x63D PUSH2 0x27A4 JUMP JUMPDEST DUP2 DUP2 MSTORE PUSH1 0x20 DUP2 ADD DUP10 SWAP1 MSTORE DUP8 MLOAD DUP9 SWAP1 DUP5 SWAP1 DUP2 LT PUSH2 0x65B JUMPI PUSH2 0x65B PUSH2 0x3228 JUMP JUMPDEST PUSH1 0x20 MUL PUSH1 0x20 ADD ADD MLOAD DUP2 PUSH1 0x40 ADD DUP2 DUP2 MSTORE POP POP DUP7 DUP4 DUP2 MLOAD DUP2 LT PUSH2 0x67E JUMPI PUSH2 0x67E PUSH2 0x3228 JUMP JUMPDEST PUSH1 0x20 MUL PUSH1 0x20 ADD ADD MLOAD DUP2 PUSH1 0x60 ADD DUP2 DUP2 MSTORE POP POP DUP6 DUP4 DUP2 MLOAD DUP2 LT PUSH2 0x6A1 JUMPI PUSH2 0x6A1 PUSH2 0x3228 JUMP JUMPDEST PUSH1 0x20 MUL PUSH1 0x20 ADD ADD MLOAD DUP2 PUSH1 0x80 ADD DUP2 DUP2 MSTORE POP POP DUP5 DUP4 DUP2 MLOAD DUP2 LT PUSH2 0x6C4 JUMPI PUSH2 0x6C4 PUSH2 0x3228 JUMP JUMPDEST PUSH1 0x20 MUL PUSH1 0x20 ADD ADD MLOAD DUP2 PUSH1 0xA0 ADD DUP2 DUP2 MSTORE POP POP DUP4 DUP4 DUP2 MLOAD DUP2 LT PUSH2 0x6E7 JUMPI PUSH2 0x6E7 PUSH2 0x3228 JUMP JUMPDEST PUSH1 0x20 SWAP1 DUP2 MUL SWAP2 SWAP1 SWAP2 ADD DUP2 ADD MLOAD PUSH2 0x120 DUP4 ADD SWAP1 DUP2 MSTORE PUSH1 0x0 SWAP4 DUP5 MSTORE PUSH1 0x6 DUP1 DUP4 MSTORE PUSH1 0x40 SWAP5 DUP6 SWAP1 KECCAK256 DUP5 MLOAD DUP2 SSTORE SWAP3 DUP5 ADD MLOAD PUSH1 0x1 DUP5 ADD SSTORE SWAP4 DUP4 ADD MLOAD PUSH1 0x2 DUP4 ADD SSTORE PUSH1 0x60 DUP4 ADD MLOAD PUSH1 0x3 DUP4 ADD SSTORE PUSH1 0x80 DUP4 ADD MLOAD PUSH1 0x4 DUP4 ADD SSTORE PUSH1 0xA0 DUP4 ADD MLOAD PUSH1 0x5 DUP4 ADD SSTORE PUSH1 0xC0 DUP4 ADD MLOAD SWAP4 DUP3 ADD SWAP4 SWAP1 SWAP4 SSTORE PUSH1 0xE0 DUP3 ADD MLOAD PUSH1 0x7 DUP3 ADD DUP1 SLOAD PUSH2 0x100 DUP1 DUP7 ADD MLOAD ISZERO ISZERO MUL PUSH2 0xFF00 NOT SWAP4 ISZERO ISZERO SWAP4 SWAP1 SWAP4 AND PUSH2 0xFFFF NOT SWAP1 SWAP2 AND OR SWAP2 SWAP1 SWAP2 OR SWAP1 SSTORE SWAP2 MLOAD PUSH1 0x8 DUP4 ADD SSTORE PUSH2 0x140 ADD MLOAD PUSH1 0x9 SWAP1 SWAP2 ADD SSTORE DUP1 PUSH2 0x795 DUP2 PUSH2 0x3254 JUMP JUMPDEST SWAP2 POP POP PUSH2 0x611 JUMP JUMPDEST POP PUSH1 0x0 DUP1 MLOAD PUSH1 0x20 PUSH2 0x34D5 DUP4 CODECOPY DUP2 MLOAD SWAP2 MSTORE PUSH1 0x40 MLOAD PUSH2 0x7DC SWAP1 PUSH1 0x20 DUP1 DUP3 MSTORE PUSH1 0xE SWAP1 DUP3 ADD MSTORE PUSH14 0x151A5B595CDB1BDD081859191959 PUSH1 0x92 SHL PUSH1 0x40 DUP3 ADD MSTORE PUSH1 0x60 ADD SWAP1 JUMP JUMPDEST PUSH1 0x40 MLOAD DUP1 SWAP2 SUB SWAP1 LOG1 POP POP POP POP POP POP JUMP JUMPDEST PUSH2 0x7F4 PUSH2 0x2802 JUMP JUMPDEST PUSH1 0x5 PUSH1 0x0 DUP4 DUP2 MSTORE PUSH1 0x20 ADD SWAP1 DUP2 MSTORE PUSH1 0x20 ADD PUSH1 0x0 KECCAK256 PUSH1 0x40 MLOAD DUP1 PUSH2 0x1A0 ADD PUSH1 0x40 MSTORE SWAP1 DUP2 PUSH1 0x0 DUP3 ADD SLOAD DUP2 MSTORE PUSH1 0x20 ADD PUSH1 0x1 DUP3 ADD DUP1 SLOAD PUSH2 0x82D SWAP1 PUSH2 0x326D JUMP JUMPDEST DUP1 PUSH1 0x1F ADD PUSH1 0x20 DUP1 SWAP2 DIV MUL PUSH1 0x20 ADD PUSH1 0x40 MLOAD SWAP1 DUP2 ADD PUSH1 0x40 MSTORE DUP1 SWAP3 SWAP2 SWAP1 DUP2 DUP2 MSTORE PUSH1 0x20 ADD DUP3 DUP1 SLOAD PUSH2 0x859 SWAP1 PUSH2 0x326D JUMP JUMPDEST DUP1 ISZERO PUSH2 0x8A6 JUMPI DUP1 PUSH1 0x1F LT PUSH2 0x87B JUMPI PUSH2 0x100 DUP1 DUP4 SLOAD DIV MUL DUP4 MSTORE SWAP2 PUSH1 0x20 ADD SWAP2 PUSH2 0x8A6 JUMP JUMPDEST DUP3 ADD SWAP2 SWAP1 PUSH1 0x0 MSTORE PUSH1 0x20 PUSH1 0x0 KECCAK256 SWAP1 JUMPDEST DUP2 SLOAD DUP2 MSTORE SWAP1 PUSH1 0x1 ADD SWAP1 PUSH1 0x20 ADD DUP1 DUP4 GT PUSH2 0x889 JUMPI DUP3 SWAP1 SUB PUSH1 0x1F AND DUP3 ADD SWAP2 JUMPDEST POP POP POP POP POP DUP2 MSTORE PUSH1 0x20 ADD PUSH1 0x2 DUP3 ADD DUP1 SLOAD PUSH2 0x8BF SWAP1 PUSH2 0x326D JUMP JUMPDEST DUP1 PUSH1 0x1F ADD PUSH1 0x20 DUP1 SWAP2 DIV MUL PUSH1 0x20 ADD PUSH1 0x40 MLOAD SWAP1 DUP2 ADD PUSH1 0x40 MSTORE DUP1 SWAP3 SWAP2 SWAP1 DUP2 DUP2 MSTORE PUSH1 0x20 ADD DUP3 DUP1 SLOAD PUSH2 0x8EB SWAP1 PUSH2 0x326D JUMP JUMPDEST DUP1 ISZERO PUSH2 0x938 JUMPI DUP1 PUSH1 0x1F LT PUSH2 0x90D JUMPI PUSH2 0x100 DUP1 DUP4 SLOAD DIV MUL DUP4 MSTORE SWAP2 PUSH1 0x20 ADD SWAP2 PUSH2 0x938 JUMP JUMPDEST DUP3 ADD SWAP2 SWAP1 PUSH1 0x0 MSTORE PUSH1 0x20 PUSH1 0x0 KECCAK256 SWAP1 JUMPDEST DUP2 SLOAD DUP2 MSTORE SWAP1 PUSH1 0x1 ADD SWAP1 PUSH1 0x20 ADD DUP1 DUP4 GT PUSH2 0x91B JUMPI DUP3 SWAP1 SUB PUSH1 0x1F AND DUP3 ADD SWAP2 JUMPDEST POP POP POP POP POP DUP2 MSTORE PUSH1 0x20 ADD PUSH1 0x3 DUP3 ADD DUP1 SLOAD PUSH2 0x951 SWAP1 PUSH2 0x326D JUMP JUMPDEST DUP1 PUSH1 0x1F ADD PUSH1 0x20 DUP1 SWAP2 DIV MUL PUSH1 0x20 ADD PUSH1 0x40 MLOAD SWAP1 DUP2 ADD PUSH1 0x40 MSTORE DUP1 SWAP3 SWAP2 SWAP1 DUP2 DUP2 MSTORE PUSH1 0x20 ADD DUP3 DUP1 SLOAD PUSH2 0x97D SWAP1 PUSH2 0x326D JUMP JUMPDEST DUP1 ISZERO PUSH2 0x9CA JUMPI DUP1 PUSH1 0x1F LT PUSH2 0x99F JUMPI PUSH2 0x100 DUP1 DUP4 SLOAD DIV MUL DUP4 MSTORE SWAP2 PUSH1 0x20 ADD SWAP2 PUSH2 0x9CA JUMP JUMPDEST DUP3 ADD SWAP2 SWAP1 PUSH1 0x0 MSTORE PUSH1 0x20 PUSH1 0x0 KECCAK256 SWAP1 JUMPDEST DUP2 SLOAD DUP2 MSTORE SWAP1 PUSH1 0x1 ADD SWAP1 PUSH1 0x20 ADD DUP1 DUP4 GT PUSH2 0x9AD JUMPI DUP3 SWAP1 SUB PUSH1 0x1F AND DUP3 ADD SWAP2 JUMPDEST POP POP POP POP POP DUP2 MSTORE PUSH1 0x20 ADD PUSH1 0x4 DUP3 ADD DUP1 SLOAD PUSH2 0x9E3 SWAP1 PUSH2 0x326D JUMP JUMPDEST DUP1 PUSH1 0x1F ADD PUSH1 0x20 DUP1 SWAP2 DIV MUL PUSH1 0x20 ADD PUSH1 0x40 MLOAD SWAP1 DUP2 ADD PUSH1 0x40 MSTORE DUP1 SWAP3 SWAP2 SWAP1 DUP2 DUP2 MSTORE PUSH1 0x20 ADD DUP3 DUP1 SLOAD PUSH2 0xA0F SWAP1 PUSH2 0x326D JUMP JUMPDEST DUP1 ISZERO PUSH2 0xA5C JUMPI DUP1 PUSH1 0x1F LT PUSH2 0xA31 JUMPI PUSH2 0x100 DUP1 DUP4 SLOAD DIV MUL DUP4 MSTORE SWAP2 PUSH1 0x20 ADD SWAP2 PUSH2 0xA5C JUMP JUMPDEST DUP3 ADD SWAP2 SWAP1 PUSH1 0x0 MSTORE PUSH1 0x20 PUSH1 0x0 KECCAK256 SWAP1 JUMPDEST DUP2 SLOAD DUP2 MSTORE SWAP1 PUSH1 0x1 ADD SWAP1 PUSH1 0x20 ADD DUP1 DUP4 GT PUSH2 0xA3F JUMPI DUP3 SWAP1 SUB PUSH1 0x1F AND DUP3 ADD SWAP2 JUMPDEST POP POP POP POP POP DUP2 MSTORE PUSH1 0x20 ADD PUSH1 0x5 DUP3 ADD DUP1 SLOAD PUSH2 0xA75 SWAP1 PUSH2 0x326D JUMP JUMPDEST DUP1 PUSH1 0x1F ADD PUSH1 0x20 DUP1 SWAP2 DIV MUL PUSH1 0x20 ADD PUSH1 0x40 MLOAD SWAP1 DUP2 ADD PUSH1 0x40 MSTORE DUP1 SWAP3 SWAP2 SWAP1 DUP2 DUP2 MSTORE PUSH1 0x20 ADD DUP3 DUP1 SLOAD PUSH2 0xAA1 SWAP1 PUSH2 0x326D JUMP JUMPDEST DUP1 ISZERO PUSH2 0xAEE JUMPI DUP1 PUSH1 0x1F LT PUSH2 0xAC3 JUMPI PUSH2 0x100 DUP1 DUP4 SLOAD DIV MUL DUP4 MSTORE SWAP2 PUSH1 0x20 ADD SWAP2 PUSH2 0xAEE JUMP JUMPDEST DUP3 ADD SWAP2 SWAP1 PUSH1 0x0 MSTORE PUSH1 0x20 PUSH1 0x0 KECCAK256 SWAP1 JUMPDEST DUP2 SLOAD DUP2 MSTORE SWAP1 PUSH1 0x1 ADD SWAP1 PUSH1 0x20 ADD DUP1 DUP4 GT PUSH2 0xAD1 JUMPI DUP3 SWAP1 SUB PUSH1 0x1F AND DUP3 ADD SWAP2 JUMPDEST POP POP POP POP POP DUP2 MSTORE PUSH1 0x20 ADD PUSH1 0x6 DUP3 ADD DUP1 SLOAD PUSH2 0xB07 SWAP1 PUSH2 0x326D JUMP JUMPDEST DUP1 PUSH1 0x1F ADD PUSH1 0x20 DUP1 SWAP2 DIV MUL PUSH1 0x20 ADD PUSH1 0x40 MLOAD SWAP1 DUP2 ADD PUSH1 0x40 MSTORE DUP1 SWAP3 SWAP2 SWAP1 DUP2 DUP2 MSTORE PUSH1 0x20 ADD DUP3 DUP1 SLOAD PUSH2 0xB33 SWAP1 PUSH2 0x326D JUMP JUMPDEST DUP1 ISZERO PUSH2 0xB80 JUMPI DUP1 PUSH1 0x1F LT PUSH2 0xB55 JUMPI PUSH2 0x100 DUP1 DUP4 SLOAD DIV MUL DUP4 MSTORE SWAP2 PUSH1 0x20 ADD SWAP2 PUSH2 0xB80 JUMP JUMPDEST DUP3 ADD SWAP2 SWAP1 PUSH1 0x0 MSTORE PUSH1 0x20 PUSH1 0x0 KECCAK256 SWAP1 JUMPDEST DUP2 SLOAD DUP2 MSTORE SWAP1 PUSH1 0x1 ADD SWAP1 PUSH1 0x20 ADD DUP1 DUP4 GT PUSH2 0xB63 JUMPI DUP3 SWAP1 SUB PUSH1 0x1F AND DUP3 ADD SWAP2 JUMPDEST POP POP POP POP POP DUP2 MSTORE PUSH1 0x20 ADD PUSH1 0x7 DUP3 ADD DUP1 SLOAD PUSH2 0xB99 SWAP1 PUSH2 0x326D JUMP JUMPDEST DUP1 PUSH1 0x1F ADD PUSH1 0x20 DUP1 SWAP2 DIV MUL PUSH1 0x20 ADD PUSH1 0x40 MLOAD SWAP1 DUP2 ADD PUSH1 0x40 MSTORE DUP1 SWAP3 SWAP2 SWAP1 DUP2 DUP2 MSTORE PUSH1 0x20 ADD DUP3 DUP1 SLOAD PUSH2 0xBC5 SWAP1 PUSH2 0x326D JUMP JUMPDEST DUP1 ISZERO PUSH2 0xC12 JUMPI DUP1 PUSH1 0x1F LT PUSH2 0xBE7 JUMPI PUSH2 0x100 DUP1 DUP4 SLOAD DIV MUL DUP4 MSTORE SWAP2 PUSH1 0x20 ADD SWAP2 PUSH2 0xC12 JUMP JUMPDEST DUP3 ADD SWAP2 SWAP1 PUSH1 0x0 MSTORE PUSH1 0x20 PUSH1 0x0 KECCAK256 SWAP1 JUMPDEST DUP2 SLOAD DUP2 MSTORE SWAP1 PUSH1 0x1 ADD SWAP1 PUSH1 0x20 ADD DUP1 DUP4 GT PUSH2 0xBF5 JUMPI DUP3 SWAP1 SUB PUSH1 0x1F AND DUP3 ADD SWAP2 JUMPDEST POP POP POP POP POP DUP2 MSTORE PUSH1 0x20 ADD PUSH1 0x8 DUP3 ADD DUP1 SLOAD PUSH2 0xC2B SWAP1 PUSH2 0x326D JUMP JUMPDEST DUP1 PUSH1 0x1F ADD PUSH1 0x20 DUP1 SWAP2 DIV MUL PUSH1 0x20 ADD PUSH1 0x40 MLOAD SWAP1 DUP2 ADD PUSH1 0x40 MSTORE DUP1 SWAP3 SWAP2 SWAP1 DUP2 DUP2 MSTORE PUSH1 0x20 ADD DUP3 DUP1 SLOAD PUSH2 0xC57 SWAP1 PUSH2 0x326D JUMP JUMPDEST DUP1 ISZERO PUSH2 0xCA4 JUMPI DUP1 PUSH1 0x1F LT PUSH2 0xC79 JUMPI PUSH2 0x100 DUP1 DUP4 SLOAD DIV MUL DUP4 MSTORE SWAP2 PUSH1 0x20 ADD SWAP2 PUSH2 0xCA4 JUMP JUMPDEST DUP3 ADD SWAP2 SWAP1 PUSH1 0x0 MSTORE PUSH1 0x20 PUSH1 0x0 KECCAK256 SWAP1 JUMPDEST DUP2 SLOAD DUP2 MSTORE SWAP1 PUSH1 0x1 ADD SWAP1 PUSH1 0x20 ADD DUP1 DUP4 GT PUSH2 0xC87 JUMPI DUP3 SWAP1 SUB PUSH1 0x1F AND DUP3 ADD SWAP2 JUMPDEST POP POP POP POP POP DUP2 MSTORE PUSH1 0x20 ADD PUSH1 0x9 DUP3 ADD DUP1 SLOAD PUSH2 0xCBD SWAP1 PUSH2 0x326D JUMP JUMPDEST DUP1 PUSH1 0x1F ADD PUSH1 0x20 DUP1 SWAP2 DIV MUL PUSH1 0x20 ADD PUSH1 0x40 MLOAD SWAP1 DUP2 ADD PUSH1 0x40 MSTORE DUP1 SWAP3 SWAP2 SWAP1 DUP2 DUP2 MSTORE PUSH1 0x20 ADD DUP3 DUP1 SLOAD PUSH2 0xCE9 SWAP1 PUSH2 0x326D JUMP JUMPDEST DUP1 ISZERO PUSH2 0xD36 JUMPI DUP1 PUSH1 0x1F LT PUSH2 0xD0B JUMPI PUSH2 0x100 DUP1 DUP4 SLOAD DIV MUL DUP4 MSTORE SWAP2 PUSH1 0x20 ADD SWAP2 PUSH2 0xD36 JUMP JUMPDEST DUP3 ADD SWAP2 SWAP1 PUSH1 0x0 MSTORE PUSH1 0x20 PUSH1 0x0 KECCAK256 SWAP1 JUMPDEST DUP2 SLOAD DUP2 MSTORE SWAP1 PUSH1 0x1 ADD SWAP1 PUSH1 0x20 ADD DUP1 DUP4 GT PUSH2 0xD19 JUMPI DUP3 SWAP1 SUB PUSH1 0x1F AND DUP3 ADD SWAP2 JUMPDEST POP POP POP POP POP DUP2 MSTORE PUSH1 0x20 ADD PUSH1 0xA DUP3 ADD DUP1 SLOAD PUSH2 0xD4F SWAP1 PUSH2 0x326D JUMP JUMPDEST DUP1 PUSH1 0x1F ADD PUSH1 0x20 DUP1 SWAP2 DIV MUL PUSH1 0x20 ADD PUSH1 0x40 MLOAD SWAP1 DUP2 ADD PUSH1 0x40 MSTORE DUP1 SWAP3 SWAP2 SWAP1 DUP2 DUP2 MSTORE PUSH1 0x20 ADD DUP3 DUP1 SLOAD PUSH2 0xD7B SWAP1 PUSH2 0x326D JUMP JUMPDEST DUP1 ISZERO PUSH2 0xDC8 JUMPI DUP1 PUSH1 0x1F LT PUSH2 0xD9D JUMPI PUSH2 0x100 DUP1 DUP4 SLOAD DIV MUL DUP4 MSTORE SWAP2 PUSH1 0x20 ADD SWAP2 PUSH2 0xDC8 JUMP JUMPDEST DUP3 ADD SWAP2 SWAP1 PUSH1 0x0 MSTORE PUSH1 0x20 PUSH1 0x0 KECCAK256 SWAP1 JUMPDEST DUP2 SLOAD DUP2 MSTORE SWAP1 PUSH1 0x1 ADD SWAP1 PUSH1 0x20 ADD DUP1 DUP4 GT PUSH2 0xDAB JUMPI DUP3 SWAP1 SUB PUSH1 0x1F AND DUP3 ADD SWAP2 JUMPDEST POP POP POP SWAP2 DUP4 MSTORE POP POP PUSH1 0xB DUP3 ADD SLOAD PUSH1 0x20 DUP3 ADD MSTORE PUSH1 0xC SWAP1 SWAP2 ADD SLOAD PUSH1 0xFF AND ISZERO ISZERO PUSH1 0x40 SWAP1 SWAP2 ADD MSTORE SWAP3 SWAP2 POP POP JUMP JUMPDEST PUSH2 0xDF9 PUSH2 0x27A4 JUMP JUMPDEST POP PUSH1 0x0 SWAP1 DUP2 MSTORE PUSH1 0x6 PUSH1 0x20 DUP2 DUP2 MSTORE PUSH1 0x40 SWAP3 DUP4 SWAP1 KECCAK256 DUP4 MLOAD PUSH2 0x160 DUP2 ADD DUP6 MSTORE DUP2 SLOAD DUP2 MSTORE PUSH1 0x1 DUP3 ADD SLOAD SWAP3 DUP2 ADD SWAP3 SWAP1 SWAP3 MSTORE PUSH1 0x2 DUP2 ADD SLOAD SWAP4 DUP3 ADD SWAP4 SWAP1 SWAP4 MSTORE PUSH1 0x3 DUP4 ADD SLOAD PUSH1 0x60 DUP3 ADD MSTORE PUSH1 0x4 DUP4 ADD SLOAD PUSH1 0x80 DUP3 ADD MSTORE PUSH1 0x5 DUP4 ADD SLOAD PUSH1 0xA0 DUP3 ADD MSTORE SWAP1 DUP3 ADD SLOAD PUSH1 0xC0 DUP3 ADD MSTORE PUSH1 0x7 DUP3 ADD SLOAD PUSH1 0xFF DUP1 DUP3 AND ISZERO ISZERO PUSH1 0xE0 DUP5 ADD MSTORE PUSH2 0x100 SWAP2 DUP3 SWAP1 DIV AND ISZERO ISZERO SWAP1 DUP3 ADD MSTORE PUSH1 0x8 DUP3 ADD SLOAD PUSH2 0x120 DUP3 ADD MSTORE PUSH1 0x9 SWAP1 SWAP2 ADD SLOAD PUSH2 0x140 DUP3 ADD MSTORE SWAP1 JUMP JUMPDEST PUSH1 0x60 PUSH1 0x0 PUSH1 0x1 JUMPDEST PUSH1 0x2 SLOAD DUP2 GT PUSH2 0xEDA JUMPI PUSH1 0x0 DUP2 DUP2 MSTORE PUSH1 0x5 PUSH1 0x20 MSTORE PUSH1 0x40 SWAP1 KECCAK256 PUSH1 0xC ADD SLOAD PUSH1 0xFF AND PUSH2 0xEC8 JUMPI DUP2 PUSH2 0xEC4 DUP2 PUSH2 0x3254 JUMP JUMPDEST SWAP3 POP POP JUMPDEST DUP1 PUSH2 0xED2 DUP2 PUSH2 0x3254 JUMP JUMPDEST SWAP2 POP POP PUSH2 0xE98 JUMP JUMPDEST POP DUP1 PUSH1 0x1 PUSH1 0x1 PUSH1 0x40 SHL SUB DUP2 GT ISZERO PUSH2 0xEF3 JUMPI PUSH2 0xEF3 PUSH2 0x28CD JUMP JUMPDEST PUSH1 0x40 MLOAD SWAP1 DUP1 DUP3 MSTORE DUP1 PUSH1 0x20 MUL PUSH1 0x20 ADD DUP3 ADD PUSH1 0x40 MSTORE DUP1 ISZERO PUSH2 0xF2C JUMPI DUP2 PUSH1 0x20 ADD JUMPDEST PUSH2 0xF19 PUSH2 0x2802 JUMP JUMPDEST DUP2 MSTORE PUSH1 0x20 ADD SWAP1 PUSH1 0x1 SWAP1 SUB SWAP1 DUP2 PUSH2 0xF11 JUMPI SWAP1 POP JUMPDEST POP SWAP2 POP PUSH1 0x0 PUSH1 0x1 JUMPDEST PUSH1 0x2 SLOAD DUP2 GT PUSH2 0x1588 JUMPI PUSH1 0x0 DUP2 DUP2 MSTORE PUSH1 0x5 PUSH1 0x20 MSTORE PUSH1 0x40 SWAP1 KECCAK256 PUSH1 0xC ADD SLOAD PUSH1 0xFF AND PUSH2 0x1576 JUMPI PUSH1 0x5 PUSH1 0x0 DUP3 DUP2 MSTORE PUSH1 0x20 ADD SWAP1 DUP2 MSTORE PUSH1 0x20 ADD PUSH1 0x0 KECCAK256 PUSH1 0x40 MLOAD DUP1 PUSH2 0x1A0 ADD PUSH1 0x40 MSTORE SWAP1 DUP2 PUSH1 0x0 DUP3 ADD SLOAD DUP2 MSTORE PUSH1 0x20 ADD PUSH1 0x1 DUP3 ADD DUP1 SLOAD PUSH2 0xF8F SWAP1 PUSH2 0x326D JUMP JUMPDEST DUP1 PUSH1 0x1F ADD PUSH1 0x20 DUP1 SWAP2 DIV MUL PUSH1 0x20 ADD PUSH1 0x40 MLOAD SWAP1 DUP2 ADD PUSH1 0x40 MSTORE DUP1 SWAP3 SWAP2 SWAP1 DUP2 DUP2 MSTORE PUSH1 0x20 ADD DUP3 DUP1 SLOAD PUSH2 0xFBB SWAP1 PUSH2 0x326D JUMP JUMPDEST DUP1 ISZERO PUSH2 0x1008 JUMPI DUP1 PUSH1 0x1F LT PUSH2 0xFDD JUMPI PUSH2 0x100 DUP1 DUP4 SLOAD DIV MUL DUP4 MSTORE SWAP2 PUSH1 0x20 ADD SWAP2 PUSH2 0x1008 JUMP JUMPDEST DUP3 ADD SWAP2 SWAP1 PUSH1 0x0 MSTORE PUSH1 0x20 PUSH1 0x0 KECCAK256 SWAP1 JUMPDEST DUP2 SLOAD DUP2 MSTORE SWAP1 PUSH1 0x1 ADD SWAP1 PUSH1 0x20 ADD DUP1 DUP4 GT PUSH2 0xFEB JUMPI DUP3 SWAP1 SUB PUSH1 0x1F AND DUP3 ADD SWAP2 JUMPDEST POP POP POP POP POP DUP2 MSTORE PUSH1 0x20 ADD PUSH1 0x2 DUP3 ADD DUP1 SLOAD PUSH2 0x1021 SWAP1 PUSH2 0x326D JUMP JUMPDEST DUP1 PUSH1 0x1F ADD PUSH1 0x20 DUP1 SWAP2 DIV MUL PUSH1 0x20 ADD PUSH1 0x40 MLOAD SWAP1 DUP2 ADD PUSH1 0x40 MSTORE DUP1 SWAP3 SWAP2 SWAP1 DUP2 DUP2 MSTORE PUSH1 0x20 ADD DUP3 DUP1 SLOAD PUSH2 0x104D SWAP1 PUSH2 0x326D JUMP JUMPDEST DUP1 ISZERO PUSH2 0x109A JUMPI DUP1 PUSH1 0x1F LT PUSH2 0x106F JUMPI PUSH2 0x100 DUP1 DUP4 SLOAD DIV MUL DUP4 MSTORE SWAP2 PUSH1 0x20 ADD SWAP2 PUSH2 0x109A JUMP JUMPDEST DUP3 ADD SWAP2 SWAP1 PUSH1 0x0 MSTORE PUSH1 0x20 PUSH1 0x0 KECCAK256 SWAP1 JUMPDEST DUP2 SLOAD DUP2 MSTORE SWAP1 PUSH1 0x1 ADD SWAP1 PUSH1 0x20 ADD DUP1 DUP4 GT PUSH2 0x107D JUMPI DUP3 SWAP1 SUB PUSH1 0x1F AND DUP3 ADD SWAP2 JUMPDEST POP POP POP POP POP DUP2 MSTORE PUSH1 0x20 ADD PUSH1 0x3 DUP3 ADD DUP1 SLOAD PUSH2 0x10B3 SWAP1 PUSH2 0x326D JUMP JUMPDEST DUP1 PUSH1 0x1F ADD PUSH1 0x20 DUP1 SWAP2 DIV MUL PUSH1 0x20 ADD PUSH1 0x40 MLOAD SWAP1 DUP2 ADD PUSH1 0x40 MSTORE DUP1 SWAP3 SWAP2 SWAP1 DUP2 DUP2 MSTORE PUSH1 0x20 ADD DUP3 DUP1 SLOAD PUSH2 0x10DF SWAP1 PUSH2 0x326D JUMP JUMPDEST DUP1 ISZERO PUSH2 0x112C JUMPI DUP1 PUSH1 0x1F LT PUSH2 0x1101 JUMPI PUSH2 0x100 DUP1 DUP4 SLOAD DIV MUL DUP4 MSTORE SWAP2 PUSH1 0x20 ADD SWAP2 PUSH2 0x112C JUMP JUMPDEST DUP3 ADD SWAP2 SWAP1 PUSH1 0x0 MSTORE PUSH1 0x20 PUSH1 0x0 KECCAK256 SWAP1 JUMPDEST DUP2 SLOAD DUP2 MSTORE SWAP1 PUSH1 0x1 ADD SWAP1 PUSH1 0x20 ADD DUP1 DUP4 GT PUSH2 0x110F JUMPI DUP3 SWAP1 SUB PUSH1 0x1F AND DUP3 ADD SWAP2 JUMPDEST POP POP POP POP POP DUP2 MSTORE PUSH1 0x20 ADD PUSH1 0x4 DUP3 ADD DUP1 SLOAD PUSH2 0x1145 SWAP1 PUSH2 0x326D JUMP JUMPDEST DUP1 PUSH1 0x1F ADD PUSH1 0x20 DUP1 SWAP2 DIV MUL PUSH1 0x20 ADD PUSH1 0x40 MLOAD SWAP1 DUP2 ADD PUSH1 0x40 MSTORE DUP1 SWAP3 SWAP2 SWAP1 DUP2 DUP2 MSTORE PUSH1 0x20 ADD DUP3 DUP1 SLOAD PUSH2 0x1171 SWAP1 PUSH2 0x326D JUMP JUMPDEST DUP1 ISZERO PUSH2 0x11BE JUMPI DUP1 PUSH1 0x1F LT PUSH2 0x1193 JUMPI PUSH2 0x100 DUP1 DUP4 SLOAD DIV MUL DUP4 MSTORE SWAP2 PUSH1 0x20 ADD SWAP2 PUSH2 0x11BE JUMP JUMPDEST DUP3 ADD SWAP2 SWAP1 PUSH1 0x0 MSTORE PUSH1 0x20 PUSH1 0x0 KECCAK256 SWAP1 JUMPDEST DUP2 SLOAD DUP2 MSTORE SWAP1 PUSH1 0x1 ADD SWAP1 PUSH1 0x20 ADD DUP1 DUP4 GT PUSH2 0x11A1 JUMPI DUP3 SWAP1 SUB PUSH1 0x1F AND DUP3 ADD SWAP2 JUMPDEST POP POP POP POP POP DUP2 MSTORE PUSH1 0x20 ADD PUSH1 0x5 DUP3 ADD DUP1 SLOAD PUSH2 0x11D7 SWAP1 PUSH2 0x326D JUMP JUMPDEST DUP1 PUSH1 0x1F ADD PUSH1 0x20 DUP1 SWAP2 DIV MUL PUSH1 0x20 ADD PUSH1 0x40 MLOAD SWAP1 DUP2 ADD PUSH1 0x40 MSTORE DUP1 SWAP3 SWAP2 SWAP1 DUP2 DUP2 MSTORE PUSH1 0x20 ADD DUP3 DUP1 SLOAD PUSH2 0x1203 SWAP1 PUSH2 0x326D JUMP JUMPDEST DUP1 ISZERO PUSH2 0x1250 JUMPI DUP1 PUSH1 0x1F LT PUSH2 0x1225 JUMPI PUSH2 0x100 DUP1 DUP4 SLOAD DIV MUL DUP4 MSTORE SWAP2 PUSH1 0x20 ADD SWAP2 PUSH2 0x1250 JUMP JUMPDEST DUP3 ADD SWAP2 SWAP1 PUSH1 0x0 MSTORE PUSH1 0x20 PUSH1 0x0 KECCAK256 SWAP1 JUMPDEST DUP2 SLOAD DUP2 MSTORE SWAP1 PUSH1 0x1 ADD SWAP1 PUSH1 0x20 ADD DUP1 DUP4 GT PUSH2 0x1233 JUMPI DUP3 SWAP1 SUB PUSH1 0x1F AND DUP3 ADD SWAP2 JUMPDEST POP POP POP POP POP DUP2 MSTORE PUSH1 0x20 ADD PUSH1 0x6 DUP3 ADD DUP1 SLOAD PUSH2 0x1269 SWAP1 PUSH2 0x326D JUMP JUMPDEST DUP1 PUSH1 0x1F ADD PUSH1 0x20 DUP1 SWAP2 DIV MUL PUSH1 0x20 ADD PUSH1 0x40 MLOAD SWAP1 DUP2 ADD PUSH1 0x40 MSTORE DUP1 SWAP3 SWAP2 SWAP1 DUP2 DUP2 MSTORE PUSH1 0x20 ADD DUP3 DUP1 SLOAD PUSH2 0x1295 SWAP1 PUSH2 0x326D JUMP JUMPDEST DUP1 ISZERO PUSH2 0x12E2 JUMPI DUP1 PUSH1 0x1F LT PUSH2 0x12B7 JUMPI PUSH2 0x100 DUP1 DUP4 SLOAD DIV MUL DUP4 MSTORE SWAP2 PUSH1 0x20 ADD SWAP2 PUSH2 0x12E2 JUMP JUMPDEST DUP3 ADD SWAP2 SWAP1 PUSH1 0x0 MSTORE PUSH1 0x20 PUSH1 0x0 KECCAK256 SWAP1 JUMPDEST DUP2 SLOAD DUP2 MSTORE SWAP1 PUSH1 0x1 ADD SWAP1 PUSH1 0x20 ADD DUP1 DUP4 GT PUSH2 0x12C5 JUMPI DUP3 SWAP1 SUB PUSH1 0x1F AND DUP3 ADD SWAP2 JUMPDEST POP POP POP POP POP DUP2 MSTORE PUSH1 0x20 ADD PUSH1 0x7 DUP3 ADD DUP1 SLOAD PUSH2 0x12FB SWAP1 PUSH2 0x326D JUMP JUMPDEST DUP1 PUSH1 0x1F ADD PUSH1 0x20 DUP1 SWAP2 DIV MUL PUSH1 0x20 ADD PUSH1 0x40 MLOAD SWAP1 DUP2 ADD PUSH1 0x40 MSTORE DUP1 SWAP3 SWAP2 SWAP1 DUP2 DUP2 MSTORE PUSH1 0x20 ADD DUP3 DUP1 SLOAD PUSH2 0x1327 SWAP1 PUSH2 0x326D JUMP JUMPDEST DUP1 ISZERO PUSH2 0x1374 JUMPI DUP1 PUSH1 0x1F LT PUSH2 0x1349 JUMPI PUSH2 0x100 DUP1 DUP4 SLOAD DIV MUL DUP4 MSTORE SWAP2 PUSH1 0x20 ADD SWAP2 PUSH2 0x1374 JUMP JUMPDEST DUP3 ADD SWAP2 SWAP1 PUSH1 0x0 MSTORE PUSH1 0x20 PUSH1 0x0 KECCAK256 SWAP1 JUMPDEST DUP2 SLOAD DUP2 MSTORE SWAP1 PUSH1 0x1 ADD SWAP1 PUSH1 0x20 ADD DUP1 DUP4 GT PUSH2 0x1357 JUMPI DUP3 SWAP1 SUB PUSH1 0x1F AND DUP3 ADD SWAP2 JUMPDEST POP POP POP POP POP DUP2 MSTORE PUSH1 0x20 ADD PUSH1 0x8 DUP3 ADD DUP1 SLOAD PUSH2 0x138D SWAP1 PUSH2 0x326D JUMP JUMPDEST DUP1 PUSH1 0x1F ADD PUSH1 0x20 DUP1 SWAP2 DIV MUL PUSH1 0x20 ADD PUSH1 0x40 MLOAD SWAP1 DUP2 ADD PUSH1 0x40 MSTORE DUP1 SWAP3 SWAP2 SWAP1 DUP2 DUP2 MSTORE PUSH1 0x20 ADD DUP3 DUP1 SLOAD PUSH2 0x13B9 SWAP1 PUSH2 0x326D JUMP JUMPDEST DUP1 ISZERO PUSH2 0x1406 JUMPI DUP1 PUSH1 0x1F LT PUSH2 0x13DB JUMPI PUSH2 0x100 DUP1 DUP4 SLOAD DIV MUL DUP4 MSTORE SWAP2 PUSH1 0x20 ADD SWAP2 PUSH2 0x1406 JUMP JUMPDEST DUP3 ADD SWAP2 SWAP1 PUSH1 0x0 MSTORE PUSH1 0x20 PUSH1 0x0 KECCAK256 SWAP1 JUMPDEST DUP2 SLOAD DUP2 MSTORE SWAP1 PUSH1 0x1 ADD SWAP1 PUSH1 0x20 ADD DUP1 DUP4 GT PUSH2 0x13E9 JUMPI DUP3 SWAP1 SUB PUSH1 0x1F AND DUP3 ADD SWAP2 JUMPDEST POP POP POP POP POP DUP2 MSTORE PUSH1 0x20 ADD PUSH1 0x9 DUP3 ADD DUP1 SLOAD PUSH2 0x141F SWAP1 PUSH2 0x326D JUMP JUMPDEST DUP1 PUSH1 0x1F ADD PUSH1 0x20 DUP1 SWAP2 DIV MUL PUSH1 0x20 ADD PUSH1 0x40 MLOAD SWAP1 DUP2 ADD PUSH1 0x40 MSTORE DUP1 SWAP3 SWAP2 SWAP1 DUP2 DUP2 MSTORE PUSH1 0x20 ADD DUP3 DUP1 SLOAD PUSH2 0x144B SWAP1 PUSH2 0x326D JUMP JUMPDEST DUP1 ISZERO PUSH2 0x1498 JUMPI DUP1 PUSH1 0x1F LT PUSH2 0x146D JUMPI PUSH2 0x100 DUP1 DUP4 SLOAD DIV MUL DUP4 MSTORE SWAP2 PUSH1 0x20 ADD SWAP2 PUSH2 0x1498 JUMP JUMPDEST DUP3 ADD SWAP2 SWAP1 PUSH1 0x0 MSTORE PUSH1 0x20 PUSH1 0x0 KECCAK256 SWAP1 JUMPDEST DUP2 SLOAD DUP2 MSTORE SWAP1 PUSH1 0x1 ADD SWAP1 PUSH1 0x20 ADD DUP1 DUP4 GT PUSH2 0x147B JUMPI DUP3 SWAP1 SUB PUSH1 0x1F AND DUP3 ADD SWAP2 JUMPDEST POP POP POP POP POP DUP2 MSTORE PUSH1 0x20 ADD PUSH1 0xA DUP3 ADD DUP1 SLOAD PUSH2 0x14B1 SWAP1 PUSH2 0x326D JUMP JUMPDEST DUP1 PUSH1 0x1F ADD PUSH1 0x20 DUP1 SWAP2 DIV MUL PUSH1 0x20 ADD PUSH1 0x40 MLOAD SWAP1 DUP2 ADD PUSH1 0x40 MSTORE DUP1 SWAP3 SWAP2 SWAP1 DUP2 DUP2 MSTORE PUSH1 0x20 ADD DUP3 DUP1 SLOAD PUSH2 0x14DD SWAP1 PUSH2 0x326D JUMP JUMPDEST DUP1 ISZERO PUSH2 0x152A JUMPI DUP1 PUSH1 0x1F LT PUSH2 0x14FF JUMPI PUSH2 0x100 DUP1 DUP4 SLOAD DIV MUL DUP4 MSTORE SWAP2 PUSH1 0x20 ADD SWAP2 PUSH2 0x152A JUMP JUMPDEST DUP3 ADD SWAP2 SWAP1 PUSH1 0x0 MSTORE PUSH1 0x20 PUSH1 0x0 KECCAK256 SWAP1 JUMPDEST DUP2 SLOAD DUP2 MSTORE SWAP1 PUSH1 0x1 ADD SWAP1 PUSH1 0x20 ADD DUP1 DUP4 GT PUSH2 0x150D JUMPI DUP3 SWAP1 SUB PUSH1 0x1F AND DUP3 ADD SWAP2 JUMPDEST POP POP POP SWAP2 DUP4 MSTORE POP POP PUSH1 0xB DUP3 ADD SLOAD PUSH1 0x20 DUP3 ADD MSTORE PUSH1 0xC SWAP1 SWAP2 ADD SLOAD PUSH1 0xFF AND ISZERO ISZERO PUSH1 0x40 SWAP1 SWAP2 ADD MSTORE DUP5 DUP4 PUSH2 0x1558 DUP2 PUSH2 0x3254 JUMP JUMPDEST SWAP5 POP DUP2 MLOAD DUP2 LT PUSH2 0x156A JUMPI PUSH2 0x156A PUSH2 0x3228 JUMP JUMPDEST PUSH1 0x20 MUL PUSH1 0x20 ADD ADD DUP2 SWAP1 MSTORE POP JUMPDEST DUP1 PUSH2 0x1580 DUP2 PUSH2 0x3254 JUMP JUMPDEST SWAP2 POP POP PUSH2 0xF34 JUMP JUMPDEST POP POP POP SWAP1 JUMP JUMPDEST PUSH1 0x0 DUP3 DUP2 MSTORE PUSH1 0x1 PUSH1 0x20 DUP2 SWAP1 MSTORE PUSH1 0x40 SWAP1 SWAP2 KECCAK256 ADD SLOAD PUSH2 0x15AA DUP2 PUSH2 0x24B7 JUMP JUMPDEST PUSH2 0x15B4 DUP4 DUP4 PUSH2 0x24C1 JUMP JUMPDEST POP POP POP JUMP JUMPDEST PUSH1 0x1 PUSH1 0x1 PUSH1 0xA0 SHL SUB DUP2 AND CALLER EQ PUSH2 0x1629 JUMPI PUSH1 0x40 MLOAD PUSH3 0x461BCD PUSH1 0xE5 SHL DUP2 MSTORE PUSH1 0x20 PUSH1 0x4 DUP3 ADD MSTORE PUSH1 0x2F PUSH1 0x24 DUP3 ADD MSTORE PUSH32 0x416363657373436F6E74726F6C3A2063616E206F6E6C792072656E6F756E6365 PUSH1 0x44 DUP3 ADD MSTORE PUSH15 0x103937B632B9903337B91039B2B633 PUSH1 0x89 SHL PUSH1 0x64 DUP3 ADD MSTORE PUSH1 0x84 ADD PUSH2 0x47A JUMP JUMPDEST PUSH2 0x1633 DUP3 DUP3 PUSH2 0x2450 JUMP JUMPDEST POP POP JUMP JUMPDEST PUSH2 0x164F PUSH1 0x0 DUP1 MLOAD PUSH1 0x20 PUSH2 0x34B5 DUP4 CODECOPY DUP2 MLOAD SWAP2 MSTORE CALLER PUSH2 0x1C20 JUMP JUMPDEST PUSH2 0x166B JUMPI PUSH1 0x40 MLOAD PUSH3 0x461BCD PUSH1 0xE5 SHL DUP2 MSTORE PUSH1 0x4 ADD PUSH2 0x47A SWAP1 PUSH2 0x32A7 JUMP JUMPDEST PUSH1 0x0 DUP2 DUP2 MSTORE PUSH1 0x6 PUSH1 0x20 MSTORE PUSH1 0x40 SWAP1 DUP2 SWAP1 KECCAK256 PUSH1 0x7 ADD DUP1 SLOAD PUSH1 0xFF NOT AND PUSH1 0x1 OR SWAP1 SSTORE MLOAD PUSH1 0x0 DUP1 MLOAD PUSH1 0x20 PUSH2 0x34D5 DUP4 CODECOPY DUP2 MLOAD SWAP2 MSTORE SWAP1 PUSH2 0x16C8 SWAP1 PUSH1 0x20 DUP1 DUP3 MSTORE PUSH1 0x10 SWAP1 DUP3 ADD MSTORE PUSH16 0x151A5B595CDB1BDD0819195B195D1959 PUSH1 0x82 SHL PUSH1 0x40 DUP3 ADD MSTORE PUSH1 0x60 ADD SWAP1 JUMP JUMPDEST PUSH1 0x40 MLOAD DUP1 SWAP2 SUB SWAP1 LOG1 POP JUMP JUMPDEST PUSH2 0x16EB PUSH1 0x0 DUP1 MLOAD PUSH1 0x20 PUSH2 0x34B5 DUP4 CODECOPY DUP2 MLOAD SWAP2 MSTORE CALLER PUSH2 0x1C20 JUMP JUMPDEST PUSH2 0x1707 JUMPI PUSH1 0x40 MLOAD PUSH3 0x461BCD PUSH1 0xE5 SHL DUP2 MSTORE PUSH1 0x4 ADD PUSH2 0x47A SWAP1 PUSH2 0x32A7 JUMP JUMPDEST DUP1 MLOAD PUSH1 0x0 SWAP1 DUP2 MSTORE PUSH1 0x6 PUSH1 0x20 DUP2 DUP2 MSTORE PUSH1 0x40 SWAP3 DUP4 SWAP1 KECCAK256 DUP5 MLOAD DUP2 SSTORE SWAP1 DUP5 ADD MLOAD PUSH1 0x1 DUP3 ADD SSTORE SWAP2 DUP4 ADD MLOAD PUSH1 0x2 DUP4 ADD SSTORE PUSH1 0x60 DUP4 ADD MLOAD PUSH1 0x3 DUP4 ADD SSTORE PUSH1 0x80 DUP4 ADD MLOAD PUSH1 0x4 DUP4 ADD SSTORE PUSH1 0xA0 DUP4 ADD MLOAD PUSH1 0x5 DUP4 ADD SSTORE PUSH1 0xC0 DUP4 ADD MLOAD SWAP1 DUP3 ADD SSTORE PUSH1 0xE0 DUP3 ADD MLOAD PUSH1 0x7 DUP3 ADD DUP1 SLOAD PUSH2 0x100 DUP1 DUP7 ADD MLOAD ISZERO ISZERO MUL PUSH2 0xFF00 NOT SWAP4 ISZERO ISZERO SWAP4 SWAP1 SWAP4 AND PUSH2 0xFFFF NOT SWAP1 SWAP2 AND OR SWAP2 SWAP1 SWAP2 OR SWAP1 SSTORE PUSH2 0x120 DUP3 ADD MLOAD PUSH1 0x8 DUP3 ADD SSTORE PUSH2 0x140 SWAP1 SWAP2 ADD MLOAD PUSH1 0x9 SWAP1 SWAP2 ADD SSTORE JUMP JUMPDEST PUSH2 0x17A8 PUSH2 0x23EC JUMP JUMPDEST PUSH1 0x0 DUP2 DUP2 MSTORE PUSH1 0x4 PUSH1 0x20 MSTORE PUSH1 0x40 SWAP1 KECCAK256 SLOAD PUSH1 0xFF AND PUSH2 0x17D6 JUMPI PUSH1 0x40 MLOAD PUSH3 0x461BCD PUSH1 0xE5 SHL DUP2 MSTORE PUSH1 0x4 ADD PUSH2 0x47A SWAP1 PUSH2 0x31FA JUMP JUMPDEST PUSH1 0x0 DUP2 DUP2 MSTORE PUSH1 0x5 PUSH1 0x20 SWAP1 DUP2 MSTORE PUSH1 0x40 DUP1 DUP4 KECCAK256 PUSH1 0xC ADD DUP1 SLOAD PUSH1 0xFF NOT SWAP1 DUP2 AND PUSH1 0x1 OR SWAP1 SWAP2 SSTORE PUSH1 0x4 SWAP1 SWAP3 MSTORE SWAP2 DUP3 SWAP1 KECCAK256 DUP1 SLOAD SWAP1 SWAP2 AND SWAP1 SSTORE MLOAD PUSH1 0x0 DUP1 MLOAD PUSH1 0x20 PUSH2 0x34D5 DUP4 CODECOPY DUP2 MLOAD SWAP2 MSTORE SWAP1 PUSH2 0x16C8 SWAP1 PUSH1 0x20 DUP1 DUP3 MSTORE PUSH1 0xD SWAP1 DUP3 ADD MSTORE PUSH13 0x135BDD9A594819195B195D1959 PUSH1 0x9A SHL PUSH1 0x40 DUP3 ADD MSTORE PUSH1 0x60 ADD SWAP1 JUMP JUMPDEST PUSH2 0x184C PUSH2 0x23EC JUMP JUMPDEST PUSH2 0x1856 PUSH1 0x0 PUSH2 0x252C JUMP JUMPDEST JUMP JUMPDEST PUSH1 0x60 PUSH1 0x0 DUP1 JUMPDEST PUSH1 0x3 SLOAD DUP2 LT ISZERO PUSH2 0x18DF JUMPI DUP4 PUSH1 0x6 PUSH1 0x0 PUSH2 0x1878 DUP5 PUSH1 0x1 PUSH2 0x32DE JUMP JUMPDEST DUP2 MSTORE PUSH1 0x20 ADD SWAP1 DUP2 MSTORE PUSH1 0x20 ADD PUSH1 0x0 KECCAK256 PUSH1 0x1 ADD SLOAD EQ DUP1 ISZERO PUSH2 0x18BA JUMPI POP PUSH1 0x6 PUSH1 0x0 PUSH2 0x18A1 DUP4 PUSH1 0x1 PUSH2 0x32DE JUMP JUMPDEST DUP2 MSTORE PUSH1 0x20 DUP2 ADD SWAP2 SWAP1 SWAP2 MSTORE PUSH1 0x40 ADD PUSH1 0x0 KECCAK256 PUSH1 0x7 ADD SLOAD PUSH1 0xFF AND ISZERO JUMPDEST ISZERO PUSH2 0x18CD JUMPI DUP2 PUSH2 0x18C9 DUP2 PUSH2 0x3254 JUMP JUMPDEST SWAP3 POP POP JUMPDEST DUP1 PUSH2 0x18D7 DUP2 PUSH2 0x3254 JUMP JUMPDEST SWAP2 POP POP PUSH2 0x185E JUMP JUMPDEST POP DUP1 PUSH1 0x1 PUSH1 0x1 PUSH1 0x40 SHL SUB DUP2 GT ISZERO PUSH2 0x18F8 JUMPI PUSH2 0x18F8 PUSH2 0x28CD JUMP JUMPDEST PUSH1 0x40 MLOAD SWAP1 DUP1 DUP3 MSTORE DUP1 PUSH1 0x20 MUL PUSH1 0x20 ADD DUP3 ADD PUSH1 0x40 MSTORE DUP1 ISZERO PUSH2 0x1931 JUMPI DUP2 PUSH1 0x20 ADD JUMPDEST PUSH2 0x191E PUSH2 0x27A4 JUMP JUMPDEST DUP2 MSTORE PUSH1 0x20 ADD SWAP1 PUSH1 0x1 SWAP1 SUB SWAP1 DUP2 PUSH2 0x1916 JUMPI SWAP1 POP JUMPDEST POP SWAP2 POP PUSH1 0x0 DUP1 JUMPDEST PUSH1 0x3 SLOAD DUP2 LT ISZERO PUSH2 0x1A77 JUMPI DUP5 PUSH1 0x6 PUSH1 0x0 PUSH2 0x1952 DUP5 PUSH1 0x1 PUSH2 0x32DE JUMP JUMPDEST DUP2 MSTORE PUSH1 0x20 ADD SWAP1 DUP2 MSTORE PUSH1 0x20 ADD PUSH1 0x0 KECCAK256 PUSH1 0x1 ADD SLOAD EQ DUP1 ISZERO PUSH2 0x1994 JUMPI POP PUSH1 0x6 PUSH1 0x0 PUSH2 0x197B DUP4 PUSH1 0x1 PUSH2 0x32DE JUMP JUMPDEST DUP2 MSTORE PUSH1 0x20 DUP2 ADD SWAP2 SWAP1 SWAP2 MSTORE PUSH1 0x40 ADD PUSH1 0x0 KECCAK256 PUSH1 0x7 ADD SLOAD PUSH1 0xFF AND ISZERO JUMPDEST ISZERO PUSH2 0x1A65 JUMPI PUSH1 0x6 PUSH1 0x0 PUSH2 0x19A8 DUP4 PUSH1 0x1 PUSH2 0x32DE JUMP JUMPDEST DUP2 MSTORE PUSH1 0x20 DUP1 DUP3 ADD SWAP3 SWAP1 SWAP3 MSTORE PUSH1 0x40 SWAP1 DUP2 ADD PUSH1 0x0 KECCAK256 DUP2 MLOAD PUSH2 0x160 DUP2 ADD DUP4 MSTORE DUP2 SLOAD DUP2 MSTORE PUSH1 0x1 DUP3 ADD SLOAD SWAP4 DUP2 ADD SWAP4 SWAP1 SWAP4 MSTORE PUSH1 0x2 DUP2 ADD SLOAD SWAP2 DUP4 ADD SWAP2 SWAP1 SWAP2 MSTORE PUSH1 0x3 DUP2 ADD SLOAD PUSH1 0x60 DUP4 ADD MSTORE PUSH1 0x4 DUP2 ADD SLOAD PUSH1 0x80 DUP4 ADD MSTORE PUSH1 0x5 DUP2 ADD SLOAD PUSH1 0xA0 DUP4 ADD MSTORE PUSH1 0x6 DUP2 ADD SLOAD PUSH1 0xC0 DUP4 ADD MSTORE PUSH1 0x7 DUP2 ADD SLOAD PUSH1 0xFF DUP1 DUP3 AND ISZERO ISZERO PUSH1 0xE0 DUP6 ADD MSTORE PUSH2 0x100 SWAP2 DUP3 SWAP1 DIV AND ISZERO ISZERO SWAP1 DUP4 ADD MSTORE PUSH1 0x8 DUP2 ADD SLOAD PUSH2 0x120 DUP4 ADD MSTORE PUSH1 0x9 ADD SLOAD PUSH2 0x140 DUP3 ADD MSTORE DUP5 DUP4 PUSH2 0x1A47 DUP2 PUSH2 0x3254 JUMP JUMPDEST SWAP5 POP DUP2 MLOAD DUP2 LT PUSH2 0x1A59 JUMPI PUSH2 0x1A59 PUSH2 0x3228 JUMP JUMPDEST PUSH1 0x20 MUL PUSH1 0x20 ADD ADD DUP2 SWAP1 MSTORE POP JUMPDEST DUP1 PUSH2 0x1A6F DUP2 PUSH2 0x3254 JUMP JUMPDEST SWAP2 POP POP PUSH2 0x1938 JUMP JUMPDEST POP POP POP SWAP2 SWAP1 POP JUMP JUMPDEST PUSH2 0x1A87 PUSH2 0x23EC JUMP JUMPDEST PUSH1 0x0 DUP12 DUP2 MSTORE PUSH1 0x4 PUSH1 0x20 MSTORE PUSH1 0x40 SWAP1 KECCAK256 SLOAD PUSH1 0xFF AND PUSH2 0x1AB5 JUMPI PUSH1 0x40 MLOAD PUSH3 0x461BCD PUSH1 0xE5 SHL DUP2 MSTORE PUSH1 0x4 ADD PUSH2 0x47A SWAP1 PUSH2 0x31FA JUMP JUMPDEST PUSH1 0x0 DUP12 DUP2 MSTORE PUSH1 0x5 PUSH1 0x20 MSTORE PUSH1 0x40 SWAP1 KECCAK256 PUSH1 0x1 ADD PUSH2 0x1AD0 DUP12 DUP3 PUSH2 0x333F JUMP JUMPDEST POP PUSH1 0x0 DUP12 DUP2 MSTORE PUSH1 0x5 PUSH1 0x20 MSTORE PUSH1 0x40 SWAP1 KECCAK256 PUSH1 0x2 ADD PUSH2 0x1AEC DUP11 DUP3 PUSH2 0x333F JUMP JUMPDEST POP PUSH1 0x0 DUP12 DUP2 MSTORE PUSH1 0x5 PUSH1 0x20 MSTORE PUSH1 0x40 SWAP1 KECCAK256 PUSH1 0x3 ADD PUSH2 0x1B08 DUP10 DUP3 PUSH2 0x333F JUMP JUMPDEST POP PUSH1 0x0 DUP12 DUP2 MSTORE PUSH1 0x5 PUSH1 0x20 MSTORE PUSH1 0x40 SWAP1 KECCAK256 PUSH1 0x4 ADD PUSH2 0x1B24 DUP9 DUP3 PUSH2 0x333F JUMP JUMPDEST POP PUSH1 0x0 DUP12 DUP2 MSTORE PUSH1 0x5 PUSH1 0x20 DUP2 SWAP1 MSTORE PUSH1 0x40 SWAP1 SWAP2 KECCAK256 ADD PUSH2 0x1B41 DUP8 DUP3 PUSH2 0x333F JUMP JUMPDEST POP PUSH1 0x0 DUP12 DUP2 MSTORE PUSH1 0x5 PUSH1 0x20 MSTORE PUSH1 0x40 SWAP1 KECCAK256 PUSH1 0x6 ADD PUSH2 0x1B5D DUP7 DUP3 PUSH2 0x333F JUMP JUMPDEST POP PUSH1 0x0 DUP12 DUP2 MSTORE PUSH1 0x5 PUSH1 0x20 MSTORE PUSH1 0x40 SWAP1 KECCAK256 PUSH1 0x7 ADD PUSH2 0x1B79 DUP6 DUP3 PUSH2 0x333F JUMP JUMPDEST POP PUSH1 0x0 DUP12 DUP2 MSTORE PUSH1 0x5 PUSH1 0x20 MSTORE PUSH1 0x40 SWAP1 KECCAK256 PUSH1 0x8 ADD PUSH2 0x1B95 DUP5 DUP3 PUSH2 0x333F JUMP JUMPDEST POP PUSH1 0x0 DUP12 DUP2 MSTORE PUSH1 0x5 PUSH1 0x20 MSTORE PUSH1 0x40 SWAP1 KECCAK256 PUSH1 0x9 ADD PUSH2 0x1BB1 DUP4 DUP3 PUSH2 0x333F JUMP JUMPDEST POP PUSH1 0x0 DUP12 DUP2 MSTORE PUSH1 0x5 PUSH1 0x20 MSTORE PUSH1 0x40 SWAP1 KECCAK256 PUSH1 0xA ADD PUSH2 0x1BCD DUP3 DUP3 PUSH2 0x333F JUMP JUMPDEST POP PUSH1 0x0 DUP1 MLOAD PUSH1 0x20 PUSH2 0x34D5 DUP4 CODECOPY DUP2 MLOAD SWAP2 MSTORE PUSH1 0x40 MLOAD PUSH2 0x1C0B SWAP1 PUSH1 0x20 DUP1 DUP3 MSTORE PUSH1 0xD SWAP1 DUP3 ADD MSTORE PUSH13 0x135BDD9A59481D5C19185D1959 PUSH1 0x9A SHL PUSH1 0x40 DUP3 ADD MSTORE PUSH1 0x60 ADD SWAP1 JUMP JUMPDEST PUSH1 0x40 MLOAD DUP1 SWAP2 SUB SWAP1 LOG1 POP POP POP POP POP POP POP POP POP POP POP JUMP JUMPDEST PUSH1 0x0 SWAP2 DUP3 MSTORE PUSH1 0x1 PUSH1 0x20 SWAP1 DUP2 MSTORE PUSH1 0x40 DUP1 DUP5 KECCAK256 PUSH1 0x1 PUSH1 0x1 PUSH1 0xA0 SHL SUB SWAP4 SWAP1 SWAP4 AND DUP5 MSTORE SWAP2 SWAP1 MSTORE SWAP1 KECCAK256 SLOAD PUSH1 0xFF AND SWAP1 JUMP JUMPDEST PUSH2 0x1C53 PUSH2 0x23EC JUMP JUMPDEST PUSH2 0x1C61 PUSH1 0x2 DUP1 SLOAD PUSH1 0x1 ADD SWAP1 SSTORE JUMP JUMPDEST PUSH1 0x0 PUSH2 0x1C6C PUSH1 0x2 SLOAD SWAP1 JUMP JUMPDEST SWAP1 POP PUSH2 0x1C76 PUSH2 0x2802 JUMP JUMPDEST DUP2 DUP2 MSTORE PUSH1 0x20 DUP2 ADD DUP13 SWAP1 MSTORE PUSH1 0x40 DUP2 ADD DUP12 SWAP1 MSTORE PUSH1 0x60 DUP2 ADD DUP11 SWAP1 MSTORE PUSH1 0x80 DUP2 ADD DUP10 SWAP1 MSTORE PUSH1 0xA0 DUP2 ADD DUP9 SWAP1 MSTORE PUSH1 0xC0 DUP2 ADD DUP8 SWAP1 MSTORE PUSH1 0xE0 DUP2 ADD DUP7 SWAP1 MSTORE PUSH2 0x100 DUP2 ADD DUP6 SWAP1 MSTORE PUSH2 0x120 DUP2 ADD DUP5 SWAP1 MSTORE PUSH2 0x140 DUP2 ADD DUP4 SWAP1 MSTORE PUSH2 0x1CCA PUSH2 0x257C JUMP JUMPDEST PUSH2 0x160 DUP3 ADD MSTORE PUSH1 0x0 DUP3 DUP2 MSTORE PUSH1 0x5 PUSH1 0x20 SWAP1 DUP2 MSTORE PUSH1 0x40 SWAP1 SWAP2 KECCAK256 DUP3 MLOAD DUP2 SSTORE SWAP1 DUP3 ADD MLOAD DUP3 SWAP2 SWAP1 PUSH1 0x1 DUP3 ADD SWAP1 PUSH2 0x1CFB SWAP1 DUP3 PUSH2 0x333F JUMP JUMPDEST POP PUSH1 0x40 DUP3 ADD MLOAD PUSH1 0x2 DUP3 ADD SWAP1 PUSH2 0x1D10 SWAP1 DUP3 PUSH2 0x333F JUMP JUMPDEST POP PUSH1 0x60 DUP3 ADD MLOAD PUSH1 0x3 DUP3 ADD SWAP1 PUSH2 0x1D25 SWAP1 DUP3 PUSH2 0x333F JUMP JUMPDEST POP PUSH1 0x80 DUP3 ADD MLOAD PUSH1 0x4 DUP3 ADD SWAP1 PUSH2 0x1D3A SWAP1 DUP3 PUSH2 0x333F JUMP JUMPDEST POP PUSH1 0xA0 DUP3 ADD MLOAD PUSH1 0x5 DUP3 ADD SWAP1 PUSH2 0x1D4F SWAP1 DUP3 PUSH2 0x333F JUMP JUMPDEST POP PUSH1 0xC0 DUP3 ADD MLOAD PUSH1 0x6 DUP3 ADD SWAP1 PUSH2 0x1D64 SWAP1 DUP3 PUSH2 0x333F JUMP JUMPDEST POP PUSH1 0xE0 DUP3 ADD MLOAD PUSH1 0x7 DUP3 ADD SWAP1 PUSH2 0x1D79 SWAP1 DUP3 PUSH2 0x333F JUMP JUMPDEST POP PUSH2 0x100 DUP3 ADD MLOAD PUSH1 0x8 DUP3 ADD SWAP1 PUSH2 0x1D8F SWAP1 DUP3 PUSH2 0x333F JUMP JUMPDEST POP PUSH2 0x120 DUP3 ADD MLOAD PUSH1 0x9 DUP3 ADD SWAP1 PUSH2 0x1DA5 SWAP1 DUP3 PUSH2 0x333F JUMP JUMPDEST POP PUSH2 0x140 DUP3 ADD MLOAD PUSH1 0xA DUP3 ADD SWAP1 PUSH2 0x1DBB SWAP1 DUP3 PUSH2 0x333F JUMP JUMPDEST POP PUSH2 0x160 DUP3 ADD MLOAD PUSH1 0xB DUP3 ADD SSTORE PUSH2 0x180 SWAP1 SWAP2 ADD MLOAD PUSH1 0xC SWAP1 SWAP2 ADD DUP1 SLOAD SWAP2 ISZERO ISZERO PUSH1 0xFF NOT SWAP3 DUP4 AND OR SWAP1 SSTORE PUSH1 0x0 DUP4 DUP2 MSTORE PUSH1 0x4 PUSH1 0x20 MSTORE PUSH1 0x40 SWAP1 DUP2 SWAP1 KECCAK256 DUP1 SLOAD SWAP1 SWAP3 AND PUSH1 0x1 OR SWAP1 SWAP2 SSTORE MLOAD PUSH1 0x0 DUP1 MLOAD PUSH1 0x20 PUSH2 0x34D5 DUP4 CODECOPY DUP2 MLOAD SWAP2 MSTORE SWAP1 PUSH2 0x1E36 SWAP1 PUSH1 0x20 DUP1 DUP3 MSTORE PUSH1 0xB SWAP1 DUP3 ADD MSTORE PUSH11 0x135BDD9A59481859191959 PUSH1 0xAA SHL PUSH1 0x40 DUP3 ADD MSTORE PUSH1 0x60 ADD SWAP1 JUMP JUMPDEST PUSH1 0x40 MLOAD DUP1 SWAP2 SUB SWAP1 LOG1 POP POP POP POP POP POP POP POP POP POP POP POP JUMP JUMPDEST PUSH2 0x1E64 PUSH1 0x0 DUP1 MLOAD PUSH1 0x20 PUSH2 0x34B5 DUP4 CODECOPY DUP2 MLOAD SWAP2 MSTORE CALLER PUSH2 0x1C20 JUMP JUMPDEST PUSH2 0x1E80 JUMPI PUSH1 0x40 MLOAD PUSH3 0x461BCD PUSH1 0xE5 SHL DUP2 MSTORE PUSH1 0x4 ADD PUSH2 0x47A SWAP1 PUSH2 0x32A7 JUMP JUMPDEST PUSH1 0x0 DUP2 DUP2 MSTORE PUSH1 0x6 PUSH1 0x20 MSTORE PUSH1 0x40 SWAP1 DUP2 SWAP1 KECCAK256 PUSH1 0x7 ADD DUP1 SLOAD PUSH2 0xFF00 NOT AND PUSH2 0x100 OR SWAP1 SSTORE MLOAD PUSH1 0x0 DUP1 MLOAD PUSH1 0x20 PUSH2 0x34D5 DUP4 CODECOPY DUP2 MLOAD SWAP2 MSTORE SWAP1 PUSH2 0x16C8 SWAP1 PUSH1 0x20 DUP1 DUP3 MSTORE PUSH1 0x12 SWAP1 DUP3 ADD MSTORE PUSH18 0x151A5B595CDB1BDD0818DBDB5C1B195D1959 PUSH1 0x72 SHL PUSH1 0x40 DUP3 ADD MSTORE PUSH1 0x60 ADD SWAP1 JUMP JUMPDEST PUSH1 0x60 PUSH1 0x0 DUP1 JUMPDEST PUSH1 0x3 SLOAD DUP2 LT ISZERO PUSH2 0x1F9C JUMPI DUP4 PUSH1 0x6 PUSH1 0x0 PUSH2 0x1F01 DUP5 PUSH1 0x1 PUSH2 0x32DE JUMP JUMPDEST DUP2 MSTORE PUSH1 0x20 ADD SWAP1 DUP2 MSTORE PUSH1 0x20 ADD PUSH1 0x0 KECCAK256 PUSH1 0x1 ADD SLOAD EQ DUP1 ISZERO PUSH2 0x1F43 JUMPI POP PUSH1 0x6 PUSH1 0x0 PUSH2 0x1F2A DUP4 PUSH1 0x1 PUSH2 0x32DE JUMP JUMPDEST DUP2 MSTORE PUSH1 0x20 DUP2 ADD SWAP2 SWAP1 SWAP2 MSTORE PUSH1 0x40 ADD PUSH1 0x0 KECCAK256 PUSH1 0x7 ADD SLOAD PUSH1 0xFF AND ISZERO JUMPDEST DUP1 ISZERO PUSH2 0x1F77 JUMPI POP PUSH1 0x6 PUSH1 0x0 PUSH2 0x1F59 DUP4 PUSH1 0x1 PUSH2 0x32DE JUMP JUMPDEST DUP2 MSTORE PUSH1 0x20 DUP2 ADD SWAP2 SWAP1 SWAP2 MSTORE PUSH1 0x40 ADD PUSH1 0x0 KECCAK256 PUSH1 0x7 ADD SLOAD PUSH2 0x100 SWAP1 DIV PUSH1 0xFF AND ISZERO JUMPDEST ISZERO PUSH2 0x1F8A JUMPI DUP2 PUSH2 0x1F86 DUP2 PUSH2 0x3254 JUMP JUMPDEST SWAP3 POP POP JUMPDEST DUP1 PUSH2 0x1F94 DUP2 PUSH2 0x3254 JUMP JUMPDEST SWAP2 POP POP PUSH2 0x1EE7 JUMP JUMPDEST POP DUP1 PUSH1 0x1 PUSH1 0x1 PUSH1 0x40 SHL SUB DUP2 GT ISZERO PUSH2 0x1FB5 JUMPI PUSH2 0x1FB5 PUSH2 0x28CD JUMP JUMPDEST PUSH1 0x40 MLOAD SWAP1 DUP1 DUP3 MSTORE DUP1 PUSH1 0x20 MUL PUSH1 0x20 ADD DUP3 ADD PUSH1 0x40 MSTORE DUP1 ISZERO PUSH2 0x1FEE JUMPI DUP2 PUSH1 0x20 ADD JUMPDEST PUSH2 0x1FDB PUSH2 0x27A4 JUMP JUMPDEST DUP2 MSTORE PUSH1 0x20 ADD SWAP1 PUSH1 0x1 SWAP1 SUB SWAP1 DUP2 PUSH2 0x1FD3 JUMPI SWAP1 POP JUMPDEST POP SWAP2 POP PUSH1 0x0 DUP1 JUMPDEST PUSH1 0x3 SLOAD DUP2 LT ISZERO PUSH2 0x1A77 JUMPI DUP5 PUSH1 0x6 PUSH1 0x0 PUSH2 0x200F DUP5 PUSH1 0x1 PUSH2 0x32DE JUMP JUMPDEST DUP2 MSTORE PUSH1 0x20 ADD SWAP1 DUP2 MSTORE PUSH1 0x20 ADD PUSH1 0x0 KECCAK256 PUSH1 0x1 ADD SLOAD EQ DUP1 ISZERO PUSH2 0x2051 JUMPI POP PUSH1 0x6 PUSH1 0x0 PUSH2 0x2038 DUP4 PUSH1 0x1 PUSH2 0x32DE JUMP JUMPDEST DUP2 MSTORE PUSH1 0x20 DUP2 ADD SWAP2 SWAP1 SWAP2 MSTORE PUSH1 0x40 ADD PUSH1 0x0 KECCAK256 PUSH1 0x7 ADD SLOAD PUSH1 0xFF AND ISZERO JUMPDEST DUP1 ISZERO PUSH2 0x2085 JUMPI POP PUSH1 0x6 PUSH1 0x0 PUSH2 0x2067 DUP4 PUSH1 0x1 PUSH2 0x32DE JUMP JUMPDEST DUP2 MSTORE PUSH1 0x20 DUP2 ADD SWAP2 SWAP1 SWAP2 MSTORE PUSH1 0x40 ADD PUSH1 0x0 KECCAK256 PUSH1 0x7 ADD SLOAD PUSH2 0x100 SWAP1 DIV PUSH1 0xFF AND ISZERO JUMPDEST ISZERO PUSH2 0x2156 JUMPI PUSH1 0x6 PUSH1 0x0 PUSH2 0x2099 DUP4 PUSH1 0x1 PUSH2 0x32DE JUMP JUMPDEST DUP2 MSTORE PUSH1 0x20 DUP1 DUP3 ADD SWAP3 SWAP1 SWAP3 MSTORE PUSH1 0x40 SWAP1 DUP2 ADD PUSH1 0x0 KECCAK256 DUP2 MLOAD PUSH2 0x160 DUP2 ADD DUP4 MSTORE DUP2 SLOAD DUP2 MSTORE PUSH1 0x1 DUP3 ADD SLOAD SWAP4 DUP2 ADD SWAP4 SWAP1 SWAP4 MSTORE PUSH1 0x2 DUP2 ADD SLOAD SWAP2 DUP4 ADD SWAP2 SWAP1 SWAP2 MSTORE PUSH1 0x3 DUP2 ADD SLOAD PUSH1 0x60 DUP4 ADD MSTORE PUSH1 0x4 DUP2 ADD SLOAD PUSH1 0x80 DUP4 ADD MSTORE PUSH1 0x5 DUP2 ADD SLOAD PUSH1 0xA0 DUP4 ADD MSTORE PUSH1 0x6 DUP2 ADD SLOAD PUSH1 0xC0 DUP4 ADD MSTORE PUSH1 0x7 DUP2 ADD SLOAD PUSH1 0xFF DUP1 DUP3 AND ISZERO ISZERO PUSH1 0xE0 DUP6 ADD MSTORE PUSH2 0x100 SWAP2 DUP3 SWAP1 DIV AND ISZERO ISZERO SWAP1 DUP4 ADD MSTORE PUSH1 0x8 DUP2 ADD SLOAD PUSH2 0x120 DUP4 ADD MSTORE PUSH1 0x9 ADD SLOAD PUSH2 0x140 DUP3 ADD MSTORE DUP5 DUP4 PUSH2 0x2138 DUP2 PUSH2 0x3254 JUMP JUMPDEST SWAP5 POP DUP2 MLOAD DUP2 LT PUSH2 0x214A JUMPI PUSH2 0x214A PUSH2 0x3228 JUMP JUMPDEST PUSH1 0x20 MUL PUSH1 0x20 ADD ADD DUP2 SWAP1 MSTORE POP JUMPDEST DUP1 PUSH2 0x2160 DUP2 PUSH2 0x3254 JUMP JUMPDEST SWAP2 POP POP PUSH2 0x1FF5 JUMP JUMPDEST PUSH1 0x0 DUP3 DUP2 MSTORE PUSH1 0x1 PUSH1 0x20 DUP2 SWAP1 MSTORE PUSH1 0x40 SWAP1 SWAP2 KECCAK256 ADD SLOAD PUSH2 0x2184 DUP2 PUSH2 0x24B7 JUMP JUMPDEST PUSH2 0x15B4 DUP4 DUP4 PUSH2 0x2450 JUMP JUMPDEST PUSH1 0x60 PUSH1 0x0 DUP1 JUMPDEST PUSH1 0x3 SLOAD DUP2 LT ISZERO PUSH2 0x2215 JUMPI DUP4 PUSH1 0x6 PUSH1 0x0 PUSH2 0x21AE DUP5 PUSH1 0x1 PUSH2 0x32DE JUMP JUMPDEST DUP2 MSTORE PUSH1 0x20 ADD SWAP1 DUP2 MSTORE PUSH1 0x20 ADD PUSH1 0x0 KECCAK256 PUSH1 0x8 ADD SLOAD EQ DUP1 ISZERO PUSH2 0x21F0 JUMPI POP PUSH1 0x6 PUSH1 0x0 PUSH2 0x21D7 DUP4 PUSH1 0x1 PUSH2 0x32DE JUMP JUMPDEST DUP2 MSTORE PUSH1 0x20 DUP2 ADD SWAP2 SWAP1 SWAP2 MSTORE PUSH1 0x40 ADD PUSH1 0x0 KECCAK256 PUSH1 0x7 ADD SLOAD PUSH1 0xFF AND ISZERO JUMPDEST ISZERO PUSH2 0x2203 JUMPI DUP2 PUSH2 0x21FF DUP2 PUSH2 0x3254 JUMP JUMPDEST SWAP3 POP POP JUMPDEST DUP1 PUSH2 0x220D DUP2 PUSH2 0x3254 JUMP JUMPDEST SWAP2 POP POP PUSH2 0x2194 JUMP JUMPDEST POP DUP1 PUSH1 0x1 PUSH1 0x1 PUSH1 0x40 SHL SUB DUP2 GT ISZERO PUSH2 0x222E JUMPI PUSH2 0x222E PUSH2 0x28CD JUMP JUMPDEST PUSH1 0x40 MLOAD SWAP1 DUP1 DUP3 MSTORE DUP1 PUSH1 0x20 MUL PUSH1 0x20 ADD DUP3 ADD PUSH1 0x40 MSTORE DUP1 ISZERO PUSH2 0x2267 JUMPI DUP2 PUSH1 0x20 ADD JUMPDEST PUSH2 0x2254 PUSH2 0x27A4 JUMP JUMPDEST DUP2 MSTORE PUSH1 0x20 ADD SWAP1 PUSH1 0x1 SWAP1 SUB SWAP1 DUP2 PUSH2 0x224C JUMPI SWAP1 POP JUMPDEST POP SWAP2 POP PUSH1 0x0 DUP1 JUMPDEST PUSH1 0x3 SLOAD DUP2 LT ISZERO PUSH2 0x1A77 JUMPI DUP5 PUSH1 0x6 PUSH1 0x0 PUSH2 0x2288 DUP5 PUSH1 0x1 PUSH2 0x32DE JUMP JUMPDEST DUP2 MSTORE PUSH1 0x20 ADD SWAP1 DUP2 MSTORE PUSH1 0x20 ADD PUSH1 0x0 KECCAK256 PUSH1 0x8 ADD SLOAD EQ DUP1 ISZERO PUSH2 0x22CA JUMPI POP PUSH1 0x6 PUSH1 0x0 PUSH2 0x22B1 DUP4 PUSH1 0x1 PUSH2 0x32DE JUMP JUMPDEST DUP2 MSTORE PUSH1 0x20 DUP2 ADD SWAP2 SWAP1 SWAP2 MSTORE PUSH1 0x40 ADD PUSH1 0x0 KECCAK256 PUSH1 0x7 ADD SLOAD PUSH1 0xFF AND ISZERO JUMPDEST ISZERO PUSH2 0x2361 JUMPI PUSH1 0x6 PUSH1 0x0 PUSH2 0x22DE DUP4 PUSH1 0x1 PUSH2 0x32DE JUMP JUMPDEST DUP2 MSTORE PUSH1 0x20 ADD SWAP1 DUP2 MSTORE PUSH1 0x20 ADD PUSH1 0x0 KECCAK256 PUSH1 0x3 ADD SLOAD DUP5 DUP4 DUP2 MLOAD DUP2 LT PUSH2 0x2302 JUMPI PUSH2 0x2302 PUSH2 0x3228 JUMP JUMPDEST PUSH1 0x20 SWAP1 DUP2 MUL SWAP2 SWAP1 SWAP2 ADD ADD MLOAD PUSH1 0x60 ADD MSTORE PUSH1 0x6 PUSH1 0x0 PUSH2 0x2320 DUP4 PUSH1 0x1 PUSH2 0x32DE JUMP JUMPDEST DUP2 MSTORE PUSH1 0x20 ADD SWAP1 DUP2 MSTORE PUSH1 0x20 ADD PUSH1 0x0 KECCAK256 PUSH1 0x4 ADD SLOAD DUP5 DUP4 DUP1 PUSH2 0x233E SWAP1 PUSH2 0x3254 JUMP JUMPDEST SWAP5 POP DUP2 MLOAD DUP2 LT PUSH2 0x2350 JUMPI PUSH2 0x2350 PUSH2 0x3228 JUMP JUMPDEST PUSH1 0x20 MUL PUSH1 0x20 ADD ADD MLOAD PUSH1 0x80 ADD DUP2 DUP2 MSTORE POP POP JUMPDEST DUP1 PUSH2 0x236B DUP2 PUSH2 0x3254 JUMP JUMPDEST SWAP2 POP POP PUSH2 0x226E JUMP JUMPDEST PUSH2 0x237B PUSH2 0x23EC JUMP JUMPDEST PUSH1 0x1 PUSH1 0x1 PUSH1 0xA0 SHL SUB DUP2 AND PUSH2 0x23E0 JUMPI PUSH1 0x40 MLOAD PUSH3 0x461BCD PUSH1 0xE5 SHL DUP2 MSTORE PUSH1 0x20 PUSH1 0x4 DUP3 ADD MSTORE PUSH1 0x26 PUSH1 0x24 DUP3 ADD MSTORE PUSH32 0x4F776E61626C653A206E6577206F776E657220697320746865207A65726F2061 PUSH1 0x44 DUP3 ADD MSTORE PUSH6 0x646472657373 PUSH1 0xD0 SHL PUSH1 0x64 DUP3 ADD MSTORE PUSH1 0x84 ADD PUSH2 0x47A JUMP JUMPDEST PUSH2 0x23E9 DUP2 PUSH2 0x252C JUMP JUMPDEST POP JUMP JUMPDEST PUSH1 0x0 SLOAD PUSH1 0x1 PUSH1 0x1 PUSH1 0xA0 SHL SUB AND CALLER EQ PUSH2 0x1856 JUMPI PUSH1 0x40 MLOAD PUSH3 0x461BCD PUSH1 0xE5 SHL DUP2 MSTORE PUSH1 0x20 PUSH1 0x4 DUP3 ADD DUP2 SWAP1 MSTORE PUSH1 0x24 DUP3 ADD MSTORE PUSH32 0x4F776E61626C653A2063616C6C6572206973206E6F7420746865206F776E6572 PUSH1 0x44 DUP3 ADD MSTORE PUSH1 0x64 ADD PUSH2 0x47A JUMP JUMPDEST PUSH2 0x1633 DUP3 DUP3 PUSH2 0x24C1 JUMP JUMPDEST PUSH2 0x245A DUP3 DUP3 PUSH2 0x1C20 JUMP JUMPDEST ISZERO PUSH2 0x1633 JUMPI PUSH1 0x0 DUP3 DUP2 MSTORE PUSH1 0x1 PUSH1 0x20 SWAP1 DUP2 MSTORE PUSH1 0x40 DUP1 DUP4 KECCAK256 PUSH1 0x1 PUSH1 0x1 PUSH1 0xA0 SHL SUB DUP6 AND DUP1 DUP6 MSTORE SWAP3 MSTORE DUP1 DUP4 KECCAK256 DUP1 SLOAD PUSH1 0xFF NOT AND SWAP1 SSTORE MLOAD CALLER SWAP3 DUP6 SWAP2 PUSH32 0xF6391F5C32D9C69D2A47EA670B442974B53935D1EDC7FD64EB21E047A839171B SWAP2 SWAP1 LOG4 POP POP JUMP JUMPDEST PUSH2 0x23E9 DUP2 CALLER PUSH2 0x2597 JUMP JUMPDEST PUSH2 0x24CB DUP3 DUP3 PUSH2 0x1C20 JUMP JUMPDEST PUSH2 0x1633 JUMPI PUSH1 0x0 DUP3 DUP2 MSTORE PUSH1 0x1 PUSH1 0x20 DUP2 DUP2 MSTORE PUSH1 0x40 DUP1 DUP5 KECCAK256 PUSH1 0x1 PUSH1 0x1 PUSH1 0xA0 SHL SUB DUP7 AND DUP1 DUP7 MSTORE SWAP3 MSTORE DUP1 DUP5 KECCAK256 DUP1 SLOAD PUSH1 0xFF NOT AND SWAP1 SWAP4 OR SWAP1 SWAP3 SSTORE SWAP1 MLOAD CALLER SWAP3 DUP6 SWAP2 PUSH32 0x2F8788117E7EFF1D82E926EC794901D17C78024A50270940304540A733656F0D SWAP2 SWAP1 LOG4 POP POP JUMP JUMPDEST PUSH1 0x0 DUP1 SLOAD PUSH1 0x1 PUSH1 0x1 PUSH1 0xA0 SHL SUB DUP4 DUP2 AND PUSH1 0x1 PUSH1 0x1 PUSH1 0xA0 SHL SUB NOT DUP4 AND DUP2 OR DUP5 SSTORE PUSH1 0x40 MLOAD SWAP2 SWAP1 SWAP3 AND SWAP3 DUP4 SWAP2 PUSH32 0x8BE0079C531659141344CD1FD0A4F28419497F9722A3DAAFE3B4186F6B6457E0 SWAP2 SWAP1 LOG3 POP POP JUMP JUMPDEST PUSH1 0x0 DUP1 PUSH2 0x258B TIMESTAMP PUSH2 0x3E8 PUSH2 0x33FE JUMP JUMPDEST PUSH2 0x3D7 SWAP1 PUSH2 0x3E8 PUSH2 0x32DE JUMP JUMPDEST PUSH2 0x25A1 DUP3 DUP3 PUSH2 0x1C20 JUMP JUMPDEST PUSH2 0x1633 JUMPI PUSH2 0x25AE DUP2 PUSH2 0x25F0 JUMP JUMPDEST PUSH2 0x25B9 DUP4 PUSH1 0x20 PUSH2 0x2602 JUMP JUMPDEST PUSH1 0x40 MLOAD PUSH1 0x20 ADD PUSH2 0x25CA SWAP3 SWAP2 SWAP1 PUSH2 0x3415 JUMP JUMPDEST PUSH1 0x40 DUP1 MLOAD PUSH1 0x1F NOT DUP2 DUP5 SUB ADD DUP2 MSTORE SWAP1 DUP3 SWAP1 MSTORE PUSH3 0x461BCD PUSH1 0xE5 SHL DUP3 MSTORE PUSH2 0x47A SWAP2 PUSH1 0x4 ADD PUSH2 0x348A JUMP JUMPDEST PUSH1 0x60 PUSH2 0x3D7 PUSH1 0x1 PUSH1 0x1 PUSH1 0xA0 SHL SUB DUP4 AND PUSH1 0x14 JUMPDEST PUSH1 0x60 PUSH1 0x0 PUSH2 0x2611 DUP4 PUSH1 0x2 PUSH2 0x33FE JUMP JUMPDEST PUSH2 0x261C SWAP1 PUSH1 0x2 PUSH2 0x32DE JUMP JUMPDEST PUSH1 0x1 PUSH1 0x1 PUSH1 0x40 SHL SUB DUP2 GT ISZERO PUSH2 0x2633 JUMPI PUSH2 0x2633 PUSH2 0x28CD JUMP JUMPDEST PUSH1 0x40 MLOAD SWAP1 DUP1 DUP3 MSTORE DUP1 PUSH1 0x1F ADD PUSH1 0x1F NOT AND PUSH1 0x20 ADD DUP3 ADD PUSH1 0x40 MSTORE DUP1 ISZERO PUSH2 0x265D JUMPI PUSH1 0x20 DUP3 ADD DUP2 DUP1 CALLDATASIZE DUP4 CALLDATACOPY ADD SWAP1 POP JUMPDEST POP SWAP1 POP PUSH1 0x3 PUSH1 0xFC SHL DUP2 PUSH1 0x0 DUP2 MLOAD DUP2 LT PUSH2 0x2678 JUMPI PUSH2 0x2678 PUSH2 0x3228 JUMP JUMPDEST PUSH1 0x20 ADD ADD SWAP1 PUSH1 0x1 PUSH1 0x1 PUSH1 0xF8 SHL SUB NOT AND SWAP1 DUP2 PUSH1 0x0 BYTE SWAP1 MSTORE8 POP PUSH1 0xF PUSH1 0xFB SHL DUP2 PUSH1 0x1 DUP2 MLOAD DUP2 LT PUSH2 0x26A7 JUMPI PUSH2 0x26A7 PUSH2 0x3228 JUMP JUMPDEST PUSH1 0x20 ADD ADD SWAP1 PUSH1 0x1 PUSH1 0x1 PUSH1 0xF8 SHL SUB NOT AND SWAP1 DUP2 PUSH1 0x0 BYTE SWAP1 MSTORE8 POP PUSH1 0x0 PUSH2 0x26CB DUP5 PUSH1 0x2 PUSH2 0x33FE JUMP JUMPDEST PUSH2 0x26D6 SWAP1 PUSH1 0x1 PUSH2 0x32DE JUMP JUMPDEST SWAP1 POP JUMPDEST PUSH1 0x1 DUP2 GT ISZERO PUSH2 0x274E JUMPI PUSH16 0x181899199A1A9B1B9C1CB0B131B232B3 PUSH1 0x81 SHL DUP6 PUSH1 0xF AND PUSH1 0x10 DUP2 LT PUSH2 0x270A JUMPI PUSH2 0x270A PUSH2 0x3228 JUMP JUMPDEST BYTE PUSH1 0xF8 SHL DUP3 DUP3 DUP2 MLOAD DUP2 LT PUSH2 0x2720 JUMPI PUSH2 0x2720 PUSH2 0x3228 JUMP JUMPDEST PUSH1 0x20 ADD ADD SWAP1 PUSH1 0x1 PUSH1 0x1 PUSH1 0xF8 SHL SUB NOT AND SWAP1 DUP2 PUSH1 0x0 BYTE SWAP1 MSTORE8 POP PUSH1 0x4 SWAP5 SWAP1 SWAP5 SHR SWAP4 PUSH2 0x2747 DUP2 PUSH2 0x349D JUMP JUMPDEST SWAP1 POP PUSH2 0x26D9 JUMP JUMPDEST POP DUP4 ISZERO PUSH2 0x279D JUMPI PUSH1 0x40 MLOAD PUSH3 0x461BCD PUSH1 0xE5 SHL DUP2 MSTORE PUSH1 0x20 PUSH1 0x4 DUP3 ADD DUP2 SWAP1 MSTORE PUSH1 0x24 DUP3 ADD MSTORE PUSH32 0x537472696E67733A20686578206C656E67746820696E73756666696369656E74 PUSH1 0x44 DUP3 ADD MSTORE PUSH1 0x64 ADD PUSH2 0x47A JUMP JUMPDEST SWAP4 SWAP3 POP POP POP JUMP JUMPDEST PUSH1 0x40 MLOAD DUP1 PUSH2 0x160 ADD PUSH1 0x40 MSTORE DUP1 PUSH1 0x0 DUP2 MSTORE PUSH1 0x20 ADD PUSH1 0x0 DUP2 MSTORE PUSH1 0x20 ADD PUSH1 0x0 DUP2 MSTORE PUSH1 0x20 ADD PUSH1 0x0 DUP2 MSTORE PUSH1 0x20 ADD PUSH1 0x0 DUP2 MSTORE PUSH1 0x20 ADD PUSH1 0x0 DUP2 MSTORE PUSH1 0x20 ADD PUSH1 0x0 DUP2 MSTORE PUSH1 0x20 ADD PUSH1 0x0 ISZERO ISZERO DUP2 MSTORE PUSH1 0x20 ADD PUSH1 0x0 ISZERO ISZERO DUP2 MSTORE PUSH1 0x20 ADD PUSH1 0x0 DUP2 MSTORE PUSH1 0x20 ADD PUSH1 0x0 DUP2 MSTORE POP SWAP1 JUMP JUMPDEST PUSH1 0x40 MLOAD DUP1 PUSH2 0x1A0 ADD PUSH1 0x40 MSTORE DUP1 PUSH1 0x0 DUP2 MSTORE PUSH1 0x20 ADD PUSH1 0x60 DUP2 MSTORE PUSH1 0x20 ADD PUSH1 0x60 DUP2 MSTORE PUSH1 0x20 ADD PUSH1 0x60 DUP2 MSTORE PUSH1 0x20 ADD PUSH1 0x60 DUP2 MSTORE PUSH1 0x20 ADD PUSH1 0x60 DUP2 MSTORE PUSH1 0x20 ADD PUSH1 0x60 DUP2 MSTORE PUSH1 0x20 ADD PUSH1 0x60 DUP2 MSTORE PUSH1 0x20 ADD PUSH1 0x60 DUP2 MSTORE PUSH1 0x20 ADD PUSH1 0x60 DUP2 MSTORE PUSH1 0x20 ADD PUSH1 0x60 DUP2 MSTORE PUSH1 0x20 ADD PUSH1 0x0 DUP2 MSTORE PUSH1 0x20 ADD PUSH1 0x0 ISZERO ISZERO DUP2 MSTORE POP SWAP1 JUMP JUMPDEST PUSH1 0x0 PUSH1 0x20 DUP3 DUP5 SUB SLT ISZERO PUSH2 0x287E JUMPI PUSH1 0x0 DUP1 REVERT JUMPDEST DUP2 CALLDATALOAD PUSH1 0x1 PUSH1 0x1 PUSH1 0xE0 SHL SUB NOT DUP2 AND DUP2 EQ PUSH2 0x279D JUMPI PUSH1 0x0 DUP1 REVERT JUMPDEST DUP1 CALLDATALOAD PUSH1 0x1 PUSH1 0x1 PUSH1 0xA0 SHL SUB DUP2 AND DUP2 EQ PUSH2 0x28AD JUMPI PUSH1 0x0 DUP1 REVERT JUMPDEST SWAP2 SWAP1 POP JUMP JUMPDEST PUSH1 0x0 PUSH1 0x20 DUP3 DUP5 SUB SLT ISZERO PUSH2 0x28C4 JUMPI PUSH1 0x0 DUP1 REVERT JUMPDEST PUSH2 0x279D DUP3 PUSH2 0x2896 JUMP JUMPDEST PUSH4 0x4E487B71 PUSH1 0xE0 SHL PUSH1 0x0 MSTORE PUSH1 0x41 PUSH1 0x4 MSTORE PUSH1 0x24 PUSH1 0x0 REVERT JUMPDEST PUSH1 0x40 MLOAD PUSH2 0x160 DUP2 ADD PUSH1 0x1 PUSH1 0x1 PUSH1 0x40 SHL SUB DUP2 GT DUP3 DUP3 LT OR ISZERO PUSH2 0x2906 JUMPI PUSH2 0x2906 PUSH2 0x28CD JUMP JUMPDEST PUSH1 0x40 MSTORE SWAP1 JUMP JUMPDEST PUSH1 0x40 MLOAD PUSH1 0x1F DUP3 ADD PUSH1 0x1F NOT AND DUP2 ADD PUSH1 0x1 PUSH1 0x1 PUSH1 0x40 SHL SUB DUP2 GT DUP3 DUP3 LT OR ISZERO PUSH2 0x2934 JUMPI PUSH2 0x2934 PUSH2 0x28CD JUMP JUMPDEST PUSH1 0x40 MSTORE SWAP2 SWAP1 POP JUMP JUMPDEST PUSH1 0x0 DUP3 PUSH1 0x1F DUP4 ADD SLT PUSH2 0x294D JUMPI PUSH1 0x0 DUP1 REVERT JUMPDEST DUP2 CALLDATALOAD PUSH1 0x20 PUSH1 0x1 PUSH1 0x1 PUSH1 0x40 SHL SUB DUP3 GT ISZERO PUSH2 0x2968 JUMPI PUSH2 0x2968 PUSH2 0x28CD JUMP JUMPDEST DUP2 PUSH1 0x5 SHL PUSH2 0x2977 DUP3 DUP3 ADD PUSH2 0x290C JUMP JUMPDEST SWAP3 DUP4 MSTORE DUP5 DUP2 ADD DUP3 ADD SWAP3 DUP3 DUP2 ADD SWAP1 DUP8 DUP6 GT ISZERO PUSH2 0x2991 JUMPI PUSH1 0x0 DUP1 REVERT JUMPDEST DUP4 DUP8 ADD SWAP3 POP JUMPDEST DUP5 DUP4 LT ISZERO PUSH2 0x29B0 JUMPI DUP3 CALLDATALOAD DUP3 MSTORE SWAP2 DUP4 ADD SWAP2 SWAP1 DUP4 ADD SWAP1 PUSH2 0x2997 JUMP JUMPDEST SWAP8 SWAP7 POP POP POP POP POP POP POP JUMP JUMPDEST PUSH1 0x0 DUP1 PUSH1 0x0 DUP1 PUSH1 0x0 DUP1 PUSH1 0xC0 DUP8 DUP10 SUB SLT ISZERO PUSH2 0x29D4 JUMPI PUSH1 0x0 DUP1 REVERT JUMPDEST DUP7 CALLDATALOAD SWAP6 POP PUSH1 0x20 DUP8 ADD CALLDATALOAD PUSH1 0x1 PUSH1 0x1 PUSH1 0x40 SHL SUB DUP1 DUP3 GT ISZERO PUSH2 0x29F2 JUMPI PUSH1 0x0 DUP1 REVERT JUMPDEST PUSH2 0x29FE DUP11 DUP4 DUP12 ADD PUSH2 0x293C JUMP JUMPDEST SWAP7 POP PUSH1 0x40 DUP10 ADD CALLDATALOAD SWAP2 POP DUP1 DUP3 GT ISZERO PUSH2 0x2A14 JUMPI PUSH1 0x0 DUP1 REVERT JUMPDEST PUSH2 0x2A20 DUP11 DUP4 DUP12 ADD PUSH2 0x293C JUMP JUMPDEST SWAP6 POP PUSH1 0x60 DUP10 ADD CALLDATALOAD SWAP2 POP DUP1 DUP3 GT ISZERO PUSH2 0x2A36 JUMPI PUSH1 0x0 DUP1 REVERT JUMPDEST PUSH2 0x2A42 DUP11 DUP4 DUP12 ADD PUSH2 0x293C JUMP JUMPDEST SWAP5 POP PUSH1 0x80 DUP10 ADD CALLDATALOAD SWAP2 POP DUP1 DUP3 GT ISZERO PUSH2 0x2A58 JUMPI PUSH1 0x0 DUP1 REVERT JUMPDEST PUSH2 0x2A64 DUP11 DUP4 DUP12 ADD PUSH2 0x293C JUMP JUMPDEST SWAP4 POP PUSH1 0xA0 DUP10 ADD CALLDATALOAD SWAP2 POP DUP1 DUP3 GT ISZERO PUSH2 0x2A7A JUMPI PUSH1 0x0 DUP1 REVERT JUMPDEST POP PUSH2 0x2A87 DUP10 DUP3 DUP11 ADD PUSH2 0x293C JUMP JUMPDEST SWAP2 POP POP SWAP3 SWAP6 POP SWAP3 SWAP6 POP SWAP3 SWAP6 JUMP JUMPDEST PUSH1 0x0 PUSH1 0x20 DUP3 DUP5 SUB SLT ISZERO PUSH2 0x2AA6 JUMPI PUSH1 0x0 DUP1 REVERT JUMPDEST POP CALLDATALOAD SWAP2 SWAP1 POP JUMP JUMPDEST PUSH1 0x0 JUMPDEST DUP4 DUP2 LT ISZERO PUSH2 0x2AC8 JUMPI DUP2 DUP2 ADD MLOAD DUP4 DUP3 ADD MSTORE PUSH1 0x20 ADD PUSH2 0x2AB0 JUMP JUMPDEST POP POP PUSH1 0x0 SWAP2 ADD MSTORE JUMP JUMPDEST PUSH1 0x0 DUP2 MLOAD DUP1 DUP5 MSTORE PUSH2 0x2AE9 DUP2 PUSH1 0x20 DUP7 ADD PUSH1 0x20 DUP7 ADD PUSH2 0x2AAD JUMP JUMPDEST PUSH1 0x1F ADD PUSH1 0x1F NOT AND SWAP3 SWAP1 SWAP3 ADD PUSH1 0x20 ADD SWAP3 SWAP2 POP POP JUMP JUMPDEST PUSH1 0x0 PUSH2 0x1A0 DUP3 MLOAD DUP5 MSTORE PUSH1 0x20 DUP4 ADD MLOAD DUP2 PUSH1 0x20 DUP7 ADD MSTORE PUSH2 0x2B1D DUP3 DUP7 ADD DUP3 PUSH2 0x2AD1 JUMP JUMPDEST SWAP2 POP POP PUSH1 0x40 DUP4 ADD MLOAD DUP5 DUP3 SUB PUSH1 0x40 DUP7 ADD MSTORE PUSH2 0x2B37 DUP3 DUP3 PUSH2 0x2AD1 JUMP JUMPDEST SWAP2 POP POP PUSH1 0x60 DUP4 ADD MLOAD DUP5 DUP3 SUB PUSH1 0x60 DUP7 ADD MSTORE PUSH2 0x2B51 DUP3 DUP3 PUSH2 0x2AD1 JUMP JUMPDEST SWAP2 POP POP PUSH1 0x80 DUP4 ADD MLOAD DUP5 DUP3 SUB PUSH1 0x80 DUP7 ADD MSTORE PUSH2 0x2B6B DUP3 DUP3 PUSH2 0x2AD1 JUMP JUMPDEST SWAP2 POP POP PUSH1 0xA0 DUP4 ADD MLOAD DUP5 DUP3 SUB PUSH1 0xA0 DUP7 ADD MSTORE PUSH2 0x2B85 DUP3 DUP3 PUSH2 0x2AD1 JUMP JUMPDEST SWAP2 POP POP PUSH1 0xC0 DUP4 ADD MLOAD DUP5 DUP3 SUB PUSH1 0xC0 DUP7 ADD MSTORE PUSH2 0x2B9F DUP3 DUP3 PUSH2 0x2AD1 JUMP JUMPDEST SWAP2 POP POP PUSH1 0xE0 DUP4 ADD MLOAD DUP5 DUP3 SUB PUSH1 0xE0 DUP7 ADD MSTORE PUSH2 0x2BB9 DUP3 DUP3 PUSH2 0x2AD1 JUMP JUMPDEST SWAP2 POP POP PUSH2 0x100 DUP1 DUP5 ADD MLOAD DUP6 DUP4 SUB DUP3 DUP8 ADD MSTORE PUSH2 0x2BD4 DUP4 DUP3 PUSH2 0x2AD1 JUMP JUMPDEST SWAP3 POP POP POP PUSH2 0x120 DUP1 DUP5 ADD MLOAD DUP6 DUP4 SUB DUP3 DUP8 ADD MSTORE PUSH2 0x2BF0 DUP4 DUP3 PUSH2 0x2AD1 JUMP JUMPDEST SWAP3 POP POP POP PUSH2 0x140 DUP1 DUP5 ADD MLOAD DUP6 DUP4 SUB DUP3 DUP8 ADD MSTORE PUSH2 0x2C0C DUP4 DUP3 PUSH2 0x2AD1 JUMP JUMPDEST SWAP3 POP POP POP PUSH2 0x160 DUP1 DUP5 ADD MLOAD DUP2 DUP7 ADD MSTORE POP PUSH2 0x180 DUP1 DUP5 ADD MLOAD PUSH2 0x2C30 DUP3 DUP8 ADD DUP3 ISZERO ISZERO SWAP1 MSTORE JUMP JUMPDEST POP SWAP1 SWAP5 SWAP4 POP POP POP POP JUMP JUMPDEST PUSH1 0x20 DUP2 MSTORE PUSH1 0x0 PUSH2 0x279D PUSH1 0x20 DUP4 ADD DUP5 PUSH2 0x2AFD JUMP JUMPDEST DUP1 MLOAD DUP3 MSTORE PUSH1 0x20 DUP2 ADD MLOAD PUSH1 0x20 DUP4 ADD MSTORE PUSH1 0x40 DUP2 ADD MLOAD PUSH1 0x40 DUP4 ADD MSTORE PUSH1 0x60 DUP2 ADD MLOAD PUSH1 0x60 DUP4 ADD MSTORE PUSH1 0x80 DUP2 ADD MLOAD PUSH1 0x80 DUP4 ADD MSTORE PUSH1 0xA0 DUP2 ADD MLOAD PUSH1 0xA0 DUP4 ADD MSTORE PUSH1 0xC0 DUP2 ADD MLOAD PUSH1 0xC0 DUP4 ADD MSTORE PUSH1 0xE0 DUP2 ADD MLOAD PUSH2 0x2CA0 PUSH1 0xE0 DUP5 ADD DUP3 ISZERO ISZERO SWAP1 MSTORE JUMP JUMPDEST POP PUSH2 0x100 DUP2 DUP2 ADD MLOAD ISZERO ISZERO SWAP1 DUP4 ADD MSTORE PUSH2 0x120 DUP1 DUP3 ADD MLOAD SWAP1 DUP4 ADD MSTORE PUSH2 0x140 SWAP1 DUP2 ADD MLOAD SWAP2 ADD MSTORE JUMP JUMPDEST PUSH2 0x160 DUP2 ADD PUSH2 0x3D7 DUP3 DUP5 PUSH2 0x2C4D JUMP JUMPDEST PUSH1 0x0 PUSH1 0x20 DUP1 DUP4 ADD DUP2 DUP5 MSTORE DUP1 DUP6 MLOAD DUP1 DUP4 MSTORE PUSH1 0x40 DUP7 ADD SWAP2 POP PUSH1 0x40 DUP2 PUSH1 0x5 SHL DUP8 ADD ADD SWAP3 POP DUP4 DUP8 ADD PUSH1 0x0 JUMPDEST DUP3 DUP2 LT ISZERO PUSH2 0x2D29 JUMPI PUSH1 0x3F NOT DUP9 DUP7 SUB ADD DUP5 MSTORE PUSH2 0x2D17 DUP6 DUP4 MLOAD PUSH2 0x2AFD JUMP JUMPDEST SWAP5 POP SWAP3 DUP6 ADD SWAP3 SWAP1 DUP6 ADD SWAP1 PUSH1 0x1 ADD PUSH2 0x2CFB JUMP JUMPDEST POP SWAP3 SWAP8 SWAP7 POP POP POP POP POP POP POP JUMP JUMPDEST PUSH1 0x0 DUP1 PUSH1 0x40 DUP4 DUP6 SUB SLT ISZERO PUSH2 0x2D49 JUMPI PUSH1 0x0 DUP1 REVERT JUMPDEST DUP3 CALLDATALOAD SWAP2 POP PUSH2 0x2D59 PUSH1 0x20 DUP5 ADD PUSH2 0x2896 JUMP JUMPDEST SWAP1 POP SWAP3 POP SWAP3 SWAP1 POP JUMP JUMPDEST DUP1 CALLDATALOAD DUP1 ISZERO ISZERO DUP2 EQ PUSH2 0x28AD JUMPI PUSH1 0x0 DUP1 REVERT JUMPDEST PUSH1 0x0 PUSH2 0x160 DUP3 DUP5 SUB SLT ISZERO PUSH2 0x2D85 JUMPI PUSH1 0x0 DUP1 REVERT JUMPDEST PUSH2 0x2D8D PUSH2 0x28E3 JUMP JUMPDEST DUP3 CALLDATALOAD DUP2 MSTORE PUSH1 0x20 DUP4 ADD CALLDATALOAD PUSH1 0x20 DUP3 ADD MSTORE PUSH1 0x40 DUP4 ADD CALLDATALOAD PUSH1 0x40 DUP3 ADD MSTORE PUSH1 0x60 DUP4 ADD CALLDATALOAD PUSH1 0x60 DUP3 ADD MSTORE PUSH1 0x80 DUP4 ADD CALLDATALOAD PUSH1 0x80 DUP3 ADD MSTORE PUSH1 0xA0 DUP4 ADD CALLDATALOAD PUSH1 0xA0 DUP3 ADD MSTORE PUSH1 0xC0 DUP4 ADD CALLDATALOAD PUSH1 0xC0 DUP3 ADD MSTORE PUSH2 0x2DD9 PUSH1 0xE0 DUP5 ADD PUSH2 0x2D62 JUMP JUMPDEST PUSH1 0xE0 DUP3 ADD MSTORE PUSH2 0x100 PUSH2 0x2DEC DUP2 DUP6 ADD PUSH2 0x2D62 JUMP JUMPDEST SWAP1 DUP3 ADD MSTORE PUSH2 0x120 DUP4 DUP2 ADD CALLDATALOAD SWAP1 DUP3 ADD MSTORE PUSH2 0x140 SWAP3 DUP4 ADD CALLDATALOAD SWAP3 DUP2 ADD SWAP3 SWAP1 SWAP3 MSTORE POP SWAP2 SWAP1 POP JUMP JUMPDEST PUSH1 0x20 DUP1 DUP3 MSTORE DUP3 MLOAD DUP3 DUP3 ADD DUP2 SWAP1 MSTORE PUSH1 0x0 SWAP2 SWAP1 DUP5 DUP3 ADD SWAP1 PUSH1 0x40 DUP6 ADD SWAP1 DUP5 JUMPDEST DUP2 DUP2 LT ISZERO PUSH2 0x2E52 JUMPI PUSH2 0x2E3E DUP4 DUP6 MLOAD PUSH2 0x2C4D JUMP JUMPDEST SWAP3 DUP5 ADD SWAP3 PUSH2 0x160 SWAP3 SWAP1 SWAP3 ADD SWAP2 PUSH1 0x1 ADD PUSH2 0x2E2B JUMP JUMPDEST POP SWAP1 SWAP7 SWAP6 POP POP POP POP POP POP JUMP JUMPDEST PUSH1 0x0 DUP3 PUSH1 0x1F DUP4 ADD SLT PUSH2 0x2E6F JUMPI PUSH1 0x0 DUP1 REVERT JUMPDEST DUP2 CALLDATALOAD PUSH1 0x1 PUSH1 0x1 PUSH1 0x40 SHL SUB DUP2 GT ISZERO PUSH2 0x2E88 JUMPI PUSH2 0x2E88 PUSH2 0x28CD JUMP JUMPDEST PUSH2 0x2E9B PUSH1 0x1F DUP3 ADD PUSH1 0x1F NOT AND PUSH1 0x20 ADD PUSH2 0x290C JUMP JUMPDEST DUP2 DUP2 MSTORE DUP5 PUSH1 0x20 DUP4 DUP7 ADD ADD GT ISZERO PUSH2 0x2EB0 JUMPI PUSH1 0x0 DUP1 REVERT JUMPDEST DUP2 PUSH1 0x20 DUP6 ADD PUSH1 0x20 DUP4 ADD CALLDATACOPY PUSH1 0x0 SWAP2 DUP2 ADD PUSH1 0x20 ADD SWAP2 SWAP1 SWAP2 MSTORE SWAP4 SWAP3 POP POP POP JUMP JUMPDEST PUSH1 0x0 DUP1 PUSH1 0x0 DUP1 PUSH1 0x0 DUP1 PUSH1 0x0 DUP1 PUSH1 0x0 DUP1 PUSH1 0x0 PUSH2 0x160 DUP13 DUP15 SUB SLT ISZERO PUSH2 0x2EEF JUMPI PUSH1 0x0 DUP1 REVERT JUMPDEST DUP12 CALLDATALOAD SWAP11 POP PUSH1 0x1 PUSH1 0x1 PUSH1 0x40 SHL SUB DUP1 PUSH1 0x20 DUP15 ADD CALLDATALOAD GT ISZERO PUSH2 0x2F0C JUMPI PUSH1 0x0 DUP1 REVERT JUMPDEST PUSH2 0x2F1C DUP15 PUSH1 0x20 DUP16 ADD CALLDATALOAD DUP16 ADD PUSH2 0x2E5E JUMP JUMPDEST SWAP11 POP DUP1 PUSH1 0x40 DUP15 ADD CALLDATALOAD GT ISZERO PUSH2 0x2F2F JUMPI PUSH1 0x0 DUP1 REVERT JUMPDEST PUSH2 0x2F3F DUP15 PUSH1 0x40 DUP16 ADD CALLDATALOAD DUP16 ADD PUSH2 0x2E5E JUMP JUMPDEST SWAP10 POP DUP1 PUSH1 0x60 DUP15 ADD CALLDATALOAD GT ISZERO PUSH2 0x2F52 JUMPI PUSH1 0x0 DUP1 REVERT JUMPDEST PUSH2 0x2F62 DUP15 PUSH1 0x60 DUP16 ADD CALLDATALOAD DUP16 ADD PUSH2 0x2E5E JUMP JUMPDEST SWAP9 POP DUP1 PUSH1 0x80 DUP15 ADD CALLDATALOAD GT ISZERO PUSH2 0x2F75 JUMPI PUSH1 0x0 DUP1 REVERT JUMPDEST PUSH2 0x2F85 DUP15 PUSH1 0x80 DUP16 ADD CALLDATALOAD DUP16 ADD PUSH2 0x2E5E JUMP JUMPDEST SWAP8 POP DUP1 PUSH1 0xA0 DUP15 ADD CALLDATALOAD GT ISZERO PUSH2 0x2F98 JUMPI PUSH1 0x0 DUP1 REVERT JUMPDEST PUSH2 0x2FA8 DUP15 PUSH1 0xA0 DUP16 ADD CALLDATALOAD DUP16 ADD PUSH2 0x2E5E JUMP JUMPDEST SWAP7 POP DUP1 PUSH1 0xC0 DUP15 ADD CALLDATALOAD GT ISZERO PUSH2 0x2FBB JUMPI PUSH1 0x0 DUP1 REVERT JUMPDEST PUSH2 0x2FCB DUP15 PUSH1 0xC0 DUP16 ADD CALLDATALOAD DUP16 ADD PUSH2 0x2E5E JUMP JUMPDEST SWAP6 POP DUP1 PUSH1 0xE0 DUP15 ADD CALLDATALOAD GT ISZERO PUSH2 0x2FDE JUMPI PUSH1 0x0 DUP1 REVERT JUMPDEST PUSH2 0x2FEE DUP15 PUSH1 0xE0 DUP16 ADD CALLDATALOAD DUP16 ADD PUSH2 0x2E5E JUMP JUMPDEST SWAP5 POP DUP1 PUSH2 0x100 DUP15 ADD CALLDATALOAD GT ISZERO PUSH2 0x3002 JUMPI PUSH1 0x0 DUP1 REVERT JUMPDEST PUSH2 0x3013 DUP15 PUSH2 0x100 DUP16 ADD CALLDATALOAD DUP16 ADD PUSH2 0x2E5E JUMP JUMPDEST SWAP4 POP DUP1 PUSH2 0x120 DUP15 ADD CALLDATALOAD GT ISZERO PUSH2 0x3027 JUMPI PUSH1 0x0 DUP1 REVERT JUMPDEST PUSH2 0x3038 DUP15 PUSH2 0x120 DUP16 ADD CALLDATALOAD DUP16 ADD PUSH2 0x2E5E JUMP JUMPDEST SWAP3 POP DUP1 PUSH2 0x140 DUP15 ADD CALLDATALOAD GT ISZERO PUSH2 0x304C JUMPI PUSH1 0x0 DUP1 REVERT JUMPDEST POP PUSH2 0x305E DUP14 PUSH2 0x140 DUP15 ADD CALLDATALOAD DUP15 ADD PUSH2 0x2E5E JUMP JUMPDEST SWAP1 POP SWAP3 SWAP6 SWAP9 SWAP12 POP SWAP3 SWAP6 SWAP9 SWAP12 SWAP1 SWAP4 SWAP7 SWAP10 POP JUMP JUMPDEST PUSH1 0x0 DUP1 PUSH1 0x0 DUP1 PUSH1 0x0 DUP1 PUSH1 0x0 DUP1 PUSH1 0x0 DUP1 PUSH2 0x140 DUP12 DUP14 SUB SLT ISZERO PUSH2 0x3090 JUMPI PUSH1 0x0 DUP1 REVERT JUMPDEST DUP11 CALLDATALOAD PUSH1 0x1 PUSH1 0x1 PUSH1 0x40 SHL SUB DUP1 DUP3 GT ISZERO PUSH2 0x30A7 JUMPI PUSH1 0x0 DUP1 REVERT JUMPDEST PUSH2 0x30B3 DUP15 DUP4 DUP16 ADD PUSH2 0x2E5E JUMP JUMPDEST SWAP12 POP PUSH1 0x20 DUP14 ADD CALLDATALOAD SWAP2 POP DUP1 DUP3 GT ISZERO PUSH2 0x30C9 JUMPI PUSH1 0x0 DUP1 REVERT JUMPDEST PUSH2 0x30D5 DUP15 DUP4 DUP16 ADD PUSH2 0x2E5E JUMP JUMPDEST SWAP11 POP PUSH1 0x40 DUP14 ADD CALLDATALOAD SWAP2 POP DUP1 DUP3 GT ISZERO PUSH2 0x30EB JUMPI PUSH1 0x0 DUP1 REVERT JUMPDEST PUSH2 0x30F7 DUP15 DUP4 DUP16 ADD PUSH2 0x2E5E JUMP JUMPDEST SWAP10 POP PUSH1 0x60 DUP14 ADD CALLDATALOAD SWAP2 POP DUP1 DUP3 GT ISZERO PUSH2 0x310D JUMPI PUSH1 0x0 DUP1 REVERT JUMPDEST PUSH2 0x3119 DUP15 DUP4 DUP16 ADD PUSH2 0x2E5E JUMP JUMPDEST SWAP9 POP PUSH1 0x80 DUP14 ADD CALLDATALOAD SWAP2 POP DUP1 DUP3 GT ISZERO PUSH2 0x312F JUMPI PUSH1 0x0 DUP1 REVERT JUMPDEST PUSH2 0x313B DUP15 DUP4 DUP16 ADD PUSH2 0x2E5E JUMP JUMPDEST SWAP8 POP PUSH1 0xA0 DUP14 ADD CALLDATALOAD SWAP2 POP DUP1 DUP3 GT ISZERO PUSH2 0x3151 JUMPI PUSH1 0x0 DUP1 REVERT JUMPDEST PUSH2 0x315D DUP15 DUP4 DUP16 ADD PUSH2 0x2E5E JUMP JUMPDEST SWAP7 POP PUSH1 0xC0 DUP14 ADD CALLDATALOAD SWAP2 POP DUP1 DUP3 GT ISZERO PUSH2 0x3173 JUMPI PUSH1 0x0 DUP1 REVERT JUMPDEST PUSH2 0x317F DUP15 DUP4 DUP16 ADD PUSH2 0x2E5E JUMP JUMPDEST SWAP6 POP PUSH1 0xE0 DUP14 ADD CALLDATALOAD SWAP2 POP DUP1 DUP3 GT ISZERO PUSH2 0x3195 JUMPI PUSH1 0x0 DUP1 REVERT JUMPDEST PUSH2 0x31A1 DUP15 DUP4 DUP16 ADD PUSH2 0x2E5E JUMP JUMPDEST SWAP5 POP PUSH2 0x100 DUP14 ADD CALLDATALOAD SWAP2 POP DUP1 DUP3 GT ISZERO PUSH2 0x31B8 JUMPI PUSH1 0x0 DUP1 REVERT JUMPDEST PUSH2 0x31C4 DUP15 DUP4 DUP16 ADD PUSH2 0x2E5E JUMP JUMPDEST SWAP4 POP PUSH2 0x120 DUP14 ADD CALLDATALOAD SWAP2 POP DUP1 DUP3 GT ISZERO PUSH2 0x31DB JUMPI PUSH1 0x0 DUP1 REVERT JUMPDEST POP PUSH2 0x31E8 DUP14 DUP3 DUP15 ADD PUSH2 0x2E5E JUMP JUMPDEST SWAP2 POP POP SWAP3 SWAP6 SWAP9 SWAP12 SWAP2 SWAP5 SWAP8 SWAP11 POP SWAP3 SWAP6 SWAP9 POP JUMP JUMPDEST PUSH1 0x20 DUP1 DUP3 MSTORE PUSH1 0x14 SWAP1 DUP3 ADD MSTORE PUSH20 0x135BDD9A5948191BD95CC81B9BDD08195E1A5CDD PUSH1 0x62 SHL PUSH1 0x40 DUP3 ADD MSTORE PUSH1 0x60 ADD SWAP1 JUMP JUMPDEST PUSH4 0x4E487B71 PUSH1 0xE0 SHL PUSH1 0x0 MSTORE PUSH1 0x32 PUSH1 0x4 MSTORE PUSH1 0x24 PUSH1 0x0 REVERT JUMPDEST PUSH4 0x4E487B71 PUSH1 0xE0 SHL PUSH1 0x0 MSTORE PUSH1 0x11 PUSH1 0x4 MSTORE PUSH1 0x24 PUSH1 0x0 REVERT JUMPDEST PUSH1 0x0 PUSH1 0x1 DUP3 ADD PUSH2 0x3266 JUMPI PUSH2 0x3266 PUSH2 0x323E JUMP JUMPDEST POP PUSH1 0x1 ADD SWAP1 JUMP JUMPDEST PUSH1 0x1 DUP2 DUP2 SHR SWAP1 DUP3 AND DUP1 PUSH2 0x3281 JUMPI PUSH1 0x7F DUP3 AND SWAP2 POP JUMPDEST PUSH1 0x20 DUP3 LT DUP2 SUB PUSH2 0x32A1 JUMPI PUSH4 0x4E487B71 PUSH1 0xE0 SHL PUSH1 0x0 MSTORE PUSH1 0x22 PUSH1 0x4 MSTORE PUSH1 0x24 PUSH1 0x0 REVERT JUMPDEST POP SWAP2 SWAP1 POP JUMP JUMPDEST PUSH1 0x20 DUP1 DUP3 MSTORE PUSH1 0x1F SWAP1 DUP3 ADD MSTORE PUSH32 0x43616C6C6572206973206E6F742061207469636B657420636F6E747261637400 PUSH1 0x40 DUP3 ADD MSTORE PUSH1 0x60 ADD SWAP1 JUMP JUMPDEST DUP1 DUP3 ADD DUP1 DUP3 GT ISZERO PUSH2 0x3D7 JUMPI PUSH2 0x3D7 PUSH2 0x323E JUMP JUMPDEST PUSH1 0x1F DUP3 GT ISZERO PUSH2 0x15B4 JUMPI PUSH1 0x0 DUP2 DUP2 MSTORE PUSH1 0x20 DUP2 KECCAK256 PUSH1 0x1F DUP6 ADD PUSH1 0x5 SHR DUP2 ADD PUSH1 0x20 DUP7 LT ISZERO PUSH2 0x3318 JUMPI POP DUP1 JUMPDEST PUSH1 0x1F DUP6 ADD PUSH1 0x5 SHR DUP3 ADD SWAP2 POP JUMPDEST DUP2 DUP2 LT ISZERO PUSH2 0x3337 JUMPI DUP3 DUP2 SSTORE PUSH1 0x1 ADD PUSH2 0x3324 JUMP JUMPDEST POP POP POP POP POP POP JUMP JUMPDEST DUP2 MLOAD PUSH1 0x1 PUSH1 0x1 PUSH1 0x40 SHL SUB DUP2 GT ISZERO PUSH2 0x3358 JUMPI PUSH2 0x3358 PUSH2 0x28CD JUMP JUMPDEST PUSH2 0x336C DUP2 PUSH2 0x3366 DUP5 SLOAD PUSH2 0x326D JUMP JUMPDEST DUP5 PUSH2 0x32F1 JUMP JUMPDEST PUSH1 0x20 DUP1 PUSH1 0x1F DUP4 GT PUSH1 0x1 DUP2 EQ PUSH2 0x33A1 JUMPI PUSH1 0x0 DUP5 ISZERO PUSH2 0x3389 JUMPI POP DUP6 DUP4 ADD MLOAD JUMPDEST PUSH1 0x0 NOT PUSH1 0x3 DUP7 SWAP1 SHL SHR NOT AND PUSH1 0x1 DUP6 SWAP1 SHL OR DUP6 SSTORE PUSH2 0x3337 JUMP JUMPDEST PUSH1 0x0 DUP6 DUP2 MSTORE PUSH1 0x20 DUP2 KECCAK256 PUSH1 0x1F NOT DUP7 AND SWAP2 JUMPDEST DUP3 DUP2 LT ISZERO PUSH2 0x33D0 JUMPI DUP9 DUP7 ADD MLOAD DUP3 SSTORE SWAP5 DUP5 ADD SWAP5 PUSH1 0x1 SWAP1 SWAP2 ADD SWAP1 DUP5 ADD PUSH2 0x33B1 JUMP JUMPDEST POP DUP6 DUP3 LT ISZERO PUSH2 0x33EE JUMPI DUP8 DUP6 ADD MLOAD PUSH1 0x0 NOT PUSH1 0x3 DUP9 SWAP1 SHL PUSH1 0xF8 AND SHR NOT AND DUP2 SSTORE JUMPDEST POP POP POP POP POP PUSH1 0x1 SWAP1 DUP2 SHL ADD SWAP1 SSTORE POP JUMP JUMPDEST DUP1 DUP3 MUL DUP2 ISZERO DUP3 DUP3 DIV DUP5 EQ OR PUSH2 0x3D7 JUMPI PUSH2 0x3D7 PUSH2 0x323E JUMP JUMPDEST PUSH32 0x416363657373436F6E74726F6C3A206163636F756E7420000000000000000000 DUP2 MSTORE PUSH1 0x0 DUP4 MLOAD PUSH2 0x344D DUP2 PUSH1 0x17 DUP6 ADD PUSH1 0x20 DUP9 ADD PUSH2 0x2AAD JUMP JUMPDEST PUSH17 0x1034B99036B4B9B9B4B733903937B6329 PUSH1 0x7D SHL PUSH1 0x17 SWAP2 DUP5 ADD SWAP2 DUP3 ADD MSTORE DUP4 MLOAD PUSH2 0x347E DUP2 PUSH1 0x28 DUP5 ADD PUSH1 0x20 DUP9 ADD PUSH2 0x2AAD JUMP JUMPDEST ADD PUSH1 0x28 ADD SWAP5 SWAP4 POP POP POP POP JUMP JUMPDEST PUSH1 0x20 DUP2 MSTORE PUSH1 0x0 PUSH2 0x279D PUSH1 0x20 DUP4 ADD DUP5 PUSH2 0x2AD1 JUMP JUMPDEST PUSH1 0x0 DUP2 PUSH2 0x34AC JUMPI PUSH2 0x34AC PUSH2 0x323E JUMP JUMPDEST POP PUSH1 0x0 NOT ADD SWAP1 JUMP INVALID DUP5 0xC0 0xE6 SWAP4 PUSH9 0x32819E27761BD60CCA 0x25 0xB2 0xEF SWAP11 XOR JUMPDEST SWAP3 0x5C 0x2C SWAP10 LOG0 PUSH7 0xA29A80D42F038B 0x2C EQ INVALID SWAP6 0x5D DIV 0x4E 0xF9 JUMPDEST LOG3 0x2B DUP9 0xD2 0xCE 0xB8 PUSH29 0x6F73FCEFDCEBE906063A6D75690F27A26469706673582212208C4A26C0 0xCB SSTORE SWAP3 0xC3 0xA5 PUSH25 0x45B8505A07CFA4E7C32B9388EA6A27B1DFF80080198D64736F PUSH13 0x63430008130033000000000000 "},"methodIdentifiers":{"DEFAULT_ADMIN_ROLE()":"a217fddf","TICKET_ROLE()":"89964e22","addMovie(string,string,string,string,string,string,string,string,string,string)":"a65c7ce4","addTimeSlot(uint256,uint256[],uint256[],uint256[],uint256[],uint256[])":"0ee2c58c","completeTimeSlot(uint256)":"b6da3f09","deleteMovie(uint256)":"6b4f6cb7","deleteTimeSlot(uint256)":"3b6559c1","getActiveTimeSlots(uint256)":"b83b2c52","getMovie(uint256)":"179ffe76","getMovies()":"2c53b406","getRoleAdmin(bytes32)":"248a9ca3","getTimeSlot(uint256)":"2b85dcc9","getTimeSlots(uint256)":"7cd35a0a","getTimeSlotsByDay(uint256)":"d6cbac90","grantAccess(address)":"0ae5e739","grantRole(bytes32,address)":"2f2ff15d","hasRole(bytes32,address)":"91d14854","owner()":"8da5cb5b","renounceOwnership()":"715018a6","renounceRole(bytes32,address)":"36568abe","revokeRole(bytes32,address)":"d547741f","setTimeSlot((uint256,uint256,uint256,uint256,uint256,uint256,uint256,bool,bool,uint256,uint256))":"61853e93","supportsInterface(bytes4)":"01ffc9a7","transferOwnership(address)":"f2fde38b","updateMovie(uint256,string,string,string,string,string,string,string,string,string,string)":"91b1841b"}}}}}