{
  "_format": "hh-sol-artifact-1",
  "contractName": "DappShared",
  "sourceName": "contracts/DappShared.sol",
  "abi": [
    {
      "inputs": [],
      "stateMutability": "nonpayable",
      "type": "constructor"
    },
    {
      "anonymous": false,
      "inputs": [
        {
          "indexed": false,
          "internalType": "string",
          "name": "actionType",
          "type": "string"
        }
      ],
      "name": "Action",
      "type": "event"
    },
    {
      "anonymous": false,
      "inputs": [
        {
          "indexed": true,
          "internalType": "address",
          "name": "account",
          "type": "address"
        },
        {
          "indexed": true,
          "internalType": "address",
          "name": "operator",
          "type": "address"
        },
        {
          "indexed": false,
          "internalType": "bool",
          "name": "approved",
          "type": "bool"
        }
      ],
      "name": "ApprovalForAll",
      "type": "event"
    },
    {
      "anonymous": false,
      "inputs": [
        {
          "indexed": true,
          "internalType": "address",
          "name": "previousOwner",
          "type": "address"
        },
        {
          "indexed": true,
          "internalType": "address",
          "name": "newOwner",
          "type": "address"
        }
      ],
      "name": "OwnershipTransferred",
      "type": "event"
    },
    {
      "anonymous": false,
      "inputs": [
        {
          "indexed": true,
          "internalType": "bytes32",
          "name": "role",
          "type": "bytes32"
        },
        {
          "indexed": true,
          "internalType": "bytes32",
          "name": "previousAdminRole",
          "type": "bytes32"
        },
        {
          "indexed": true,
          "internalType": "bytes32",
          "name": "newAdminRole",
          "type": "bytes32"
        }
      ],
      "name": "RoleAdminChanged",
      "type": "event"
    },
    {
      "anonymous": false,
      "inputs": [
        {
          "indexed": true,
          "internalType": "bytes32",
          "name": "role",
          "type": "bytes32"
        },
        {
          "indexed": true,
          "internalType": "address",
          "name": "account",
          "type": "address"
        },
        {
          "indexed": true,
          "internalType": "address",
          "name": "sender",
          "type": "address"
        }
      ],
      "name": "RoleGranted",
      "type": "event"
    },
    {
      "anonymous": false,
      "inputs": [
        {
          "indexed": true,
          "internalType": "bytes32",
          "name": "role",
          "type": "bytes32"
        },
        {
          "indexed": true,
          "internalType": "address",
          "name": "account",
          "type": "address"
        },
        {
          "indexed": true,
          "internalType": "address",
          "name": "sender",
          "type": "address"
        }
      ],
      "name": "RoleRevoked",
      "type": "event"
    },
    {
      "anonymous": false,
      "inputs": [
        {
          "indexed": true,
          "internalType": "address",
          "name": "operator",
          "type": "address"
        },
        {
          "indexed": true,
          "internalType": "address",
          "name": "from",
          "type": "address"
        },
        {
          "indexed": true,
          "internalType": "address",
          "name": "to",
          "type": "address"
        },
        {
          "indexed": false,
          "internalType": "uint256[]",
          "name": "ids",
          "type": "uint256[]"
        },
        {
          "indexed": false,
          "internalType": "uint256[]",
          "name": "values",
          "type": "uint256[]"
        }
      ],
      "name": "TransferBatch",
      "type": "event"
    },
    {
      "anonymous": false,
      "inputs": [
        {
          "indexed": true,
          "internalType": "address",
          "name": "operator",
          "type": "address"
        },
        {
          "indexed": true,
          "internalType": "address",
          "name": "from",
          "type": "address"
        },
        {
          "indexed": true,
          "internalType": "address",
          "name": "to",
          "type": "address"
        },
        {
          "indexed": false,
          "internalType": "uint256",
          "name": "id",
          "type": "uint256"
        },
        {
          "indexed": false,
          "internalType": "uint256",
          "name": "value",
          "type": "uint256"
        }
      ],
      "name": "TransferSingle",
      "type": "event"
    },
    {
      "anonymous": false,
      "inputs": [
        {
          "indexed": false,
          "internalType": "string",
          "name": "value",
          "type": "string"
        },
        {
          "indexed": true,
          "internalType": "uint256",
          "name": "id",
          "type": "uint256"
        }
      ],
      "name": "URI",
      "type": "event"
    },
    {
      "inputs": [],
      "name": "DEFAULT_ADMIN_ROLE",
      "outputs": [
        {
          "internalType": "bytes32",
          "name": "",
          "type": "bytes32"
        }
      ],
      "stateMutability": "view",
      "type": "function"
    },
    {
      "inputs": [
        {
          "internalType": "address",
          "name": "account",
          "type": "address"
        },
        {
          "internalType": "uint256",
          "name": "id",
          "type": "uint256"
        }
      ],
      "name": "balanceOf",
      "outputs": [
        {
          "internalType": "uint256",
          "name": "",
          "type": "uint256"
        }
      ],
      "stateMutability": "view",
      "type": "function"
    },
    {
      "inputs": [
        {
          "internalType": "address[]",
          "name": "accounts",
          "type": "address[]"
        },
        {
          "internalType": "uint256[]",
          "name": "ids",
          "type": "uint256[]"
        }
      ],
      "name": "balanceOfBatch",
      "outputs": [
        {
          "internalType": "uint256[]",
          "name": "",
          "type": "uint256[]"
        }
      ],
      "stateMutability": "view",
      "type": "function"
    },
    {
      "inputs": [
        {
          "internalType": "address",
          "name": "account",
          "type": "address"
        },
        {
          "internalType": "uint256",
          "name": "id",
          "type": "uint256"
        },
        {
          "internalType": "uint256",
          "name": "value",
          "type": "uint256"
        }
      ],
      "name": "burn",
      "outputs": [],
      "stateMutability": "nonpayable",
      "type": "function"
    },
    {
      "inputs": [
        {
          "internalType": "address",
          "name": "account",
          "type": "address"
        },
        {
          "internalType": "uint256[]",
          "name": "ids",
          "type": "uint256[]"
        },
        {
          "internalType": "uint256[]",
          "name": "values",
          "type": "uint256[]"
        }
      ],
      "name": "burnBatch",
      "outputs": [],
      "stateMutability": "nonpayable",
      "type": "function"
    },
    {
      "inputs": [
        {
          "internalType": "bytes32",
          "name": "role",
          "type": "bytes32"
        }
      ],
      "name": "getRoleAdmin",
      "outputs": [
        {
          "internalType": "bytes32",
          "name": "",
          "type": "bytes32"
        }
      ],
      "stateMutability": "view",
      "type": "function"
    },
    {
      "inputs": [
        {
          "internalType": "bytes32",
          "name": "role",
          "type": "bytes32"
        },
        {
          "internalType": "address",
          "name": "account",
          "type": "address"
        }
      ],
      "name": "grantRole",
      "outputs": [],
      "stateMutability": "nonpayable",
      "type": "function"
    },
    {
      "inputs": [
        {
          "internalType": "bytes32",
          "name": "role",
          "type": "bytes32"
        },
        {
          "internalType": "address",
          "name": "account",
          "type": "address"
        }
      ],
      "name": "hasRole",
      "outputs": [
        {
          "internalType": "bool",
          "name": "",
          "type": "bool"
        }
      ],
      "stateMutability": "view",
      "type": "function"
    },
    {
      "inputs": [
        {
          "internalType": "address",
          "name": "account",
          "type": "address"
        },
        {
          "internalType": "address",
          "name": "operator",
          "type": "address"
        }
      ],
      "name": "isApprovedForAll",
      "outputs": [
        {
          "internalType": "bool",
          "name": "",
          "type": "bool"
        }
      ],
      "stateMutability": "view",
      "type": "function"
    },
    {
      "inputs": [],
      "name": "owner",
      "outputs": [
        {
          "internalType": "address",
          "name": "",
          "type": "address"
        }
      ],
      "stateMutability": "view",
      "type": "function"
    },
    {
      "inputs": [],
      "name": "renounceOwnership",
      "outputs": [],
      "stateMutability": "nonpayable",
      "type": "function"
    },
    {
      "inputs": [
        {
          "internalType": "bytes32",
          "name": "role",
          "type": "bytes32"
        },
        {
          "internalType": "address",
          "name": "account",
          "type": "address"
        }
      ],
      "name": "renounceRole",
      "outputs": [],
      "stateMutability": "nonpayable",
      "type": "function"
    },
    {
      "inputs": [
        {
          "internalType": "bytes32",
          "name": "role",
          "type": "bytes32"
        },
        {
          "internalType": "address",
          "name": "account",
          "type": "address"
        }
      ],
      "name": "revokeRole",
      "outputs": [],
      "stateMutability": "nonpayable",
      "type": "function"
    },
    {
      "inputs": [
        {
          "internalType": "address",
          "name": "from",
          "type": "address"
        },
        {
          "internalType": "address",
          "name": "to",
          "type": "address"
        },
        {
          "internalType": "uint256[]",
          "name": "ids",
          "type": "uint256[]"
        },
        {
          "internalType": "uint256[]",
          "name": "amounts",
          "type": "uint256[]"
        },
        {
          "internalType": "bytes",
          "name": "data",
          "type": "bytes"
        }
      ],
      "name": "safeBatchTransferFrom",
      "outputs": [],
      "stateMutability": "nonpayable",
      "type": "function"
    },
    {
      "inputs": [
        {
          "internalType": "address",
          "name": "from",
          "type": "address"
        },
        {
          "internalType": "address",
          "name": "to",
          "type": "address"
        },
        {
          "internalType": "uint256",
          "name": "id",
          "type": "uint256"
        },
        {
          "internalType": "uint256",
          "name": "amount",
          "type": "uint256"
        },
        {
          "internalType": "bytes",
          "name": "data",
          "type": "bytes"
        }
      ],
      "name": "safeTransferFrom",
      "outputs": [],
      "stateMutability": "nonpayable",
      "type": "function"
    },
    {
      "inputs": [
        {
          "internalType": "address",
          "name": "operator",
          "type": "address"
        },
        {
          "internalType": "bool",
          "name": "approved",
          "type": "bool"
        }
      ],
      "name": "setApprovalForAll",
      "outputs": [],
      "stateMutability": "nonpayable",
      "type": "function"
    },
    {
      "inputs": [
        {
          "internalType": "bytes4",
          "name": "interfaceId",
          "type": "bytes4"
        }
      ],
      "name": "supportsInterface",
      "outputs": [
        {
          "internalType": "bool",
          "name": "",
          "type": "bool"
        }
      ],
      "stateMutability": "view",
      "type": "function"
    },
    {
      "inputs": [
        {
          "internalType": "address",
          "name": "newOwner",
          "type": "address"
        }
      ],
      "name": "transferOwnership",
      "outputs": [],
      "stateMutability": "nonpayable",
      "type": "function"
    },
    {
      "inputs": [
        {
          "internalType": "uint256",
          "name": "",
          "type": "uint256"
        }
      ],
      "name": "uri",
      "outputs": [
        {
          "internalType": "string",
          "name": "",
          "type": "string"
        }
      ],
      "stateMutability": "view",
      "type": "function"
    }
  ],
  "bytecode": "0x60806040523480156200001157600080fd5b506040805160208101909152600081526200002c816200003e565b50620000383362000050565b62000213565b60026200004c828262000147565b5050565b600380546001600160a01b038381166001600160a01b0319831681179093556040519116919082907f8be0079c531659141344cd1fd0a4f28419497f9722a3daafe3b4186f6b6457e090600090a35050565b634e487b7160e01b600052604160045260246000fd5b600181811c90821680620000cd57607f821691505b602082108103620000ee57634e487b7160e01b600052602260045260246000fd5b50919050565b601f8211156200014257600081815260208120601f850160051c810160208610156200011d5750805b601f850160051c820191505b818110156200013e5782815560010162000129565b5050505b505050565b81516001600160401b03811115620001635762000163620000a2565b6200017b81620001748454620000b8565b84620000f4565b602080601f831160018114620001b357600084156200019a5750858301515b600019600386901b1c1916600185901b1785556200013e565b600085815260208120601f198616915b82811015620001e457888601518255948401946001909101908401620001c3565b5085821015620002035787850151600019600388901b60f8161c191681555b5050505050600190811b01905550565b611f7280620002236000396000f3fe608060405234801561001057600080fd5b50600436106101205760003560e01c8063715018a6116100ad578063d547741f11610071578063d547741f14610270578063e985e9c514610283578063f242432a146102bf578063f2fde38b146102d2578063f5298aca146102e557600080fd5b8063715018a61461021f5780638da5cb5b1461022757806391d1485414610242578063a217fddf14610255578063a22cb4651461025d57600080fd5b80632eb2c2d6116100f45780632eb2c2d6146101b15780632f2ff15d146101c657806336568abe146101d95780634e1273f4146101ec5780636b20c4541461020c57600080fd5b8062fdd58e1461012557806301ffc9a71461014b5780630e89341c1461016e578063248a9ca31461018e575b600080fd5b6101386101333660046114de565b6102f8565b6040519081526020015b60405180910390f35b61015e61015936600461151e565b610391565b6040519015158152602001610142565b61018161017c36600461153b565b61039c565b60405161014291906115a4565b61013861019c36600461153b565b60009081526004602052604090206001015490565b6101c46101bf366004611703565b610430565b005b6101c46101d43660046117ad565b61047c565b6101c46101e73660046117ad565b6104a6565b6101ff6101fa3660046117d9565b610524565b60405161014291906118df565b6101c461021a3660046118f2565b61064e565b6101c4610691565b6003546040516001600160a01b039091168152602001610142565b61015e6102503660046117ad565b6106a5565b610138600081565b6101c461026b366004611966565b6106d0565b6101c461027e3660046117ad565b6106db565b61015e6102913660046119a2565b6001600160a01b03918216600090815260016020908152604080832093909416825291909152205460ff1690565b6101c46102cd3660046119cc565b610700565b6101c46102e0366004611a31565b610745565b6101c46102f3366004611a4c565b6107be565b60006001600160a01b0383166103685760405162461bcd60e51b815260206004820152602a60248201527f455243313135353a2061646472657373207a65726f206973206e6f742061207660448201526930b634b21037bbb732b960b11b60648201526084015b60405180910390fd5b506000818152602081815260408083206001600160a01b03861684529091529020545b92915050565b600061038b82610801565b6060600280546103ab90611a7f565b80601f01602080910402602001604051908101604052809291908181526020018280546103d790611a7f565b80156104245780601f106103f957610100808354040283529160200191610424565b820191906000526020600020905b81548152906001019060200180831161040757829003601f168201915b50505050509050919050565b6001600160a01b03851633148061044c575061044c8533610291565b6104685760405162461bcd60e51b815260040161035f90611ab9565b6104758585858585610826565b5050505050565b600082815260046020526040902060010154610497816109c2565b6104a183836109cc565b505050565b6001600160a01b03811633146105165760405162461bcd60e51b815260206004820152602f60248201527f416363657373436f6e74726f6c3a2063616e206f6e6c792072656e6f756e636560448201526e103937b632b9903337b91039b2b63360891b606482015260840161035f565b6105208282610a52565b5050565b606081518351146105895760405162461bcd60e51b815260206004820152602960248201527f455243313135353a206163636f756e747320616e6420696473206c656e677468604482015268040dad2e6dac2e8c6d60bb1b606482015260840161035f565b6000835167ffffffffffffffff8111156105a5576105a56115b7565b6040519080825280602002602001820160405280156105ce578160200160208202803683370190505b50905060005b8451811015610646576106198582815181106105f2576105f2611b07565b602002602001015185838151811061060c5761060c611b07565b60200260200101516102f8565b82828151811061062b5761062b611b07565b602090810291909101015261063f81611b33565b90506105d4565b509392505050565b6001600160a01b03831633148061066a575061066a8333610291565b6106865760405162461bcd60e51b815260040161035f90611ab9565b6104a1838383610ab9565b610699610c44565b6106a36000610c9e565b565b60009182526004602090815260408084206001600160a01b0393909316845291905290205460ff1690565b610520338383610cf0565b6000828152600460205260409020600101546106f6816109c2565b6104a18383610a52565b6001600160a01b03851633148061071c575061071c8533610291565b6107385760405162461bcd60e51b815260040161035f90611ab9565b6104758585858585610dd0565b61074d610c44565b6001600160a01b0381166107b25760405162461bcd60e51b815260206004820152602660248201527f4f776e61626c653a206e6577206f776e657220697320746865207a65726f206160448201526564647265737360d01b606482015260840161035f565b6107bb81610c9e565b50565b6001600160a01b0383163314806107da57506107da8333610291565b6107f65760405162461bcd60e51b815260040161035f90611ab9565b6104a1838383610efa565b60006001600160e01b03198216637965db0b60e01b148061038b575061038b82611003565b81518351146108475760405162461bcd60e51b815260040161035f90611b4c565b6001600160a01b03841661086d5760405162461bcd60e51b815260040161035f90611b94565b3360005b845181101561095457600085828151811061088e5761088e611b07565b6020026020010151905060008583815181106108ac576108ac611b07565b602090810291909101810151600084815280835260408082206001600160a01b038e1683529093529190912054909150818110156108fc5760405162461bcd60e51b815260040161035f90611bd9565b6000838152602081815260408083206001600160a01b038e8116855292528083208585039055908b16825281208054849290610939908490611c23565b925050819055505050508061094d90611b33565b9050610871565b50846001600160a01b0316866001600160a01b0316826001600160a01b03167f4a39dc06d4c0dbc64b70af90fd698a233a518aa5d07e595d983b8c0526c8f7fb87876040516109a4929190611c36565b60405180910390a46109ba818787878787611053565b505050505050565b6107bb81336111ae565b6109d682826106a5565b6105205760008281526004602090815260408083206001600160a01b03851684529091529020805460ff19166001179055610a0e3390565b6001600160a01b0316816001600160a01b0316837f2f8788117e7eff1d82e926ec794901d17c78024a50270940304540a733656f0d60405160405180910390a45050565b610a5c82826106a5565b156105205760008281526004602090815260408083206001600160a01b0385168085529252808320805460ff1916905551339285917ff6391f5c32d9c69d2a47ea670b442974b53935d1edc7fd64eb21e047a839171b9190a45050565b6001600160a01b038316610adf5760405162461bcd60e51b815260040161035f90611c64565b8051825114610b005760405162461bcd60e51b815260040161035f90611b4c565b604080516020810190915260009081905233905b8351811015610bd6576000848281518110610b3157610b31611b07565b602002602001015190506000848381518110610b4f57610b4f611b07565b602090810291909101810151600084815280835260408082206001600160a01b038c168352909352919091205490915081811015610b9f5760405162461bcd60e51b815260040161035f90611ca7565b6000928352602083815260408085206001600160a01b038b1686529091529092209103905580610bce81611b33565b915050610b14565b5060006001600160a01b0316846001600160a01b0316826001600160a01b03167f4a39dc06d4c0dbc64b70af90fd698a233a518aa5d07e595d983b8c0526c8f7fb8686604051610c27929190611c36565b60405180910390a460408051602081019091526000905250505050565b6003546001600160a01b031633146106a35760405162461bcd60e51b815260206004820181905260248201527f4f776e61626c653a2063616c6c6572206973206e6f7420746865206f776e6572604482015260640161035f565b600380546001600160a01b038381166001600160a01b0319831681179093556040519116919082907f8be0079c531659141344cd1fd0a4f28419497f9722a3daafe3b4186f6b6457e090600090a35050565b816001600160a01b0316836001600160a01b031603610d635760405162461bcd60e51b815260206004820152602960248201527f455243313135353a2073657474696e6720617070726f76616c20737461747573604482015268103337b91039b2b63360b91b606482015260840161035f565b6001600160a01b03838116600081815260016020908152604080832094871680845294825291829020805460ff191686151590811790915591519182527f17307eab39ab6107e8899845ad3d59bd9653f200f220920489ca2b5937696c31910160405180910390a3505050565b6001600160a01b038416610df65760405162461bcd60e51b815260040161035f90611b94565b336000610e0285611207565b90506000610e0f85611207565b90506000868152602081815260408083206001600160a01b038c16845290915290205485811015610e525760405162461bcd60e51b815260040161035f90611bd9565b6000878152602081815260408083206001600160a01b038d8116855292528083208985039055908a16825281208054889290610e8f908490611c23565b909155505060408051888152602081018890526001600160a01b03808b16928c821692918816917fc3d58168c5ae7397731d063d5bbf3d657854427343f4c083240f7aacaa2d0f62910160405180910390a4610eef848a8a8a8a8a611252565b505050505050505050565b6001600160a01b038316610f205760405162461bcd60e51b815260040161035f90611c64565b336000610f2c84611207565b90506000610f3984611207565b60408051602080820183526000918290528882528181528282206001600160a01b038b1683529052205490915084811015610f865760405162461bcd60e51b815260040161035f90611ca7565b6000868152602081815260408083206001600160a01b038b81168086529184528285208a8703905582518b81529384018a90529092908816917fc3d58168c5ae7397731d063d5bbf3d657854427343f4c083240f7aacaa2d0f62910160405180910390a46040805160208101909152600090525b50505050505050565b60006001600160e01b03198216636cdb3d1360e11b148061103457506001600160e01b031982166303a24d0760e21b145b8061038b57506301ffc9a760e01b6001600160e01b031983161461038b565b6001600160a01b0384163b156109ba5760405163bc197c8160e01b81526001600160a01b0385169063bc197c81906110979089908990889088908890600401611ceb565b6020604051808303816000875af19250505080156110d2575060408051601f3d908101601f191682019092526110cf91810190611d49565b60015b61117e576110de611d66565b806308c379a00361111757506110f2611d82565b806110fd5750611119565b8060405162461bcd60e51b815260040161035f91906115a4565b505b60405162461bcd60e51b815260206004820152603460248201527f455243313135353a207472616e7366657220746f206e6f6e2d455243313135356044820152732932b1b2b4bb32b91034b6b83632b6b2b73a32b960611b606482015260840161035f565b6001600160e01b0319811663bc197c8160e01b14610ffa5760405162461bcd60e51b815260040161035f90611e0c565b6111b882826106a5565b610520576111c58161130d565b6111d083602061131f565b6040516020016111e1929190611e54565b60408051601f198184030181529082905262461bcd60e51b825261035f916004016115a4565b6040805160018082528183019092526060916000919060208083019080368337019050509050828160008151811061124157611241611b07565b602090810291909101015292915050565b6001600160a01b0384163b156109ba5760405163f23a6e6160e01b81526001600160a01b0385169063f23a6e61906112969089908990889088908890600401611ec9565b6020604051808303816000875af19250505080156112d1575060408051601f3d908101601f191682019092526112ce91810190611d49565b60015b6112dd576110de611d66565b6001600160e01b0319811663f23a6e6160e01b14610ffa5760405162461bcd60e51b815260040161035f90611e0c565b606061038b6001600160a01b03831660145b6060600061132e836002611f0e565b611339906002611c23565b67ffffffffffffffff811115611351576113516115b7565b6040519080825280601f01601f19166020018201604052801561137b576020820181803683370190505b509050600360fc1b8160008151811061139657611396611b07565b60200101906001600160f81b031916908160001a905350600f60fb1b816001815181106113c5576113c5611b07565b60200101906001600160f81b031916908160001a90535060006113e9846002611f0e565b6113f4906001611c23565b90505b600181111561146c576f181899199a1a9b1b9c1cb0b131b232b360811b85600f166010811061142857611428611b07565b1a60f81b82828151811061143e5761143e611b07565b60200101906001600160f81b031916908160001a90535060049490941c9361146581611f25565b90506113f7565b5083156114bb5760405162461bcd60e51b815260206004820181905260248201527f537472696e67733a20686578206c656e67746820696e73756666696369656e74604482015260640161035f565b9392505050565b80356001600160a01b03811681146114d957600080fd5b919050565b600080604083850312156114f157600080fd5b6114fa836114c2565b946020939093013593505050565b6001600160e01b0319811681146107bb57600080fd5b60006020828403121561153057600080fd5b81356114bb81611508565b60006020828403121561154d57600080fd5b5035919050565b60005b8381101561156f578181015183820152602001611557565b50506000910152565b60008151808452611590816020860160208601611554565b601f01601f19169290920160200192915050565b6020815260006114bb6020830184611578565b634e487b7160e01b600052604160045260246000fd5b601f8201601f1916810167ffffffffffffffff811182821017156115f3576115f36115b7565b6040525050565b600067ffffffffffffffff821115611614576116146115b7565b5060051b60200190565b600082601f83011261162f57600080fd5b8135602061163c826115fa565b60405161164982826115cd565b83815260059390931b850182019282810191508684111561166957600080fd5b8286015b84811015611684578035835291830191830161166d565b509695505050505050565b600082601f8301126116a057600080fd5b813567ffffffffffffffff8111156116ba576116ba6115b7565b6040516116d1601f8301601f1916602001826115cd565b8181528460208386010111156116e657600080fd5b816020850160208301376000918101602001919091529392505050565b600080600080600060a0868803121561171b57600080fd5b611724866114c2565b9450611732602087016114c2565b9350604086013567ffffffffffffffff8082111561174f57600080fd5b61175b89838a0161161e565b9450606088013591508082111561177157600080fd5b61177d89838a0161161e565b9350608088013591508082111561179357600080fd5b506117a08882890161168f565b9150509295509295909350565b600080604083850312156117c057600080fd5b823591506117d0602084016114c2565b90509250929050565b600080604083850312156117ec57600080fd5b823567ffffffffffffffff8082111561180457600080fd5b818501915085601f83011261181857600080fd5b81356020611825826115fa565b60405161183282826115cd565b83815260059390931b850182019282810191508984111561185257600080fd5b948201945b8386101561187757611868866114c2565b82529482019490820190611857565b9650508601359250508082111561188d57600080fd5b5061189a8582860161161e565b9150509250929050565b600081518084526020808501945080840160005b838110156118d4578151875295820195908201906001016118b8565b509495945050505050565b6020815260006114bb60208301846118a4565b60008060006060848603121561190757600080fd5b611910846114c2565b9250602084013567ffffffffffffffff8082111561192d57600080fd5b6119398783880161161e565b9350604086013591508082111561194f57600080fd5b5061195c8682870161161e565b9150509250925092565b6000806040838503121561197957600080fd5b611982836114c2565b91506020830135801515811461199757600080fd5b809150509250929050565b600080604083850312156119b557600080fd5b6119be836114c2565b91506117d0602084016114c2565b600080600080600060a086880312156119e457600080fd5b6119ed866114c2565b94506119fb602087016114c2565b93506040860135925060608601359150608086013567ffffffffffffffff811115611a2557600080fd5b6117a08882890161168f565b600060208284031215611a4357600080fd5b6114bb826114c2565b600080600060608486031215611a6157600080fd5b611a6a846114c2565b95602085013595506040909401359392505050565b600181811c90821680611a9357607f821691505b602082108103611ab357634e487b7160e01b600052602260045260246000fd5b50919050565b6020808252602e908201527f455243313135353a2063616c6c6572206973206e6f7420746f6b656e206f776e60408201526d195c881bdc88185c1c1c9bdd995960921b606082015260800190565b634e487b7160e01b600052603260045260246000fd5b634e487b7160e01b600052601160045260246000fd5b600060018201611b4557611b45611b1d565b5060010190565b60208082526028908201527f455243313135353a2069647320616e6420616d6f756e7473206c656e677468206040820152670dad2e6dac2e8c6d60c31b606082015260800190565b60208082526025908201527f455243313135353a207472616e7366657220746f20746865207a65726f206164604082015264647265737360d81b606082015260800190565b6020808252602a908201527f455243313135353a20696e73756666696369656e742062616c616e636520666f60408201526939103a3930b739b332b960b11b606082015260800190565b8082018082111561038b5761038b611b1d565b604081526000611c4960408301856118a4565b8281036020840152611c5b81856118a4565b95945050505050565b60208082526023908201527f455243313135353a206275726e2066726f6d20746865207a65726f206164647260408201526265737360e81b606082015260800190565b60208082526024908201527f455243313135353a206275726e20616d6f756e7420657863656564732062616c604082015263616e636560e01b606082015260800190565b6001600160a01b0386811682528516602082015260a060408201819052600090611d17908301866118a4565b8281036060840152611d2981866118a4565b90508281036080840152611d3d8185611578565b98975050505050505050565b600060208284031215611d5b57600080fd5b81516114bb81611508565b600060033d1115611d7f5760046000803e5060005160e01c5b90565b600060443d1015611d905790565b6040516003193d81016004833e81513d67ffffffffffffffff8160248401118184111715611dc057505050505090565b8285019150815181811115611dd85750505050505090565b843d8701016020828501011115611df25750505050505090565b611e01602082860101876115cd565b509095945050505050565b60208082526028908201527f455243313135353a204552433131353552656365697665722072656a656374656040820152676420746f6b656e7360c01b606082015260800190565b7f416363657373436f6e74726f6c3a206163636f756e7420000000000000000000815260008351611e8c816017850160208801611554565b7001034b99036b4b9b9b4b733903937b6329607d1b6017918401918201528351611ebd816028840160208801611554565b01602801949350505050565b6001600160a01b03868116825285166020820152604081018490526060810183905260a060808201819052600090611f0390830184611578565b979650505050505050565b808202811582820484141761038b5761038b611b1d565b600081611f3457611f34611b1d565b50600019019056fea264697066735822122086e5bd41ba0b248bf3ca3bd38b5fa28d3182a4d174116340d8105c72a7e28a1d64736f6c63430008130033",
  "linkReferences": {},
  "deployedLinkReferences": {}
}