{
  "_format": "hh-sol-artifact-1",
  "contractName": "DappShared",
  "sourceName": "contracts/DappShared.sol",
  "abi": [
    {
      "inputs": [],
      "stateMutability": "nonpayable",
      "type": "constructor"
    },
    {
      "anonymous": false,
      "inputs": [
        {
          "indexed": false,
          "internalType": "string",
          "name": "actionType",
          "type": "string"
        }
      ],
      "name": "Action",
      "type": "event"
    },
    {
      "anonymous": false,
      "inputs": [
        {
          "indexed": true,
          "internalType": "address",
          "name": "account",
          "type": "address"
        },
        {
          "indexed": true,
          "internalType": "address",
          "name": "operator",
          "type": "address"
        },
        {
          "indexed": false,
          "internalType": "bool",
          "name": "approved",
          "type": "bool"
        }
      ],
      "name": "ApprovalForAll",
      "type": "event"
    },
    {
      "anonymous": false,
      "inputs": [
        {
          "indexed": true,
          "internalType": "address",
          "name": "previousOwner",
          "type": "address"
        },
        {
          "indexed": true,
          "internalType": "address",
          "name": "newOwner",
          "type": "address"
        }
      ],
      "name": "OwnershipTransferred",
      "type": "event"
    },
    {
      "anonymous": false,
      "inputs": [
        {
          "indexed": true,
          "internalType": "address",
          "name": "operator",
          "type": "address"
        },
        {
          "indexed": true,
          "internalType": "address",
          "name": "from",
          "type": "address"
        },
        {
          "indexed": true,
          "internalType": "address",
          "name": "to",
          "type": "address"
        },
        {
          "indexed": false,
          "internalType": "uint256[]",
          "name": "ids",
          "type": "uint256[]"
        },
        {
          "indexed": false,
          "internalType": "uint256[]",
          "name": "values",
          "type": "uint256[]"
        }
      ],
      "name": "TransferBatch",
      "type": "event"
    },
    {
      "anonymous": false,
      "inputs": [
        {
          "indexed": true,
          "internalType": "address",
          "name": "operator",
          "type": "address"
        },
        {
          "indexed": true,
          "internalType": "address",
          "name": "from",
          "type": "address"
        },
        {
          "indexed": true,
          "internalType": "address",
          "name": "to",
          "type": "address"
        },
        {
          "indexed": false,
          "internalType": "uint256",
          "name": "id",
          "type": "uint256"
        },
        {
          "indexed": false,
          "internalType": "uint256",
          "name": "value",
          "type": "uint256"
        }
      ],
      "name": "TransferSingle",
      "type": "event"
    },
    {
      "anonymous": false,
      "inputs": [
        {
          "indexed": false,
          "internalType": "string",
          "name": "value",
          "type": "string"
        },
        {
          "indexed": true,
          "internalType": "uint256",
          "name": "id",
          "type": "uint256"
        }
      ],
      "name": "URI",
      "type": "event"
    },
    {
      "inputs": [
        {
          "internalType": "address",
          "name": "account",
          "type": "address"
        },
        {
          "internalType": "uint256",
          "name": "id",
          "type": "uint256"
        }
      ],
      "name": "balanceOf",
      "outputs": [
        {
          "internalType": "uint256",
          "name": "",
          "type": "uint256"
        }
      ],
      "stateMutability": "view",
      "type": "function"
    },
    {
      "inputs": [
        {
          "internalType": "address[]",
          "name": "accounts",
          "type": "address[]"
        },
        {
          "internalType": "uint256[]",
          "name": "ids",
          "type": "uint256[]"
        }
      ],
      "name": "balanceOfBatch",
      "outputs": [
        {
          "internalType": "uint256[]",
          "name": "",
          "type": "uint256[]"
        }
      ],
      "stateMutability": "view",
      "type": "function"
    },
    {
      "inputs": [
        {
          "internalType": "address",
          "name": "account",
          "type": "address"
        },
        {
          "internalType": "uint256",
          "name": "id",
          "type": "uint256"
        },
        {
          "internalType": "uint256",
          "name": "value",
          "type": "uint256"
        }
      ],
      "name": "burn",
      "outputs": [],
      "stateMutability": "nonpayable",
      "type": "function"
    },
    {
      "inputs": [
        {
          "internalType": "address",
          "name": "account",
          "type": "address"
        },
        {
          "internalType": "uint256[]",
          "name": "ids",
          "type": "uint256[]"
        },
        {
          "internalType": "uint256[]",
          "name": "values",
          "type": "uint256[]"
        }
      ],
      "name": "burnBatch",
      "outputs": [],
      "stateMutability": "nonpayable",
      "type": "function"
    },
    {
      "inputs": [
        {
          "internalType": "address",
          "name": "account",
          "type": "address"
        },
        {
          "internalType": "address",
          "name": "operator",
          "type": "address"
        }
      ],
      "name": "isApprovedForAll",
      "outputs": [
        {
          "internalType": "bool",
          "name": "",
          "type": "bool"
        }
      ],
      "stateMutability": "view",
      "type": "function"
    },
    {
      "inputs": [],
      "name": "owner",
      "outputs": [
        {
          "internalType": "address",
          "name": "",
          "type": "address"
        }
      ],
      "stateMutability": "view",
      "type": "function"
    },
    {
      "inputs": [],
      "name": "renounceOwnership",
      "outputs": [],
      "stateMutability": "nonpayable",
      "type": "function"
    },
    {
      "inputs": [
        {
          "internalType": "address",
          "name": "from",
          "type": "address"
        },
        {
          "internalType": "address",
          "name": "to",
          "type": "address"
        },
        {
          "internalType": "uint256[]",
          "name": "ids",
          "type": "uint256[]"
        },
        {
          "internalType": "uint256[]",
          "name": "amounts",
          "type": "uint256[]"
        },
        {
          "internalType": "bytes",
          "name": "data",
          "type": "bytes"
        }
      ],
      "name": "safeBatchTransferFrom",
      "outputs": [],
      "stateMutability": "nonpayable",
      "type": "function"
    },
    {
      "inputs": [
        {
          "internalType": "address",
          "name": "from",
          "type": "address"
        },
        {
          "internalType": "address",
          "name": "to",
          "type": "address"
        },
        {
          "internalType": "uint256",
          "name": "id",
          "type": "uint256"
        },
        {
          "internalType": "uint256",
          "name": "amount",
          "type": "uint256"
        },
        {
          "internalType": "bytes",
          "name": "data",
          "type": "bytes"
        }
      ],
      "name": "safeTransferFrom",
      "outputs": [],
      "stateMutability": "nonpayable",
      "type": "function"
    },
    {
      "inputs": [
        {
          "internalType": "address",
          "name": "operator",
          "type": "address"
        },
        {
          "internalType": "bool",
          "name": "approved",
          "type": "bool"
        }
      ],
      "name": "setApprovalForAll",
      "outputs": [],
      "stateMutability": "nonpayable",
      "type": "function"
    },
    {
      "inputs": [
        {
          "internalType": "bytes4",
          "name": "interfaceId",
          "type": "bytes4"
        }
      ],
      "name": "supportsInterface",
      "outputs": [
        {
          "internalType": "bool",
          "name": "",
          "type": "bool"
        }
      ],
      "stateMutability": "view",
      "type": "function"
    },
    {
      "inputs": [
        {
          "internalType": "address",
          "name": "newOwner",
          "type": "address"
        }
      ],
      "name": "transferOwnership",
      "outputs": [],
      "stateMutability": "nonpayable",
      "type": "function"
    },
    {
      "inputs": [
        {
          "internalType": "uint256",
          "name": "",
          "type": "uint256"
        }
      ],
      "name": "uri",
      "outputs": [
        {
          "internalType": "string",
          "name": "",
          "type": "string"
        }
      ],
      "stateMutability": "view",
      "type": "function"
    }
  ],
  "bytecode": "0x60806040523480156200001157600080fd5b506040805160208101909152600081526200002c816200003e565b50620000383362000050565b62000213565b60026200004c828262000147565b5050565b600380546001600160a01b038381166001600160a01b0319831681179093556040519116919082907f8be0079c531659141344cd1fd0a4f28419497f9722a3daafe3b4186f6b6457e090600090a35050565b634e487b7160e01b600052604160045260246000fd5b600181811c90821680620000cd57607f821691505b602082108103620000ee57634e487b7160e01b600052602260045260246000fd5b50919050565b601f8211156200014257600081815260208120601f850160051c810160208610156200011d5750805b601f850160051c820191505b818110156200013e5782815560010162000129565b5050505b505050565b81516001600160401b03811115620001635762000163620000a2565b6200017b81620001748454620000b8565b84620000f4565b602080601f831160018114620001b357600084156200019a5750858301515b600019600386901b1c1916600185901b1785556200013e565b600085815260208120601f198616915b82811015620001e457888601518255948401946001909101908401620001c3565b5085821015620002035787850151600019600388901b60f8161c191681555b5050505050600190811b01905550565b6119bc80620002236000396000f3fe608060405234801561001057600080fd5b50600436106100ce5760003560e01c8063715018a61161008c578063e985e9c511610066578063e985e9c5146101ba578063f242432a146101f6578063f2fde38b14610209578063f5298aca1461021c57600080fd5b8063715018a6146101845780638da5cb5b1461018c578063a22cb465146101a757600080fd5b8062fdd58e146100d357806301ffc9a7146100f95780630e89341c1461011c5780632eb2c2d61461013c5780634e1273f4146101515780636b20c45414610171575b600080fd5b6100e66100e1366004610ff1565b61022f565b6040519081526020015b60405180910390f35b61010c610107366004611031565b6102c8565b60405190151581526020016100f0565b61012f61012a366004611055565b610318565b6040516100f091906110b4565b61014f61014a366004611213565b6103ac565b005b61016461015f3660046112bd565b6103f8565b6040516100f091906113c3565b61014f61017f3660046113d6565b610522565b61014f61056a565b6003546040516001600160a01b0390911681526020016100f0565b61014f6101b536600461144a565b61057e565b61010c6101c8366004611486565b6001600160a01b03918216600090815260016020908152604080832093909416825291909152205460ff1690565b61014f6102043660046114b9565b61058d565b61014f61021736600461151e565b6105d2565b61014f61022a366004611539565b61064b565b60006001600160a01b03831661029f5760405162461bcd60e51b815260206004820152602a60248201527f455243313135353a2061646472657373207a65726f206973206e6f742061207660448201526930b634b21037bbb732b960b11b60648201526084015b60405180910390fd5b506000818152602081815260408083206001600160a01b03861684529091529020545b92915050565b60006001600160e01b03198216636cdb3d1360e11b14806102f957506001600160e01b031982166303a24d0760e21b145b806102c257506301ffc9a760e01b6001600160e01b03198316146102c2565b6060600280546103279061156c565b80601f01602080910402602001604051908101604052809291908181526020018280546103539061156c565b80156103a05780601f10610375576101008083540402835291602001916103a0565b820191906000526020600020905b81548152906001019060200180831161038357829003601f168201915b50505050509050919050565b6001600160a01b0385163314806103c857506103c885336101c8565b6103e45760405162461bcd60e51b8152600401610296906115a6565b6103f1858585858561068e565b5050505050565b6060815183511461045d5760405162461bcd60e51b815260206004820152602960248201527f455243313135353a206163636f756e747320616e6420696473206c656e677468604482015268040dad2e6dac2e8c6d60bb1b6064820152608401610296565b6000835167ffffffffffffffff811115610479576104796110c7565b6040519080825280602002602001820160405280156104a2578160200160208202803683370190505b50905060005b845181101561051a576104ed8582815181106104c6576104c66115f4565b60200260200101518583815181106104e0576104e06115f4565b602002602001015161022f565b8282815181106104ff576104ff6115f4565b602090810291909101015261051381611620565b90506104a8565b509392505050565b6001600160a01b03831633148061053e575061053e83336101c8565b61055a5760405162461bcd60e51b8152600401610296906115a6565b61056583838361082a565b505050565b6105726109b5565b61057c6000610a0f565b565b610589338383610a61565b5050565b6001600160a01b0385163314806105a957506105a985336101c8565b6105c55760405162461bcd60e51b8152600401610296906115a6565b6103f18585858585610b41565b6105da6109b5565b6001600160a01b03811661063f5760405162461bcd60e51b815260206004820152602660248201527f4f776e61626c653a206e6577206f776e657220697320746865207a65726f206160448201526564647265737360d01b6064820152608401610296565b61064881610a0f565b50565b6001600160a01b038316331480610667575061066783336101c8565b6106835760405162461bcd60e51b8152600401610296906115a6565b610565838383610c6b565b81518351146106af5760405162461bcd60e51b815260040161029690611639565b6001600160a01b0384166106d55760405162461bcd60e51b815260040161029690611681565b3360005b84518110156107bc5760008582815181106106f6576106f66115f4565b602002602001015190506000858381518110610714576107146115f4565b602090810291909101810151600084815280835260408082206001600160a01b038e1683529093529190912054909150818110156107645760405162461bcd60e51b8152600401610296906116c6565b6000838152602081815260408083206001600160a01b038e8116855292528083208585039055908b168252812080548492906107a1908490611710565b92505081905550505050806107b590611620565b90506106d9565b50846001600160a01b0316866001600160a01b0316826001600160a01b03167f4a39dc06d4c0dbc64b70af90fd698a233a518aa5d07e595d983b8c0526c8f7fb878760405161080c929190611723565b60405180910390a4610822818787878787610d74565b505050505050565b6001600160a01b0383166108505760405162461bcd60e51b815260040161029690611751565b80518251146108715760405162461bcd60e51b815260040161029690611639565b604080516020810190915260009081905233905b83518110156109475760008482815181106108a2576108a26115f4565b6020026020010151905060008483815181106108c0576108c06115f4565b602090810291909101810151600084815280835260408082206001600160a01b038c1683529093529190912054909150818110156109105760405162461bcd60e51b815260040161029690611794565b6000928352602083815260408085206001600160a01b038b168652909152909220910390558061093f81611620565b915050610885565b5060006001600160a01b0316846001600160a01b0316826001600160a01b03167f4a39dc06d4c0dbc64b70af90fd698a233a518aa5d07e595d983b8c0526c8f7fb8686604051610998929190611723565b60405180910390a460408051602081019091526000905250505050565b6003546001600160a01b0316331461057c5760405162461bcd60e51b815260206004820181905260248201527f4f776e61626c653a2063616c6c6572206973206e6f7420746865206f776e65726044820152606401610296565b600380546001600160a01b038381166001600160a01b0319831681179093556040519116919082907f8be0079c531659141344cd1fd0a4f28419497f9722a3daafe3b4186f6b6457e090600090a35050565b816001600160a01b0316836001600160a01b031603610ad45760405162461bcd60e51b815260206004820152602960248201527f455243313135353a2073657474696e6720617070726f76616c20737461747573604482015268103337b91039b2b63360b91b6064820152608401610296565b6001600160a01b03838116600081815260016020908152604080832094871680845294825291829020805460ff191686151590811790915591519182527f17307eab39ab6107e8899845ad3d59bd9653f200f220920489ca2b5937696c31910160405180910390a3505050565b6001600160a01b038416610b675760405162461bcd60e51b815260040161029690611681565b336000610b7385610ecf565b90506000610b8085610ecf565b90506000868152602081815260408083206001600160a01b038c16845290915290205485811015610bc35760405162461bcd60e51b8152600401610296906116c6565b6000878152602081815260408083206001600160a01b038d8116855292528083208985039055908a16825281208054889290610c00908490611710565b909155505060408051888152602081018890526001600160a01b03808b16928c821692918816917fc3d58168c5ae7397731d063d5bbf3d657854427343f4c083240f7aacaa2d0f62910160405180910390a4610c60848a8a8a8a8a610f1a565b505050505050505050565b6001600160a01b038316610c915760405162461bcd60e51b815260040161029690611751565b336000610c9d84610ecf565b90506000610caa84610ecf565b60408051602080820183526000918290528882528181528282206001600160a01b038b1683529052205490915084811015610cf75760405162461bcd60e51b815260040161029690611794565b6000868152602081815260408083206001600160a01b038b81168086529184528285208a8703905582518b81529384018a90529092908816917fc3d58168c5ae7397731d063d5bbf3d657854427343f4c083240f7aacaa2d0f62910160405180910390a46040805160208101909152600090525b50505050505050565b6001600160a01b0384163b156108225760405163bc197c8160e01b81526001600160a01b0385169063bc197c8190610db890899089908890889088906004016117d8565b6020604051808303816000875af1925050508015610df3575060408051601f3d908101601f19168201909252610df091810190611836565b60015b610e9f57610dff611853565b806308c379a003610e385750610e1361186f565b80610e1e5750610e3a565b8060405162461bcd60e51b815260040161029691906110b4565b505b60405162461bcd60e51b815260206004820152603460248201527f455243313135353a207472616e7366657220746f206e6f6e2d455243313135356044820152732932b1b2b4bb32b91034b6b83632b6b2b73a32b960611b6064820152608401610296565b6001600160e01b0319811663bc197c8160e01b14610d6b5760405162461bcd60e51b8152600401610296906118f9565b60408051600180825281830190925260609160009190602080830190803683370190505090508281600081518110610f0957610f096115f4565b602090810291909101015292915050565b6001600160a01b0384163b156108225760405163f23a6e6160e01b81526001600160a01b0385169063f23a6e6190610f5e9089908990889088908890600401611941565b6020604051808303816000875af1925050508015610f99575060408051601f3d908101601f19168201909252610f9691810190611836565b60015b610fa557610dff611853565b6001600160e01b0319811663f23a6e6160e01b14610d6b5760405162461bcd60e51b8152600401610296906118f9565b80356001600160a01b0381168114610fec57600080fd5b919050565b6000806040838503121561100457600080fd5b61100d83610fd5565b946020939093013593505050565b6001600160e01b03198116811461064857600080fd5b60006020828403121561104357600080fd5b813561104e8161101b565b9392505050565b60006020828403121561106757600080fd5b5035919050565b6000815180845260005b8181101561109457602081850181015186830182015201611078565b506000602082860101526020601f19601f83011685010191505092915050565b60208152600061104e602083018461106e565b634e487b7160e01b600052604160045260246000fd5b601f8201601f1916810167ffffffffffffffff81118282101715611103576111036110c7565b6040525050565b600067ffffffffffffffff821115611124576111246110c7565b5060051b60200190565b600082601f83011261113f57600080fd5b8135602061114c8261110a565b60405161115982826110dd565b83815260059390931b850182019282810191508684111561117957600080fd5b8286015b84811015611194578035835291830191830161117d565b509695505050505050565b600082601f8301126111b057600080fd5b813567ffffffffffffffff8111156111ca576111ca6110c7565b6040516111e1601f8301601f1916602001826110dd565b8181528460208386010111156111f657600080fd5b816020850160208301376000918101602001919091529392505050565b600080600080600060a0868803121561122b57600080fd5b61123486610fd5565b945061124260208701610fd5565b9350604086013567ffffffffffffffff8082111561125f57600080fd5b61126b89838a0161112e565b9450606088013591508082111561128157600080fd5b61128d89838a0161112e565b935060808801359150808211156112a357600080fd5b506112b08882890161119f565b9150509295509295909350565b600080604083850312156112d057600080fd5b823567ffffffffffffffff808211156112e857600080fd5b818501915085601f8301126112fc57600080fd5b813560206113098261110a565b60405161131682826110dd565b83815260059390931b850182019282810191508984111561133657600080fd5b948201945b8386101561135b5761134c86610fd5565b8252948201949082019061133b565b9650508601359250508082111561137157600080fd5b5061137e8582860161112e565b9150509250929050565b600081518084526020808501945080840160005b838110156113b85781518752958201959082019060010161139c565b509495945050505050565b60208152600061104e6020830184611388565b6000806000606084860312156113eb57600080fd5b6113f484610fd5565b9250602084013567ffffffffffffffff8082111561141157600080fd5b61141d8783880161112e565b9350604086013591508082111561143357600080fd5b506114408682870161112e565b9150509250925092565b6000806040838503121561145d57600080fd5b61146683610fd5565b91506020830135801515811461147b57600080fd5b809150509250929050565b6000806040838503121561149957600080fd5b6114a283610fd5565b91506114b060208401610fd5565b90509250929050565b600080600080600060a086880312156114d157600080fd5b6114da86610fd5565b94506114e860208701610fd5565b93506040860135925060608601359150608086013567ffffffffffffffff81111561151257600080fd5b6112b08882890161119f565b60006020828403121561153057600080fd5b61104e82610fd5565b60008060006060848603121561154e57600080fd5b61155784610fd5565b95602085013595506040909401359392505050565b600181811c9082168061158057607f821691505b6020821081036115a057634e487b7160e01b600052602260045260246000fd5b50919050565b6020808252602e908201527f455243313135353a2063616c6c6572206973206e6f7420746f6b656e206f776e60408201526d195c881bdc88185c1c1c9bdd995960921b606082015260800190565b634e487b7160e01b600052603260045260246000fd5b634e487b7160e01b600052601160045260246000fd5b6000600182016116325761163261160a565b5060010190565b60208082526028908201527f455243313135353a2069647320616e6420616d6f756e7473206c656e677468206040820152670dad2e6dac2e8c6d60c31b606082015260800190565b60208082526025908201527f455243313135353a207472616e7366657220746f20746865207a65726f206164604082015264647265737360d81b606082015260800190565b6020808252602a908201527f455243313135353a20696e73756666696369656e742062616c616e636520666f60408201526939103a3930b739b332b960b11b606082015260800190565b808201808211156102c2576102c261160a565b6040815260006117366040830185611388565b82810360208401526117488185611388565b95945050505050565b60208082526023908201527f455243313135353a206275726e2066726f6d20746865207a65726f206164647260408201526265737360e81b606082015260800190565b60208082526024908201527f455243313135353a206275726e20616d6f756e7420657863656564732062616c604082015263616e636560e01b606082015260800190565b6001600160a01b0386811682528516602082015260a06040820181905260009061180490830186611388565b82810360608401526118168186611388565b9050828103608084015261182a818561106e565b98975050505050505050565b60006020828403121561184857600080fd5b815161104e8161101b565b600060033d111561186c5760046000803e5060005160e01c5b90565b600060443d101561187d5790565b6040516003193d81016004833e81513d67ffffffffffffffff81602484011181841117156118ad57505050505090565b82850191508151818111156118c55750505050505090565b843d87010160208285010111156118df5750505050505090565b6118ee602082860101876110dd565b509095945050505050565b60208082526028908201527f455243313135353a204552433131353552656365697665722072656a656374656040820152676420746f6b656e7360c01b606082015260800190565b6001600160a01b03868116825285166020820152604081018490526060810183905260a06080820181905260009061197b9083018461106e565b97965050505050505056fea26469706673582212204c29c9ac45bf9f26909a9d40531b04bfe5e3ef513df4d29a6c55be1c005fb64e64736f6c63430008130033",
  "linkReferences": {},
  "deployedLinkReferences": {}
}