{
  "_format": "hh-sol-artifact-1",
  "contractName": "DappCinemas",
  "sourceName": "contracts/DappCinemas.sol",
  "abi": [
    {
      "inputs": [],
      "stateMutability": "nonpayable",
      "type": "constructor"
    },
    {
      "anonymous": false,
      "inputs": [
        {
          "indexed": false,
          "internalType": "string",
          "name": "actionType",
          "type": "string"
        }
      ],
      "name": "Action",
      "type": "event"
    },
    {
      "anonymous": false,
      "inputs": [
        {
          "indexed": true,
          "internalType": "address",
          "name": "account",
          "type": "address"
        },
        {
          "indexed": true,
          "internalType": "address",
          "name": "operator",
          "type": "address"
        },
        {
          "indexed": false,
          "internalType": "bool",
          "name": "approved",
          "type": "bool"
        }
      ],
      "name": "ApprovalForAll",
      "type": "event"
    },
    {
      "anonymous": false,
      "inputs": [
        {
          "indexed": true,
          "internalType": "address",
          "name": "previousOwner",
          "type": "address"
        },
        {
          "indexed": true,
          "internalType": "address",
          "name": "newOwner",
          "type": "address"
        }
      ],
      "name": "OwnershipTransferred",
      "type": "event"
    },
    {
      "anonymous": false,
      "inputs": [
        {
          "indexed": true,
          "internalType": "address",
          "name": "operator",
          "type": "address"
        },
        {
          "indexed": true,
          "internalType": "address",
          "name": "from",
          "type": "address"
        },
        {
          "indexed": true,
          "internalType": "address",
          "name": "to",
          "type": "address"
        },
        {
          "indexed": false,
          "internalType": "uint256[]",
          "name": "ids",
          "type": "uint256[]"
        },
        {
          "indexed": false,
          "internalType": "uint256[]",
          "name": "values",
          "type": "uint256[]"
        }
      ],
      "name": "TransferBatch",
      "type": "event"
    },
    {
      "anonymous": false,
      "inputs": [
        {
          "indexed": true,
          "internalType": "address",
          "name": "operator",
          "type": "address"
        },
        {
          "indexed": true,
          "internalType": "address",
          "name": "from",
          "type": "address"
        },
        {
          "indexed": true,
          "internalType": "address",
          "name": "to",
          "type": "address"
        },
        {
          "indexed": false,
          "internalType": "uint256",
          "name": "id",
          "type": "uint256"
        },
        {
          "indexed": false,
          "internalType": "uint256",
          "name": "value",
          "type": "uint256"
        }
      ],
      "name": "TransferSingle",
      "type": "event"
    },
    {
      "anonymous": false,
      "inputs": [
        {
          "indexed": false,
          "internalType": "string",
          "name": "value",
          "type": "string"
        },
        {
          "indexed": true,
          "internalType": "uint256",
          "name": "id",
          "type": "uint256"
        }
      ],
      "name": "URI",
      "type": "event"
    },
    {
      "inputs": [
        {
          "internalType": "string",
          "name": "name",
          "type": "string"
        },
        {
          "internalType": "string",
          "name": "imageUrl",
          "type": "string"
        },
        {
          "internalType": "string",
          "name": "videoUrl",
          "type": "string"
        },
        {
          "internalType": "string",
          "name": "banner",
          "type": "string"
        },
        {
          "internalType": "string",
          "name": "genre",
          "type": "string"
        },
        {
          "internalType": "string",
          "name": "casts",
          "type": "string"
        },
        {
          "internalType": "string",
          "name": "caption",
          "type": "string"
        },
        {
          "internalType": "string",
          "name": "description",
          "type": "string"
        },
        {
          "internalType": "uint256",
          "name": "running",
          "type": "uint256"
        },
        {
          "internalType": "uint256",
          "name": "released",
          "type": "uint256"
        }
      ],
      "name": "addMovie",
      "outputs": [],
      "stateMutability": "nonpayable",
      "type": "function"
    },
    {
      "inputs": [
        {
          "internalType": "uint256",
          "name": "movieId",
          "type": "uint256"
        },
        {
          "internalType": "uint256[]",
          "name": "ticketCosts",
          "type": "uint256[]"
        },
        {
          "internalType": "uint256[]",
          "name": "startTimes",
          "type": "uint256[]"
        },
        {
          "internalType": "uint256[]",
          "name": "endTimes",
          "type": "uint256[]"
        },
        {
          "internalType": "uint256[]",
          "name": "capacities",
          "type": "uint256[]"
        },
        {
          "internalType": "uint256[]",
          "name": "viewingDays",
          "type": "uint256[]"
        }
      ],
      "name": "addTimeslot",
      "outputs": [],
      "stateMutability": "nonpayable",
      "type": "function"
    },
    {
      "inputs": [],
      "name": "balance",
      "outputs": [
        {
          "internalType": "uint256",
          "name": "",
          "type": "uint256"
        }
      ],
      "stateMutability": "view",
      "type": "function"
    },
    {
      "inputs": [
        {
          "internalType": "address",
          "name": "account",
          "type": "address"
        },
        {
          "internalType": "uint256",
          "name": "id",
          "type": "uint256"
        }
      ],
      "name": "balanceOf",
      "outputs": [
        {
          "internalType": "uint256",
          "name": "",
          "type": "uint256"
        }
      ],
      "stateMutability": "view",
      "type": "function"
    },
    {
      "inputs": [
        {
          "internalType": "address[]",
          "name": "accounts",
          "type": "address[]"
        },
        {
          "internalType": "uint256[]",
          "name": "ids",
          "type": "uint256[]"
        }
      ],
      "name": "balanceOfBatch",
      "outputs": [
        {
          "internalType": "uint256[]",
          "name": "",
          "type": "uint256[]"
        }
      ],
      "stateMutability": "view",
      "type": "function"
    },
    {
      "inputs": [
        {
          "internalType": "address",
          "name": "account",
          "type": "address"
        },
        {
          "internalType": "uint256",
          "name": "id",
          "type": "uint256"
        },
        {
          "internalType": "uint256",
          "name": "value",
          "type": "uint256"
        }
      ],
      "name": "burn",
      "outputs": [],
      "stateMutability": "nonpayable",
      "type": "function"
    },
    {
      "inputs": [
        {
          "internalType": "address",
          "name": "account",
          "type": "address"
        },
        {
          "internalType": "uint256[]",
          "name": "ids",
          "type": "uint256[]"
        },
        {
          "internalType": "uint256[]",
          "name": "values",
          "type": "uint256[]"
        }
      ],
      "name": "burnBatch",
      "outputs": [],
      "stateMutability": "nonpayable",
      "type": "function"
    },
    {
      "inputs": [
        {
          "internalType": "uint256",
          "name": "movieId",
          "type": "uint256"
        },
        {
          "internalType": "uint256",
          "name": "slotId",
          "type": "uint256"
        },
        {
          "internalType": "uint256",
          "name": "tickets",
          "type": "uint256"
        }
      ],
      "name": "buyTicket",
      "outputs": [],
      "stateMutability": "payable",
      "type": "function"
    },
    {
      "inputs": [
        {
          "internalType": "uint256",
          "name": "movieId",
          "type": "uint256"
        }
      ],
      "name": "deleteMovie",
      "outputs": [],
      "stateMutability": "nonpayable",
      "type": "function"
    },
    {
      "inputs": [
        {
          "internalType": "uint256",
          "name": "movieId",
          "type": "uint256"
        },
        {
          "internalType": "uint256",
          "name": "slotId",
          "type": "uint256"
        }
      ],
      "name": "deleteTimeSlot",
      "outputs": [],
      "stateMutability": "nonpayable",
      "type": "function"
    },
    {
      "inputs": [
        {
          "internalType": "uint256",
          "name": "movieId",
          "type": "uint256"
        }
      ],
      "name": "getMovie",
      "outputs": [
        {
          "components": [
            {
              "internalType": "uint256",
              "name": "id",
              "type": "uint256"
            },
            {
              "internalType": "string",
              "name": "name",
              "type": "string"
            },
            {
              "internalType": "string",
              "name": "banner",
              "type": "string"
            },
            {
              "internalType": "string",
              "name": "imageUrl",
              "type": "string"
            },
            {
              "internalType": "string",
              "name": "videoUrl",
              "type": "string"
            },
            {
              "internalType": "string",
              "name": "genre",
              "type": "string"
            },
            {
              "internalType": "string",
              "name": "description",
              "type": "string"
            },
            {
              "internalType": "string",
              "name": "caption",
              "type": "string"
            },
            {
              "internalType": "string",
              "name": "casts",
              "type": "string"
            },
            {
              "internalType": "uint256",
              "name": "running",
              "type": "uint256"
            },
            {
              "internalType": "uint256",
              "name": "released",
              "type": "uint256"
            },
            {
              "internalType": "uint256",
              "name": "timestamp",
              "type": "uint256"
            },
            {
              "internalType": "bool",
              "name": "deleted",
              "type": "bool"
            }
          ],
          "internalType": "struct DappCinemas.MovieStruct",
          "name": "",
          "type": "tuple"
        }
      ],
      "stateMutability": "view",
      "type": "function"
    },
    {
      "inputs": [
        {
          "internalType": "uint256",
          "name": "movieId",
          "type": "uint256"
        },
        {
          "internalType": "uint256",
          "name": "slotId",
          "type": "uint256"
        }
      ],
      "name": "getMovieTicketHolders",
      "outputs": [
        {
          "internalType": "address[]",
          "name": "",
          "type": "address[]"
        }
      ],
      "stateMutability": "view",
      "type": "function"
    },
    {
      "inputs": [],
      "name": "getMovies",
      "outputs": [
        {
          "components": [
            {
              "internalType": "uint256",
              "name": "id",
              "type": "uint256"
            },
            {
              "internalType": "string",
              "name": "name",
              "type": "string"
            },
            {
              "internalType": "string",
              "name": "banner",
              "type": "string"
            },
            {
              "internalType": "string",
              "name": "imageUrl",
              "type": "string"
            },
            {
              "internalType": "string",
              "name": "videoUrl",
              "type": "string"
            },
            {
              "internalType": "string",
              "name": "genre",
              "type": "string"
            },
            {
              "internalType": "string",
              "name": "description",
              "type": "string"
            },
            {
              "internalType": "string",
              "name": "caption",
              "type": "string"
            },
            {
              "internalType": "string",
              "name": "casts",
              "type": "string"
            },
            {
              "internalType": "uint256",
              "name": "running",
              "type": "uint256"
            },
            {
              "internalType": "uint256",
              "name": "released",
              "type": "uint256"
            },
            {
              "internalType": "uint256",
              "name": "timestamp",
              "type": "uint256"
            },
            {
              "internalType": "bool",
              "name": "deleted",
              "type": "bool"
            }
          ],
          "internalType": "struct DappCinemas.MovieStruct[]",
          "name": "Movies",
          "type": "tuple[]"
        }
      ],
      "stateMutability": "view",
      "type": "function"
    },
    {
      "inputs": [
        {
          "internalType": "uint256",
          "name": "slotId",
          "type": "uint256"
        }
      ],
      "name": "getTimeSlot",
      "outputs": [
        {
          "components": [
            {
              "internalType": "uint256",
              "name": "id",
              "type": "uint256"
            },
            {
              "internalType": "uint256",
              "name": "movieId",
              "type": "uint256"
            },
            {
              "internalType": "uint256",
              "name": "ticketCost",
              "type": "uint256"
            },
            {
              "internalType": "uint256",
              "name": "startTime",
              "type": "uint256"
            },
            {
              "internalType": "uint256",
              "name": "endTime",
              "type": "uint256"
            },
            {
              "internalType": "uint256",
              "name": "capacity",
              "type": "uint256"
            },
            {
              "internalType": "uint256",
              "name": "seats",
              "type": "uint256"
            },
            {
              "internalType": "bool",
              "name": "deleted",
              "type": "bool"
            },
            {
              "internalType": "bool",
              "name": "completed",
              "type": "bool"
            },
            {
              "internalType": "uint256",
              "name": "day",
              "type": "uint256"
            },
            {
              "internalType": "uint256",
              "name": "balance",
              "type": "uint256"
            }
          ],
          "internalType": "struct DappCinemas.TimeSlotStruct",
          "name": "",
          "type": "tuple"
        }
      ],
      "stateMutability": "view",
      "type": "function"
    },
    {
      "inputs": [
        {
          "internalType": "uint256",
          "name": "movieId",
          "type": "uint256"
        }
      ],
      "name": "getTimeSlots",
      "outputs": [
        {
          "components": [
            {
              "internalType": "uint256",
              "name": "id",
              "type": "uint256"
            },
            {
              "internalType": "uint256",
              "name": "movieId",
              "type": "uint256"
            },
            {
              "internalType": "uint256",
              "name": "ticketCost",
              "type": "uint256"
            },
            {
              "internalType": "uint256",
              "name": "startTime",
              "type": "uint256"
            },
            {
              "internalType": "uint256",
              "name": "endTime",
              "type": "uint256"
            },
            {
              "internalType": "uint256",
              "name": "capacity",
              "type": "uint256"
            },
            {
              "internalType": "uint256",
              "name": "seats",
              "type": "uint256"
            },
            {
              "internalType": "bool",
              "name": "deleted",
              "type": "bool"
            },
            {
              "internalType": "bool",
              "name": "completed",
              "type": "bool"
            },
            {
              "internalType": "uint256",
              "name": "day",
              "type": "uint256"
            },
            {
              "internalType": "uint256",
              "name": "balance",
              "type": "uint256"
            }
          ],
          "internalType": "struct DappCinemas.TimeSlotStruct[]",
          "name": "MovieSlots",
          "type": "tuple[]"
        }
      ],
      "stateMutability": "view",
      "type": "function"
    },
    {
      "inputs": [
        {
          "internalType": "uint256",
          "name": "day",
          "type": "uint256"
        }
      ],
      "name": "getTimeSlotsByDay",
      "outputs": [
        {
          "components": [
            {
              "internalType": "uint256",
              "name": "id",
              "type": "uint256"
            },
            {
              "internalType": "uint256",
              "name": "movieId",
              "type": "uint256"
            },
            {
              "internalType": "uint256",
              "name": "ticketCost",
              "type": "uint256"
            },
            {
              "internalType": "uint256",
              "name": "startTime",
              "type": "uint256"
            },
            {
              "internalType": "uint256",
              "name": "endTime",
              "type": "uint256"
            },
            {
              "internalType": "uint256",
              "name": "capacity",
              "type": "uint256"
            },
            {
              "internalType": "uint256",
              "name": "seats",
              "type": "uint256"
            },
            {
              "internalType": "bool",
              "name": "deleted",
              "type": "bool"
            },
            {
              "internalType": "bool",
              "name": "completed",
              "type": "bool"
            },
            {
              "internalType": "uint256",
              "name": "day",
              "type": "uint256"
            },
            {
              "internalType": "uint256",
              "name": "balance",
              "type": "uint256"
            }
          ],
          "internalType": "struct DappCinemas.TimeSlotStruct[]",
          "name": "MovieSlots",
          "type": "tuple[]"
        }
      ],
      "stateMutability": "view",
      "type": "function"
    },
    {
      "inputs": [
        {
          "internalType": "address",
          "name": "account",
          "type": "address"
        },
        {
          "internalType": "address",
          "name": "operator",
          "type": "address"
        }
      ],
      "name": "isApprovedForAll",
      "outputs": [
        {
          "internalType": "bool",
          "name": "",
          "type": "bool"
        }
      ],
      "stateMutability": "view",
      "type": "function"
    },
    {
      "inputs": [
        {
          "internalType": "uint256",
          "name": "movieId",
          "type": "uint256"
        },
        {
          "internalType": "uint256",
          "name": "slotId",
          "type": "uint256"
        }
      ],
      "name": "markTimeSlot",
      "outputs": [],
      "stateMutability": "nonpayable",
      "type": "function"
    },
    {
      "inputs": [],
      "name": "owner",
      "outputs": [
        {
          "internalType": "address",
          "name": "",
          "type": "address"
        }
      ],
      "stateMutability": "view",
      "type": "function"
    },
    {
      "inputs": [],
      "name": "renounceOwnership",
      "outputs": [],
      "stateMutability": "nonpayable",
      "type": "function"
    },
    {
      "inputs": [
        {
          "internalType": "address",
          "name": "from",
          "type": "address"
        },
        {
          "internalType": "address",
          "name": "to",
          "type": "address"
        },
        {
          "internalType": "uint256[]",
          "name": "ids",
          "type": "uint256[]"
        },
        {
          "internalType": "uint256[]",
          "name": "amounts",
          "type": "uint256[]"
        },
        {
          "internalType": "bytes",
          "name": "data",
          "type": "bytes"
        }
      ],
      "name": "safeBatchTransferFrom",
      "outputs": [],
      "stateMutability": "nonpayable",
      "type": "function"
    },
    {
      "inputs": [
        {
          "internalType": "address",
          "name": "from",
          "type": "address"
        },
        {
          "internalType": "address",
          "name": "to",
          "type": "address"
        },
        {
          "internalType": "uint256",
          "name": "id",
          "type": "uint256"
        },
        {
          "internalType": "uint256",
          "name": "amount",
          "type": "uint256"
        },
        {
          "internalType": "bytes",
          "name": "data",
          "type": "bytes"
        }
      ],
      "name": "safeTransferFrom",
      "outputs": [],
      "stateMutability": "nonpayable",
      "type": "function"
    },
    {
      "inputs": [
        {
          "internalType": "address",
          "name": "operator",
          "type": "address"
        },
        {
          "internalType": "bool",
          "name": "approved",
          "type": "bool"
        }
      ],
      "name": "setApprovalForAll",
      "outputs": [],
      "stateMutability": "nonpayable",
      "type": "function"
    },
    {
      "inputs": [
        {
          "internalType": "uint256",
          "name": "tokenId",
          "type": "uint256"
        },
        {
          "internalType": "string",
          "name": "_tokenURI",
          "type": "string"
        }
      ],
      "name": "setTokenURI",
      "outputs": [],
      "stateMutability": "nonpayable",
      "type": "function"
    },
    {
      "inputs": [
        {
          "internalType": "bytes4",
          "name": "interfaceId",
          "type": "bytes4"
        }
      ],
      "name": "supportsInterface",
      "outputs": [
        {
          "internalType": "bool",
          "name": "",
          "type": "bool"
        }
      ],
      "stateMutability": "view",
      "type": "function"
    },
    {
      "inputs": [
        {
          "internalType": "uint256",
          "name": "",
          "type": "uint256"
        }
      ],
      "name": "ticketBuild",
      "outputs": [
        {
          "internalType": "string",
          "name": "name",
          "type": "string"
        },
        {
          "internalType": "string",
          "name": "description",
          "type": "string"
        },
        {
          "internalType": "string",
          "name": "bgHue",
          "type": "string"
        },
        {
          "internalType": "string",
          "name": "textHue",
          "type": "string"
        },
        {
          "internalType": "string",
          "name": "value",
          "type": "string"
        },
        {
          "components": [
            {
              "internalType": "uint256",
              "name": "id",
              "type": "uint256"
            },
            {
              "internalType": "uint256",
              "name": "movieId",
              "type": "uint256"
            },
            {
              "internalType": "uint256",
              "name": "slotId",
              "type": "uint256"
            },
            {
              "internalType": "address",
              "name": "owner",
              "type": "address"
            },
            {
              "internalType": "uint256",
              "name": "cost",
              "type": "uint256"
            },
            {
              "internalType": "uint256",
              "name": "timestamp",
              "type": "uint256"
            },
            {
              "internalType": "uint256",
              "name": "day",
              "type": "uint256"
            },
            {
              "internalType": "bool",
              "name": "used",
              "type": "bool"
            },
            {
              "internalType": "bool",
              "name": "refunded",
              "type": "bool"
            }
          ],
          "internalType": "struct DappCinemas.TicketStruct",
          "name": "ticket",
          "type": "tuple"
        }
      ],
      "stateMutability": "view",
      "type": "function"
    },
    {
      "inputs": [
        {
          "internalType": "address",
          "name": "newOwner",
          "type": "address"
        }
      ],
      "name": "transferOwnership",
      "outputs": [],
      "stateMutability": "nonpayable",
      "type": "function"
    },
    {
      "inputs": [
        {
          "internalType": "uint256",
          "name": "movieId",
          "type": "uint256"
        },
        {
          "internalType": "string",
          "name": "name",
          "type": "string"
        },
        {
          "internalType": "string",
          "name": "imageUrl",
          "type": "string"
        },
        {
          "internalType": "string",
          "name": "videoUrl",
          "type": "string"
        },
        {
          "internalType": "string",
          "name": "banner",
          "type": "string"
        },
        {
          "internalType": "string",
          "name": "genre",
          "type": "string"
        },
        {
          "internalType": "string",
          "name": "casts",
          "type": "string"
        },
        {
          "internalType": "string",
          "name": "caption",
          "type": "string"
        },
        {
          "internalType": "string",
          "name": "description",
          "type": "string"
        },
        {
          "internalType": "uint256",
          "name": "running",
          "type": "uint256"
        },
        {
          "internalType": "uint256",
          "name": "released",
          "type": "uint256"
        }
      ],
      "name": "updateMovie",
      "outputs": [],
      "stateMutability": "nonpayable",
      "type": "function"
    },
    {
      "inputs": [
        {
          "internalType": "uint256",
          "name": "tokenId",
          "type": "uint256"
        }
      ],
      "name": "uri",
      "outputs": [
        {
          "internalType": "string",
          "name": "",
          "type": "string"
        }
      ],
      "stateMutability": "view",
      "type": "function"
    },
    {
      "inputs": [
        {
          "internalType": "uint256",
          "name": "movieId",
          "type": "uint256"
        },
        {
          "internalType": "uint256",
          "name": "slotId",
          "type": "uint256"
        },
        {
          "internalType": "uint256[]",
          "name": "ticketIds",
          "type": "uint256[]"
        }
      ],
      "name": "useTicket",
      "outputs": [],
      "stateMutability": "nonpayable",
      "type": "function"
    },
    {
      "inputs": [
        {
          "internalType": "address",
          "name": "to",
          "type": "address"
        },
        {
          "internalType": "uint256",
          "name": "amount",
          "type": "uint256"
        }
      ],
      "name": "withdrawTo",
      "outputs": [],
      "stateMutability": "nonpayable",
      "type": "function"
    }
  ],
  "bytecode": "0x60806040523480156200001157600080fd5b506040805160208101909152600081526200002c816200003e565b50620000383362000050565b62000213565b60026200004c828262000147565b5050565b600380546001600160a01b038381166001600160a01b0319831681179093556040519116919082907f8be0079c531659141344cd1fd0a4f28419497f9722a3daafe3b4186f6b6457e090600090a35050565b634e487b7160e01b600052604160045260246000fd5b600181811c90821680620000cd57607f821691505b602082108103620000ee57634e487b7160e01b600052602260045260246000fd5b50919050565b601f8211156200014257600081815260208120601f850160051c810160208610156200011d5750805b601f850160051c820191505b818110156200013e5782815560010162000129565b5050505b505050565b81516001600160401b03811115620001635762000163620000a2565b6200017b81620001748454620000b8565b84620000f4565b602080601f831160018114620001b357600084156200019a5750858301515b600019600386901b1c1916600185901b1785556200013e565b600085815260208120601f198616915b82811015620001e457888601518255948401946001909101908401620001c3565b5085821015620002035787850151600019600388901b60f8161c191681555b5050505050600190811b01905550565b6163ae80620002236000396000f3fe6080604052600436106101d75760003560e01c80636b4f6cb711610102578063af875f3511610095578063e985e9c511610064578063e985e9c5146105a9578063f242432a146105f2578063f2fde38b14610612578063f5298aca1461063257600080fd5b8063af875f3514610533578063b69ef8a814610560578063c4c6710d14610576578063d6cbac901461058957600080fd5b80637c7b0016116100d15780637c7b00161461049e5780637cd35a0a146104be5780638da5cb5b146104eb578063a22cb4651461051357600080fd5b80636b4f6cb714610429578063715018a61461044957806374a6d6671461045e57806377340bba1461047e57600080fd5b80632c53b4061161017a57806345e9a8fc1161014957806345e9a8fc1461039c5780634e1273f4146103bc57806358a9525b146103e95780636b20c4541461040957600080fd5b80632c53b406146103085780632eb2c2d61461032a5780633632d2ee1461034a57806340b882cf1461036a57600080fd5b8063162094c4116101b6578063162094c41461026c578063179ffe761461028e578063205c2878146102bb5780632b85dcc9146102db57600080fd5b8062fdd58e146101dc57806301ffc9a71461020f5780630e89341c1461023f575b600080fd5b3480156101e857600080fd5b506101fc6101f7366004614cce565b610652565b6040519081526020015b60405180910390f35b34801561021b57600080fd5b5061022f61022a366004614d0e565b6106eb565b6040519015158152602001610206565b34801561024b57600080fd5b5061025f61025a366004614d2b565b61073b565b6040516102069190614d94565b34801561027857600080fd5b5061028c610287366004614e5c565b610746565b005b34801561029a57600080fd5b506102ae6102a9366004614d2b565b61076b565b6040516102069190614fb4565b3480156102c757600080fd5b5061028c6102d6366004614cce565b610c60565b3480156102e757600080fd5b506102fb6102f6366004614d2b565b610cd4565b604051610206919061503f565b34801561031457600080fd5b5061031d610d75565b604051610206919061504e565b34801561033657600080fd5b5061028c610345366004615144565b611362565b34801561035657600080fd5b5061028c6103653660046151ed565b6113ae565b34801561037657600080fd5b5061038a610385366004614d2b565b611872565b60405161020696959493929190615356565b3480156103a857600080fd5b5061028c6103b736600461543d565b611bc3565b3480156103c857600080fd5b506103dc6103d736600461545f565b611cc2565b604051610206919061555a565b3480156103f557600080fd5b5061028c61040436600461543d565b611deb565b34801561041557600080fd5b5061028c61042436600461556d565b611fa0565b34801561043557600080fd5b5061028c610444366004614d2b565b611fe3565b34801561045557600080fd5b5061028c612073565b34801561046a57600080fd5b5061028c6104793660046155e0565b612087565b34801561048a57600080fd5b5061028c610499366004615734565b612570565b3480156104aa57600080fd5b5061028c6104b936600461580d565b61296c565b3480156104ca57600080fd5b506104de6104d9366004614d2b565b612ae8565b6040516102069190615852565b3480156104f757600080fd5b506003546040516001600160a01b039091168152602001610206565b34801561051f57600080fd5b5061028c61052e3660046158a1565b612d0f565b34801561053f57600080fd5b5061055361054e36600461543d565b612d1a565b60405161020691906158dd565b34801561056c57600080fd5b506101fc60075481565b61028c61058436600461591e565b612d8f565b34801561059557600080fd5b506104de6105a4366004614d2b565b6130aa565b3480156105b557600080fd5b5061022f6105c436600461594a565b6001600160a01b03918216600090815260016020908152604080832093909416825291909152205460ff1690565b3480156105fe57600080fd5b5061028c61060d36600461597d565b61328f565b34801561061e57600080fd5b5061028c61062d3660046159e1565b6132d4565b34801561063e57600080fd5b5061028c61064d3660046159fc565b61334d565b60006001600160a01b0383166106c25760405162461bcd60e51b815260206004820152602a60248201527f455243313135353a2061646472657373207a65726f206973206e6f742061207660448201526930b634b21037bbb732b960b11b60648201526084015b60405180910390fd5b506000818152602081815260408083206001600160a01b03861684529091529020545b92915050565b60006001600160e01b03198216636cdb3d1360e11b148061071c57506001600160e01b031982166303a24d0760e21b145b806106e557506301ffc9a760e01b6001600160e01b03198316146106e5565b60606106e582613390565b61074e613772565b6000828152600c602052604090206107668282615aaf565b505050565b610773614bea565b60096000838152602001908152602001600020604051806101a0016040529081600082015481526020016001820180546107ac90615a2f565b80601f01602080910402602001604051908101604052809291908181526020018280546107d890615a2f565b80156108255780601f106107fa57610100808354040283529160200191610825565b820191906000526020600020905b81548152906001019060200180831161080857829003601f168201915b5050505050815260200160028201805461083e90615a2f565b80601f016020809104026020016040519081016040528092919081815260200182805461086a90615a2f565b80156108b75780601f1061088c576101008083540402835291602001916108b7565b820191906000526020600020905b81548152906001019060200180831161089a57829003601f168201915b505050505081526020016003820180546108d090615a2f565b80601f01602080910402602001604051908101604052809291908181526020018280546108fc90615a2f565b80156109495780601f1061091e57610100808354040283529160200191610949565b820191906000526020600020905b81548152906001019060200180831161092c57829003601f168201915b5050505050815260200160048201805461096290615a2f565b80601f016020809104026020016040519081016040528092919081815260200182805461098e90615a2f565b80156109db5780601f106109b0576101008083540402835291602001916109db565b820191906000526020600020905b8154815290600101906020018083116109be57829003601f168201915b505050505081526020016005820180546109f490615a2f565b80601f0160208091040260200160405190810160405280929190818152602001828054610a2090615a2f565b8015610a6d5780601f10610a4257610100808354040283529160200191610a6d565b820191906000526020600020905b815481529060010190602001808311610a5057829003601f168201915b50505050508152602001600682018054610a8690615a2f565b80601f0160208091040260200160405190810160405280929190818152602001828054610ab290615a2f565b8015610aff5780601f10610ad457610100808354040283529160200191610aff565b820191906000526020600020905b815481529060010190602001808311610ae257829003601f168201915b50505050508152602001600782018054610b1890615a2f565b80601f0160208091040260200160405190810160405280929190818152602001828054610b4490615a2f565b8015610b915780601f10610b6657610100808354040283529160200191610b91565b820191906000526020600020905b815481529060010190602001808311610b7457829003601f168201915b50505050508152602001600882018054610baa90615a2f565b80601f0160208091040260200160405190810160405280929190818152602001828054610bd690615a2f565b8015610c235780601f10610bf857610100808354040283529160200191610c23565b820191906000526020600020905b815481529060010190602001808311610c0657829003601f168201915b505050918352505060098201546020820152600a8201546040820152600b8201546060820152600c9091015460ff16151560809091015292915050565b610c68613772565b806007541015610cae5760405162461bcd60e51b8152602060048201526011602482015270125b9cdd59999a58da595b9d08199d5b99607a1b60448201526064016106b9565b8060076000828254610cc09190615b84565b90915550610cd0905082826137cc565b5050565b610cdc614c54565b506000908152600a6020908152604091829020825161016081018452815481526001820154928101929092526002810154928201929092526003820154606082015260048201546080820152600582015460a0820152600682015460c0820152600782015460ff808216151560e08401526101009182900416151590820152600882015461012082015260099091015461014082015290565b6060600060015b6004548111610dbe576000818152600960205260409020600c015460ff16610dac5781610da881615b97565b9250505b80610db681615b97565b915050610d7c565b50806001600160401b03811115610dd757610dd7614da7565b604051908082528060200260200182016040528015610e1057816020015b610dfd614bea565b815260200190600190039081610df55790505b509150600060015b600454811161135c576000818152600960205260409020600c015460ff1661134a5760096000828152602001908152602001600020604051806101a001604052908160008201548152602001600182018054610e7390615a2f565b80601f0160208091040260200160405190810160405280929190818152602001828054610e9f90615a2f565b8015610eec5780601f10610ec157610100808354040283529160200191610eec565b820191906000526020600020905b815481529060010190602001808311610ecf57829003601f168201915b50505050508152602001600282018054610f0590615a2f565b80601f0160208091040260200160405190810160405280929190818152602001828054610f3190615a2f565b8015610f7e5780601f10610f5357610100808354040283529160200191610f7e565b820191906000526020600020905b815481529060010190602001808311610f6157829003601f168201915b50505050508152602001600382018054610f9790615a2f565b80601f0160208091040260200160405190810160405280929190818152602001828054610fc390615a2f565b80156110105780601f10610fe557610100808354040283529160200191611010565b820191906000526020600020905b815481529060010190602001808311610ff357829003601f168201915b5050505050815260200160048201805461102990615a2f565b80601f016020809104026020016040519081016040528092919081815260200182805461105590615a2f565b80156110a25780601f10611077576101008083540402835291602001916110a2565b820191906000526020600020905b81548152906001019060200180831161108557829003601f168201915b505050505081526020016005820180546110bb90615a2f565b80601f01602080910402602001604051908101604052809291908181526020018280546110e790615a2f565b80156111345780601f1061110957610100808354040283529160200191611134565b820191906000526020600020905b81548152906001019060200180831161111757829003601f168201915b5050505050815260200160068201805461114d90615a2f565b80601f016020809104026020016040519081016040528092919081815260200182805461117990615a2f565b80156111c65780601f1061119b576101008083540402835291602001916111c6565b820191906000526020600020905b8154815290600101906020018083116111a957829003601f168201915b505050505081526020016007820180546111df90615a2f565b80601f016020809104026020016040519081016040528092919081815260200182805461120b90615a2f565b80156112585780601f1061122d57610100808354040283529160200191611258565b820191906000526020600020905b81548152906001019060200180831161123b57829003601f168201915b5050505050815260200160088201805461127190615a2f565b80601f016020809104026020016040519081016040528092919081815260200182805461129d90615a2f565b80156112ea5780601f106112bf576101008083540402835291602001916112ea565b820191906000526020600020905b8154815290600101906020018083116112cd57829003601f168201915b505050918352505060098201546020820152600a8201546040820152600b8201546060820152600c9091015460ff161515608090910152848361132c81615b97565b94508151811061133e5761133e615bb0565b60200260200101819052505b8061135481615b97565b915050610e18565b50505090565b6001600160a01b03851633148061137e575061137e85336105c4565b61139a5760405162461bcd60e51b81526004016106b990615bc6565b6113a7858585858561382c565b5050505050565b6113b6613772565b60008b81526008602052604090205460ff1661140b5760405162461bcd60e51b81526020600482015260146024820152734d6f76696520646f65736e27742065786973742160601b60448201526064016106b9565b60008a51116114525760405162461bcd60e51b8152602060048201526013602482015272135bdd9a59481b985b59481c995c5d5a5c9959606a1b60448201526064016106b9565b600089511161149e5760405162461bcd60e51b8152602060048201526018602482015277135bdd9a59481a5b5859d9481d5c9b081c995c5d5a5c995960421b60448201526064016106b9565b60008751116114eb5760405162461bcd60e51b8152602060048201526019602482015278135bdd9a594818985b9b995c881d5c9b081c995c5d5a5c9959603a1b60448201526064016106b9565b60008651116115335760405162461bcd60e51b8152602060048201526014602482015273135bdd9a594819d95b9c99481c995c5d5a5c995960621b60448201526064016106b9565b600085511161157b5760405162461bcd60e51b8152602060048201526014602482015273135bdd9a594818d85cdd1cc81c995c5d5a5c995960621b60448201526064016106b9565b60008451116115c55760405162461bcd60e51b8152602060048201526016602482015275135bdd9a594818d85c1d1a5bdb881c995c5d5a5c995960521b60448201526064016106b9565b60008851116116115760405162461bcd60e51b8152602060048201526018602482015277135bdd9a59481d9a59195bc81d5c9b081c995c5d5a5c995960421b60448201526064016106b9565b600082116116615760405162461bcd60e51b815260206004820152601b60248201527f4d6f7669652072756e6e696e672064617465207265717569726564000000000060448201526064016106b9565b600081116116b15760405162461bcd60e51b815260206004820152601c60248201527f4d6f7669652072656c656173656420646174652072657175697265640000000060448201526064016106b9565b60008351116117025760405162461bcd60e51b815260206004820152601a60248201527f4d6f766965206465736372697074696f6e20726571756972656400000000000060448201526064016106b9565b60008b815260096020526040902060010161171d8b82615aaf565b5060008b81526009602052604090206003016117398a82615aaf565b5060008b81526009602052604090206004016117558982615aaf565b5060008b81526009602052604090206002016117718882615aaf565b5060008b815260096020526040902060050161178d8782615aaf565b5060008b81526009602052604090206008016117a98682615aaf565b5060008b81526009602052604090206007016117c58582615aaf565b5060008b81526009602052604090206006016117e18482615aaf565b5060008b815260096020819052604091829020600a810184905501839055517f8b2c14fe955d044ef95ba32b88d2ceb87c6f73fcefdcebe906063a6d75690f279061185d906020808252601a908201527f4d6f7669652075706461746564207375636365737366756c6c79000000000000604082015260600190565b60405180910390a15050505050505050505050565b600d6020526000908152604090208054819061188d90615a2f565b80601f01602080910402602001604051908101604052809291908181526020018280546118b990615a2f565b80156119065780601f106118db57610100808354040283529160200191611906565b820191906000526020600020905b8154815290600101906020018083116118e957829003601f168201915b50505050509080600101805461191b90615a2f565b80601f016020809104026020016040519081016040528092919081815260200182805461194790615a2f565b80156119945780601f1061196957610100808354040283529160200191611994565b820191906000526020600020905b81548152906001019060200180831161197757829003601f168201915b5050505050908060020180546119a990615a2f565b80601f01602080910402602001604051908101604052809291908181526020018280546119d590615a2f565b8015611a225780601f106119f757610100808354040283529160200191611a22565b820191906000526020600020905b815481529060010190602001808311611a0557829003601f168201915b505050505090806003018054611a3790615a2f565b80601f0160208091040260200160405190810160405280929190818152602001828054611a6390615a2f565b8015611ab05780601f10611a8557610100808354040283529160200191611ab0565b820191906000526020600020905b815481529060010190602001808311611a9357829003601f168201915b505050505090806004018054611ac590615a2f565b80601f0160208091040260200160405190810160405280929190818152602001828054611af190615a2f565b8015611b3e5780601f10611b1357610100808354040283529160200191611b3e565b820191906000526020600020905b815481529060010190602001808311611b2157829003601f168201915b50506040805161012081018252600587015481526006870154602082015260078701549181019190915260088601546001600160a01b0316606082015260098601546080820152600a86015460a0820152600b86015460c0820152600c9095015460ff808216151560e088015261010091829004161515908601525091929150879050565b611bcb613772565b60008281526008602052604090205460ff168015611bf957506000818152600a602052604090206001015482145b611c155760405162461bcd60e51b81526004016106b990615c14565b6000818152600a602052604090206007015460ff1615611c725760405162461bcd60e51b8152602060048201526018602482015277151a5b595cdb1bdd08185b1c9958591e4819195b195d195960421b60448201526064016106b9565b6000818152600a602052604081206007808201805461ff0019166101001790556009909101548154909290611ca8908490615c3d565b90915550506000908152600a602052604081206009015550565b60608151835114611d275760405162461bcd60e51b815260206004820152602960248201527f455243313135353a206163636f756e747320616e6420696473206c656e677468604482015268040dad2e6dac2e8c6d60bb1b60648201526084016106b9565b600083516001600160401b03811115611d4257611d42614da7565b604051908082528060200260200182016040528015611d6b578160200160208202803683370190505b50905060005b8451811015611de357611db6858281518110611d8f57611d8f615bb0565b6020026020010151858381518110611da957611da9615bb0565b6020026020010151610652565b828281518110611dc857611dc8615bb0565b6020908102919091010152611ddc81615b97565b9050611d71565b509392505050565b611df3613772565b60008281526008602052604090205460ff168015611e2157506000818152600a602052604090206001015482145b611e3d5760405162461bcd60e51b81526004016106b990615c14565b6000818152600a602052604090206007015460ff1615611e9a5760405162461bcd60e51b8152602060048201526018602482015277151a5b595cdb1bdd08185b1c9958591e4819195b195d195960421b60448201526064016106b9565b60005b6000838152600b60209081526040808320858452909152902054811015611f30576000838152600b6020908152604080832085845290915290208054611f1e919083908110611eee57611eee615bb0565b6000918252602080832090910154858352600a9091526040909120600201546001600160a01b03909116906137cc565b80611f2881615b97565b915050611e9d565b506000818152600a6020818152604080842060078101805460ff19166001179055868552600b83528185208686528352932054919052600290910154611f769190615c50565b6000828152600a602052604081206009018054909190611f97908490615b84565b90915550505050565b6001600160a01b038316331480611fbc5750611fbc83336105c4565b611fd85760405162461bcd60e51b81526004016106b990615bc6565b6107668383836139c8565b611feb613772565b60008181526008602052604090205460ff166120405760405162461bcd60e51b81526020600482015260146024820152734d6f76696520646f65736e27742065786973742160601b60448201526064016106b9565b6000908152600960209081526040808320600c01805460ff19908116600117909155600890925290912080549091169055565b61207b613772565b6120856000613b52565b565b61208f613772565b60008a51116120d65760405162461bcd60e51b8152602060048201526013602482015272135bdd9a59481b985b59481c995c5d5a5c9959606a1b60448201526064016106b9565b60008951116121225760405162461bcd60e51b8152602060048201526018602482015277135bdd9a59481a5b5859d9481d5c9b081c995c5d5a5c995960421b60448201526064016106b9565b600088511161216e5760405162461bcd60e51b8152602060048201526018602482015277135bdd9a59481d9a59195bc81d5c9b081c995c5d5a5c995960421b60448201526064016106b9565b60008751116121bb5760405162461bcd60e51b8152602060048201526019602482015278135bdd9a594818985b9b995c881d5c9b081c995c5d5a5c9959603a1b60448201526064016106b9565b60008651116122035760405162461bcd60e51b8152602060048201526014602482015273135bdd9a594819d95b9c99481c995c5d5a5c995960621b60448201526064016106b9565b600085511161224b5760405162461bcd60e51b8152602060048201526014602482015273135bdd9a594818d85cdd1cc81c995c5d5a5c995960621b60448201526064016106b9565b60008451116122955760405162461bcd60e51b8152602060048201526016602482015275135bdd9a594818d85c1d1a5bdb881c995c5d5a5c995960521b60448201526064016106b9565b600082116122e55760405162461bcd60e51b815260206004820152601b60248201527f4d6f7669652072756e6e696e672064617465207265717569726564000000000060448201526064016106b9565b600081116123355760405162461bcd60e51b815260206004820152601c60248201527f4d6f7669652072656c656173656420646174652072657175697265640000000060448201526064016106b9565b60008351116123865760405162461bcd60e51b815260206004820152601a60248201527f4d6f766965206465736372697074696f6e20726571756972656400000000000060448201526064016106b9565b612394600480546001019055565b61239c614bea565b6004548152602081018b9052606081018a9052608081018990526040810188905260a08101879052610100810186905260e0810185905260c08101849052610140810182905261012081018390526123f2613ba4565b61016082015280516000908152600960209081526040909120825181559082015182919060018201906124259082615aaf565b506040820151600282019061243a9082615aaf565b506060820151600382019061244f9082615aaf565b50608082015160048201906124649082615aaf565b5060a082015160058201906124799082615aaf565b5060c0820151600682019061248e9082615aaf565b5060e082015160078201906124a39082615aaf565b5061010082015160088201906124b99082615aaf565b506101208201516009820155610140820151600a820155610160820151600b82015561018090910151600c909101805491151560ff199283161790558151600090815260086020526040908190208054909216600117909155517f8b2c14fe955d044ef95ba32b88d2ceb87c6f73fcefdcebe906063a6d75690f279061185d9060208082526018908201527f4d6f766965206164646564207375636365737366756c6c790000000000000000604082015260600190565b612578613772565b60008681526008602052604090205460ff166125a65760405162461bcd60e51b81526004016106b990615c14565b60008551116125f75760405162461bcd60e51b815260206004820152601e60248201527f5469636b65747320636f7374206d757374206e6f7420626520656d707479000060448201526064016106b9565b60008251116126485760405162461bcd60e51b815260206004820152601c60248201527f43617061636974696573206d757374206e6f7420626520656d7074790000000060448201526064016106b9565b60008451116126a45760405162461bcd60e51b815260206004820152602260248201527f53746172742074696d657320636f7374206d757374206e6f7420626520656d70604482015261747960f01b60648201526084016106b9565b60008351116126f55760405162461bcd60e51b815260206004820181905260248201527f456e642074696d657320636f7374206d757374206e6f7420626520656d70747960448201526064016106b9565b60008151116127465760405162461bcd60e51b815260206004820152601e60248201527f56696577696e672064617973206d757374206e6f7420626520656d707479000060448201526064016106b9565b80518551148015612758575081518151145b8015612765575083518251145b8015612772575082518451145b801561277f575080518351145b6127df5760405162461bcd60e51b815260206004820152602b60248201527f416c6c20706172616d6574657273206d757374206861766520657175616c206160448201526a0e4e4c2f240d8cadccee8d60ab1b60648201526084016106b9565b60005b8151811015612963576127f9600680546001019055565b612801614c54565b600654815260208101889052865187908390811061282157612821615bb0565b602002602001015181604001818152505085828151811061284457612844615bb0565b602002602001015181606001818152505084828151811061286757612867615bb0565b602002602001015181608001818152505082828151811061288a5761288a615bb0565b6020026020010151816101200181815250508382815181106128ae576128ae615bb0565b60209081029190910181015160a0830190815282516000908152600a8352604090819020845181559284015160018401558301516002830155606083015160038301556080830151600483015551600582015560c0820151600682015560e08201516007820180546101008086015115150261ff00199315159390931661ffff19909116179190911790556101208201516008820155610140909101516009909101558061295b81615b97565b9150506127e2565b50505050505050565b612974613772565b60008151116129c55760405162461bcd60e51b815260206004820181905260248201527f4d7573742068617665206174206c65617374206f6e65207469636b657420496460448201526064016106b9565b60008381526008602052604090205460ff1680156129f357506000828152600a602052604090206001015483145b612a0f5760405162461bcd60e51b81526004016106b990615c14565b60005b8151811015612ae2576001600d6000848481518110612a3357612a33615bb0565b6020026020010151815260200190815260200160002060050160070160006101000a81548160ff021916908315150217905550612ad0600d6000848481518110612a7f57612a7f615bb0565b6020026020010151815260200190815260200160002060050160030160009054906101000a90046001600160a01b0316838381518110612ac157612ac1615bb0565b60200260200101516001613bbf565b80612ada81615b97565b915050612a12565b50505050565b60606000805b600654811015612b6f5783600a6000612b08846001615c3d565b815260200190815260200160002060010154148015612b4a5750600a6000612b31836001615c3d565b815260208101919091526040016000206007015460ff16155b15612b5d5781612b5981615b97565b9250505b80612b6781615b97565b915050612aee565b50806001600160401b03811115612b8857612b88614da7565b604051908082528060200260200182016040528015612bc157816020015b612bae614c54565b815260200190600190039081612ba65790505b5091506000805b600654811015612d075784600a6000612be2846001615c3d565b815260200190815260200160002060010154148015612c245750600a6000612c0b836001615c3d565b815260208101919091526040016000206007015460ff16155b15612cf557600a6000612c38836001615c3d565b81526020808201929092526040908101600020815161016081018352815481526001820154938101939093526002810154918301919091526003810154606083015260048101546080830152600581015460a0830152600681015460c0830152600781015460ff808216151560e085015261010091829004161515908301526008810154610120830152600901546101408201528483612cd781615b97565b945081518110612ce957612ce9615bb0565b60200260200101819052505b80612cff81615b97565b915050612bc8565b505050919050565b610cd0338383613cc3565b6000828152600b60209081526040808320848452825291829020805483518184028101840190945280845260609392830182828015612d8257602002820191906000526020600020905b81546001600160a01b03168152600190910190602001808311612d64575b5050505050905092915050565b60008381526008602052604090205460ff168015612dbd57506000828152600a602052604090206001015483145b612dd95760405162461bcd60e51b81526004016106b990615c14565b6000828152600a6020526040902060020154612df6908290615c50565b341015612e3b5760405162461bcd60e51b8152602060048201526013602482015272125b9cdd59999a58da595b9d08185b5bdd5b9d606a1b60448201526064016106b9565b6000828152600a60205260409020600681015460059091015411612e935760405162461bcd60e51b815260206004820152600f60248201526e4f7574206f6620636170616369747960881b60448201526064016106b9565b60005b8181101561303657612eac600580546001019055565b612f0860405180610120016040528060008152602001600081526020016000815260200160006001600160a01b031681526020016000815260200160008152602001600081526020016000151581526020016000151581525090565b60055481526000848152600a60208181526040808420600281015460808701529388905291905260089091015460c08301528101849052336060820152612f4d613ba4565b60a0820190815281516000908152600d602090815260408083208551600582015582860151600682015581860151600782015560608601516008820180546001600160a01b039092166001600160a01b0319928316179055608087015160098301559451600a82015560c0860151600b8083019190915560e0870151600c909201805461010098890151151590980261ff00199315159390931661ffff199098169790971791909117909555888352938152838220878352815292812080546001810182559082529290209091018054909116331790558061302e81615b97565b915050612e96565b506000828152600a602052604081206006018054839290613058908490615c3d565b90915550506000828152600a602052604090206002015461307a908290615c50565b6000838152600a60205260408120600901805490919061309b908490615c3d565b90915550610766905081613da3565b60606000805b6006548110156131315783600a60006130ca846001615c3d565b81526020019081526020016000206008015414801561310c5750600a60006130f3836001615c3d565b815260208101919091526040016000206007015460ff16155b1561311f578161311b81615b97565b9250505b8061312981615b97565b9150506130b0565b50806001600160401b0381111561314a5761314a614da7565b60405190808252806020026020018201604052801561318357816020015b613170614c54565b8152602001906001900390816131685790505b5091506000805b600654811015612d075784600a60006131a4846001615c3d565b8152602001908152602001600020600801541480156131e65750600a60006131cd836001615c3d565b815260208101919091526040016000206007015460ff16155b1561327d57600a60006131fa836001615c3d565b81526020019081526020016000206003015484838151811061321e5761321e615bb0565b602090810291909101015160600152600a600061323c836001615c3d565b81526020019081526020016000206004015484838061325a90615b97565b94508151811061326c5761326c615bb0565b602002602001015160800181815250505b8061328781615b97565b91505061318a565b6001600160a01b0385163314806132ab57506132ab85336105c4565b6132c75760405162461bcd60e51b81526004016106b990615bc6565b6113a78585858585613ff6565b6132dc613772565b6001600160a01b0381166133415760405162461bcd60e51b815260206004820152602660248201527f4f776e61626c653a206e6577206f776e657220697320746865207a65726f206160448201526564647265737360d01b60648201526084016106b9565b61334a81613b52565b50565b6001600160a01b038316331480613369575061336983336105c4565b6133855760405162461bcd60e51b81526004016106b990615bc6565b610766838383613bbf565b60606000600d60008481526020019081526020016000206040518060c00160405290816000820180546133c290615a2f565b80601f01602080910402602001604051908101604052809291908181526020018280546133ee90615a2f565b801561343b5780601f106134105761010080835404028352916020019161343b565b820191906000526020600020905b81548152906001019060200180831161341e57829003601f168201915b5050505050815260200160018201805461345490615a2f565b80601f016020809104026020016040519081016040528092919081815260200182805461348090615a2f565b80156134cd5780601f106134a2576101008083540402835291602001916134cd565b820191906000526020600020905b8154815290600101906020018083116134b057829003601f168201915b505050505081526020016002820180546134e690615a2f565b80601f016020809104026020016040519081016040528092919081815260200182805461351290615a2f565b801561355f5780601f106135345761010080835404028352916020019161355f565b820191906000526020600020905b81548152906001019060200180831161354257829003601f168201915b5050505050815260200160038201805461357890615a2f565b80601f01602080910402602001604051908101604052809291908181526020018280546135a490615a2f565b80156135f15780601f106135c6576101008083540402835291602001916135f1565b820191906000526020600020905b8154815290600101906020018083116135d457829003601f168201915b5050505050815260200160048201805461360a90615a2f565b80601f016020809104026020016040519081016040528092919081815260200182805461363690615a2f565b80156136835780601f1061365857610100808354040283529160200191613683565b820191906000526020600020905b81548152906001019060200180831161366657829003601f168201915b5050509183525050604080516101208101825260058401548152600684015460208281019190915260078501549282019290925260088401546001600160a01b0316606082015260098401546080820152600a84015460a0820152600b84015460c0820152600c9093015460ff808216151560e086015261010091829004161515908401529081019190915281519082015191925061374b9161372586614120565b60405160200161373793929190615c83565b6040516020818303038152906040526144cc565b60405160200161375b9190615d4a565b604051602081830303815290604052915050919050565b6003546001600160a01b031633146120855760405162461bcd60e51b815260206004820181905260248201527f4f776e61626c653a2063616c6c6572206973206e6f7420746865206f776e657260448201526064016106b9565b6000826001600160a01b03168260405160006040518083038185875af1925050503d8060008114613819576040519150601f19603f3d011682016040523d82523d6000602084013e61381e565b606091505b505090508061076657600080fd5b815183511461384d5760405162461bcd60e51b81526004016106b990615d8f565b6001600160a01b0384166138735760405162461bcd60e51b81526004016106b990615dd7565b3360005b845181101561395a57600085828151811061389457613894615bb0565b6020026020010151905060008583815181106138b2576138b2615bb0565b602090810291909101810151600084815280835260408082206001600160a01b038e1683529093529190912054909150818110156139025760405162461bcd60e51b81526004016106b990615e1c565b6000838152602081815260408083206001600160a01b038e8116855292528083208585039055908b1682528120805484929061393f908490615c3d565b925050819055505050508061395390615b97565b9050613877565b50846001600160a01b0316866001600160a01b0316826001600160a01b03167f4a39dc06d4c0dbc64b70af90fd698a233a518aa5d07e595d983b8c0526c8f7fb87876040516139aa929190615e66565b60405180910390a46139c0818787878787614632565b505050505050565b6001600160a01b0383166139ee5760405162461bcd60e51b81526004016106b990615e8b565b8051825114613a0f5760405162461bcd60e51b81526004016106b990615d8f565b604080516020810190915260009081905233905b8351811015613ae5576000848281518110613a4057613a40615bb0565b602002602001015190506000848381518110613a5e57613a5e615bb0565b602090810291909101810151600084815280835260408082206001600160a01b038c168352909352919091205490915081811015613aae5760405162461bcd60e51b81526004016106b990615ece565b6000928352602083815260408085206001600160a01b038b1686529091529092209103905580613add81615b97565b915050613a23565b5060006001600160a01b0316846001600160a01b0316826001600160a01b03167f4a39dc06d4c0dbc64b70af90fd698a233a518aa5d07e595d983b8c0526c8f7fb8686604051613b36929190615e66565b60405180910390a4604080516020810190915260009052612ae2565b600380546001600160a01b038381166001600160a01b0319831681179093556040519116919082907f8be0079c531659141344cd1fd0a4f28419497f9722a3daafe3b4186f6b6457e090600090a35050565b600080613bb3426103e8615c50565b6106e5906103e8615c3d565b6001600160a01b038316613be55760405162461bcd60e51b81526004016106b990615e8b565b336000613bf18461478d565b90506000613bfe8461478d565b60408051602080820183526000918290528882528181528282206001600160a01b038b1683529052205490915084811015613c4b5760405162461bcd60e51b81526004016106b990615ece565b6000868152602081815260408083206001600160a01b038b81168086529184528285208a8703905582518b81529384018a90529092908816917fc3d58168c5ae7397731d063d5bbf3d657854427343f4c083240f7aacaa2d0f62910160405180910390a4604080516020810190915260009052612963565b816001600160a01b0316836001600160a01b031603613d365760405162461bcd60e51b815260206004820152602960248201527f455243313135353a2073657474696e6720617070726f76616c20737461747573604482015268103337b91039b2b63360b91b60648201526084016106b9565b6001600160a01b03838116600081815260016020908152604080832094871680845294825291829020805460ff191686151590811790915591519182527f17307eab39ab6107e8899845ad3d59bd9653f200f220920489ca2b5937696c31910160405180910390a3505050565b6000816001600160401b03811115613dbd57613dbd614da7565b604051908082528060200260200182016040528015613de6578160200160208202803683370190505b5090506000826001600160401b03811115613e0357613e03614da7565b604051908082528060200260200182016040528015613e2c578160200160208202803683370190505b509050600083613e3b60055490565b613e459190615b84565b905060005b84811015613fc35781613e5c81615b97565b9250506000613e6a836147d8565b9050600081604051602001613e7f9190615f12565b60408051601f198184030181526060830190915260318083529092506000919061630860208301396000868152600d60205260409020909150613ec28382615aaf565b506000858152600d60205260409020600101613ede8282615aaf565b50613efb613ef6610169613ef0613ba4565b8861486a565b6147d8565b6000868152600d6020526040902060020190613f179082615aaf565b50613f28613ef6610169428861486a565b6000868152600d6020526040902060030190613f449082615aaf565b506000858152600d60205260409020600401613f608382615aaf565b50613f6e856102878761073b565b84878581518110613f8157613f81615bb0565b6020026020010181815250506001868581518110613fa157613fa1615bb0565b6020026020010181815250505050508080613fbb90615b97565b915050613e4a565b5060008383604051602001613fd9929190615f64565b60405160208183030381529060405290506113a7338585846148d2565b6001600160a01b03841661401c5760405162461bcd60e51b81526004016106b990615dd7565b3360006140288561478d565b905060006140358561478d565b90506000868152602081815260408083206001600160a01b038c168452909152902054858110156140785760405162461bcd60e51b81526004016106b990615e1c565b6000878152602081815260408083206001600160a01b038d8116855292528083208985039055908a168252812080548892906140b5908490615c3d565b909155505060408051888152602081018890526001600160a01b03808b16928c821692918816917fc3d58168c5ae7397731d063d5bbf3d657854427343f4c083240f7aacaa2d0f62910160405180910390a4614115848a8a8a8a8a614a57565b505050505050505050565b60606000600d60008481526020019081526020016000206040518060c001604052908160008201805461415290615a2f565b80601f016020809104026020016040519081016040528092919081815260200182805461417e90615a2f565b80156141cb5780601f106141a0576101008083540402835291602001916141cb565b820191906000526020600020905b8154815290600101906020018083116141ae57829003601f168201915b505050505081526020016001820180546141e490615a2f565b80601f016020809104026020016040519081016040528092919081815260200182805461421090615a2f565b801561425d5780601f106142325761010080835404028352916020019161425d565b820191906000526020600020905b81548152906001019060200180831161424057829003601f168201915b5050505050815260200160028201805461427690615a2f565b80601f01602080910402602001604051908101604052809291908181526020018280546142a290615a2f565b80156142ef5780601f106142c4576101008083540402835291602001916142ef565b820191906000526020600020905b8154815290600101906020018083116142d257829003601f168201915b5050505050815260200160038201805461430890615a2f565b80601f016020809104026020016040519081016040528092919081815260200182805461433490615a2f565b80156143815780601f1061435657610100808354040283529160200191614381565b820191906000526020600020905b81548152906001019060200180831161436457829003601f168201915b5050505050815260200160048201805461439a90615a2f565b80601f01602080910402602001604051908101604052809291908181526020018280546143c690615a2f565b80156144135780601f106143e857610100808354040283529160200191614413565b820191906000526020600020905b8154815290600101906020018083116143f657829003601f168201915b5050509183525050604080516101208101825260058401548152600684015460208281019190915260078501548284015260088501546001600160a01b03166060808401919091526009860154608080850191909152600a87015460a0850152600b87015460c0850152600c9096015460ff808216151560e086015261010091829004161515908401529381019190915284820151928501519385015191519495506144c59461373794929101615f81565b9392505050565b606081516000036144eb57505060408051602081019091526000815290565b6000604051806060016040528060408152602001616339604091399050600060038451600261451a9190615c3d565b614524919061613d565b61452f906004615c50565b9050600061453e826020615c3d565b6001600160401b0381111561455557614555614da7565b6040519080825280601f01601f19166020018201604052801561457f576020820181803683370190505b509050818152600183018586518101602084015b818310156145ed5760039283018051603f601282901c811687015160f890811b8552600c83901c8216880151811b6001860152600683901c8216880151811b60028601529116860151901b93820193909352600401614593565b600389510660018114614607576002811461461857614624565b613d3d60f01b600119830152614624565b603d60f81b6000198301525b509398975050505050505050565b6001600160a01b0384163b156139c05760405163bc197c8160e01b81526001600160a01b0385169063bc197c81906146769089908990889088908890600401616151565b6020604051808303816000875af19250505080156146b1575060408051601f3d908101601f191682019092526146ae918101906161af565b60015b61475d576146bd6161cc565b806308c379a0036146f657506146d16161e8565b806146dc57506146f8565b8060405162461bcd60e51b81526004016106b99190614d94565b505b60405162461bcd60e51b815260206004820152603460248201527f455243313135353a207472616e7366657220746f206e6f6e2d455243313135356044820152732932b1b2b4bb32b91034b6b83632b6b2b73a32b960611b60648201526084016106b9565b6001600160e01b0319811663bc197c8160e01b146129635760405162461bcd60e51b81526004016106b990616271565b604080516001808252818301909252606091600091906020808301908036833701905050905082816000815181106147c7576147c7615bb0565b602090810291909101015292915050565b606060006147e583614b12565b60010190506000816001600160401b0381111561480457614804614da7565b6040519080825280601f01601f19166020018201604052801561482e576020820181803683370190505b5090508181016020015b600019016f181899199a1a9b1b9c1cb0b131b232b360811b600a86061a8153600a850494508461483857509392505050565b604080514260208201526bffffffffffffffffffffffff193360601b16918101919091526054810183905260748101829052600090819085906094016040516020818303038152906040528051906020012060001c6148c991906162b9565b95945050505050565b6001600160a01b0384166149325760405162461bcd60e51b815260206004820152602160248201527f455243313135353a206d696e7420746f20746865207a65726f206164647265736044820152607360f81b60648201526084016106b9565b81518351146149535760405162461bcd60e51b81526004016106b990615d8f565b3360005b84518110156149ef5783818151811061497257614972615bb0565b602002602001015160008087848151811061498f5761498f615bb0565b602002602001015181526020019081526020016000206000886001600160a01b03166001600160a01b0316815260200190815260200160002060008282546149d79190615c3d565b909155508190506149e781615b97565b915050614957565b50846001600160a01b031660006001600160a01b0316826001600160a01b03167f4a39dc06d4c0dbc64b70af90fd698a233a518aa5d07e595d983b8c0526c8f7fb8787604051614a40929190615e66565b60405180910390a46113a781600087878787614632565b6001600160a01b0384163b156139c05760405163f23a6e6160e01b81526001600160a01b0385169063f23a6e6190614a9b90899089908890889088906004016162cd565b6020604051808303816000875af1925050508015614ad6575060408051601f3d908101601f19168201909252614ad3918101906161af565b60015b614ae2576146bd6161cc565b6001600160e01b0319811663f23a6e6160e01b146129635760405162461bcd60e51b81526004016106b990616271565b60008072184f03e93ff9f4daa797ed6e38ed64bf6a1f0160401b8310614b515772184f03e93ff9f4daa797ed6e38ed64bf6a1f0160401b830492506040015b6d04ee2d6d415b85acef81000000008310614b7d576d04ee2d6d415b85acef8100000000830492506020015b662386f26fc100008310614b9b57662386f26fc10000830492506010015b6305f5e1008310614bb3576305f5e100830492506008015b6127108310614bc757612710830492506004015b60648310614bd9576064830492506002015b600a83106106e55760010192915050565b604051806101a001604052806000815260200160608152602001606081526020016060815260200160608152602001606081526020016060815260200160608152602001606081526020016000815260200160008152602001600081526020016000151581525090565b6040518061016001604052806000815260200160008152602001600081526020016000815260200160008152602001600081526020016000815260200160001515815260200160001515815260200160008152602001600081525090565b80356001600160a01b0381168114614cc957600080fd5b919050565b60008060408385031215614ce157600080fd5b614cea83614cb2565b946020939093013593505050565b6001600160e01b03198116811461334a57600080fd5b600060208284031215614d2057600080fd5b81356144c581614cf8565b600060208284031215614d3d57600080fd5b5035919050565b60005b83811015614d5f578181015183820152602001614d47565b50506000910152565b60008151808452614d80816020860160208601614d44565b601f01601f19169290920160200192915050565b6020815260006144c56020830184614d68565b634e487b7160e01b600052604160045260246000fd5b601f8201601f191681016001600160401b0381118282101715614de257614de2614da7565b6040525050565b600082601f830112614dfa57600080fd5b81356001600160401b03811115614e1357614e13614da7565b604051614e2a601f8301601f191660200182614dbd565b818152846020838601011115614e3f57600080fd5b816020850160208301376000918101602001919091529392505050565b60008060408385031215614e6f57600080fd5b8235915060208301356001600160401b03811115614e8c57600080fd5b614e9885828601614de9565b9150509250929050565b60006101a0825184526020830151816020860152614ec282860182614d68565b91505060408301518482036040860152614edc8282614d68565b91505060608301518482036060860152614ef68282614d68565b91505060808301518482036080860152614f108282614d68565b91505060a083015184820360a0860152614f2a8282614d68565b91505060c083015184820360c0860152614f448282614d68565b91505060e083015184820360e0860152614f5e8282614d68565b9150506101008084015185830382870152614f798382614d68565b610120868101519088015261014080870151908801526101608087015190880152610180958601511515959096019490945250929392505050565b6020815260006144c56020830184614ea2565b805182526020810151602083015260408101516040830152606081015160608301526080810151608083015260a081015160a083015260c081015160c083015260e081015161501a60e084018215159052565b5061010081810151151590830152610120808201519083015261014090810151910152565b61016081016106e58284614fc7565b6000602080830181845280855180835260408601915060408160051b870101925083870160005b828110156150a357603f19888603018452615091858351614ea2565b94509285019290850190600101615075565b5092979650505050505050565b60006001600160401b038211156150c9576150c9614da7565b5060051b60200190565b600082601f8301126150e457600080fd5b813560206150f1826150b0565b6040516150fe8282614dbd565b83815260059390931b850182019282810191508684111561511e57600080fd5b8286015b848110156151395780358352918301918301615122565b509695505050505050565b600080600080600060a0868803121561515c57600080fd5b61516586614cb2565b945061517360208701614cb2565b935060408601356001600160401b038082111561518f57600080fd5b61519b89838a016150d3565b945060608801359150808211156151b157600080fd5b6151bd89838a016150d3565b935060808801359150808211156151d357600080fd5b506151e088828901614de9565b9150509295509295909350565b60008060008060008060008060008060006101608c8e03121561520f57600080fd5b8b359a506001600160401b038060208e0135111561522c57600080fd5b61523c8e60208f01358f01614de9565b9a508060408e0135111561524f57600080fd5b61525f8e60408f01358f01614de9565b99508060608e0135111561527257600080fd5b6152828e60608f01358f01614de9565b98508060808e0135111561529557600080fd5b6152a58e60808f01358f01614de9565b97508060a08e013511156152b857600080fd5b6152c88e60a08f01358f01614de9565b96508060c08e013511156152db57600080fd5b6152eb8e60c08f01358f01614de9565b95508060e08e013511156152fe57600080fd5b61530e8e60e08f01358f01614de9565b9450806101008e0135111561532257600080fd5b506153348d6101008e01358e01614de9565b92506101208c013591506101408c013590509295989b509295989b9093969950565b60006101c080835261536a8184018a614d68565b9050828103602084015261537e8189614d68565b905082810360408401526153928188614d68565b905082810360608401526153a68187614d68565b905082810360808401526153ba8186614d68565b915050825160a0830152602083015160c0830152604083015160e0830152606083015161010060018060a01b03821681850152608085015161012085015260a085015161014085015260c085015161016085015260e08501511515610180850152808501519150506154316101a084018215159052565b50979650505050505050565b6000806040838503121561545057600080fd5b50508035926020909101359150565b6000806040838503121561547257600080fd5b82356001600160401b038082111561548957600080fd5b818501915085601f83011261549d57600080fd5b813560206154aa826150b0565b6040516154b78282614dbd565b83815260059390931b85018201928281019150898411156154d757600080fd5b948201945b838610156154fc576154ed86614cb2565b825294820194908201906154dc565b9650508601359250508082111561551257600080fd5b50614e98858286016150d3565b600081518084526020808501945080840160005b8381101561554f57815187529582019590820190600101615533565b509495945050505050565b6020815260006144c5602083018461551f565b60008060006060848603121561558257600080fd5b61558b84614cb2565b925060208401356001600160401b03808211156155a757600080fd5b6155b3878388016150d3565b935060408601359150808211156155c957600080fd5b506155d6868287016150d3565b9150509250925092565b6000806000806000806000806000806101408b8d03121561560057600080fd5b8a356001600160401b038082111561561757600080fd5b6156238e838f01614de9565b9b5060208d013591508082111561563957600080fd5b6156458e838f01614de9565b9a5060408d013591508082111561565b57600080fd5b6156678e838f01614de9565b995060608d013591508082111561567d57600080fd5b6156898e838f01614de9565b985060808d013591508082111561569f57600080fd5b6156ab8e838f01614de9565b975060a08d01359150808211156156c157600080fd5b6156cd8e838f01614de9565b965060c08d01359150808211156156e357600080fd5b6156ef8e838f01614de9565b955060e08d013591508082111561570557600080fd5b506157128d828e01614de9565b9350506101008b013591506101208b013590509295989b9194979a5092959850565b60008060008060008060c0878903121561574d57600080fd5b8635955060208701356001600160401b038082111561576b57600080fd5b6157778a838b016150d3565b9650604089013591508082111561578d57600080fd5b6157998a838b016150d3565b955060608901359150808211156157af57600080fd5b6157bb8a838b016150d3565b945060808901359150808211156157d157600080fd5b6157dd8a838b016150d3565b935060a08901359150808211156157f357600080fd5b5061580089828a016150d3565b9150509295509295509295565b60008060006060848603121561582257600080fd5b833592506020840135915060408401356001600160401b0381111561584657600080fd5b6155d6868287016150d3565b6020808252825182820181905260009190848201906040850190845b8181101561589557615881838551614fc7565b92840192610160929092019160010161586e565b50909695505050505050565b600080604083850312156158b457600080fd5b6158bd83614cb2565b9150602083013580151581146158d257600080fd5b809150509250929050565b6020808252825182820181905260009190848201906040850190845b818110156158955783516001600160a01b0316835292840192918401916001016158f9565b60008060006060848603121561593357600080fd5b505081359360208301359350604090920135919050565b6000806040838503121561595d57600080fd5b61596683614cb2565b915061597460208401614cb2565b90509250929050565b600080600080600060a0868803121561599557600080fd5b61599e86614cb2565b94506159ac60208701614cb2565b9350604086013592506060860135915060808601356001600160401b038111156159d557600080fd5b6151e088828901614de9565b6000602082840312156159f357600080fd5b6144c582614cb2565b600080600060608486031215615a1157600080fd5b615a1a84614cb2565b95602085013595506040909401359392505050565b600181811c90821680615a4357607f821691505b602082108103615a6357634e487b7160e01b600052602260045260246000fd5b50919050565b601f82111561076657600081815260208120601f850160051c81016020861015615a905750805b601f850160051c820191505b818110156139c057828155600101615a9c565b81516001600160401b03811115615ac857615ac8614da7565b615adc81615ad68454615a2f565b84615a69565b602080601f831160018114615b115760008415615af95750858301515b600019600386901b1c1916600185901b1785556139c0565b600085815260208120601f198616915b82811015615b4057888601518255948401946001909101908401615b21565b5085821015615b5e5787850151600019600388901b60f8161c191681555b5050505050600190811b01905550565b634e487b7160e01b600052601160045260246000fd5b818103818111156106e5576106e5615b6e565b600060018201615ba957615ba9615b6e565b5060010190565b634e487b7160e01b600052603260045260246000fd5b6020808252602e908201527f455243313135353a2063616c6c6572206973206e6f7420746f6b656e206f776e60408201526d195c881bdc88185c1c1c9bdd995960921b606082015260800190565b6020808252600f908201526e135bdd9a59481b9bdd08199bdd5b99608a1b604082015260600190565b808201808211156106e5576106e5615b6e565b80820281158282048414176106e5576106e5615b6e565b60008151615c79818560208601614d44565b9290920192915050565b683d913730b6b2911d1160b91b81528351600090615ca8816009850160208901614d44565b71111610113232b9b1b934b83a34b7b7111d1160711b6009918401918201528451615cda81601b840160208901614d44565b6c1116101134b6b0b3b2911d101160991b601b92909101918201527f646174613a696d6167652f7376672b786d6c3b6261736536342c00000000000060288201528351615d2e816042840160208801614d44565b61227d60f01b6042929091019182015260440195945050505050565b7f646174613a6170706c69636174696f6e2f6a736f6e3b6261736536342c000000815260008251615d8281601d850160208701614d44565b91909101601d0192915050565b60208082526028908201527f455243313135353a2069647320616e6420616d6f756e7473206c656e677468206040820152670dad2e6dac2e8c6d60c31b606082015260800190565b60208082526025908201527f455243313135353a207472616e7366657220746f20746865207a65726f206164604082015264647265737360d81b606082015260800190565b6020808252602a908201527f455243313135353a20696e73756666696369656e742062616c616e636520666f60408201526939103a3930b739b332b960b11b606082015260800190565b604081526000615e79604083018561551f565b82810360208401526148c9818561551f565b60208082526023908201527f455243313135353a206275726e2066726f6d20746865207a65726f206164647260408201526265737360e81b606082015260800190565b60208082526024908201527f455243313135353a206275726e20616d6f756e7420657863656564732062616c604082015263616e636560e01b606082015260800190565b64445043202360d81b815260008251615f32816005850160208701614d44565b9190910160050192915050565b8051600090602080840183831561554f57815187529582019590820190600101615533565b6000615f79615f738386615f3f565b84615f3f565b949350505050565b7f3c7376672077696474683d2235303022206865696768743d223530302220786d81527f6c6e733d22687474703a2f2f7777772e77332e6f72672f323030302f737667226020820152601f60f91b60408201527f3c72656374206865696768743d22353030222077696474683d223530302220666041820152680d2d8d87a44d0e6d8560bb1b60618201526000845161602181606a850160208901614d44565b6d16101a98129610191a929491179f60911b606a918401918201527f3c7465787420783d223530252220793d223530252220646f6d696e616e742d6260788201527f6173656c696e653d226d6964646c65222066696c6c3d2268736c2800000000006098820152845161609b8160b3840160208901614d44565b61611c61610a6160f76160f160b3858701017f2c20313030252c20383025292220746578742d616e63686f723d226d6964646c8152713291103337b73a16b9b4bd329e911a18911f60711b602082015260320190565b88615c67565b661e17ba32bc3a1f60c91b815260070190565b651e17b9bb339f60d11b815260060190565b979650505050505050565b634e487b7160e01b600052601260045260246000fd5b60008261614c5761614c616127565b500490565b6001600160a01b0386811682528516602082015260a06040820181905260009061617d9083018661551f565b828103606084015261618f818661551f565b905082810360808401526161a38185614d68565b98975050505050505050565b6000602082840312156161c157600080fd5b81516144c581614cf8565b600060033d11156161e55760046000803e5060005160e01c5b90565b600060443d10156161f65790565b6040516003193d81016004833e81513d6001600160401b03816024840111818411171561622557505050505090565b828501915081518181111561623d5750505050505090565b843d87010160208285010111156162575750505050505090565b61626660208286010187614dbd565b509095945050505050565b60208082526028908201527f455243313135353a204552433131353552656365697665722072656a656374656040820152676420746f6b656e7360c01b606082015260800190565b6000826162c8576162c8616127565b500690565b6001600160a01b03868116825285166020820152604081018490526060810183905260a06080820181905260009061611c90830184614d6856fe5468657365204e465473206172652061637475616c6c79207469636b65747320666f7220446170702043696e656d61732e4142434445464748494a4b4c4d4e4f505152535455565758595a6162636465666768696a6b6c6d6e6f707172737475767778797a303132333435363738392b2fa2646970667358221220d784a3b998c7981e407b192850de2bc7f1147ee35062215c5514cdbf44baefd364736f6c63430008130033",
  "linkReferences": {},
  "deployedLinkReferences": {}
}