{
  "_format": "hh-sol-artifact-1",
  "contractName": "DappCinemas",
  "sourceName": "contracts/DappCinemas.sol",
  "abi": [
    {
      "anonymous": false,
      "inputs": [
        {
          "indexed": false,
          "internalType": "string",
          "name": "actionType",
          "type": "string"
        }
      ],
      "name": "Action",
      "type": "event"
    },
    {
      "anonymous": false,
      "inputs": [
        {
          "indexed": true,
          "internalType": "address",
          "name": "previousOwner",
          "type": "address"
        },
        {
          "indexed": true,
          "internalType": "address",
          "name": "newOwner",
          "type": "address"
        }
      ],
      "name": "OwnershipTransferred",
      "type": "event"
    },
    {
      "anonymous": false,
      "inputs": [
        {
          "indexed": true,
          "internalType": "bytes32",
          "name": "role",
          "type": "bytes32"
        },
        {
          "indexed": true,
          "internalType": "bytes32",
          "name": "previousAdminRole",
          "type": "bytes32"
        },
        {
          "indexed": true,
          "internalType": "bytes32",
          "name": "newAdminRole",
          "type": "bytes32"
        }
      ],
      "name": "RoleAdminChanged",
      "type": "event"
    },
    {
      "anonymous": false,
      "inputs": [
        {
          "indexed": true,
          "internalType": "bytes32",
          "name": "role",
          "type": "bytes32"
        },
        {
          "indexed": true,
          "internalType": "address",
          "name": "account",
          "type": "address"
        },
        {
          "indexed": true,
          "internalType": "address",
          "name": "sender",
          "type": "address"
        }
      ],
      "name": "RoleGranted",
      "type": "event"
    },
    {
      "anonymous": false,
      "inputs": [
        {
          "indexed": true,
          "internalType": "bytes32",
          "name": "role",
          "type": "bytes32"
        },
        {
          "indexed": true,
          "internalType": "address",
          "name": "account",
          "type": "address"
        },
        {
          "indexed": true,
          "internalType": "address",
          "name": "sender",
          "type": "address"
        }
      ],
      "name": "RoleRevoked",
      "type": "event"
    },
    {
      "inputs": [],
      "name": "DEFAULT_ADMIN_ROLE",
      "outputs": [
        {
          "internalType": "bytes32",
          "name": "",
          "type": "bytes32"
        }
      ],
      "stateMutability": "view",
      "type": "function"
    },
    {
      "inputs": [],
      "name": "TICKET_ROLE",
      "outputs": [
        {
          "internalType": "bytes32",
          "name": "",
          "type": "bytes32"
        }
      ],
      "stateMutability": "view",
      "type": "function"
    },
    {
      "inputs": [
        {
          "internalType": "string",
          "name": "_name",
          "type": "string"
        },
        {
          "internalType": "string",
          "name": "_banner",
          "type": "string"
        },
        {
          "internalType": "string",
          "name": "_imageUrl",
          "type": "string"
        },
        {
          "internalType": "string",
          "name": "_videoUrl",
          "type": "string"
        },
        {
          "internalType": "string",
          "name": "_genre",
          "type": "string"
        },
        {
          "internalType": "string",
          "name": "_description",
          "type": "string"
        },
        {
          "internalType": "string",
          "name": "_caption",
          "type": "string"
        },
        {
          "internalType": "string",
          "name": "_casts",
          "type": "string"
        },
        {
          "internalType": "string",
          "name": "_running",
          "type": "string"
        },
        {
          "internalType": "string",
          "name": "_released",
          "type": "string"
        }
      ],
      "name": "addMovie",
      "outputs": [],
      "stateMutability": "nonpayable",
      "type": "function"
    },
    {
      "inputs": [
        {
          "internalType": "uint256",
          "name": "_movieId",
          "type": "uint256"
        },
        {
          "internalType": "uint256",
          "name": "_ticketCost",
          "type": "uint256"
        },
        {
          "internalType": "uint256",
          "name": "_startTime",
          "type": "uint256"
        },
        {
          "internalType": "uint256",
          "name": "_endTime",
          "type": "uint256"
        },
        {
          "internalType": "uint256",
          "name": "_capacity",
          "type": "uint256"
        },
        {
          "internalType": "uint256",
          "name": "_day",
          "type": "uint256"
        }
      ],
      "name": "addTimeSlot",
      "outputs": [],
      "stateMutability": "nonpayable",
      "type": "function"
    },
    {
      "inputs": [
        {
          "internalType": "uint256",
          "name": "_slotId",
          "type": "uint256"
        }
      ],
      "name": "completeTimeSlot",
      "outputs": [],
      "stateMutability": "nonpayable",
      "type": "function"
    },
    {
      "inputs": [
        {
          "internalType": "uint256",
          "name": "_movieId",
          "type": "uint256"
        }
      ],
      "name": "deleteMovie",
      "outputs": [],
      "stateMutability": "nonpayable",
      "type": "function"
    },
    {
      "inputs": [
        {
          "internalType": "uint256",
          "name": "_slotId",
          "type": "uint256"
        }
      ],
      "name": "deleteTimeSlot",
      "outputs": [],
      "stateMutability": "nonpayable",
      "type": "function"
    },
    {
      "inputs": [
        {
          "internalType": "uint256",
          "name": "movieId",
          "type": "uint256"
        }
      ],
      "name": "getMovie",
      "outputs": [
        {
          "components": [
            {
              "internalType": "uint256",
              "name": "id",
              "type": "uint256"
            },
            {
              "internalType": "string",
              "name": "name",
              "type": "string"
            },
            {
              "internalType": "string",
              "name": "banner",
              "type": "string"
            },
            {
              "internalType": "string",
              "name": "imageUrl",
              "type": "string"
            },
            {
              "internalType": "string",
              "name": "videoUrl",
              "type": "string"
            },
            {
              "internalType": "string",
              "name": "genre",
              "type": "string"
            },
            {
              "internalType": "string",
              "name": "description",
              "type": "string"
            },
            {
              "internalType": "string",
              "name": "caption",
              "type": "string"
            },
            {
              "internalType": "string",
              "name": "casts",
              "type": "string"
            },
            {
              "internalType": "string",
              "name": "running",
              "type": "string"
            },
            {
              "internalType": "string",
              "name": "released",
              "type": "string"
            },
            {
              "internalType": "uint256",
              "name": "timestamp",
              "type": "uint256"
            },
            {
              "internalType": "bool",
              "name": "deleted",
              "type": "bool"
            }
          ],
          "internalType": "struct DappCinemas.MovieStruct",
          "name": "",
          "type": "tuple"
        }
      ],
      "stateMutability": "view",
      "type": "function"
    },
    {
      "inputs": [],
      "name": "getMovies",
      "outputs": [
        {
          "components": [
            {
              "internalType": "uint256",
              "name": "id",
              "type": "uint256"
            },
            {
              "internalType": "string",
              "name": "name",
              "type": "string"
            },
            {
              "internalType": "string",
              "name": "banner",
              "type": "string"
            },
            {
              "internalType": "string",
              "name": "imageUrl",
              "type": "string"
            },
            {
              "internalType": "string",
              "name": "videoUrl",
              "type": "string"
            },
            {
              "internalType": "string",
              "name": "genre",
              "type": "string"
            },
            {
              "internalType": "string",
              "name": "description",
              "type": "string"
            },
            {
              "internalType": "string",
              "name": "caption",
              "type": "string"
            },
            {
              "internalType": "string",
              "name": "casts",
              "type": "string"
            },
            {
              "internalType": "string",
              "name": "running",
              "type": "string"
            },
            {
              "internalType": "string",
              "name": "released",
              "type": "string"
            },
            {
              "internalType": "uint256",
              "name": "timestamp",
              "type": "uint256"
            },
            {
              "internalType": "bool",
              "name": "deleted",
              "type": "bool"
            }
          ],
          "internalType": "struct DappCinemas.MovieStruct[]",
          "name": "Movies",
          "type": "tuple[]"
        }
      ],
      "stateMutability": "view",
      "type": "function"
    },
    {
      "inputs": [
        {
          "internalType": "bytes32",
          "name": "role",
          "type": "bytes32"
        }
      ],
      "name": "getRoleAdmin",
      "outputs": [
        {
          "internalType": "bytes32",
          "name": "",
          "type": "bytes32"
        }
      ],
      "stateMutability": "view",
      "type": "function"
    },
    {
      "inputs": [
        {
          "internalType": "uint256",
          "name": "slotId",
          "type": "uint256"
        }
      ],
      "name": "getTimeSlot",
      "outputs": [
        {
          "components": [
            {
              "internalType": "uint256",
              "name": "id",
              "type": "uint256"
            },
            {
              "internalType": "uint256",
              "name": "movieId",
              "type": "uint256"
            },
            {
              "internalType": "uint256",
              "name": "ticketCost",
              "type": "uint256"
            },
            {
              "internalType": "uint256",
              "name": "startTime",
              "type": "uint256"
            },
            {
              "internalType": "uint256",
              "name": "endTime",
              "type": "uint256"
            },
            {
              "internalType": "uint256",
              "name": "capacity",
              "type": "uint256"
            },
            {
              "internalType": "uint256",
              "name": "seats",
              "type": "uint256"
            },
            {
              "internalType": "bool",
              "name": "deleted",
              "type": "bool"
            },
            {
              "internalType": "bool",
              "name": "completed",
              "type": "bool"
            },
            {
              "internalType": "uint256",
              "name": "day",
              "type": "uint256"
            },
            {
              "internalType": "uint256",
              "name": "balance",
              "type": "uint256"
            }
          ],
          "internalType": "struct DappCinemas.TimeSlotStruct",
          "name": "",
          "type": "tuple"
        }
      ],
      "stateMutability": "view",
      "type": "function"
    },
    {
      "inputs": [
        {
          "internalType": "uint256",
          "name": "movieId",
          "type": "uint256"
        }
      ],
      "name": "getTimeSlots",
      "outputs": [
        {
          "components": [
            {
              "internalType": "uint256",
              "name": "id",
              "type": "uint256"
            },
            {
              "internalType": "uint256",
              "name": "movieId",
              "type": "uint256"
            },
            {
              "internalType": "uint256",
              "name": "ticketCost",
              "type": "uint256"
            },
            {
              "internalType": "uint256",
              "name": "startTime",
              "type": "uint256"
            },
            {
              "internalType": "uint256",
              "name": "endTime",
              "type": "uint256"
            },
            {
              "internalType": "uint256",
              "name": "capacity",
              "type": "uint256"
            },
            {
              "internalType": "uint256",
              "name": "seats",
              "type": "uint256"
            },
            {
              "internalType": "bool",
              "name": "deleted",
              "type": "bool"
            },
            {
              "internalType": "bool",
              "name": "completed",
              "type": "bool"
            },
            {
              "internalType": "uint256",
              "name": "day",
              "type": "uint256"
            },
            {
              "internalType": "uint256",
              "name": "balance",
              "type": "uint256"
            }
          ],
          "internalType": "struct DappCinemas.TimeSlotStruct[]",
          "name": "MovieSlots",
          "type": "tuple[]"
        }
      ],
      "stateMutability": "view",
      "type": "function"
    },
    {
      "inputs": [
        {
          "internalType": "uint256",
          "name": "day",
          "type": "uint256"
        }
      ],
      "name": "getTimeSlotsByDay",
      "outputs": [
        {
          "components": [
            {
              "internalType": "uint256",
              "name": "id",
              "type": "uint256"
            },
            {
              "internalType": "uint256",
              "name": "movieId",
              "type": "uint256"
            },
            {
              "internalType": "uint256",
              "name": "ticketCost",
              "type": "uint256"
            },
            {
              "internalType": "uint256",
              "name": "startTime",
              "type": "uint256"
            },
            {
              "internalType": "uint256",
              "name": "endTime",
              "type": "uint256"
            },
            {
              "internalType": "uint256",
              "name": "capacity",
              "type": "uint256"
            },
            {
              "internalType": "uint256",
              "name": "seats",
              "type": "uint256"
            },
            {
              "internalType": "bool",
              "name": "deleted",
              "type": "bool"
            },
            {
              "internalType": "bool",
              "name": "completed",
              "type": "bool"
            },
            {
              "internalType": "uint256",
              "name": "day",
              "type": "uint256"
            },
            {
              "internalType": "uint256",
              "name": "balance",
              "type": "uint256"
            }
          ],
          "internalType": "struct DappCinemas.TimeSlotStruct[]",
          "name": "MovieSlots",
          "type": "tuple[]"
        }
      ],
      "stateMutability": "view",
      "type": "function"
    },
    {
      "inputs": [
        {
          "internalType": "address",
          "name": "_dappTicket",
          "type": "address"
        }
      ],
      "name": "grantAccess",
      "outputs": [],
      "stateMutability": "nonpayable",
      "type": "function"
    },
    {
      "inputs": [
        {
          "internalType": "bytes32",
          "name": "role",
          "type": "bytes32"
        },
        {
          "internalType": "address",
          "name": "account",
          "type": "address"
        }
      ],
      "name": "grantRole",
      "outputs": [],
      "stateMutability": "nonpayable",
      "type": "function"
    },
    {
      "inputs": [
        {
          "internalType": "bytes32",
          "name": "role",
          "type": "bytes32"
        },
        {
          "internalType": "address",
          "name": "account",
          "type": "address"
        }
      ],
      "name": "hasRole",
      "outputs": [
        {
          "internalType": "bool",
          "name": "",
          "type": "bool"
        }
      ],
      "stateMutability": "view",
      "type": "function"
    },
    {
      "inputs": [
        {
          "internalType": "uint256",
          "name": "slotId",
          "type": "uint256"
        }
      ],
      "name": "hasSlot",
      "outputs": [
        {
          "components": [
            {
              "internalType": "uint256",
              "name": "id",
              "type": "uint256"
            },
            {
              "internalType": "uint256",
              "name": "movieId",
              "type": "uint256"
            },
            {
              "internalType": "uint256",
              "name": "ticketCost",
              "type": "uint256"
            },
            {
              "internalType": "uint256",
              "name": "startTime",
              "type": "uint256"
            },
            {
              "internalType": "uint256",
              "name": "endTime",
              "type": "uint256"
            },
            {
              "internalType": "uint256",
              "name": "capacity",
              "type": "uint256"
            },
            {
              "internalType": "uint256",
              "name": "seats",
              "type": "uint256"
            },
            {
              "internalType": "bool",
              "name": "deleted",
              "type": "bool"
            },
            {
              "internalType": "bool",
              "name": "completed",
              "type": "bool"
            },
            {
              "internalType": "uint256",
              "name": "day",
              "type": "uint256"
            },
            {
              "internalType": "uint256",
              "name": "balance",
              "type": "uint256"
            }
          ],
          "internalType": "struct DappCinemas.TimeSlotStruct",
          "name": "",
          "type": "tuple"
        }
      ],
      "stateMutability": "view",
      "type": "function"
    },
    {
      "inputs": [],
      "name": "owner",
      "outputs": [
        {
          "internalType": "address",
          "name": "",
          "type": "address"
        }
      ],
      "stateMutability": "view",
      "type": "function"
    },
    {
      "inputs": [],
      "name": "renounceOwnership",
      "outputs": [],
      "stateMutability": "nonpayable",
      "type": "function"
    },
    {
      "inputs": [
        {
          "internalType": "bytes32",
          "name": "role",
          "type": "bytes32"
        },
        {
          "internalType": "address",
          "name": "account",
          "type": "address"
        }
      ],
      "name": "renounceRole",
      "outputs": [],
      "stateMutability": "nonpayable",
      "type": "function"
    },
    {
      "inputs": [
        {
          "internalType": "bytes32",
          "name": "role",
          "type": "bytes32"
        },
        {
          "internalType": "address",
          "name": "account",
          "type": "address"
        }
      ],
      "name": "revokeRole",
      "outputs": [],
      "stateMutability": "nonpayable",
      "type": "function"
    },
    {
      "inputs": [
        {
          "internalType": "bytes4",
          "name": "interfaceId",
          "type": "bytes4"
        }
      ],
      "name": "supportsInterface",
      "outputs": [
        {
          "internalType": "bool",
          "name": "",
          "type": "bool"
        }
      ],
      "stateMutability": "view",
      "type": "function"
    },
    {
      "inputs": [
        {
          "internalType": "address",
          "name": "newOwner",
          "type": "address"
        }
      ],
      "name": "transferOwnership",
      "outputs": [],
      "stateMutability": "nonpayable",
      "type": "function"
    },
    {
      "inputs": [
        {
          "internalType": "uint256",
          "name": "_movieId",
          "type": "uint256"
        },
        {
          "internalType": "string",
          "name": "_name",
          "type": "string"
        },
        {
          "internalType": "string",
          "name": "_banner",
          "type": "string"
        },
        {
          "internalType": "string",
          "name": "_imageUrl",
          "type": "string"
        },
        {
          "internalType": "string",
          "name": "_videoUrl",
          "type": "string"
        },
        {
          "internalType": "string",
          "name": "_genre",
          "type": "string"
        },
        {
          "internalType": "string",
          "name": "_description",
          "type": "string"
        },
        {
          "internalType": "string",
          "name": "_caption",
          "type": "string"
        },
        {
          "internalType": "string",
          "name": "_casts",
          "type": "string"
        },
        {
          "internalType": "string",
          "name": "_running",
          "type": "string"
        },
        {
          "internalType": "string",
          "name": "_released",
          "type": "string"
        }
      ],
      "name": "updateMovie",
      "outputs": [],
      "stateMutability": "nonpayable",
      "type": "function"
    }
  ],
  "bytecode": "0x608060405234801561001057600080fd5b5061001a3361001f565b61006f565b600080546001600160a01b038381166001600160a01b0319831681178455604051919092169283917f8be0079c531659141344cd1fd0a4f28419497f9722a3daafe3b4186f6b6457e09190a35050565b612d96806200007f6000396000f3fe608060405234801561001057600080fd5b50600436106101585760003560e01c80637cd35a0a116100c3578063a65c7ce41161007c578063a65c7ce414610306578063b6da3f0914610319578063d547741f1461032c578063d6330454146101ff578063d6cbac901461033f578063f2fde38b1461035257600080fd5b80637cd35a0a1461028857806389964e22146102a85780638da5cb5b146102bd57806391b1841b146102d857806391d14854146102eb578063a217fddf146102fe57600080fd5b80632c53b406116101155780632c53b4061461021f5780632f2ff15d1461023457806336568abe146102475780633b6559c11461025a5780636b4f6cb71461026d578063715018a61461028057600080fd5b806301ffc9a71461015d5780630ae5e73914610185578063179ffe761461019a578063248a9ca3146101ba5780632b4bbba2146101ec5780632b85dcc9146101ff575b600080fd5b61017061016b366004612309565b610365565b60405190151581526020015b60405180910390f35b61019861019336600461234f565b61039c565b005b6101ad6101a836600461236a565b610403565b60405161017c9190612510565b6101de6101c836600461236a565b6000908152600160208190526040909120015490565b60405190815260200161017c565b6101986101fa366004612523565b610a08565b61021261020d36600461236a565b610b7e565b60405161017c91906125de565b610227610c1e565b60405161017c91906125ed565b61019861024236600461264f565b61131c565b61019861025536600461264f565b611347565b61019861026836600461236a565b6113c5565b61019861027b36600461236a565b611491565b610198611535565b61029b61029636600461236a565b611549565b60405161017c919061267b565b6101de600080516020612d2183398151915281565b6000546040516001600160a01b03909116815260200161017c565b6101986102e636600461276d565b611771565b6101706102f936600461264f565b611912565b6101de600081565b610198610314366004612911565b61193d565b61019861032736600461236a565b611b3e565b61019861033a36600461264f565b611c03565b61029b61034d36600461236a565b611c29565b61019861036036600461234f565b611e0f565b60006001600160e01b03198216637965db0b60e01b148061039657506301ffc9a760e01b6001600160e01b03198316145b92915050565b6103a4611e88565b6103bc600080516020612d2183398151915282611ee2565b6007546103e190600080516020612d21833981519152906001600160a01b0316611eec565b600780546001600160a01b0319166001600160a01b0392909216919091179055565b61040b612241565b60056000838152602001908152602001600020604051806101a00160405290816000820154815260200160018201805461044490612a9c565b80601f016020809104026020016040519081016040528092919081815260200182805461047090612a9c565b80156104bd5780601f10610492576101008083540402835291602001916104bd565b820191906000526020600020905b8154815290600101906020018083116104a057829003601f168201915b505050505081526020016002820180546104d690612a9c565b80601f016020809104026020016040519081016040528092919081815260200182805461050290612a9c565b801561054f5780601f106105245761010080835404028352916020019161054f565b820191906000526020600020905b81548152906001019060200180831161053257829003601f168201915b5050505050815260200160038201805461056890612a9c565b80601f016020809104026020016040519081016040528092919081815260200182805461059490612a9c565b80156105e15780601f106105b6576101008083540402835291602001916105e1565b820191906000526020600020905b8154815290600101906020018083116105c457829003601f168201915b505050505081526020016004820180546105fa90612a9c565b80601f016020809104026020016040519081016040528092919081815260200182805461062690612a9c565b80156106735780601f1061064857610100808354040283529160200191610673565b820191906000526020600020905b81548152906001019060200180831161065657829003601f168201915b5050505050815260200160058201805461068c90612a9c565b80601f01602080910402602001604051908101604052809291908181526020018280546106b890612a9c565b80156107055780601f106106da57610100808354040283529160200191610705565b820191906000526020600020905b8154815290600101906020018083116106e857829003601f168201915b5050505050815260200160068201805461071e90612a9c565b80601f016020809104026020016040519081016040528092919081815260200182805461074a90612a9c565b80156107975780601f1061076c57610100808354040283529160200191610797565b820191906000526020600020905b81548152906001019060200180831161077a57829003601f168201915b505050505081526020016007820180546107b090612a9c565b80601f01602080910402602001604051908101604052809291908181526020018280546107dc90612a9c565b80156108295780601f106107fe57610100808354040283529160200191610829565b820191906000526020600020905b81548152906001019060200180831161080c57829003601f168201915b5050505050815260200160088201805461084290612a9c565b80601f016020809104026020016040519081016040528092919081815260200182805461086e90612a9c565b80156108bb5780601f10610890576101008083540402835291602001916108bb565b820191906000526020600020905b81548152906001019060200180831161089e57829003601f168201915b505050505081526020016009820180546108d490612a9c565b80601f016020809104026020016040519081016040528092919081815260200182805461090090612a9c565b801561094d5780601f106109225761010080835404028352916020019161094d565b820191906000526020600020905b81548152906001019060200180831161093057829003601f168201915b50505050508152602001600a8201805461096690612a9c565b80601f016020809104026020016040519081016040528092919081815260200182805461099290612a9c565b80156109df5780601f106109b4576101008083540402835291602001916109df565b820191906000526020600020905b8154815290600101906020018083116109c257829003601f168201915b5050509183525050600b8201546020820152600c9091015460ff16151560409091015292915050565b610a10611e88565b60008681526004602052604090205460ff16610a475760405162461bcd60e51b8152600401610a3e90612ad6565b60405180910390fd5b610a55600380546001019055565b6000610a6060035490565b9050610a6a6122ab565b818152602080820189815260408084018a8152606085018a8152608086018a815260a087018a8152600060c0890181815260e08a01828152610100808c018481526101208d018f81526101408e018681528f875260069d8e9052958b90208e5181559b5160018d0155985160028c0155965160038b0155945160048a0155925160058901555197870197909755516007860180549351151590920261ff00199115159190911661ffff1990931692909217919091179055516008830155915160099091015551600080516020612d4183398151915290610b6c906020808252600e908201526d151a5b595cdb1bdd08185919195960921b604082015260600190565b60405180910390a15050505050505050565b610b866122ab565b50600090815260066020818152604092839020835161016081018552815481526001820154928101929092526002810154938201939093526003830154606082015260048301546080820152600583015460a08201529082015460c0820152600782015460ff808216151560e08401526101009182900416151590820152600882015461012082015260099091015461014082015290565b6060600060015b6002548111610c67576000818152600560205260409020600c015460ff16610c555781610c5181612b1a565b9250505b80610c5f81612b1a565b915050610c25565b508067ffffffffffffffff811115610c8157610c816126ca565b604051908082528060200260200182016040528015610cba57816020015b610ca7612241565b815260200190600190039081610c9f5790505b509150600060015b6002548111611316576000818152600560205260409020600c015460ff166113045760056000828152602001908152602001600020604051806101a001604052908160008201548152602001600182018054610d1d90612a9c565b80601f0160208091040260200160405190810160405280929190818152602001828054610d4990612a9c565b8015610d965780601f10610d6b57610100808354040283529160200191610d96565b820191906000526020600020905b815481529060010190602001808311610d7957829003601f168201915b50505050508152602001600282018054610daf90612a9c565b80601f0160208091040260200160405190810160405280929190818152602001828054610ddb90612a9c565b8015610e285780601f10610dfd57610100808354040283529160200191610e28565b820191906000526020600020905b815481529060010190602001808311610e0b57829003601f168201915b50505050508152602001600382018054610e4190612a9c565b80601f0160208091040260200160405190810160405280929190818152602001828054610e6d90612a9c565b8015610eba5780601f10610e8f57610100808354040283529160200191610eba565b820191906000526020600020905b815481529060010190602001808311610e9d57829003601f168201915b50505050508152602001600482018054610ed390612a9c565b80601f0160208091040260200160405190810160405280929190818152602001828054610eff90612a9c565b8015610f4c5780601f10610f2157610100808354040283529160200191610f4c565b820191906000526020600020905b815481529060010190602001808311610f2f57829003601f168201915b50505050508152602001600582018054610f6590612a9c565b80601f0160208091040260200160405190810160405280929190818152602001828054610f9190612a9c565b8015610fde5780601f10610fb357610100808354040283529160200191610fde565b820191906000526020600020905b815481529060010190602001808311610fc157829003601f168201915b50505050508152602001600682018054610ff790612a9c565b80601f016020809104026020016040519081016040528092919081815260200182805461102390612a9c565b80156110705780601f1061104557610100808354040283529160200191611070565b820191906000526020600020905b81548152906001019060200180831161105357829003601f168201915b5050505050815260200160078201805461108990612a9c565b80601f01602080910402602001604051908101604052809291908181526020018280546110b590612a9c565b80156111025780601f106110d757610100808354040283529160200191611102565b820191906000526020600020905b8154815290600101906020018083116110e557829003601f168201915b5050505050815260200160088201805461111b90612a9c565b80601f016020809104026020016040519081016040528092919081815260200182805461114790612a9c565b80156111945780601f1061116957610100808354040283529160200191611194565b820191906000526020600020905b81548152906001019060200180831161117757829003601f168201915b505050505081526020016009820180546111ad90612a9c565b80601f01602080910402602001604051908101604052809291908181526020018280546111d990612a9c565b80156112265780601f106111fb57610100808354040283529160200191611226565b820191906000526020600020905b81548152906001019060200180831161120957829003601f168201915b50505050508152602001600a8201805461123f90612a9c565b80601f016020809104026020016040519081016040528092919081815260200182805461126b90612a9c565b80156112b85780601f1061128d576101008083540402835291602001916112b8565b820191906000526020600020905b81548152906001019060200180831161129b57829003601f168201915b5050509183525050600b8201546020820152600c9091015460ff16151560409091015284836112e681612b1a565b9450815181106112f8576112f8612b33565b60200260200101819052505b8061130e81612b1a565b915050610cc2565b50505090565b6000828152600160208190526040909120015461133881611f53565b6113428383611f5d565b505050565b6001600160a01b03811633146113b75760405162461bcd60e51b815260206004820152602f60248201527f416363657373436f6e74726f6c3a2063616e206f6e6c792072656e6f756e636560448201526e103937b632b9903337b91039b2b63360891b6064820152608401610a3e565b6113c18282611eec565b5050565b6113dd600080516020612d2183398151915233611912565b6114295760405162461bcd60e51b815260206004820152601f60248201527f43616c6c6572206973206e6f742061207469636b657420636f6e7472616374006044820152606401610a3e565b60008181526006602052604090819020600701805460ff1916600117905551600080516020612d41833981519152906114869060208082526010908201526f151a5b595cdb1bdd0819195b195d195960821b604082015260600190565b60405180910390a150565b611499611e88565b60008181526004602052604090205460ff166114c75760405162461bcd60e51b8152600401610a3e90612ad6565b6000818152600560209081526040808320600c01805460ff199081166001179091556004909252918290208054909116905551600080516020612d4183398151915290611486906020808252600d908201526c135bdd9a594819195b195d1959609a1b604082015260600190565b61153d611e88565b6115476000611fc8565b565b60606000805b6003548110156115d0578360066000611569846001612b49565b8152602001908152602001600020600101541480156115ab575060066000611592836001612b49565b815260208101919091526040016000206007015460ff16155b156115be57816115ba81612b1a565b9250505b806115c881612b1a565b91505061154f565b508067ffffffffffffffff8111156115ea576115ea6126ca565b60405190808252806020026020018201604052801561162357816020015b6116106122ab565b8152602001906001900390816116085790505b5091506000805b600354811015611769578460066000611644846001612b49565b81526020019081526020016000206001015414801561168657506006600061166d836001612b49565b815260208101919091526040016000206007015460ff16155b15611757576006600061169a836001612b49565b81526020808201929092526040908101600020815161016081018352815481526001820154938101939093526002810154918301919091526003810154606083015260048101546080830152600581015460a0830152600681015460c0830152600781015460ff808216151560e08501526101009182900416151590830152600881015461012083015260090154610140820152848361173981612b1a565b94508151811061174b5761174b612b33565b60200260200101819052505b8061176181612b1a565b91505061162a565b505050919050565b611779611e88565b60008b81526004602052604090205460ff166117a75760405162461bcd60e51b8152600401610a3e90612ad6565b60008b81526005602052604090206001016117c28b82612baa565b5060008b81526005602052604090206002016117de8a82612baa565b5060008b81526005602052604090206003016117fa8982612baa565b5060008b81526005602052604090206004016118168882612baa565b5060008b8152600560208190526040909120016118338782612baa565b5060008b815260056020526040902060060161184f8682612baa565b5060008b815260056020526040902060070161186b8582612baa565b5060008b81526005602052604090206008016118878482612baa565b5060008b81526005602052604090206009016118a38382612baa565b5060008b8152600560205260409020600a016118bf8282612baa565b50600080516020612d418339815191526040516118fd906020808252600d908201526c135bdd9a59481d5c19185d1959609a1b604082015260600190565b60405180910390a15050505050505050505050565b60009182526001602090815260408084206001600160a01b0393909316845291905290205460ff1690565b611945611e88565b611953600280546001019055565b600061195e60025490565b9050611968612241565b818152602081018c9052604081018b9052606081018a90526080810189905260a0810188905260c0810187905260e081018690526101008101859052610120810184905261014081018390526119bc612018565b6101608201526000828152600560209081526040909120825181559082015182919060018201906119ed9082612baa565b5060408201516002820190611a029082612baa565b5060608201516003820190611a179082612baa565b5060808201516004820190611a2c9082612baa565b5060a08201516005820190611a419082612baa565b5060c08201516006820190611a569082612baa565b5060e08201516007820190611a6b9082612baa565b506101008201516008820190611a819082612baa565b506101208201516009820190611a979082612baa565b50610140820151600a820190611aad9082612baa565b50610160820151600b82015561018090910151600c909101805491151560ff1992831617905560008381526004602052604090819020805490921660011790915551600080516020612d4183398151915290611b28906020808252600b908201526a135bdd9a5948185919195960aa1b604082015260600190565b60405180910390a1505050505050505050505050565b611b56600080516020612d2183398151915233611912565b611ba25760405162461bcd60e51b815260206004820152601f60248201527f43616c6c6572206973206e6f742061207469636b657420636f6e7472616374006044820152606401610a3e565b60008181526006602052604090819020600701805461ff00191661010017905551600080516020612d418339815191529061148690602080825260129082015271151a5b595cdb1bdd0818dbdb5c1b195d195960721b604082015260600190565b60008281526001602081905260409091200154611c1f81611f53565b6113428383611eec565b60606000805b600354811015611cb0578360066000611c49846001612b49565b815260200190815260200160002060080154148015611c8b575060066000611c72836001612b49565b815260208101919091526040016000206007015460ff16155b15611c9e5781611c9a81612b1a565b9250505b80611ca881612b1a565b915050611c2f565b508067ffffffffffffffff811115611cca57611cca6126ca565b604051908082528060200260200182016040528015611d0357816020015b611cf06122ab565b815260200190600190039081611ce85790505b5091506000805b600354811015611769578460066000611d24846001612b49565b815260200190815260200160002060080154148015611d66575060066000611d4d836001612b49565b815260208101919091526040016000206007015460ff16155b15611dfd5760066000611d7a836001612b49565b815260200190815260200160002060030154848381518110611d9e57611d9e612b33565b60209081029190910101516060015260066000611dbc836001612b49565b815260200190815260200160002060040154848380611dda90612b1a565b945081518110611dec57611dec612b33565b602002602001015160800181815250505b80611e0781612b1a565b915050611d0a565b611e17611e88565b6001600160a01b038116611e7c5760405162461bcd60e51b815260206004820152602660248201527f4f776e61626c653a206e6577206f776e657220697320746865207a65726f206160448201526564647265737360d01b6064820152608401610a3e565b611e8581611fc8565b50565b6000546001600160a01b031633146115475760405162461bcd60e51b815260206004820181905260248201527f4f776e61626c653a2063616c6c6572206973206e6f7420746865206f776e65726044820152606401610a3e565b6113c18282611f5d565b611ef68282611912565b156113c15760008281526001602090815260408083206001600160a01b0385168085529252808320805460ff1916905551339285917ff6391f5c32d9c69d2a47ea670b442974b53935d1edc7fd64eb21e047a839171b9190a45050565b611e858133612033565b611f678282611912565b6113c15760008281526001602081815260408084206001600160a01b0386168086529252808420805460ff19169093179092559051339285917f2f8788117e7eff1d82e926ec794901d17c78024a50270940304540a733656f0d9190a45050565b600080546001600160a01b038381166001600160a01b0319831681178455604051919092169283917f8be0079c531659141344cd1fd0a4f28419497f9722a3daafe3b4186f6b6457e09190a35050565b600080612027426103e8612c6a565b610396906103e8612b49565b61203d8282611912565b6113c15761204a8161208c565b61205583602061209e565b604051602001612066929190612c81565b60408051601f198184030181529082905262461bcd60e51b8252610a3e91600401612cf6565b60606103966001600160a01b03831660145b606060006120ad836002612c6a565b6120b8906002612b49565b67ffffffffffffffff8111156120d0576120d06126ca565b6040519080825280601f01601f1916602001820160405280156120fa576020820181803683370190505b509050600360fc1b8160008151811061211557612115612b33565b60200101906001600160f81b031916908160001a905350600f60fb1b8160018151811061214457612144612b33565b60200101906001600160f81b031916908160001a9053506000612168846002612c6a565b612173906001612b49565b90505b60018111156121eb576f181899199a1a9b1b9c1cb0b131b232b360811b85600f16601081106121a7576121a7612b33565b1a60f81b8282815181106121bd576121bd612b33565b60200101906001600160f81b031916908160001a90535060049490941c936121e481612d09565b9050612176565b50831561223a5760405162461bcd60e51b815260206004820181905260248201527f537472696e67733a20686578206c656e67746820696e73756666696369656e746044820152606401610a3e565b9392505050565b604051806101a001604052806000815260200160608152602001606081526020016060815260200160608152602001606081526020016060815260200160608152602001606081526020016060815260200160608152602001600081526020016000151581525090565b6040518061016001604052806000815260200160008152602001600081526020016000815260200160008152602001600081526020016000815260200160001515815260200160001515815260200160008152602001600081525090565b60006020828403121561231b57600080fd5b81356001600160e01b03198116811461223a57600080fd5b80356001600160a01b038116811461234a57600080fd5b919050565b60006020828403121561236157600080fd5b61223a82612333565b60006020828403121561237c57600080fd5b5035919050565b60005b8381101561239e578181015183820152602001612386565b50506000910152565b600081518084526123bf816020860160208601612383565b601f01601f19169290920160200192915050565b60006101a08251845260208301518160208601526123f3828601826123a7565b9150506040830151848203604086015261240d82826123a7565b9150506060830151848203606086015261242782826123a7565b9150506080830151848203608086015261244182826123a7565b91505060a083015184820360a086015261245b82826123a7565b91505060c083015184820360c086015261247582826123a7565b91505060e083015184820360e086015261248f82826123a7565b91505061010080840151858303828701526124aa83826123a7565b9250505061012080840151858303828701526124c683826123a7565b9250505061014080840151858303828701526124e283826123a7565b92505050610160808401518186015250610180808401516125068287018215159052565b5090949350505050565b60208152600061223a60208301846123d3565b60008060008060008060c0878903121561253c57600080fd5b505084359660208601359650604086013595606081013595506080810135945060a0013592509050565b805182526020810151602083015260408101516040830152606081015160608301526080810151608083015260a081015160a083015260c081015160c083015260e08101516125b960e084018215159052565b5061010081810151151590830152610120808201519083015261014090810151910152565b61016081016103968284612566565b6000602080830181845280855180835260408601915060408160051b870101925083870160005b8281101561264257603f198886030184526126308583516123d3565b94509285019290850190600101612614565b5092979650505050505050565b6000806040838503121561266257600080fd5b8235915061267260208401612333565b90509250929050565b6020808252825182820181905260009190848201906040850190845b818110156126be576126aa838551612566565b928401926101609290920191600101612697565b50909695505050505050565b634e487b7160e01b600052604160045260246000fd5b600082601f8301126126f157600080fd5b813567ffffffffffffffff8082111561270c5761270c6126ca565b604051601f8301601f19908116603f01168101908282118183101715612734576127346126ca565b8160405283815286602085880101111561274d57600080fd5b836020870160208301376000602085830101528094505050505092915050565b60008060008060008060008060008060006101608c8e03121561278f57600080fd5b8b359a5067ffffffffffffffff8060208e013511156127ad57600080fd5b6127bd8e60208f01358f016126e0565b9a508060408e013511156127d057600080fd5b6127e08e60408f01358f016126e0565b99508060608e013511156127f357600080fd5b6128038e60608f01358f016126e0565b98508060808e0135111561281657600080fd5b6128268e60808f01358f016126e0565b97508060a08e0135111561283957600080fd5b6128498e60a08f01358f016126e0565b96508060c08e0135111561285c57600080fd5b61286c8e60c08f01358f016126e0565b95508060e08e0135111561287f57600080fd5b61288f8e60e08f01358f016126e0565b9450806101008e013511156128a357600080fd5b6128b48e6101008f01358f016126e0565b9350806101208e013511156128c857600080fd5b6128d98e6101208f01358f016126e0565b9250806101408e013511156128ed57600080fd5b506128ff8d6101408e01358e016126e0565b90509295989b509295989b9093969950565b6000806000806000806000806000806101408b8d03121561293157600080fd5b8a3567ffffffffffffffff8082111561294957600080fd5b6129558e838f016126e0565b9b5060208d013591508082111561296b57600080fd5b6129778e838f016126e0565b9a5060408d013591508082111561298d57600080fd5b6129998e838f016126e0565b995060608d01359150808211156129af57600080fd5b6129bb8e838f016126e0565b985060808d01359150808211156129d157600080fd5b6129dd8e838f016126e0565b975060a08d01359150808211156129f357600080fd5b6129ff8e838f016126e0565b965060c08d0135915080821115612a1557600080fd5b612a218e838f016126e0565b955060e08d0135915080821115612a3757600080fd5b612a438e838f016126e0565b94506101008d0135915080821115612a5a57600080fd5b612a668e838f016126e0565b93506101208d0135915080821115612a7d57600080fd5b50612a8a8d828e016126e0565b9150509295989b9194979a5092959850565b600181811c90821680612ab057607f821691505b602082108103612ad057634e487b7160e01b600052602260045260246000fd5b50919050565b602080825260149082015273135bdd9a5948191bd95cc81b9bdd08195e1a5cdd60621b604082015260600190565b634e487b7160e01b600052601160045260246000fd5b600060018201612b2c57612b2c612b04565b5060010190565b634e487b7160e01b600052603260045260246000fd5b8082018082111561039657610396612b04565b601f82111561134257600081815260208120601f850160051c81016020861015612b835750805b601f850160051c820191505b81811015612ba257828155600101612b8f565b505050505050565b815167ffffffffffffffff811115612bc457612bc46126ca565b612bd881612bd28454612a9c565b84612b5c565b602080601f831160018114612c0d5760008415612bf55750858301515b600019600386901b1c1916600185901b178555612ba2565b600085815260208120601f198616915b82811015612c3c57888601518255948401946001909101908401612c1d565b5085821015612c5a5787850151600019600388901b60f8161c191681555b5050505050600190811b01905550565b808202811582820484141761039657610396612b04565b7f416363657373436f6e74726f6c3a206163636f756e7420000000000000000000815260008351612cb9816017850160208801612383565b7001034b99036b4b9b9b4b733903937b6329607d1b6017918401918201528351612cea816028840160208801612383565b01602801949350505050565b60208152600061223a60208301846123a7565b600081612d1857612d18612b04565b50600019019056fe84c0e6936832819e27761bd60cca25b2ef9a185b925c2c99a066a29a80d42f038b2c14fe955d044ef95ba32b88d2ceb87c6f73fcefdcebe906063a6d75690f27a2646970667358221220acae2d3ae8eb7c2ab0e5efaa5b2d075e4eded637dbc586a6e7157476f0399ffd64736f6c63430008130033",
  "linkReferences": {},
  "deployedLinkReferences": {}
}