{
  "_format": "hh-sol-artifact-1",
  "contractName": "DappCinemas",
  "sourceName": "contracts/DappCinemas.sol",
  "abi": [
    {
      "anonymous": false,
      "inputs": [
        {
          "indexed": false,
          "internalType": "string",
          "name": "actionType",
          "type": "string"
        }
      ],
      "name": "Action",
      "type": "event"
    },
    {
      "anonymous": false,
      "inputs": [
        {
          "indexed": true,
          "internalType": "address",
          "name": "previousOwner",
          "type": "address"
        },
        {
          "indexed": true,
          "internalType": "address",
          "name": "newOwner",
          "type": "address"
        }
      ],
      "name": "OwnershipTransferred",
      "type": "event"
    },
    {
      "anonymous": false,
      "inputs": [
        {
          "indexed": true,
          "internalType": "bytes32",
          "name": "role",
          "type": "bytes32"
        },
        {
          "indexed": true,
          "internalType": "bytes32",
          "name": "previousAdminRole",
          "type": "bytes32"
        },
        {
          "indexed": true,
          "internalType": "bytes32",
          "name": "newAdminRole",
          "type": "bytes32"
        }
      ],
      "name": "RoleAdminChanged",
      "type": "event"
    },
    {
      "anonymous": false,
      "inputs": [
        {
          "indexed": true,
          "internalType": "bytes32",
          "name": "role",
          "type": "bytes32"
        },
        {
          "indexed": true,
          "internalType": "address",
          "name": "account",
          "type": "address"
        },
        {
          "indexed": true,
          "internalType": "address",
          "name": "sender",
          "type": "address"
        }
      ],
      "name": "RoleGranted",
      "type": "event"
    },
    {
      "anonymous": false,
      "inputs": [
        {
          "indexed": true,
          "internalType": "bytes32",
          "name": "role",
          "type": "bytes32"
        },
        {
          "indexed": true,
          "internalType": "address",
          "name": "account",
          "type": "address"
        },
        {
          "indexed": true,
          "internalType": "address",
          "name": "sender",
          "type": "address"
        }
      ],
      "name": "RoleRevoked",
      "type": "event"
    },
    {
      "inputs": [],
      "name": "DEFAULT_ADMIN_ROLE",
      "outputs": [
        {
          "internalType": "bytes32",
          "name": "",
          "type": "bytes32"
        }
      ],
      "stateMutability": "view",
      "type": "function"
    },
    {
      "inputs": [],
      "name": "TICKET_ROLE",
      "outputs": [
        {
          "internalType": "bytes32",
          "name": "",
          "type": "bytes32"
        }
      ],
      "stateMutability": "view",
      "type": "function"
    },
    {
      "inputs": [
        {
          "internalType": "string",
          "name": "_name",
          "type": "string"
        },
        {
          "internalType": "string",
          "name": "_banner",
          "type": "string"
        },
        {
          "internalType": "string",
          "name": "_imageUrl",
          "type": "string"
        },
        {
          "internalType": "string",
          "name": "_videoUrl",
          "type": "string"
        },
        {
          "internalType": "string",
          "name": "_genre",
          "type": "string"
        },
        {
          "internalType": "string",
          "name": "_description",
          "type": "string"
        },
        {
          "internalType": "string",
          "name": "_caption",
          "type": "string"
        },
        {
          "internalType": "string",
          "name": "_casts",
          "type": "string"
        },
        {
          "internalType": "string",
          "name": "_running",
          "type": "string"
        },
        {
          "internalType": "string",
          "name": "_released",
          "type": "string"
        }
      ],
      "name": "addMovie",
      "outputs": [],
      "stateMutability": "nonpayable",
      "type": "function"
    },
    {
      "inputs": [
        {
          "internalType": "uint256",
          "name": "_movieId",
          "type": "uint256"
        },
        {
          "internalType": "uint256[]",
          "name": "_ticketCosts",
          "type": "uint256[]"
        },
        {
          "internalType": "uint256[]",
          "name": "_startTimes",
          "type": "uint256[]"
        },
        {
          "internalType": "uint256[]",
          "name": "_endTimes",
          "type": "uint256[]"
        },
        {
          "internalType": "uint256[]",
          "name": "_capacities",
          "type": "uint256[]"
        },
        {
          "internalType": "uint256[]",
          "name": "_days",
          "type": "uint256[]"
        }
      ],
      "name": "addTimeSlot",
      "outputs": [],
      "stateMutability": "nonpayable",
      "type": "function"
    },
    {
      "inputs": [
        {
          "internalType": "uint256",
          "name": "_slotId",
          "type": "uint256"
        }
      ],
      "name": "completeTimeSlot",
      "outputs": [],
      "stateMutability": "nonpayable",
      "type": "function"
    },
    {
      "inputs": [
        {
          "internalType": "uint256",
          "name": "_movieId",
          "type": "uint256"
        }
      ],
      "name": "deleteMovie",
      "outputs": [],
      "stateMutability": "nonpayable",
      "type": "function"
    },
    {
      "inputs": [
        {
          "internalType": "uint256",
          "name": "_slotId",
          "type": "uint256"
        }
      ],
      "name": "deleteTimeSlot",
      "outputs": [],
      "stateMutability": "nonpayable",
      "type": "function"
    },
    {
      "inputs": [
        {
          "internalType": "uint256",
          "name": "movieId",
          "type": "uint256"
        }
      ],
      "name": "getMovie",
      "outputs": [
        {
          "components": [
            {
              "internalType": "uint256",
              "name": "id",
              "type": "uint256"
            },
            {
              "internalType": "string",
              "name": "name",
              "type": "string"
            },
            {
              "internalType": "string",
              "name": "banner",
              "type": "string"
            },
            {
              "internalType": "string",
              "name": "imageUrl",
              "type": "string"
            },
            {
              "internalType": "string",
              "name": "videoUrl",
              "type": "string"
            },
            {
              "internalType": "string",
              "name": "genre",
              "type": "string"
            },
            {
              "internalType": "string",
              "name": "description",
              "type": "string"
            },
            {
              "internalType": "string",
              "name": "caption",
              "type": "string"
            },
            {
              "internalType": "string",
              "name": "casts",
              "type": "string"
            },
            {
              "internalType": "string",
              "name": "running",
              "type": "string"
            },
            {
              "internalType": "string",
              "name": "released",
              "type": "string"
            },
            {
              "internalType": "uint256",
              "name": "timestamp",
              "type": "uint256"
            },
            {
              "internalType": "bool",
              "name": "deleted",
              "type": "bool"
            }
          ],
          "internalType": "struct DappCinemas.MovieStruct",
          "name": "",
          "type": "tuple"
        }
      ],
      "stateMutability": "view",
      "type": "function"
    },
    {
      "inputs": [],
      "name": "getMovies",
      "outputs": [
        {
          "components": [
            {
              "internalType": "uint256",
              "name": "id",
              "type": "uint256"
            },
            {
              "internalType": "string",
              "name": "name",
              "type": "string"
            },
            {
              "internalType": "string",
              "name": "banner",
              "type": "string"
            },
            {
              "internalType": "string",
              "name": "imageUrl",
              "type": "string"
            },
            {
              "internalType": "string",
              "name": "videoUrl",
              "type": "string"
            },
            {
              "internalType": "string",
              "name": "genre",
              "type": "string"
            },
            {
              "internalType": "string",
              "name": "description",
              "type": "string"
            },
            {
              "internalType": "string",
              "name": "caption",
              "type": "string"
            },
            {
              "internalType": "string",
              "name": "casts",
              "type": "string"
            },
            {
              "internalType": "string",
              "name": "running",
              "type": "string"
            },
            {
              "internalType": "string",
              "name": "released",
              "type": "string"
            },
            {
              "internalType": "uint256",
              "name": "timestamp",
              "type": "uint256"
            },
            {
              "internalType": "bool",
              "name": "deleted",
              "type": "bool"
            }
          ],
          "internalType": "struct DappCinemas.MovieStruct[]",
          "name": "Movies",
          "type": "tuple[]"
        }
      ],
      "stateMutability": "view",
      "type": "function"
    },
    {
      "inputs": [
        {
          "internalType": "bytes32",
          "name": "role",
          "type": "bytes32"
        }
      ],
      "name": "getRoleAdmin",
      "outputs": [
        {
          "internalType": "bytes32",
          "name": "",
          "type": "bytes32"
        }
      ],
      "stateMutability": "view",
      "type": "function"
    },
    {
      "inputs": [
        {
          "internalType": "uint256",
          "name": "slotId",
          "type": "uint256"
        }
      ],
      "name": "getTimeSlot",
      "outputs": [
        {
          "components": [
            {
              "internalType": "uint256",
              "name": "id",
              "type": "uint256"
            },
            {
              "internalType": "uint256",
              "name": "movieId",
              "type": "uint256"
            },
            {
              "internalType": "uint256",
              "name": "ticketCost",
              "type": "uint256"
            },
            {
              "internalType": "uint256",
              "name": "startTime",
              "type": "uint256"
            },
            {
              "internalType": "uint256",
              "name": "endTime",
              "type": "uint256"
            },
            {
              "internalType": "uint256",
              "name": "capacity",
              "type": "uint256"
            },
            {
              "internalType": "uint256",
              "name": "seats",
              "type": "uint256"
            },
            {
              "internalType": "bool",
              "name": "deleted",
              "type": "bool"
            },
            {
              "internalType": "bool",
              "name": "completed",
              "type": "bool"
            },
            {
              "internalType": "uint256",
              "name": "day",
              "type": "uint256"
            },
            {
              "internalType": "uint256",
              "name": "balance",
              "type": "uint256"
            }
          ],
          "internalType": "struct DappCinemas.TimeSlotStruct",
          "name": "",
          "type": "tuple"
        }
      ],
      "stateMutability": "view",
      "type": "function"
    },
    {
      "inputs": [
        {
          "internalType": "uint256",
          "name": "movieId",
          "type": "uint256"
        }
      ],
      "name": "getTimeSlots",
      "outputs": [
        {
          "components": [
            {
              "internalType": "uint256",
              "name": "id",
              "type": "uint256"
            },
            {
              "internalType": "uint256",
              "name": "movieId",
              "type": "uint256"
            },
            {
              "internalType": "uint256",
              "name": "ticketCost",
              "type": "uint256"
            },
            {
              "internalType": "uint256",
              "name": "startTime",
              "type": "uint256"
            },
            {
              "internalType": "uint256",
              "name": "endTime",
              "type": "uint256"
            },
            {
              "internalType": "uint256",
              "name": "capacity",
              "type": "uint256"
            },
            {
              "internalType": "uint256",
              "name": "seats",
              "type": "uint256"
            },
            {
              "internalType": "bool",
              "name": "deleted",
              "type": "bool"
            },
            {
              "internalType": "bool",
              "name": "completed",
              "type": "bool"
            },
            {
              "internalType": "uint256",
              "name": "day",
              "type": "uint256"
            },
            {
              "internalType": "uint256",
              "name": "balance",
              "type": "uint256"
            }
          ],
          "internalType": "struct DappCinemas.TimeSlotStruct[]",
          "name": "MovieSlots",
          "type": "tuple[]"
        }
      ],
      "stateMutability": "view",
      "type": "function"
    },
    {
      "inputs": [
        {
          "internalType": "uint256",
          "name": "day",
          "type": "uint256"
        }
      ],
      "name": "getTimeSlotsByDay",
      "outputs": [
        {
          "components": [
            {
              "internalType": "uint256",
              "name": "id",
              "type": "uint256"
            },
            {
              "internalType": "uint256",
              "name": "movieId",
              "type": "uint256"
            },
            {
              "internalType": "uint256",
              "name": "ticketCost",
              "type": "uint256"
            },
            {
              "internalType": "uint256",
              "name": "startTime",
              "type": "uint256"
            },
            {
              "internalType": "uint256",
              "name": "endTime",
              "type": "uint256"
            },
            {
              "internalType": "uint256",
              "name": "capacity",
              "type": "uint256"
            },
            {
              "internalType": "uint256",
              "name": "seats",
              "type": "uint256"
            },
            {
              "internalType": "bool",
              "name": "deleted",
              "type": "bool"
            },
            {
              "internalType": "bool",
              "name": "completed",
              "type": "bool"
            },
            {
              "internalType": "uint256",
              "name": "day",
              "type": "uint256"
            },
            {
              "internalType": "uint256",
              "name": "balance",
              "type": "uint256"
            }
          ],
          "internalType": "struct DappCinemas.TimeSlotStruct[]",
          "name": "MovieSlots",
          "type": "tuple[]"
        }
      ],
      "stateMutability": "view",
      "type": "function"
    },
    {
      "inputs": [
        {
          "internalType": "address",
          "name": "_dappTicket",
          "type": "address"
        }
      ],
      "name": "grantAccess",
      "outputs": [],
      "stateMutability": "nonpayable",
      "type": "function"
    },
    {
      "inputs": [
        {
          "internalType": "bytes32",
          "name": "role",
          "type": "bytes32"
        },
        {
          "internalType": "address",
          "name": "account",
          "type": "address"
        }
      ],
      "name": "grantRole",
      "outputs": [],
      "stateMutability": "nonpayable",
      "type": "function"
    },
    {
      "inputs": [
        {
          "internalType": "bytes32",
          "name": "role",
          "type": "bytes32"
        },
        {
          "internalType": "address",
          "name": "account",
          "type": "address"
        }
      ],
      "name": "hasRole",
      "outputs": [
        {
          "internalType": "bool",
          "name": "",
          "type": "bool"
        }
      ],
      "stateMutability": "view",
      "type": "function"
    },
    {
      "inputs": [
        {
          "internalType": "uint256",
          "name": "slotId",
          "type": "uint256"
        }
      ],
      "name": "hasSlot",
      "outputs": [
        {
          "components": [
            {
              "internalType": "uint256",
              "name": "id",
              "type": "uint256"
            },
            {
              "internalType": "uint256",
              "name": "movieId",
              "type": "uint256"
            },
            {
              "internalType": "uint256",
              "name": "ticketCost",
              "type": "uint256"
            },
            {
              "internalType": "uint256",
              "name": "startTime",
              "type": "uint256"
            },
            {
              "internalType": "uint256",
              "name": "endTime",
              "type": "uint256"
            },
            {
              "internalType": "uint256",
              "name": "capacity",
              "type": "uint256"
            },
            {
              "internalType": "uint256",
              "name": "seats",
              "type": "uint256"
            },
            {
              "internalType": "bool",
              "name": "deleted",
              "type": "bool"
            },
            {
              "internalType": "bool",
              "name": "completed",
              "type": "bool"
            },
            {
              "internalType": "uint256",
              "name": "day",
              "type": "uint256"
            },
            {
              "internalType": "uint256",
              "name": "balance",
              "type": "uint256"
            }
          ],
          "internalType": "struct DappCinemas.TimeSlotStruct",
          "name": "",
          "type": "tuple"
        }
      ],
      "stateMutability": "view",
      "type": "function"
    },
    {
      "inputs": [],
      "name": "owner",
      "outputs": [
        {
          "internalType": "address",
          "name": "",
          "type": "address"
        }
      ],
      "stateMutability": "view",
      "type": "function"
    },
    {
      "inputs": [],
      "name": "renounceOwnership",
      "outputs": [],
      "stateMutability": "nonpayable",
      "type": "function"
    },
    {
      "inputs": [
        {
          "internalType": "bytes32",
          "name": "role",
          "type": "bytes32"
        },
        {
          "internalType": "address",
          "name": "account",
          "type": "address"
        }
      ],
      "name": "renounceRole",
      "outputs": [],
      "stateMutability": "nonpayable",
      "type": "function"
    },
    {
      "inputs": [
        {
          "internalType": "bytes32",
          "name": "role",
          "type": "bytes32"
        },
        {
          "internalType": "address",
          "name": "account",
          "type": "address"
        }
      ],
      "name": "revokeRole",
      "outputs": [],
      "stateMutability": "nonpayable",
      "type": "function"
    },
    {
      "inputs": [
        {
          "internalType": "bytes4",
          "name": "interfaceId",
          "type": "bytes4"
        }
      ],
      "name": "supportsInterface",
      "outputs": [
        {
          "internalType": "bool",
          "name": "",
          "type": "bool"
        }
      ],
      "stateMutability": "view",
      "type": "function"
    },
    {
      "inputs": [
        {
          "internalType": "address",
          "name": "newOwner",
          "type": "address"
        }
      ],
      "name": "transferOwnership",
      "outputs": [],
      "stateMutability": "nonpayable",
      "type": "function"
    },
    {
      "inputs": [
        {
          "internalType": "uint256",
          "name": "_movieId",
          "type": "uint256"
        },
        {
          "internalType": "string",
          "name": "_name",
          "type": "string"
        },
        {
          "internalType": "string",
          "name": "_banner",
          "type": "string"
        },
        {
          "internalType": "string",
          "name": "_imageUrl",
          "type": "string"
        },
        {
          "internalType": "string",
          "name": "_videoUrl",
          "type": "string"
        },
        {
          "internalType": "string",
          "name": "_genre",
          "type": "string"
        },
        {
          "internalType": "string",
          "name": "_description",
          "type": "string"
        },
        {
          "internalType": "string",
          "name": "_caption",
          "type": "string"
        },
        {
          "internalType": "string",
          "name": "_casts",
          "type": "string"
        },
        {
          "internalType": "string",
          "name": "_running",
          "type": "string"
        },
        {
          "internalType": "string",
          "name": "_released",
          "type": "string"
        }
      ],
      "name": "updateMovie",
      "outputs": [],
      "stateMutability": "nonpayable",
      "type": "function"
    }
  ],
  "bytecode": "0x608060405234801561001057600080fd5b5061001a3361001f565b61006f565b600080546001600160a01b038381166001600160a01b0319831681178455604051919092169283917f8be0079c531659141344cd1fd0a4f28419497f9722a3daafe3b4186f6b6457e09190a35050565b6130f3806200007f6000396000f3fe608060405234801561001057600080fd5b50600436106101585760003560e01c80637cd35a0a116100c3578063a65c7ce41161007c578063a65c7ce414610306578063b6da3f0914610319578063d547741f1461032c578063d6330454146101ff578063d6cbac901461033f578063f2fde38b1461035257600080fd5b80637cd35a0a1461028857806389964e22146102a85780638da5cb5b146102bd57806391b1841b146102d857806391d14854146102eb578063a217fddf146102fe57600080fd5b80632c53b406116101155780632c53b4061461021f5780632f2ff15d1461023457806336568abe146102475780633b6559c11461025a5780636b4f6cb71461026d578063715018a61461028057600080fd5b806301ffc9a71461015d5780630ae5e739146101855780630ee2c58c1461019a578063179ffe76146101ad578063248a9ca3146101cd5780632b85dcc9146101ff575b600080fd5b61017061016b36600461253b565b610365565b60405190151581526020015b60405180910390f35b610198610193366004612581565b61039c565b005b6101986101a8366004612663565b610403565b6101c06101bb36600461273d565b6107ab565b60405161017c91906128e3565b6101f16101db36600461273d565b6000908152600160208190526040909120015490565b60405190815260200161017c565b61021261020d36600461273d565b610db0565b60405161017c919061296e565b610227610e50565b60405161017c919061297d565b6101986102423660046129df565b61154e565b6101986102553660046129df565b611579565b61019861026836600461273d565b6115f7565b61019861027b36600461273d565b6116c3565b610198611767565b61029b61029636600461273d565b61177b565b60405161017c9190612a0b565b6101f160008051602061307e83398151915281565b6000546040516001600160a01b03909116815260200161017c565b6101986102e6366004612aca565b6119a3565b6101706102f93660046129df565b611b44565b6101f1600081565b610198610314366004612c6e565b611b6f565b61019861032736600461273d565b611d70565b61019861033a3660046129df565b611e35565b61029b61034d36600461273d565b611e5b565b610198610360366004612581565b612041565b60006001600160e01b03198216637965db0b60e01b148061039657506301ffc9a760e01b6001600160e01b03198316145b92915050565b6103a46120ba565b6103bc60008051602061307e83398151915282612114565b6007546103e19060008051602061307e833981519152906001600160a01b031661211e565b600780546001600160a01b0319166001600160a01b0392909216919091179055565b61040b6120ba565b60008681526004602052604090205460ff166104425760405162461bcd60e51b815260040161043990612df9565b60405180910390fd5b60008551116104935760405162461bcd60e51b815260206004820152601b60248201527f5469636b657420636f7374732063616e6e6f74206265206e756c6c00000000006044820152606401610439565b60008451116104e45760405162461bcd60e51b815260206004820152601a60248201527f53746172742074696d65732063616e6e6f74206265206e756c6c0000000000006044820152606401610439565b60008351116105355760405162461bcd60e51b815260206004820152601860248201527f456e642074696d65732063616e6e6f74206265206e756c6c00000000000000006044820152606401610439565b60008251116105865760405162461bcd60e51b815260206004820152601960248201527f436170616369746965732063616e6e6f74206265206e756c6c000000000000006044820152606401610439565b60008151116105cd5760405162461bcd60e51b815260206004820152601360248201527211185e5cc818d85b9b9bdd081899481b9d5b1b606a1b6044820152606401610439565b60005b855181101561075c576105e7600380546001019055565b60006105f260035490565b90506105fc612473565b81815260208101899052875188908490811061061a5761061a612e27565b602002602001015181604001818152505086838151811061063d5761063d612e27565b602002602001015181606001818152505085838151811061066057610660612e27565b602002602001015181608001818152505084838151811061068357610683612e27565b60200260200101518160a00181815250508383815181106106a6576106a6612e27565b60209081029190910181015161012083019081526000938452600680835260409485902084518155928401516001840155938301516002830155606083015160038301556080830151600483015560a0830151600583015560c08301519382019390935560e08201516007820180546101008086015115150261ff00199315159390931661ffff19909116179190911790559151600883015561014001516009909101558061075481612e53565b9150506105d0565b5060008051602061309e83398151915260405161079b906020808252600e908201526d151a5b595cdb1bdd08185919195960921b604082015260600190565b60405180910390a1505050505050565b6107b36124d1565b60056000838152602001908152602001600020604051806101a0016040529081600082015481526020016001820180546107ec90612e6c565b80601f016020809104026020016040519081016040528092919081815260200182805461081890612e6c565b80156108655780601f1061083a57610100808354040283529160200191610865565b820191906000526020600020905b81548152906001019060200180831161084857829003601f168201915b5050505050815260200160028201805461087e90612e6c565b80601f01602080910402602001604051908101604052809291908181526020018280546108aa90612e6c565b80156108f75780601f106108cc576101008083540402835291602001916108f7565b820191906000526020600020905b8154815290600101906020018083116108da57829003601f168201915b5050505050815260200160038201805461091090612e6c565b80601f016020809104026020016040519081016040528092919081815260200182805461093c90612e6c565b80156109895780601f1061095e57610100808354040283529160200191610989565b820191906000526020600020905b81548152906001019060200180831161096c57829003601f168201915b505050505081526020016004820180546109a290612e6c565b80601f01602080910402602001604051908101604052809291908181526020018280546109ce90612e6c565b8015610a1b5780601f106109f057610100808354040283529160200191610a1b565b820191906000526020600020905b8154815290600101906020018083116109fe57829003601f168201915b50505050508152602001600582018054610a3490612e6c565b80601f0160208091040260200160405190810160405280929190818152602001828054610a6090612e6c565b8015610aad5780601f10610a8257610100808354040283529160200191610aad565b820191906000526020600020905b815481529060010190602001808311610a9057829003601f168201915b50505050508152602001600682018054610ac690612e6c565b80601f0160208091040260200160405190810160405280929190818152602001828054610af290612e6c565b8015610b3f5780601f10610b1457610100808354040283529160200191610b3f565b820191906000526020600020905b815481529060010190602001808311610b2257829003601f168201915b50505050508152602001600782018054610b5890612e6c565b80601f0160208091040260200160405190810160405280929190818152602001828054610b8490612e6c565b8015610bd15780601f10610ba657610100808354040283529160200191610bd1565b820191906000526020600020905b815481529060010190602001808311610bb457829003601f168201915b50505050508152602001600882018054610bea90612e6c565b80601f0160208091040260200160405190810160405280929190818152602001828054610c1690612e6c565b8015610c635780601f10610c3857610100808354040283529160200191610c63565b820191906000526020600020905b815481529060010190602001808311610c4657829003601f168201915b50505050508152602001600982018054610c7c90612e6c565b80601f0160208091040260200160405190810160405280929190818152602001828054610ca890612e6c565b8015610cf55780601f10610cca57610100808354040283529160200191610cf5565b820191906000526020600020905b815481529060010190602001808311610cd857829003601f168201915b50505050508152602001600a82018054610d0e90612e6c565b80601f0160208091040260200160405190810160405280929190818152602001828054610d3a90612e6c565b8015610d875780601f10610d5c57610100808354040283529160200191610d87565b820191906000526020600020905b815481529060010190602001808311610d6a57829003601f168201915b5050509183525050600b8201546020820152600c9091015460ff16151560409091015292915050565b610db8612473565b50600090815260066020818152604092839020835161016081018552815481526001820154928101929092526002810154938201939093526003830154606082015260048301546080820152600583015460a08201529082015460c0820152600782015460ff808216151560e08401526101009182900416151590820152600882015461012082015260099091015461014082015290565b6060600060015b6002548111610e99576000818152600560205260409020600c015460ff16610e875781610e8381612e53565b9250505b80610e9181612e53565b915050610e57565b508067ffffffffffffffff811115610eb357610eb361259c565b604051908082528060200260200182016040528015610eec57816020015b610ed96124d1565b815260200190600190039081610ed15790505b509150600060015b6002548111611548576000818152600560205260409020600c015460ff166115365760056000828152602001908152602001600020604051806101a001604052908160008201548152602001600182018054610f4f90612e6c565b80601f0160208091040260200160405190810160405280929190818152602001828054610f7b90612e6c565b8015610fc85780601f10610f9d57610100808354040283529160200191610fc8565b820191906000526020600020905b815481529060010190602001808311610fab57829003601f168201915b50505050508152602001600282018054610fe190612e6c565b80601f016020809104026020016040519081016040528092919081815260200182805461100d90612e6c565b801561105a5780601f1061102f5761010080835404028352916020019161105a565b820191906000526020600020905b81548152906001019060200180831161103d57829003601f168201915b5050505050815260200160038201805461107390612e6c565b80601f016020809104026020016040519081016040528092919081815260200182805461109f90612e6c565b80156110ec5780601f106110c1576101008083540402835291602001916110ec565b820191906000526020600020905b8154815290600101906020018083116110cf57829003601f168201915b5050505050815260200160048201805461110590612e6c565b80601f016020809104026020016040519081016040528092919081815260200182805461113190612e6c565b801561117e5780601f106111535761010080835404028352916020019161117e565b820191906000526020600020905b81548152906001019060200180831161116157829003601f168201915b5050505050815260200160058201805461119790612e6c565b80601f01602080910402602001604051908101604052809291908181526020018280546111c390612e6c565b80156112105780601f106111e557610100808354040283529160200191611210565b820191906000526020600020905b8154815290600101906020018083116111f357829003601f168201915b5050505050815260200160068201805461122990612e6c565b80601f016020809104026020016040519081016040528092919081815260200182805461125590612e6c565b80156112a25780601f10611277576101008083540402835291602001916112a2565b820191906000526020600020905b81548152906001019060200180831161128557829003601f168201915b505050505081526020016007820180546112bb90612e6c565b80601f01602080910402602001604051908101604052809291908181526020018280546112e790612e6c565b80156113345780601f1061130957610100808354040283529160200191611334565b820191906000526020600020905b81548152906001019060200180831161131757829003601f168201915b5050505050815260200160088201805461134d90612e6c565b80601f016020809104026020016040519081016040528092919081815260200182805461137990612e6c565b80156113c65780601f1061139b576101008083540402835291602001916113c6565b820191906000526020600020905b8154815290600101906020018083116113a957829003601f168201915b505050505081526020016009820180546113df90612e6c565b80601f016020809104026020016040519081016040528092919081815260200182805461140b90612e6c565b80156114585780601f1061142d57610100808354040283529160200191611458565b820191906000526020600020905b81548152906001019060200180831161143b57829003601f168201915b50505050508152602001600a8201805461147190612e6c565b80601f016020809104026020016040519081016040528092919081815260200182805461149d90612e6c565b80156114ea5780601f106114bf576101008083540402835291602001916114ea565b820191906000526020600020905b8154815290600101906020018083116114cd57829003601f168201915b5050509183525050600b8201546020820152600c9091015460ff161515604090910152848361151881612e53565b94508151811061152a5761152a612e27565b60200260200101819052505b8061154081612e53565b915050610ef4565b50505090565b6000828152600160208190526040909120015461156a81612185565b611574838361218f565b505050565b6001600160a01b03811633146115e95760405162461bcd60e51b815260206004820152602f60248201527f416363657373436f6e74726f6c3a2063616e206f6e6c792072656e6f756e636560448201526e103937b632b9903337b91039b2b63360891b6064820152608401610439565b6115f3828261211e565b5050565b61160f60008051602061307e83398151915233611b44565b61165b5760405162461bcd60e51b815260206004820152601f60248201527f43616c6c6572206973206e6f742061207469636b657420636f6e7472616374006044820152606401610439565b60008181526006602052604090819020600701805460ff191660011790555160008051602061309e833981519152906116b89060208082526010908201526f151a5b595cdb1bdd0819195b195d195960821b604082015260600190565b60405180910390a150565b6116cb6120ba565b60008181526004602052604090205460ff166116f95760405162461bcd60e51b815260040161043990612df9565b6000818152600560209081526040808320600c01805460ff19908116600117909155600490925291829020805490911690555160008051602061309e833981519152906116b8906020808252600d908201526c135bdd9a594819195b195d1959609a1b604082015260600190565b61176f6120ba565b61177960006121fa565b565b60606000805b60035481101561180257836006600061179b846001612ea6565b8152602001908152602001600020600101541480156117dd5750600660006117c4836001612ea6565b815260208101919091526040016000206007015460ff16155b156117f057816117ec81612e53565b9250505b806117fa81612e53565b915050611781565b508067ffffffffffffffff81111561181c5761181c61259c565b60405190808252806020026020018201604052801561185557816020015b611842612473565b81526020019060019003908161183a5790505b5091506000805b60035481101561199b578460066000611876846001612ea6565b8152602001908152602001600020600101541480156118b857506006600061189f836001612ea6565b815260208101919091526040016000206007015460ff16155b1561198957600660006118cc836001612ea6565b81526020808201929092526040908101600020815161016081018352815481526001820154938101939093526002810154918301919091526003810154606083015260048101546080830152600581015460a0830152600681015460c0830152600781015460ff808216151560e08501526101009182900416151590830152600881015461012083015260090154610140820152848361196b81612e53565b94508151811061197d5761197d612e27565b60200260200101819052505b8061199381612e53565b91505061185c565b505050919050565b6119ab6120ba565b60008b81526004602052604090205460ff166119d95760405162461bcd60e51b815260040161043990612df9565b60008b81526005602052604090206001016119f48b82612f07565b5060008b8152600560205260409020600201611a108a82612f07565b5060008b8152600560205260409020600301611a2c8982612f07565b5060008b8152600560205260409020600401611a488882612f07565b5060008b815260056020819052604090912001611a658782612f07565b5060008b8152600560205260409020600601611a818682612f07565b5060008b8152600560205260409020600701611a9d8582612f07565b5060008b8152600560205260409020600801611ab98482612f07565b5060008b8152600560205260409020600901611ad58382612f07565b5060008b8152600560205260409020600a01611af18282612f07565b5060008051602061309e833981519152604051611b2f906020808252600d908201526c135bdd9a59481d5c19185d1959609a1b604082015260600190565b60405180910390a15050505050505050505050565b60009182526001602090815260408084206001600160a01b0393909316845291905290205460ff1690565b611b776120ba565b611b85600280546001019055565b6000611b9060025490565b9050611b9a6124d1565b818152602081018c9052604081018b9052606081018a90526080810189905260a0810188905260c0810187905260e08101869052610100810185905261012081018490526101408101839052611bee61224a565b610160820152600082815260056020908152604090912082518155908201518291906001820190611c1f9082612f07565b5060408201516002820190611c349082612f07565b5060608201516003820190611c499082612f07565b5060808201516004820190611c5e9082612f07565b5060a08201516005820190611c739082612f07565b5060c08201516006820190611c889082612f07565b5060e08201516007820190611c9d9082612f07565b506101008201516008820190611cb39082612f07565b506101208201516009820190611cc99082612f07565b50610140820151600a820190611cdf9082612f07565b50610160820151600b82015561018090910151600c909101805491151560ff199283161790556000838152600460205260409081902080549092166001179091555160008051602061309e83398151915290611d5a906020808252600b908201526a135bdd9a5948185919195960aa1b604082015260600190565b60405180910390a1505050505050505050505050565b611d8860008051602061307e83398151915233611b44565b611dd45760405162461bcd60e51b815260206004820152601f60248201527f43616c6c6572206973206e6f742061207469636b657420636f6e7472616374006044820152606401610439565b60008181526006602052604090819020600701805461ff0019166101001790555160008051602061309e833981519152906116b890602080825260129082015271151a5b595cdb1bdd0818dbdb5c1b195d195960721b604082015260600190565b60008281526001602081905260409091200154611e5181612185565b611574838361211e565b60606000805b600354811015611ee2578360066000611e7b846001612ea6565b815260200190815260200160002060080154148015611ebd575060066000611ea4836001612ea6565b815260208101919091526040016000206007015460ff16155b15611ed05781611ecc81612e53565b9250505b80611eda81612e53565b915050611e61565b508067ffffffffffffffff811115611efc57611efc61259c565b604051908082528060200260200182016040528015611f3557816020015b611f22612473565b815260200190600190039081611f1a5790505b5091506000805b60035481101561199b578460066000611f56846001612ea6565b815260200190815260200160002060080154148015611f98575060066000611f7f836001612ea6565b815260208101919091526040016000206007015460ff16155b1561202f5760066000611fac836001612ea6565b815260200190815260200160002060030154848381518110611fd057611fd0612e27565b60209081029190910101516060015260066000611fee836001612ea6565b81526020019081526020016000206004015484838061200c90612e53565b94508151811061201e5761201e612e27565b602002602001015160800181815250505b8061203981612e53565b915050611f3c565b6120496120ba565b6001600160a01b0381166120ae5760405162461bcd60e51b815260206004820152602660248201527f4f776e61626c653a206e6577206f776e657220697320746865207a65726f206160448201526564647265737360d01b6064820152608401610439565b6120b7816121fa565b50565b6000546001600160a01b031633146117795760405162461bcd60e51b815260206004820181905260248201527f4f776e61626c653a2063616c6c6572206973206e6f7420746865206f776e65726044820152606401610439565b6115f3828261218f565b6121288282611b44565b156115f35760008281526001602090815260408083206001600160a01b0385168085529252808320805460ff1916905551339285917ff6391f5c32d9c69d2a47ea670b442974b53935d1edc7fd64eb21e047a839171b9190a45050565b6120b78133612265565b6121998282611b44565b6115f35760008281526001602081815260408084206001600160a01b0386168086529252808420805460ff19169093179092559051339285917f2f8788117e7eff1d82e926ec794901d17c78024a50270940304540a733656f0d9190a45050565b600080546001600160a01b038381166001600160a01b0319831681178455604051919092169283917f8be0079c531659141344cd1fd0a4f28419497f9722a3daafe3b4186f6b6457e09190a35050565b600080612259426103e8612fc7565b610396906103e8612ea6565b61226f8282611b44565b6115f35761227c816122be565b6122878360206122d0565b604051602001612298929190612fde565b60408051601f198184030181529082905262461bcd60e51b825261043991600401613053565b60606103966001600160a01b03831660145b606060006122df836002612fc7565b6122ea906002612ea6565b67ffffffffffffffff8111156123025761230261259c565b6040519080825280601f01601f19166020018201604052801561232c576020820181803683370190505b509050600360fc1b8160008151811061234757612347612e27565b60200101906001600160f81b031916908160001a905350600f60fb1b8160018151811061237657612376612e27565b60200101906001600160f81b031916908160001a905350600061239a846002612fc7565b6123a5906001612ea6565b90505b600181111561241d576f181899199a1a9b1b9c1cb0b131b232b360811b85600f16601081106123d9576123d9612e27565b1a60f81b8282815181106123ef576123ef612e27565b60200101906001600160f81b031916908160001a90535060049490941c9361241681613066565b90506123a8565b50831561246c5760405162461bcd60e51b815260206004820181905260248201527f537472696e67733a20686578206c656e67746820696e73756666696369656e746044820152606401610439565b9392505050565b6040518061016001604052806000815260200160008152602001600081526020016000815260200160008152602001600081526020016000815260200160001515815260200160001515815260200160008152602001600081525090565b604051806101a001604052806000815260200160608152602001606081526020016060815260200160608152602001606081526020016060815260200160608152602001606081526020016060815260200160608152602001600081526020016000151581525090565b60006020828403121561254d57600080fd5b81356001600160e01b03198116811461246c57600080fd5b80356001600160a01b038116811461257c57600080fd5b919050565b60006020828403121561259357600080fd5b61246c82612565565b634e487b7160e01b600052604160045260246000fd5b604051601f8201601f1916810167ffffffffffffffff811182821017156125db576125db61259c565b604052919050565b600082601f8301126125f457600080fd5b8135602067ffffffffffffffff8211156126105761261061259c565b8160051b61261f8282016125b2565b928352848101820192828101908785111561263957600080fd5b83870192505b848310156126585782358252918301919083019061263f565b979650505050505050565b60008060008060008060c0878903121561267c57600080fd5b86359550602087013567ffffffffffffffff8082111561269b57600080fd5b6126a78a838b016125e3565b965060408901359150808211156126bd57600080fd5b6126c98a838b016125e3565b955060608901359150808211156126df57600080fd5b6126eb8a838b016125e3565b9450608089013591508082111561270157600080fd5b61270d8a838b016125e3565b935060a089013591508082111561272357600080fd5b5061273089828a016125e3565b9150509295509295509295565b60006020828403121561274f57600080fd5b5035919050565b60005b83811015612771578181015183820152602001612759565b50506000910152565b60008151808452612792816020860160208601612756565b601f01601f19169290920160200192915050565b60006101a08251845260208301518160208601526127c68286018261277a565b915050604083015184820360408601526127e0828261277a565b915050606083015184820360608601526127fa828261277a565b91505060808301518482036080860152612814828261277a565b91505060a083015184820360a086015261282e828261277a565b91505060c083015184820360c0860152612848828261277a565b91505060e083015184820360e0860152612862828261277a565b915050610100808401518583038287015261287d838261277a565b925050506101208084015185830382870152612899838261277a565b9250505061014080840151858303828701526128b5838261277a565b92505050610160808401518186015250610180808401516128d98287018215159052565b5090949350505050565b60208152600061246c60208301846127a6565b805182526020810151602083015260408101516040830152606081015160608301526080810151608083015260a081015160a083015260c081015160c083015260e081015161294960e084018215159052565b5061010081810151151590830152610120808201519083015261014090810151910152565b610160810161039682846128f6565b6000602080830181845280855180835260408601915060408160051b870101925083870160005b828110156129d257603f198886030184526129c08583516127a6565b945092850192908501906001016129a4565b5092979650505050505050565b600080604083850312156129f257600080fd5b82359150612a0260208401612565565b90509250929050565b6020808252825182820181905260009190848201906040850190845b81811015612a4e57612a3a8385516128f6565b928401926101609290920191600101612a27565b50909695505050505050565b600082601f830112612a6b57600080fd5b813567ffffffffffffffff811115612a8557612a8561259c565b612a98601f8201601f19166020016125b2565b818152846020838601011115612aad57600080fd5b816020850160208301376000918101602001919091529392505050565b60008060008060008060008060008060006101608c8e031215612aec57600080fd5b8b359a5067ffffffffffffffff8060208e01351115612b0a57600080fd5b612b1a8e60208f01358f01612a5a565b9a508060408e01351115612b2d57600080fd5b612b3d8e60408f01358f01612a5a565b99508060608e01351115612b5057600080fd5b612b608e60608f01358f01612a5a565b98508060808e01351115612b7357600080fd5b612b838e60808f01358f01612a5a565b97508060a08e01351115612b9657600080fd5b612ba68e60a08f01358f01612a5a565b96508060c08e01351115612bb957600080fd5b612bc98e60c08f01358f01612a5a565b95508060e08e01351115612bdc57600080fd5b612bec8e60e08f01358f01612a5a565b9450806101008e01351115612c0057600080fd5b612c118e6101008f01358f01612a5a565b9350806101208e01351115612c2557600080fd5b612c368e6101208f01358f01612a5a565b9250806101408e01351115612c4a57600080fd5b50612c5c8d6101408e01358e01612a5a565b90509295989b509295989b9093969950565b6000806000806000806000806000806101408b8d031215612c8e57600080fd5b8a3567ffffffffffffffff80821115612ca657600080fd5b612cb28e838f01612a5a565b9b5060208d0135915080821115612cc857600080fd5b612cd48e838f01612a5a565b9a5060408d0135915080821115612cea57600080fd5b612cf68e838f01612a5a565b995060608d0135915080821115612d0c57600080fd5b612d188e838f01612a5a565b985060808d0135915080821115612d2e57600080fd5b612d3a8e838f01612a5a565b975060a08d0135915080821115612d5057600080fd5b612d5c8e838f01612a5a565b965060c08d0135915080821115612d7257600080fd5b612d7e8e838f01612a5a565b955060e08d0135915080821115612d9457600080fd5b612da08e838f01612a5a565b94506101008d0135915080821115612db757600080fd5b612dc38e838f01612a5a565b93506101208d0135915080821115612dda57600080fd5b50612de78d828e01612a5a565b9150509295989b9194979a5092959850565b602080825260149082015273135bdd9a5948191bd95cc81b9bdd08195e1a5cdd60621b604082015260600190565b634e487b7160e01b600052603260045260246000fd5b634e487b7160e01b600052601160045260246000fd5b600060018201612e6557612e65612e3d565b5060010190565b600181811c90821680612e8057607f821691505b602082108103612ea057634e487b7160e01b600052602260045260246000fd5b50919050565b8082018082111561039657610396612e3d565b601f82111561157457600081815260208120601f850160051c81016020861015612ee05750805b601f850160051c820191505b81811015612eff57828155600101612eec565b505050505050565b815167ffffffffffffffff811115612f2157612f2161259c565b612f3581612f2f8454612e6c565b84612eb9565b602080601f831160018114612f6a5760008415612f525750858301515b600019600386901b1c1916600185901b178555612eff565b600085815260208120601f198616915b82811015612f9957888601518255948401946001909101908401612f7a565b5085821015612fb75787850151600019600388901b60f8161c191681555b5050505050600190811b01905550565b808202811582820484141761039657610396612e3d565b7f416363657373436f6e74726f6c3a206163636f756e7420000000000000000000815260008351613016816017850160208801612756565b7001034b99036b4b9b9b4b733903937b6329607d1b6017918401918201528351613047816028840160208801612756565b01602801949350505050565b60208152600061246c602083018461277a565b60008161307557613075612e3d565b50600019019056fe84c0e6936832819e27761bd60cca25b2ef9a185b925c2c99a066a29a80d42f038b2c14fe955d044ef95ba32b88d2ceb87c6f73fcefdcebe906063a6d75690f27a26469706673582212205599be51cf8b9741157989feebc613b396386ed0fb7536deca3bfad278c9d06e64736f6c63430008130033",
  "linkReferences": {},
  "deployedLinkReferences": {}
}