{
  "_format": "hh-sol-artifact-1",
  "contractName": "DappCinemas",
  "sourceName": "contracts/DappCinemas.sol",
  "abi": [
    {
      "anonymous": false,
      "inputs": [
        {
          "indexed": false,
          "internalType": "string",
          "name": "actionType",
          "type": "string"
        }
      ],
      "name": "Action",
      "type": "event"
    },
    {
      "anonymous": false,
      "inputs": [
        {
          "indexed": true,
          "internalType": "address",
          "name": "previousOwner",
          "type": "address"
        },
        {
          "indexed": true,
          "internalType": "address",
          "name": "newOwner",
          "type": "address"
        }
      ],
      "name": "OwnershipTransferred",
      "type": "event"
    },
    {
      "anonymous": false,
      "inputs": [
        {
          "indexed": true,
          "internalType": "bytes32",
          "name": "role",
          "type": "bytes32"
        },
        {
          "indexed": true,
          "internalType": "bytes32",
          "name": "previousAdminRole",
          "type": "bytes32"
        },
        {
          "indexed": true,
          "internalType": "bytes32",
          "name": "newAdminRole",
          "type": "bytes32"
        }
      ],
      "name": "RoleAdminChanged",
      "type": "event"
    },
    {
      "anonymous": false,
      "inputs": [
        {
          "indexed": true,
          "internalType": "bytes32",
          "name": "role",
          "type": "bytes32"
        },
        {
          "indexed": true,
          "internalType": "address",
          "name": "account",
          "type": "address"
        },
        {
          "indexed": true,
          "internalType": "address",
          "name": "sender",
          "type": "address"
        }
      ],
      "name": "RoleGranted",
      "type": "event"
    },
    {
      "anonymous": false,
      "inputs": [
        {
          "indexed": true,
          "internalType": "bytes32",
          "name": "role",
          "type": "bytes32"
        },
        {
          "indexed": true,
          "internalType": "address",
          "name": "account",
          "type": "address"
        },
        {
          "indexed": true,
          "internalType": "address",
          "name": "sender",
          "type": "address"
        }
      ],
      "name": "RoleRevoked",
      "type": "event"
    },
    {
      "inputs": [],
      "name": "DEFAULT_ADMIN_ROLE",
      "outputs": [
        {
          "internalType": "bytes32",
          "name": "",
          "type": "bytes32"
        }
      ],
      "stateMutability": "view",
      "type": "function"
    },
    {
      "inputs": [],
      "name": "TICKET_ROLE",
      "outputs": [
        {
          "internalType": "bytes32",
          "name": "",
          "type": "bytes32"
        }
      ],
      "stateMutability": "view",
      "type": "function"
    },
    {
      "inputs": [
        {
          "internalType": "string",
          "name": "_name",
          "type": "string"
        },
        {
          "internalType": "string",
          "name": "_banner",
          "type": "string"
        },
        {
          "internalType": "string",
          "name": "_imageUrl",
          "type": "string"
        },
        {
          "internalType": "string",
          "name": "_videoUrl",
          "type": "string"
        },
        {
          "internalType": "string",
          "name": "_genre",
          "type": "string"
        },
        {
          "internalType": "string",
          "name": "_description",
          "type": "string"
        },
        {
          "internalType": "string",
          "name": "_caption",
          "type": "string"
        },
        {
          "internalType": "string",
          "name": "_casts",
          "type": "string"
        },
        {
          "internalType": "string",
          "name": "_running",
          "type": "string"
        },
        {
          "internalType": "string",
          "name": "_released",
          "type": "string"
        }
      ],
      "name": "addMovie",
      "outputs": [],
      "stateMutability": "nonpayable",
      "type": "function"
    },
    {
      "inputs": [
        {
          "internalType": "uint256",
          "name": "_movieId",
          "type": "uint256"
        },
        {
          "internalType": "uint256[]",
          "name": "_ticketCosts",
          "type": "uint256[]"
        },
        {
          "internalType": "uint256[]",
          "name": "_startTimes",
          "type": "uint256[]"
        },
        {
          "internalType": "uint256[]",
          "name": "_endTimes",
          "type": "uint256[]"
        },
        {
          "internalType": "uint256[]",
          "name": "_capacities",
          "type": "uint256[]"
        },
        {
          "internalType": "uint256[]",
          "name": "_days",
          "type": "uint256[]"
        }
      ],
      "name": "addTimeSlot",
      "outputs": [],
      "stateMutability": "nonpayable",
      "type": "function"
    },
    {
      "inputs": [
        {
          "internalType": "uint256",
          "name": "_slotId",
          "type": "uint256"
        }
      ],
      "name": "completeTimeSlot",
      "outputs": [],
      "stateMutability": "nonpayable",
      "type": "function"
    },
    {
      "inputs": [
        {
          "internalType": "uint256",
          "name": "_movieId",
          "type": "uint256"
        }
      ],
      "name": "deleteMovie",
      "outputs": [],
      "stateMutability": "nonpayable",
      "type": "function"
    },
    {
      "inputs": [
        {
          "internalType": "uint256",
          "name": "_slotId",
          "type": "uint256"
        }
      ],
      "name": "deleteTimeSlot",
      "outputs": [],
      "stateMutability": "nonpayable",
      "type": "function"
    },
    {
      "inputs": [
        {
          "internalType": "uint256",
          "name": "_movieId",
          "type": "uint256"
        }
      ],
      "name": "getActiveTimeSlots",
      "outputs": [
        {
          "components": [
            {
              "internalType": "uint256",
              "name": "id",
              "type": "uint256"
            },
            {
              "internalType": "uint256",
              "name": "movieId",
              "type": "uint256"
            },
            {
              "internalType": "uint256",
              "name": "ticketCost",
              "type": "uint256"
            },
            {
              "internalType": "uint256",
              "name": "startTime",
              "type": "uint256"
            },
            {
              "internalType": "uint256",
              "name": "endTime",
              "type": "uint256"
            },
            {
              "internalType": "uint256",
              "name": "capacity",
              "type": "uint256"
            },
            {
              "internalType": "uint256",
              "name": "seats",
              "type": "uint256"
            },
            {
              "internalType": "bool",
              "name": "deleted",
              "type": "bool"
            },
            {
              "internalType": "bool",
              "name": "completed",
              "type": "bool"
            },
            {
              "internalType": "uint256",
              "name": "day",
              "type": "uint256"
            },
            {
              "internalType": "uint256",
              "name": "balance",
              "type": "uint256"
            }
          ],
          "internalType": "struct DappShared.TimeSlotStruct[]",
          "name": "Slots",
          "type": "tuple[]"
        }
      ],
      "stateMutability": "view",
      "type": "function"
    },
    {
      "inputs": [
        {
          "internalType": "uint256",
          "name": "_movieId",
          "type": "uint256"
        }
      ],
      "name": "getMovie",
      "outputs": [
        {
          "components": [
            {
              "internalType": "uint256",
              "name": "id",
              "type": "uint256"
            },
            {
              "internalType": "string",
              "name": "name",
              "type": "string"
            },
            {
              "internalType": "string",
              "name": "banner",
              "type": "string"
            },
            {
              "internalType": "string",
              "name": "imageUrl",
              "type": "string"
            },
            {
              "internalType": "string",
              "name": "videoUrl",
              "type": "string"
            },
            {
              "internalType": "string",
              "name": "genre",
              "type": "string"
            },
            {
              "internalType": "string",
              "name": "description",
              "type": "string"
            },
            {
              "internalType": "string",
              "name": "caption",
              "type": "string"
            },
            {
              "internalType": "string",
              "name": "casts",
              "type": "string"
            },
            {
              "internalType": "string",
              "name": "running",
              "type": "string"
            },
            {
              "internalType": "string",
              "name": "released",
              "type": "string"
            },
            {
              "internalType": "uint256",
              "name": "timestamp",
              "type": "uint256"
            },
            {
              "internalType": "bool",
              "name": "deleted",
              "type": "bool"
            }
          ],
          "internalType": "struct DappCinemas.MovieStruct",
          "name": "",
          "type": "tuple"
        }
      ],
      "stateMutability": "view",
      "type": "function"
    },
    {
      "inputs": [],
      "name": "getMovies",
      "outputs": [
        {
          "components": [
            {
              "internalType": "uint256",
              "name": "id",
              "type": "uint256"
            },
            {
              "internalType": "string",
              "name": "name",
              "type": "string"
            },
            {
              "internalType": "string",
              "name": "banner",
              "type": "string"
            },
            {
              "internalType": "string",
              "name": "imageUrl",
              "type": "string"
            },
            {
              "internalType": "string",
              "name": "videoUrl",
              "type": "string"
            },
            {
              "internalType": "string",
              "name": "genre",
              "type": "string"
            },
            {
              "internalType": "string",
              "name": "description",
              "type": "string"
            },
            {
              "internalType": "string",
              "name": "caption",
              "type": "string"
            },
            {
              "internalType": "string",
              "name": "casts",
              "type": "string"
            },
            {
              "internalType": "string",
              "name": "running",
              "type": "string"
            },
            {
              "internalType": "string",
              "name": "released",
              "type": "string"
            },
            {
              "internalType": "uint256",
              "name": "timestamp",
              "type": "uint256"
            },
            {
              "internalType": "bool",
              "name": "deleted",
              "type": "bool"
            }
          ],
          "internalType": "struct DappCinemas.MovieStruct[]",
          "name": "Movies",
          "type": "tuple[]"
        }
      ],
      "stateMutability": "view",
      "type": "function"
    },
    {
      "inputs": [
        {
          "internalType": "bytes32",
          "name": "role",
          "type": "bytes32"
        }
      ],
      "name": "getRoleAdmin",
      "outputs": [
        {
          "internalType": "bytes32",
          "name": "",
          "type": "bytes32"
        }
      ],
      "stateMutability": "view",
      "type": "function"
    },
    {
      "inputs": [
        {
          "internalType": "uint256",
          "name": "_slotId",
          "type": "uint256"
        }
      ],
      "name": "getTimeSlot",
      "outputs": [
        {
          "components": [
            {
              "internalType": "uint256",
              "name": "id",
              "type": "uint256"
            },
            {
              "internalType": "uint256",
              "name": "movieId",
              "type": "uint256"
            },
            {
              "internalType": "uint256",
              "name": "ticketCost",
              "type": "uint256"
            },
            {
              "internalType": "uint256",
              "name": "startTime",
              "type": "uint256"
            },
            {
              "internalType": "uint256",
              "name": "endTime",
              "type": "uint256"
            },
            {
              "internalType": "uint256",
              "name": "capacity",
              "type": "uint256"
            },
            {
              "internalType": "uint256",
              "name": "seats",
              "type": "uint256"
            },
            {
              "internalType": "bool",
              "name": "deleted",
              "type": "bool"
            },
            {
              "internalType": "bool",
              "name": "completed",
              "type": "bool"
            },
            {
              "internalType": "uint256",
              "name": "day",
              "type": "uint256"
            },
            {
              "internalType": "uint256",
              "name": "balance",
              "type": "uint256"
            }
          ],
          "internalType": "struct DappShared.TimeSlotStruct",
          "name": "",
          "type": "tuple"
        }
      ],
      "stateMutability": "view",
      "type": "function"
    },
    {
      "inputs": [
        {
          "internalType": "uint256",
          "name": "_day",
          "type": "uint256"
        }
      ],
      "name": "getTimeSlotByDay",
      "outputs": [
        {
          "components": [
            {
              "internalType": "uint256",
              "name": "id",
              "type": "uint256"
            },
            {
              "internalType": "uint256",
              "name": "movieId",
              "type": "uint256"
            },
            {
              "internalType": "uint256",
              "name": "ticketCost",
              "type": "uint256"
            },
            {
              "internalType": "uint256",
              "name": "startTime",
              "type": "uint256"
            },
            {
              "internalType": "uint256",
              "name": "endTime",
              "type": "uint256"
            },
            {
              "internalType": "uint256",
              "name": "capacity",
              "type": "uint256"
            },
            {
              "internalType": "uint256",
              "name": "seats",
              "type": "uint256"
            },
            {
              "internalType": "bool",
              "name": "deleted",
              "type": "bool"
            },
            {
              "internalType": "bool",
              "name": "completed",
              "type": "bool"
            },
            {
              "internalType": "uint256",
              "name": "day",
              "type": "uint256"
            },
            {
              "internalType": "uint256",
              "name": "balance",
              "type": "uint256"
            }
          ],
          "internalType": "struct DappShared.TimeSlotStruct[]",
          "name": "Slots",
          "type": "tuple[]"
        }
      ],
      "stateMutability": "view",
      "type": "function"
    },
    {
      "inputs": [
        {
          "internalType": "uint256",
          "name": "_movieId",
          "type": "uint256"
        }
      ],
      "name": "getTimeSlots",
      "outputs": [
        {
          "components": [
            {
              "internalType": "uint256",
              "name": "id",
              "type": "uint256"
            },
            {
              "internalType": "uint256",
              "name": "movieId",
              "type": "uint256"
            },
            {
              "internalType": "uint256",
              "name": "ticketCost",
              "type": "uint256"
            },
            {
              "internalType": "uint256",
              "name": "startTime",
              "type": "uint256"
            },
            {
              "internalType": "uint256",
              "name": "endTime",
              "type": "uint256"
            },
            {
              "internalType": "uint256",
              "name": "capacity",
              "type": "uint256"
            },
            {
              "internalType": "uint256",
              "name": "seats",
              "type": "uint256"
            },
            {
              "internalType": "bool",
              "name": "deleted",
              "type": "bool"
            },
            {
              "internalType": "bool",
              "name": "completed",
              "type": "bool"
            },
            {
              "internalType": "uint256",
              "name": "day",
              "type": "uint256"
            },
            {
              "internalType": "uint256",
              "name": "balance",
              "type": "uint256"
            }
          ],
          "internalType": "struct DappShared.TimeSlotStruct[]",
          "name": "Slots",
          "type": "tuple[]"
        }
      ],
      "stateMutability": "view",
      "type": "function"
    },
    {
      "inputs": [
        {
          "internalType": "address",
          "name": "_dappTicket",
          "type": "address"
        }
      ],
      "name": "grantAccess",
      "outputs": [],
      "stateMutability": "nonpayable",
      "type": "function"
    },
    {
      "inputs": [
        {
          "internalType": "bytes32",
          "name": "role",
          "type": "bytes32"
        },
        {
          "internalType": "address",
          "name": "account",
          "type": "address"
        }
      ],
      "name": "grantRole",
      "outputs": [],
      "stateMutability": "nonpayable",
      "type": "function"
    },
    {
      "inputs": [
        {
          "internalType": "bytes32",
          "name": "role",
          "type": "bytes32"
        },
        {
          "internalType": "address",
          "name": "account",
          "type": "address"
        }
      ],
      "name": "hasRole",
      "outputs": [
        {
          "internalType": "bool",
          "name": "",
          "type": "bool"
        }
      ],
      "stateMutability": "view",
      "type": "function"
    },
    {
      "inputs": [],
      "name": "owner",
      "outputs": [
        {
          "internalType": "address",
          "name": "",
          "type": "address"
        }
      ],
      "stateMutability": "view",
      "type": "function"
    },
    {
      "inputs": [],
      "name": "renounceOwnership",
      "outputs": [],
      "stateMutability": "nonpayable",
      "type": "function"
    },
    {
      "inputs": [
        {
          "internalType": "bytes32",
          "name": "role",
          "type": "bytes32"
        },
        {
          "internalType": "address",
          "name": "account",
          "type": "address"
        }
      ],
      "name": "renounceRole",
      "outputs": [],
      "stateMutability": "nonpayable",
      "type": "function"
    },
    {
      "inputs": [
        {
          "internalType": "bytes32",
          "name": "role",
          "type": "bytes32"
        },
        {
          "internalType": "address",
          "name": "account",
          "type": "address"
        }
      ],
      "name": "revokeRole",
      "outputs": [],
      "stateMutability": "nonpayable",
      "type": "function"
    },
    {
      "inputs": [
        {
          "components": [
            {
              "internalType": "uint256",
              "name": "id",
              "type": "uint256"
            },
            {
              "internalType": "uint256",
              "name": "movieId",
              "type": "uint256"
            },
            {
              "internalType": "uint256",
              "name": "ticketCost",
              "type": "uint256"
            },
            {
              "internalType": "uint256",
              "name": "startTime",
              "type": "uint256"
            },
            {
              "internalType": "uint256",
              "name": "endTime",
              "type": "uint256"
            },
            {
              "internalType": "uint256",
              "name": "capacity",
              "type": "uint256"
            },
            {
              "internalType": "uint256",
              "name": "seats",
              "type": "uint256"
            },
            {
              "internalType": "bool",
              "name": "deleted",
              "type": "bool"
            },
            {
              "internalType": "bool",
              "name": "completed",
              "type": "bool"
            },
            {
              "internalType": "uint256",
              "name": "day",
              "type": "uint256"
            },
            {
              "internalType": "uint256",
              "name": "balance",
              "type": "uint256"
            }
          ],
          "internalType": "struct DappShared.TimeSlotStruct",
          "name": "slot",
          "type": "tuple"
        }
      ],
      "name": "setTimeSlot",
      "outputs": [],
      "stateMutability": "nonpayable",
      "type": "function"
    },
    {
      "inputs": [
        {
          "internalType": "bytes4",
          "name": "interfaceId",
          "type": "bytes4"
        }
      ],
      "name": "supportsInterface",
      "outputs": [
        {
          "internalType": "bool",
          "name": "",
          "type": "bool"
        }
      ],
      "stateMutability": "view",
      "type": "function"
    },
    {
      "inputs": [
        {
          "internalType": "address",
          "name": "newOwner",
          "type": "address"
        }
      ],
      "name": "transferOwnership",
      "outputs": [],
      "stateMutability": "nonpayable",
      "type": "function"
    },
    {
      "inputs": [
        {
          "internalType": "uint256",
          "name": "_movieId",
          "type": "uint256"
        },
        {
          "internalType": "string",
          "name": "_name",
          "type": "string"
        },
        {
          "internalType": "string",
          "name": "_banner",
          "type": "string"
        },
        {
          "internalType": "string",
          "name": "_imageUrl",
          "type": "string"
        },
        {
          "internalType": "string",
          "name": "_videoUrl",
          "type": "string"
        },
        {
          "internalType": "string",
          "name": "_genre",
          "type": "string"
        },
        {
          "internalType": "string",
          "name": "_description",
          "type": "string"
        },
        {
          "internalType": "string",
          "name": "_caption",
          "type": "string"
        },
        {
          "internalType": "string",
          "name": "_casts",
          "type": "string"
        },
        {
          "internalType": "string",
          "name": "_running",
          "type": "string"
        },
        {
          "internalType": "string",
          "name": "_released",
          "type": "string"
        }
      ],
      "name": "updateMovie",
      "outputs": [],
      "stateMutability": "nonpayable",
      "type": "function"
    }
  ],
  "bytecode": "0x60806040523480156200001157600080fd5b506200001d3362000023565b62000073565b600080546001600160a01b038381166001600160a01b0319831681178455604051919092169283917f8be0079c531659141344cd1fd0a4f28419497f9722a3daafe3b4186f6b6457e09190a35050565b6139ea80620000836000396000f3fe608060405234801561001057600080fd5b50600436106101735760003560e01c806370c7f065116100de57806391d1485411610097578063b6da3f0911610071578063b6da3f091461035a578063b83b2c521461036d578063d547741f14610380578063f2fde38b1461039357600080fd5b806391d148541461032c578063a217fddf1461033f578063a65c7ce41461034757600080fd5b806370c7f065146102ae578063715018a6146102ce5780637cd35a0a146102d657806389964e22146102e95780638da5cb5b146102fe57806391b1841b1461031957600080fd5b80632c53b406116101305780632c53b4061461023a5780632f2ff15d1461024f57806336568abe146102625780633b6559c11461027557806361853e93146102885780636b4f6cb71461029b57600080fd5b806301ffc9a7146101785780630ae5e739146101a05780630ee2c58c146101b5578063179ffe76146101c8578063248a9ca3146101e85780632b85dcc91461021a575b600080fd5b61018b610186366004612d31565b6103a6565b60405190151581526020015b60405180910390f35b6101b36101ae366004612d77565b6103dd565b005b6101b36101c3366004612e80565b610444565b6101db6101d6366004612f59565b610874565b60405161019791906130ff565b61020c6101f6366004612f59565b6000908152600160208190526040909120015490565b604051908152602001610197565b61022d610228366004612f59565b610e79565b604051610197919061318a565b610242610f19565b6040516101979190613199565b6101b361025d3660046131fb565b611616565b6101b36102703660046131fb565b611641565b6101b3610283366004612f59565b6116bf565b6101b3610296366004613237565b61175b565b6101b36102a9366004612f59565b611828565b6102c16102bc366004612f59565b6118cc565b60405161019791906132d4565b6101b3611a63565b6102c16102e4366004612f59565b611a77565b61020c60008051602061397583398151915281565b6000546040516001600160a01b039091168152602001610197565b6101b3610327366004613392565b611c47565b61018b61033a3660046131fb565b612091565b61020c600081565b6101b3610355366004613535565b6120bc565b6101b3610368366004612f59565b612563565b6102c161037b366004612f59565b6125f8565b6101b361038e3660046131fb565b61280e565b6101b36103a1366004612d77565b612834565b60006001600160e01b03198216637965db0b60e01b14806103d757506301ffc9a760e01b6001600160e01b03198316145b92915050565b6103e56128ad565b6103fd60008051602061397583398151915282612907565b60075461042290600080516020613975833981519152906001600160a01b0316612911565b600780546001600160a01b0319166001600160a01b0392909216919091179055565b61044c6128ad565b60008681526004602052604090205460ff166104835760405162461bcd60e51b815260040161047a906136bf565b60405180910390fd5b60008551116104d45760405162461bcd60e51b815260206004820152601c60248201527f5469636b657420636f7374732063616e6e6f7420626520656d70747900000000604482015260640161047a565b60008451116105255760405162461bcd60e51b815260206004820152601b60248201527f53746172742074696d65732063616e6e6f7420626520656d7074790000000000604482015260640161047a565b60008351116105765760405162461bcd60e51b815260206004820152601960248201527f456e642074696d65732063616e6e6f7420626520656d70747900000000000000604482015260640161047a565b60008251116105c75760405162461bcd60e51b815260206004820152601a60248201527f436170616369746965732063616e6e6f7420626520656d707479000000000000604482015260640161047a565b600081511161060f5760405162461bcd60e51b8152602060048201526014602482015273446179732063616e6e6f7420626520656d70747960601b604482015260640161047a565b83518551148015610621575082518451145b801561062e575081518351145b801561063b575080518251145b8015610648575084518151145b6106945760405162461bcd60e51b815260206004820152601f60248201527f556e657175616c206172726179206d656d656265727320646574656374656400604482015260640161047a565b60005b8551811015610823576106ae600380546001019055565b60006106b960035490565b90506106c3612c69565b8181526020810189905287518890849081106106e1576106e16136e8565b6020026020010151816040018181525050868381518110610704576107046136e8565b6020026020010151816060018181525050858381518110610727576107276136e8565b602002602001015181608001818152505084838151811061074a5761074a6136e8565b60200260200101518160a001818152505083838151811061076d5761076d6136e8565b60209081029190910181015161012083019081526000938452600680835260409485902084518155928401516001840155938301516002830155606083015160038301556080830151600483015560a0830151600583015560c08301519382019390935560e08201516007820180546101008086015115150261ff00199315159390931661ffff19909116179190911790559151600883015561014001516009909101558061081b81613714565b915050610697565b506000805160206139958339815191526040516108649060208082526010908201526f151a5b595cdb1bdd0818dc99585d195960821b604082015260600190565b60405180910390a1505050505050565b61087c612cc7565b60056000838152602001908152602001600020604051806101a0016040529081600082015481526020016001820180546108b59061372d565b80601f01602080910402602001604051908101604052809291908181526020018280546108e19061372d565b801561092e5780601f106109035761010080835404028352916020019161092e565b820191906000526020600020905b81548152906001019060200180831161091157829003601f168201915b505050505081526020016002820180546109479061372d565b80601f01602080910402602001604051908101604052809291908181526020018280546109739061372d565b80156109c05780601f10610995576101008083540402835291602001916109c0565b820191906000526020600020905b8154815290600101906020018083116109a357829003601f168201915b505050505081526020016003820180546109d99061372d565b80601f0160208091040260200160405190810160405280929190818152602001828054610a059061372d565b8015610a525780601f10610a2757610100808354040283529160200191610a52565b820191906000526020600020905b815481529060010190602001808311610a3557829003601f168201915b50505050508152602001600482018054610a6b9061372d565b80601f0160208091040260200160405190810160405280929190818152602001828054610a979061372d565b8015610ae45780601f10610ab957610100808354040283529160200191610ae4565b820191906000526020600020905b815481529060010190602001808311610ac757829003601f168201915b50505050508152602001600582018054610afd9061372d565b80601f0160208091040260200160405190810160405280929190818152602001828054610b299061372d565b8015610b765780601f10610b4b57610100808354040283529160200191610b76565b820191906000526020600020905b815481529060010190602001808311610b5957829003601f168201915b50505050508152602001600682018054610b8f9061372d565b80601f0160208091040260200160405190810160405280929190818152602001828054610bbb9061372d565b8015610c085780601f10610bdd57610100808354040283529160200191610c08565b820191906000526020600020905b815481529060010190602001808311610beb57829003601f168201915b50505050508152602001600782018054610c219061372d565b80601f0160208091040260200160405190810160405280929190818152602001828054610c4d9061372d565b8015610c9a5780601f10610c6f57610100808354040283529160200191610c9a565b820191906000526020600020905b815481529060010190602001808311610c7d57829003601f168201915b50505050508152602001600882018054610cb39061372d565b80601f0160208091040260200160405190810160405280929190818152602001828054610cdf9061372d565b8015610d2c5780601f10610d0157610100808354040283529160200191610d2c565b820191906000526020600020905b815481529060010190602001808311610d0f57829003601f168201915b50505050508152602001600982018054610d459061372d565b80601f0160208091040260200160405190810160405280929190818152602001828054610d719061372d565b8015610dbe5780601f10610d9357610100808354040283529160200191610dbe565b820191906000526020600020905b815481529060010190602001808311610da157829003601f168201915b50505050508152602001600a82018054610dd79061372d565b80601f0160208091040260200160405190810160405280929190818152602001828054610e039061372d565b8015610e505780601f10610e2557610100808354040283529160200191610e50565b820191906000526020600020905b815481529060010190602001808311610e3357829003601f168201915b5050509183525050600b8201546020820152600c9091015460ff16151560409091015292915050565b610e81612c69565b50600090815260066020818152604092839020835161016081018552815481526001820154928101929092526002810154938201939093526003830154606082015260048301546080820152600583015460a08201529082015460c0820152600782015460ff808216151560e08401526101009182900416151590820152600882015461012082015260099091015461014082015290565b6060600060015b6002548111610f62576000818152600560205260409020600c015460ff16610f505781610f4c81613714565b9250505b80610f5a81613714565b915050610f20565b50806001600160401b03811115610f7b57610f7b612d92565b604051908082528060200260200182016040528015610fb457816020015b610fa1612cc7565b815260200190600190039081610f995790505b509150600060015b6002548111611610576000818152600560205260409020600c015460ff166115fe5760056000828152602001908152602001600020604051806101a0016040529081600082015481526020016001820180546110179061372d565b80601f01602080910402602001604051908101604052809291908181526020018280546110439061372d565b80156110905780601f1061106557610100808354040283529160200191611090565b820191906000526020600020905b81548152906001019060200180831161107357829003601f168201915b505050505081526020016002820180546110a99061372d565b80601f01602080910402602001604051908101604052809291908181526020018280546110d59061372d565b80156111225780601f106110f757610100808354040283529160200191611122565b820191906000526020600020905b81548152906001019060200180831161110557829003601f168201915b5050505050815260200160038201805461113b9061372d565b80601f01602080910402602001604051908101604052809291908181526020018280546111679061372d565b80156111b45780601f10611189576101008083540402835291602001916111b4565b820191906000526020600020905b81548152906001019060200180831161119757829003601f168201915b505050505081526020016004820180546111cd9061372d565b80601f01602080910402602001604051908101604052809291908181526020018280546111f99061372d565b80156112465780601f1061121b57610100808354040283529160200191611246565b820191906000526020600020905b81548152906001019060200180831161122957829003601f168201915b5050505050815260200160058201805461125f9061372d565b80601f016020809104026020016040519081016040528092919081815260200182805461128b9061372d565b80156112d85780601f106112ad576101008083540402835291602001916112d8565b820191906000526020600020905b8154815290600101906020018083116112bb57829003601f168201915b505050505081526020016006820180546112f19061372d565b80601f016020809104026020016040519081016040528092919081815260200182805461131d9061372d565b801561136a5780601f1061133f5761010080835404028352916020019161136a565b820191906000526020600020905b81548152906001019060200180831161134d57829003601f168201915b505050505081526020016007820180546113839061372d565b80601f01602080910402602001604051908101604052809291908181526020018280546113af9061372d565b80156113fc5780601f106113d1576101008083540402835291602001916113fc565b820191906000526020600020905b8154815290600101906020018083116113df57829003601f168201915b505050505081526020016008820180546114159061372d565b80601f01602080910402602001604051908101604052809291908181526020018280546114419061372d565b801561148e5780601f106114635761010080835404028352916020019161148e565b820191906000526020600020905b81548152906001019060200180831161147157829003601f168201915b505050505081526020016009820180546114a79061372d565b80601f01602080910402602001604051908101604052809291908181526020018280546114d39061372d565b80156115205780601f106114f557610100808354040283529160200191611520565b820191906000526020600020905b81548152906001019060200180831161150357829003601f168201915b50505050508152602001600a820180546115399061372d565b80601f01602080910402602001604051908101604052809291908181526020018280546115659061372d565b80156115b25780601f10611587576101008083540402835291602001916115b2565b820191906000526020600020905b81548152906001019060200180831161159557829003601f168201915b5050509183525050600b8201546020820152600c9091015460ff16151560409091015284836115e081613714565b9450815181106115f2576115f26136e8565b60200260200101819052505b8061160881613714565b915050610fbc565b50505090565b6000828152600160208190526040909120015461163281612978565b61163c8383612982565b505050565b6001600160a01b03811633146116b15760405162461bcd60e51b815260206004820152602f60248201527f416363657373436f6e74726f6c3a2063616e206f6e6c792072656e6f756e636560448201526e103937b632b9903337b91039b2b63360891b606482015260840161047a565b6116bb8282612911565b5050565b6116d760008051602061397583398151915233612091565b6116f35760405162461bcd60e51b815260040161047a90613767565b60008181526006602052604090819020600701805460ff1916600117905551600080516020613995833981519152906117509060208082526010908201526f151a5b595cdb1bdd0819195b195d195960821b604082015260600190565b60405180910390a150565b61177360008051602061397583398151915233612091565b61178f5760405162461bcd60e51b815260040161047a90613767565b805160009081526006602081815260409283902084518155908401516001820155918301516002830155606083015160038301556080830151600483015560a0830151600583015560c08301519082015560e08201516007820180546101008086015115150261ff00199315159390931661ffff1990911617919091179055610120820151600882015561014090910151600990910155565b6118306128ad565b60008181526004602052604090205460ff1661185e5760405162461bcd60e51b815260040161047a906136bf565b6000818152600560209081526040808320600c01805460ff19908116600117909155600490925291829020805490911690555160008051602061399583398151915290611750906020808252600d908201526c135bdd9a59481d5c19185d1959609a1b604082015260600190565b6060600060015b6003548111611933576000818152600660205260409020600801548414801561190e575060008181526006602052604090206007015460ff16155b15611921578161191d81613714565b9250505b8061192b81613714565b9150506118d3565b50806001600160401b0381111561194c5761194c612d92565b60405190808252806020026020018201604052801561198557816020015b611972612c69565b81526020019060019003908161196a5790505b509150600060015b6003548111611a5b57600081815260066020526040902060080154851480156119c8575060008181526006602052604090206007015460ff16155b15611a495760008181526006602052604090206003015484518590849081106119f3576119f36136e8565b602002602001015160600181815250506006600082815260200190815260200160002060040154848380611a2690613714565b945081518110611a3857611a386136e8565b602002602001015160800181815250505b80611a5381613714565b91505061198d565b505050919050565b611a6b6128ad565b611a7560006129ed565b565b6060600060015b6003548111611ade5760008181526006602052604090206001015484148015611ab9575060008181526006602052604090206007015460ff16155b15611acc5781611ac881613714565b9250505b80611ad681613714565b915050611a7e565b50806001600160401b03811115611af757611af7612d92565b604051908082528060200260200182016040528015611b3057816020015b611b1d612c69565b815260200190600190039081611b155790505b509150600060015b6003548111611a5b5760008181526006602052604090206001015485148015611b73575060008181526006602052604090206007015460ff16155b15611c3557600081815260066020818152604092839020835161016081018552815481526001820154928101929092526002810154938201939093526003830154606082015260048301546080820152600583015460a08201529082015460c0820152600782015460ff808216151560e0840152610100918290041615159082015260088201546101208201526009909101546101408201528483611c1781613714565b945081518110611c2957611c296136e8565b60200260200101819052505b80611c3f81613714565b915050611b38565b611c4f6128ad565b60008b81526004602052604090205460ff16611c7d5760405162461bcd60e51b815260040161047a906136bf565b60008a5111611cc55760405162461bcd60e51b81526020600482015260146024820152734e616d652063616e6e6f7420626520656d70747960601b604482015260640161047a565b6000895111611d0f5760405162461bcd60e51b815260206004820152601660248201527542616e6e65722063616e6e6f7420626520656d70747960501b604482015260640161047a565b6000885111611d5b5760405162461bcd60e51b8152602060048201526018602482015277496d61676555726c2063616e6e6f7420626520656d70747960401b604482015260640161047a565b6000875111611da75760405162461bcd60e51b8152602060048201526018602482015277566964656f55726c2063616e6e6f7420626520656d70747960401b604482015260640161047a565b6000865111611df05760405162461bcd60e51b815260206004820152601560248201527447656e72652063616e6e6f7420626520656d70747960581b604482015260640161047a565b6000855111611e415760405162461bcd60e51b815260206004820152601b60248201527f4465736372697074696f6e2063616e6e6f7420626520656d7074790000000000604482015260640161047a565b6000845111611e8c5760405162461bcd60e51b815260206004820152601760248201527643617074696f6e2063616e6e6f7420626520656d70747960481b604482015260640161047a565b6000825111611ed75760405162461bcd60e51b815260206004820152601760248201527652756e6e696e672063616e6e6f7420626520656d70747960481b604482015260640161047a565b6000815111611f235760405162461bcd60e51b815260206004820152601860248201527752656c65617365642063616e6e6f7420626520656d70747960401b604482015260640161047a565b60008b81526005602052604090208b8155600101611f418b826137ec565b5060008b8152600560205260409020600201611f5d8a826137ec565b5060008b8152600560205260409020600301611f7989826137ec565b5060008b8152600560205260409020600401611f9588826137ec565b5060008b815260056020819052604090912001611fb287826137ec565b5060008b8152600560205260409020600601611fce86826137ec565b5060008b8152600560205260409020600701611fea85826137ec565b5060008b815260056020526040902060080161200684826137ec565b5060008b815260056020526040902060090161202283826137ec565b5060008b8152600560205260409020600a0161203e82826137ec565b5060008051602061399583398151915260405161207c906020808252600d908201526c135bdd9a59481d5c19185d1959609a1b604082015260600190565b60405180910390a15050505050505050505050565b60009182526001602090815260408084206001600160a01b0393909316845291905290205460ff1690565b6120c46128ad565b60008a511161210c5760405162461bcd60e51b81526020600482015260146024820152734e616d652063616e6e6f7420626520656d70747960601b604482015260640161047a565b60008951116121565760405162461bcd60e51b815260206004820152601660248201527542616e6e65722063616e6e6f7420626520656d70747960501b604482015260640161047a565b60008851116121a25760405162461bcd60e51b8152602060048201526018602482015277496d61676555726c2063616e6e6f7420626520656d70747960401b604482015260640161047a565b60008751116121ee5760405162461bcd60e51b8152602060048201526018602482015277566964656f55726c2063616e6e6f7420626520656d70747960401b604482015260640161047a565b60008651116122375760405162461bcd60e51b815260206004820152601560248201527447656e72652063616e6e6f7420626520656d70747960581b604482015260640161047a565b60008551116122885760405162461bcd60e51b815260206004820152601b60248201527f4465736372697074696f6e2063616e6e6f7420626520656d7074790000000000604482015260640161047a565b60008451116122d35760405162461bcd60e51b815260206004820152601760248201527643617074696f6e2063616e6e6f7420626520656d70747960481b604482015260640161047a565b600082511161231e5760405162461bcd60e51b815260206004820152601760248201527652756e6e696e672063616e6e6f7420626520656d70747960481b604482015260640161047a565b600081511161236a5760405162461bcd60e51b815260206004820152601860248201527752656c65617365642063616e6e6f7420626520656d70747960401b604482015260640161047a565b612378600280546001019055565b600061238360025490565b905061238d612cc7565b818152602081018c9052604081018b9052606081018a90526080810189905260a0810188905260c0810187905260e081018690526101008101859052610120810184905261014081018390526123e1612a3d565b61016082015260008281526005602090815260409091208251815590820151829190600182019061241290826137ec565b506040820151600282019061242790826137ec565b506060820151600382019061243c90826137ec565b506080820151600482019061245190826137ec565b5060a0820151600582019061246690826137ec565b5060c0820151600682019061247b90826137ec565b5060e0820151600782019061249090826137ec565b5061010082015160088201906124a690826137ec565b5061012082015160098201906124bc90826137ec565b50610140820151600a8201906124d290826137ec565b50610160820151600b82015561018090910151600c909101805491151560ff19928316179055600083815260046020526040908190208054909216600117909155516000805160206139958339815191529061254d906020808252600b908201526a135bdd9a5948105919195960aa1b604082015260600190565b60405180910390a1505050505050505050505050565b61257b60008051602061397583398151915233612091565b6125975760405162461bcd60e51b815260040161047a90613767565b60008181526006602052604090819020600701805461ff001916610100179055516000805160206139958339815191529061175090602080825260129082015271151a5b595cdb1bdd0818dbdb5c1b195d195960721b604082015260600190565b6060600060015b6003548111612682576000818152600660205260409020600101548414801561263a575060008181526006602052604090206007015460ff16155b801561265d5750600081815260066020526040902060070154610100900460ff16155b15612670578161266c81613714565b9250505b8061267a81613714565b9150506125ff565b50806001600160401b0381111561269b5761269b612d92565b6040519080825280602002602001820160405280156126d457816020015b6126c1612c69565b8152602001906001900390816126b95790505b509150600060015b6003548111611a5b5760008181526006602052604090206001015485148015612717575060008181526006602052604090206007015460ff16155b801561273a5750600081815260066020526040902060070154610100900460ff16155b156127fc57600081815260066020818152604092839020835161016081018552815481526001820154928101929092526002810154938201939093526003830154606082015260048301546080820152600583015460a08201529082015460c0820152600782015460ff808216151560e08401526101009182900416151590820152600882015461012082015260099091015461014082015284836127de81613714565b9450815181106127f0576127f06136e8565b60200260200101819052505b8061280681613714565b9150506126dc565b6000828152600160208190526040909120015461282a81612978565b61163c8383612911565b61283c6128ad565b6001600160a01b0381166128a15760405162461bcd60e51b815260206004820152602660248201527f4f776e61626c653a206e6577206f776e657220697320746865207a65726f206160448201526564647265737360d01b606482015260840161047a565b6128aa816129ed565b50565b6000546001600160a01b03163314611a755760405162461bcd60e51b815260206004820181905260248201527f4f776e61626c653a2063616c6c6572206973206e6f7420746865206f776e6572604482015260640161047a565b6116bb8282612982565b61291b8282612091565b156116bb5760008281526001602090815260408083206001600160a01b0385168085529252808320805460ff1916905551339285917ff6391f5c32d9c69d2a47ea670b442974b53935d1edc7fd64eb21e047a839171b9190a45050565b6128aa8133612a5c565b61298c8282612091565b6116bb5760008281526001602081815260408084206001600160a01b0386168086529252808420805460ff19169093179092559051339285917f2f8788117e7eff1d82e926ec794901d17c78024a50270940304540a733656f0d9190a45050565b600080546001600160a01b038381166001600160a01b0319831681178455604051919092169283917f8be0079c531659141344cd1fd0a4f28419497f9722a3daafe3b4186f6b6457e09190a35050565b6000612a4b426103e86138ab565b612a57906103e86138c2565b905090565b612a668282612091565b6116bb57612a7381612ab5565b612a7e836020612ac7565b604051602001612a8f9291906138d5565b60408051601f198184030181529082905262461bcd60e51b825261047a9160040161394a565b60606103d76001600160a01b03831660145b60606000612ad68360026138ab565b612ae19060026138c2565b6001600160401b03811115612af857612af8612d92565b6040519080825280601f01601f191660200182016040528015612b22576020820181803683370190505b509050600360fc1b81600081518110612b3d57612b3d6136e8565b60200101906001600160f81b031916908160001a905350600f60fb1b81600181518110612b6c57612b6c6136e8565b60200101906001600160f81b031916908160001a9053506000612b908460026138ab565b612b9b9060016138c2565b90505b6001811115612c13576f181899199a1a9b1b9c1cb0b131b232b360811b85600f1660108110612bcf57612bcf6136e8565b1a60f81b828281518110612be557612be56136e8565b60200101906001600160f81b031916908160001a90535060049490941c93612c0c8161395d565b9050612b9e565b508315612c625760405162461bcd60e51b815260206004820181905260248201527f537472696e67733a20686578206c656e67746820696e73756666696369656e74604482015260640161047a565b9392505050565b6040518061016001604052806000815260200160008152602001600081526020016000815260200160008152602001600081526020016000815260200160001515815260200160001515815260200160008152602001600081525090565b604051806101a001604052806000815260200160608152602001606081526020016060815260200160608152602001606081526020016060815260200160608152602001606081526020016060815260200160608152602001600081526020016000151581525090565b600060208284031215612d4357600080fd5b81356001600160e01b031981168114612c6257600080fd5b80356001600160a01b0381168114612d7257600080fd5b919050565b600060208284031215612d8957600080fd5b612c6282612d5b565b634e487b7160e01b600052604160045260246000fd5b60405161016081016001600160401b0381118282101715612dcb57612dcb612d92565b60405290565b604051601f8201601f191681016001600160401b0381118282101715612df957612df9612d92565b604052919050565b600082601f830112612e1257600080fd5b813560206001600160401b03821115612e2d57612e2d612d92565b8160051b612e3c828201612dd1565b9283528481018201928281019087851115612e5657600080fd5b83870192505b84831015612e7557823582529183019190830190612e5c565b979650505050505050565b60008060008060008060c08789031215612e9957600080fd5b8635955060208701356001600160401b0380821115612eb757600080fd5b612ec38a838b01612e01565b96506040890135915080821115612ed957600080fd5b612ee58a838b01612e01565b95506060890135915080821115612efb57600080fd5b612f078a838b01612e01565b94506080890135915080821115612f1d57600080fd5b612f298a838b01612e01565b935060a0890135915080821115612f3f57600080fd5b50612f4c89828a01612e01565b9150509295509295509295565b600060208284031215612f6b57600080fd5b5035919050565b60005b83811015612f8d578181015183820152602001612f75565b50506000910152565b60008151808452612fae816020860160208601612f72565b601f01601f19169290920160200192915050565b60006101a0825184526020830151816020860152612fe282860182612f96565b91505060408301518482036040860152612ffc8282612f96565b915050606083015184820360608601526130168282612f96565b915050608083015184820360808601526130308282612f96565b91505060a083015184820360a086015261304a8282612f96565b91505060c083015184820360c08601526130648282612f96565b91505060e083015184820360e086015261307e8282612f96565b91505061010080840151858303828701526130998382612f96565b9250505061012080840151858303828701526130b58382612f96565b9250505061014080840151858303828701526130d18382612f96565b92505050610160808401518186015250610180808401516130f58287018215159052565b5090949350505050565b602081526000612c626020830184612fc2565b805182526020810151602083015260408101516040830152606081015160608301526080810151608083015260a081015160a083015260c081015160c083015260e081015161316560e084018215159052565b5061010081810151151590830152610120808201519083015261014090810151910152565b61016081016103d78284613112565b6000602080830181845280855180835260408601915060408160051b870101925083870160005b828110156131ee57603f198886030184526131dc858351612fc2565b945092850192908501906001016131c0565b5092979650505050505050565b6000806040838503121561320e57600080fd5b8235915061321e60208401612d5b565b90509250929050565b80358015158114612d7257600080fd5b6000610160828403121561324a57600080fd5b613252612da8565b823581526020830135602082015260408301356040820152606083013560608201526080830135608082015260a083013560a082015260c083013560c082015261329e60e08401613227565b60e08201526101006132b1818501613227565b908201526101208381013590820152610140928301359281019290925250919050565b6020808252825182820181905260009190848201906040850190845b8181101561331757613303838551613112565b9284019261016092909201916001016132f0565b50909695505050505050565b600082601f83011261333457600080fd5b81356001600160401b0381111561334d5761334d612d92565b613360601f8201601f1916602001612dd1565b81815284602083860101111561337557600080fd5b816020850160208301376000918101602001919091529392505050565b60008060008060008060008060008060006101608c8e0312156133b457600080fd5b8b359a506001600160401b038060208e013511156133d157600080fd5b6133e18e60208f01358f01613323565b9a508060408e013511156133f457600080fd5b6134048e60408f01358f01613323565b99508060608e0135111561341757600080fd5b6134278e60608f01358f01613323565b98508060808e0135111561343a57600080fd5b61344a8e60808f01358f01613323565b97508060a08e0135111561345d57600080fd5b61346d8e60a08f01358f01613323565b96508060c08e0135111561348057600080fd5b6134908e60c08f01358f01613323565b95508060e08e013511156134a357600080fd5b6134b38e60e08f01358f01613323565b9450806101008e013511156134c757600080fd5b6134d88e6101008f01358f01613323565b9350806101208e013511156134ec57600080fd5b6134fd8e6101208f01358f01613323565b9250806101408e0135111561351157600080fd5b506135238d6101408e01358e01613323565b90509295989b509295989b9093969950565b6000806000806000806000806000806101408b8d03121561355557600080fd5b8a356001600160401b038082111561356c57600080fd5b6135788e838f01613323565b9b5060208d013591508082111561358e57600080fd5b61359a8e838f01613323565b9a5060408d01359150808211156135b057600080fd5b6135bc8e838f01613323565b995060608d01359150808211156135d257600080fd5b6135de8e838f01613323565b985060808d01359150808211156135f457600080fd5b6136008e838f01613323565b975060a08d013591508082111561361657600080fd5b6136228e838f01613323565b965060c08d013591508082111561363857600080fd5b6136448e838f01613323565b955060e08d013591508082111561365a57600080fd5b6136668e838f01613323565b94506101008d013591508082111561367d57600080fd5b6136898e838f01613323565b93506101208d01359150808211156136a057600080fd5b506136ad8d828e01613323565b9150509295989b9194979a5092959850565b6020808252600f908201526e135bdd9a59481b9bdd08199bdd5b99608a1b604082015260600190565b634e487b7160e01b600052603260045260246000fd5b634e487b7160e01b600052601160045260246000fd5b600060018201613726576137266136fe565b5060010190565b600181811c9082168061374157607f821691505b60208210810361376157634e487b7160e01b600052602260045260246000fd5b50919050565b6020808252601f908201527f43616c6c6572206973206e6f742061207469636b657420636f6e747261637400604082015260600190565b601f82111561163c57600081815260208120601f850160051c810160208610156137c55750805b601f850160051c820191505b818110156137e4578281556001016137d1565b505050505050565b81516001600160401b0381111561380557613805612d92565b61381981613813845461372d565b8461379e565b602080601f83116001811461384e57600084156138365750858301515b600019600386901b1c1916600185901b1785556137e4565b600085815260208120601f198616915b8281101561387d5788860151825594840194600190910190840161385e565b508582101561389b5787850151600019600388901b60f8161c191681555b5050505050600190811b01905550565b80820281158282048414176103d7576103d76136fe565b808201808211156103d7576103d76136fe565b7f416363657373436f6e74726f6c3a206163636f756e742000000000000000000081526000835161390d816017850160208801612f72565b7001034b99036b4b9b9b4b733903937b6329607d1b601791840191820152835161393e816028840160208801612f72565b01602801949350505050565b602081526000612c626020830184612f96565b60008161396c5761396c6136fe565b50600019019056fe84c0e6936832819e27761bd60cca25b2ef9a185b925c2c99a066a29a80d42f038b2c14fe955d044ef95ba32b88d2ceb87c6f73fcefdcebe906063a6d75690f27a2646970667358221220705dc9c8e89122d7d47115de0df5384c3166ec58909b26ef5ebdc271088bbddd64736f6c63430008130033",
  "linkReferences": {},
  "deployedLinkReferences": {}
}