{
  "_format": "hh-sol-artifact-1",
  "contractName": "DappCinemas",
  "sourceName": "contracts/DappCinemas.sol",
  "abi": [
    {
      "anonymous": false,
      "inputs": [
        {
          "indexed": false,
          "internalType": "string",
          "name": "actionType",
          "type": "string"
        }
      ],
      "name": "Action",
      "type": "event"
    },
    {
      "anonymous": false,
      "inputs": [
        {
          "indexed": true,
          "internalType": "address",
          "name": "previousOwner",
          "type": "address"
        },
        {
          "indexed": true,
          "internalType": "address",
          "name": "newOwner",
          "type": "address"
        }
      ],
      "name": "OwnershipTransferred",
      "type": "event"
    },
    {
      "anonymous": false,
      "inputs": [
        {
          "indexed": true,
          "internalType": "bytes32",
          "name": "role",
          "type": "bytes32"
        },
        {
          "indexed": true,
          "internalType": "bytes32",
          "name": "previousAdminRole",
          "type": "bytes32"
        },
        {
          "indexed": true,
          "internalType": "bytes32",
          "name": "newAdminRole",
          "type": "bytes32"
        }
      ],
      "name": "RoleAdminChanged",
      "type": "event"
    },
    {
      "anonymous": false,
      "inputs": [
        {
          "indexed": true,
          "internalType": "bytes32",
          "name": "role",
          "type": "bytes32"
        },
        {
          "indexed": true,
          "internalType": "address",
          "name": "account",
          "type": "address"
        },
        {
          "indexed": true,
          "internalType": "address",
          "name": "sender",
          "type": "address"
        }
      ],
      "name": "RoleGranted",
      "type": "event"
    },
    {
      "anonymous": false,
      "inputs": [
        {
          "indexed": true,
          "internalType": "bytes32",
          "name": "role",
          "type": "bytes32"
        },
        {
          "indexed": true,
          "internalType": "address",
          "name": "account",
          "type": "address"
        },
        {
          "indexed": true,
          "internalType": "address",
          "name": "sender",
          "type": "address"
        }
      ],
      "name": "RoleRevoked",
      "type": "event"
    },
    {
      "inputs": [],
      "name": "DEFAULT_ADMIN_ROLE",
      "outputs": [
        {
          "internalType": "bytes32",
          "name": "",
          "type": "bytes32"
        }
      ],
      "stateMutability": "view",
      "type": "function"
    },
    {
      "inputs": [],
      "name": "TICKET_ROLE",
      "outputs": [
        {
          "internalType": "bytes32",
          "name": "",
          "type": "bytes32"
        }
      ],
      "stateMutability": "view",
      "type": "function"
    },
    {
      "inputs": [
        {
          "internalType": "string",
          "name": "_name",
          "type": "string"
        },
        {
          "internalType": "string",
          "name": "_banner",
          "type": "string"
        },
        {
          "internalType": "string",
          "name": "_imageUrl",
          "type": "string"
        },
        {
          "internalType": "string",
          "name": "_videoUrl",
          "type": "string"
        },
        {
          "internalType": "string",
          "name": "_genre",
          "type": "string"
        },
        {
          "internalType": "string",
          "name": "_description",
          "type": "string"
        },
        {
          "internalType": "string",
          "name": "_caption",
          "type": "string"
        },
        {
          "internalType": "string",
          "name": "_casts",
          "type": "string"
        },
        {
          "internalType": "uint256",
          "name": "_running",
          "type": "uint256"
        },
        {
          "internalType": "uint256",
          "name": "_released",
          "type": "uint256"
        }
      ],
      "name": "addMovie",
      "outputs": [],
      "stateMutability": "nonpayable",
      "type": "function"
    },
    {
      "inputs": [
        {
          "internalType": "uint256",
          "name": "_movieId",
          "type": "uint256"
        },
        {
          "internalType": "uint256",
          "name": "_ticketCost",
          "type": "uint256"
        },
        {
          "internalType": "uint256",
          "name": "_startTime",
          "type": "uint256"
        },
        {
          "internalType": "uint256",
          "name": "_endTime",
          "type": "uint256"
        },
        {
          "internalType": "uint256",
          "name": "_capacity",
          "type": "uint256"
        },
        {
          "internalType": "uint256",
          "name": "_day",
          "type": "uint256"
        }
      ],
      "name": "addTimeSlot",
      "outputs": [],
      "stateMutability": "nonpayable",
      "type": "function"
    },
    {
      "inputs": [
        {
          "internalType": "uint256",
          "name": "_slotId",
          "type": "uint256"
        }
      ],
      "name": "completeTimeSlot",
      "outputs": [],
      "stateMutability": "nonpayable",
      "type": "function"
    },
    {
      "inputs": [
        {
          "internalType": "uint256",
          "name": "_movieId",
          "type": "uint256"
        }
      ],
      "name": "deleteMovie",
      "outputs": [],
      "stateMutability": "nonpayable",
      "type": "function"
    },
    {
      "inputs": [
        {
          "internalType": "uint256",
          "name": "_slotId",
          "type": "uint256"
        }
      ],
      "name": "deleteTimeSlot",
      "outputs": [],
      "stateMutability": "nonpayable",
      "type": "function"
    },
    {
      "inputs": [
        {
          "internalType": "uint256",
          "name": "movieId",
          "type": "uint256"
        }
      ],
      "name": "getMovie",
      "outputs": [
        {
          "components": [
            {
              "internalType": "uint256",
              "name": "id",
              "type": "uint256"
            },
            {
              "internalType": "string",
              "name": "name",
              "type": "string"
            },
            {
              "internalType": "string",
              "name": "banner",
              "type": "string"
            },
            {
              "internalType": "string",
              "name": "imageUrl",
              "type": "string"
            },
            {
              "internalType": "string",
              "name": "videoUrl",
              "type": "string"
            },
            {
              "internalType": "string",
              "name": "genre",
              "type": "string"
            },
            {
              "internalType": "string",
              "name": "description",
              "type": "string"
            },
            {
              "internalType": "string",
              "name": "caption",
              "type": "string"
            },
            {
              "internalType": "string",
              "name": "casts",
              "type": "string"
            },
            {
              "internalType": "uint256",
              "name": "running",
              "type": "uint256"
            },
            {
              "internalType": "uint256",
              "name": "released",
              "type": "uint256"
            },
            {
              "internalType": "uint256",
              "name": "timestamp",
              "type": "uint256"
            },
            {
              "internalType": "bool",
              "name": "deleted",
              "type": "bool"
            }
          ],
          "internalType": "struct DappCinemas.MovieStruct",
          "name": "",
          "type": "tuple"
        }
      ],
      "stateMutability": "view",
      "type": "function"
    },
    {
      "inputs": [],
      "name": "getMovies",
      "outputs": [
        {
          "components": [
            {
              "internalType": "uint256",
              "name": "id",
              "type": "uint256"
            },
            {
              "internalType": "string",
              "name": "name",
              "type": "string"
            },
            {
              "internalType": "string",
              "name": "banner",
              "type": "string"
            },
            {
              "internalType": "string",
              "name": "imageUrl",
              "type": "string"
            },
            {
              "internalType": "string",
              "name": "videoUrl",
              "type": "string"
            },
            {
              "internalType": "string",
              "name": "genre",
              "type": "string"
            },
            {
              "internalType": "string",
              "name": "description",
              "type": "string"
            },
            {
              "internalType": "string",
              "name": "caption",
              "type": "string"
            },
            {
              "internalType": "string",
              "name": "casts",
              "type": "string"
            },
            {
              "internalType": "uint256",
              "name": "running",
              "type": "uint256"
            },
            {
              "internalType": "uint256",
              "name": "released",
              "type": "uint256"
            },
            {
              "internalType": "uint256",
              "name": "timestamp",
              "type": "uint256"
            },
            {
              "internalType": "bool",
              "name": "deleted",
              "type": "bool"
            }
          ],
          "internalType": "struct DappCinemas.MovieStruct[]",
          "name": "Movies",
          "type": "tuple[]"
        }
      ],
      "stateMutability": "view",
      "type": "function"
    },
    {
      "inputs": [
        {
          "internalType": "bytes32",
          "name": "role",
          "type": "bytes32"
        }
      ],
      "name": "getRoleAdmin",
      "outputs": [
        {
          "internalType": "bytes32",
          "name": "",
          "type": "bytes32"
        }
      ],
      "stateMutability": "view",
      "type": "function"
    },
    {
      "inputs": [
        {
          "internalType": "uint256",
          "name": "slotId",
          "type": "uint256"
        }
      ],
      "name": "getTimeSlot",
      "outputs": [
        {
          "components": [
            {
              "internalType": "uint256",
              "name": "id",
              "type": "uint256"
            },
            {
              "internalType": "uint256",
              "name": "movieId",
              "type": "uint256"
            },
            {
              "internalType": "uint256",
              "name": "ticketCost",
              "type": "uint256"
            },
            {
              "internalType": "uint256",
              "name": "startTime",
              "type": "uint256"
            },
            {
              "internalType": "uint256",
              "name": "endTime",
              "type": "uint256"
            },
            {
              "internalType": "uint256",
              "name": "capacity",
              "type": "uint256"
            },
            {
              "internalType": "uint256",
              "name": "seats",
              "type": "uint256"
            },
            {
              "internalType": "bool",
              "name": "deleted",
              "type": "bool"
            },
            {
              "internalType": "bool",
              "name": "completed",
              "type": "bool"
            },
            {
              "internalType": "uint256",
              "name": "day",
              "type": "uint256"
            },
            {
              "internalType": "uint256",
              "name": "balance",
              "type": "uint256"
            }
          ],
          "internalType": "struct DappCinemas.TimeSlotStruct",
          "name": "",
          "type": "tuple"
        }
      ],
      "stateMutability": "view",
      "type": "function"
    },
    {
      "inputs": [
        {
          "internalType": "uint256",
          "name": "movieId",
          "type": "uint256"
        }
      ],
      "name": "getTimeSlots",
      "outputs": [
        {
          "components": [
            {
              "internalType": "uint256",
              "name": "id",
              "type": "uint256"
            },
            {
              "internalType": "uint256",
              "name": "movieId",
              "type": "uint256"
            },
            {
              "internalType": "uint256",
              "name": "ticketCost",
              "type": "uint256"
            },
            {
              "internalType": "uint256",
              "name": "startTime",
              "type": "uint256"
            },
            {
              "internalType": "uint256",
              "name": "endTime",
              "type": "uint256"
            },
            {
              "internalType": "uint256",
              "name": "capacity",
              "type": "uint256"
            },
            {
              "internalType": "uint256",
              "name": "seats",
              "type": "uint256"
            },
            {
              "internalType": "bool",
              "name": "deleted",
              "type": "bool"
            },
            {
              "internalType": "bool",
              "name": "completed",
              "type": "bool"
            },
            {
              "internalType": "uint256",
              "name": "day",
              "type": "uint256"
            },
            {
              "internalType": "uint256",
              "name": "balance",
              "type": "uint256"
            }
          ],
          "internalType": "struct DappCinemas.TimeSlotStruct[]",
          "name": "MovieSlots",
          "type": "tuple[]"
        }
      ],
      "stateMutability": "view",
      "type": "function"
    },
    {
      "inputs": [
        {
          "internalType": "uint256",
          "name": "day",
          "type": "uint256"
        }
      ],
      "name": "getTimeSlotsByDay",
      "outputs": [
        {
          "components": [
            {
              "internalType": "uint256",
              "name": "id",
              "type": "uint256"
            },
            {
              "internalType": "uint256",
              "name": "movieId",
              "type": "uint256"
            },
            {
              "internalType": "uint256",
              "name": "ticketCost",
              "type": "uint256"
            },
            {
              "internalType": "uint256",
              "name": "startTime",
              "type": "uint256"
            },
            {
              "internalType": "uint256",
              "name": "endTime",
              "type": "uint256"
            },
            {
              "internalType": "uint256",
              "name": "capacity",
              "type": "uint256"
            },
            {
              "internalType": "uint256",
              "name": "seats",
              "type": "uint256"
            },
            {
              "internalType": "bool",
              "name": "deleted",
              "type": "bool"
            },
            {
              "internalType": "bool",
              "name": "completed",
              "type": "bool"
            },
            {
              "internalType": "uint256",
              "name": "day",
              "type": "uint256"
            },
            {
              "internalType": "uint256",
              "name": "balance",
              "type": "uint256"
            }
          ],
          "internalType": "struct DappCinemas.TimeSlotStruct[]",
          "name": "MovieSlots",
          "type": "tuple[]"
        }
      ],
      "stateMutability": "view",
      "type": "function"
    },
    {
      "inputs": [
        {
          "internalType": "address",
          "name": "_dappTicket",
          "type": "address"
        }
      ],
      "name": "grantAccess",
      "outputs": [],
      "stateMutability": "nonpayable",
      "type": "function"
    },
    {
      "inputs": [
        {
          "internalType": "bytes32",
          "name": "role",
          "type": "bytes32"
        },
        {
          "internalType": "address",
          "name": "account",
          "type": "address"
        }
      ],
      "name": "grantRole",
      "outputs": [],
      "stateMutability": "nonpayable",
      "type": "function"
    },
    {
      "inputs": [
        {
          "internalType": "bytes32",
          "name": "role",
          "type": "bytes32"
        },
        {
          "internalType": "address",
          "name": "account",
          "type": "address"
        }
      ],
      "name": "hasRole",
      "outputs": [
        {
          "internalType": "bool",
          "name": "",
          "type": "bool"
        }
      ],
      "stateMutability": "view",
      "type": "function"
    },
    {
      "inputs": [
        {
          "internalType": "uint256",
          "name": "slotId",
          "type": "uint256"
        }
      ],
      "name": "hasSlot",
      "outputs": [
        {
          "components": [
            {
              "internalType": "uint256",
              "name": "id",
              "type": "uint256"
            },
            {
              "internalType": "uint256",
              "name": "movieId",
              "type": "uint256"
            },
            {
              "internalType": "uint256",
              "name": "ticketCost",
              "type": "uint256"
            },
            {
              "internalType": "uint256",
              "name": "startTime",
              "type": "uint256"
            },
            {
              "internalType": "uint256",
              "name": "endTime",
              "type": "uint256"
            },
            {
              "internalType": "uint256",
              "name": "capacity",
              "type": "uint256"
            },
            {
              "internalType": "uint256",
              "name": "seats",
              "type": "uint256"
            },
            {
              "internalType": "bool",
              "name": "deleted",
              "type": "bool"
            },
            {
              "internalType": "bool",
              "name": "completed",
              "type": "bool"
            },
            {
              "internalType": "uint256",
              "name": "day",
              "type": "uint256"
            },
            {
              "internalType": "uint256",
              "name": "balance",
              "type": "uint256"
            }
          ],
          "internalType": "struct DappCinemas.TimeSlotStruct",
          "name": "",
          "type": "tuple"
        }
      ],
      "stateMutability": "view",
      "type": "function"
    },
    {
      "inputs": [],
      "name": "owner",
      "outputs": [
        {
          "internalType": "address",
          "name": "",
          "type": "address"
        }
      ],
      "stateMutability": "view",
      "type": "function"
    },
    {
      "inputs": [],
      "name": "renounceOwnership",
      "outputs": [],
      "stateMutability": "nonpayable",
      "type": "function"
    },
    {
      "inputs": [
        {
          "internalType": "bytes32",
          "name": "role",
          "type": "bytes32"
        },
        {
          "internalType": "address",
          "name": "account",
          "type": "address"
        }
      ],
      "name": "renounceRole",
      "outputs": [],
      "stateMutability": "nonpayable",
      "type": "function"
    },
    {
      "inputs": [
        {
          "internalType": "bytes32",
          "name": "role",
          "type": "bytes32"
        },
        {
          "internalType": "address",
          "name": "account",
          "type": "address"
        }
      ],
      "name": "revokeRole",
      "outputs": [],
      "stateMutability": "nonpayable",
      "type": "function"
    },
    {
      "inputs": [
        {
          "internalType": "bytes4",
          "name": "interfaceId",
          "type": "bytes4"
        }
      ],
      "name": "supportsInterface",
      "outputs": [
        {
          "internalType": "bool",
          "name": "",
          "type": "bool"
        }
      ],
      "stateMutability": "view",
      "type": "function"
    },
    {
      "inputs": [
        {
          "internalType": "address",
          "name": "newOwner",
          "type": "address"
        }
      ],
      "name": "transferOwnership",
      "outputs": [],
      "stateMutability": "nonpayable",
      "type": "function"
    },
    {
      "inputs": [
        {
          "internalType": "uint256",
          "name": "_movieId",
          "type": "uint256"
        },
        {
          "internalType": "string",
          "name": "_name",
          "type": "string"
        },
        {
          "internalType": "string",
          "name": "_banner",
          "type": "string"
        },
        {
          "internalType": "string",
          "name": "_imageUrl",
          "type": "string"
        },
        {
          "internalType": "string",
          "name": "_videoUrl",
          "type": "string"
        },
        {
          "internalType": "string",
          "name": "_genre",
          "type": "string"
        },
        {
          "internalType": "string",
          "name": "_description",
          "type": "string"
        },
        {
          "internalType": "string",
          "name": "_caption",
          "type": "string"
        },
        {
          "internalType": "string",
          "name": "_casts",
          "type": "string"
        },
        {
          "internalType": "uint256",
          "name": "_running",
          "type": "uint256"
        },
        {
          "internalType": "uint256",
          "name": "_released",
          "type": "uint256"
        }
      ],
      "name": "updateMovie",
      "outputs": [],
      "stateMutability": "nonpayable",
      "type": "function"
    }
  ],
  "bytecode": "0x608060405234801561001057600080fd5b5061001a3361001f565b61006f565b600080546001600160a01b038381166001600160a01b0319831681178455604051919092169283917f8be0079c531659141344cd1fd0a4f28419497f9722a3daafe3b4186f6b6457e09190a35050565b612aa98061007e6000396000f3fe608060405234801561001057600080fd5b50600436106101585760003560e01c8063715018a6116100c3578063a217fddf1161007c578063a217fddf14610311578063b6da3f0914610319578063d547741f1461032c578063d6330454146101ff578063d6cbac901461033f578063f2fde38b1461035257600080fd5b8063715018a61461029357806374a6d6671461029b5780637cd35a0a146102ae57806389964e22146102ce5780638da5cb5b146102e357806391d14854146102fe57600080fd5b80632c53b406116101155780632c53b4061461021f5780632f2ff15d146102345780633632d2ee1461024757806336568abe1461025a5780633b6559c11461026d5780636b4f6cb71461028057600080fd5b806301ffc9a71461015d5780630ae5e73914610185578063179ffe761461019a578063248a9ca3146101ba5780632b4bbba2146101ec5780632b85dcc9146101ff575b600080fd5b61017061016b3660046120b7565b610365565b60405190151581526020015b60405180910390f35b6101986101933660046120fd565b61039c565b005b6101ad6101a8366004612118565b610403565b60405161017c9190612293565b6101de6101c8366004612118565b6000908152600160208190526040909120015490565b60405190815260200161017c565b6101986101fa3660046122a6565b6108f8565b61021261020d366004612118565b610a6e565b60405161017c9190612361565b610227610b0e565b60405161017c9190612370565b6101986102423660046123d2565b6110fc565b6101986102553660046124a1565b611127565b6101986102683660046123d2565b6112ac565b61019861027b366004612118565b61132a565b61019861028e366004612118565b6113f6565b61019861149a565b6101986102a936600461260b565b6114ae565b6102c16102bc366004612118565b611699565b60405161017c9190612760565b6101de600080516020612a3483398151915281565b6000546040516001600160a01b03909116815260200161017c565b61017061030c3660046123d2565b6118c1565b6101de600081565b610198610327366004612118565b6118ec565b61019861033a3660046123d2565b6119b1565b6102c161034d366004612118565b6119d7565b6101986103603660046120fd565b611bbd565b60006001600160e01b03198216637965db0b60e01b148061039657506301ffc9a760e01b6001600160e01b03198316145b92915050565b6103a4611c36565b6103bc600080516020612a3483398151915282611c90565b6007546103e190600080516020612a34833981519152906001600160a01b0316611c9a565b600780546001600160a01b0319166001600160a01b0392909216919091179055565b61040b611fef565b60056000838152602001908152602001600020604051806101a001604052908160008201548152602001600182018054610444906127af565b80601f0160208091040260200160405190810160405280929190818152602001828054610470906127af565b80156104bd5780601f10610492576101008083540402835291602001916104bd565b820191906000526020600020905b8154815290600101906020018083116104a057829003601f168201915b505050505081526020016002820180546104d6906127af565b80601f0160208091040260200160405190810160405280929190818152602001828054610502906127af565b801561054f5780601f106105245761010080835404028352916020019161054f565b820191906000526020600020905b81548152906001019060200180831161053257829003601f168201915b50505050508152602001600382018054610568906127af565b80601f0160208091040260200160405190810160405280929190818152602001828054610594906127af565b80156105e15780601f106105b6576101008083540402835291602001916105e1565b820191906000526020600020905b8154815290600101906020018083116105c457829003601f168201915b505050505081526020016004820180546105fa906127af565b80601f0160208091040260200160405190810160405280929190818152602001828054610626906127af565b80156106735780601f1061064857610100808354040283529160200191610673565b820191906000526020600020905b81548152906001019060200180831161065657829003601f168201915b5050505050815260200160058201805461068c906127af565b80601f01602080910402602001604051908101604052809291908181526020018280546106b8906127af565b80156107055780601f106106da57610100808354040283529160200191610705565b820191906000526020600020905b8154815290600101906020018083116106e857829003601f168201915b5050505050815260200160068201805461071e906127af565b80601f016020809104026020016040519081016040528092919081815260200182805461074a906127af565b80156107975780601f1061076c57610100808354040283529160200191610797565b820191906000526020600020905b81548152906001019060200180831161077a57829003601f168201915b505050505081526020016007820180546107b0906127af565b80601f01602080910402602001604051908101604052809291908181526020018280546107dc906127af565b80156108295780601f106107fe57610100808354040283529160200191610829565b820191906000526020600020905b81548152906001019060200180831161080c57829003601f168201915b50505050508152602001600882018054610842906127af565b80601f016020809104026020016040519081016040528092919081815260200182805461086e906127af565b80156108bb5780601f10610890576101008083540402835291602001916108bb565b820191906000526020600020905b81548152906001019060200180831161089e57829003601f168201915b505050918352505060098201546020820152600a8201546040820152600b8201546060820152600c9091015460ff16151560809091015292915050565b610900611c36565b60008681526004602052604090205460ff166109375760405162461bcd60e51b815260040161092e906127e9565b60405180910390fd5b610945600380546001019055565b600061095060035490565b905061095a612059565b818152602080820189815260408084018a8152606085018a8152608086018a815260a087018a8152600060c0890181815260e08a01828152610100808c018481526101208d018f81526101408e018681528f875260069d8e9052958b90208e5181559b5160018d0155985160028c0155965160038b0155945160048a0155925160058901555197870197909755516007860180549351151590920261ff00199115159190911661ffff1990931692909217919091179055516008830155915160099091015551600080516020612a5483398151915290610a5c906020808252600e908201526d151a5b595cdb1bdd08185919195960921b604082015260600190565b60405180910390a15050505050505050565b610a76612059565b50600090815260066020818152604092839020835161016081018552815481526001820154928101929092526002810154938201939093526003830154606082015260048301546080820152600583015460a08201529082015460c0820152600782015460ff808216151560e08401526101009182900416151590820152600882015461012082015260099091015461014082015290565b6060600060015b6002548111610b57576000818152600560205260409020600c015460ff16610b455781610b418161282d565b9250505b80610b4f8161282d565b915050610b15565b508067ffffffffffffffff811115610b7157610b716123fe565b604051908082528060200260200182016040528015610baa57816020015b610b97611fef565b815260200190600190039081610b8f5790505b509150600060015b60025481116110f6576000818152600560205260409020600c015460ff166110e45760056000828152602001908152602001600020604051806101a001604052908160008201548152602001600182018054610c0d906127af565b80601f0160208091040260200160405190810160405280929190818152602001828054610c39906127af565b8015610c865780601f10610c5b57610100808354040283529160200191610c86565b820191906000526020600020905b815481529060010190602001808311610c6957829003601f168201915b50505050508152602001600282018054610c9f906127af565b80601f0160208091040260200160405190810160405280929190818152602001828054610ccb906127af565b8015610d185780601f10610ced57610100808354040283529160200191610d18565b820191906000526020600020905b815481529060010190602001808311610cfb57829003601f168201915b50505050508152602001600382018054610d31906127af565b80601f0160208091040260200160405190810160405280929190818152602001828054610d5d906127af565b8015610daa5780601f10610d7f57610100808354040283529160200191610daa565b820191906000526020600020905b815481529060010190602001808311610d8d57829003601f168201915b50505050508152602001600482018054610dc3906127af565b80601f0160208091040260200160405190810160405280929190818152602001828054610def906127af565b8015610e3c5780601f10610e1157610100808354040283529160200191610e3c565b820191906000526020600020905b815481529060010190602001808311610e1f57829003601f168201915b50505050508152602001600582018054610e55906127af565b80601f0160208091040260200160405190810160405280929190818152602001828054610e81906127af565b8015610ece5780601f10610ea357610100808354040283529160200191610ece565b820191906000526020600020905b815481529060010190602001808311610eb157829003601f168201915b50505050508152602001600682018054610ee7906127af565b80601f0160208091040260200160405190810160405280929190818152602001828054610f13906127af565b8015610f605780601f10610f3557610100808354040283529160200191610f60565b820191906000526020600020905b815481529060010190602001808311610f4357829003601f168201915b50505050508152602001600782018054610f79906127af565b80601f0160208091040260200160405190810160405280929190818152602001828054610fa5906127af565b8015610ff25780601f10610fc757610100808354040283529160200191610ff2565b820191906000526020600020905b815481529060010190602001808311610fd557829003601f168201915b5050505050815260200160088201805461100b906127af565b80601f0160208091040260200160405190810160405280929190818152602001828054611037906127af565b80156110845780601f1061105957610100808354040283529160200191611084565b820191906000526020600020905b81548152906001019060200180831161106757829003601f168201915b505050918352505060098201546020820152600a8201546040820152600b8201546060820152600c9091015460ff16151560809091015284836110c68161282d565b9450815181106110d8576110d8612846565b60200260200101819052505b806110ee8161282d565b915050610bb2565b50505090565b6000828152600160208190526040909120015461111881611d01565b6111228383611d0b565b505050565b61112f611c36565b60008b81526004602052604090205460ff1661115d5760405162461bcd60e51b815260040161092e906127e9565b60008b81526005602052604090206001016111788b826128aa565b5060008b81526005602052604090206002016111948a826128aa565b5060008b81526005602052604090206003016111b089826128aa565b5060008b81526005602052604090206004016111cc88826128aa565b5060008b8152600560208190526040909120016111e987826128aa565b5060008b815260056020526040902060060161120586826128aa565b5060008b815260056020526040902060070161122185826128aa565b5060008b815260056020526040902060080161123d84826128aa565b5060008b8152600560205260409081902060098101849055600a0182905551600080516020612a5483398151915290611297906020808252600d908201526c135bdd9a59481d5c19185d1959609a1b604082015260600190565b60405180910390a15050505050505050505050565b6001600160a01b038116331461131c5760405162461bcd60e51b815260206004820152602f60248201527f416363657373436f6e74726f6c3a2063616e206f6e6c792072656e6f756e636560448201526e103937b632b9903337b91039b2b63360891b606482015260840161092e565b6113268282611c9a565b5050565b611342600080516020612a34833981519152336118c1565b61138e5760405162461bcd60e51b815260206004820152601f60248201527f43616c6c6572206973206e6f742061207469636b657420636f6e747261637400604482015260640161092e565b60008181526006602052604090819020600701805460ff1916600117905551600080516020612a54833981519152906113eb9060208082526010908201526f151a5b595cdb1bdd0819195b195d195960821b604082015260600190565b60405180910390a150565b6113fe611c36565b60008181526004602052604090205460ff1661142c5760405162461bcd60e51b815260040161092e906127e9565b6000818152600560209081526040808320600c01805460ff199081166001179091556004909252918290208054909116905551600080516020612a54833981519152906113eb906020808252600d908201526c135bdd9a594819195b195d1959609a1b604082015260600190565b6114a2611c36565b6114ac6000611d76565b565b6114b6611c36565b6114c4600280546001019055565b60006114cf60025490565b90506114d9611fef565b818152602081018c9052604081018b9052606081018a90526080810189905260a0810188905260c0810187905260e0810186905261010081018590526101208101849052610140810183905261152d611dc6565b61016082015260008281526005602090815260409091208251815590820151829190600182019061155e90826128aa565b506040820151600282019061157390826128aa565b506060820151600382019061158890826128aa565b506080820151600482019061159d90826128aa565b5060a082015160058201906115b290826128aa565b5060c082015160068201906115c790826128aa565b5060e082015160078201906115dc90826128aa565b5061010082015160088201906115f290826128aa565b506101208201516009820155610140820151600a820155610160820151600b82015561018090910151600c909101805491151560ff1992831617905560008381526004602052604090819020805490921660011790915551600080516020612a5483398151915290611683906020808252600b908201526a135bdd9a5948185919195960aa1b604082015260600190565b60405180910390a1505050505050505050505050565b60606000805b6003548110156117205783600660006116b984600161296a565b8152602001908152602001600020600101541480156116fb5750600660006116e283600161296a565b815260208101919091526040016000206007015460ff16155b1561170e578161170a8161282d565b9250505b806117188161282d565b91505061169f565b508067ffffffffffffffff81111561173a5761173a6123fe565b60405190808252806020026020018201604052801561177357816020015b611760612059565b8152602001906001900390816117585790505b5091506000805b6003548110156118b957846006600061179484600161296a565b8152602001908152602001600020600101541480156117d65750600660006117bd83600161296a565b815260208101919091526040016000206007015460ff16155b156118a757600660006117ea83600161296a565b81526020808201929092526040908101600020815161016081018352815481526001820154938101939093526002810154918301919091526003810154606083015260048101546080830152600581015460a0830152600681015460c0830152600781015460ff808216151560e0850152610100918290041615159083015260088101546101208301526009015461014082015284836118898161282d565b94508151811061189b5761189b612846565b60200260200101819052505b806118b18161282d565b91505061177a565b505050919050565b60009182526001602090815260408084206001600160a01b0393909316845291905290205460ff1690565b611904600080516020612a34833981519152336118c1565b6119505760405162461bcd60e51b815260206004820152601f60248201527f43616c6c6572206973206e6f742061207469636b657420636f6e747261637400604482015260640161092e565b60008181526006602052604090819020600701805461ff00191661010017905551600080516020612a54833981519152906113eb90602080825260129082015271151a5b595cdb1bdd0818dbdb5c1b195d195960721b604082015260600190565b600082815260016020819052604090912001546119cd81611d01565b6111228383611c9a565b60606000805b600354811015611a5e5783600660006119f784600161296a565b815260200190815260200160002060080154148015611a39575060066000611a2083600161296a565b815260208101919091526040016000206007015460ff16155b15611a4c5781611a488161282d565b9250505b80611a568161282d565b9150506119dd565b508067ffffffffffffffff811115611a7857611a786123fe565b604051908082528060200260200182016040528015611ab157816020015b611a9e612059565b815260200190600190039081611a965790505b5091506000805b6003548110156118b9578460066000611ad284600161296a565b815260200190815260200160002060080154148015611b14575060066000611afb83600161296a565b815260208101919091526040016000206007015460ff16155b15611bab5760066000611b2883600161296a565b815260200190815260200160002060030154848381518110611b4c57611b4c612846565b60209081029190910101516060015260066000611b6a83600161296a565b815260200190815260200160002060040154848380611b889061282d565b945081518110611b9a57611b9a612846565b602002602001015160800181815250505b80611bb58161282d565b915050611ab8565b611bc5611c36565b6001600160a01b038116611c2a5760405162461bcd60e51b815260206004820152602660248201527f4f776e61626c653a206e6577206f776e657220697320746865207a65726f206160448201526564647265737360d01b606482015260840161092e565b611c3381611d76565b50565b6000546001600160a01b031633146114ac5760405162461bcd60e51b815260206004820181905260248201527f4f776e61626c653a2063616c6c6572206973206e6f7420746865206f776e6572604482015260640161092e565b6113268282611d0b565b611ca482826118c1565b156113265760008281526001602090815260408083206001600160a01b0385168085529252808320805460ff1916905551339285917ff6391f5c32d9c69d2a47ea670b442974b53935d1edc7fd64eb21e047a839171b9190a45050565b611c338133611de1565b611d1582826118c1565b6113265760008281526001602081815260408084206001600160a01b0386168086529252808420805460ff19169093179092559051339285917f2f8788117e7eff1d82e926ec794901d17c78024a50270940304540a733656f0d9190a45050565b600080546001600160a01b038381166001600160a01b0319831681178455604051919092169283917f8be0079c531659141344cd1fd0a4f28419497f9722a3daafe3b4186f6b6457e09190a35050565b600080611dd5426103e861297d565b610396906103e861296a565b611deb82826118c1565b61132657611df881611e3a565b611e03836020611e4c565b604051602001611e14929190612994565b60408051601f198184030181529082905262461bcd60e51b825261092e91600401612a09565b60606103966001600160a01b03831660145b60606000611e5b83600261297d565b611e6690600261296a565b67ffffffffffffffff811115611e7e57611e7e6123fe565b6040519080825280601f01601f191660200182016040528015611ea8576020820181803683370190505b509050600360fc1b81600081518110611ec357611ec3612846565b60200101906001600160f81b031916908160001a905350600f60fb1b81600181518110611ef257611ef2612846565b60200101906001600160f81b031916908160001a9053506000611f1684600261297d565b611f2190600161296a565b90505b6001811115611f99576f181899199a1a9b1b9c1cb0b131b232b360811b85600f1660108110611f5557611f55612846565b1a60f81b828281518110611f6b57611f6b612846565b60200101906001600160f81b031916908160001a90535060049490941c93611f9281612a1c565b9050611f24565b508315611fe85760405162461bcd60e51b815260206004820181905260248201527f537472696e67733a20686578206c656e67746820696e73756666696369656e74604482015260640161092e565b9392505050565b604051806101a001604052806000815260200160608152602001606081526020016060815260200160608152602001606081526020016060815260200160608152602001606081526020016000815260200160008152602001600081526020016000151581525090565b6040518061016001604052806000815260200160008152602001600081526020016000815260200160008152602001600081526020016000815260200160001515815260200160001515815260200160008152602001600081525090565b6000602082840312156120c957600080fd5b81356001600160e01b031981168114611fe857600080fd5b80356001600160a01b03811681146120f857600080fd5b919050565b60006020828403121561210f57600080fd5b611fe8826120e1565b60006020828403121561212a57600080fd5b5035919050565b60005b8381101561214c578181015183820152602001612134565b50506000910152565b6000815180845261216d816020860160208601612131565b601f01601f19169290920160200192915050565b60006101a08251845260208301518160208601526121a182860182612155565b915050604083015184820360408601526121bb8282612155565b915050606083015184820360608601526121d58282612155565b915050608083015184820360808601526121ef8282612155565b91505060a083015184820360a08601526122098282612155565b91505060c083015184820360c08601526122238282612155565b91505060e083015184820360e086015261223d8282612155565b91505061010080840151858303828701526122588382612155565b610120868101519088015261014080870151908801526101608087015190880152610180958601511515959096019490945250929392505050565b602081526000611fe86020830184612181565b60008060008060008060c087890312156122bf57600080fd5b505084359660208601359650604086013595606081013595506080810135945060a0013592509050565b805182526020810151602083015260408101516040830152606081015160608301526080810151608083015260a081015160a083015260c081015160c083015260e081015161233c60e084018215159052565b5061010081810151151590830152610120808201519083015261014090810151910152565b610160810161039682846122e9565b6000602080830181845280855180835260408601915060408160051b870101925083870160005b828110156123c557603f198886030184526123b3858351612181565b94509285019290850190600101612397565b5092979650505050505050565b600080604083850312156123e557600080fd5b823591506123f5602084016120e1565b90509250929050565b634e487b7160e01b600052604160045260246000fd5b600082601f83011261242557600080fd5b813567ffffffffffffffff80821115612440576124406123fe565b604051601f8301601f19908116603f01168101908282118183101715612468576124686123fe565b8160405283815286602085880101111561248157600080fd5b836020870160208301376000602085830101528094505050505092915050565b60008060008060008060008060008060006101608c8e0312156124c357600080fd5b8b359a5067ffffffffffffffff8060208e013511156124e157600080fd5b6124f18e60208f01358f01612414565b9a508060408e0135111561250457600080fd5b6125148e60408f01358f01612414565b99508060608e0135111561252757600080fd5b6125378e60608f01358f01612414565b98508060808e0135111561254a57600080fd5b61255a8e60808f01358f01612414565b97508060a08e0135111561256d57600080fd5b61257d8e60a08f01358f01612414565b96508060c08e0135111561259057600080fd5b6125a08e60c08f01358f01612414565b95508060e08e013511156125b357600080fd5b6125c38e60e08f01358f01612414565b9450806101008e013511156125d757600080fd5b506125e98d6101008e01358e01612414565b92506101208c013591506101408c013590509295989b509295989b9093969950565b6000806000806000806000806000806101408b8d03121561262b57600080fd5b8a3567ffffffffffffffff8082111561264357600080fd5b61264f8e838f01612414565b9b5060208d013591508082111561266557600080fd5b6126718e838f01612414565b9a5060408d013591508082111561268757600080fd5b6126938e838f01612414565b995060608d01359150808211156126a957600080fd5b6126b58e838f01612414565b985060808d01359150808211156126cb57600080fd5b6126d78e838f01612414565b975060a08d01359150808211156126ed57600080fd5b6126f98e838f01612414565b965060c08d013591508082111561270f57600080fd5b61271b8e838f01612414565b955060e08d013591508082111561273157600080fd5b5061273e8d828e01612414565b9350506101008b013591506101208b013590509295989b9194979a5092959850565b6020808252825182820181905260009190848201906040850190845b818110156127a35761278f8385516122e9565b92840192610160929092019160010161277c565b50909695505050505050565b600181811c908216806127c357607f821691505b6020821081036127e357634e487b7160e01b600052602260045260246000fd5b50919050565b602080825260149082015273135bdd9a5948191bd95cc81b9bdd08195e1a5cdd60621b604082015260600190565b634e487b7160e01b600052601160045260246000fd5b60006001820161283f5761283f612817565b5060010190565b634e487b7160e01b600052603260045260246000fd5b601f82111561112257600081815260208120601f850160051c810160208610156128835750805b601f850160051c820191505b818110156128a25782815560010161288f565b505050505050565b815167ffffffffffffffff8111156128c4576128c46123fe565b6128d8816128d284546127af565b8461285c565b602080601f83116001811461290d57600084156128f55750858301515b600019600386901b1c1916600185901b1785556128a2565b600085815260208120601f198616915b8281101561293c5788860151825594840194600190910190840161291d565b508582101561295a5787850151600019600388901b60f8161c191681555b5050505050600190811b01905550565b8082018082111561039657610396612817565b808202811582820484141761039657610396612817565b7f416363657373436f6e74726f6c3a206163636f756e74200000000000000000008152600083516129cc816017850160208801612131565b7001034b99036b4b9b9b4b733903937b6329607d1b60179184019182015283516129fd816028840160208801612131565b01602801949350505050565b602081526000611fe86020830184612155565b600081612a2b57612a2b612817565b50600019019056fe84c0e6936832819e27761bd60cca25b2ef9a185b925c2c99a066a29a80d42f038b2c14fe955d044ef95ba32b88d2ceb87c6f73fcefdcebe906063a6d75690f27a26469706673582212203870c986978f2cadef9429acf1b31c1cff5295cbb038f147826c692a2a11164a64736f6c63430008130033",
  "linkReferences": {},
  "deployedLinkReferences": {}
}