{
  "_format": "hh-sol-artifact-1",
  "contractName": "DappCinemas",
  "sourceName": "contracts/DappCinemas.sol",
  "abi": [
    {
      "anonymous": false,
      "inputs": [
        {
          "indexed": false,
          "internalType": "string",
          "name": "actionType",
          "type": "string"
        }
      ],
      "name": "Action",
      "type": "event"
    },
    {
      "anonymous": false,
      "inputs": [
        {
          "indexed": true,
          "internalType": "address",
          "name": "account",
          "type": "address"
        },
        {
          "indexed": true,
          "internalType": "address",
          "name": "operator",
          "type": "address"
        },
        {
          "indexed": false,
          "internalType": "bool",
          "name": "approved",
          "type": "bool"
        }
      ],
      "name": "ApprovalForAll",
      "type": "event"
    },
    {
      "anonymous": false,
      "inputs": [
        {
          "indexed": true,
          "internalType": "address",
          "name": "previousOwner",
          "type": "address"
        },
        {
          "indexed": true,
          "internalType": "address",
          "name": "newOwner",
          "type": "address"
        }
      ],
      "name": "OwnershipTransferred",
      "type": "event"
    },
    {
      "anonymous": false,
      "inputs": [
        {
          "indexed": true,
          "internalType": "address",
          "name": "operator",
          "type": "address"
        },
        {
          "indexed": true,
          "internalType": "address",
          "name": "from",
          "type": "address"
        },
        {
          "indexed": true,
          "internalType": "address",
          "name": "to",
          "type": "address"
        },
        {
          "indexed": false,
          "internalType": "uint256[]",
          "name": "ids",
          "type": "uint256[]"
        },
        {
          "indexed": false,
          "internalType": "uint256[]",
          "name": "values",
          "type": "uint256[]"
        }
      ],
      "name": "TransferBatch",
      "type": "event"
    },
    {
      "anonymous": false,
      "inputs": [
        {
          "indexed": true,
          "internalType": "address",
          "name": "operator",
          "type": "address"
        },
        {
          "indexed": true,
          "internalType": "address",
          "name": "from",
          "type": "address"
        },
        {
          "indexed": true,
          "internalType": "address",
          "name": "to",
          "type": "address"
        },
        {
          "indexed": false,
          "internalType": "uint256",
          "name": "id",
          "type": "uint256"
        },
        {
          "indexed": false,
          "internalType": "uint256",
          "name": "value",
          "type": "uint256"
        }
      ],
      "name": "TransferSingle",
      "type": "event"
    },
    {
      "anonymous": false,
      "inputs": [
        {
          "indexed": false,
          "internalType": "string",
          "name": "value",
          "type": "string"
        },
        {
          "indexed": true,
          "internalType": "uint256",
          "name": "id",
          "type": "uint256"
        }
      ],
      "name": "URI",
      "type": "event"
    },
    {
      "inputs": [
        {
          "internalType": "string",
          "name": "_name",
          "type": "string"
        },
        {
          "internalType": "string",
          "name": "_banner",
          "type": "string"
        },
        {
          "internalType": "string",
          "name": "_imageUrl",
          "type": "string"
        },
        {
          "internalType": "string",
          "name": "_videoUrl",
          "type": "string"
        },
        {
          "internalType": "string",
          "name": "_genre",
          "type": "string"
        },
        {
          "internalType": "string",
          "name": "_description",
          "type": "string"
        },
        {
          "internalType": "string",
          "name": "_caption",
          "type": "string"
        },
        {
          "internalType": "string",
          "name": "_casts",
          "type": "string"
        },
        {
          "internalType": "uint256",
          "name": "_running",
          "type": "uint256"
        },
        {
          "internalType": "uint256",
          "name": "_released",
          "type": "uint256"
        }
      ],
      "name": "addMovie",
      "outputs": [],
      "stateMutability": "nonpayable",
      "type": "function"
    },
    {
      "inputs": [
        {
          "internalType": "uint256",
          "name": "_movieId",
          "type": "uint256"
        },
        {
          "internalType": "uint256",
          "name": "_ticketCost",
          "type": "uint256"
        },
        {
          "internalType": "uint256",
          "name": "_startTime",
          "type": "uint256"
        },
        {
          "internalType": "uint256",
          "name": "_endTime",
          "type": "uint256"
        },
        {
          "internalType": "uint256",
          "name": "_capacity",
          "type": "uint256"
        },
        {
          "internalType": "uint256",
          "name": "_day",
          "type": "uint256"
        }
      ],
      "name": "addTimeSlot",
      "outputs": [],
      "stateMutability": "nonpayable",
      "type": "function"
    },
    {
      "inputs": [],
      "name": "balance",
      "outputs": [
        {
          "internalType": "uint256",
          "name": "",
          "type": "uint256"
        }
      ],
      "stateMutability": "view",
      "type": "function"
    },
    {
      "inputs": [
        {
          "internalType": "address",
          "name": "account",
          "type": "address"
        },
        {
          "internalType": "uint256",
          "name": "id",
          "type": "uint256"
        }
      ],
      "name": "balanceOf",
      "outputs": [
        {
          "internalType": "uint256",
          "name": "",
          "type": "uint256"
        }
      ],
      "stateMutability": "view",
      "type": "function"
    },
    {
      "inputs": [
        {
          "internalType": "address[]",
          "name": "accounts",
          "type": "address[]"
        },
        {
          "internalType": "uint256[]",
          "name": "ids",
          "type": "uint256[]"
        }
      ],
      "name": "balanceOfBatch",
      "outputs": [
        {
          "internalType": "uint256[]",
          "name": "",
          "type": "uint256[]"
        }
      ],
      "stateMutability": "view",
      "type": "function"
    },
    {
      "inputs": [
        {
          "internalType": "address",
          "name": "account",
          "type": "address"
        },
        {
          "internalType": "uint256",
          "name": "id",
          "type": "uint256"
        },
        {
          "internalType": "uint256",
          "name": "value",
          "type": "uint256"
        }
      ],
      "name": "burn",
      "outputs": [],
      "stateMutability": "nonpayable",
      "type": "function"
    },
    {
      "inputs": [
        {
          "internalType": "address",
          "name": "account",
          "type": "address"
        },
        {
          "internalType": "uint256[]",
          "name": "ids",
          "type": "uint256[]"
        },
        {
          "internalType": "uint256[]",
          "name": "values",
          "type": "uint256[]"
        }
      ],
      "name": "burnBatch",
      "outputs": [],
      "stateMutability": "nonpayable",
      "type": "function"
    },
    {
      "inputs": [
        {
          "internalType": "uint256",
          "name": "_slotId",
          "type": "uint256"
        }
      ],
      "name": "completeTimeSlot",
      "outputs": [],
      "stateMutability": "nonpayable",
      "type": "function"
    },
    {
      "inputs": [
        {
          "internalType": "uint256",
          "name": "_movieId",
          "type": "uint256"
        }
      ],
      "name": "deleteMovie",
      "outputs": [],
      "stateMutability": "nonpayable",
      "type": "function"
    },
    {
      "inputs": [
        {
          "internalType": "uint256",
          "name": "_slotId",
          "type": "uint256"
        }
      ],
      "name": "deleteTimeSlot",
      "outputs": [],
      "stateMutability": "nonpayable",
      "type": "function"
    },
    {
      "inputs": [
        {
          "internalType": "uint256",
          "name": "movieId",
          "type": "uint256"
        }
      ],
      "name": "hasMovie",
      "outputs": [
        {
          "internalType": "bool",
          "name": "",
          "type": "bool"
        }
      ],
      "stateMutability": "view",
      "type": "function"
    },
    {
      "inputs": [
        {
          "internalType": "uint256",
          "name": "slotId",
          "type": "uint256"
        }
      ],
      "name": "hasSlot",
      "outputs": [
        {
          "components": [
            {
              "internalType": "uint256",
              "name": "id",
              "type": "uint256"
            },
            {
              "internalType": "uint256",
              "name": "movieId",
              "type": "uint256"
            },
            {
              "internalType": "uint256",
              "name": "ticketCost",
              "type": "uint256"
            },
            {
              "internalType": "uint256",
              "name": "startTime",
              "type": "uint256"
            },
            {
              "internalType": "uint256",
              "name": "endTime",
              "type": "uint256"
            },
            {
              "internalType": "uint256",
              "name": "capacity",
              "type": "uint256"
            },
            {
              "internalType": "uint256",
              "name": "seats",
              "type": "uint256"
            },
            {
              "internalType": "bool",
              "name": "deleted",
              "type": "bool"
            },
            {
              "internalType": "bool",
              "name": "completed",
              "type": "bool"
            },
            {
              "internalType": "uint256",
              "name": "day",
              "type": "uint256"
            },
            {
              "internalType": "uint256",
              "name": "balance",
              "type": "uint256"
            }
          ],
          "internalType": "struct DappShared.TimeSlotStruct",
          "name": "",
          "type": "tuple"
        }
      ],
      "stateMutability": "view",
      "type": "function"
    },
    {
      "inputs": [
        {
          "internalType": "address",
          "name": "account",
          "type": "address"
        },
        {
          "internalType": "address",
          "name": "operator",
          "type": "address"
        }
      ],
      "name": "isApprovedForAll",
      "outputs": [
        {
          "internalType": "bool",
          "name": "",
          "type": "bool"
        }
      ],
      "stateMutability": "view",
      "type": "function"
    },
    {
      "inputs": [
        {
          "internalType": "uint256",
          "name": "",
          "type": "uint256"
        }
      ],
      "name": "movieTimeSlot",
      "outputs": [
        {
          "internalType": "uint256",
          "name": "id",
          "type": "uint256"
        },
        {
          "internalType": "uint256",
          "name": "movieId",
          "type": "uint256"
        },
        {
          "internalType": "uint256",
          "name": "ticketCost",
          "type": "uint256"
        },
        {
          "internalType": "uint256",
          "name": "startTime",
          "type": "uint256"
        },
        {
          "internalType": "uint256",
          "name": "endTime",
          "type": "uint256"
        },
        {
          "internalType": "uint256",
          "name": "capacity",
          "type": "uint256"
        },
        {
          "internalType": "uint256",
          "name": "seats",
          "type": "uint256"
        },
        {
          "internalType": "bool",
          "name": "deleted",
          "type": "bool"
        },
        {
          "internalType": "bool",
          "name": "completed",
          "type": "bool"
        },
        {
          "internalType": "uint256",
          "name": "day",
          "type": "uint256"
        },
        {
          "internalType": "uint256",
          "name": "balance",
          "type": "uint256"
        }
      ],
      "stateMutability": "view",
      "type": "function"
    },
    {
      "inputs": [
        {
          "internalType": "uint256",
          "name": "",
          "type": "uint256"
        }
      ],
      "name": "movies",
      "outputs": [
        {
          "internalType": "uint256",
          "name": "id",
          "type": "uint256"
        },
        {
          "internalType": "string",
          "name": "name",
          "type": "string"
        },
        {
          "internalType": "string",
          "name": "banner",
          "type": "string"
        },
        {
          "internalType": "string",
          "name": "imageUrl",
          "type": "string"
        },
        {
          "internalType": "string",
          "name": "videoUrl",
          "type": "string"
        },
        {
          "internalType": "string",
          "name": "genre",
          "type": "string"
        },
        {
          "internalType": "string",
          "name": "description",
          "type": "string"
        },
        {
          "internalType": "string",
          "name": "caption",
          "type": "string"
        },
        {
          "internalType": "string",
          "name": "casts",
          "type": "string"
        },
        {
          "internalType": "uint256",
          "name": "running",
          "type": "uint256"
        },
        {
          "internalType": "uint256",
          "name": "released",
          "type": "uint256"
        },
        {
          "internalType": "uint256",
          "name": "timestamp",
          "type": "uint256"
        },
        {
          "internalType": "bool",
          "name": "deleted",
          "type": "bool"
        }
      ],
      "stateMutability": "view",
      "type": "function"
    },
    {
      "inputs": [],
      "name": "owner",
      "outputs": [
        {
          "internalType": "address",
          "name": "",
          "type": "address"
        }
      ],
      "stateMutability": "view",
      "type": "function"
    },
    {
      "inputs": [],
      "name": "renounceOwnership",
      "outputs": [],
      "stateMutability": "nonpayable",
      "type": "function"
    },
    {
      "inputs": [
        {
          "internalType": "address",
          "name": "from",
          "type": "address"
        },
        {
          "internalType": "address",
          "name": "to",
          "type": "address"
        },
        {
          "internalType": "uint256[]",
          "name": "ids",
          "type": "uint256[]"
        },
        {
          "internalType": "uint256[]",
          "name": "amounts",
          "type": "uint256[]"
        },
        {
          "internalType": "bytes",
          "name": "data",
          "type": "bytes"
        }
      ],
      "name": "safeBatchTransferFrom",
      "outputs": [],
      "stateMutability": "nonpayable",
      "type": "function"
    },
    {
      "inputs": [
        {
          "internalType": "address",
          "name": "from",
          "type": "address"
        },
        {
          "internalType": "address",
          "name": "to",
          "type": "address"
        },
        {
          "internalType": "uint256",
          "name": "id",
          "type": "uint256"
        },
        {
          "internalType": "uint256",
          "name": "amount",
          "type": "uint256"
        },
        {
          "internalType": "bytes",
          "name": "data",
          "type": "bytes"
        }
      ],
      "name": "safeTransferFrom",
      "outputs": [],
      "stateMutability": "nonpayable",
      "type": "function"
    },
    {
      "inputs": [
        {
          "internalType": "address",
          "name": "operator",
          "type": "address"
        },
        {
          "internalType": "bool",
          "name": "approved",
          "type": "bool"
        }
      ],
      "name": "setApprovalForAll",
      "outputs": [],
      "stateMutability": "nonpayable",
      "type": "function"
    },
    {
      "inputs": [
        {
          "internalType": "uint256",
          "name": "_bal",
          "type": "uint256"
        }
      ],
      "name": "setBalance",
      "outputs": [],
      "stateMutability": "nonpayable",
      "type": "function"
    },
    {
      "inputs": [
        {
          "internalType": "bytes4",
          "name": "interfaceId",
          "type": "bytes4"
        }
      ],
      "name": "supportsInterface",
      "outputs": [
        {
          "internalType": "bool",
          "name": "",
          "type": "bool"
        }
      ],
      "stateMutability": "view",
      "type": "function"
    },
    {
      "inputs": [
        {
          "internalType": "address",
          "name": "newOwner",
          "type": "address"
        }
      ],
      "name": "transferOwnership",
      "outputs": [],
      "stateMutability": "nonpayable",
      "type": "function"
    },
    {
      "inputs": [
        {
          "internalType": "uint256",
          "name": "_movieId",
          "type": "uint256"
        },
        {
          "internalType": "string",
          "name": "_name",
          "type": "string"
        },
        {
          "internalType": "string",
          "name": "_banner",
          "type": "string"
        },
        {
          "internalType": "string",
          "name": "_imageUrl",
          "type": "string"
        },
        {
          "internalType": "string",
          "name": "_videoUrl",
          "type": "string"
        },
        {
          "internalType": "string",
          "name": "_genre",
          "type": "string"
        },
        {
          "internalType": "string",
          "name": "_description",
          "type": "string"
        },
        {
          "internalType": "string",
          "name": "_caption",
          "type": "string"
        },
        {
          "internalType": "string",
          "name": "_casts",
          "type": "string"
        },
        {
          "internalType": "uint256",
          "name": "_running",
          "type": "uint256"
        },
        {
          "internalType": "uint256",
          "name": "_released",
          "type": "uint256"
        }
      ],
      "name": "updateMovie",
      "outputs": [],
      "stateMutability": "nonpayable",
      "type": "function"
    },
    {
      "inputs": [
        {
          "internalType": "uint256",
          "name": "",
          "type": "uint256"
        }
      ],
      "name": "uri",
      "outputs": [
        {
          "internalType": "string",
          "name": "",
          "type": "string"
        }
      ],
      "stateMutability": "view",
      "type": "function"
    }
  ],
  "bytecode": "0x60806040523480156200001157600080fd5b506040805160208101909152600081526200002c816200003e565b50620000383362000050565b62000213565b60026200004c828262000147565b5050565b600380546001600160a01b038381166001600160a01b0319831681179093556040519116919082907f8be0079c531659141344cd1fd0a4f28419497f9722a3daafe3b4186f6b6457e090600090a35050565b634e487b7160e01b600052604160045260246000fd5b600181811c90821680620000cd57607f821691505b602082108103620000ee57634e487b7160e01b600052602260045260246000fd5b50919050565b601f8211156200014257600081815260208120601f850160051c810160208610156200011d5750805b601f850160051c820191505b818110156200013e5782815560010162000129565b5050505b505050565b81516001600160401b03811115620001635762000163620000a2565b6200017b81620001748454620000b8565b84620000f4565b602080601f831160018114620001b357600084156200019a5750858301515b600019600386901b1c1916600185901b1785556200013e565b600085815260208120601f198616915b82811015620001e457888601518255948401946001909101908401620001c3565b5085821015620002035787850151600019600388901b60f8161c191681555b5050505050600190811b01905550565b612e7380620002236000396000f3fe608060405234801561001057600080fd5b50600436106101725760003560e01c8063715018a6116100de578063b6da3f0911610097578063f242432a11610071578063f242432a14610448578063f2fde38b1461045b578063f5298aca1461046e578063fb1669ca1461048157600080fd5b8063b6da3f09146103d9578063d6330454146103ec578063e985e9c51461040c57600080fd5b8063715018a6146102c3578063737302a9146102cb57806374a6d6671461038f5780638da5cb5b146103a2578063a22cb465146103bd578063b69ef8a8146103d057600080fd5b80633b6559c1116101305780633b6559c11461021b5780633c0400c51461022e578063404ebf6c146102515780634e1273f41461027d5780636b20c4541461029d5780636b4f6cb7146102b057600080fd5b8062fdd58e1461017757806301ffc9a71461019d5780630e89341c146101c05780632b4bbba2146101e05780632eb2c2d6146101f55780633632d2ee14610208575b600080fd5b61018a610185366004611ed5565b610494565b6040519081526020015b60405180910390f35b6101b06101ab366004611f15565b61052d565b6040519015158152602001610194565b6101d36101ce366004611f39565b61057d565b6040516101949190611f98565b6101f36101ee366004611fab565b610611565b005b6101f361020336600461213a565b61077c565b6101f36102163660046121e4565b6107c8565b6101f3610229366004611f39565b61094d565b6101b061023c366004611f39565b60009081526007602052604090205460ff1690565b61026461025f366004611f39565b6109bd565b6040516101949d9c9b9a9998979695949392919061234e565b61029061028b36600461242d565b610e60565b6040516101949190612533565b6101f36102ab366004612546565b610f8a565b6101f36102be366004611f39565b610fd2565b6101f3611076565b6103386102d9366004611f39565b60096020819052600091825260409091208054600182015460028301546003840154600485015460058601546006870154600788015460088901549890990154969895979496939592949193909260ff8082169361010090920416918b565b604080519b8c5260208c019a909a52988a01979097526060890195909552608088019390935260a087019190915260c0860152151560e0850152151561010084015261012083015261014082015261016001610194565b6101f361039d3660046125ba565b61108a565b6003546040516001600160a01b039091168152602001610194565b6101f36103cb36600461270f565b6112e2565b61018a60065481565b6101f36103e7366004611f39565b6112f1565b6103ff6103fa366004611f39565b61135a565b604051610194919061274b565b6101b061041a3660046127d2565b6001600160a01b03918216600090815260016020908152604080832093909416825291909152205460ff1690565b6101f3610456366004612805565b6113f8565b6101f361046936600461286a565b61143d565b6101f361047c366004612885565b6114b6565b6101f361048f366004611f39565b600655565b60006001600160a01b0383166105045760405162461bcd60e51b815260206004820152602a60248201527f455243313135353a2061646472657373207a65726f206973206e6f742061207660448201526930b634b21037bbb732b960b11b60648201526084015b60405180910390fd5b506000818152602081815260408083206001600160a01b03861684529091529020545b92915050565b60006001600160e01b03198216636cdb3d1360e11b148061055e57506001600160e01b031982166303a24d0760e21b145b8061052757506301ffc9a760e01b6001600160e01b0319831614610527565b60606002805461058c906128b8565b80601f01602080910402602001604051908101604052809291908181526020018280546105b8906128b8565b80156106055780601f106105da57610100808354040283529160200191610605565b820191906000526020600020905b8154815290600101906020018083116105e857829003601f168201915b50505050509050919050565b6106196114f9565b60008681526007602052604090205460ff166106475760405162461bcd60e51b81526004016104fb906128f2565b610655600580546001019055565b600061066060055490565b905061066a611e5b565b818152602080820189815260408084018a8152606085018a8152608086018a815260a087018a8152600060c0890181815260e08a01828152610100808c018481526101208d018f81526101408e018681528f875260099d8e9052958b90208e5181559b5160018d0155985160028c0155965160038b0155945160048a01559251600589015551600688015590516007870180549451151590930261ff00199115159190911661ffff19909416939093179290921790559051600884015551919092015551600080516020612e1e8339815191529061076a906020808252600e908201526d151a5b595cdb1bdd08185919195960921b604082015260600190565b60405180910390a15050505050505050565b6001600160a01b0385163314806107985750610798853361041a565b6107b45760405162461bcd60e51b81526004016104fb90612920565b6107c18585858585611553565b5050505050565b6107d06114f9565b60008b81526007602052604090205460ff166107fe5760405162461bcd60e51b81526004016104fb906128f2565b60008b81526008602052604090206001016108198b826129b4565b5060008b81526008602052604090206002016108358a826129b4565b5060008b815260086020526040902060030161085189826129b4565b5060008b815260086020526040902060040161086d88826129b4565b5060008b815260086020526040902060050161088987826129b4565b5060008b81526008602052604090206006016108a586826129b4565b5060008b81526008602052604090206007016108c185826129b4565b5060008b8152600860208190526040909120016108de84826129b4565b5060008b8152600860205260409081902060098101849055600a0182905551600080516020612e1e83398151915290610938906020808252600d908201526c135bdd9a59481d5c19185d1959609a1b604082015260600190565b60405180910390a15050505050505050505050565b6109556114f9565b60008181526009602052604090819020600701805460ff1916600117905551600080516020612e1e833981519152906109b29060208082526010908201526f151a5b595cdb1bdd0819195b195d195960821b604082015260600190565b60405180910390a150565b600860205260009081526040902080546001820180549192916109df906128b8565b80601f0160208091040260200160405190810160405280929190818152602001828054610a0b906128b8565b8015610a585780601f10610a2d57610100808354040283529160200191610a58565b820191906000526020600020905b815481529060010190602001808311610a3b57829003601f168201915b505050505090806002018054610a6d906128b8565b80601f0160208091040260200160405190810160405280929190818152602001828054610a99906128b8565b8015610ae65780601f10610abb57610100808354040283529160200191610ae6565b820191906000526020600020905b815481529060010190602001808311610ac957829003601f168201915b505050505090806003018054610afb906128b8565b80601f0160208091040260200160405190810160405280929190818152602001828054610b27906128b8565b8015610b745780601f10610b4957610100808354040283529160200191610b74565b820191906000526020600020905b815481529060010190602001808311610b5757829003601f168201915b505050505090806004018054610b89906128b8565b80601f0160208091040260200160405190810160405280929190818152602001828054610bb5906128b8565b8015610c025780601f10610bd757610100808354040283529160200191610c02565b820191906000526020600020905b815481529060010190602001808311610be557829003601f168201915b505050505090806005018054610c17906128b8565b80601f0160208091040260200160405190810160405280929190818152602001828054610c43906128b8565b8015610c905780601f10610c6557610100808354040283529160200191610c90565b820191906000526020600020905b815481529060010190602001808311610c7357829003601f168201915b505050505090806006018054610ca5906128b8565b80601f0160208091040260200160405190810160405280929190818152602001828054610cd1906128b8565b8015610d1e5780601f10610cf357610100808354040283529160200191610d1e565b820191906000526020600020905b815481529060010190602001808311610d0157829003601f168201915b505050505090806007018054610d33906128b8565b80601f0160208091040260200160405190810160405280929190818152602001828054610d5f906128b8565b8015610dac5780601f10610d8157610100808354040283529160200191610dac565b820191906000526020600020905b815481529060010190602001808311610d8f57829003601f168201915b505050505090806008018054610dc1906128b8565b80601f0160208091040260200160405190810160405280929190818152602001828054610ded906128b8565b8015610e3a5780601f10610e0f57610100808354040283529160200191610e3a565b820191906000526020600020905b815481529060010190602001808311610e1d57829003601f168201915b505050506009830154600a840154600b850154600c909501549394919390925060ff168d565b60608151835114610ec55760405162461bcd60e51b815260206004820152602960248201527f455243313135353a206163636f756e747320616e6420696473206c656e677468604482015268040dad2e6dac2e8c6d60bb1b60648201526084016104fb565b6000835167ffffffffffffffff811115610ee157610ee1611fee565b604051908082528060200260200182016040528015610f0a578160200160208202803683370190505b50905060005b8451811015610f8257610f55858281518110610f2e57610f2e612a74565b6020026020010151858381518110610f4857610f48612a74565b6020026020010151610494565b828281518110610f6757610f67612a74565b6020908102919091010152610f7b81612aa0565b9050610f10565b509392505050565b6001600160a01b038316331480610fa65750610fa6833361041a565b610fc25760405162461bcd60e51b81526004016104fb90612920565b610fcd8383836116ef565b505050565b610fda6114f9565b60008181526007602052604090205460ff166110085760405162461bcd60e51b81526004016104fb906128f2565b6000818152600860209081526040808320600c01805460ff199081166001179091556007909252918290208054909116905551600080516020612e1e833981519152906109b2906020808252600d908201526c135bdd9a594819195b195d1959609a1b604082015260600190565b61107e6114f9565b611088600061187a565b565b6110926114f9565b6110a0600480546001019055565b60006110ab60045490565b905061111a604051806101a001604052806000815260200160608152602001606081526020016060815260200160608152602001606081526020016060815260200160608152602001606081526020016000815260200160008152602001600081526020016000151581525090565b818152602081018c9052604081018b9052606081018a90526080810189905260a0810188905260c0810187905260e0810186905261010081018590526101208101849052610140810183905261116e6118cc565b61016082015260006101808201819052828152600860209081526040909120825181559082015182919060018201906111a790826129b4565b50604082015160028201906111bc90826129b4565b50606082015160038201906111d190826129b4565b50608082015160048201906111e690826129b4565b5060a082015160058201906111fb90826129b4565b5060c0820151600682019061121090826129b4565b5060e0820151600782019061122590826129b4565b50610100820151600882019061123b90826129b4565b506101208201516009820155610140820151600a820155610160820151600b82015561018090910151600c909101805491151560ff1992831617905560008381526007602052604090819020805490921660011790915551600080516020612e1e833981519152906112cc906020808252600b908201526a135bdd9a5948185919195960aa1b604082015260600190565b60405180910390a1505050505050505050505050565b6112ed3383836118e7565b5050565b6112f96114f9565b60008181526009602052604090819020600701805461ff00191661010017905551600080516020612e1e833981519152906109b290602080825260129082015271151a5b595cdb1bdd0818dbdb5c1b195d195960721b604082015260600190565b611362611e5b565b50600090815260096020818152604092839020835161016081018552815481526001820154928101929092526002810154938201939093526003830154606082015260048301546080820152600583015460a0820152600683015460c0820152600783015460ff808216151560e08401526101009182900416151590820152600883015461012082015291015461014082015290565b6001600160a01b0385163314806114145750611414853361041a565b6114305760405162461bcd60e51b81526004016104fb90612920565b6107c185858585856119c7565b6114456114f9565b6001600160a01b0381166114aa5760405162461bcd60e51b815260206004820152602660248201527f4f776e61626c653a206e6577206f776e657220697320746865207a65726f206160448201526564647265737360d01b60648201526084016104fb565b6114b38161187a565b50565b6001600160a01b0383163314806114d257506114d2833361041a565b6114ee5760405162461bcd60e51b81526004016104fb90612920565b610fcd838383611af1565b6003546001600160a01b031633146110885760405162461bcd60e51b815260206004820181905260248201527f4f776e61626c653a2063616c6c6572206973206e6f7420746865206f776e657260448201526064016104fb565b81518351146115745760405162461bcd60e51b81526004016104fb90612ab9565b6001600160a01b03841661159a5760405162461bcd60e51b81526004016104fb90612b01565b3360005b84518110156116815760008582815181106115bb576115bb612a74565b6020026020010151905060008583815181106115d9576115d9612a74565b602090810291909101810151600084815280835260408082206001600160a01b038e1683529093529190912054909150818110156116295760405162461bcd60e51b81526004016104fb90612b46565b6000838152602081815260408083206001600160a01b038e8116855292528083208585039055908b16825281208054849290611666908490612b90565b925050819055505050508061167a90612aa0565b905061159e565b50846001600160a01b0316866001600160a01b0316826001600160a01b03167f4a39dc06d4c0dbc64b70af90fd698a233a518aa5d07e595d983b8c0526c8f7fb87876040516116d1929190612ba3565b60405180910390a46116e7818787878787611bfa565b505050505050565b6001600160a01b0383166117155760405162461bcd60e51b81526004016104fb90612bd1565b80518251146117365760405162461bcd60e51b81526004016104fb90612ab9565b604080516020810190915260009081905233905b835181101561180c57600084828151811061176757611767612a74565b60200260200101519050600084838151811061178557611785612a74565b602090810291909101810151600084815280835260408082206001600160a01b038c1683529093529190912054909150818110156117d55760405162461bcd60e51b81526004016104fb90612c14565b6000928352602083815260408085206001600160a01b038b168652909152909220910390558061180481612aa0565b91505061174a565b5060006001600160a01b0316846001600160a01b0316826001600160a01b03167f4a39dc06d4c0dbc64b70af90fd698a233a518aa5d07e595d983b8c0526c8f7fb868660405161185d929190612ba3565b60405180910390a460408051602081019091526000905250505050565b600380546001600160a01b038381166001600160a01b0319831681179093556040519116919082907f8be0079c531659141344cd1fd0a4f28419497f9722a3daafe3b4186f6b6457e090600090a35050565b6000806118db426103e8612c58565b610527906103e8612b90565b816001600160a01b0316836001600160a01b03160361195a5760405162461bcd60e51b815260206004820152602960248201527f455243313135353a2073657474696e6720617070726f76616c20737461747573604482015268103337b91039b2b63360b91b60648201526084016104fb565b6001600160a01b03838116600081815260016020908152604080832094871680845294825291829020805460ff191686151590811790915591519182527f17307eab39ab6107e8899845ad3d59bd9653f200f220920489ca2b5937696c31910160405180910390a3505050565b6001600160a01b0384166119ed5760405162461bcd60e51b81526004016104fb90612b01565b3360006119f985611d55565b90506000611a0685611d55565b90506000868152602081815260408083206001600160a01b038c16845290915290205485811015611a495760405162461bcd60e51b81526004016104fb90612b46565b6000878152602081815260408083206001600160a01b038d8116855292528083208985039055908a16825281208054889290611a86908490612b90565b909155505060408051888152602081018890526001600160a01b03808b16928c821692918816917fc3d58168c5ae7397731d063d5bbf3d657854427343f4c083240f7aacaa2d0f62910160405180910390a4611ae6848a8a8a8a8a611da0565b505050505050505050565b6001600160a01b038316611b175760405162461bcd60e51b81526004016104fb90612bd1565b336000611b2384611d55565b90506000611b3084611d55565b60408051602080820183526000918290528882528181528282206001600160a01b038b1683529052205490915084811015611b7d5760405162461bcd60e51b81526004016104fb90612c14565b6000868152602081815260408083206001600160a01b038b81168086529184528285208a8703905582518b81529384018a90529092908816917fc3d58168c5ae7397731d063d5bbf3d657854427343f4c083240f7aacaa2d0f62910160405180910390a46040805160208101909152600090525b50505050505050565b6001600160a01b0384163b156116e75760405163bc197c8160e01b81526001600160a01b0385169063bc197c8190611c3e9089908990889088908890600401612c6f565b6020604051808303816000875af1925050508015611c79575060408051601f3d908101601f19168201909252611c7691810190612ccd565b60015b611d2557611c85612cea565b806308c379a003611cbe5750611c99612d06565b80611ca45750611cc0565b8060405162461bcd60e51b81526004016104fb9190611f98565b505b60405162461bcd60e51b815260206004820152603460248201527f455243313135353a207472616e7366657220746f206e6f6e2d455243313135356044820152732932b1b2b4bb32b91034b6b83632b6b2b73a32b960611b60648201526084016104fb565b6001600160e01b0319811663bc197c8160e01b14611bf15760405162461bcd60e51b81526004016104fb90612d90565b60408051600180825281830190925260609160009190602080830190803683370190505090508281600081518110611d8f57611d8f612a74565b602090810291909101015292915050565b6001600160a01b0384163b156116e75760405163f23a6e6160e01b81526001600160a01b0385169063f23a6e6190611de49089908990889088908890600401612dd8565b6020604051808303816000875af1925050508015611e1f575060408051601f3d908101601f19168201909252611e1c91810190612ccd565b60015b611e2b57611c85612cea565b6001600160e01b0319811663f23a6e6160e01b14611bf15760405162461bcd60e51b81526004016104fb90612d90565b6040518061016001604052806000815260200160008152602001600081526020016000815260200160008152602001600081526020016000815260200160001515815260200160001515815260200160008152602001600081525090565b80356001600160a01b0381168114611ed057600080fd5b919050565b60008060408385031215611ee857600080fd5b611ef183611eb9565b946020939093013593505050565b6001600160e01b0319811681146114b357600080fd5b600060208284031215611f2757600080fd5b8135611f3281611eff565b9392505050565b600060208284031215611f4b57600080fd5b5035919050565b6000815180845260005b81811015611f7857602081850181015186830182015201611f5c565b506000602082860101526020601f19601f83011685010191505092915050565b602081526000611f326020830184611f52565b60008060008060008060c08789031215611fc457600080fd5b505084359660208601359650604086013595606081013595506080810135945060a0013592509050565b634e487b7160e01b600052604160045260246000fd5b601f8201601f1916810167ffffffffffffffff8111828210171561202a5761202a611fee565b6040525050565b600067ffffffffffffffff82111561204b5761204b611fee565b5060051b60200190565b600082601f83011261206657600080fd5b8135602061207382612031565b6040516120808282612004565b83815260059390931b85018201928281019150868411156120a057600080fd5b8286015b848110156120bb57803583529183019183016120a4565b509695505050505050565b600082601f8301126120d757600080fd5b813567ffffffffffffffff8111156120f1576120f1611fee565b604051612108601f8301601f191660200182612004565b81815284602083860101111561211d57600080fd5b816020850160208301376000918101602001919091529392505050565b600080600080600060a0868803121561215257600080fd5b61215b86611eb9565b945061216960208701611eb9565b9350604086013567ffffffffffffffff8082111561218657600080fd5b61219289838a01612055565b945060608801359150808211156121a857600080fd5b6121b489838a01612055565b935060808801359150808211156121ca57600080fd5b506121d7888289016120c6565b9150509295509295909350565b60008060008060008060008060008060006101608c8e03121561220657600080fd5b8b359a5067ffffffffffffffff8060208e0135111561222457600080fd5b6122348e60208f01358f016120c6565b9a508060408e0135111561224757600080fd5b6122578e60408f01358f016120c6565b99508060608e0135111561226a57600080fd5b61227a8e60608f01358f016120c6565b98508060808e0135111561228d57600080fd5b61229d8e60808f01358f016120c6565b97508060a08e013511156122b057600080fd5b6122c08e60a08f01358f016120c6565b96508060c08e013511156122d357600080fd5b6122e38e60c08f01358f016120c6565b95508060e08e013511156122f657600080fd5b6123068e60e08f01358f016120c6565b9450806101008e0135111561231a57600080fd5b5061232c8d6101008e01358e016120c6565b92506101208c013591506101408c013590509295989b509295989b9093969950565b8d81526101a0602082015260006123696101a083018f611f52565b828103604084015261237b818f611f52565b9050828103606084015261238f818e611f52565b905082810360808401526123a3818d611f52565b905082810360a08401526123b7818c611f52565b905082810360c08401526123cb818b611f52565b905082810360e08401526123df818a611f52565b90508281036101008401526123f48189611f52565b91505085610120830152846101408301528361016083015261241b61018083018415159052565b9e9d5050505050505050505050505050565b6000806040838503121561244057600080fd5b823567ffffffffffffffff8082111561245857600080fd5b818501915085601f83011261246c57600080fd5b8135602061247982612031565b6040516124868282612004565b83815260059390931b85018201928281019150898411156124a657600080fd5b948201945b838610156124cb576124bc86611eb9565b825294820194908201906124ab565b965050860135925050808211156124e157600080fd5b506124ee85828601612055565b9150509250929050565b600081518084526020808501945080840160005b838110156125285781518752958201959082019060010161250c565b509495945050505050565b602081526000611f3260208301846124f8565b60008060006060848603121561255b57600080fd5b61256484611eb9565b9250602084013567ffffffffffffffff8082111561258157600080fd5b61258d87838801612055565b935060408601359150808211156125a357600080fd5b506125b086828701612055565b9150509250925092565b6000806000806000806000806000806101408b8d0312156125da57600080fd5b8a3567ffffffffffffffff808211156125f257600080fd5b6125fe8e838f016120c6565b9b5060208d013591508082111561261457600080fd5b6126208e838f016120c6565b9a5060408d013591508082111561263657600080fd5b6126428e838f016120c6565b995060608d013591508082111561265857600080fd5b6126648e838f016120c6565b985060808d013591508082111561267a57600080fd5b6126868e838f016120c6565b975060a08d013591508082111561269c57600080fd5b6126a88e838f016120c6565b965060c08d01359150808211156126be57600080fd5b6126ca8e838f016120c6565b955060e08d01359150808211156126e057600080fd5b506126ed8d828e016120c6565b9350506101008b013591506101208b013590509295989b9194979a5092959850565b6000806040838503121561272257600080fd5b61272b83611eb9565b91506020830135801515811461274057600080fd5b809150509250929050565b600061016082019050825182526020830151602083015260408301516040830152606083015160608301526080830151608083015260a083015160a083015260c083015160c083015260e08301516127a760e084018215159052565b5061010083810151151590830152610120808401519083015261014092830151929091019190915290565b600080604083850312156127e557600080fd5b6127ee83611eb9565b91506127fc60208401611eb9565b90509250929050565b600080600080600060a0868803121561281d57600080fd5b61282686611eb9565b945061283460208701611eb9565b93506040860135925060608601359150608086013567ffffffffffffffff81111561285e57600080fd5b6121d7888289016120c6565b60006020828403121561287c57600080fd5b611f3282611eb9565b60008060006060848603121561289a57600080fd5b6128a384611eb9565b95602085013595506040909401359392505050565b600181811c908216806128cc57607f821691505b6020821081036128ec57634e487b7160e01b600052602260045260246000fd5b50919050565b602080825260149082015273135bdd9a5948191bd95cc81b9bdd08195e1a5cdd60621b604082015260600190565b6020808252602e908201527f455243313135353a2063616c6c6572206973206e6f7420746f6b656e206f776e60408201526d195c881bdc88185c1c1c9bdd995960921b606082015260800190565b601f821115610fcd57600081815260208120601f850160051c810160208610156129955750805b601f850160051c820191505b818110156116e7578281556001016129a1565b815167ffffffffffffffff8111156129ce576129ce611fee565b6129e2816129dc84546128b8565b8461296e565b602080601f831160018114612a1757600084156129ff5750858301515b600019600386901b1c1916600185901b1785556116e7565b600085815260208120601f198616915b82811015612a4657888601518255948401946001909101908401612a27565b5085821015612a645787850151600019600388901b60f8161c191681555b5050505050600190811b01905550565b634e487b7160e01b600052603260045260246000fd5b634e487b7160e01b600052601160045260246000fd5b600060018201612ab257612ab2612a8a565b5060010190565b60208082526028908201527f455243313135353a2069647320616e6420616d6f756e7473206c656e677468206040820152670dad2e6dac2e8c6d60c31b606082015260800190565b60208082526025908201527f455243313135353a207472616e7366657220746f20746865207a65726f206164604082015264647265737360d81b606082015260800190565b6020808252602a908201527f455243313135353a20696e73756666696369656e742062616c616e636520666f60408201526939103a3930b739b332b960b11b606082015260800190565b8082018082111561052757610527612a8a565b604081526000612bb660408301856124f8565b8281036020840152612bc881856124f8565b95945050505050565b60208082526023908201527f455243313135353a206275726e2066726f6d20746865207a65726f206164647260408201526265737360e81b606082015260800190565b60208082526024908201527f455243313135353a206275726e20616d6f756e7420657863656564732062616c604082015263616e636560e01b606082015260800190565b808202811582820484141761052757610527612a8a565b6001600160a01b0386811682528516602082015260a060408201819052600090612c9b908301866124f8565b8281036060840152612cad81866124f8565b90508281036080840152612cc18185611f52565b98975050505050505050565b600060208284031215612cdf57600080fd5b8151611f3281611eff565b600060033d1115612d035760046000803e5060005160e01c5b90565b600060443d1015612d145790565b6040516003193d81016004833e81513d67ffffffffffffffff8160248401118184111715612d4457505050505090565b8285019150815181811115612d5c5750505050505090565b843d8701016020828501011115612d765750505050505090565b612d8560208286010187612004565b509095945050505050565b60208082526028908201527f455243313135353a204552433131353552656365697665722072656a656374656040820152676420746f6b656e7360c01b606082015260800190565b6001600160a01b03868116825285166020820152604081018490526060810183905260a060808201819052600090612e1290830184611f52565b97965050505050505056fe8b2c14fe955d044ef95ba32b88d2ceb87c6f73fcefdcebe906063a6d75690f27a2646970667358221220d6769957389662dd7188b62225eb5c9766e2cb1b0a15dd7f29f262049c47608064736f6c63430008130033",
  "linkReferences": {},
  "deployedLinkReferences": {}
}