{
  "_format": "hh-sol-artifact-1",
  "contractName": "DappCinemas",
  "sourceName": "contracts/DappCinemas.sol",
  "abi": [
    {
      "anonymous": false,
      "inputs": [
        {
          "indexed": false,
          "internalType": "string",
          "name": "actionType",
          "type": "string"
        }
      ],
      "name": "Action",
      "type": "event"
    },
    {
      "anonymous": false,
      "inputs": [
        {
          "indexed": true,
          "internalType": "address",
          "name": "previousOwner",
          "type": "address"
        },
        {
          "indexed": true,
          "internalType": "address",
          "name": "newOwner",
          "type": "address"
        }
      ],
      "name": "OwnershipTransferred",
      "type": "event"
    },
    {
      "anonymous": false,
      "inputs": [
        {
          "indexed": true,
          "internalType": "bytes32",
          "name": "role",
          "type": "bytes32"
        },
        {
          "indexed": true,
          "internalType": "bytes32",
          "name": "previousAdminRole",
          "type": "bytes32"
        },
        {
          "indexed": true,
          "internalType": "bytes32",
          "name": "newAdminRole",
          "type": "bytes32"
        }
      ],
      "name": "RoleAdminChanged",
      "type": "event"
    },
    {
      "anonymous": false,
      "inputs": [
        {
          "indexed": true,
          "internalType": "bytes32",
          "name": "role",
          "type": "bytes32"
        },
        {
          "indexed": true,
          "internalType": "address",
          "name": "account",
          "type": "address"
        },
        {
          "indexed": true,
          "internalType": "address",
          "name": "sender",
          "type": "address"
        }
      ],
      "name": "RoleGranted",
      "type": "event"
    },
    {
      "anonymous": false,
      "inputs": [
        {
          "indexed": true,
          "internalType": "bytes32",
          "name": "role",
          "type": "bytes32"
        },
        {
          "indexed": true,
          "internalType": "address",
          "name": "account",
          "type": "address"
        },
        {
          "indexed": true,
          "internalType": "address",
          "name": "sender",
          "type": "address"
        }
      ],
      "name": "RoleRevoked",
      "type": "event"
    },
    {
      "inputs": [],
      "name": "DEFAULT_ADMIN_ROLE",
      "outputs": [
        {
          "internalType": "bytes32",
          "name": "",
          "type": "bytes32"
        }
      ],
      "stateMutability": "view",
      "type": "function"
    },
    {
      "inputs": [],
      "name": "TICKET_ROLE",
      "outputs": [
        {
          "internalType": "bytes32",
          "name": "",
          "type": "bytes32"
        }
      ],
      "stateMutability": "view",
      "type": "function"
    },
    {
      "inputs": [
        {
          "internalType": "string",
          "name": "_name",
          "type": "string"
        },
        {
          "internalType": "string",
          "name": "_banner",
          "type": "string"
        },
        {
          "internalType": "string",
          "name": "_imageUrl",
          "type": "string"
        },
        {
          "internalType": "string",
          "name": "_videoUrl",
          "type": "string"
        },
        {
          "internalType": "string",
          "name": "_genre",
          "type": "string"
        },
        {
          "internalType": "string",
          "name": "_description",
          "type": "string"
        },
        {
          "internalType": "string",
          "name": "_caption",
          "type": "string"
        },
        {
          "internalType": "string",
          "name": "_casts",
          "type": "string"
        },
        {
          "internalType": "string",
          "name": "_running",
          "type": "string"
        },
        {
          "internalType": "string",
          "name": "_released",
          "type": "string"
        }
      ],
      "name": "addMovie",
      "outputs": [],
      "stateMutability": "nonpayable",
      "type": "function"
    },
    {
      "inputs": [
        {
          "internalType": "uint256",
          "name": "_movieId",
          "type": "uint256"
        },
        {
          "internalType": "uint256[]",
          "name": "_ticketCosts",
          "type": "uint256[]"
        },
        {
          "internalType": "uint256[]",
          "name": "_startTimes",
          "type": "uint256[]"
        },
        {
          "internalType": "uint256[]",
          "name": "_endTimes",
          "type": "uint256[]"
        },
        {
          "internalType": "uint256[]",
          "name": "_capacities",
          "type": "uint256[]"
        },
        {
          "internalType": "uint256[]",
          "name": "_days",
          "type": "uint256[]"
        }
      ],
      "name": "addTimeSlot",
      "outputs": [],
      "stateMutability": "nonpayable",
      "type": "function"
    },
    {
      "inputs": [
        {
          "internalType": "uint256",
          "name": "_slotId",
          "type": "uint256"
        }
      ],
      "name": "completeTimeSlot",
      "outputs": [],
      "stateMutability": "nonpayable",
      "type": "function"
    },
    {
      "inputs": [
        {
          "internalType": "uint256",
          "name": "_movieId",
          "type": "uint256"
        }
      ],
      "name": "deleteMovie",
      "outputs": [],
      "stateMutability": "nonpayable",
      "type": "function"
    },
    {
      "inputs": [
        {
          "internalType": "uint256",
          "name": "_slotId",
          "type": "uint256"
        }
      ],
      "name": "deleteTimeSlot",
      "outputs": [],
      "stateMutability": "nonpayable",
      "type": "function"
    },
    {
      "inputs": [
        {
          "internalType": "uint256",
          "name": "movieId",
          "type": "uint256"
        }
      ],
      "name": "getActiveTimeSlots",
      "outputs": [
        {
          "components": [
            {
              "internalType": "uint256",
              "name": "id",
              "type": "uint256"
            },
            {
              "internalType": "uint256",
              "name": "movieId",
              "type": "uint256"
            },
            {
              "internalType": "uint256",
              "name": "ticketCost",
              "type": "uint256"
            },
            {
              "internalType": "uint256",
              "name": "startTime",
              "type": "uint256"
            },
            {
              "internalType": "uint256",
              "name": "endTime",
              "type": "uint256"
            },
            {
              "internalType": "uint256",
              "name": "capacity",
              "type": "uint256"
            },
            {
              "internalType": "uint256",
              "name": "seats",
              "type": "uint256"
            },
            {
              "internalType": "bool",
              "name": "deleted",
              "type": "bool"
            },
            {
              "internalType": "bool",
              "name": "completed",
              "type": "bool"
            },
            {
              "internalType": "uint256",
              "name": "day",
              "type": "uint256"
            },
            {
              "internalType": "uint256",
              "name": "balance",
              "type": "uint256"
            }
          ],
          "internalType": "struct DappCinemas.TimeSlotStruct[]",
          "name": "MovieSlots",
          "type": "tuple[]"
        }
      ],
      "stateMutability": "view",
      "type": "function"
    },
    {
      "inputs": [
        {
          "internalType": "uint256",
          "name": "movieId",
          "type": "uint256"
        }
      ],
      "name": "getMovie",
      "outputs": [
        {
          "components": [
            {
              "internalType": "uint256",
              "name": "id",
              "type": "uint256"
            },
            {
              "internalType": "string",
              "name": "name",
              "type": "string"
            },
            {
              "internalType": "string",
              "name": "banner",
              "type": "string"
            },
            {
              "internalType": "string",
              "name": "imageUrl",
              "type": "string"
            },
            {
              "internalType": "string",
              "name": "videoUrl",
              "type": "string"
            },
            {
              "internalType": "string",
              "name": "genre",
              "type": "string"
            },
            {
              "internalType": "string",
              "name": "description",
              "type": "string"
            },
            {
              "internalType": "string",
              "name": "caption",
              "type": "string"
            },
            {
              "internalType": "string",
              "name": "casts",
              "type": "string"
            },
            {
              "internalType": "string",
              "name": "running",
              "type": "string"
            },
            {
              "internalType": "string",
              "name": "released",
              "type": "string"
            },
            {
              "internalType": "uint256",
              "name": "timestamp",
              "type": "uint256"
            },
            {
              "internalType": "bool",
              "name": "deleted",
              "type": "bool"
            }
          ],
          "internalType": "struct DappCinemas.MovieStruct",
          "name": "",
          "type": "tuple"
        }
      ],
      "stateMutability": "view",
      "type": "function"
    },
    {
      "inputs": [],
      "name": "getMovies",
      "outputs": [
        {
          "components": [
            {
              "internalType": "uint256",
              "name": "id",
              "type": "uint256"
            },
            {
              "internalType": "string",
              "name": "name",
              "type": "string"
            },
            {
              "internalType": "string",
              "name": "banner",
              "type": "string"
            },
            {
              "internalType": "string",
              "name": "imageUrl",
              "type": "string"
            },
            {
              "internalType": "string",
              "name": "videoUrl",
              "type": "string"
            },
            {
              "internalType": "string",
              "name": "genre",
              "type": "string"
            },
            {
              "internalType": "string",
              "name": "description",
              "type": "string"
            },
            {
              "internalType": "string",
              "name": "caption",
              "type": "string"
            },
            {
              "internalType": "string",
              "name": "casts",
              "type": "string"
            },
            {
              "internalType": "string",
              "name": "running",
              "type": "string"
            },
            {
              "internalType": "string",
              "name": "released",
              "type": "string"
            },
            {
              "internalType": "uint256",
              "name": "timestamp",
              "type": "uint256"
            },
            {
              "internalType": "bool",
              "name": "deleted",
              "type": "bool"
            }
          ],
          "internalType": "struct DappCinemas.MovieStruct[]",
          "name": "Movies",
          "type": "tuple[]"
        }
      ],
      "stateMutability": "view",
      "type": "function"
    },
    {
      "inputs": [
        {
          "internalType": "bytes32",
          "name": "role",
          "type": "bytes32"
        }
      ],
      "name": "getRoleAdmin",
      "outputs": [
        {
          "internalType": "bytes32",
          "name": "",
          "type": "bytes32"
        }
      ],
      "stateMutability": "view",
      "type": "function"
    },
    {
      "inputs": [
        {
          "internalType": "uint256",
          "name": "slotId",
          "type": "uint256"
        }
      ],
      "name": "getTimeSlot",
      "outputs": [
        {
          "components": [
            {
              "internalType": "uint256",
              "name": "id",
              "type": "uint256"
            },
            {
              "internalType": "uint256",
              "name": "movieId",
              "type": "uint256"
            },
            {
              "internalType": "uint256",
              "name": "ticketCost",
              "type": "uint256"
            },
            {
              "internalType": "uint256",
              "name": "startTime",
              "type": "uint256"
            },
            {
              "internalType": "uint256",
              "name": "endTime",
              "type": "uint256"
            },
            {
              "internalType": "uint256",
              "name": "capacity",
              "type": "uint256"
            },
            {
              "internalType": "uint256",
              "name": "seats",
              "type": "uint256"
            },
            {
              "internalType": "bool",
              "name": "deleted",
              "type": "bool"
            },
            {
              "internalType": "bool",
              "name": "completed",
              "type": "bool"
            },
            {
              "internalType": "uint256",
              "name": "day",
              "type": "uint256"
            },
            {
              "internalType": "uint256",
              "name": "balance",
              "type": "uint256"
            }
          ],
          "internalType": "struct DappCinemas.TimeSlotStruct",
          "name": "",
          "type": "tuple"
        }
      ],
      "stateMutability": "view",
      "type": "function"
    },
    {
      "inputs": [
        {
          "internalType": "uint256",
          "name": "movieId",
          "type": "uint256"
        }
      ],
      "name": "getTimeSlots",
      "outputs": [
        {
          "components": [
            {
              "internalType": "uint256",
              "name": "id",
              "type": "uint256"
            },
            {
              "internalType": "uint256",
              "name": "movieId",
              "type": "uint256"
            },
            {
              "internalType": "uint256",
              "name": "ticketCost",
              "type": "uint256"
            },
            {
              "internalType": "uint256",
              "name": "startTime",
              "type": "uint256"
            },
            {
              "internalType": "uint256",
              "name": "endTime",
              "type": "uint256"
            },
            {
              "internalType": "uint256",
              "name": "capacity",
              "type": "uint256"
            },
            {
              "internalType": "uint256",
              "name": "seats",
              "type": "uint256"
            },
            {
              "internalType": "bool",
              "name": "deleted",
              "type": "bool"
            },
            {
              "internalType": "bool",
              "name": "completed",
              "type": "bool"
            },
            {
              "internalType": "uint256",
              "name": "day",
              "type": "uint256"
            },
            {
              "internalType": "uint256",
              "name": "balance",
              "type": "uint256"
            }
          ],
          "internalType": "struct DappCinemas.TimeSlotStruct[]",
          "name": "MovieSlots",
          "type": "tuple[]"
        }
      ],
      "stateMutability": "view",
      "type": "function"
    },
    {
      "inputs": [
        {
          "internalType": "uint256",
          "name": "day",
          "type": "uint256"
        }
      ],
      "name": "getTimeSlotsByDay",
      "outputs": [
        {
          "components": [
            {
              "internalType": "uint256",
              "name": "id",
              "type": "uint256"
            },
            {
              "internalType": "uint256",
              "name": "movieId",
              "type": "uint256"
            },
            {
              "internalType": "uint256",
              "name": "ticketCost",
              "type": "uint256"
            },
            {
              "internalType": "uint256",
              "name": "startTime",
              "type": "uint256"
            },
            {
              "internalType": "uint256",
              "name": "endTime",
              "type": "uint256"
            },
            {
              "internalType": "uint256",
              "name": "capacity",
              "type": "uint256"
            },
            {
              "internalType": "uint256",
              "name": "seats",
              "type": "uint256"
            },
            {
              "internalType": "bool",
              "name": "deleted",
              "type": "bool"
            },
            {
              "internalType": "bool",
              "name": "completed",
              "type": "bool"
            },
            {
              "internalType": "uint256",
              "name": "day",
              "type": "uint256"
            },
            {
              "internalType": "uint256",
              "name": "balance",
              "type": "uint256"
            }
          ],
          "internalType": "struct DappCinemas.TimeSlotStruct[]",
          "name": "MovieSlots",
          "type": "tuple[]"
        }
      ],
      "stateMutability": "view",
      "type": "function"
    },
    {
      "inputs": [
        {
          "internalType": "address",
          "name": "_dappTicket",
          "type": "address"
        }
      ],
      "name": "grantAccess",
      "outputs": [],
      "stateMutability": "nonpayable",
      "type": "function"
    },
    {
      "inputs": [
        {
          "internalType": "bytes32",
          "name": "role",
          "type": "bytes32"
        },
        {
          "internalType": "address",
          "name": "account",
          "type": "address"
        }
      ],
      "name": "grantRole",
      "outputs": [],
      "stateMutability": "nonpayable",
      "type": "function"
    },
    {
      "inputs": [
        {
          "internalType": "bytes32",
          "name": "role",
          "type": "bytes32"
        },
        {
          "internalType": "address",
          "name": "account",
          "type": "address"
        }
      ],
      "name": "hasRole",
      "outputs": [
        {
          "internalType": "bool",
          "name": "",
          "type": "bool"
        }
      ],
      "stateMutability": "view",
      "type": "function"
    },
    {
      "inputs": [
        {
          "internalType": "uint256",
          "name": "slotId",
          "type": "uint256"
        }
      ],
      "name": "hasSlot",
      "outputs": [
        {
          "components": [
            {
              "internalType": "uint256",
              "name": "id",
              "type": "uint256"
            },
            {
              "internalType": "uint256",
              "name": "movieId",
              "type": "uint256"
            },
            {
              "internalType": "uint256",
              "name": "ticketCost",
              "type": "uint256"
            },
            {
              "internalType": "uint256",
              "name": "startTime",
              "type": "uint256"
            },
            {
              "internalType": "uint256",
              "name": "endTime",
              "type": "uint256"
            },
            {
              "internalType": "uint256",
              "name": "capacity",
              "type": "uint256"
            },
            {
              "internalType": "uint256",
              "name": "seats",
              "type": "uint256"
            },
            {
              "internalType": "bool",
              "name": "deleted",
              "type": "bool"
            },
            {
              "internalType": "bool",
              "name": "completed",
              "type": "bool"
            },
            {
              "internalType": "uint256",
              "name": "day",
              "type": "uint256"
            },
            {
              "internalType": "uint256",
              "name": "balance",
              "type": "uint256"
            }
          ],
          "internalType": "struct DappCinemas.TimeSlotStruct",
          "name": "",
          "type": "tuple"
        }
      ],
      "stateMutability": "view",
      "type": "function"
    },
    {
      "inputs": [],
      "name": "owner",
      "outputs": [
        {
          "internalType": "address",
          "name": "",
          "type": "address"
        }
      ],
      "stateMutability": "view",
      "type": "function"
    },
    {
      "inputs": [],
      "name": "renounceOwnership",
      "outputs": [],
      "stateMutability": "nonpayable",
      "type": "function"
    },
    {
      "inputs": [
        {
          "internalType": "bytes32",
          "name": "role",
          "type": "bytes32"
        },
        {
          "internalType": "address",
          "name": "account",
          "type": "address"
        }
      ],
      "name": "renounceRole",
      "outputs": [],
      "stateMutability": "nonpayable",
      "type": "function"
    },
    {
      "inputs": [
        {
          "internalType": "bytes32",
          "name": "role",
          "type": "bytes32"
        },
        {
          "internalType": "address",
          "name": "account",
          "type": "address"
        }
      ],
      "name": "revokeRole",
      "outputs": [],
      "stateMutability": "nonpayable",
      "type": "function"
    },
    {
      "inputs": [
        {
          "internalType": "bytes4",
          "name": "interfaceId",
          "type": "bytes4"
        }
      ],
      "name": "supportsInterface",
      "outputs": [
        {
          "internalType": "bool",
          "name": "",
          "type": "bool"
        }
      ],
      "stateMutability": "view",
      "type": "function"
    },
    {
      "inputs": [
        {
          "internalType": "address",
          "name": "newOwner",
          "type": "address"
        }
      ],
      "name": "transferOwnership",
      "outputs": [],
      "stateMutability": "nonpayable",
      "type": "function"
    },
    {
      "inputs": [
        {
          "internalType": "uint256",
          "name": "_movieId",
          "type": "uint256"
        },
        {
          "internalType": "string",
          "name": "_name",
          "type": "string"
        },
        {
          "internalType": "string",
          "name": "_banner",
          "type": "string"
        },
        {
          "internalType": "string",
          "name": "_imageUrl",
          "type": "string"
        },
        {
          "internalType": "string",
          "name": "_videoUrl",
          "type": "string"
        },
        {
          "internalType": "string",
          "name": "_genre",
          "type": "string"
        },
        {
          "internalType": "string",
          "name": "_description",
          "type": "string"
        },
        {
          "internalType": "string",
          "name": "_caption",
          "type": "string"
        },
        {
          "internalType": "string",
          "name": "_casts",
          "type": "string"
        },
        {
          "internalType": "string",
          "name": "_running",
          "type": "string"
        },
        {
          "internalType": "string",
          "name": "_released",
          "type": "string"
        }
      ],
      "name": "updateMovie",
      "outputs": [],
      "stateMutability": "nonpayable",
      "type": "function"
    }
  ],
  "bytecode": "0x60806040523480156200001157600080fd5b506200001d3362000023565b62000073565b600080546001600160a01b038381166001600160a01b0319831681178455604051919092169283917f8be0079c531659141344cd1fd0a4f28419497f9722a3daafe3b4186f6b6457e09190a35050565b6133a980620000836000396000f3fe608060405234801561001057600080fd5b50600436106101735760003560e01c80637cd35a0a116100de578063a65c7ce411610097578063d547741f11610071578063d547741f1461035a578063d63304541461021a578063d6cbac901461036d578063f2fde38b1461038057600080fd5b8063a65c7ce414610321578063b6da3f0914610334578063b83b2c521461034757600080fd5b80637cd35a0a146102a357806389964e22146102c35780638da5cb5b146102d857806391b1841b146102f357806391d1485414610306578063a217fddf1461031957600080fd5b80632c53b406116101305780632c53b4061461023a5780632f2ff15d1461024f57806336568abe146102625780633b6559c1146102755780636b4f6cb714610288578063715018a61461029b57600080fd5b806301ffc9a7146101785780630ae5e739146101a05780630ee2c58c146101b5578063179ffe76146101c8578063248a9ca3146101e85780632b85dcc91461021a575b600080fd5b61018b6101863660046127f1565b610393565b60405190151581526020015b60405180910390f35b6101b36101ae366004612837565b6103ca565b005b6101b36101c3366004612919565b610431565b6101db6101d63660046129f3565b6107d9565b6040516101979190612b99565b61020c6101f63660046129f3565b6000908152600160208190526040909120015490565b604051908152602001610197565b61022d6102283660046129f3565b610dde565b6040516101979190612c24565b610242610e7e565b6040516101979190612c33565b6101b361025d366004612c95565b61157c565b6101b3610270366004612c95565b6115a7565b6101b36102833660046129f3565b611625565b6101b36102963660046129f3565b6116f1565b6101b3611795565b6102b66102b13660046129f3565b6117a9565b6040516101979190612cc1565b61020c60008051602061333483398151915281565b6000546040516001600160a01b039091168152602001610197565b6101b3610301366004612d80565b6119d1565b61018b610314366004612c95565b611b72565b61020c600081565b6101b361032f366004612f24565b611b9d565b6101b36103423660046129f3565b611d9e565b6102b66103553660046129f3565b611e63565b6101b3610368366004612c95565b6120eb565b6102b661037b3660046129f3565b612111565b6101b361038e366004612837565b6122f7565b60006001600160e01b03198216637965db0b60e01b14806103c457506301ffc9a760e01b6001600160e01b03198316145b92915050565b6103d2612370565b6103ea600080516020613334833981519152826123ca565b60075461040f90600080516020613334833981519152906001600160a01b03166123d4565b600780546001600160a01b0319166001600160a01b0392909216919091179055565b610439612370565b60008681526004602052604090205460ff166104705760405162461bcd60e51b8152600401610467906130af565b60405180910390fd5b60008551116104c15760405162461bcd60e51b815260206004820152601b60248201527f5469636b657420636f7374732063616e6e6f74206265206e756c6c00000000006044820152606401610467565b60008451116105125760405162461bcd60e51b815260206004820152601a60248201527f53746172742074696d65732063616e6e6f74206265206e756c6c0000000000006044820152606401610467565b60008351116105635760405162461bcd60e51b815260206004820152601860248201527f456e642074696d65732063616e6e6f74206265206e756c6c00000000000000006044820152606401610467565b60008251116105b45760405162461bcd60e51b815260206004820152601960248201527f436170616369746965732063616e6e6f74206265206e756c6c000000000000006044820152606401610467565b60008151116105fb5760405162461bcd60e51b815260206004820152601360248201527211185e5cc818d85b9b9bdd081899481b9d5b1b606a1b6044820152606401610467565b60005b855181101561078a57610615600380546001019055565b600061062060035490565b905061062a612729565b818152602081018990528751889084908110610648576106486130dd565b602002602001015181604001818152505086838151811061066b5761066b6130dd565b602002602001015181606001818152505085838151811061068e5761068e6130dd565b60200260200101518160800181815250508483815181106106b1576106b16130dd565b60200260200101518160a00181815250508383815181106106d4576106d46130dd565b60209081029190910181015161012083019081526000938452600680835260409485902084518155928401516001840155938301516002830155606083015160038301556080830151600483015560a0830151600583015560c08301519382019390935560e08201516007820180546101008086015115150261ff00199315159390931661ffff19909116179190911790559151600883015561014001516009909101558061078281613109565b9150506105fe565b506000805160206133548339815191526040516107c9906020808252600e908201526d151a5b595cdb1bdd08185919195960921b604082015260600190565b60405180910390a1505050505050565b6107e1612787565b60056000838152602001908152602001600020604051806101a00160405290816000820154815260200160018201805461081a90613122565b80601f016020809104026020016040519081016040528092919081815260200182805461084690613122565b80156108935780601f1061086857610100808354040283529160200191610893565b820191906000526020600020905b81548152906001019060200180831161087657829003601f168201915b505050505081526020016002820180546108ac90613122565b80601f01602080910402602001604051908101604052809291908181526020018280546108d890613122565b80156109255780601f106108fa57610100808354040283529160200191610925565b820191906000526020600020905b81548152906001019060200180831161090857829003601f168201915b5050505050815260200160038201805461093e90613122565b80601f016020809104026020016040519081016040528092919081815260200182805461096a90613122565b80156109b75780601f1061098c576101008083540402835291602001916109b7565b820191906000526020600020905b81548152906001019060200180831161099a57829003601f168201915b505050505081526020016004820180546109d090613122565b80601f01602080910402602001604051908101604052809291908181526020018280546109fc90613122565b8015610a495780601f10610a1e57610100808354040283529160200191610a49565b820191906000526020600020905b815481529060010190602001808311610a2c57829003601f168201915b50505050508152602001600582018054610a6290613122565b80601f0160208091040260200160405190810160405280929190818152602001828054610a8e90613122565b8015610adb5780601f10610ab057610100808354040283529160200191610adb565b820191906000526020600020905b815481529060010190602001808311610abe57829003601f168201915b50505050508152602001600682018054610af490613122565b80601f0160208091040260200160405190810160405280929190818152602001828054610b2090613122565b8015610b6d5780601f10610b4257610100808354040283529160200191610b6d565b820191906000526020600020905b815481529060010190602001808311610b5057829003601f168201915b50505050508152602001600782018054610b8690613122565b80601f0160208091040260200160405190810160405280929190818152602001828054610bb290613122565b8015610bff5780601f10610bd457610100808354040283529160200191610bff565b820191906000526020600020905b815481529060010190602001808311610be257829003601f168201915b50505050508152602001600882018054610c1890613122565b80601f0160208091040260200160405190810160405280929190818152602001828054610c4490613122565b8015610c915780601f10610c6657610100808354040283529160200191610c91565b820191906000526020600020905b815481529060010190602001808311610c7457829003601f168201915b50505050508152602001600982018054610caa90613122565b80601f0160208091040260200160405190810160405280929190818152602001828054610cd690613122565b8015610d235780601f10610cf857610100808354040283529160200191610d23565b820191906000526020600020905b815481529060010190602001808311610d0657829003601f168201915b50505050508152602001600a82018054610d3c90613122565b80601f0160208091040260200160405190810160405280929190818152602001828054610d6890613122565b8015610db55780601f10610d8a57610100808354040283529160200191610db5565b820191906000526020600020905b815481529060010190602001808311610d9857829003601f168201915b5050509183525050600b8201546020820152600c9091015460ff16151560409091015292915050565b610de6612729565b50600090815260066020818152604092839020835161016081018552815481526001820154928101929092526002810154938201939093526003830154606082015260048301546080820152600583015460a08201529082015460c0820152600782015460ff808216151560e08401526101009182900416151590820152600882015461012082015260099091015461014082015290565b6060600060015b6002548111610ec7576000818152600560205260409020600c015460ff16610eb55781610eb181613109565b9250505b80610ebf81613109565b915050610e85565b508067ffffffffffffffff811115610ee157610ee1612852565b604051908082528060200260200182016040528015610f1a57816020015b610f07612787565b815260200190600190039081610eff5790505b509150600060015b6002548111611576576000818152600560205260409020600c015460ff166115645760056000828152602001908152602001600020604051806101a001604052908160008201548152602001600182018054610f7d90613122565b80601f0160208091040260200160405190810160405280929190818152602001828054610fa990613122565b8015610ff65780601f10610fcb57610100808354040283529160200191610ff6565b820191906000526020600020905b815481529060010190602001808311610fd957829003601f168201915b5050505050815260200160028201805461100f90613122565b80601f016020809104026020016040519081016040528092919081815260200182805461103b90613122565b80156110885780601f1061105d57610100808354040283529160200191611088565b820191906000526020600020905b81548152906001019060200180831161106b57829003601f168201915b505050505081526020016003820180546110a190613122565b80601f01602080910402602001604051908101604052809291908181526020018280546110cd90613122565b801561111a5780601f106110ef5761010080835404028352916020019161111a565b820191906000526020600020905b8154815290600101906020018083116110fd57829003601f168201915b5050505050815260200160048201805461113390613122565b80601f016020809104026020016040519081016040528092919081815260200182805461115f90613122565b80156111ac5780601f10611181576101008083540402835291602001916111ac565b820191906000526020600020905b81548152906001019060200180831161118f57829003601f168201915b505050505081526020016005820180546111c590613122565b80601f01602080910402602001604051908101604052809291908181526020018280546111f190613122565b801561123e5780601f106112135761010080835404028352916020019161123e565b820191906000526020600020905b81548152906001019060200180831161122157829003601f168201915b5050505050815260200160068201805461125790613122565b80601f016020809104026020016040519081016040528092919081815260200182805461128390613122565b80156112d05780601f106112a5576101008083540402835291602001916112d0565b820191906000526020600020905b8154815290600101906020018083116112b357829003601f168201915b505050505081526020016007820180546112e990613122565b80601f016020809104026020016040519081016040528092919081815260200182805461131590613122565b80156113625780601f1061133757610100808354040283529160200191611362565b820191906000526020600020905b81548152906001019060200180831161134557829003601f168201915b5050505050815260200160088201805461137b90613122565b80601f01602080910402602001604051908101604052809291908181526020018280546113a790613122565b80156113f45780601f106113c9576101008083540402835291602001916113f4565b820191906000526020600020905b8154815290600101906020018083116113d757829003601f168201915b5050505050815260200160098201805461140d90613122565b80601f016020809104026020016040519081016040528092919081815260200182805461143990613122565b80156114865780601f1061145b57610100808354040283529160200191611486565b820191906000526020600020905b81548152906001019060200180831161146957829003601f168201915b50505050508152602001600a8201805461149f90613122565b80601f01602080910402602001604051908101604052809291908181526020018280546114cb90613122565b80156115185780601f106114ed57610100808354040283529160200191611518565b820191906000526020600020905b8154815290600101906020018083116114fb57829003601f168201915b5050509183525050600b8201546020820152600c9091015460ff161515604090910152848361154681613109565b945081518110611558576115586130dd565b60200260200101819052505b8061156e81613109565b915050610f22565b50505090565b600082815260016020819052604090912001546115988161243b565b6115a28383612445565b505050565b6001600160a01b03811633146116175760405162461bcd60e51b815260206004820152602f60248201527f416363657373436f6e74726f6c3a2063616e206f6e6c792072656e6f756e636560448201526e103937b632b9903337b91039b2b63360891b6064820152608401610467565b61162182826123d4565b5050565b61163d60008051602061333483398151915233611b72565b6116895760405162461bcd60e51b815260206004820152601f60248201527f43616c6c6572206973206e6f742061207469636b657420636f6e7472616374006044820152606401610467565b60008181526006602052604090819020600701805460ff1916600117905551600080516020613354833981519152906116e69060208082526010908201526f151a5b595cdb1bdd0819195b195d195960821b604082015260600190565b60405180910390a150565b6116f9612370565b60008181526004602052604090205460ff166117275760405162461bcd60e51b8152600401610467906130af565b6000818152600560209081526040808320600c01805460ff199081166001179091556004909252918290208054909116905551600080516020613354833981519152906116e6906020808252600d908201526c135bdd9a594819195b195d1959609a1b604082015260600190565b61179d612370565b6117a760006124b0565b565b60606000805b6003548110156118305783600660006117c984600161315c565b81526020019081526020016000206001015414801561180b5750600660006117f283600161315c565b815260208101919091526040016000206007015460ff16155b1561181e578161181a81613109565b9250505b8061182881613109565b9150506117af565b508067ffffffffffffffff81111561184a5761184a612852565b60405190808252806020026020018201604052801561188357816020015b611870612729565b8152602001906001900390816118685790505b5091506000805b6003548110156119c95784600660006118a484600161315c565b8152602001908152602001600020600101541480156118e65750600660006118cd83600161315c565b815260208101919091526040016000206007015460ff16155b156119b757600660006118fa83600161315c565b81526020808201929092526040908101600020815161016081018352815481526001820154938101939093526002810154918301919091526003810154606083015260048101546080830152600581015460a0830152600681015460c0830152600781015460ff808216151560e08501526101009182900416151590830152600881015461012083015260090154610140820152848361199981613109565b9450815181106119ab576119ab6130dd565b60200260200101819052505b806119c181613109565b91505061188a565b505050919050565b6119d9612370565b60008b81526004602052604090205460ff16611a075760405162461bcd60e51b8152600401610467906130af565b60008b8152600560205260409020600101611a228b826131bd565b5060008b8152600560205260409020600201611a3e8a826131bd565b5060008b8152600560205260409020600301611a5a89826131bd565b5060008b8152600560205260409020600401611a7688826131bd565b5060008b815260056020819052604090912001611a9387826131bd565b5060008b8152600560205260409020600601611aaf86826131bd565b5060008b8152600560205260409020600701611acb85826131bd565b5060008b8152600560205260409020600801611ae784826131bd565b5060008b8152600560205260409020600901611b0383826131bd565b5060008b8152600560205260409020600a01611b1f82826131bd565b50600080516020613354833981519152604051611b5d906020808252600d908201526c135bdd9a59481d5c19185d1959609a1b604082015260600190565b60405180910390a15050505050505050505050565b60009182526001602090815260408084206001600160a01b0393909316845291905290205460ff1690565b611ba5612370565b611bb3600280546001019055565b6000611bbe60025490565b9050611bc8612787565b818152602081018c9052604081018b9052606081018a90526080810189905260a0810188905260c0810187905260e08101869052610100810185905261012081018490526101408101839052611c1c612500565b610160820152600082815260056020908152604090912082518155908201518291906001820190611c4d90826131bd565b5060408201516002820190611c6290826131bd565b5060608201516003820190611c7790826131bd565b5060808201516004820190611c8c90826131bd565b5060a08201516005820190611ca190826131bd565b5060c08201516006820190611cb690826131bd565b5060e08201516007820190611ccb90826131bd565b506101008201516008820190611ce190826131bd565b506101208201516009820190611cf790826131bd565b50610140820151600a820190611d0d90826131bd565b50610160820151600b82015561018090910151600c909101805491151560ff199283161790556000838152600460205260409081902080549092166001179091555160008051602061335483398151915290611d88906020808252600b908201526a135bdd9a5948185919195960aa1b604082015260600190565b60405180910390a1505050505050505050505050565b611db660008051602061333483398151915233611b72565b611e025760405162461bcd60e51b815260206004820152601f60248201527f43616c6c6572206973206e6f742061207469636b657420636f6e7472616374006044820152606401610467565b60008181526006602052604090819020600701805461ff00191661010017905551600080516020613354833981519152906116e690602080825260129082015271151a5b595cdb1bdd0818dbdb5c1b195d195960721b604082015260600190565b60606000805b600354811015611f1e578360066000611e8384600161315c565b815260200190815260200160002060010154148015611ec5575060066000611eac83600161315c565b815260208101919091526040016000206007015460ff16155b8015611ef9575060066000611edb83600161315c565b8152602081019190915260400160002060070154610100900460ff16155b15611f0c5781611f0881613109565b9250505b80611f1681613109565b915050611e69565b508067ffffffffffffffff811115611f3857611f38612852565b604051908082528060200260200182016040528015611f7157816020015b611f5e612729565b815260200190600190039081611f565790505b5091506000805b6003548110156119c9578460066000611f9284600161315c565b815260200190815260200160002060010154148015611fd4575060066000611fbb83600161315c565b815260208101919091526040016000206007015460ff16155b8015612008575060066000611fea83600161315c565b8152602081019190915260400160002060070154610100900460ff16155b156120d9576006600061201c83600161315c565b81526020808201929092526040908101600020815161016081018352815481526001820154938101939093526002810154918301919091526003810154606083015260048101546080830152600581015460a0830152600681015460c0830152600781015460ff808216151560e0850152610100918290041615159083015260088101546101208301526009015461014082015284836120bb81613109565b9450815181106120cd576120cd6130dd565b60200260200101819052505b806120e381613109565b915050611f78565b600082815260016020819052604090912001546121078161243b565b6115a283836123d4565b60606000805b60035481101561219857836006600061213184600161315c565b81526020019081526020016000206008015414801561217357506006600061215a83600161315c565b815260208101919091526040016000206007015460ff16155b15612186578161218281613109565b9250505b8061219081613109565b915050612117565b508067ffffffffffffffff8111156121b2576121b2612852565b6040519080825280602002602001820160405280156121eb57816020015b6121d8612729565b8152602001906001900390816121d05790505b5091506000805b6003548110156119c957846006600061220c84600161315c565b81526020019081526020016000206008015414801561224e57506006600061223583600161315c565b815260208101919091526040016000206007015460ff16155b156122e5576006600061226283600161315c565b815260200190815260200160002060030154848381518110612286576122866130dd565b602090810291909101015160600152600660006122a483600161315c565b8152602001908152602001600020600401548483806122c290613109565b9450815181106122d4576122d46130dd565b602002602001015160800181815250505b806122ef81613109565b9150506121f2565b6122ff612370565b6001600160a01b0381166123645760405162461bcd60e51b815260206004820152602660248201527f4f776e61626c653a206e6577206f776e657220697320746865207a65726f206160448201526564647265737360d01b6064820152608401610467565b61236d816124b0565b50565b6000546001600160a01b031633146117a75760405162461bcd60e51b815260206004820181905260248201527f4f776e61626c653a2063616c6c6572206973206e6f7420746865206f776e65726044820152606401610467565b6116218282612445565b6123de8282611b72565b156116215760008281526001602090815260408083206001600160a01b0385168085529252808320805460ff1916905551339285917ff6391f5c32d9c69d2a47ea670b442974b53935d1edc7fd64eb21e047a839171b9190a45050565b61236d813361251b565b61244f8282611b72565b6116215760008281526001602081815260408084206001600160a01b0386168086529252808420805460ff19169093179092559051339285917f2f8788117e7eff1d82e926ec794901d17c78024a50270940304540a733656f0d9190a45050565b600080546001600160a01b038381166001600160a01b0319831681178455604051919092169283917f8be0079c531659141344cd1fd0a4f28419497f9722a3daafe3b4186f6b6457e09190a35050565b60008061250f426103e861327d565b6103c4906103e861315c565b6125258282611b72565b6116215761253281612574565b61253d836020612586565b60405160200161254e929190613294565b60408051601f198184030181529082905262461bcd60e51b825261046791600401613309565b60606103c46001600160a01b03831660145b6060600061259583600261327d565b6125a090600261315c565b67ffffffffffffffff8111156125b8576125b8612852565b6040519080825280601f01601f1916602001820160405280156125e2576020820181803683370190505b509050600360fc1b816000815181106125fd576125fd6130dd565b60200101906001600160f81b031916908160001a905350600f60fb1b8160018151811061262c5761262c6130dd565b60200101906001600160f81b031916908160001a905350600061265084600261327d565b61265b90600161315c565b90505b60018111156126d3576f181899199a1a9b1b9c1cb0b131b232b360811b85600f166010811061268f5761268f6130dd565b1a60f81b8282815181106126a5576126a56130dd565b60200101906001600160f81b031916908160001a90535060049490941c936126cc8161331c565b905061265e565b5083156127225760405162461bcd60e51b815260206004820181905260248201527f537472696e67733a20686578206c656e67746820696e73756666696369656e746044820152606401610467565b9392505050565b6040518061016001604052806000815260200160008152602001600081526020016000815260200160008152602001600081526020016000815260200160001515815260200160001515815260200160008152602001600081525090565b604051806101a001604052806000815260200160608152602001606081526020016060815260200160608152602001606081526020016060815260200160608152602001606081526020016060815260200160608152602001600081526020016000151581525090565b60006020828403121561280357600080fd5b81356001600160e01b03198116811461272257600080fd5b80356001600160a01b038116811461283257600080fd5b919050565b60006020828403121561284957600080fd5b6127228261281b565b634e487b7160e01b600052604160045260246000fd5b604051601f8201601f1916810167ffffffffffffffff8111828210171561289157612891612852565b604052919050565b600082601f8301126128aa57600080fd5b8135602067ffffffffffffffff8211156128c6576128c6612852565b8160051b6128d5828201612868565b92835284810182019282810190878511156128ef57600080fd5b83870192505b8483101561290e578235825291830191908301906128f5565b979650505050505050565b60008060008060008060c0878903121561293257600080fd5b86359550602087013567ffffffffffffffff8082111561295157600080fd5b61295d8a838b01612899565b9650604089013591508082111561297357600080fd5b61297f8a838b01612899565b9550606089013591508082111561299557600080fd5b6129a18a838b01612899565b945060808901359150808211156129b757600080fd5b6129c38a838b01612899565b935060a08901359150808211156129d957600080fd5b506129e689828a01612899565b9150509295509295509295565b600060208284031215612a0557600080fd5b5035919050565b60005b83811015612a27578181015183820152602001612a0f565b50506000910152565b60008151808452612a48816020860160208601612a0c565b601f01601f19169290920160200192915050565b60006101a0825184526020830151816020860152612a7c82860182612a30565b91505060408301518482036040860152612a968282612a30565b91505060608301518482036060860152612ab08282612a30565b91505060808301518482036080860152612aca8282612a30565b91505060a083015184820360a0860152612ae48282612a30565b91505060c083015184820360c0860152612afe8282612a30565b91505060e083015184820360e0860152612b188282612a30565b9150506101008084015185830382870152612b338382612a30565b925050506101208084015185830382870152612b4f8382612a30565b925050506101408084015185830382870152612b6b8382612a30565b9250505061016080840151818601525061018080840151612b8f8287018215159052565b5090949350505050565b6020815260006127226020830184612a5c565b805182526020810151602083015260408101516040830152606081015160608301526080810151608083015260a081015160a083015260c081015160c083015260e0810151612bff60e084018215159052565b5061010081810151151590830152610120808201519083015261014090810151910152565b61016081016103c48284612bac565b6000602080830181845280855180835260408601915060408160051b870101925083870160005b82811015612c8857603f19888603018452612c76858351612a5c565b94509285019290850190600101612c5a565b5092979650505050505050565b60008060408385031215612ca857600080fd5b82359150612cb86020840161281b565b90509250929050565b6020808252825182820181905260009190848201906040850190845b81811015612d0457612cf0838551612bac565b928401926101609290920191600101612cdd565b50909695505050505050565b600082601f830112612d2157600080fd5b813567ffffffffffffffff811115612d3b57612d3b612852565b612d4e601f8201601f1916602001612868565b818152846020838601011115612d6357600080fd5b816020850160208301376000918101602001919091529392505050565b60008060008060008060008060008060006101608c8e031215612da257600080fd5b8b359a5067ffffffffffffffff8060208e01351115612dc057600080fd5b612dd08e60208f01358f01612d10565b9a508060408e01351115612de357600080fd5b612df38e60408f01358f01612d10565b99508060608e01351115612e0657600080fd5b612e168e60608f01358f01612d10565b98508060808e01351115612e2957600080fd5b612e398e60808f01358f01612d10565b97508060a08e01351115612e4c57600080fd5b612e5c8e60a08f01358f01612d10565b96508060c08e01351115612e6f57600080fd5b612e7f8e60c08f01358f01612d10565b95508060e08e01351115612e9257600080fd5b612ea28e60e08f01358f01612d10565b9450806101008e01351115612eb657600080fd5b612ec78e6101008f01358f01612d10565b9350806101208e01351115612edb57600080fd5b612eec8e6101208f01358f01612d10565b9250806101408e01351115612f0057600080fd5b50612f128d6101408e01358e01612d10565b90509295989b509295989b9093969950565b6000806000806000806000806000806101408b8d031215612f4457600080fd5b8a3567ffffffffffffffff80821115612f5c57600080fd5b612f688e838f01612d10565b9b5060208d0135915080821115612f7e57600080fd5b612f8a8e838f01612d10565b9a5060408d0135915080821115612fa057600080fd5b612fac8e838f01612d10565b995060608d0135915080821115612fc257600080fd5b612fce8e838f01612d10565b985060808d0135915080821115612fe457600080fd5b612ff08e838f01612d10565b975060a08d013591508082111561300657600080fd5b6130128e838f01612d10565b965060c08d013591508082111561302857600080fd5b6130348e838f01612d10565b955060e08d013591508082111561304a57600080fd5b6130568e838f01612d10565b94506101008d013591508082111561306d57600080fd5b6130798e838f01612d10565b93506101208d013591508082111561309057600080fd5b5061309d8d828e01612d10565b9150509295989b9194979a5092959850565b602080825260149082015273135bdd9a5948191bd95cc81b9bdd08195e1a5cdd60621b604082015260600190565b634e487b7160e01b600052603260045260246000fd5b634e487b7160e01b600052601160045260246000fd5b60006001820161311b5761311b6130f3565b5060010190565b600181811c9082168061313657607f821691505b60208210810361315657634e487b7160e01b600052602260045260246000fd5b50919050565b808201808211156103c4576103c46130f3565b601f8211156115a257600081815260208120601f850160051c810160208610156131965750805b601f850160051c820191505b818110156131b5578281556001016131a2565b505050505050565b815167ffffffffffffffff8111156131d7576131d7612852565b6131eb816131e58454613122565b8461316f565b602080601f83116001811461322057600084156132085750858301515b600019600386901b1c1916600185901b1785556131b5565b600085815260208120601f198616915b8281101561324f57888601518255948401946001909101908401613230565b508582101561326d5787850151600019600388901b60f8161c191681555b5050505050600190811b01905550565b80820281158282048414176103c4576103c46130f3565b7f416363657373436f6e74726f6c3a206163636f756e74200000000000000000008152600083516132cc816017850160208801612a0c565b7001034b99036b4b9b9b4b733903937b6329607d1b60179184019182015283516132fd816028840160208801612a0c565b01602801949350505050565b6020815260006127226020830184612a30565b60008161332b5761332b6130f3565b50600019019056fe84c0e6936832819e27761bd60cca25b2ef9a185b925c2c99a066a29a80d42f038b2c14fe955d044ef95ba32b88d2ceb87c6f73fcefdcebe906063a6d75690f27a2646970667358221220c765f2d24a42f222ebf39762c50c014ec2bfcc7b033515cb4c7dc9e5b84ce44464736f6c63430008130033",
  "linkReferences": {},
  "deployedLinkReferences": {}
}