{
  "_format": "hh-sol-artifact-1",
  "contractName": "DappCinemas",
  "sourceName": "contracts/DappCinemas.sol",
  "abi": [
    {
      "anonymous": false,
      "inputs": [
        {
          "indexed": false,
          "internalType": "string",
          "name": "actionType",
          "type": "string"
        }
      ],
      "name": "Action",
      "type": "event"
    },
    {
      "anonymous": false,
      "inputs": [
        {
          "indexed": true,
          "internalType": "address",
          "name": "account",
          "type": "address"
        },
        {
          "indexed": true,
          "internalType": "address",
          "name": "operator",
          "type": "address"
        },
        {
          "indexed": false,
          "internalType": "bool",
          "name": "approved",
          "type": "bool"
        }
      ],
      "name": "ApprovalForAll",
      "type": "event"
    },
    {
      "anonymous": false,
      "inputs": [
        {
          "indexed": true,
          "internalType": "address",
          "name": "previousOwner",
          "type": "address"
        },
        {
          "indexed": true,
          "internalType": "address",
          "name": "newOwner",
          "type": "address"
        }
      ],
      "name": "OwnershipTransferred",
      "type": "event"
    },
    {
      "anonymous": false,
      "inputs": [
        {
          "indexed": true,
          "internalType": "bytes32",
          "name": "role",
          "type": "bytes32"
        },
        {
          "indexed": true,
          "internalType": "bytes32",
          "name": "previousAdminRole",
          "type": "bytes32"
        },
        {
          "indexed": true,
          "internalType": "bytes32",
          "name": "newAdminRole",
          "type": "bytes32"
        }
      ],
      "name": "RoleAdminChanged",
      "type": "event"
    },
    {
      "anonymous": false,
      "inputs": [
        {
          "indexed": true,
          "internalType": "bytes32",
          "name": "role",
          "type": "bytes32"
        },
        {
          "indexed": true,
          "internalType": "address",
          "name": "account",
          "type": "address"
        },
        {
          "indexed": true,
          "internalType": "address",
          "name": "sender",
          "type": "address"
        }
      ],
      "name": "RoleGranted",
      "type": "event"
    },
    {
      "anonymous": false,
      "inputs": [
        {
          "indexed": true,
          "internalType": "bytes32",
          "name": "role",
          "type": "bytes32"
        },
        {
          "indexed": true,
          "internalType": "address",
          "name": "account",
          "type": "address"
        },
        {
          "indexed": true,
          "internalType": "address",
          "name": "sender",
          "type": "address"
        }
      ],
      "name": "RoleRevoked",
      "type": "event"
    },
    {
      "anonymous": false,
      "inputs": [
        {
          "indexed": true,
          "internalType": "address",
          "name": "operator",
          "type": "address"
        },
        {
          "indexed": true,
          "internalType": "address",
          "name": "from",
          "type": "address"
        },
        {
          "indexed": true,
          "internalType": "address",
          "name": "to",
          "type": "address"
        },
        {
          "indexed": false,
          "internalType": "uint256[]",
          "name": "ids",
          "type": "uint256[]"
        },
        {
          "indexed": false,
          "internalType": "uint256[]",
          "name": "values",
          "type": "uint256[]"
        }
      ],
      "name": "TransferBatch",
      "type": "event"
    },
    {
      "anonymous": false,
      "inputs": [
        {
          "indexed": true,
          "internalType": "address",
          "name": "operator",
          "type": "address"
        },
        {
          "indexed": true,
          "internalType": "address",
          "name": "from",
          "type": "address"
        },
        {
          "indexed": true,
          "internalType": "address",
          "name": "to",
          "type": "address"
        },
        {
          "indexed": false,
          "internalType": "uint256",
          "name": "id",
          "type": "uint256"
        },
        {
          "indexed": false,
          "internalType": "uint256",
          "name": "value",
          "type": "uint256"
        }
      ],
      "name": "TransferSingle",
      "type": "event"
    },
    {
      "anonymous": false,
      "inputs": [
        {
          "indexed": false,
          "internalType": "string",
          "name": "value",
          "type": "string"
        },
        {
          "indexed": true,
          "internalType": "uint256",
          "name": "id",
          "type": "uint256"
        }
      ],
      "name": "URI",
      "type": "event"
    },
    {
      "inputs": [],
      "name": "DEFAULT_ADMIN_ROLE",
      "outputs": [
        {
          "internalType": "bytes32",
          "name": "",
          "type": "bytes32"
        }
      ],
      "stateMutability": "view",
      "type": "function"
    },
    {
      "inputs": [],
      "name": "TICKET_ROLE",
      "outputs": [
        {
          "internalType": "bytes32",
          "name": "",
          "type": "bytes32"
        }
      ],
      "stateMutability": "view",
      "type": "function"
    },
    {
      "inputs": [
        {
          "internalType": "string",
          "name": "_name",
          "type": "string"
        },
        {
          "internalType": "string",
          "name": "_banner",
          "type": "string"
        },
        {
          "internalType": "string",
          "name": "_imageUrl",
          "type": "string"
        },
        {
          "internalType": "string",
          "name": "_videoUrl",
          "type": "string"
        },
        {
          "internalType": "string",
          "name": "_genre",
          "type": "string"
        },
        {
          "internalType": "string",
          "name": "_description",
          "type": "string"
        },
        {
          "internalType": "string",
          "name": "_caption",
          "type": "string"
        },
        {
          "internalType": "string",
          "name": "_casts",
          "type": "string"
        },
        {
          "internalType": "uint256",
          "name": "_running",
          "type": "uint256"
        },
        {
          "internalType": "uint256",
          "name": "_released",
          "type": "uint256"
        }
      ],
      "name": "addMovie",
      "outputs": [],
      "stateMutability": "nonpayable",
      "type": "function"
    },
    {
      "inputs": [
        {
          "internalType": "uint256",
          "name": "_movieId",
          "type": "uint256"
        },
        {
          "internalType": "uint256",
          "name": "_ticketCost",
          "type": "uint256"
        },
        {
          "internalType": "uint256",
          "name": "_startTime",
          "type": "uint256"
        },
        {
          "internalType": "uint256",
          "name": "_endTime",
          "type": "uint256"
        },
        {
          "internalType": "uint256",
          "name": "_capacity",
          "type": "uint256"
        },
        {
          "internalType": "uint256",
          "name": "_day",
          "type": "uint256"
        }
      ],
      "name": "addTimeSlot",
      "outputs": [],
      "stateMutability": "nonpayable",
      "type": "function"
    },
    {
      "inputs": [
        {
          "internalType": "address",
          "name": "account",
          "type": "address"
        },
        {
          "internalType": "uint256",
          "name": "id",
          "type": "uint256"
        }
      ],
      "name": "balanceOf",
      "outputs": [
        {
          "internalType": "uint256",
          "name": "",
          "type": "uint256"
        }
      ],
      "stateMutability": "view",
      "type": "function"
    },
    {
      "inputs": [
        {
          "internalType": "address[]",
          "name": "accounts",
          "type": "address[]"
        },
        {
          "internalType": "uint256[]",
          "name": "ids",
          "type": "uint256[]"
        }
      ],
      "name": "balanceOfBatch",
      "outputs": [
        {
          "internalType": "uint256[]",
          "name": "",
          "type": "uint256[]"
        }
      ],
      "stateMutability": "view",
      "type": "function"
    },
    {
      "inputs": [
        {
          "internalType": "address",
          "name": "account",
          "type": "address"
        },
        {
          "internalType": "uint256",
          "name": "id",
          "type": "uint256"
        },
        {
          "internalType": "uint256",
          "name": "value",
          "type": "uint256"
        }
      ],
      "name": "burn",
      "outputs": [],
      "stateMutability": "nonpayable",
      "type": "function"
    },
    {
      "inputs": [
        {
          "internalType": "address",
          "name": "account",
          "type": "address"
        },
        {
          "internalType": "uint256[]",
          "name": "ids",
          "type": "uint256[]"
        },
        {
          "internalType": "uint256[]",
          "name": "values",
          "type": "uint256[]"
        }
      ],
      "name": "burnBatch",
      "outputs": [],
      "stateMutability": "nonpayable",
      "type": "function"
    },
    {
      "inputs": [
        {
          "internalType": "uint256",
          "name": "_slotId",
          "type": "uint256"
        }
      ],
      "name": "completeTimeSlot",
      "outputs": [],
      "stateMutability": "nonpayable",
      "type": "function"
    },
    {
      "inputs": [
        {
          "internalType": "uint256",
          "name": "_movieId",
          "type": "uint256"
        }
      ],
      "name": "deleteMovie",
      "outputs": [],
      "stateMutability": "nonpayable",
      "type": "function"
    },
    {
      "inputs": [
        {
          "internalType": "uint256",
          "name": "_slotId",
          "type": "uint256"
        }
      ],
      "name": "deleteTimeSlot",
      "outputs": [],
      "stateMutability": "nonpayable",
      "type": "function"
    },
    {
      "inputs": [
        {
          "internalType": "uint256",
          "name": "movieId",
          "type": "uint256"
        }
      ],
      "name": "getMovie",
      "outputs": [
        {
          "components": [
            {
              "internalType": "uint256",
              "name": "id",
              "type": "uint256"
            },
            {
              "internalType": "string",
              "name": "name",
              "type": "string"
            },
            {
              "internalType": "string",
              "name": "banner",
              "type": "string"
            },
            {
              "internalType": "string",
              "name": "imageUrl",
              "type": "string"
            },
            {
              "internalType": "string",
              "name": "videoUrl",
              "type": "string"
            },
            {
              "internalType": "string",
              "name": "genre",
              "type": "string"
            },
            {
              "internalType": "string",
              "name": "description",
              "type": "string"
            },
            {
              "internalType": "string",
              "name": "caption",
              "type": "string"
            },
            {
              "internalType": "string",
              "name": "casts",
              "type": "string"
            },
            {
              "internalType": "uint256",
              "name": "running",
              "type": "uint256"
            },
            {
              "internalType": "uint256",
              "name": "released",
              "type": "uint256"
            },
            {
              "internalType": "uint256",
              "name": "timestamp",
              "type": "uint256"
            },
            {
              "internalType": "bool",
              "name": "deleted",
              "type": "bool"
            }
          ],
          "internalType": "struct DappShared.MovieStruct",
          "name": "",
          "type": "tuple"
        }
      ],
      "stateMutability": "view",
      "type": "function"
    },
    {
      "inputs": [],
      "name": "getMovies",
      "outputs": [
        {
          "components": [
            {
              "internalType": "uint256",
              "name": "id",
              "type": "uint256"
            },
            {
              "internalType": "string",
              "name": "name",
              "type": "string"
            },
            {
              "internalType": "string",
              "name": "banner",
              "type": "string"
            },
            {
              "internalType": "string",
              "name": "imageUrl",
              "type": "string"
            },
            {
              "internalType": "string",
              "name": "videoUrl",
              "type": "string"
            },
            {
              "internalType": "string",
              "name": "genre",
              "type": "string"
            },
            {
              "internalType": "string",
              "name": "description",
              "type": "string"
            },
            {
              "internalType": "string",
              "name": "caption",
              "type": "string"
            },
            {
              "internalType": "string",
              "name": "casts",
              "type": "string"
            },
            {
              "internalType": "uint256",
              "name": "running",
              "type": "uint256"
            },
            {
              "internalType": "uint256",
              "name": "released",
              "type": "uint256"
            },
            {
              "internalType": "uint256",
              "name": "timestamp",
              "type": "uint256"
            },
            {
              "internalType": "bool",
              "name": "deleted",
              "type": "bool"
            }
          ],
          "internalType": "struct DappShared.MovieStruct[]",
          "name": "Movies",
          "type": "tuple[]"
        }
      ],
      "stateMutability": "view",
      "type": "function"
    },
    {
      "inputs": [
        {
          "internalType": "bytes32",
          "name": "role",
          "type": "bytes32"
        }
      ],
      "name": "getRoleAdmin",
      "outputs": [
        {
          "internalType": "bytes32",
          "name": "",
          "type": "bytes32"
        }
      ],
      "stateMutability": "view",
      "type": "function"
    },
    {
      "inputs": [
        {
          "internalType": "uint256",
          "name": "slotId",
          "type": "uint256"
        }
      ],
      "name": "getTimeSlot",
      "outputs": [
        {
          "components": [
            {
              "internalType": "uint256",
              "name": "id",
              "type": "uint256"
            },
            {
              "internalType": "uint256",
              "name": "movieId",
              "type": "uint256"
            },
            {
              "internalType": "uint256",
              "name": "ticketCost",
              "type": "uint256"
            },
            {
              "internalType": "uint256",
              "name": "startTime",
              "type": "uint256"
            },
            {
              "internalType": "uint256",
              "name": "endTime",
              "type": "uint256"
            },
            {
              "internalType": "uint256",
              "name": "capacity",
              "type": "uint256"
            },
            {
              "internalType": "uint256",
              "name": "seats",
              "type": "uint256"
            },
            {
              "internalType": "bool",
              "name": "deleted",
              "type": "bool"
            },
            {
              "internalType": "bool",
              "name": "completed",
              "type": "bool"
            },
            {
              "internalType": "uint256",
              "name": "day",
              "type": "uint256"
            },
            {
              "internalType": "uint256",
              "name": "balance",
              "type": "uint256"
            }
          ],
          "internalType": "struct DappShared.TimeSlotStruct",
          "name": "",
          "type": "tuple"
        }
      ],
      "stateMutability": "view",
      "type": "function"
    },
    {
      "inputs": [
        {
          "internalType": "uint256",
          "name": "movieId",
          "type": "uint256"
        }
      ],
      "name": "getTimeSlots",
      "outputs": [
        {
          "components": [
            {
              "internalType": "uint256",
              "name": "id",
              "type": "uint256"
            },
            {
              "internalType": "uint256",
              "name": "movieId",
              "type": "uint256"
            },
            {
              "internalType": "uint256",
              "name": "ticketCost",
              "type": "uint256"
            },
            {
              "internalType": "uint256",
              "name": "startTime",
              "type": "uint256"
            },
            {
              "internalType": "uint256",
              "name": "endTime",
              "type": "uint256"
            },
            {
              "internalType": "uint256",
              "name": "capacity",
              "type": "uint256"
            },
            {
              "internalType": "uint256",
              "name": "seats",
              "type": "uint256"
            },
            {
              "internalType": "bool",
              "name": "deleted",
              "type": "bool"
            },
            {
              "internalType": "bool",
              "name": "completed",
              "type": "bool"
            },
            {
              "internalType": "uint256",
              "name": "day",
              "type": "uint256"
            },
            {
              "internalType": "uint256",
              "name": "balance",
              "type": "uint256"
            }
          ],
          "internalType": "struct DappShared.TimeSlotStruct[]",
          "name": "MovieSlots",
          "type": "tuple[]"
        }
      ],
      "stateMutability": "view",
      "type": "function"
    },
    {
      "inputs": [
        {
          "internalType": "uint256",
          "name": "day",
          "type": "uint256"
        }
      ],
      "name": "getTimeSlotsByDay",
      "outputs": [
        {
          "components": [
            {
              "internalType": "uint256",
              "name": "id",
              "type": "uint256"
            },
            {
              "internalType": "uint256",
              "name": "movieId",
              "type": "uint256"
            },
            {
              "internalType": "uint256",
              "name": "ticketCost",
              "type": "uint256"
            },
            {
              "internalType": "uint256",
              "name": "startTime",
              "type": "uint256"
            },
            {
              "internalType": "uint256",
              "name": "endTime",
              "type": "uint256"
            },
            {
              "internalType": "uint256",
              "name": "capacity",
              "type": "uint256"
            },
            {
              "internalType": "uint256",
              "name": "seats",
              "type": "uint256"
            },
            {
              "internalType": "bool",
              "name": "deleted",
              "type": "bool"
            },
            {
              "internalType": "bool",
              "name": "completed",
              "type": "bool"
            },
            {
              "internalType": "uint256",
              "name": "day",
              "type": "uint256"
            },
            {
              "internalType": "uint256",
              "name": "balance",
              "type": "uint256"
            }
          ],
          "internalType": "struct DappShared.TimeSlotStruct[]",
          "name": "MovieSlots",
          "type": "tuple[]"
        }
      ],
      "stateMutability": "view",
      "type": "function"
    },
    {
      "inputs": [
        {
          "internalType": "address",
          "name": "_dappCinemas",
          "type": "address"
        }
      ],
      "name": "grantAccess",
      "outputs": [],
      "stateMutability": "nonpayable",
      "type": "function"
    },
    {
      "inputs": [
        {
          "internalType": "bytes32",
          "name": "role",
          "type": "bytes32"
        },
        {
          "internalType": "address",
          "name": "account",
          "type": "address"
        }
      ],
      "name": "grantRole",
      "outputs": [],
      "stateMutability": "nonpayable",
      "type": "function"
    },
    {
      "inputs": [
        {
          "internalType": "bytes32",
          "name": "role",
          "type": "bytes32"
        },
        {
          "internalType": "address",
          "name": "account",
          "type": "address"
        }
      ],
      "name": "hasRole",
      "outputs": [
        {
          "internalType": "bool",
          "name": "",
          "type": "bool"
        }
      ],
      "stateMutability": "view",
      "type": "function"
    },
    {
      "inputs": [
        {
          "internalType": "uint256",
          "name": "slotId",
          "type": "uint256"
        }
      ],
      "name": "hasSlot",
      "outputs": [
        {
          "components": [
            {
              "internalType": "uint256",
              "name": "id",
              "type": "uint256"
            },
            {
              "internalType": "uint256",
              "name": "movieId",
              "type": "uint256"
            },
            {
              "internalType": "uint256",
              "name": "ticketCost",
              "type": "uint256"
            },
            {
              "internalType": "uint256",
              "name": "startTime",
              "type": "uint256"
            },
            {
              "internalType": "uint256",
              "name": "endTime",
              "type": "uint256"
            },
            {
              "internalType": "uint256",
              "name": "capacity",
              "type": "uint256"
            },
            {
              "internalType": "uint256",
              "name": "seats",
              "type": "uint256"
            },
            {
              "internalType": "bool",
              "name": "deleted",
              "type": "bool"
            },
            {
              "internalType": "bool",
              "name": "completed",
              "type": "bool"
            },
            {
              "internalType": "uint256",
              "name": "day",
              "type": "uint256"
            },
            {
              "internalType": "uint256",
              "name": "balance",
              "type": "uint256"
            }
          ],
          "internalType": "struct DappShared.TimeSlotStruct",
          "name": "",
          "type": "tuple"
        }
      ],
      "stateMutability": "view",
      "type": "function"
    },
    {
      "inputs": [
        {
          "internalType": "address",
          "name": "account",
          "type": "address"
        },
        {
          "internalType": "address",
          "name": "operator",
          "type": "address"
        }
      ],
      "name": "isApprovedForAll",
      "outputs": [
        {
          "internalType": "bool",
          "name": "",
          "type": "bool"
        }
      ],
      "stateMutability": "view",
      "type": "function"
    },
    {
      "inputs": [],
      "name": "owner",
      "outputs": [
        {
          "internalType": "address",
          "name": "",
          "type": "address"
        }
      ],
      "stateMutability": "view",
      "type": "function"
    },
    {
      "inputs": [],
      "name": "renounceOwnership",
      "outputs": [],
      "stateMutability": "nonpayable",
      "type": "function"
    },
    {
      "inputs": [
        {
          "internalType": "bytes32",
          "name": "role",
          "type": "bytes32"
        },
        {
          "internalType": "address",
          "name": "account",
          "type": "address"
        }
      ],
      "name": "renounceRole",
      "outputs": [],
      "stateMutability": "nonpayable",
      "type": "function"
    },
    {
      "inputs": [
        {
          "internalType": "bytes32",
          "name": "role",
          "type": "bytes32"
        },
        {
          "internalType": "address",
          "name": "account",
          "type": "address"
        }
      ],
      "name": "revokeRole",
      "outputs": [],
      "stateMutability": "nonpayable",
      "type": "function"
    },
    {
      "inputs": [
        {
          "internalType": "address",
          "name": "from",
          "type": "address"
        },
        {
          "internalType": "address",
          "name": "to",
          "type": "address"
        },
        {
          "internalType": "uint256[]",
          "name": "ids",
          "type": "uint256[]"
        },
        {
          "internalType": "uint256[]",
          "name": "amounts",
          "type": "uint256[]"
        },
        {
          "internalType": "bytes",
          "name": "data",
          "type": "bytes"
        }
      ],
      "name": "safeBatchTransferFrom",
      "outputs": [],
      "stateMutability": "nonpayable",
      "type": "function"
    },
    {
      "inputs": [
        {
          "internalType": "address",
          "name": "from",
          "type": "address"
        },
        {
          "internalType": "address",
          "name": "to",
          "type": "address"
        },
        {
          "internalType": "uint256",
          "name": "id",
          "type": "uint256"
        },
        {
          "internalType": "uint256",
          "name": "amount",
          "type": "uint256"
        },
        {
          "internalType": "bytes",
          "name": "data",
          "type": "bytes"
        }
      ],
      "name": "safeTransferFrom",
      "outputs": [],
      "stateMutability": "nonpayable",
      "type": "function"
    },
    {
      "inputs": [
        {
          "internalType": "address",
          "name": "operator",
          "type": "address"
        },
        {
          "internalType": "bool",
          "name": "approved",
          "type": "bool"
        }
      ],
      "name": "setApprovalForAll",
      "outputs": [],
      "stateMutability": "nonpayable",
      "type": "function"
    },
    {
      "inputs": [
        {
          "internalType": "bytes4",
          "name": "interfaceId",
          "type": "bytes4"
        }
      ],
      "name": "supportsInterface",
      "outputs": [
        {
          "internalType": "bool",
          "name": "",
          "type": "bool"
        }
      ],
      "stateMutability": "view",
      "type": "function"
    },
    {
      "inputs": [
        {
          "internalType": "address",
          "name": "newOwner",
          "type": "address"
        }
      ],
      "name": "transferOwnership",
      "outputs": [],
      "stateMutability": "nonpayable",
      "type": "function"
    },
    {
      "inputs": [
        {
          "internalType": "uint256",
          "name": "_movieId",
          "type": "uint256"
        },
        {
          "internalType": "string",
          "name": "_name",
          "type": "string"
        },
        {
          "internalType": "string",
          "name": "_banner",
          "type": "string"
        },
        {
          "internalType": "string",
          "name": "_imageUrl",
          "type": "string"
        },
        {
          "internalType": "string",
          "name": "_videoUrl",
          "type": "string"
        },
        {
          "internalType": "string",
          "name": "_genre",
          "type": "string"
        },
        {
          "internalType": "string",
          "name": "_description",
          "type": "string"
        },
        {
          "internalType": "string",
          "name": "_caption",
          "type": "string"
        },
        {
          "internalType": "string",
          "name": "_casts",
          "type": "string"
        },
        {
          "internalType": "uint256",
          "name": "_running",
          "type": "uint256"
        },
        {
          "internalType": "uint256",
          "name": "_released",
          "type": "uint256"
        }
      ],
      "name": "updateMovie",
      "outputs": [],
      "stateMutability": "nonpayable",
      "type": "function"
    },
    {
      "inputs": [
        {
          "internalType": "uint256",
          "name": "",
          "type": "uint256"
        }
      ],
      "name": "uri",
      "outputs": [
        {
          "internalType": "string",
          "name": "",
          "type": "string"
        }
      ],
      "stateMutability": "view",
      "type": "function"
    }
  ],
  "bytecode": "0x60806040523480156200001157600080fd5b506040805160208101909152600081526200002c816200003e565b50620000383362000050565b62000213565b60026200004c828262000147565b5050565b600380546001600160a01b038381166001600160a01b0319831681179093556040519116919082907f8be0079c531659141344cd1fd0a4f28419497f9722a3daafe3b4186f6b6457e090600090a35050565b634e487b7160e01b600052604160045260246000fd5b600181811c90821680620000cd57607f821691505b602082108103620000ee57634e487b7160e01b600052602260045260246000fd5b50919050565b601f8211156200014257600081815260208120601f850160051c810160208610156200011d5750805b601f850160051c820191505b818110156200013e5782815560010162000129565b5050505b505050565b81516001600160401b03811115620001635762000163620000a2565b6200017b81620001748454620000b8565b84620000f4565b602080601f831160018114620001b357600084156200019a5750858301515b600019600386901b1c1916600185901b1785556200013e565b600085815260208120601f198616915b82811015620001e457888601518255948401946001909101908401620001c3565b5085821015620002035787850151600019600388901b60f8161c191681555b5050505050600190811b01905550565b61402480620002236000396000f3fe608060405234801561001057600080fd5b50600436106101fa5760003560e01c80636b4f6cb71161011a578063a22cb465116100ad578063d6cbac901161007c578063d6cbac901461046c578063e985e9c51461047f578063f242432a146104bb578063f2fde38b146104ce578063f5298aca146104e157600080fd5b8063a22cb46514610433578063b6da3f0914610446578063d547741f14610459578063d6330454146102d357600080fd5b806389964e22116100e957806389964e22146103e85780638da5cb5b146103fd57806391d1485414610418578063a217fddf1461042b57600080fd5b80636b4f6cb71461039a578063715018a6146103ad57806374a6d667146103b55780637cd35a0a146103c857600080fd5b80632c53b4061161019257806336568abe1161016157806336568abe146103415780633b6559c1146103545780634e1273f4146103675780636b20c4541461038757600080fd5b80632c53b406146102f35780632eb2c2d6146103085780632f2ff15d1461031b5780633632d2ee1461032e57600080fd5b8063179ffe76116101ce578063179ffe761461027d578063248a9ca31461029d5780632b4bbba2146102c05780632b85dcc9146102d357600080fd5b8062fdd58e146101ff57806301ffc9a7146102255780630ae5e739146102485780630e89341c1461025d575b600080fd5b61021261020d366004612ec8565b6104f4565b6040519081526020015b60405180910390f35b610238610233366004612f08565b61058d565b604051901515815260200161021c565b61025b610256366004612f25565b610598565b005b61027061026b366004612f40565b6105ff565b60405161021c9190612fa9565b61029061028b366004612f40565b610693565b60405161021c91906130ce565b6102126102ab366004612f40565b60009081526004602052604090206001015490565b61025b6102ce3660046130e1565b610b88565b6102e66102e1366004612f40565b610cf3565b60405161021c919061319c565b6102fb610d91565b60405161021c91906131ab565b61025b610316366004613356565b61137e565b61025b6103293660046133ff565b6113ca565b61025b61033c36600461342b565b6113f4565b61025b61034f3660046133ff565b611579565b61025b610362366004612f40565b6115f7565b61037a610375366004613594565b6116c3565b60405161021c9190613699565b61025b6103953660046136ac565b6117ec565b61025b6103a8366004612f40565b61182f565b61025b6118d3565b61025b6103c336600461371f565b6118e7565b6103db6103d6366004612f40565b611ad2565b60405161021c9190613873565b610212600080516020613faf83398151915281565b6003546040516001600160a01b03909116815260200161021c565b6102386104263660046133ff565b611cf9565b610212600081565b61025b6104413660046138c2565b611d24565b61025b610454366004612f40565b611d2f565b61025b6104673660046133ff565b611df4565b6103db61047a366004612f40565b611e19565b61023861048d3660046138fe565b6001600160a01b03918216600090815260016020908152604080832093909416825291909152205460ff1690565b61025b6104c9366004613928565b611ffe565b61025b6104dc366004612f25565b612043565b61025b6104ef36600461398c565b6120bc565b60006001600160a01b0383166105645760405162461bcd60e51b815260206004820152602a60248201527f455243313135353a2061646472657373207a65726f206973206e6f742061207660448201526930b634b21037bbb732b960b11b60648201526084015b60405180910390fd5b506000818152602081815260408083206001600160a01b03861684529091529020545b92915050565b6000610587826120ff565b6105a0612124565b6105b8600080516020613faf8339815191528261217e565b600a546105dd90600080516020613faf833981519152906001600160a01b0316612188565b600a80546001600160a01b0319166001600160a01b0392909216919091179055565b60606002805461060e906139bf565b80601f016020809104026020016040519081016040528092919081815260200182805461063a906139bf565b80156106875780601f1061065c57610100808354040283529160200191610687565b820191906000526020600020905b81548152906001019060200180831161066a57829003601f168201915b50505050509050919050565b61069b612de4565b60086000838152602001908152602001600020604051806101a0016040529081600082015481526020016001820180546106d4906139bf565b80601f0160208091040260200160405190810160405280929190818152602001828054610700906139bf565b801561074d5780601f106107225761010080835404028352916020019161074d565b820191906000526020600020905b81548152906001019060200180831161073057829003601f168201915b50505050508152602001600282018054610766906139bf565b80601f0160208091040260200160405190810160405280929190818152602001828054610792906139bf565b80156107df5780601f106107b4576101008083540402835291602001916107df565b820191906000526020600020905b8154815290600101906020018083116107c257829003601f168201915b505050505081526020016003820180546107f8906139bf565b80601f0160208091040260200160405190810160405280929190818152602001828054610824906139bf565b80156108715780601f1061084657610100808354040283529160200191610871565b820191906000526020600020905b81548152906001019060200180831161085457829003601f168201915b5050505050815260200160048201805461088a906139bf565b80601f01602080910402602001604051908101604052809291908181526020018280546108b6906139bf565b80156109035780601f106108d857610100808354040283529160200191610903565b820191906000526020600020905b8154815290600101906020018083116108e657829003601f168201915b5050505050815260200160058201805461091c906139bf565b80601f0160208091040260200160405190810160405280929190818152602001828054610948906139bf565b80156109955780601f1061096a57610100808354040283529160200191610995565b820191906000526020600020905b81548152906001019060200180831161097857829003601f168201915b505050505081526020016006820180546109ae906139bf565b80601f01602080910402602001604051908101604052809291908181526020018280546109da906139bf565b8015610a275780601f106109fc57610100808354040283529160200191610a27565b820191906000526020600020905b815481529060010190602001808311610a0a57829003601f168201915b50505050508152602001600782018054610a40906139bf565b80601f0160208091040260200160405190810160405280929190818152602001828054610a6c906139bf565b8015610ab95780601f10610a8e57610100808354040283529160200191610ab9565b820191906000526020600020905b815481529060010190602001808311610a9c57829003601f168201915b50505050508152602001600882018054610ad2906139bf565b80601f0160208091040260200160405190810160405280929190818152602001828054610afe906139bf565b8015610b4b5780601f10610b2057610100808354040283529160200191610b4b565b820191906000526020600020905b815481529060010190602001808311610b2e57829003601f168201915b505050918352505060098201546020820152600a8201546040820152600b8201546060820152600c9091015460ff16151560809091015292915050565b610b90612124565b60008681526007602052604090205460ff16610bbe5760405162461bcd60e51b815260040161055b906139f9565b610bcc600680546001019055565b6000610bd760065490565b9050610be1612e4e565b818152602080820189815260408084018a8152606085018a8152608086018a815260a087018a8152600060c0890181815260e08a01828152610100808c018481526101208d018f81526101408e018681528f875260099d8e9052958b90208e5181559b5160018d0155985160028c0155965160038b0155945160048a01559251600589015551600688015590516007870180549451151590930261ff00199115159190911661ffff19909416939093179290921790559051600884015551919092015551600080516020613fcf83398151915290610ce1906020808252600e908201526d151a5b595cdb1bdd08185919195960921b604082015260600190565b60405180910390a15050505050505050565b610cfb612e4e565b50600090815260096020818152604092839020835161016081018552815481526001820154928101929092526002810154938201939093526003830154606082015260048301546080820152600583015460a0820152600683015460c0820152600783015460ff808216151560e08401526101009182900416151590820152600883015461012082015291015461014082015290565b6060600060015b6005548111610dda576000818152600860205260409020600c015460ff16610dc85781610dc481613a3d565b9250505b80610dd281613a3d565b915050610d98565b50806001600160401b03811115610df357610df361320d565b604051908082528060200260200182016040528015610e2c57816020015b610e19612de4565b815260200190600190039081610e115790505b509150600060015b6005548111611378576000818152600860205260409020600c015460ff166113665760086000828152602001908152602001600020604051806101a001604052908160008201548152602001600182018054610e8f906139bf565b80601f0160208091040260200160405190810160405280929190818152602001828054610ebb906139bf565b8015610f085780601f10610edd57610100808354040283529160200191610f08565b820191906000526020600020905b815481529060010190602001808311610eeb57829003601f168201915b50505050508152602001600282018054610f21906139bf565b80601f0160208091040260200160405190810160405280929190818152602001828054610f4d906139bf565b8015610f9a5780601f10610f6f57610100808354040283529160200191610f9a565b820191906000526020600020905b815481529060010190602001808311610f7d57829003601f168201915b50505050508152602001600382018054610fb3906139bf565b80601f0160208091040260200160405190810160405280929190818152602001828054610fdf906139bf565b801561102c5780601f106110015761010080835404028352916020019161102c565b820191906000526020600020905b81548152906001019060200180831161100f57829003601f168201915b50505050508152602001600482018054611045906139bf565b80601f0160208091040260200160405190810160405280929190818152602001828054611071906139bf565b80156110be5780601f10611093576101008083540402835291602001916110be565b820191906000526020600020905b8154815290600101906020018083116110a157829003601f168201915b505050505081526020016005820180546110d7906139bf565b80601f0160208091040260200160405190810160405280929190818152602001828054611103906139bf565b80156111505780601f1061112557610100808354040283529160200191611150565b820191906000526020600020905b81548152906001019060200180831161113357829003601f168201915b50505050508152602001600682018054611169906139bf565b80601f0160208091040260200160405190810160405280929190818152602001828054611195906139bf565b80156111e25780601f106111b7576101008083540402835291602001916111e2565b820191906000526020600020905b8154815290600101906020018083116111c557829003601f168201915b505050505081526020016007820180546111fb906139bf565b80601f0160208091040260200160405190810160405280929190818152602001828054611227906139bf565b80156112745780601f1061124957610100808354040283529160200191611274565b820191906000526020600020905b81548152906001019060200180831161125757829003601f168201915b5050505050815260200160088201805461128d906139bf565b80601f01602080910402602001604051908101604052809291908181526020018280546112b9906139bf565b80156113065780601f106112db57610100808354040283529160200191611306565b820191906000526020600020905b8154815290600101906020018083116112e957829003601f168201915b505050918352505060098201546020820152600a8201546040820152600b8201546060820152600c9091015460ff161515608090910152848361134881613a3d565b94508151811061135a5761135a613a56565b60200260200101819052505b8061137081613a3d565b915050610e34565b50505090565b6001600160a01b03851633148061139a575061139a853361048d565b6113b65760405162461bcd60e51b815260040161055b90613a6c565b6113c385858585856121ef565b5050505050565b6000828152600460205260409020600101546113e58161238b565b6113ef8383612395565b505050565b6113fc612124565b60008b81526007602052604090205460ff1661142a5760405162461bcd60e51b815260040161055b906139f9565b60008b81526008602052604090206001016114458b82613b00565b5060008b81526008602052604090206002016114618a82613b00565b5060008b815260086020526040902060030161147d8982613b00565b5060008b81526008602052604090206004016114998882613b00565b5060008b81526008602052604090206005016114b58782613b00565b5060008b81526008602052604090206006016114d18682613b00565b5060008b81526008602052604090206007016114ed8582613b00565b5060008b81526008602081905260409091200161150a8482613b00565b5060008b8152600860205260409081902060098101849055600a0182905551600080516020613fcf83398151915290611564906020808252600d908201526c135bdd9a59481d5c19185d1959609a1b604082015260600190565b60405180910390a15050505050505050505050565b6001600160a01b03811633146115e95760405162461bcd60e51b815260206004820152602f60248201527f416363657373436f6e74726f6c3a2063616e206f6e6c792072656e6f756e636560448201526e103937b632b9903337b91039b2b63360891b606482015260840161055b565b6115f38282612188565b5050565b61160f600080516020613faf83398151915233611cf9565b61165b5760405162461bcd60e51b815260206004820152601f60248201527f43616c6c6572206973206e6f742061207469636b657420636f6e747261637400604482015260640161055b565b60008181526009602052604090819020600701805460ff1916600117905551600080516020613fcf833981519152906116b89060208082526010908201526f151a5b595cdb1bdd0819195b195d195960821b604082015260600190565b60405180910390a150565b606081518351146117285760405162461bcd60e51b815260206004820152602960248201527f455243313135353a206163636f756e747320616e6420696473206c656e677468604482015268040dad2e6dac2e8c6d60bb1b606482015260840161055b565b600083516001600160401b038111156117435761174361320d565b60405190808252806020026020018201604052801561176c578160200160208202803683370190505b50905060005b84518110156117e4576117b785828151811061179057611790613a56565b60200260200101518583815181106117aa576117aa613a56565b60200260200101516104f4565b8282815181106117c9576117c9613a56565b60209081029190910101526117dd81613a3d565b9050611772565b509392505050565b6001600160a01b0383163314806118085750611808833361048d565b6118245760405162461bcd60e51b815260040161055b90613a6c565b6113ef83838361241b565b611837612124565b60008181526007602052604090205460ff166118655760405162461bcd60e51b815260040161055b906139f9565b6000818152600860209081526040808320600c01805460ff199081166001179091556007909252918290208054909116905551600080516020613fcf833981519152906116b8906020808252600d908201526c135bdd9a594819195b195d1959609a1b604082015260600190565b6118db612124565b6118e560006125a6565b565b6118ef612124565b6118fd600580546001019055565b600061190860055490565b9050611912612de4565b818152602081018c9052604081018b9052606081018a90526080810189905260a0810188905260c0810187905260e081018690526101008101859052610120810184905261014081018390526119666125f8565b6101608201526000828152600860209081526040909120825181559082015182919060018201906119979082613b00565b50604082015160028201906119ac9082613b00565b50606082015160038201906119c19082613b00565b50608082015160048201906119d69082613b00565b5060a082015160058201906119eb9082613b00565b5060c08201516006820190611a009082613b00565b5060e08201516007820190611a159082613b00565b506101008201516008820190611a2b9082613b00565b506101208201516009820155610140820151600a820155610160820151600b82015561018090910151600c909101805491151560ff1992831617905560008381526007602052604090819020805490921660011790915551600080516020613fcf83398151915290611abc906020808252600b908201526a135bdd9a5948185919195960aa1b604082015260600190565b60405180910390a1505050505050505050505050565b60606000805b600654811015611b59578360096000611af2846001613bbf565b815260200190815260200160002060010154148015611b34575060096000611b1b836001613bbf565b815260208101919091526040016000206007015460ff16155b15611b475781611b4381613a3d565b9250505b80611b5181613a3d565b915050611ad8565b50806001600160401b03811115611b7257611b7261320d565b604051908082528060200260200182016040528015611bab57816020015b611b98612e4e565b815260200190600190039081611b905790505b5091506000805b600654811015611cf1578460096000611bcc846001613bbf565b815260200190815260200160002060010154148015611c0e575060096000611bf5836001613bbf565b815260208101919091526040016000206007015460ff16155b15611cdf5760096000611c22836001613bbf565b81526020808201929092526040908101600020815161016081018352815481526001820154938101939093526002810154918301919091526003810154606083015260048101546080830152600581015460a0830152600681015460c0830152600781015460ff808216151560e085015261010091829004161515908301526008810154610120830152600901546101408201528483611cc181613a3d565b945081518110611cd357611cd3613a56565b60200260200101819052505b80611ce981613a3d565b915050611bb2565b505050919050565b60009182526004602090815260408084206001600160a01b0393909316845291905290205460ff1690565b6115f3338383612613565b611d47600080516020613faf83398151915233611cf9565b611d935760405162461bcd60e51b815260206004820152601f60248201527f43616c6c6572206973206e6f742061207469636b657420636f6e747261637400604482015260640161055b565b60008181526009602052604090819020600701805461ff00191661010017905551600080516020613fcf833981519152906116b890602080825260129082015271151a5b595cdb1bdd0818dbdb5c1b195d195960721b604082015260600190565b600082815260046020526040902060010154611e0f8161238b565b6113ef8383612188565b60606000805b600654811015611ea0578360096000611e39846001613bbf565b815260200190815260200160002060080154148015611e7b575060096000611e62836001613bbf565b815260208101919091526040016000206007015460ff16155b15611e8e5781611e8a81613a3d565b9250505b80611e9881613a3d565b915050611e1f565b50806001600160401b03811115611eb957611eb961320d565b604051908082528060200260200182016040528015611ef257816020015b611edf612e4e565b815260200190600190039081611ed75790505b5091506000805b600654811015611cf1578460096000611f13846001613bbf565b815260200190815260200160002060080154148015611f55575060096000611f3c836001613bbf565b815260208101919091526040016000206007015460ff16155b15611fec5760096000611f69836001613bbf565b815260200190815260200160002060030154848381518110611f8d57611f8d613a56565b60209081029190910101516060015260096000611fab836001613bbf565b815260200190815260200160002060040154848380611fc990613a3d565b945081518110611fdb57611fdb613a56565b602002602001015160800181815250505b80611ff681613a3d565b915050611ef9565b6001600160a01b03851633148061201a575061201a853361048d565b6120365760405162461bcd60e51b815260040161055b90613a6c565b6113c385858585856126f3565b61204b612124565b6001600160a01b0381166120b05760405162461bcd60e51b815260206004820152602660248201527f4f776e61626c653a206e6577206f776e657220697320746865207a65726f206160448201526564647265737360d01b606482015260840161055b565b6120b9816125a6565b50565b6001600160a01b0383163314806120d857506120d8833361048d565b6120f45760405162461bcd60e51b815260040161055b90613a6c565b6113ef83838361281d565b60006001600160e01b03198216637965db0b60e01b1480610587575061058782612926565b6003546001600160a01b031633146118e55760405162461bcd60e51b815260206004820181905260248201527f4f776e61626c653a2063616c6c6572206973206e6f7420746865206f776e6572604482015260640161055b565b6115f38282612395565b6121928282611cf9565b156115f35760008281526004602090815260408083206001600160a01b0385168085529252808320805460ff1916905551339285917ff6391f5c32d9c69d2a47ea670b442974b53935d1edc7fd64eb21e047a839171b9190a45050565b81518351146122105760405162461bcd60e51b815260040161055b90613bd2565b6001600160a01b0384166122365760405162461bcd60e51b815260040161055b90613c1a565b3360005b845181101561231d57600085828151811061225757612257613a56565b60200260200101519050600085838151811061227557612275613a56565b602090810291909101810151600084815280835260408082206001600160a01b038e1683529093529190912054909150818110156122c55760405162461bcd60e51b815260040161055b90613c5f565b6000838152602081815260408083206001600160a01b038e8116855292528083208585039055908b16825281208054849290612302908490613bbf565b925050819055505050508061231690613a3d565b905061223a565b50846001600160a01b0316866001600160a01b0316826001600160a01b03167f4a39dc06d4c0dbc64b70af90fd698a233a518aa5d07e595d983b8c0526c8f7fb878760405161236d929190613ca9565b60405180910390a4612383818787878787612976565b505050505050565b6120b98133612ad1565b61239f8282611cf9565b6115f35760008281526004602090815260408083206001600160a01b03851684529091529020805460ff191660011790556123d73390565b6001600160a01b0316816001600160a01b0316837f2f8788117e7eff1d82e926ec794901d17c78024a50270940304540a733656f0d60405160405180910390a45050565b6001600160a01b0383166124415760405162461bcd60e51b815260040161055b90613cd7565b80518251146124625760405162461bcd60e51b815260040161055b90613bd2565b604080516020810190915260009081905233905b835181101561253857600084828151811061249357612493613a56565b6020026020010151905060008483815181106124b1576124b1613a56565b602090810291909101810151600084815280835260408082206001600160a01b038c1683529093529190912054909150818110156125015760405162461bcd60e51b815260040161055b90613d1a565b6000928352602083815260408085206001600160a01b038b168652909152909220910390558061253081613a3d565b915050612476565b5060006001600160a01b0316846001600160a01b0316826001600160a01b03167f4a39dc06d4c0dbc64b70af90fd698a233a518aa5d07e595d983b8c0526c8f7fb8686604051612589929190613ca9565b60405180910390a460408051602081019091526000905250505050565b600380546001600160a01b038381166001600160a01b0319831681179093556040519116919082907f8be0079c531659141344cd1fd0a4f28419497f9722a3daafe3b4186f6b6457e090600090a35050565b600080612607426103e8613d5e565b610587906103e8613bbf565b816001600160a01b0316836001600160a01b0316036126865760405162461bcd60e51b815260206004820152602960248201527f455243313135353a2073657474696e6720617070726f76616c20737461747573604482015268103337b91039b2b63360b91b606482015260840161055b565b6001600160a01b03838116600081815260016020908152604080832094871680845294825291829020805460ff191686151590811790915591519182527f17307eab39ab6107e8899845ad3d59bd9653f200f220920489ca2b5937696c31910160405180910390a3505050565b6001600160a01b0384166127195760405162461bcd60e51b815260040161055b90613c1a565b33600061272585612b2a565b9050600061273285612b2a565b90506000868152602081815260408083206001600160a01b038c168452909152902054858110156127755760405162461bcd60e51b815260040161055b90613c5f565b6000878152602081815260408083206001600160a01b038d8116855292528083208985039055908a168252812080548892906127b2908490613bbf565b909155505060408051888152602081018890526001600160a01b03808b16928c821692918816917fc3d58168c5ae7397731d063d5bbf3d657854427343f4c083240f7aacaa2d0f62910160405180910390a4612812848a8a8a8a8a612b75565b505050505050505050565b6001600160a01b0383166128435760405162461bcd60e51b815260040161055b90613cd7565b33600061284f84612b2a565b9050600061285c84612b2a565b60408051602080820183526000918290528882528181528282206001600160a01b038b16835290522054909150848110156128a95760405162461bcd60e51b815260040161055b90613d1a565b6000868152602081815260408083206001600160a01b038b81168086529184528285208a8703905582518b81529384018a90529092908816917fc3d58168c5ae7397731d063d5bbf3d657854427343f4c083240f7aacaa2d0f62910160405180910390a46040805160208101909152600090525b50505050505050565b60006001600160e01b03198216636cdb3d1360e11b148061295757506001600160e01b031982166303a24d0760e21b145b8061058757506301ffc9a760e01b6001600160e01b0319831614610587565b6001600160a01b0384163b156123835760405163bc197c8160e01b81526001600160a01b0385169063bc197c81906129ba9089908990889088908890600401613d75565b6020604051808303816000875af19250505080156129f5575060408051601f3d908101601f191682019092526129f291810190613dd3565b60015b612aa157612a01613df0565b806308c379a003612a3a5750612a15613e0c565b80612a205750612a3c565b8060405162461bcd60e51b815260040161055b9190612fa9565b505b60405162461bcd60e51b815260206004820152603460248201527f455243313135353a207472616e7366657220746f206e6f6e2d455243313135356044820152732932b1b2b4bb32b91034b6b83632b6b2b73a32b960611b606482015260840161055b565b6001600160e01b0319811663bc197c8160e01b1461291d5760405162461bcd60e51b815260040161055b90613e95565b612adb8282611cf9565b6115f357612ae881612c30565b612af3836020612c42565b604051602001612b04929190613edd565b60408051601f198184030181529082905262461bcd60e51b825261055b91600401612fa9565b60408051600180825281830190925260609160009190602080830190803683370190505090508281600081518110612b6457612b64613a56565b602090810291909101015292915050565b6001600160a01b0384163b156123835760405163f23a6e6160e01b81526001600160a01b0385169063f23a6e6190612bb99089908990889088908890600401613f52565b6020604051808303816000875af1925050508015612bf4575060408051601f3d908101601f19168201909252612bf191810190613dd3565b60015b612c0057612a01613df0565b6001600160e01b0319811663f23a6e6160e01b1461291d5760405162461bcd60e51b815260040161055b90613e95565b60606105876001600160a01b03831660145b60606000612c51836002613d5e565b612c5c906002613bbf565b6001600160401b03811115612c7357612c7361320d565b6040519080825280601f01601f191660200182016040528015612c9d576020820181803683370190505b509050600360fc1b81600081518110612cb857612cb8613a56565b60200101906001600160f81b031916908160001a905350600f60fb1b81600181518110612ce757612ce7613a56565b60200101906001600160f81b031916908160001a9053506000612d0b846002613d5e565b612d16906001613bbf565b90505b6001811115612d8e576f181899199a1a9b1b9c1cb0b131b232b360811b85600f1660108110612d4a57612d4a613a56565b1a60f81b828281518110612d6057612d60613a56565b60200101906001600160f81b031916908160001a90535060049490941c93612d8781613f97565b9050612d19565b508315612ddd5760405162461bcd60e51b815260206004820181905260248201527f537472696e67733a20686578206c656e67746820696e73756666696369656e74604482015260640161055b565b9392505050565b604051806101a001604052806000815260200160608152602001606081526020016060815260200160608152602001606081526020016060815260200160608152602001606081526020016000815260200160008152602001600081526020016000151581525090565b6040518061016001604052806000815260200160008152602001600081526020016000815260200160008152602001600081526020016000815260200160001515815260200160001515815260200160008152602001600081525090565b80356001600160a01b0381168114612ec357600080fd5b919050565b60008060408385031215612edb57600080fd5b612ee483612eac565b946020939093013593505050565b6001600160e01b0319811681146120b957600080fd5b600060208284031215612f1a57600080fd5b8135612ddd81612ef2565b600060208284031215612f3757600080fd5b612ddd82612eac565b600060208284031215612f5257600080fd5b5035919050565b60005b83811015612f74578181015183820152602001612f5c565b50506000910152565b60008151808452612f95816020860160208601612f59565b601f01601f19169290920160200192915050565b602081526000612ddd6020830184612f7d565b60006101a0825184526020830151816020860152612fdc82860182612f7d565b91505060408301518482036040860152612ff68282612f7d565b915050606083015184820360608601526130108282612f7d565b9150506080830151848203608086015261302a8282612f7d565b91505060a083015184820360a08601526130448282612f7d565b91505060c083015184820360c086015261305e8282612f7d565b91505060e083015184820360e08601526130788282612f7d565b91505061010080840151858303828701526130938382612f7d565b610120868101519088015261014080870151908801526101608087015190880152610180958601511515959096019490945250929392505050565b602081526000612ddd6020830184612fbc565b60008060008060008060c087890312156130fa57600080fd5b505084359660208601359650604086013595606081013595506080810135945060a0013592509050565b805182526020810151602083015260408101516040830152606081015160608301526080810151608083015260a081015160a083015260c081015160c083015260e081015161317760e084018215159052565b5061010081810151151590830152610120808201519083015261014090810151910152565b61016081016105878284613124565b6000602080830181845280855180835260408601915060408160051b870101925083870160005b8281101561320057603f198886030184526131ee858351612fbc565b945092850192908501906001016131d2565b5092979650505050505050565b634e487b7160e01b600052604160045260246000fd5b601f8201601f191681016001600160401b03811182821017156132485761324861320d565b6040525050565b60006001600160401b038211156132685761326861320d565b5060051b60200190565b600082601f83011261328357600080fd5b813560206132908261324f565b60405161329d8282613223565b83815260059390931b85018201928281019150868411156132bd57600080fd5b8286015b848110156132d857803583529183019183016132c1565b509695505050505050565b600082601f8301126132f457600080fd5b81356001600160401b0381111561330d5761330d61320d565b604051613324601f8301601f191660200182613223565b81815284602083860101111561333957600080fd5b816020850160208301376000918101602001919091529392505050565b600080600080600060a0868803121561336e57600080fd5b61337786612eac565b945061338560208701612eac565b935060408601356001600160401b03808211156133a157600080fd5b6133ad89838a01613272565b945060608801359150808211156133c357600080fd5b6133cf89838a01613272565b935060808801359150808211156133e557600080fd5b506133f2888289016132e3565b9150509295509295909350565b6000806040838503121561341257600080fd5b8235915061342260208401612eac565b90509250929050565b60008060008060008060008060008060006101608c8e03121561344d57600080fd5b8b359a506001600160401b038060208e0135111561346a57600080fd5b61347a8e60208f01358f016132e3565b9a508060408e0135111561348d57600080fd5b61349d8e60408f01358f016132e3565b99508060608e013511156134b057600080fd5b6134c08e60608f01358f016132e3565b98508060808e013511156134d357600080fd5b6134e38e60808f01358f016132e3565b97508060a08e013511156134f657600080fd5b6135068e60a08f01358f016132e3565b96508060c08e0135111561351957600080fd5b6135298e60c08f01358f016132e3565b95508060e08e0135111561353c57600080fd5b61354c8e60e08f01358f016132e3565b9450806101008e0135111561356057600080fd5b506135728d6101008e01358e016132e3565b92506101208c013591506101408c013590509295989b509295989b9093969950565b600080604083850312156135a757600080fd5b82356001600160401b03808211156135be57600080fd5b818501915085601f8301126135d257600080fd5b813560206135df8261324f565b6040516135ec8282613223565b83815260059390931b850182019282810191508984111561360c57600080fd5b948201945b838610156136315761362286612eac565b82529482019490820190613611565b9650508601359250508082111561364757600080fd5b5061365485828601613272565b9150509250929050565b600081518084526020808501945080840160005b8381101561368e57815187529582019590820190600101613672565b509495945050505050565b602081526000612ddd602083018461365e565b6000806000606084860312156136c157600080fd5b6136ca84612eac565b925060208401356001600160401b03808211156136e657600080fd5b6136f287838801613272565b9350604086013591508082111561370857600080fd5b5061371586828701613272565b9150509250925092565b6000806000806000806000806000806101408b8d03121561373f57600080fd5b8a356001600160401b038082111561375657600080fd5b6137628e838f016132e3565b9b5060208d013591508082111561377857600080fd5b6137848e838f016132e3565b9a5060408d013591508082111561379a57600080fd5b6137a68e838f016132e3565b995060608d01359150808211156137bc57600080fd5b6137c88e838f016132e3565b985060808d01359150808211156137de57600080fd5b6137ea8e838f016132e3565b975060a08d013591508082111561380057600080fd5b61380c8e838f016132e3565b965060c08d013591508082111561382257600080fd5b61382e8e838f016132e3565b955060e08d013591508082111561384457600080fd5b506138518d828e016132e3565b9350506101008b013591506101208b013590509295989b9194979a5092959850565b6020808252825182820181905260009190848201906040850190845b818110156138b6576138a2838551613124565b92840192610160929092019160010161388f565b50909695505050505050565b600080604083850312156138d557600080fd5b6138de83612eac565b9150602083013580151581146138f357600080fd5b809150509250929050565b6000806040838503121561391157600080fd5b61391a83612eac565b915061342260208401612eac565b600080600080600060a0868803121561394057600080fd5b61394986612eac565b945061395760208701612eac565b9350604086013592506060860135915060808601356001600160401b0381111561398057600080fd5b6133f2888289016132e3565b6000806000606084860312156139a157600080fd5b6139aa84612eac565b95602085013595506040909401359392505050565b600181811c908216806139d357607f821691505b6020821081036139f357634e487b7160e01b600052602260045260246000fd5b50919050565b602080825260149082015273135bdd9a5948191bd95cc81b9bdd08195e1a5cdd60621b604082015260600190565b634e487b7160e01b600052601160045260246000fd5b600060018201613a4f57613a4f613a27565b5060010190565b634e487b7160e01b600052603260045260246000fd5b6020808252602e908201527f455243313135353a2063616c6c6572206973206e6f7420746f6b656e206f776e60408201526d195c881bdc88185c1c1c9bdd995960921b606082015260800190565b601f8211156113ef57600081815260208120601f850160051c81016020861015613ae15750805b601f850160051c820191505b8181101561238357828155600101613aed565b81516001600160401b03811115613b1957613b1961320d565b613b2d81613b2784546139bf565b84613aba565b602080601f831160018114613b625760008415613b4a5750858301515b600019600386901b1c1916600185901b178555612383565b600085815260208120601f198616915b82811015613b9157888601518255948401946001909101908401613b72565b5085821015613baf5787850151600019600388901b60f8161c191681555b5050505050600190811b01905550565b8082018082111561058757610587613a27565b60208082526028908201527f455243313135353a2069647320616e6420616d6f756e7473206c656e677468206040820152670dad2e6dac2e8c6d60c31b606082015260800190565b60208082526025908201527f455243313135353a207472616e7366657220746f20746865207a65726f206164604082015264647265737360d81b606082015260800190565b6020808252602a908201527f455243313135353a20696e73756666696369656e742062616c616e636520666f60408201526939103a3930b739b332b960b11b606082015260800190565b604081526000613cbc604083018561365e565b8281036020840152613cce818561365e565b95945050505050565b60208082526023908201527f455243313135353a206275726e2066726f6d20746865207a65726f206164647260408201526265737360e81b606082015260800190565b60208082526024908201527f455243313135353a206275726e20616d6f756e7420657863656564732062616c604082015263616e636560e01b606082015260800190565b808202811582820484141761058757610587613a27565b6001600160a01b0386811682528516602082015260a060408201819052600090613da19083018661365e565b8281036060840152613db3818661365e565b90508281036080840152613dc78185612f7d565b98975050505050505050565b600060208284031215613de557600080fd5b8151612ddd81612ef2565b600060033d1115613e095760046000803e5060005160e01c5b90565b600060443d1015613e1a5790565b6040516003193d81016004833e81513d6001600160401b038160248401118184111715613e4957505050505090565b8285019150815181811115613e615750505050505090565b843d8701016020828501011115613e7b5750505050505090565b613e8a60208286010187613223565b509095945050505050565b60208082526028908201527f455243313135353a204552433131353552656365697665722072656a656374656040820152676420746f6b656e7360c01b606082015260800190565b7f416363657373436f6e74726f6c3a206163636f756e7420000000000000000000815260008351613f15816017850160208801612f59565b7001034b99036b4b9b9b4b733903937b6329607d1b6017918401918201528351613f46816028840160208801612f59565b01602801949350505050565b6001600160a01b03868116825285166020820152604081018490526060810183905260a060808201819052600090613f8c90830184612f7d565b979650505050505050565b600081613fa657613fa6613a27565b50600019019056fe84c0e6936832819e27761bd60cca25b2ef9a185b925c2c99a066a29a80d42f038b2c14fe955d044ef95ba32b88d2ceb87c6f73fcefdcebe906063a6d75690f27a2646970667358221220fe089d60e56ef1936a03432bf7ef969f106283c8ac1c48689c03c666f4b00a1364736f6c63430008130033",
  "linkReferences": {},
  "deployedLinkReferences": {}
}