{
  "_format": "hh-sol-artifact-1",
  "contractName": "DappTickets2",
  "sourceName": "contracts/DappTickets2.sol",
  "abi": [
    {
      "inputs": [
        {
          "internalType": "address",
          "name": "_dappCinemas",
          "type": "address"
        },
        {
          "internalType": "string",
          "name": "_name",
          "type": "string"
        },
        {
          "internalType": "string",
          "name": "_symbol",
          "type": "string"
        }
      ],
      "stateMutability": "nonpayable",
      "type": "constructor"
    },
    {
      "anonymous": false,
      "inputs": [
        {
          "indexed": false,
          "internalType": "string",
          "name": "actionType",
          "type": "string"
        }
      ],
      "name": "Action",
      "type": "event"
    },
    {
      "anonymous": false,
      "inputs": [
        {
          "indexed": true,
          "internalType": "address",
          "name": "account",
          "type": "address"
        },
        {
          "indexed": true,
          "internalType": "address",
          "name": "operator",
          "type": "address"
        },
        {
          "indexed": false,
          "internalType": "bool",
          "name": "approved",
          "type": "bool"
        }
      ],
      "name": "ApprovalForAll",
      "type": "event"
    },
    {
      "anonymous": false,
      "inputs": [
        {
          "indexed": true,
          "internalType": "address",
          "name": "previousOwner",
          "type": "address"
        },
        {
          "indexed": true,
          "internalType": "address",
          "name": "newOwner",
          "type": "address"
        }
      ],
      "name": "OwnershipTransferred",
      "type": "event"
    },
    {
      "anonymous": false,
      "inputs": [
        {
          "indexed": true,
          "internalType": "address",
          "name": "operator",
          "type": "address"
        },
        {
          "indexed": true,
          "internalType": "address",
          "name": "from",
          "type": "address"
        },
        {
          "indexed": true,
          "internalType": "address",
          "name": "to",
          "type": "address"
        },
        {
          "indexed": false,
          "internalType": "uint256[]",
          "name": "ids",
          "type": "uint256[]"
        },
        {
          "indexed": false,
          "internalType": "uint256[]",
          "name": "values",
          "type": "uint256[]"
        }
      ],
      "name": "TransferBatch",
      "type": "event"
    },
    {
      "anonymous": false,
      "inputs": [
        {
          "indexed": true,
          "internalType": "address",
          "name": "operator",
          "type": "address"
        },
        {
          "indexed": true,
          "internalType": "address",
          "name": "from",
          "type": "address"
        },
        {
          "indexed": true,
          "internalType": "address",
          "name": "to",
          "type": "address"
        },
        {
          "indexed": false,
          "internalType": "uint256",
          "name": "id",
          "type": "uint256"
        },
        {
          "indexed": false,
          "internalType": "uint256",
          "name": "value",
          "type": "uint256"
        }
      ],
      "name": "TransferSingle",
      "type": "event"
    },
    {
      "anonymous": false,
      "inputs": [
        {
          "indexed": false,
          "internalType": "string",
          "name": "value",
          "type": "string"
        },
        {
          "indexed": true,
          "internalType": "uint256",
          "name": "id",
          "type": "uint256"
        }
      ],
      "name": "URI",
      "type": "event"
    },
    {
      "inputs": [],
      "name": "balance",
      "outputs": [
        {
          "internalType": "uint256",
          "name": "",
          "type": "uint256"
        }
      ],
      "stateMutability": "view",
      "type": "function"
    },
    {
      "inputs": [
        {
          "internalType": "address",
          "name": "account",
          "type": "address"
        },
        {
          "internalType": "uint256",
          "name": "id",
          "type": "uint256"
        }
      ],
      "name": "balanceOf",
      "outputs": [
        {
          "internalType": "uint256",
          "name": "",
          "type": "uint256"
        }
      ],
      "stateMutability": "view",
      "type": "function"
    },
    {
      "inputs": [
        {
          "internalType": "address[]",
          "name": "accounts",
          "type": "address[]"
        },
        {
          "internalType": "uint256[]",
          "name": "ids",
          "type": "uint256[]"
        }
      ],
      "name": "balanceOfBatch",
      "outputs": [
        {
          "internalType": "uint256[]",
          "name": "",
          "type": "uint256[]"
        }
      ],
      "stateMutability": "view",
      "type": "function"
    },
    {
      "inputs": [
        {
          "internalType": "address",
          "name": "account",
          "type": "address"
        },
        {
          "internalType": "uint256",
          "name": "id",
          "type": "uint256"
        },
        {
          "internalType": "uint256",
          "name": "value",
          "type": "uint256"
        }
      ],
      "name": "burn",
      "outputs": [],
      "stateMutability": "nonpayable",
      "type": "function"
    },
    {
      "inputs": [
        {
          "internalType": "address",
          "name": "account",
          "type": "address"
        },
        {
          "internalType": "uint256[]",
          "name": "ids",
          "type": "uint256[]"
        },
        {
          "internalType": "uint256[]",
          "name": "values",
          "type": "uint256[]"
        }
      ],
      "name": "burnBatch",
      "outputs": [],
      "stateMutability": "nonpayable",
      "type": "function"
    },
    {
      "inputs": [
        {
          "internalType": "uint256",
          "name": "slotId",
          "type": "uint256"
        },
        {
          "internalType": "uint256",
          "name": "tickets",
          "type": "uint256"
        }
      ],
      "name": "buyTickets",
      "outputs": [],
      "stateMutability": "payable",
      "type": "function"
    },
    {
      "inputs": [
        {
          "internalType": "uint256",
          "name": "_slotId",
          "type": "uint256"
        }
      ],
      "name": "completeTickets",
      "outputs": [],
      "stateMutability": "nonpayable",
      "type": "function"
    },
    {
      "inputs": [
        {
          "internalType": "uint256",
          "name": "_slotId",
          "type": "uint256"
        }
      ],
      "name": "deleteTickets",
      "outputs": [],
      "stateMutability": "nonpayable",
      "type": "function"
    },
    {
      "inputs": [
        {
          "internalType": "uint256",
          "name": "slotId",
          "type": "uint256"
        }
      ],
      "name": "getTicketHolders",
      "outputs": [
        {
          "internalType": "address[]",
          "name": "Holders",
          "type": "address[]"
        }
      ],
      "stateMutability": "view",
      "type": "function"
    },
    {
      "inputs": [
        {
          "internalType": "address",
          "name": "account",
          "type": "address"
        },
        {
          "internalType": "address",
          "name": "operator",
          "type": "address"
        }
      ],
      "name": "isApprovedForAll",
      "outputs": [
        {
          "internalType": "bool",
          "name": "",
          "type": "bool"
        }
      ],
      "stateMutability": "view",
      "type": "function"
    },
    {
      "inputs": [],
      "name": "name",
      "outputs": [
        {
          "internalType": "string",
          "name": "",
          "type": "string"
        }
      ],
      "stateMutability": "view",
      "type": "function"
    },
    {
      "inputs": [],
      "name": "owner",
      "outputs": [
        {
          "internalType": "address",
          "name": "",
          "type": "address"
        }
      ],
      "stateMutability": "view",
      "type": "function"
    },
    {
      "inputs": [],
      "name": "renounceOwnership",
      "outputs": [],
      "stateMutability": "nonpayable",
      "type": "function"
    },
    {
      "inputs": [],
      "name": "retOwner",
      "outputs": [
        {
          "internalType": "address",
          "name": "",
          "type": "address"
        }
      ],
      "stateMutability": "view",
      "type": "function"
    },
    {
      "inputs": [
        {
          "internalType": "address",
          "name": "from",
          "type": "address"
        },
        {
          "internalType": "address",
          "name": "to",
          "type": "address"
        },
        {
          "internalType": "uint256[]",
          "name": "ids",
          "type": "uint256[]"
        },
        {
          "internalType": "uint256[]",
          "name": "amounts",
          "type": "uint256[]"
        },
        {
          "internalType": "bytes",
          "name": "data",
          "type": "bytes"
        }
      ],
      "name": "safeBatchTransferFrom",
      "outputs": [],
      "stateMutability": "nonpayable",
      "type": "function"
    },
    {
      "inputs": [
        {
          "internalType": "address",
          "name": "from",
          "type": "address"
        },
        {
          "internalType": "address",
          "name": "to",
          "type": "address"
        },
        {
          "internalType": "uint256",
          "name": "id",
          "type": "uint256"
        },
        {
          "internalType": "uint256",
          "name": "amount",
          "type": "uint256"
        },
        {
          "internalType": "bytes",
          "name": "data",
          "type": "bytes"
        }
      ],
      "name": "safeTransferFrom",
      "outputs": [],
      "stateMutability": "nonpayable",
      "type": "function"
    },
    {
      "inputs": [
        {
          "internalType": "address",
          "name": "operator",
          "type": "address"
        },
        {
          "internalType": "bool",
          "name": "approved",
          "type": "bool"
        }
      ],
      "name": "setApprovalForAll",
      "outputs": [],
      "stateMutability": "nonpayable",
      "type": "function"
    },
    {
      "inputs": [
        {
          "internalType": "bytes4",
          "name": "interfaceId",
          "type": "bytes4"
        }
      ],
      "name": "supportsInterface",
      "outputs": [
        {
          "internalType": "bool",
          "name": "",
          "type": "bool"
        }
      ],
      "stateMutability": "view",
      "type": "function"
    },
    {
      "inputs": [],
      "name": "symbol",
      "outputs": [
        {
          "internalType": "string",
          "name": "",
          "type": "string"
        }
      ],
      "stateMutability": "view",
      "type": "function"
    },
    {
      "inputs": [
        {
          "internalType": "uint256",
          "name": "",
          "type": "uint256"
        }
      ],
      "name": "ticketBuild",
      "outputs": [
        {
          "internalType": "string",
          "name": "name",
          "type": "string"
        },
        {
          "internalType": "string",
          "name": "description",
          "type": "string"
        },
        {
          "internalType": "string",
          "name": "bgHue",
          "type": "string"
        },
        {
          "internalType": "string",
          "name": "textHue",
          "type": "string"
        },
        {
          "internalType": "string",
          "name": "value",
          "type": "string"
        },
        {
          "components": [
            {
              "internalType": "uint256",
              "name": "id",
              "type": "uint256"
            },
            {
              "internalType": "uint256",
              "name": "movieId",
              "type": "uint256"
            },
            {
              "internalType": "uint256",
              "name": "slotId",
              "type": "uint256"
            },
            {
              "internalType": "address",
              "name": "owner",
              "type": "address"
            },
            {
              "internalType": "uint256",
              "name": "cost",
              "type": "uint256"
            },
            {
              "internalType": "uint256",
              "name": "timestamp",
              "type": "uint256"
            },
            {
              "internalType": "uint256",
              "name": "day",
              "type": "uint256"
            },
            {
              "internalType": "bool",
              "name": "used",
              "type": "bool"
            },
            {
              "internalType": "bool",
              "name": "refunded",
              "type": "bool"
            }
          ],
          "internalType": "struct DappTickets2.TicketStruct",
          "name": "ticket",
          "type": "tuple"
        }
      ],
      "stateMutability": "view",
      "type": "function"
    },
    {
      "inputs": [
        {
          "internalType": "address",
          "name": "newOwner",
          "type": "address"
        }
      ],
      "name": "transferOwnership",
      "outputs": [],
      "stateMutability": "nonpayable",
      "type": "function"
    },
    {
      "inputs": [
        {
          "internalType": "uint256",
          "name": "tokenId",
          "type": "uint256"
        }
      ],
      "name": "uri",
      "outputs": [
        {
          "internalType": "string",
          "name": "",
          "type": "string"
        }
      ],
      "stateMutability": "view",
      "type": "function"
    },
    {
      "inputs": [
        {
          "internalType": "address",
          "name": "to",
          "type": "address"
        },
        {
          "internalType": "uint256",
          "name": "amount",
          "type": "uint256"
        }
      ],
      "name": "withdrawTo",
      "outputs": [],
      "stateMutability": "nonpayable",
      "type": "function"
    }
  ],
  "bytecode": "0x60806040523480156200001157600080fd5b50604051620046b3380380620046b38339810160408190526200003491620001c3565b6040805160208101909152600081526200004e336200009c565b6200005981620000ec565b50600580546001600160a01b0319166001600160a01b0385161790556007620000838382620002dc565b506008620000928282620002dc565b50505050620003a8565b600080546001600160a01b038381166001600160a01b0319831681178455604051919092169283917f8be0079c531659141344cd1fd0a4f28419497f9722a3daafe3b4186f6b6457e09190a35050565b6003620000fa8282620002dc565b5050565b634e487b7160e01b600052604160045260246000fd5b600082601f8301126200012657600080fd5b81516001600160401b0380821115620001435762000143620000fe565b604051601f8301601f19908116603f011681019082821181831017156200016e576200016e620000fe565b816040528381526020925086838588010111156200018b57600080fd5b600091505b83821015620001af578582018301518183018401529082019062000190565b600093810190920192909252949350505050565b600080600060608486031215620001d957600080fd5b83516001600160a01b0381168114620001f157600080fd5b60208501519093506001600160401b03808211156200020f57600080fd5b6200021d8783880162000114565b935060408601519150808211156200023457600080fd5b50620002438682870162000114565b9150509250925092565b600181811c908216806200026257607f821691505b6020821081036200028357634e487b7160e01b600052602260045260246000fd5b50919050565b601f821115620002d757600081815260208120601f850160051c81016020861015620002b25750805b601f850160051c820191505b81811015620002d357828155600101620002be565b5050505b505050565b81516001600160401b03811115620002f857620002f8620000fe565b62000310816200030984546200024d565b8462000289565b602080601f8311600181146200034857600084156200032f5750858301515b600019600386901b1c1916600185901b178555620002d3565b600085815260208120601f198616915b82811015620003795788860151825594840194600190910190840162000358565b5085821015620003985787850151600019600388901b60f8161c191681555b5050505050600190811b01905550565b6142fb80620003b86000396000f3fe60806040526004361061013e5760003560e01c80636b20c454116100b6578063a70b725e1161006f578063a70b725e146103a2578063b69ef8a8146103c2578063e985e9c5146103d8578063f242432a14610421578063f2fde38b14610441578063f5298aca1461046157600080fd5b80636b20c45414610307578063715018a6146103275780638627df461461033c5780638da5cb5b1461034f57806395d89b411461036d578063a22cb4651461038257600080fd5b80631eb13ac1116101085780631eb13ac114610219578063205c28781461024657806322c79ffb146102685780632eb2c2d61461028857806340b882cf146102a85780634e1273f4146102da57600080fd5b80622a5cc914610143578062fdd58e1461017957806301ffc9a7146101a757806306fdde03146101d75780630e89341c146101f9575b600080fd5b34801561014f57600080fd5b5061016361015e3660046130c6565b610481565b60405161017091906130df565b60405180910390f35b34801561018557600080fd5b50610199610194366004613148565b6105ef565b604051908152602001610170565b3480156101b357600080fd5b506101c76101c2366004613188565b61068a565b6040519015158152602001610170565b3480156101e357600080fd5b506101ec6106da565b60405161017091906131f5565b34801561020557600080fd5b506101ec6102143660046130c6565b610768565b34801561022557600080fd5b5061022e610773565b6040516001600160a01b039091168152602001610170565b34801561025257600080fd5b50610266610261366004613148565b61078e565b005b34801561027457600080fd5b506102666102833660046130c6565b610802565b34801561029457600080fd5b506102666102a336600461337a565b6108cb565b3480156102b457600080fd5b506102c86102c33660046130c6565b610917565b60405161017096959493929190613423565b3480156102e657600080fd5b506102fa6102f536600461350a565b610c68565b604051610170919061360f565b34801561031357600080fd5b50610266610322366004613622565b610d91565b34801561033357600080fd5b50610266610dd9565b61026661034a366004613695565b610ded565b34801561035b57600080fd5b506000546001600160a01b031661022e565b34801561037957600080fd5b506101ec6113bc565b34801561038e57600080fd5b5061026661039d3660046136c5565b6113c9565b3480156103ae57600080fd5b506102666103bd3660046130c6565b6113d4565b3480156103ce57600080fd5b5061019960065481565b3480156103e457600080fd5b506101c76103f33660046136fc565b6001600160a01b03918216600090815260026020908152604080832093909416825291909152205460ff1690565b34801561042d57600080fd5b5061026661043c36600461372f565b611495565b34801561044d57600080fd5b5061026661045c366004613793565b6114da565b34801561046d57600080fd5b5061026661047c3660046137ae565b611553565b6060600060015b60045481116104ed576000818152600a6020526040902060070154841480156104c857506000818152600a60205260409020600c0154610100900460ff16155b156104db57816104d7816137f7565b9250505b806104e5816137f7565b915050610488565b50806001600160401b0381111561050657610506613208565b60405190808252806020026020018201604052801561052f578160200160208202803683370190505b509150600060015b60045481116105e7576000818152600a60205260409020600701548514801561057757506000818152600a60205260409020600c0154610100900460ff16155b156105d5576000818152600a60205260409020600801546001600160a01b031684836105a2816137f7565b9450815181106105b4576105b4613810565b60200260200101906001600160a01b031690816001600160a01b0316815250505b806105df816137f7565b915050610537565b505050919050565b60006001600160a01b03831661065f5760405162461bcd60e51b815260206004820152602a60248201527f455243313135353a2061646472657373207a65726f206973206e6f742061207660448201526930b634b21037bbb732b960b11b60648201526084015b60405180910390fd5b5060008181526001602090815260408083206001600160a01b03861684529091529020545b92915050565b60006001600160e01b03198216636cdb3d1360e11b14806106bb57506001600160e01b031982166303a24d0760e21b145b8061068457506301ffc9a760e01b6001600160e01b0319831614610684565b600780546106e790613826565b80601f016020809104026020016040519081016040528092919081815260200182805461071390613826565b80156107605780601f1061073557610100808354040283529160200191610760565b820191906000526020600020905b81548152906001019060200180831161074357829003601f168201915b505050505081565b606061068482611596565b600061077d611984565b506000546001600160a01b03165b90565b610796611984565b8060065410156107dc5760405162461bcd60e51b8152602060048201526011602482015270125b9cdd59999a58da595b9d08199d5b99607a1b6044820152606401610656565b80600660008282546107ee9190613860565b909155506107fe905082826119de565b5050565b61080a611984565b60055460405163b6da3f0960e01b8152600481018390526001600160a01b039091169063b6da3f0990602401600060405180830381600087803b15801561085057600080fd5b505af1158015610864573d6000803e3d6000fd5b5050505061087181611a3e565b7f8b2c14fe955d044ef95ba32b88d2ceb87c6f73fcefdcebe906063a6d75690f276040516108c0906020808252600d908201526c151a58dad95d1cc8189d5c9b9d609a1b604082015260600190565b60405180910390a150565b6001600160a01b0385163314806108e757506108e785336103f3565b6109035760405162461bcd60e51b815260040161065690613873565b6109108585858585611b82565b5050505050565b600a6020526000908152604090208054819061093290613826565b80601f016020809104026020016040519081016040528092919081815260200182805461095e90613826565b80156109ab5780601f10610980576101008083540402835291602001916109ab565b820191906000526020600020905b81548152906001019060200180831161098e57829003601f168201915b5050505050908060010180546109c090613826565b80601f01602080910402602001604051908101604052809291908181526020018280546109ec90613826565b8015610a395780601f10610a0e57610100808354040283529160200191610a39565b820191906000526020600020905b815481529060010190602001808311610a1c57829003601f168201915b505050505090806002018054610a4e90613826565b80601f0160208091040260200160405190810160405280929190818152602001828054610a7a90613826565b8015610ac75780601f10610a9c57610100808354040283529160200191610ac7565b820191906000526020600020905b815481529060010190602001808311610aaa57829003601f168201915b505050505090806003018054610adc90613826565b80601f0160208091040260200160405190810160405280929190818152602001828054610b0890613826565b8015610b555780601f10610b2a57610100808354040283529160200191610b55565b820191906000526020600020905b815481529060010190602001808311610b3857829003601f168201915b505050505090806004018054610b6a90613826565b80601f0160208091040260200160405190810160405280929190818152602001828054610b9690613826565b8015610be35780601f10610bb857610100808354040283529160200191610be3565b820191906000526020600020905b815481529060010190602001808311610bc657829003601f168201915b50506040805161012081018252600587015481526006870154602082015260078701549181019190915260088601546001600160a01b0316606082015260098601546080820152600a86015460a0820152600b86015460c0820152600c9095015460ff808216151560e088015261010091829004161515908601525091929150879050565b60608151835114610ccd5760405162461bcd60e51b815260206004820152602960248201527f455243313135353a206163636f756e747320616e6420696473206c656e677468604482015268040dad2e6dac2e8c6d60bb1b6064820152608401610656565b600083516001600160401b03811115610ce857610ce8613208565b604051908082528060200260200182016040528015610d11578160200160208202803683370190505b50905060005b8451811015610d8957610d5c858281518110610d3557610d35613810565b6020026020010151858381518110610d4f57610d4f613810565b60200260200101516105ef565b828281518110610d6e57610d6e613810565b6020908102919091010152610d82816137f7565b9050610d17565b509392505050565b6001600160a01b038316331480610dad5750610dad83336103f3565b610dc95760405162461bcd60e51b815260040161065690613873565b610dd4838383611d21565b505050565b610de1611984565b610deb6000611eaf565b565b60055460405163358cc11560e21b81526004810184905282916001600160a01b03169063d63304549060240161016060405180830381865afa158015610e37573d6000803e3d6000fd5b505050506040513d601f19601f82011682018060405250810190610e5b91906138cc565b60400151610e699190613969565b341015610eae5760405162461bcd60e51b8152602060048201526013602482015272125b9cdd59999a58da595b9d08185b5bdd5b9d606a1b6044820152606401610656565b60055460405163358cc11560e21b8152600481018490526001600160a01b039091169063d63304549060240161016060405180830381865afa158015610ef8573d6000803e3d6000fd5b505050506040513d601f19601f82011682018060405250810190610f1c91906138cc565b60c0015160055460405163358cc11560e21b8152600481018590526001600160a01b039091169063d63304549060240161016060405180830381865afa158015610f6a573d6000803e3d6000fd5b505050506040513d601f19601f82011682018060405250810190610f8e91906138cc565b60a0015111610fd15760405162461bcd60e51b815260206004820152600f60248201526e4f7574206f6620636170616369747960881b6044820152606401610656565b60005b8181101561123357610fea600480546001019055565b61104660405180610120016040528060008152602001600081526020016000815260200160006001600160a01b031681526020016000815260200160008152602001600081526020016000151581526020016000151581525090565b600454815260055460405163358cc11560e21b8152600481018690526001600160a01b039091169063d63304549060240161016060405180830381865afa158015611095573d6000803e3d6000fd5b505050506040513d601f19601f820116820180604052508101906110b991906138cc565b6040908101516080830152600554905163358cc11560e21b8152600481018690526001600160a01b039091169063d63304549060240161016060405180830381865afa15801561110d573d6000803e3d6000fd5b505050506040513d601f19601f8201168201806040525081019061113191906138cc565b610120015160c082015260408101849052336060820152611150611eff565b60a0820190815281516000908152600a602081815260408084208651600582015582870151600682015581870151600782015560608701516008820180546001600160a01b039092166001600160a01b03199283161790556080880151600983015595519381019390935560c0860151600b8085019190915560e0870151600c909401805461010098890151151590980261ff00199515159590951661ffff19909816979097179390931790955587835290815292812080546001810182559082529290209091018054909116331790558061122b816137f7565b915050610fd4565b5060055460405163358cc11560e21b81526004810184905282916001600160a01b03169063d63304549060240161016060405180830381865afa15801561127e573d6000803e3d6000fd5b505050506040513d601f19601f820116820180604052508101906112a291906138cc565b60c0018181516112b29190613980565b90525060055460405163358cc11560e21b81526004810184905282916001600160a01b03169063d63304549060240161016060405180830381865afa1580156112ff573d6000803e3d6000fd5b505050506040513d601f19601f8201168201806040525081019061132391906138cc565b604001516113319190613969565b60055460405163358cc11560e21b8152600481018590526001600160a01b039091169063d63304549060240161016060405180830381865afa15801561137b573d6000803e3d6000fd5b505050506040513d601f19601f8201168201806040525081019061139f91906138cc565b610140018181516113b09190613980565b9052506107fe81611f1a565b600880546106e790613826565b6107fe338383612186565b6113dc611984565b600554604051633b6559c160e01b8152600481018390526001600160a01b0390911690633b6559c190602401600060405180830381600087803b15801561142257600080fd5b505af1158015611436573d6000803e3d6000fd5b5050505061144381612266565b7f8b2c14fe955d044ef95ba32b88d2ceb87c6f73fcefdcebe906063a6d75690f276040516108c09060208082526010908201526f151a58dad95d1cc81c99599d5b99195960821b604082015260600190565b6001600160a01b0385163314806114b157506114b185336103f3565b6114cd5760405162461bcd60e51b815260040161065690613873565b61091085858585856123c1565b6114e2611984565b6001600160a01b0381166115475760405162461bcd60e51b815260206004820152602660248201527f4f776e61626c653a206e6577206f776e657220697320746865207a65726f206160448201526564647265737360d01b6064820152608401610656565b61155081611eaf565b50565b6001600160a01b03831633148061156f575061156f83336103f3565b61158b5760405162461bcd60e51b815260040161065690613873565b610dd48383836124ef565b60606000600a60008481526020019081526020016000206040518060c00160405290816000820180546115c890613826565b80601f01602080910402602001604051908101604052809291908181526020018280546115f490613826565b80156116415780601f1061161657610100808354040283529160200191611641565b820191906000526020600020905b81548152906001019060200180831161162457829003601f168201915b5050505050815260200160018201805461165a90613826565b80601f016020809104026020016040519081016040528092919081815260200182805461168690613826565b80156116d35780601f106116a8576101008083540402835291602001916116d3565b820191906000526020600020905b8154815290600101906020018083116116b657829003601f168201915b505050505081526020016002820180546116ec90613826565b80601f016020809104026020016040519081016040528092919081815260200182805461171890613826565b80156117655780601f1061173a57610100808354040283529160200191611765565b820191906000526020600020905b81548152906001019060200180831161174857829003601f168201915b5050505050815260200160038201805461177e90613826565b80601f01602080910402602001604051908101604052809291908181526020018280546117aa90613826565b80156117f75780601f106117cc576101008083540402835291602001916117f7565b820191906000526020600020905b8154815290600101906020018083116117da57829003601f168201915b5050505050815260200160048201805461181090613826565b80601f016020809104026020016040519081016040528092919081815260200182805461183c90613826565b80156118895780601f1061185e57610100808354040283529160200191611889565b820191906000526020600020905b81548152906001019060200180831161186c57829003601f168201915b5050509183525050604080516101208101825260058401548152600684015460208281019190915260078501549282019290925260088401546001600160a01b0316606082015260098401546080820152600a84015460a0820152600b84015460c0820152600c9093015460ff808216151560e086015261010091829004161515908401529081019190915281519082015191925061195d9161192b866125fb565b846040015185606001516040516020016119499594939291906139af565b6040516020818303038152906040526129a7565b60405160200161196d9190613b2b565b604051602081830303815290604052915050919050565b6000546001600160a01b03163314610deb5760405162461bcd60e51b815260206004820181905260248201527f4f776e61626c653a2063616c6c6572206973206e6f7420746865206f776e65726044820152606401610656565b6000826001600160a01b03168260405160006040518083038185875af1925050503d8060008114611a2b576040519150601f19603f3d011682016040523d82523d6000602084013e611a30565b606091505b5050905080610dd457600080fd5b611a46611984565b60055460405163358cc11560e21b81526004810183905282916001600160a01b03169063d63304549060240161016060405180830381865afa158015611a90573d6000803e3d6000fd5b505050506040513d601f19601f82011682018060405250810190611ab491906138cc565b5114611af35760405162461bcd60e51b815260206004820152600e60248201526d14db1bdd081b9bdd08199bdd5b9960921b6044820152606401610656565b60015b60045481116107fe576000818152600a602052604090206005015481148015611b3157506000818152600a60205260409020600c015460ff16155b15611b70576000818152600a60205260408120600c8101805460ff19166001179055600901546006805491929091611b6a908490613980565b90915550505b80611b7a816137f7565b915050611af6565b8151835114611ba35760405162461bcd60e51b815260040161065690613b70565b6001600160a01b038416611bc95760405162461bcd60e51b815260040161065690613bb8565b3360005b8451811015611cb3576000858281518110611bea57611bea613810565b602002602001015190506000858381518110611c0857611c08613810565b60209081029190910181015160008481526001835260408082206001600160a01b038e168352909352919091205490915081811015611c595760405162461bcd60e51b815260040161065690613bfd565b60008381526001602090815260408083206001600160a01b038e8116855292528083208585039055908b16825281208054849290611c98908490613980565b9250508190555050505080611cac906137f7565b9050611bcd565b50846001600160a01b0316866001600160a01b0316826001600160a01b03167f4a39dc06d4c0dbc64b70af90fd698a233a518aa5d07e595d983b8c0526c8f7fb8787604051611d03929190613c47565b60405180910390a4611d19818787878787612b0d565b505050505050565b6001600160a01b038316611d475760405162461bcd60e51b815260040161065690613c6c565b8051825114611d685760405162461bcd60e51b815260040161065690613b70565b604080516020810190915260009081905233905b8351811015611e41576000848281518110611d9957611d99613810565b602002602001015190506000848381518110611db757611db7613810565b60209081029190910181015160008481526001835260408082206001600160a01b038c168352909352919091205490915081811015611e085760405162461bcd60e51b815260040161065690613caf565b60009283526001602090815260408085206001600160a01b038b1686529091529092209103905580611e39816137f7565b915050611d7c565b5060006001600160a01b0316846001600160a01b0316826001600160a01b03167f4a39dc06d4c0dbc64b70af90fd698a233a518aa5d07e595d983b8c0526c8f7fb8686604051611e92929190613c47565b60405180910390a460408051602081019091526000905250505050565b600080546001600160a01b038381166001600160a01b0319831681178455604051919092169283917f8be0079c531659141344cd1fd0a4f28419497f9722a3daafe3b4186f6b6457e09190a35050565b600080611f0e426103e8613969565b610684906103e8613980565b6000816001600160401b03811115611f3457611f34613208565b604051908082528060200260200182016040528015611f5d578160200160208202803683370190505b5090506000826001600160401b03811115611f7a57611f7a613208565b604051908082528060200260200182016040528015611fa3578160200160208202803683370190505b509050600083611fb260045490565b611fbc9190613860565b905060005b848110156121535781611fd3816137f7565b9250506000611fe183612c68565b90506000600882604051602001611ff9929190613cf3565b60408051601f198184030181526060830190915260318083529092506000919061425560208301396000868152600a6020526040902090915061203c8382613dce565b506000858152600a602052604090206001016120588282613dce565b5061207561207061016961206a611eff565b88612cfa565b612c68565b6000868152600a60205260409020600201906120919082613dce565b506120a26120706101694288612cfa565b6000868152600a60205260409020600301906120be9082613dce565b506000858152600a602052604090206004016120da8382613dce565b506120e485610768565b6000868152600960205260409020906120fd9082613dce565b508487858151811061211157612111613810565b602002602001018181525050600186858151811061213157612131613810565b602002602001018181525050505050808061214b906137f7565b915050611fc1565b5060008383604051602001612169929190613eb2565b604051602081830303815290604052905061091033858584612d62565b816001600160a01b0316836001600160a01b0316036121f95760405162461bcd60e51b815260206004820152602960248201527f455243313135353a2073657474696e6720617070726f76616c20737461747573604482015268103337b91039b2b63360b91b6064820152608401610656565b6001600160a01b03838116600081815260026020908152604080832094871680845294825291829020805460ff191686151590811790915591519182527f17307eab39ab6107e8899845ad3d59bd9653f200f220920489ca2b5937696c31910160405180910390a3505050565b61226e611984565b60055460405163358cc11560e21b81526004810183905282916001600160a01b03169063d63304549060240161016060405180830381865afa1580156122b8573d6000803e3d6000fd5b505050506040513d601f19601f820116820180604052508101906122dc91906138cc565b511461231b5760405162461bcd60e51b815260206004820152600e60248201526d14db1bdd081b9bdd08199bdd5b9960921b6044820152606401610656565b60015b60045481116107fe576000818152600a60205260409020600581015460098201546008909201549091906001600160a01b0316828414801561237257506000848152600a60205260409020600c015460ff16155b156123ab576000848152600a60205260409020600c01805461ff00191661010017905561239f81836119de565b6123ab818460016124ef565b50505080806123b9906137f7565b91505061231e565b6001600160a01b0384166123e75760405162461bcd60e51b815260040161065690613bb8565b3360006123f385612ee8565b9050600061240085612ee8565b905060008681526001602090815260408083206001600160a01b038c168452909152902054858110156124455760405162461bcd60e51b815260040161065690613bfd565b60008781526001602090815260408083206001600160a01b038d8116855292528083208985039055908a16825281208054889290612484908490613980565b909155505060408051888152602081018890526001600160a01b03808b16928c821692918816917fc3d58168c5ae7397731d063d5bbf3d657854427343f4c083240f7aacaa2d0f62910160405180910390a46124e4848a8a8a8a8a612f33565b505050505050505050565b6001600160a01b0383166125155760405162461bcd60e51b815260040161065690613c6c565b33600061252184612ee8565b9050600061252e84612ee8565b6040805160208082018352600091829052888252600181528282206001600160a01b038b168352905220549091508481101561257c5760405162461bcd60e51b815260040161065690613caf565b60008681526001602090815260408083206001600160a01b038b81168086529184528285208a8703905582518b81529384018a90529092908816917fc3d58168c5ae7397731d063d5bbf3d657854427343f4c083240f7aacaa2d0f62910160405180910390a46040805160208101909152600090525b50505050505050565b60606000600a60008481526020019081526020016000206040518060c001604052908160008201805461262d90613826565b80601f016020809104026020016040519081016040528092919081815260200182805461265990613826565b80156126a65780601f1061267b576101008083540402835291602001916126a6565b820191906000526020600020905b81548152906001019060200180831161268957829003601f168201915b505050505081526020016001820180546126bf90613826565b80601f01602080910402602001604051908101604052809291908181526020018280546126eb90613826565b80156127385780601f1061270d57610100808354040283529160200191612738565b820191906000526020600020905b81548152906001019060200180831161271b57829003601f168201915b5050505050815260200160028201805461275190613826565b80601f016020809104026020016040519081016040528092919081815260200182805461277d90613826565b80156127ca5780601f1061279f576101008083540402835291602001916127ca565b820191906000526020600020905b8154815290600101906020018083116127ad57829003601f168201915b505050505081526020016003820180546127e390613826565b80601f016020809104026020016040519081016040528092919081815260200182805461280f90613826565b801561285c5780601f106128315761010080835404028352916020019161285c565b820191906000526020600020905b81548152906001019060200180831161283f57829003601f168201915b5050505050815260200160048201805461287590613826565b80601f01602080910402602001604051908101604052809291908181526020018280546128a190613826565b80156128ee5780601f106128c3576101008083540402835291602001916128ee565b820191906000526020600020905b8154815290600101906020018083116128d157829003601f168201915b5050509183525050604080516101208101825260058401548152600684015460208281019190915260078501548284015260088501546001600160a01b03166060808401919091526009860154608080850191909152600a87015460a0850152600b87015460c0850152600c9096015460ff808216151560e086015261010091829004161515908401529381019190915284820151928501519385015191519495506129a09461194994929101613ecf565b9392505050565b606081516000036129c657505060408051602081019091526000815290565b600060405180606001604052806040815260200161428660409139905060006003845160026129f59190613980565b6129ff919061408b565b612a0a906004613969565b90506000612a19826020613980565b6001600160401b03811115612a3057612a30613208565b6040519080825280601f01601f191660200182016040528015612a5a576020820181803683370190505b509050818152600183018586518101602084015b81831015612ac85760039283018051603f601282901c811687015160f890811b8552600c83901c8216880151811b6001860152600683901c8216880151811b60028601529116860151901b93820193909352600401612a6e565b600389510660018114612ae25760028114612af357612aff565b613d3d60f01b600119830152612aff565b603d60f81b6000198301525b509398975050505050505050565b6001600160a01b0384163b15611d195760405163bc197c8160e01b81526001600160a01b0385169063bc197c8190612b51908990899088908890889060040161409f565b6020604051808303816000875af1925050508015612b8c575060408051601f3d908101601f19168201909252612b89918101906140fd565b60015b612c3857612b9861411a565b806308c379a003612bd15750612bac614135565b80612bb75750612bd3565b8060405162461bcd60e51b815260040161065691906131f5565b505b60405162461bcd60e51b815260206004820152603460248201527f455243313135353a207472616e7366657220746f206e6f6e2d455243313135356044820152732932b1b2b4bb32b91034b6b83632b6b2b73a32b960611b6064820152608401610656565b6001600160e01b0319811663bc197c8160e01b146125f25760405162461bcd60e51b8152600401610656906141be565b60606000612c7583612fee565b60010190506000816001600160401b03811115612c9457612c94613208565b6040519080825280601f01601f191660200182016040528015612cbe576020820181803683370190505b5090508181016020015b600019016f181899199a1a9b1b9c1cb0b131b232b360811b600a86061a8153600a8504945084612cc857509392505050565b604080514260208201526bffffffffffffffffffffffff193360601b16918101919091526054810183905260748101829052600090819085906094016040516020818303038152906040528051906020012060001c612d599190614206565b95945050505050565b6001600160a01b038416612dc25760405162461bcd60e51b815260206004820152602160248201527f455243313135353a206d696e7420746f20746865207a65726f206164647265736044820152607360f81b6064820152608401610656565b8151835114612de35760405162461bcd60e51b815260040161065690613b70565b3360005b8451811015612e8057838181518110612e0257612e02613810565b602002602001015160016000878481518110612e2057612e20613810565b602002602001015181526020019081526020016000206000886001600160a01b03166001600160a01b031681526020019081526020016000206000828254612e689190613980565b90915550819050612e78816137f7565b915050612de7565b50846001600160a01b031660006001600160a01b0316826001600160a01b03167f4a39dc06d4c0dbc64b70af90fd698a233a518aa5d07e595d983b8c0526c8f7fb8787604051612ed1929190613c47565b60405180910390a461091081600087878787612b0d565b60408051600180825281830190925260609160009190602080830190803683370190505090508281600081518110612f2257612f22613810565b602090810291909101015292915050565b6001600160a01b0384163b15611d195760405163f23a6e6160e01b81526001600160a01b0385169063f23a6e6190612f77908990899088908890889060040161421a565b6020604051808303816000875af1925050508015612fb2575060408051601f3d908101601f19168201909252612faf918101906140fd565b60015b612fbe57612b9861411a565b6001600160e01b0319811663f23a6e6160e01b146125f25760405162461bcd60e51b8152600401610656906141be565b60008072184f03e93ff9f4daa797ed6e38ed64bf6a1f0160401b831061302d5772184f03e93ff9f4daa797ed6e38ed64bf6a1f0160401b830492506040015b6d04ee2d6d415b85acef81000000008310613059576d04ee2d6d415b85acef8100000000830492506020015b662386f26fc10000831061307757662386f26fc10000830492506010015b6305f5e100831061308f576305f5e100830492506008015b61271083106130a357612710830492506004015b606483106130b5576064830492506002015b600a83106106845760010192915050565b6000602082840312156130d857600080fd5b5035919050565b6020808252825182820181905260009190848201906040850190845b818110156131205783516001600160a01b0316835292840192918401916001016130fb565b50909695505050505050565b80356001600160a01b038116811461314357600080fd5b919050565b6000806040838503121561315b57600080fd5b6131648361312c565b946020939093013593505050565b6001600160e01b03198116811461155057600080fd5b60006020828403121561319a57600080fd5b81356129a081613172565b60005b838110156131c05781810151838201526020016131a8565b50506000910152565b600081518084526131e18160208601602086016131a5565b601f01601f19169290920160200192915050565b6020815260006129a060208301846131c9565b634e487b7160e01b600052604160045260246000fd5b601f8201601f191681016001600160401b038111828210171561324357613243613208565b6040525050565b60405161016081016001600160401b038111828210171561326d5761326d613208565b60405290565b60006001600160401b0382111561328c5761328c613208565b5060051b60200190565b600082601f8301126132a757600080fd5b813560206132b482613273565b6040516132c1828261321e565b83815260059390931b85018201928281019150868411156132e157600080fd5b8286015b848110156132fc57803583529183019183016132e5565b509695505050505050565b600082601f83011261331857600080fd5b81356001600160401b0381111561333157613331613208565b604051613348601f8301601f19166020018261321e565b81815284602083860101111561335d57600080fd5b816020850160208301376000918101602001919091529392505050565b600080600080600060a0868803121561339257600080fd5b61339b8661312c565b94506133a96020870161312c565b935060408601356001600160401b03808211156133c557600080fd5b6133d189838a01613296565b945060608801359150808211156133e757600080fd5b6133f389838a01613296565b9350608088013591508082111561340957600080fd5b5061341688828901613307565b9150509295509295909350565b60006101c08083526134378184018a6131c9565b9050828103602084015261344b81896131c9565b9050828103604084015261345f81886131c9565b9050828103606084015261347381876131c9565b9050828103608084015261348781866131c9565b915050825160a0830152602083015160c0830152604083015160e0830152606083015161010060018060a01b03821681850152608085015161012085015260a085015161014085015260c085015161016085015260e08501511515610180850152808501519150506134fe6101a084018215159052565b50979650505050505050565b6000806040838503121561351d57600080fd5b82356001600160401b038082111561353457600080fd5b818501915085601f83011261354857600080fd5b8135602061355582613273565b604051613562828261321e565b83815260059390931b850182019282810191508984111561358257600080fd5b948201945b838610156135a7576135988661312c565b82529482019490820190613587565b965050860135925050808211156135bd57600080fd5b506135ca85828601613296565b9150509250929050565b600081518084526020808501945080840160005b83811015613604578151875295820195908201906001016135e8565b509495945050505050565b6020815260006129a060208301846135d4565b60008060006060848603121561363757600080fd5b6136408461312c565b925060208401356001600160401b038082111561365c57600080fd5b61366887838801613296565b9350604086013591508082111561367e57600080fd5b5061368b86828701613296565b9150509250925092565b600080604083850312156136a857600080fd5b50508035926020909101359150565b801515811461155057600080fd5b600080604083850312156136d857600080fd5b6136e18361312c565b915060208301356136f1816136b7565b809150509250929050565b6000806040838503121561370f57600080fd5b6137188361312c565b91506137266020840161312c565b90509250929050565b600080600080600060a0868803121561374757600080fd5b6137508661312c565b945061375e6020870161312c565b9350604086013592506060860135915060808601356001600160401b0381111561378757600080fd5b61341688828901613307565b6000602082840312156137a557600080fd5b6129a08261312c565b6000806000606084860312156137c357600080fd5b6137cc8461312c565b95602085013595506040909401359392505050565b634e487b7160e01b600052601160045260246000fd5b600060018201613809576138096137e1565b5060010190565b634e487b7160e01b600052603260045260246000fd5b600181811c9082168061383a57607f821691505b60208210810361385a57634e487b7160e01b600052602260045260246000fd5b50919050565b81810381811115610684576106846137e1565b6020808252602e908201527f455243313135353a2063616c6c6572206973206e6f7420746f6b656e206f776e60408201526d195c881bdc88185c1c1c9bdd995960921b606082015260800190565b8051613143816136b7565b600061016082840312156138df57600080fd5b6138e761324a565b825181526020830151602082015260408301516040820152606083015160608201526080830151608082015260a083015160a082015260c083015160c082015261393360e084016138c1565b60e08201526101006139468185016138c1565b908201526101208381015190820152610140928301519281019290925250919050565b8082028115828204841417610684576106846137e1565b80820180821115610684576106846137e1565b600081516139a58185602086016131a5565b9290920192915050565b683d913730b6b2911d1160b91b815285516000906139d4816009850160208b016131a5565b71111610113232b9b1b934b83a34b7b7111d1160711b6009918401918201528651613a0681601b840160208b016131a5565b6c1116101134b6b0b3b2911d101160991b601b92909101918201527f646174613a696d6167652f7376672b786d6c3b6261736536342c00000000000060288201528551613a5a816042840160208a016131a5565b7f222c202261747472696275746573223a205b7b2274726169745f74797065223a604292909101918201527f20224261636b67726f756e6420487565222c202276616c7565223a202200000060628201528451613abe81607f8401602089016131a5565b613b1e613b0e613b08607f848601017f227d2c207b2274726169745f74797065223a20225465787420487565222c20228152683b30b63ab2911d101160b91b602082015260290190565b87613993565b63227d5d7d60e01b815260040190565b9998505050505050505050565b7f646174613a6170706c69636174696f6e2f6a736f6e3b6261736536342c000000815260008251613b6381601d8501602087016131a5565b91909101601d0192915050565b60208082526028908201527f455243313135353a2069647320616e6420616d6f756e7473206c656e677468206040820152670dad2e6dac2e8c6d60c31b606082015260800190565b60208082526025908201527f455243313135353a207472616e7366657220746f20746865207a65726f206164604082015264647265737360d81b606082015260800190565b6020808252602a908201527f455243313135353a20696e73756666696369656e742062616c616e636520666f60408201526939103a3930b739b332b960b11b606082015260800190565b604081526000613c5a60408301856135d4565b8281036020840152612d5981856135d4565b60208082526023908201527f455243313135353a206275726e2066726f6d20746865207a65726f206164647260408201526265737360e81b606082015260800190565b60208082526024908201527f455243313135353a206275726e20616d6f756e7420657863656564732062616c604082015263616e636560e01b606082015260800190565b6000808454613d0181613826565b60018281168015613d195760018114613d2e57613d5d565b60ff1984168752821515830287019450613d5d565b8860005260208060002060005b85811015613d545781548a820152908401908201613d3b565b50505082870194505b5050505061202360f01b81528351613d7c8160028401602088016131a5565b01600201949350505050565b601f821115610dd457600081815260208120601f850160051c81016020861015613daf5750805b601f850160051c820191505b81811015611d1957828155600101613dbb565b81516001600160401b03811115613de757613de7613208565b613dfb81613df58454613826565b84613d88565b602080601f831160018114613e305760008415613e185750858301515b600019600386901b1c1916600185901b178555611d19565b600085815260208120601f198616915b82811015613e5f57888601518255948401946001909101908401613e40565b5085821015613e7d5787850151600019600388901b60f8161c191681555b5050505050600190811b01905550565b80516000906020808401838315613604578151875295820195908201906001016135e8565b6000613ec7613ec18386613e8d565b84613e8d565b949350505050565b7f3c7376672077696474683d2235303022206865696768743d223530302220786d81527f6c6e733d22687474703a2f2f7777772e77332e6f72672f323030302f737667226020820152601f60f91b60408201527f3c72656374206865696768743d22353030222077696474683d223530302220666041820152680d2d8d87a44d0e6d8560bb1b606182015260008451613f6f81606a8501602089016131a5565b6d16101a98129610191a929491179f60911b606a918401918201527f3c7465787420783d223530252220793d223530252220646f6d696e616e742d6260788201527f6173656c696e653d226d6964646c65222066696c6c3d2268736c28000000000060988201528451613fe98160b38401602089016131a5565b61406a61405861404561403f60b3858701017f2c20313030252c20383025292220746578742d616e63686f723d226d6964646c8152713291103337b73a16b9b4bd329e911a18911f60711b602082015260320190565b88613993565b661e17ba32bc3a1f60c91b815260070190565b651e17b9bb339f60d11b815260060190565b979650505050505050565b634e487b7160e01b600052601260045260246000fd5b60008261409a5761409a614075565b500490565b6001600160a01b0386811682528516602082015260a0604082018190526000906140cb908301866135d4565b82810360608401526140dd81866135d4565b905082810360808401526140f181856131c9565b98975050505050505050565b60006020828403121561410f57600080fd5b81516129a081613172565b600060033d111561078b5760046000803e5060005160e01c90565b600060443d10156141435790565b6040516003193d81016004833e81513d6001600160401b03816024840111818411171561417257505050505090565b828501915081518181111561418a5750505050505090565b843d87010160208285010111156141a45750505050505090565b6141b36020828601018761321e565b509095945050505050565b60208082526028908201527f455243313135353a204552433131353552656365697665722072656a656374656040820152676420746f6b656e7360c01b606082015260800190565b60008261421557614215614075565b500690565b6001600160a01b03868116825285166020820152604081018490526060810183905260a06080820181905260009061406a908301846131c956fe5468657365204e465473206172652061637475616c6c79207469636b65747320666f7220446170702043696e656d61732e4142434445464748494a4b4c4d4e4f505152535455565758595a6162636465666768696a6b6c6d6e6f707172737475767778797a303132333435363738392b2fa26469706673582212206aaaffa3791002b46eb9dd6b503c913e1364608646ed34db46ce8771b5ba316064736f6c63430008130033",
  "linkReferences": {},
  "deployedLinkReferences": {}
}