{
  "_format": "hh-sol-artifact-1",
  "contractName": "DappTickets",
  "sourceName": "contracts/DappTickets.sol",
  "abi": [
    {
      "inputs": [
        {
          "internalType": "address",
          "name": "_dappCinemas",
          "type": "address"
        }
      ],
      "stateMutability": "nonpayable",
      "type": "constructor"
    },
    {
      "anonymous": false,
      "inputs": [
        {
          "indexed": false,
          "internalType": "string",
          "name": "actionType",
          "type": "string"
        }
      ],
      "name": "Action",
      "type": "event"
    },
    {
      "anonymous": false,
      "inputs": [
        {
          "indexed": true,
          "internalType": "address",
          "name": "account",
          "type": "address"
        },
        {
          "indexed": true,
          "internalType": "address",
          "name": "operator",
          "type": "address"
        },
        {
          "indexed": false,
          "internalType": "bool",
          "name": "approved",
          "type": "bool"
        }
      ],
      "name": "ApprovalForAll",
      "type": "event"
    },
    {
      "anonymous": false,
      "inputs": [
        {
          "indexed": true,
          "internalType": "address",
          "name": "previousOwner",
          "type": "address"
        },
        {
          "indexed": true,
          "internalType": "address",
          "name": "newOwner",
          "type": "address"
        }
      ],
      "name": "OwnershipTransferred",
      "type": "event"
    },
    {
      "anonymous": false,
      "inputs": [
        {
          "indexed": true,
          "internalType": "address",
          "name": "operator",
          "type": "address"
        },
        {
          "indexed": true,
          "internalType": "address",
          "name": "from",
          "type": "address"
        },
        {
          "indexed": true,
          "internalType": "address",
          "name": "to",
          "type": "address"
        },
        {
          "indexed": false,
          "internalType": "uint256[]",
          "name": "ids",
          "type": "uint256[]"
        },
        {
          "indexed": false,
          "internalType": "uint256[]",
          "name": "values",
          "type": "uint256[]"
        }
      ],
      "name": "TransferBatch",
      "type": "event"
    },
    {
      "anonymous": false,
      "inputs": [
        {
          "indexed": true,
          "internalType": "address",
          "name": "operator",
          "type": "address"
        },
        {
          "indexed": true,
          "internalType": "address",
          "name": "from",
          "type": "address"
        },
        {
          "indexed": true,
          "internalType": "address",
          "name": "to",
          "type": "address"
        },
        {
          "indexed": false,
          "internalType": "uint256",
          "name": "id",
          "type": "uint256"
        },
        {
          "indexed": false,
          "internalType": "uint256",
          "name": "value",
          "type": "uint256"
        }
      ],
      "name": "TransferSingle",
      "type": "event"
    },
    {
      "anonymous": false,
      "inputs": [
        {
          "indexed": false,
          "internalType": "string",
          "name": "value",
          "type": "string"
        },
        {
          "indexed": true,
          "internalType": "uint256",
          "name": "id",
          "type": "uint256"
        }
      ],
      "name": "URI",
      "type": "event"
    },
    {
      "inputs": [
        {
          "internalType": "address",
          "name": "account",
          "type": "address"
        },
        {
          "internalType": "uint256",
          "name": "id",
          "type": "uint256"
        }
      ],
      "name": "balanceOf",
      "outputs": [
        {
          "internalType": "uint256",
          "name": "",
          "type": "uint256"
        }
      ],
      "stateMutability": "view",
      "type": "function"
    },
    {
      "inputs": [
        {
          "internalType": "address[]",
          "name": "accounts",
          "type": "address[]"
        },
        {
          "internalType": "uint256[]",
          "name": "ids",
          "type": "uint256[]"
        }
      ],
      "name": "balanceOfBatch",
      "outputs": [
        {
          "internalType": "uint256[]",
          "name": "",
          "type": "uint256[]"
        }
      ],
      "stateMutability": "view",
      "type": "function"
    },
    {
      "inputs": [
        {
          "internalType": "address",
          "name": "account",
          "type": "address"
        },
        {
          "internalType": "uint256",
          "name": "id",
          "type": "uint256"
        },
        {
          "internalType": "uint256",
          "name": "value",
          "type": "uint256"
        }
      ],
      "name": "burn",
      "outputs": [],
      "stateMutability": "nonpayable",
      "type": "function"
    },
    {
      "inputs": [
        {
          "internalType": "address",
          "name": "account",
          "type": "address"
        },
        {
          "internalType": "uint256[]",
          "name": "ids",
          "type": "uint256[]"
        },
        {
          "internalType": "uint256[]",
          "name": "values",
          "type": "uint256[]"
        }
      ],
      "name": "burnBatch",
      "outputs": [],
      "stateMutability": "nonpayable",
      "type": "function"
    },
    {
      "inputs": [
        {
          "internalType": "uint256",
          "name": "movieId",
          "type": "uint256"
        },
        {
          "internalType": "uint256",
          "name": "slotId",
          "type": "uint256"
        },
        {
          "internalType": "uint256",
          "name": "tickets",
          "type": "uint256"
        }
      ],
      "name": "buyTicket",
      "outputs": [],
      "stateMutability": "payable",
      "type": "function"
    },
    {
      "inputs": [
        {
          "internalType": "uint256",
          "name": "movieId",
          "type": "uint256"
        },
        {
          "internalType": "uint256",
          "name": "slotId",
          "type": "uint256"
        }
      ],
      "name": "getMovieTicketHolders",
      "outputs": [
        {
          "internalType": "address[]",
          "name": "",
          "type": "address[]"
        }
      ],
      "stateMutability": "view",
      "type": "function"
    },
    {
      "inputs": [
        {
          "internalType": "address",
          "name": "account",
          "type": "address"
        },
        {
          "internalType": "address",
          "name": "operator",
          "type": "address"
        }
      ],
      "name": "isApprovedForAll",
      "outputs": [
        {
          "internalType": "bool",
          "name": "",
          "type": "bool"
        }
      ],
      "stateMutability": "view",
      "type": "function"
    },
    {
      "inputs": [],
      "name": "owner",
      "outputs": [
        {
          "internalType": "address",
          "name": "",
          "type": "address"
        }
      ],
      "stateMutability": "view",
      "type": "function"
    },
    {
      "inputs": [],
      "name": "renounceOwnership",
      "outputs": [],
      "stateMutability": "nonpayable",
      "type": "function"
    },
    {
      "inputs": [
        {
          "internalType": "address",
          "name": "from",
          "type": "address"
        },
        {
          "internalType": "address",
          "name": "to",
          "type": "address"
        },
        {
          "internalType": "uint256[]",
          "name": "ids",
          "type": "uint256[]"
        },
        {
          "internalType": "uint256[]",
          "name": "amounts",
          "type": "uint256[]"
        },
        {
          "internalType": "bytes",
          "name": "data",
          "type": "bytes"
        }
      ],
      "name": "safeBatchTransferFrom",
      "outputs": [],
      "stateMutability": "nonpayable",
      "type": "function"
    },
    {
      "inputs": [
        {
          "internalType": "address",
          "name": "from",
          "type": "address"
        },
        {
          "internalType": "address",
          "name": "to",
          "type": "address"
        },
        {
          "internalType": "uint256",
          "name": "id",
          "type": "uint256"
        },
        {
          "internalType": "uint256",
          "name": "amount",
          "type": "uint256"
        },
        {
          "internalType": "bytes",
          "name": "data",
          "type": "bytes"
        }
      ],
      "name": "safeTransferFrom",
      "outputs": [],
      "stateMutability": "nonpayable",
      "type": "function"
    },
    {
      "inputs": [
        {
          "internalType": "address",
          "name": "operator",
          "type": "address"
        },
        {
          "internalType": "bool",
          "name": "approved",
          "type": "bool"
        }
      ],
      "name": "setApprovalForAll",
      "outputs": [],
      "stateMutability": "nonpayable",
      "type": "function"
    },
    {
      "inputs": [
        {
          "internalType": "bytes4",
          "name": "interfaceId",
          "type": "bytes4"
        }
      ],
      "name": "supportsInterface",
      "outputs": [
        {
          "internalType": "bool",
          "name": "",
          "type": "bool"
        }
      ],
      "stateMutability": "view",
      "type": "function"
    },
    {
      "inputs": [
        {
          "internalType": "uint256",
          "name": "",
          "type": "uint256"
        }
      ],
      "name": "ticketBuild",
      "outputs": [
        {
          "internalType": "string",
          "name": "name",
          "type": "string"
        },
        {
          "internalType": "string",
          "name": "description",
          "type": "string"
        },
        {
          "internalType": "string",
          "name": "bgHue",
          "type": "string"
        },
        {
          "internalType": "string",
          "name": "textHue",
          "type": "string"
        },
        {
          "internalType": "string",
          "name": "value",
          "type": "string"
        },
        {
          "components": [
            {
              "internalType": "uint256",
              "name": "id",
              "type": "uint256"
            },
            {
              "internalType": "uint256",
              "name": "movieId",
              "type": "uint256"
            },
            {
              "internalType": "uint256",
              "name": "slotId",
              "type": "uint256"
            },
            {
              "internalType": "address",
              "name": "owner",
              "type": "address"
            },
            {
              "internalType": "uint256",
              "name": "cost",
              "type": "uint256"
            },
            {
              "internalType": "uint256",
              "name": "timestamp",
              "type": "uint256"
            },
            {
              "internalType": "uint256",
              "name": "day",
              "type": "uint256"
            },
            {
              "internalType": "bool",
              "name": "used",
              "type": "bool"
            },
            {
              "internalType": "bool",
              "name": "refunded",
              "type": "bool"
            }
          ],
          "internalType": "struct DappShared.TicketStruct",
          "name": "ticket",
          "type": "tuple"
        }
      ],
      "stateMutability": "view",
      "type": "function"
    },
    {
      "inputs": [
        {
          "internalType": "address",
          "name": "newOwner",
          "type": "address"
        }
      ],
      "name": "transferOwnership",
      "outputs": [],
      "stateMutability": "nonpayable",
      "type": "function"
    },
    {
      "inputs": [
        {
          "internalType": "uint256",
          "name": "tokenId",
          "type": "uint256"
        }
      ],
      "name": "uri",
      "outputs": [
        {
          "internalType": "string",
          "name": "",
          "type": "string"
        }
      ],
      "stateMutability": "view",
      "type": "function"
    },
    {
      "inputs": [
        {
          "internalType": "uint256",
          "name": "movieId",
          "type": "uint256"
        },
        {
          "internalType": "uint256",
          "name": "slotId",
          "type": "uint256"
        },
        {
          "internalType": "uint256[]",
          "name": "ticketIds",
          "type": "uint256[]"
        }
      ],
      "name": "useTicket",
      "outputs": [],
      "stateMutability": "nonpayable",
      "type": "function"
    },
    {
      "inputs": [
        {
          "internalType": "address",
          "name": "to",
          "type": "address"
        },
        {
          "internalType": "uint256",
          "name": "amount",
          "type": "uint256"
        }
      ],
      "name": "withdrawTo",
      "outputs": [],
      "stateMutability": "nonpayable",
      "type": "function"
    }
  ],
  "bytecode": "0x60806040523480156200001157600080fd5b506040516200385a3803806200385a8339810160408190526200003491620000e4565b6040805160208101909152600081526200004e8162000080565b506200005a3362000092565b600580546001600160a01b0319166001600160a01b039290921691909117905562000287565b60026200008e8282620001bb565b5050565b600380546001600160a01b038381166001600160a01b0319831681179093556040519116919082907f8be0079c531659141344cd1fd0a4f28419497f9722a3daafe3b4186f6b6457e090600090a35050565b600060208284031215620000f757600080fd5b81516001600160a01b03811681146200010f57600080fd5b9392505050565b634e487b7160e01b600052604160045260246000fd5b600181811c908216806200014157607f821691505b6020821081036200016257634e487b7160e01b600052602260045260246000fd5b50919050565b601f821115620001b657600081815260208120601f850160051c81016020861015620001915750805b601f850160051c820191505b81811015620001b2578281556001016200019d565b5050505b505050565b81516001600160401b03811115620001d757620001d762000116565b620001ef81620001e884546200012c565b8462000168565b602080601f8311600181146200022757600084156200020e5750858301515b600019600386901b1c1916600185901b178555620001b2565b600085815260208120601f198616915b82811015620002585788860151825594840194600190910190840162000237565b5085821015620002775787850151600019600388901b60f8161c191681555b5050505050600190811b01905550565b6135c380620002976000396000f3fe6080604052600436106101085760003560e01c80637c7b001611610095578063c4c6710d11610064578063c4c6710d14610308578063e985e9c51461031b578063f242432a14610364578063f2fde38b14610384578063f5298aca146103a457600080fd5b80637c7b0016146102735780638da5cb5b14610293578063a22cb465146102bb578063af875f35146102db57600080fd5b80632eb2c2d6116100dc5780632eb2c2d6146101bf57806340b882cf146101df5780634e1273f4146102115780636b20c4541461023e578063715018a61461025e57600080fd5b8062fdd58e1461010d57806301ffc9a7146101405780630e89341c14610170578063205c28781461019d575b600080fd5b34801561011957600080fd5b5061012d61012836600461273e565b6103c4565b6040519081526020015b60405180910390f35b34801561014c57600080fd5b5061016061015b36600461277e565b61045d565b6040519015158152602001610137565b34801561017c57600080fd5b5061019061018b36600461279b565b6104ad565b6040516101379190612804565b3480156101a957600080fd5b506101bd6101b836600461273e565b61056b565b005b3480156101cb57600080fd5b506101bd6101da366004612989565b610714565b3480156101eb57600080fd5b506101ff6101fa36600461279b565b610760565b60405161013796959493929190612a32565b34801561021d57600080fd5b5061023161022c366004612b19565b610ab1565b6040516101379190612c1e565b34801561024a57600080fd5b506101bd610259366004612c31565b610bda565b34801561026a57600080fd5b506101bd610c1d565b34801561027f57600080fd5b506101bd61028e366004612ca4565b610c31565b34801561029f57600080fd5b506003546040516001600160a01b039091168152602001610137565b3480156102c757600080fd5b506101bd6102d6366004612cf7565b610e89565b3480156102e757600080fd5b506102fb6102f6366004612d2e565b610e98565b6040516101379190612d50565b6101bd610316366004612d9d565b610f0d565b34801561032757600080fd5b50610160610336366004612dc9565b6001600160a01b03918216600090815260016020908152604080832093909416825291909152205460ff1690565b34801561037057600080fd5b506101bd61037f366004612dfc565b611605565b34801561039057600080fd5b506101bd61039f366004612e60565b61164a565b3480156103b057600080fd5b506101bd6103bf366004612e7b565b6116c3565b60006001600160a01b0383166104345760405162461bcd60e51b815260206004820152602a60248201527f455243313135353a2061646472657373207a65726f206973206e6f742061207660448201526930b634b21037bbb732b960b11b60648201526084015b60405180910390fd5b506000818152602081815260408083206001600160a01b03861684529091529020545b92915050565b60006001600160e01b03198216636cdb3d1360e11b148061048e57506001600160e01b031982166303a24d0760e21b145b8061045757506301ffc9a760e01b6001600160e01b0319831614610457565b6000818152600660205260408120805460609291906104cb90612eae565b80601f01602080910402602001604051908101604052809291908181526020018280546104f790612eae565b80156105445780601f1061051957610100808354040283529160200191610544565b820191906000526020600020905b81548152906001019060200180831161052757829003601f168201915b5050505050905060008151116105625761055d83611706565b610564565b805b9392505050565b61057361179a565b600554604080516316d3df1560e31b8152905183926001600160a01b03169163b69ef8a89160048083019260209291908290030181865afa1580156105bc573d6000803e3d6000fd5b505050506040513d601f19601f820116820180604052508101906105e09190612ee8565b10156106225760405162461bcd60e51b8152602060048201526011602482015270125b9cdd59999a58da595b9d08199d5b99607a1b604482015260640161042b565b600081600560009054906101000a90046001600160a01b03166001600160a01b031663b69ef8a86040518163ffffffff1660e01b8152600401602060405180830381865afa158015610678573d6000803e3d6000fd5b505050506040513d601f19601f8201168201806040525081019061069c9190612ee8565b6106a69190612f17565b600554604051637d8b34e560e11b8152600481018390529192506001600160a01b03169063fb1669ca90602401600060405180830381600087803b1580156106ed57600080fd5b505af1158015610701573d6000803e3d6000fd5b5050505061070f83836117f4565b505050565b6001600160a01b03851633148061073057506107308533610336565b61074c5760405162461bcd60e51b815260040161042b90612f2a565b6107598585858585611854565b5050505050565b60076020526000908152604090208054819061077b90612eae565b80601f01602080910402602001604051908101604052809291908181526020018280546107a790612eae565b80156107f45780601f106107c9576101008083540402835291602001916107f4565b820191906000526020600020905b8154815290600101906020018083116107d757829003601f168201915b50505050509080600101805461080990612eae565b80601f016020809104026020016040519081016040528092919081815260200182805461083590612eae565b80156108825780601f1061085757610100808354040283529160200191610882565b820191906000526020600020905b81548152906001019060200180831161086557829003601f168201915b50505050509080600201805461089790612eae565b80601f01602080910402602001604051908101604052809291908181526020018280546108c390612eae565b80156109105780601f106108e557610100808354040283529160200191610910565b820191906000526020600020905b8154815290600101906020018083116108f357829003601f168201915b50505050509080600301805461092590612eae565b80601f016020809104026020016040519081016040528092919081815260200182805461095190612eae565b801561099e5780601f106109735761010080835404028352916020019161099e565b820191906000526020600020905b81548152906001019060200180831161098157829003601f168201915b5050505050908060040180546109b390612eae565b80601f01602080910402602001604051908101604052809291908181526020018280546109df90612eae565b8015610a2c5780601f10610a0157610100808354040283529160200191610a2c565b820191906000526020600020905b815481529060010190602001808311610a0f57829003601f168201915b50506040805161012081018252600587015481526006870154602082015260078701549181019190915260088601546001600160a01b0316606082015260098601546080820152600a86015460a0820152600b86015460c0820152600c9095015460ff808216151560e088015261010091829004161515908601525091929150879050565b60608151835114610b165760405162461bcd60e51b815260206004820152602960248201527f455243313135353a206163636f756e747320616e6420696473206c656e677468604482015268040dad2e6dac2e8c6d60bb1b606482015260840161042b565b600083516001600160401b03811115610b3157610b31612817565b604051908082528060200260200182016040528015610b5a578160200160208202803683370190505b50905060005b8451811015610bd257610ba5858281518110610b7e57610b7e612f78565b6020026020010151858381518110610b9857610b98612f78565b60200260200101516103c4565b828281518110610bb757610bb7612f78565b6020908102919091010152610bcb81612f8e565b9050610b60565b509392505050565b6001600160a01b038316331480610bf65750610bf68333610336565b610c125760405162461bcd60e51b815260040161042b90612f2a565b61070f8383836119f0565b610c2561179a565b610c2f6000611b7a565b565b610c3961179a565b6000815111610c8a5760405162461bcd60e51b815260206004820181905260248201527f4d7573742068617665206174206c65617374206f6e65207469636b6574204964604482015260640161042b565b600554604051633c0400c560e01b8152600481018590526001600160a01b0390911690633c0400c590602401602060405180830381865afa158015610cd3573d6000803e3d6000fd5b505050506040513d601f19601f82011682018060405250810190610cf79190612fb2565b8015610d72575060055460405163358cc11560e21b81526004810184905284916001600160a01b03169063d63304549060240161016060405180830381865afa158015610d48573d6000803e3d6000fd5b505050506040513d601f19601f82011682018060405250810190610d6c9190612fcf565b60200151145b610db05760405162461bcd60e51b815260206004820152600f60248201526e135bdd9a59481b9bdd08199bdd5b99608a1b604482015260640161042b565b60005b8151811015610e8357600160076000848481518110610dd457610dd4612f78565b6020026020010151815260200190815260200160002060050160070160006101000a81548160ff021916908315150217905550610e7160076000848481518110610e2057610e20612f78565b6020026020010151815260200190815260200160002060050160030160009054906101000a90046001600160a01b0316838381518110610e6257610e62612f78565b60200260200101516001611bcc565b80610e7b81612f8e565b915050610db3565b50505050565b610e94338383611cd5565b5050565b6000828152600860209081526040808320848452825291829020805483518184028101840190945280845260609392830182828015610f0057602002820191906000526020600020905b81546001600160a01b03168152600190910190602001808311610ee2575b5050505050905092915050565b600554604051633c0400c560e01b8152600481018590526001600160a01b0390911690633c0400c590602401602060405180830381865afa158015610f56573d6000803e3d6000fd5b505050506040513d601f19601f82011682018060405250810190610f7a9190612fb2565b8015610ff5575060055460405163358cc11560e21b81526004810184905284916001600160a01b03169063d63304549060240161016060405180830381865afa158015610fcb573d6000803e3d6000fd5b505050506040513d601f19601f82011682018060405250810190610fef9190612fcf565b60200151145b6110335760405162461bcd60e51b815260206004820152600f60248201526e135bdd9a59481b9bdd08199bdd5b99608a1b604482015260640161042b565b60055460405163358cc11560e21b81526004810184905282916001600160a01b03169063d63304549060240161016060405180830381865afa15801561107d573d6000803e3d6000fd5b505050506040513d601f19601f820116820180604052508101906110a19190612fcf565b604001516110af919061306c565b3410156110f45760405162461bcd60e51b8152602060048201526013602482015272125b9cdd59999a58da595b9d08185b5bdd5b9d606a1b604482015260640161042b565b60055460405163358cc11560e21b8152600481018490526001600160a01b039091169063d63304549060240161016060405180830381865afa15801561113e573d6000803e3d6000fd5b505050506040513d601f19601f820116820180604052508101906111629190612fcf565b60c0015160055460405163358cc11560e21b8152600481018590526001600160a01b039091169063d63304549060240161016060405180830381865afa1580156111b0573d6000803e3d6000fd5b505050506040513d601f19601f820116820180604052508101906111d49190612fcf565b60a00151116112175760405162461bcd60e51b815260206004820152600f60248201526e4f7574206f6620636170616369747960881b604482015260640161042b565b60005b8181101561147c57611230600480546001019055565b61128c60405180610120016040528060008152602001600081526020016000815260200160006001600160a01b031681526020016000815260200160008152602001600081526020016000151581526020016000151581525090565b600454815260055460405163358cc11560e21b8152600481018690526001600160a01b039091169063d63304549060240161016060405180830381865afa1580156112db573d6000803e3d6000fd5b505050506040513d601f19601f820116820180604052508101906112ff9190612fcf565b6040908101516080830152600554905163358cc11560e21b8152600481018690526001600160a01b039091169063d63304549060240161016060405180830381865afa158015611353573d6000803e3d6000fd5b505050506040513d601f19601f820116820180604052508101906113779190612fcf565b610120015160c082015260408101849052336060820152611396611db5565b60a08201908152815160009081526007602081815260408084208651600582015582870151600682015581870151938101939093556060860151600880850180546001600160a01b039093166001600160a01b0319938416179055608088015160098601559551600a85015560c0870151600b85015560e0870151600c909401805461010098890151151590980261ff00199515159590951661ffff19909816979097179390931790955588835292835283822087835283529281208054600181018255908252919020018054909116331790558061147481612f8e565b91505061121a565b5060055460405163358cc11560e21b81526004810184905282916001600160a01b03169063d63304549060240161016060405180830381865afa1580156114c7573d6000803e3d6000fd5b505050506040513d601f19601f820116820180604052508101906114eb9190612fcf565b60c0018181516114fb9190613083565b90525060055460405163358cc11560e21b81526004810184905282916001600160a01b03169063d63304549060240161016060405180830381865afa158015611548573d6000803e3d6000fd5b505050506040513d601f19601f8201168201806040525081019061156c9190612fcf565b6040015161157a919061306c565b60055460405163358cc11560e21b8152600481018590526001600160a01b039091169063d63304549060240161016060405180830381865afa1580156115c4573d6000803e3d6000fd5b505050506040513d601f19601f820116820180604052508101906115e89190612fcf565b610140018181516115f99190613083565b90525061070f81611dd0565b6001600160a01b03851633148061162157506116218533610336565b61163d5760405162461bcd60e51b815260040161042b90612f2a565b6107598585858585612028565b61165261179a565b6001600160a01b0381166116b75760405162461bcd60e51b815260206004820152602660248201527f4f776e61626c653a206e6577206f776e657220697320746865207a65726f206160448201526564647265737360d01b606482015260840161042b565b6116c081611b7a565b50565b6001600160a01b0383163314806116df57506116df8333610336565b6116fb5760405162461bcd60e51b815260040161042b90612f2a565b61070f838383611bcc565b60606002805461171590612eae565b80601f016020809104026020016040519081016040528092919081815260200182805461174190612eae565b801561178e5780601f106117635761010080835404028352916020019161178e565b820191906000526020600020905b81548152906001019060200180831161177157829003601f168201915b50505050509050919050565b6003546001600160a01b03163314610c2f5760405162461bcd60e51b815260206004820181905260248201527f4f776e61626c653a2063616c6c6572206973206e6f7420746865206f776e6572604482015260640161042b565b6000826001600160a01b03168260405160006040518083038185875af1925050503d8060008114611841576040519150601f19603f3d011682016040523d82523d6000602084013e611846565b606091505b505090508061070f57600080fd5b81518351146118755760405162461bcd60e51b815260040161042b90613096565b6001600160a01b03841661189b5760405162461bcd60e51b815260040161042b906130de565b3360005b84518110156119825760008582815181106118bc576118bc612f78565b6020026020010151905060008583815181106118da576118da612f78565b602090810291909101810151600084815280835260408082206001600160a01b038e16835290935291909120549091508181101561192a5760405162461bcd60e51b815260040161042b90613123565b6000838152602081815260408083206001600160a01b038e8116855292528083208585039055908b16825281208054849290611967908490613083565b925050819055505050508061197b90612f8e565b905061189f565b50846001600160a01b0316866001600160a01b0316826001600160a01b03167f4a39dc06d4c0dbc64b70af90fd698a233a518aa5d07e595d983b8c0526c8f7fb87876040516119d292919061316d565b60405180910390a46119e8818787878787612152565b505050505050565b6001600160a01b038316611a165760405162461bcd60e51b815260040161042b90613192565b8051825114611a375760405162461bcd60e51b815260040161042b90613096565b604080516020810190915260009081905233905b8351811015611b0d576000848281518110611a6857611a68612f78565b602002602001015190506000848381518110611a8657611a86612f78565b602090810291909101810151600084815280835260408082206001600160a01b038c168352909352919091205490915081811015611ad65760405162461bcd60e51b815260040161042b906131d5565b6000928352602083815260408085206001600160a01b038b1686529091529092209103905580611b0581612f8e565b915050611a4b565b5060006001600160a01b0316846001600160a01b0316826001600160a01b03167f4a39dc06d4c0dbc64b70af90fd698a233a518aa5d07e595d983b8c0526c8f7fb8686604051611b5e92919061316d565b60405180910390a4604080516020810190915260009052610e83565b600380546001600160a01b038381166001600160a01b0319831681179093556040519116919082907f8be0079c531659141344cd1fd0a4f28419497f9722a3daafe3b4186f6b6457e090600090a35050565b6001600160a01b038316611bf25760405162461bcd60e51b815260040161042b90613192565b336000611bfe846122ad565b90506000611c0b846122ad565b60408051602080820183526000918290528882528181528282206001600160a01b038b1683529052205490915084811015611c585760405162461bcd60e51b815260040161042b906131d5565b6000868152602081815260408083206001600160a01b038b81168086529184528285208a8703905582518b81529384018a90529092908816917fc3d58168c5ae7397731d063d5bbf3d657854427343f4c083240f7aacaa2d0f62910160405180910390a46040805160208101909152600090525b50505050505050565b816001600160a01b0316836001600160a01b031603611d485760405162461bcd60e51b815260206004820152602960248201527f455243313135353a2073657474696e6720617070726f76616c20737461747573604482015268103337b91039b2b63360b91b606482015260840161042b565b6001600160a01b03838116600081815260016020908152604080832094871680845294825291829020805460ff191686151590811790915591519182527f17307eab39ab6107e8899845ad3d59bd9653f200f220920489ca2b5937696c31910160405180910390a3505050565b600080611dc4426103e861306c565b610457906103e8613083565b6000816001600160401b03811115611dea57611dea612817565b604051908082528060200260200182016040528015611e13578160200160208202803683370190505b5090506000826001600160401b03811115611e3057611e30612817565b604051908082528060200260200182016040528015611e59578160200160208202803683370190505b509050600083611e6860045490565b611e729190612f17565b905060005b84811015611ff55781611e8981612f8e565b9250506000611e97836122f8565b9050600081604051602001611eac9190613219565b60408051601f198184030181526060830190915260318083529092506000919061355d60208301396000868152600760205260409020909150611eef838261328c565b506000858152600760205260409020600101611f0b828261328c565b50611f28611f23610169611f1d611db5565b8861238a565b6122f8565b600086815260076020526040902060020190611f44908261328c565b50611f55611f23610169428861238a565b600086815260076020526040902060030190611f71908261328c565b506000858152600760205260409020600401611f8d838261328c565b50611fa085611f9b876104ad565b6123f2565b84878581518110611fb357611fb3612f78565b6020026020010181815250506001868581518110611fd357611fd3612f78565b6020026020010181815250505050508080611fed90612f8e565b915050611e77565b506000838360405160200161200b929190613370565b60405160208183030381529060405290506107593385858461240a565b6001600160a01b03841661204e5760405162461bcd60e51b815260040161042b906130de565b33600061205a856122ad565b90506000612067856122ad565b90506000868152602081815260408083206001600160a01b038c168452909152902054858110156120aa5760405162461bcd60e51b815260040161042b90613123565b6000878152602081815260408083206001600160a01b038d8116855292528083208985039055908a168252812080548892906120e7908490613083565b909155505060408051888152602081018890526001600160a01b03808b16928c821692918816917fc3d58168c5ae7397731d063d5bbf3d657854427343f4c083240f7aacaa2d0f62910160405180910390a4612147848a8a8a8a8a61258f565b505050505050505050565b6001600160a01b0384163b156119e85760405163bc197c8160e01b81526001600160a01b0385169063bc197c8190612196908990899088908890889060040161338d565b6020604051808303816000875af19250505080156121d1575060408051601f3d908101601f191682019092526121ce918101906133eb565b60015b61227d576121dd613408565b806308c379a00361221657506121f1613424565b806121fc5750612218565b8060405162461bcd60e51b815260040161042b9190612804565b505b60405162461bcd60e51b815260206004820152603460248201527f455243313135353a207472616e7366657220746f206e6f6e2d455243313135356044820152732932b1b2b4bb32b91034b6b83632b6b2b73a32b960611b606482015260840161042b565b6001600160e01b0319811663bc197c8160e01b14611ccc5760405162461bcd60e51b815260040161042b906134ad565b604080516001808252818301909252606091600091906020808301908036833701905050905082816000815181106122e7576122e7612f78565b602090810291909101015292915050565b606060006123058361264a565b60010190506000816001600160401b0381111561232457612324612817565b6040519080825280601f01601f19166020018201604052801561234e576020820181803683370190505b5090508181016020015b600019016f181899199a1a9b1b9c1cb0b131b232b360811b600a86061a8153600a850494508461235857509392505050565b604080514260208201526bffffffffffffffffffffffff193360601b16918101919091526054810183905260748101829052600090819085906094016040516020818303038152906040528051906020012060001c6123e991906134f5565b95945050505050565b600082815260066020526040902061070f828261328c565b6001600160a01b03841661246a5760405162461bcd60e51b815260206004820152602160248201527f455243313135353a206d696e7420746f20746865207a65726f206164647265736044820152607360f81b606482015260840161042b565b815183511461248b5760405162461bcd60e51b815260040161042b90613096565b3360005b8451811015612527578381815181106124aa576124aa612f78565b60200260200101516000808784815181106124c7576124c7612f78565b602002602001015181526020019081526020016000206000886001600160a01b03166001600160a01b03168152602001908152602001600020600082825461250f9190613083565b9091555081905061251f81612f8e565b91505061248f565b50846001600160a01b031660006001600160a01b0316826001600160a01b03167f4a39dc06d4c0dbc64b70af90fd698a233a518aa5d07e595d983b8c0526c8f7fb878760405161257892919061316d565b60405180910390a461075981600087878787612152565b6001600160a01b0384163b156119e85760405163f23a6e6160e01b81526001600160a01b0385169063f23a6e61906125d39089908990889088908890600401613517565b6020604051808303816000875af192505050801561260e575060408051601f3d908101601f1916820190925261260b918101906133eb565b60015b61261a576121dd613408565b6001600160e01b0319811663f23a6e6160e01b14611ccc5760405162461bcd60e51b815260040161042b906134ad565b60008072184f03e93ff9f4daa797ed6e38ed64bf6a1f0160401b83106126895772184f03e93ff9f4daa797ed6e38ed64bf6a1f0160401b830492506040015b6d04ee2d6d415b85acef810000000083106126b5576d04ee2d6d415b85acef8100000000830492506020015b662386f26fc1000083106126d357662386f26fc10000830492506010015b6305f5e10083106126eb576305f5e100830492506008015b61271083106126ff57612710830492506004015b60648310612711576064830492506002015b600a83106105625760010192915050565b80356001600160a01b038116811461273957600080fd5b919050565b6000806040838503121561275157600080fd5b61275a83612722565b946020939093013593505050565b6001600160e01b0319811681146116c057600080fd5b60006020828403121561279057600080fd5b813561056481612768565b6000602082840312156127ad57600080fd5b5035919050565b60005b838110156127cf5781810151838201526020016127b7565b50506000910152565b600081518084526127f08160208601602086016127b4565b601f01601f19169290920160200192915050565b60208152600061056460208301846127d8565b634e487b7160e01b600052604160045260246000fd5b601f8201601f191681016001600160401b038111828210171561285257612852612817565b6040525050565b60405161016081016001600160401b038111828210171561287c5761287c612817565b60405290565b60006001600160401b0382111561289b5761289b612817565b5060051b60200190565b600082601f8301126128b657600080fd5b813560206128c382612882565b6040516128d0828261282d565b83815260059390931b85018201928281019150868411156128f057600080fd5b8286015b8481101561290b57803583529183019183016128f4565b509695505050505050565b600082601f83011261292757600080fd5b81356001600160401b0381111561294057612940612817565b604051612957601f8301601f19166020018261282d565b81815284602083860101111561296c57600080fd5b816020850160208301376000918101602001919091529392505050565b600080600080600060a086880312156129a157600080fd5b6129aa86612722565b94506129b860208701612722565b935060408601356001600160401b03808211156129d457600080fd5b6129e089838a016128a5565b945060608801359150808211156129f657600080fd5b612a0289838a016128a5565b93506080880135915080821115612a1857600080fd5b50612a2588828901612916565b9150509295509295909350565b60006101c0808352612a468184018a6127d8565b90508281036020840152612a5a81896127d8565b90508281036040840152612a6e81886127d8565b90508281036060840152612a8281876127d8565b90508281036080840152612a9681866127d8565b915050825160a0830152602083015160c0830152604083015160e0830152606083015161010060018060a01b03821681850152608085015161012085015260a085015161014085015260c085015161016085015260e0850151151561018085015280850151915050612b0d6101a084018215159052565b50979650505050505050565b60008060408385031215612b2c57600080fd5b82356001600160401b0380821115612b4357600080fd5b818501915085601f830112612b5757600080fd5b81356020612b6482612882565b604051612b71828261282d565b83815260059390931b8501820192828101915089841115612b9157600080fd5b948201945b83861015612bb657612ba786612722565b82529482019490820190612b96565b96505086013592505080821115612bcc57600080fd5b50612bd9858286016128a5565b9150509250929050565b600081518084526020808501945080840160005b83811015612c1357815187529582019590820190600101612bf7565b509495945050505050565b6020815260006105646020830184612be3565b600080600060608486031215612c4657600080fd5b612c4f84612722565b925060208401356001600160401b0380821115612c6b57600080fd5b612c77878388016128a5565b93506040860135915080821115612c8d57600080fd5b50612c9a868287016128a5565b9150509250925092565b600080600060608486031215612cb957600080fd5b833592506020840135915060408401356001600160401b03811115612cdd57600080fd5b612c9a868287016128a5565b80151581146116c057600080fd5b60008060408385031215612d0a57600080fd5b612d1383612722565b91506020830135612d2381612ce9565b809150509250929050565b60008060408385031215612d4157600080fd5b50508035926020909101359150565b6020808252825182820181905260009190848201906040850190845b81811015612d915783516001600160a01b031683529284019291840191600101612d6c565b50909695505050505050565b600080600060608486031215612db257600080fd5b505081359360208301359350604090920135919050565b60008060408385031215612ddc57600080fd5b612de583612722565b9150612df360208401612722565b90509250929050565b600080600080600060a08688031215612e1457600080fd5b612e1d86612722565b9450612e2b60208701612722565b9350604086013592506060860135915060808601356001600160401b03811115612e5457600080fd5b612a2588828901612916565b600060208284031215612e7257600080fd5b61056482612722565b600080600060608486031215612e9057600080fd5b612e9984612722565b95602085013595506040909401359392505050565b600181811c90821680612ec257607f821691505b602082108103612ee257634e487b7160e01b600052602260045260246000fd5b50919050565b600060208284031215612efa57600080fd5b5051919050565b634e487b7160e01b600052601160045260246000fd5b8181038181111561045757610457612f01565b6020808252602e908201527f455243313135353a2063616c6c6572206973206e6f7420746f6b656e206f776e60408201526d195c881bdc88185c1c1c9bdd995960921b606082015260800190565b634e487b7160e01b600052603260045260246000fd5b600060018201612fa057612fa0612f01565b5060010190565b805161273981612ce9565b600060208284031215612fc457600080fd5b815161056481612ce9565b60006101608284031215612fe257600080fd5b612fea612859565b825181526020830151602082015260408301516040820152606083015160608201526080830151608082015260a083015160a082015260c083015160c082015261303660e08401612fa7565b60e0820152610100613049818501612fa7565b908201526101208381015190820152610140928301519281019290925250919050565b808202811582820484141761045757610457612f01565b8082018082111561045757610457612f01565b60208082526028908201527f455243313135353a2069647320616e6420616d6f756e7473206c656e677468206040820152670dad2e6dac2e8c6d60c31b606082015260800190565b60208082526025908201527f455243313135353a207472616e7366657220746f20746865207a65726f206164604082015264647265737360d81b606082015260800190565b6020808252602a908201527f455243313135353a20696e73756666696369656e742062616c616e636520666f60408201526939103a3930b739b332b960b11b606082015260800190565b6040815260006131806040830185612be3565b82810360208401526123e98185612be3565b60208082526023908201527f455243313135353a206275726e2066726f6d20746865207a65726f206164647260408201526265737360e81b606082015260800190565b60208082526024908201527f455243313135353a206275726e20616d6f756e7420657863656564732062616c604082015263616e636560e01b606082015260800190565b64445043202360d81b8152600082516132398160058501602087016127b4565b9190910160050192915050565b601f82111561070f57600081815260208120601f850160051c8101602086101561326d5750805b601f850160051c820191505b818110156119e857828155600101613279565b81516001600160401b038111156132a5576132a5612817565b6132b9816132b38454612eae565b84613246565b602080601f8311600181146132ee57600084156132d65750858301515b600019600386901b1c1916600185901b1785556119e8565b600085815260208120601f198616915b8281101561331d578886015182559484019460019091019084016132fe565b508582101561333b5787850151600019600388901b60f8161c191681555b5050505050600190811b01905550565b80516000906020808401838315612c1357815187529582019590820190600101612bf7565b600061338561337f838661334b565b8461334b565b949350505050565b6001600160a01b0386811682528516602082015260a0604082018190526000906133b990830186612be3565b82810360608401526133cb8186612be3565b905082810360808401526133df81856127d8565b98975050505050505050565b6000602082840312156133fd57600080fd5b815161056481612768565b600060033d11156134215760046000803e5060005160e01c5b90565b600060443d10156134325790565b6040516003193d81016004833e81513d6001600160401b03816024840111818411171561346157505050505090565b82850191508151818111156134795750505050505090565b843d87010160208285010111156134935750505050505090565b6134a26020828601018761282d565b509095945050505050565b60208082526028908201527f455243313135353a204552433131353552656365697665722072656a656374656040820152676420746f6b656e7360c01b606082015260800190565b60008261351257634e487b7160e01b600052601260045260246000fd5b500690565b6001600160a01b03868116825285166020820152604081018490526060810183905260a060808201819052600090613551908301846127d8565b97965050505050505056fe5468657365204e465473206172652061637475616c6c79207469636b65747320666f7220446170702043696e656d61732ea26469706673582212203384ea9707688e17e7fba52a8b8c6e984e6acc83a4b7a288df1f7b8e6e62079164736f6c63430008130033",
  "linkReferences": {},
  "deployedLinkReferences": {}
}