{
  "_format": "hh-sol-artifact-1",
  "contractName": "DappTickets",
  "sourceName": "contracts/DappTickets.sol",
  "abi": [
    {
      "inputs": [
        {
          "internalType": "address",
          "name": "_dappCinemas",
          "type": "address"
        },
        {
          "internalType": "string",
          "name": "_name",
          "type": "string"
        },
        {
          "internalType": "string",
          "name": "_symbol",
          "type": "string"
        }
      ],
      "stateMutability": "nonpayable",
      "type": "constructor"
    },
    {
      "anonymous": false,
      "inputs": [
        {
          "indexed": false,
          "internalType": "string",
          "name": "actionType",
          "type": "string"
        }
      ],
      "name": "Action",
      "type": "event"
    },
    {
      "anonymous": false,
      "inputs": [
        {
          "indexed": true,
          "internalType": "address",
          "name": "account",
          "type": "address"
        },
        {
          "indexed": true,
          "internalType": "address",
          "name": "operator",
          "type": "address"
        },
        {
          "indexed": false,
          "internalType": "bool",
          "name": "approved",
          "type": "bool"
        }
      ],
      "name": "ApprovalForAll",
      "type": "event"
    },
    {
      "anonymous": false,
      "inputs": [
        {
          "indexed": true,
          "internalType": "address",
          "name": "previousOwner",
          "type": "address"
        },
        {
          "indexed": true,
          "internalType": "address",
          "name": "newOwner",
          "type": "address"
        }
      ],
      "name": "OwnershipTransferred",
      "type": "event"
    },
    {
      "anonymous": false,
      "inputs": [
        {
          "indexed": true,
          "internalType": "bytes32",
          "name": "role",
          "type": "bytes32"
        },
        {
          "indexed": true,
          "internalType": "bytes32",
          "name": "previousAdminRole",
          "type": "bytes32"
        },
        {
          "indexed": true,
          "internalType": "bytes32",
          "name": "newAdminRole",
          "type": "bytes32"
        }
      ],
      "name": "RoleAdminChanged",
      "type": "event"
    },
    {
      "anonymous": false,
      "inputs": [
        {
          "indexed": true,
          "internalType": "bytes32",
          "name": "role",
          "type": "bytes32"
        },
        {
          "indexed": true,
          "internalType": "address",
          "name": "account",
          "type": "address"
        },
        {
          "indexed": true,
          "internalType": "address",
          "name": "sender",
          "type": "address"
        }
      ],
      "name": "RoleGranted",
      "type": "event"
    },
    {
      "anonymous": false,
      "inputs": [
        {
          "indexed": true,
          "internalType": "bytes32",
          "name": "role",
          "type": "bytes32"
        },
        {
          "indexed": true,
          "internalType": "address",
          "name": "account",
          "type": "address"
        },
        {
          "indexed": true,
          "internalType": "address",
          "name": "sender",
          "type": "address"
        }
      ],
      "name": "RoleRevoked",
      "type": "event"
    },
    {
      "anonymous": false,
      "inputs": [
        {
          "indexed": true,
          "internalType": "address",
          "name": "operator",
          "type": "address"
        },
        {
          "indexed": true,
          "internalType": "address",
          "name": "from",
          "type": "address"
        },
        {
          "indexed": true,
          "internalType": "address",
          "name": "to",
          "type": "address"
        },
        {
          "indexed": false,
          "internalType": "uint256[]",
          "name": "ids",
          "type": "uint256[]"
        },
        {
          "indexed": false,
          "internalType": "uint256[]",
          "name": "values",
          "type": "uint256[]"
        }
      ],
      "name": "TransferBatch",
      "type": "event"
    },
    {
      "anonymous": false,
      "inputs": [
        {
          "indexed": true,
          "internalType": "address",
          "name": "operator",
          "type": "address"
        },
        {
          "indexed": true,
          "internalType": "address",
          "name": "from",
          "type": "address"
        },
        {
          "indexed": true,
          "internalType": "address",
          "name": "to",
          "type": "address"
        },
        {
          "indexed": false,
          "internalType": "uint256",
          "name": "id",
          "type": "uint256"
        },
        {
          "indexed": false,
          "internalType": "uint256",
          "name": "value",
          "type": "uint256"
        }
      ],
      "name": "TransferSingle",
      "type": "event"
    },
    {
      "anonymous": false,
      "inputs": [
        {
          "indexed": false,
          "internalType": "string",
          "name": "value",
          "type": "string"
        },
        {
          "indexed": true,
          "internalType": "uint256",
          "name": "id",
          "type": "uint256"
        }
      ],
      "name": "URI",
      "type": "event"
    },
    {
      "inputs": [],
      "name": "DEFAULT_ADMIN_ROLE",
      "outputs": [
        {
          "internalType": "bytes32",
          "name": "",
          "type": "bytes32"
        }
      ],
      "stateMutability": "view",
      "type": "function"
    },
    {
      "inputs": [],
      "name": "balance",
      "outputs": [
        {
          "internalType": "uint256",
          "name": "",
          "type": "uint256"
        }
      ],
      "stateMutability": "view",
      "type": "function"
    },
    {
      "inputs": [
        {
          "internalType": "address",
          "name": "account",
          "type": "address"
        },
        {
          "internalType": "uint256",
          "name": "id",
          "type": "uint256"
        }
      ],
      "name": "balanceOf",
      "outputs": [
        {
          "internalType": "uint256",
          "name": "",
          "type": "uint256"
        }
      ],
      "stateMutability": "view",
      "type": "function"
    },
    {
      "inputs": [
        {
          "internalType": "address[]",
          "name": "accounts",
          "type": "address[]"
        },
        {
          "internalType": "uint256[]",
          "name": "ids",
          "type": "uint256[]"
        }
      ],
      "name": "balanceOfBatch",
      "outputs": [
        {
          "internalType": "uint256[]",
          "name": "",
          "type": "uint256[]"
        }
      ],
      "stateMutability": "view",
      "type": "function"
    },
    {
      "inputs": [
        {
          "internalType": "address",
          "name": "account",
          "type": "address"
        },
        {
          "internalType": "uint256",
          "name": "id",
          "type": "uint256"
        },
        {
          "internalType": "uint256",
          "name": "value",
          "type": "uint256"
        }
      ],
      "name": "burn",
      "outputs": [],
      "stateMutability": "nonpayable",
      "type": "function"
    },
    {
      "inputs": [
        {
          "internalType": "address",
          "name": "account",
          "type": "address"
        },
        {
          "internalType": "uint256[]",
          "name": "ids",
          "type": "uint256[]"
        },
        {
          "internalType": "uint256[]",
          "name": "values",
          "type": "uint256[]"
        }
      ],
      "name": "burnBatch",
      "outputs": [],
      "stateMutability": "nonpayable",
      "type": "function"
    },
    {
      "inputs": [
        {
          "internalType": "uint256",
          "name": "slotId",
          "type": "uint256"
        },
        {
          "internalType": "uint256",
          "name": "tickets",
          "type": "uint256"
        }
      ],
      "name": "buyTickets",
      "outputs": [],
      "stateMutability": "payable",
      "type": "function"
    },
    {
      "inputs": [
        {
          "internalType": "uint256",
          "name": "_slotId",
          "type": "uint256"
        }
      ],
      "name": "completeTickets",
      "outputs": [],
      "stateMutability": "nonpayable",
      "type": "function"
    },
    {
      "inputs": [
        {
          "internalType": "uint256",
          "name": "_slotId",
          "type": "uint256"
        }
      ],
      "name": "deleteTickets",
      "outputs": [],
      "stateMutability": "nonpayable",
      "type": "function"
    },
    {
      "inputs": [
        {
          "internalType": "bytes32",
          "name": "role",
          "type": "bytes32"
        }
      ],
      "name": "getRoleAdmin",
      "outputs": [
        {
          "internalType": "bytes32",
          "name": "",
          "type": "bytes32"
        }
      ],
      "stateMutability": "view",
      "type": "function"
    },
    {
      "inputs": [
        {
          "internalType": "uint256",
          "name": "slotId",
          "type": "uint256"
        }
      ],
      "name": "getTicketHolders",
      "outputs": [
        {
          "internalType": "address[]",
          "name": "Holders",
          "type": "address[]"
        }
      ],
      "stateMutability": "view",
      "type": "function"
    },
    {
      "inputs": [
        {
          "internalType": "bytes32",
          "name": "role",
          "type": "bytes32"
        },
        {
          "internalType": "address",
          "name": "account",
          "type": "address"
        }
      ],
      "name": "grantRole",
      "outputs": [],
      "stateMutability": "nonpayable",
      "type": "function"
    },
    {
      "inputs": [
        {
          "internalType": "bytes32",
          "name": "role",
          "type": "bytes32"
        },
        {
          "internalType": "address",
          "name": "account",
          "type": "address"
        }
      ],
      "name": "hasRole",
      "outputs": [
        {
          "internalType": "bool",
          "name": "",
          "type": "bool"
        }
      ],
      "stateMutability": "view",
      "type": "function"
    },
    {
      "inputs": [
        {
          "internalType": "address",
          "name": "account",
          "type": "address"
        },
        {
          "internalType": "address",
          "name": "operator",
          "type": "address"
        }
      ],
      "name": "isApprovedForAll",
      "outputs": [
        {
          "internalType": "bool",
          "name": "",
          "type": "bool"
        }
      ],
      "stateMutability": "view",
      "type": "function"
    },
    {
      "inputs": [],
      "name": "name",
      "outputs": [
        {
          "internalType": "string",
          "name": "",
          "type": "string"
        }
      ],
      "stateMutability": "view",
      "type": "function"
    },
    {
      "inputs": [],
      "name": "owner",
      "outputs": [
        {
          "internalType": "address",
          "name": "",
          "type": "address"
        }
      ],
      "stateMutability": "view",
      "type": "function"
    },
    {
      "inputs": [],
      "name": "renounceOwnership",
      "outputs": [],
      "stateMutability": "nonpayable",
      "type": "function"
    },
    {
      "inputs": [
        {
          "internalType": "bytes32",
          "name": "role",
          "type": "bytes32"
        },
        {
          "internalType": "address",
          "name": "account",
          "type": "address"
        }
      ],
      "name": "renounceRole",
      "outputs": [],
      "stateMutability": "nonpayable",
      "type": "function"
    },
    {
      "inputs": [
        {
          "internalType": "bytes32",
          "name": "role",
          "type": "bytes32"
        },
        {
          "internalType": "address",
          "name": "account",
          "type": "address"
        }
      ],
      "name": "revokeRole",
      "outputs": [],
      "stateMutability": "nonpayable",
      "type": "function"
    },
    {
      "inputs": [
        {
          "internalType": "address",
          "name": "from",
          "type": "address"
        },
        {
          "internalType": "address",
          "name": "to",
          "type": "address"
        },
        {
          "internalType": "uint256[]",
          "name": "ids",
          "type": "uint256[]"
        },
        {
          "internalType": "uint256[]",
          "name": "amounts",
          "type": "uint256[]"
        },
        {
          "internalType": "bytes",
          "name": "data",
          "type": "bytes"
        }
      ],
      "name": "safeBatchTransferFrom",
      "outputs": [],
      "stateMutability": "nonpayable",
      "type": "function"
    },
    {
      "inputs": [
        {
          "internalType": "address",
          "name": "from",
          "type": "address"
        },
        {
          "internalType": "address",
          "name": "to",
          "type": "address"
        },
        {
          "internalType": "uint256",
          "name": "id",
          "type": "uint256"
        },
        {
          "internalType": "uint256",
          "name": "amount",
          "type": "uint256"
        },
        {
          "internalType": "bytes",
          "name": "data",
          "type": "bytes"
        }
      ],
      "name": "safeTransferFrom",
      "outputs": [],
      "stateMutability": "nonpayable",
      "type": "function"
    },
    {
      "inputs": [
        {
          "internalType": "address",
          "name": "operator",
          "type": "address"
        },
        {
          "internalType": "bool",
          "name": "approved",
          "type": "bool"
        }
      ],
      "name": "setApprovalForAll",
      "outputs": [],
      "stateMutability": "nonpayable",
      "type": "function"
    },
    {
      "inputs": [
        {
          "internalType": "bytes4",
          "name": "interfaceId",
          "type": "bytes4"
        }
      ],
      "name": "supportsInterface",
      "outputs": [
        {
          "internalType": "bool",
          "name": "",
          "type": "bool"
        }
      ],
      "stateMutability": "view",
      "type": "function"
    },
    {
      "inputs": [],
      "name": "symbol",
      "outputs": [
        {
          "internalType": "string",
          "name": "",
          "type": "string"
        }
      ],
      "stateMutability": "view",
      "type": "function"
    },
    {
      "inputs": [
        {
          "internalType": "uint256",
          "name": "",
          "type": "uint256"
        }
      ],
      "name": "ticketBuild",
      "outputs": [
        {
          "internalType": "string",
          "name": "name",
          "type": "string"
        },
        {
          "internalType": "string",
          "name": "description",
          "type": "string"
        },
        {
          "internalType": "string",
          "name": "bgHue",
          "type": "string"
        },
        {
          "internalType": "string",
          "name": "textHue",
          "type": "string"
        },
        {
          "internalType": "string",
          "name": "value",
          "type": "string"
        },
        {
          "components": [
            {
              "internalType": "uint256",
              "name": "id",
              "type": "uint256"
            },
            {
              "internalType": "uint256",
              "name": "movieId",
              "type": "uint256"
            },
            {
              "internalType": "uint256",
              "name": "slotId",
              "type": "uint256"
            },
            {
              "internalType": "address",
              "name": "owner",
              "type": "address"
            },
            {
              "internalType": "uint256",
              "name": "cost",
              "type": "uint256"
            },
            {
              "internalType": "uint256",
              "name": "timestamp",
              "type": "uint256"
            },
            {
              "internalType": "uint256",
              "name": "day",
              "type": "uint256"
            },
            {
              "internalType": "bool",
              "name": "used",
              "type": "bool"
            },
            {
              "internalType": "bool",
              "name": "refunded",
              "type": "bool"
            }
          ],
          "internalType": "struct DappShared.TicketStruct",
          "name": "ticket",
          "type": "tuple"
        }
      ],
      "stateMutability": "view",
      "type": "function"
    },
    {
      "inputs": [
        {
          "internalType": "address",
          "name": "newOwner",
          "type": "address"
        }
      ],
      "name": "transferOwnership",
      "outputs": [],
      "stateMutability": "nonpayable",
      "type": "function"
    },
    {
      "inputs": [
        {
          "internalType": "uint256",
          "name": "tokenId",
          "type": "uint256"
        }
      ],
      "name": "uri",
      "outputs": [
        {
          "internalType": "string",
          "name": "",
          "type": "string"
        }
      ],
      "stateMutability": "view",
      "type": "function"
    },
    {
      "inputs": [
        {
          "internalType": "address",
          "name": "to",
          "type": "address"
        },
        {
          "internalType": "uint256",
          "name": "amount",
          "type": "uint256"
        }
      ],
      "name": "withdrawTo",
      "outputs": [],
      "stateMutability": "nonpayable",
      "type": "function"
    }
  ],
  "bytecode": "0x60806040523480156200001157600080fd5b5060405162004c0738038062004c078339810160408190526200003491620001c5565b6040805160208101909152600081526200004e816200009c565b506200005a33620000ae565b600680546001600160a01b0319166001600160a01b0385161790556008620000838382620002de565b506009620000928282620002de565b50505050620003aa565b6002620000aa8282620002de565b5050565b600380546001600160a01b038381166001600160a01b0319831681179093556040519116919082907f8be0079c531659141344cd1fd0a4f28419497f9722a3daafe3b4186f6b6457e090600090a35050565b634e487b7160e01b600052604160045260246000fd5b600082601f8301126200012857600080fd5b81516001600160401b038082111562000145576200014562000100565b604051601f8301601f19908116603f0116810190828211818310171562000170576200017062000100565b816040528381526020925086838588010111156200018d57600080fd5b600091505b83821015620001b1578582018301518183018401529082019062000192565b600093810190920192909252949350505050565b600080600060608486031215620001db57600080fd5b83516001600160a01b0381168114620001f357600080fd5b60208501519093506001600160401b03808211156200021157600080fd5b6200021f8783880162000116565b935060408601519150808211156200023657600080fd5b50620002458682870162000116565b9150509250925092565b600181811c908216806200026457607f821691505b6020821081036200028557634e487b7160e01b600052602260045260246000fd5b50919050565b601f821115620002d957600081815260208120601f850160051c81016020861015620002b45750805b601f850160051c820191505b81811015620002d557828155600101620002c0565b5050505b505050565b81516001600160401b03811115620002fa57620002fa62000100565b62000312816200030b84546200024f565b846200028b565b602080601f8311600181146200034a5760008415620003315750858301515b600019600386901b1c1916600185901b178555620002d5565b600085815260208120601f198616915b828110156200037b578886015182559484019460019091019084016200035a565b50858210156200039a5787850151600019600388901b60f8161c191681555b5050505050600190811b01905550565b61484d80620003ba6000396000f3fe6080604052600436106101b55760003560e01c8063715018a6116100ec578063a70b725e1161008a578063e985e9c511610064578063e985e9c5146104f1578063f242432a1461053a578063f2fde38b1461055a578063f5298aca1461057a57600080fd5b8063a70b725e1461049b578063b69ef8a8146104bb578063d547741f146104d157600080fd5b806391d14854116100c657806391d148541461043157806395d89b4114610451578063a217fddf14610466578063a22cb4651461047b57600080fd5b8063715018a6146103e15780638627df46146103f65780638da5cb5b1461040957600080fd5b8063248a9ca31161015957806336568abe1161013357806336568abe1461034257806340b882cf146103625780634e1273f4146103945780636b20c454146103c157600080fd5b8063248a9ca3146102d25780632eb2c2d6146103025780632f2ff15d1461032257600080fd5b806306fdde031161019557806306fdde031461024e5780630e89341c14610270578063205c28781461029057806322c79ffb146102b257600080fd5b80622a5cc9146101ba578062fdd58e146101f057806301ffc9a71461021e575b600080fd5b3480156101c657600080fd5b506101da6101d53660046135d0565b61059a565b6040516101e791906135e9565b60405180910390f35b3480156101fc57600080fd5b5061021061020b366004613652565b610708565b6040519081526020016101e7565b34801561022a57600080fd5b5061023e610239366004613692565b6107a1565b60405190151581526020016101e7565b34801561025a57600080fd5b506102636107ac565b6040516101e791906136ff565b34801561027c57600080fd5b5061026361028b3660046135d0565b61083a565b34801561029c57600080fd5b506102b06102ab366004613652565b610845565b005b3480156102be57600080fd5b506102b06102cd3660046135d0565b6108b9565b3480156102de57600080fd5b506102106102ed3660046135d0565b60009081526004602052604090206001015490565b34801561030e57600080fd5b506102b061031d366004613884565b610982565b34801561032e57600080fd5b506102b061033d36600461392d565b6109ce565b34801561034e57600080fd5b506102b061035d36600461392d565b6109f8565b34801561036e57600080fd5b5061038261037d3660046135d0565b610a72565b6040516101e796959493929190613959565b3480156103a057600080fd5b506103b46103af366004613a40565b610dc3565b6040516101e79190613b45565b3480156103cd57600080fd5b506102b06103dc366004613b58565b610eec565b3480156103ed57600080fd5b506102b0610f2f565b6102b0610404366004613bcb565b610f43565b34801561041557600080fd5b506003546040516001600160a01b0390911681526020016101e7565b34801561043d57600080fd5b5061023e61044c36600461392d565b61150b565b34801561045d57600080fd5b50610263611536565b34801561047257600080fd5b50610210600081565b34801561048757600080fd5b506102b0610496366004613bfb565b611543565b3480156104a757600080fd5b506102b06104b63660046135d0565b61154e565b3480156104c757600080fd5b5061021060075481565b3480156104dd57600080fd5b506102b06104ec36600461392d565b61160f565b3480156104fd57600080fd5b5061023e61050c366004613c32565b6001600160a01b03918216600090815260016020908152604080832093909416825291909152205460ff1690565b34801561054657600080fd5b506102b0610555366004613c5c565b611634565b34801561056657600080fd5b506102b0610575366004613cc0565b611679565b34801561058657600080fd5b506102b0610595366004613cdb565b6116f2565b6060600060015b6005548111610606576000818152600b6020526040902060070154841480156105e157506000818152600b60205260409020600c0154610100900460ff16155b156105f457816105f081613d24565b9250505b806105fe81613d24565b9150506105a1565b50806001600160401b0381111561061f5761061f613712565b604051908082528060200260200182016040528015610648578160200160208202803683370190505b509150600060015b6005548111610700576000818152600b60205260409020600701548514801561069057506000818152600b60205260409020600c0154610100900460ff16155b156106ee576000818152600b60205260409020600801546001600160a01b031684836106bb81613d24565b9450815181106106cd576106cd613d3d565b60200260200101906001600160a01b031690816001600160a01b0316815250505b806106f881613d24565b915050610650565b505050919050565b60006001600160a01b0383166107785760405162461bcd60e51b815260206004820152602a60248201527f455243313135353a2061646472657373207a65726f206973206e6f742061207660448201526930b634b21037bbb732b960b11b60648201526084015b60405180910390fd5b506000818152602081815260408083206001600160a01b03861684529091529020545b92915050565b600061079b82611735565b600880546107b990613d53565b80601f01602080910402602001604051908101604052809291908181526020018280546107e590613d53565b80156108325780601f1061080757610100808354040283529160200191610832565b820191906000526020600020905b81548152906001019060200180831161081557829003601f168201915b505050505081565b606061079b8261175a565b61084d611b48565b8060075410156108935760405162461bcd60e51b8152602060048201526011602482015270125b9cdd59999a58da595b9d08199d5b99607a1b604482015260640161076f565b80600760008282546108a59190613d8d565b909155506108b590508282611ba2565b5050565b6108c1611b48565b60065460405163b6da3f0960e01b8152600481018390526001600160a01b039091169063b6da3f0990602401600060405180830381600087803b15801561090757600080fd5b505af115801561091b573d6000803e3d6000fd5b5050505061092881611c02565b7f8b2c14fe955d044ef95ba32b88d2ceb87c6f73fcefdcebe906063a6d75690f27604051610977906020808252600d908201526c151a58dad95d1cc8189d5c9b9d609a1b604082015260600190565b60405180910390a150565b6001600160a01b03851633148061099e575061099e853361050c565b6109ba5760405162461bcd60e51b815260040161076f90613da0565b6109c78585858585611d46565b5050505050565b6000828152600460205260409020600101546109e981611ee2565b6109f38383611eec565b505050565b6001600160a01b0381163314610a685760405162461bcd60e51b815260206004820152602f60248201527f416363657373436f6e74726f6c3a2063616e206f6e6c792072656e6f756e636560448201526e103937b632b9903337b91039b2b63360891b606482015260840161076f565b6108b58282611f72565b600b60205260009081526040902080548190610a8d90613d53565b80601f0160208091040260200160405190810160405280929190818152602001828054610ab990613d53565b8015610b065780601f10610adb57610100808354040283529160200191610b06565b820191906000526020600020905b815481529060010190602001808311610ae957829003601f168201915b505050505090806001018054610b1b90613d53565b80601f0160208091040260200160405190810160405280929190818152602001828054610b4790613d53565b8015610b945780601f10610b6957610100808354040283529160200191610b94565b820191906000526020600020905b815481529060010190602001808311610b7757829003601f168201915b505050505090806002018054610ba990613d53565b80601f0160208091040260200160405190810160405280929190818152602001828054610bd590613d53565b8015610c225780601f10610bf757610100808354040283529160200191610c22565b820191906000526020600020905b815481529060010190602001808311610c0557829003601f168201915b505050505090806003018054610c3790613d53565b80601f0160208091040260200160405190810160405280929190818152602001828054610c6390613d53565b8015610cb05780601f10610c8557610100808354040283529160200191610cb0565b820191906000526020600020905b815481529060010190602001808311610c9357829003601f168201915b505050505090806004018054610cc590613d53565b80601f0160208091040260200160405190810160405280929190818152602001828054610cf190613d53565b8015610d3e5780601f10610d1357610100808354040283529160200191610d3e565b820191906000526020600020905b815481529060010190602001808311610d2157829003601f168201915b50506040805161012081018252600587015481526006870154602082015260078701549181019190915260088601546001600160a01b0316606082015260098601546080820152600a86015460a0820152600b86015460c0820152600c9095015460ff808216151560e088015261010091829004161515908601525091929150879050565b60608151835114610e285760405162461bcd60e51b815260206004820152602960248201527f455243313135353a206163636f756e747320616e6420696473206c656e677468604482015268040dad2e6dac2e8c6d60bb1b606482015260840161076f565b600083516001600160401b03811115610e4357610e43613712565b604051908082528060200260200182016040528015610e6c578160200160208202803683370190505b50905060005b8451811015610ee457610eb7858281518110610e9057610e90613d3d565b6020026020010151858381518110610eaa57610eaa613d3d565b6020026020010151610708565b828281518110610ec957610ec9613d3d565b6020908102919091010152610edd81613d24565b9050610e72565b509392505050565b6001600160a01b038316331480610f085750610f08833361050c565b610f245760405162461bcd60e51b815260040161076f90613da0565b6109f3838383611fd9565b610f37611b48565b610f416000612164565b565b60065460405163358cc11560e21b81526004810184905282916001600160a01b03169063d63304549060240161016060405180830381865afa158015610f8d573d6000803e3d6000fd5b505050506040513d601f19601f82011682018060405250810190610fb19190613df9565b60400151610fbf9190613e96565b3410156110045760405162461bcd60e51b8152602060048201526013602482015272125b9cdd59999a58da595b9d08185b5bdd5b9d606a1b604482015260640161076f565b60065460405163358cc11560e21b8152600481018490526001600160a01b039091169063d63304549060240161016060405180830381865afa15801561104e573d6000803e3d6000fd5b505050506040513d601f19601f820116820180604052508101906110729190613df9565b60c0015160065460405163358cc11560e21b8152600481018590526001600160a01b039091169063d63304549060240161016060405180830381865afa1580156110c0573d6000803e3d6000fd5b505050506040513d601f19601f820116820180604052508101906110e49190613df9565b60a00151116111275760405162461bcd60e51b815260206004820152600f60248201526e4f7574206f6620636170616369747960881b604482015260640161076f565b60005b8181101561138257611140600580546001019055565b61119c60405180610120016040528060008152602001600081526020016000815260200160006001600160a01b031681526020016000815260200160008152602001600081526020016000151581526020016000151581525090565b600554815260065460405163358cc11560e21b8152600481018690526001600160a01b039091169063d63304549060240161016060405180830381865afa1580156111eb573d6000803e3d6000fd5b505050506040513d601f19601f8201168201806040525081019061120f9190613df9565b6040908101516080830152600654905163358cc11560e21b8152600481018690526001600160a01b039091169063d63304549060240161016060405180830381865afa158015611263573d6000803e3d6000fd5b505050506040513d601f19601f820116820180604052508101906112879190613df9565b610120015160c0820152604081018490523360608201526112a66121b6565b60a0820190815281516000908152600b602081815260408084208651600582015582870151600682015581870151600782015560608701516008820180546001600160a01b039092166001600160a01b0319928316179055608088015160098301559551600a82015560c08701519381019390935560e0860151600c938401805461010098890151151590980261ff00199215159290921661ffff19909816979097171790955587835290815292812080546001810182559082529290209091018054909116331790558061137a81613d24565b91505061112a565b5060065460405163358cc11560e21b81526004810184905282916001600160a01b03169063d63304549060240161016060405180830381865afa1580156113cd573d6000803e3d6000fd5b505050506040513d601f19601f820116820180604052508101906113f19190613df9565b60c0018181516114019190613ead565b90525060065460405163358cc11560e21b81526004810184905282916001600160a01b03169063d63304549060240161016060405180830381865afa15801561144e573d6000803e3d6000fd5b505050506040513d601f19601f820116820180604052508101906114729190613df9565b604001516114809190613e96565b60065460405163358cc11560e21b8152600481018590526001600160a01b039091169063d63304549060240161016060405180830381865afa1580156114ca573d6000803e3d6000fd5b505050506040513d601f19601f820116820180604052508101906114ee9190613df9565b610140018181516114ff9190613ead565b9052506108b5816121d1565b60009182526004602090815260408084206001600160a01b0393909316845291905290205460ff1690565b600980546107b990613d53565b6108b5338383612420565b611556611b48565b600654604051633b6559c160e01b8152600481018390526001600160a01b0390911690633b6559c190602401600060405180830381600087803b15801561159c57600080fd5b505af11580156115b0573d6000803e3d6000fd5b505050506115bd81612500565b7f8b2c14fe955d044ef95ba32b88d2ceb87c6f73fcefdcebe906063a6d75690f276040516109779060208082526010908201526f151a58dad95d1cc81c99599d5b99195960821b604082015260600190565b60008281526004602052604090206001015461162a81611ee2565b6109f38383611f72565b6001600160a01b0385163314806116505750611650853361050c565b61166c5760405162461bcd60e51b815260040161076f90613da0565b6109c7858585858561265b565b611681611b48565b6001600160a01b0381166116e65760405162461bcd60e51b815260206004820152602660248201527f4f776e61626c653a206e6577206f776e657220697320746865207a65726f206160448201526564647265737360d01b606482015260840161076f565b6116ef81612164565b50565b6001600160a01b03831633148061170e575061170e833361050c565b61172a5760405162461bcd60e51b815260040161076f90613da0565b6109f3838383612785565b60006001600160e01b03198216637965db0b60e01b148061079b575061079b8261288e565b60606000600b60008481526020019081526020016000206040518060c001604052908160008201805461178c90613d53565b80601f01602080910402602001604051908101604052809291908181526020018280546117b890613d53565b80156118055780601f106117da57610100808354040283529160200191611805565b820191906000526020600020905b8154815290600101906020018083116117e857829003601f168201915b5050505050815260200160018201805461181e90613d53565b80601f016020809104026020016040519081016040528092919081815260200182805461184a90613d53565b80156118975780601f1061186c57610100808354040283529160200191611897565b820191906000526020600020905b81548152906001019060200180831161187a57829003601f168201915b505050505081526020016002820180546118b090613d53565b80601f01602080910402602001604051908101604052809291908181526020018280546118dc90613d53565b80156119295780601f106118fe57610100808354040283529160200191611929565b820191906000526020600020905b81548152906001019060200180831161190c57829003601f168201915b5050505050815260200160038201805461194290613d53565b80601f016020809104026020016040519081016040528092919081815260200182805461196e90613d53565b80156119bb5780601f10611990576101008083540402835291602001916119bb565b820191906000526020600020905b81548152906001019060200180831161199e57829003601f168201915b505050505081526020016004820180546119d490613d53565b80601f0160208091040260200160405190810160405280929190818152602001828054611a0090613d53565b8015611a4d5780601f10611a2257610100808354040283529160200191611a4d565b820191906000526020600020905b815481529060010190602001808311611a3057829003601f168201915b5050509183525050604080516101208101825260058401548152600684015460208281019190915260078501549282019290925260088401546001600160a01b0316606082015260098401546080820152600a84015460a0820152600b84015460c0820152600c9093015460ff808216151560e0860152610100918290041615159084015290810191909152815190820151919250611b2191611aef866128de565b84604001518560600151604051602001611b0d959493929190613edc565b604051602081830303815290604052612c8a565b604051602001611b319190614058565b604051602081830303815290604052915050919050565b6003546001600160a01b03163314610f415760405162461bcd60e51b815260206004820181905260248201527f4f776e61626c653a2063616c6c6572206973206e6f7420746865206f776e6572604482015260640161076f565b6000826001600160a01b03168260405160006040518083038185875af1925050503d8060008114611bef576040519150601f19603f3d011682016040523d82523d6000602084013e611bf4565b606091505b50509050806109f357600080fd5b611c0a611b48565b60065460405163358cc11560e21b81526004810183905282916001600160a01b03169063d63304549060240161016060405180830381865afa158015611c54573d6000803e3d6000fd5b505050506040513d601f19601f82011682018060405250810190611c789190613df9565b5114611cb75760405162461bcd60e51b815260206004820152600e60248201526d14db1bdd081b9bdd08199bdd5b9960921b604482015260640161076f565b60015b60055481116108b5576000818152600b602052604090206005015481148015611cf557506000818152600b60205260409020600c015460ff16155b15611d34576000818152600b60205260408120600c8101805460ff19166001179055600901546007805491929091611d2e908490613ead565b90915550505b80611d3e81613d24565b915050611cba565b8151835114611d675760405162461bcd60e51b815260040161076f9061409d565b6001600160a01b038416611d8d5760405162461bcd60e51b815260040161076f906140e5565b3360005b8451811015611e74576000858281518110611dae57611dae613d3d565b602002602001015190506000858381518110611dcc57611dcc613d3d565b602090810291909101810151600084815280835260408082206001600160a01b038e168352909352919091205490915081811015611e1c5760405162461bcd60e51b815260040161076f9061412a565b6000838152602081815260408083206001600160a01b038e8116855292528083208585039055908b16825281208054849290611e59908490613ead565b9250508190555050505080611e6d90613d24565b9050611d91565b50846001600160a01b0316866001600160a01b0316826001600160a01b03167f4a39dc06d4c0dbc64b70af90fd698a233a518aa5d07e595d983b8c0526c8f7fb8787604051611ec4929190614174565b60405180910390a4611eda818787878787612df0565b505050505050565b6116ef8133612f4b565b611ef6828261150b565b6108b55760008281526004602090815260408083206001600160a01b03851684529091529020805460ff19166001179055611f2e3390565b6001600160a01b0316816001600160a01b0316837f2f8788117e7eff1d82e926ec794901d17c78024a50270940304540a733656f0d60405160405180910390a45050565b611f7c828261150b565b156108b55760008281526004602090815260408083206001600160a01b0385168085529252808320805460ff1916905551339285917ff6391f5c32d9c69d2a47ea670b442974b53935d1edc7fd64eb21e047a839171b9190a45050565b6001600160a01b038316611fff5760405162461bcd60e51b815260040161076f90614199565b80518251146120205760405162461bcd60e51b815260040161076f9061409d565b604080516020810190915260009081905233905b83518110156120f657600084828151811061205157612051613d3d565b60200260200101519050600084838151811061206f5761206f613d3d565b602090810291909101810151600084815280835260408082206001600160a01b038c1683529093529190912054909150818110156120bf5760405162461bcd60e51b815260040161076f906141dc565b6000928352602083815260408085206001600160a01b038b16865290915290922091039055806120ee81613d24565b915050612034565b5060006001600160a01b0316846001600160a01b0316826001600160a01b03167f4a39dc06d4c0dbc64b70af90fd698a233a518aa5d07e595d983b8c0526c8f7fb8686604051612147929190614174565b60405180910390a460408051602081019091526000905250505050565b600380546001600160a01b038381166001600160a01b0319831681179093556040519116919082907f8be0079c531659141344cd1fd0a4f28419497f9722a3daafe3b4186f6b6457e090600090a35050565b6000806121c5426103e8613e96565b61079b906103e8613ead565b6000816001600160401b038111156121eb576121eb613712565b604051908082528060200260200182016040528015612214578160200160208202803683370190505b5090506000826001600160401b0381111561223157612231613712565b60405190808252806020026020018201604052801561225a578160200160208202803683370190505b50905060008361226960055490565b6122739190613d8d565b905060005b848110156123ed578161228a81613d24565b925050600061229883612fa4565b90506000816040516020016122ad9190614220565b60408051601f19818403018152606083019091526031808352909250600091906147a760208301396000868152600b602052604090209091506122f08382614293565b506000858152600b6020526040902060010161230c8282614293565b5061232961232461016961231e6121b6565b88613036565b612fa4565b6000868152600b60205260409020600201906123459082614293565b506123566123246101694288613036565b6000868152600b60205260409020600301906123729082614293565b506000858152600b6020526040902060040161238e8382614293565b506123988561309e565b848785815181106123ab576123ab613d3d565b60200260200101818152505060018685815181106123cb576123cb613d3d565b60200260200101818152505050505080806123e590613d24565b915050612278565b5060008383604051602001612403929190614377565b60405160208183030381529060405290506109c7338585846130c0565b816001600160a01b0316836001600160a01b0316036124935760405162461bcd60e51b815260206004820152602960248201527f455243313135353a2073657474696e6720617070726f76616c20737461747573604482015268103337b91039b2b63360b91b606482015260840161076f565b6001600160a01b03838116600081815260016020908152604080832094871680845294825291829020805460ff191686151590811790915591519182527f17307eab39ab6107e8899845ad3d59bd9653f200f220920489ca2b5937696c31910160405180910390a3505050565b612508611b48565b60065460405163358cc11560e21b81526004810183905282916001600160a01b03169063d63304549060240161016060405180830381865afa158015612552573d6000803e3d6000fd5b505050506040513d601f19601f820116820180604052508101906125769190613df9565b51146125b55760405162461bcd60e51b815260206004820152600e60248201526d14db1bdd081b9bdd08199bdd5b9960921b604482015260640161076f565b60015b60055481116108b5576000818152600b60205260409020600581015460098201546008909201549091906001600160a01b0316828414801561260c57506000848152600b60205260409020600c015460ff16155b15612645576000848152600b60205260409020600c01805461ff0019166101001790556126398183611ba2565b61264581846001612785565b505050808061265390613d24565b9150506125b8565b6001600160a01b0384166126815760405162461bcd60e51b815260040161076f906140e5565b33600061268d85613245565b9050600061269a85613245565b90506000868152602081815260408083206001600160a01b038c168452909152902054858110156126dd5760405162461bcd60e51b815260040161076f9061412a565b6000878152602081815260408083206001600160a01b038d8116855292528083208985039055908a1682528120805488929061271a908490613ead565b909155505060408051888152602081018890526001600160a01b03808b16928c821692918816917fc3d58168c5ae7397731d063d5bbf3d657854427343f4c083240f7aacaa2d0f62910160405180910390a461277a848a8a8a8a8a613290565b505050505050505050565b6001600160a01b0383166127ab5760405162461bcd60e51b815260040161076f90614199565b3360006127b784613245565b905060006127c484613245565b60408051602080820183526000918290528882528181528282206001600160a01b038b16835290522054909150848110156128115760405162461bcd60e51b815260040161076f906141dc565b6000868152602081815260408083206001600160a01b038b81168086529184528285208a8703905582518b81529384018a90529092908816917fc3d58168c5ae7397731d063d5bbf3d657854427343f4c083240f7aacaa2d0f62910160405180910390a46040805160208101909152600090525b50505050505050565b60006001600160e01b03198216636cdb3d1360e11b14806128bf57506001600160e01b031982166303a24d0760e21b145b8061079b57506301ffc9a760e01b6001600160e01b031983161461079b565b60606000600b60008481526020019081526020016000206040518060c001604052908160008201805461291090613d53565b80601f016020809104026020016040519081016040528092919081815260200182805461293c90613d53565b80156129895780601f1061295e57610100808354040283529160200191612989565b820191906000526020600020905b81548152906001019060200180831161296c57829003601f168201915b505050505081526020016001820180546129a290613d53565b80601f01602080910402602001604051908101604052809291908181526020018280546129ce90613d53565b8015612a1b5780601f106129f057610100808354040283529160200191612a1b565b820191906000526020600020905b8154815290600101906020018083116129fe57829003601f168201915b50505050508152602001600282018054612a3490613d53565b80601f0160208091040260200160405190810160405280929190818152602001828054612a6090613d53565b8015612aad5780601f10612a8257610100808354040283529160200191612aad565b820191906000526020600020905b815481529060010190602001808311612a9057829003601f168201915b50505050508152602001600382018054612ac690613d53565b80601f0160208091040260200160405190810160405280929190818152602001828054612af290613d53565b8015612b3f5780601f10612b1457610100808354040283529160200191612b3f565b820191906000526020600020905b815481529060010190602001808311612b2257829003601f168201915b50505050508152602001600482018054612b5890613d53565b80601f0160208091040260200160405190810160405280929190818152602001828054612b8490613d53565b8015612bd15780601f10612ba657610100808354040283529160200191612bd1565b820191906000526020600020905b815481529060010190602001808311612bb457829003601f168201915b5050509183525050604080516101208101825260058401548152600684015460208281019190915260078501548284015260088501546001600160a01b03166060808401919091526009860154608080850191909152600a87015460a0850152600b87015460c0850152600c9096015460ff808216151560e08601526101009182900416151590840152938101919091528482015192850151938501519151949550612c8394611b0d94929101614394565b9392505050565b60608151600003612ca957505060408051602081019091526000815290565b60006040518060600160405280604081526020016147d86040913990506000600384516002612cd89190613ead565b612ce29190614550565b612ced906004613e96565b90506000612cfc826020613ead565b6001600160401b03811115612d1357612d13613712565b6040519080825280601f01601f191660200182016040528015612d3d576020820181803683370190505b509050818152600183018586518101602084015b81831015612dab5760039283018051603f601282901c811687015160f890811b8552600c83901c8216880151811b6001860152600683901c8216880151811b60028601529116860151901b93820193909352600401612d51565b600389510660018114612dc55760028114612dd657612de2565b613d3d60f01b600119830152612de2565b603d60f81b6000198301525b509398975050505050505050565b6001600160a01b0384163b15611eda5760405163bc197c8160e01b81526001600160a01b0385169063bc197c8190612e349089908990889088908890600401614564565b6020604051808303816000875af1925050508015612e6f575060408051601f3d908101601f19168201909252612e6c918101906145c2565b60015b612f1b57612e7b6145df565b806308c379a003612eb45750612e8f6145fb565b80612e9a5750612eb6565b8060405162461bcd60e51b815260040161076f91906136ff565b505b60405162461bcd60e51b815260206004820152603460248201527f455243313135353a207472616e7366657220746f206e6f6e2d455243313135356044820152732932b1b2b4bb32b91034b6b83632b6b2b73a32b960611b606482015260840161076f565b6001600160e01b0319811663bc197c8160e01b146128855760405162461bcd60e51b815260040161076f90614684565b612f55828261150b565b6108b557612f628161334b565b612f6d83602061335d565b604051602001612f7e9291906146cc565b60408051601f198184030181529082905262461bcd60e51b825261076f916004016136ff565b60606000612fb1836134f8565b60010190506000816001600160401b03811115612fd057612fd0613712565b6040519080825280601f01601f191660200182016040528015612ffa576020820181803683370190505b5090508181016020015b600019016f181899199a1a9b1b9c1cb0b131b232b360811b600a86061a8153600a850494508461300457509392505050565b604080514260208201526bffffffffffffffffffffffff193360601b16918101919091526054810183905260748101829052600090819085906094016040516020818303038152906040528051906020012060001c6130959190614741565b95945050505050565b6130a78161083a565b6000828152600a60205260409020906108b59082614293565b6001600160a01b0384166131205760405162461bcd60e51b815260206004820152602160248201527f455243313135353a206d696e7420746f20746865207a65726f206164647265736044820152607360f81b606482015260840161076f565b81518351146131415760405162461bcd60e51b815260040161076f9061409d565b3360005b84518110156131dd5783818151811061316057613160613d3d565b602002602001015160008087848151811061317d5761317d613d3d565b602002602001015181526020019081526020016000206000886001600160a01b03166001600160a01b0316815260200190815260200160002060008282546131c59190613ead565b909155508190506131d581613d24565b915050613145565b50846001600160a01b031660006001600160a01b0316826001600160a01b03167f4a39dc06d4c0dbc64b70af90fd698a233a518aa5d07e595d983b8c0526c8f7fb878760405161322e929190614174565b60405180910390a46109c781600087878787612df0565b6040805160018082528183019092526060916000919060208083019080368337019050509050828160008151811061327f5761327f613d3d565b602090810291909101015292915050565b6001600160a01b0384163b15611eda5760405163f23a6e6160e01b81526001600160a01b0385169063f23a6e61906132d49089908990889088908890600401614755565b6020604051808303816000875af192505050801561330f575060408051601f3d908101601f1916820190925261330c918101906145c2565b60015b61331b57612e7b6145df565b6001600160e01b0319811663f23a6e6160e01b146128855760405162461bcd60e51b815260040161076f90614684565b606061079b6001600160a01b03831660145b6060600061336c836002613e96565b613377906002613ead565b6001600160401b0381111561338e5761338e613712565b6040519080825280601f01601f1916602001820160405280156133b8576020820181803683370190505b509050600360fc1b816000815181106133d3576133d3613d3d565b60200101906001600160f81b031916908160001a905350600f60fb1b8160018151811061340257613402613d3d565b60200101906001600160f81b031916908160001a9053506000613426846002613e96565b613431906001613ead565b90505b60018111156134a9576f181899199a1a9b1b9c1cb0b131b232b360811b85600f166010811061346557613465613d3d565b1a60f81b82828151811061347b5761347b613d3d565b60200101906001600160f81b031916908160001a90535060049490941c936134a28161478f565b9050613434565b508315612c835760405162461bcd60e51b815260206004820181905260248201527f537472696e67733a20686578206c656e67746820696e73756666696369656e74604482015260640161076f565b60008072184f03e93ff9f4daa797ed6e38ed64bf6a1f0160401b83106135375772184f03e93ff9f4daa797ed6e38ed64bf6a1f0160401b830492506040015b6d04ee2d6d415b85acef81000000008310613563576d04ee2d6d415b85acef8100000000830492506020015b662386f26fc10000831061358157662386f26fc10000830492506010015b6305f5e1008310613599576305f5e100830492506008015b61271083106135ad57612710830492506004015b606483106135bf576064830492506002015b600a831061079b5760010192915050565b6000602082840312156135e257600080fd5b5035919050565b6020808252825182820181905260009190848201906040850190845b8181101561362a5783516001600160a01b031683529284019291840191600101613605565b50909695505050505050565b80356001600160a01b038116811461364d57600080fd5b919050565b6000806040838503121561366557600080fd5b61366e83613636565b946020939093013593505050565b6001600160e01b0319811681146116ef57600080fd5b6000602082840312156136a457600080fd5b8135612c838161367c565b60005b838110156136ca5781810151838201526020016136b2565b50506000910152565b600081518084526136eb8160208601602086016136af565b601f01601f19169290920160200192915050565b602081526000612c8360208301846136d3565b634e487b7160e01b600052604160045260246000fd5b601f8201601f191681016001600160401b038111828210171561374d5761374d613712565b6040525050565b60405161016081016001600160401b038111828210171561377757613777613712565b60405290565b60006001600160401b0382111561379657613796613712565b5060051b60200190565b600082601f8301126137b157600080fd5b813560206137be8261377d565b6040516137cb8282613728565b83815260059390931b85018201928281019150868411156137eb57600080fd5b8286015b8481101561380657803583529183019183016137ef565b509695505050505050565b600082601f83011261382257600080fd5b81356001600160401b0381111561383b5761383b613712565b604051613852601f8301601f191660200182613728565b81815284602083860101111561386757600080fd5b816020850160208301376000918101602001919091529392505050565b600080600080600060a0868803121561389c57600080fd5b6138a586613636565b94506138b360208701613636565b935060408601356001600160401b03808211156138cf57600080fd5b6138db89838a016137a0565b945060608801359150808211156138f157600080fd5b6138fd89838a016137a0565b9350608088013591508082111561391357600080fd5b5061392088828901613811565b9150509295509295909350565b6000806040838503121561394057600080fd5b8235915061395060208401613636565b90509250929050565b60006101c080835261396d8184018a6136d3565b9050828103602084015261398181896136d3565b9050828103604084015261399581886136d3565b905082810360608401526139a981876136d3565b905082810360808401526139bd81866136d3565b915050825160a0830152602083015160c0830152604083015160e0830152606083015161010060018060a01b03821681850152608085015161012085015260a085015161014085015260c085015161016085015260e0850151151561018085015280850151915050613a346101a084018215159052565b50979650505050505050565b60008060408385031215613a5357600080fd5b82356001600160401b0380821115613a6a57600080fd5b818501915085601f830112613a7e57600080fd5b81356020613a8b8261377d565b604051613a988282613728565b83815260059390931b8501820192828101915089841115613ab857600080fd5b948201945b83861015613add57613ace86613636565b82529482019490820190613abd565b96505086013592505080821115613af357600080fd5b50613b00858286016137a0565b9150509250929050565b600081518084526020808501945080840160005b83811015613b3a57815187529582019590820190600101613b1e565b509495945050505050565b602081526000612c836020830184613b0a565b600080600060608486031215613b6d57600080fd5b613b7684613636565b925060208401356001600160401b0380821115613b9257600080fd5b613b9e878388016137a0565b93506040860135915080821115613bb457600080fd5b50613bc1868287016137a0565b9150509250925092565b60008060408385031215613bde57600080fd5b50508035926020909101359150565b80151581146116ef57600080fd5b60008060408385031215613c0e57600080fd5b613c1783613636565b91506020830135613c2781613bed565b809150509250929050565b60008060408385031215613c4557600080fd5b613c4e83613636565b915061395060208401613636565b600080600080600060a08688031215613c7457600080fd5b613c7d86613636565b9450613c8b60208701613636565b9350604086013592506060860135915060808601356001600160401b03811115613cb457600080fd5b61392088828901613811565b600060208284031215613cd257600080fd5b612c8382613636565b600080600060608486031215613cf057600080fd5b613cf984613636565b95602085013595506040909401359392505050565b634e487b7160e01b600052601160045260246000fd5b600060018201613d3657613d36613d0e565b5060010190565b634e487b7160e01b600052603260045260246000fd5b600181811c90821680613d6757607f821691505b602082108103613d8757634e487b7160e01b600052602260045260246000fd5b50919050565b8181038181111561079b5761079b613d0e565b6020808252602e908201527f455243313135353a2063616c6c6572206973206e6f7420746f6b656e206f776e60408201526d195c881bdc88185c1c1c9bdd995960921b606082015260800190565b805161364d81613bed565b60006101608284031215613e0c57600080fd5b613e14613754565b825181526020830151602082015260408301516040820152606083015160608201526080830151608082015260a083015160a082015260c083015160c0820152613e6060e08401613dee565b60e0820152610100613e73818501613dee565b908201526101208381015190820152610140928301519281019290925250919050565b808202811582820484141761079b5761079b613d0e565b8082018082111561079b5761079b613d0e565b60008151613ed28185602086016136af565b9290920192915050565b683d913730b6b2911d1160b91b81528551600090613f01816009850160208b016136af565b71111610113232b9b1b934b83a34b7b7111d1160711b6009918401918201528651613f3381601b840160208b016136af565b6c1116101134b6b0b3b2911d101160991b601b92909101918201527f646174613a696d6167652f7376672b786d6c3b6261736536342c00000000000060288201528551613f87816042840160208a016136af565b7f222c202261747472696275746573223a205b7b2274726169745f74797065223a604292909101918201527f20224261636b67726f756e6420487565222c202276616c7565223a202200000060628201528451613feb81607f8401602089016136af565b61404b61403b614035607f848601017f227d2c207b2274726169745f74797065223a20225465787420487565222c20228152683b30b63ab2911d101160b91b602082015260290190565b87613ec0565b63227d5d7d60e01b815260040190565b9998505050505050505050565b7f646174613a6170706c69636174696f6e2f6a736f6e3b6261736536342c00000081526000825161409081601d8501602087016136af565b91909101601d0192915050565b60208082526028908201527f455243313135353a2069647320616e6420616d6f756e7473206c656e677468206040820152670dad2e6dac2e8c6d60c31b606082015260800190565b60208082526025908201527f455243313135353a207472616e7366657220746f20746865207a65726f206164604082015264647265737360d81b606082015260800190565b6020808252602a908201527f455243313135353a20696e73756666696369656e742062616c616e636520666f60408201526939103a3930b739b332b960b11b606082015260800190565b6040815260006141876040830185613b0a565b82810360208401526130958185613b0a565b60208082526023908201527f455243313135353a206275726e2066726f6d20746865207a65726f206164647260408201526265737360e81b606082015260800190565b60208082526024908201527f455243313135353a206275726e20616d6f756e7420657863656564732062616c604082015263616e636560e01b606082015260800190565b64445043202360d81b8152600082516142408160058501602087016136af565b9190910160050192915050565b601f8211156109f357600081815260208120601f850160051c810160208610156142745750805b601f850160051c820191505b81811015611eda57828155600101614280565b81516001600160401b038111156142ac576142ac613712565b6142c0816142ba8454613d53565b8461424d565b602080601f8311600181146142f557600084156142dd5750858301515b600019600386901b1c1916600185901b178555611eda565b600085815260208120601f198616915b8281101561432457888601518255948401946001909101908401614305565b50858210156143425787850151600019600388901b60f8161c191681555b5050505050600190811b01905550565b80516000906020808401838315613b3a57815187529582019590820190600101613b1e565b600061438c6143868386614352565b84614352565b949350505050565b7f3c7376672077696474683d2235303022206865696768743d223530302220786d81527f6c6e733d22687474703a2f2f7777772e77332e6f72672f323030302f737667226020820152601f60f91b60408201527f3c72656374206865696768743d22353030222077696474683d223530302220666041820152680d2d8d87a44d0e6d8560bb1b60618201526000845161443481606a8501602089016136af565b6d16101a98129610191a929491179f60911b606a918401918201527f3c7465787420783d223530252220793d223530252220646f6d696e616e742d6260788201527f6173656c696e653d226d6964646c65222066696c6c3d2268736c280000000000609882015284516144ae8160b38401602089016136af565b61452f61451d61450a61450460b3858701017f2c20313030252c20383025292220746578742d616e63686f723d226d6964646c8152713291103337b73a16b9b4bd329e911a18911f60711b602082015260320190565b88613ec0565b661e17ba32bc3a1f60c91b815260070190565b651e17b9bb339f60d11b815260060190565b979650505050505050565b634e487b7160e01b600052601260045260246000fd5b60008261455f5761455f61453a565b500490565b6001600160a01b0386811682528516602082015260a06040820181905260009061459090830186613b0a565b82810360608401526145a28186613b0a565b905082810360808401526145b681856136d3565b98975050505050505050565b6000602082840312156145d457600080fd5b8151612c838161367c565b600060033d11156145f85760046000803e5060005160e01c5b90565b600060443d10156146095790565b6040516003193d81016004833e81513d6001600160401b03816024840111818411171561463857505050505090565b82850191508151818111156146505750505050505090565b843d870101602082850101111561466a5750505050505090565b61467960208286010187613728565b509095945050505050565b60208082526028908201527f455243313135353a204552433131353552656365697665722072656a656374656040820152676420746f6b656e7360c01b606082015260800190565b7f416363657373436f6e74726f6c3a206163636f756e74200000000000000000008152600083516147048160178501602088016136af565b7001034b99036b4b9b9b4b733903937b6329607d1b60179184019182015283516147358160288401602088016136af565b01602801949350505050565b6000826147505761475061453a565b500690565b6001600160a01b03868116825285166020820152604081018490526060810183905260a06080820181905260009061452f908301846136d3565b60008161479e5761479e613d0e565b50600019019056fe5468657365204e465473206172652061637475616c6c79207469636b65747320666f7220446170702043696e656d61732e4142434445464748494a4b4c4d4e4f505152535455565758595a6162636465666768696a6b6c6d6e6f707172737475767778797a303132333435363738392b2fa2646970667358221220f5a3ac658abfc236aa64db0f0877a0258de5548a3439ea358cb20a439845643464736f6c63430008130033",
  "linkReferences": {},
  "deployedLinkReferences": {}
}