{
  "_format": "hh-sol-artifact-1",
  "contractName": "DappTickets",
  "sourceName": "contracts/DappTickets.sol",
  "abi": [
    {
      "inputs": [
        {
          "internalType": "address",
          "name": "_dappCinemas",
          "type": "address"
        }
      ],
      "stateMutability": "nonpayable",
      "type": "constructor"
    },
    {
      "anonymous": false,
      "inputs": [
        {
          "indexed": false,
          "internalType": "string",
          "name": "actionType",
          "type": "string"
        }
      ],
      "name": "Action",
      "type": "event"
    },
    {
      "anonymous": false,
      "inputs": [
        {
          "indexed": true,
          "internalType": "address",
          "name": "account",
          "type": "address"
        },
        {
          "indexed": true,
          "internalType": "address",
          "name": "operator",
          "type": "address"
        },
        {
          "indexed": false,
          "internalType": "bool",
          "name": "approved",
          "type": "bool"
        }
      ],
      "name": "ApprovalForAll",
      "type": "event"
    },
    {
      "anonymous": false,
      "inputs": [
        {
          "indexed": true,
          "internalType": "address",
          "name": "previousOwner",
          "type": "address"
        },
        {
          "indexed": true,
          "internalType": "address",
          "name": "newOwner",
          "type": "address"
        }
      ],
      "name": "OwnershipTransferred",
      "type": "event"
    },
    {
      "anonymous": false,
      "inputs": [
        {
          "indexed": true,
          "internalType": "bytes32",
          "name": "role",
          "type": "bytes32"
        },
        {
          "indexed": true,
          "internalType": "bytes32",
          "name": "previousAdminRole",
          "type": "bytes32"
        },
        {
          "indexed": true,
          "internalType": "bytes32",
          "name": "newAdminRole",
          "type": "bytes32"
        }
      ],
      "name": "RoleAdminChanged",
      "type": "event"
    },
    {
      "anonymous": false,
      "inputs": [
        {
          "indexed": true,
          "internalType": "bytes32",
          "name": "role",
          "type": "bytes32"
        },
        {
          "indexed": true,
          "internalType": "address",
          "name": "account",
          "type": "address"
        },
        {
          "indexed": true,
          "internalType": "address",
          "name": "sender",
          "type": "address"
        }
      ],
      "name": "RoleGranted",
      "type": "event"
    },
    {
      "anonymous": false,
      "inputs": [
        {
          "indexed": true,
          "internalType": "bytes32",
          "name": "role",
          "type": "bytes32"
        },
        {
          "indexed": true,
          "internalType": "address",
          "name": "account",
          "type": "address"
        },
        {
          "indexed": true,
          "internalType": "address",
          "name": "sender",
          "type": "address"
        }
      ],
      "name": "RoleRevoked",
      "type": "event"
    },
    {
      "anonymous": false,
      "inputs": [
        {
          "indexed": true,
          "internalType": "address",
          "name": "operator",
          "type": "address"
        },
        {
          "indexed": true,
          "internalType": "address",
          "name": "from",
          "type": "address"
        },
        {
          "indexed": true,
          "internalType": "address",
          "name": "to",
          "type": "address"
        },
        {
          "indexed": false,
          "internalType": "uint256[]",
          "name": "ids",
          "type": "uint256[]"
        },
        {
          "indexed": false,
          "internalType": "uint256[]",
          "name": "values",
          "type": "uint256[]"
        }
      ],
      "name": "TransferBatch",
      "type": "event"
    },
    {
      "anonymous": false,
      "inputs": [
        {
          "indexed": true,
          "internalType": "address",
          "name": "operator",
          "type": "address"
        },
        {
          "indexed": true,
          "internalType": "address",
          "name": "from",
          "type": "address"
        },
        {
          "indexed": true,
          "internalType": "address",
          "name": "to",
          "type": "address"
        },
        {
          "indexed": false,
          "internalType": "uint256",
          "name": "id",
          "type": "uint256"
        },
        {
          "indexed": false,
          "internalType": "uint256",
          "name": "value",
          "type": "uint256"
        }
      ],
      "name": "TransferSingle",
      "type": "event"
    },
    {
      "anonymous": false,
      "inputs": [
        {
          "indexed": false,
          "internalType": "string",
          "name": "value",
          "type": "string"
        },
        {
          "indexed": true,
          "internalType": "uint256",
          "name": "id",
          "type": "uint256"
        }
      ],
      "name": "URI",
      "type": "event"
    },
    {
      "inputs": [],
      "name": "DEFAULT_ADMIN_ROLE",
      "outputs": [
        {
          "internalType": "bytes32",
          "name": "",
          "type": "bytes32"
        }
      ],
      "stateMutability": "view",
      "type": "function"
    },
    {
      "inputs": [],
      "name": "balance",
      "outputs": [
        {
          "internalType": "uint256",
          "name": "",
          "type": "uint256"
        }
      ],
      "stateMutability": "view",
      "type": "function"
    },
    {
      "inputs": [
        {
          "internalType": "address",
          "name": "account",
          "type": "address"
        },
        {
          "internalType": "uint256",
          "name": "id",
          "type": "uint256"
        }
      ],
      "name": "balanceOf",
      "outputs": [
        {
          "internalType": "uint256",
          "name": "",
          "type": "uint256"
        }
      ],
      "stateMutability": "view",
      "type": "function"
    },
    {
      "inputs": [
        {
          "internalType": "address[]",
          "name": "accounts",
          "type": "address[]"
        },
        {
          "internalType": "uint256[]",
          "name": "ids",
          "type": "uint256[]"
        }
      ],
      "name": "balanceOfBatch",
      "outputs": [
        {
          "internalType": "uint256[]",
          "name": "",
          "type": "uint256[]"
        }
      ],
      "stateMutability": "view",
      "type": "function"
    },
    {
      "inputs": [
        {
          "internalType": "address",
          "name": "account",
          "type": "address"
        },
        {
          "internalType": "uint256",
          "name": "id",
          "type": "uint256"
        },
        {
          "internalType": "uint256",
          "name": "value",
          "type": "uint256"
        }
      ],
      "name": "burn",
      "outputs": [],
      "stateMutability": "nonpayable",
      "type": "function"
    },
    {
      "inputs": [
        {
          "internalType": "address",
          "name": "account",
          "type": "address"
        },
        {
          "internalType": "uint256[]",
          "name": "ids",
          "type": "uint256[]"
        },
        {
          "internalType": "uint256[]",
          "name": "values",
          "type": "uint256[]"
        }
      ],
      "name": "burnBatch",
      "outputs": [],
      "stateMutability": "nonpayable",
      "type": "function"
    },
    {
      "inputs": [
        {
          "internalType": "uint256",
          "name": "slotId",
          "type": "uint256"
        },
        {
          "internalType": "uint256",
          "name": "tickets",
          "type": "uint256"
        }
      ],
      "name": "buyTickets",
      "outputs": [],
      "stateMutability": "payable",
      "type": "function"
    },
    {
      "inputs": [
        {
          "internalType": "uint256",
          "name": "_slotId",
          "type": "uint256"
        }
      ],
      "name": "completeTickets",
      "outputs": [],
      "stateMutability": "nonpayable",
      "type": "function"
    },
    {
      "inputs": [
        {
          "internalType": "uint256",
          "name": "_slotId",
          "type": "uint256"
        }
      ],
      "name": "deleteTickets",
      "outputs": [],
      "stateMutability": "nonpayable",
      "type": "function"
    },
    {
      "inputs": [
        {
          "internalType": "bytes32",
          "name": "role",
          "type": "bytes32"
        }
      ],
      "name": "getRoleAdmin",
      "outputs": [
        {
          "internalType": "bytes32",
          "name": "",
          "type": "bytes32"
        }
      ],
      "stateMutability": "view",
      "type": "function"
    },
    {
      "inputs": [
        {
          "internalType": "uint256",
          "name": "slotId",
          "type": "uint256"
        }
      ],
      "name": "getTicketHolders",
      "outputs": [
        {
          "internalType": "address[]",
          "name": "Holders",
          "type": "address[]"
        }
      ],
      "stateMutability": "view",
      "type": "function"
    },
    {
      "inputs": [
        {
          "internalType": "bytes32",
          "name": "role",
          "type": "bytes32"
        },
        {
          "internalType": "address",
          "name": "account",
          "type": "address"
        }
      ],
      "name": "grantRole",
      "outputs": [],
      "stateMutability": "nonpayable",
      "type": "function"
    },
    {
      "inputs": [
        {
          "internalType": "bytes32",
          "name": "role",
          "type": "bytes32"
        },
        {
          "internalType": "address",
          "name": "account",
          "type": "address"
        }
      ],
      "name": "hasRole",
      "outputs": [
        {
          "internalType": "bool",
          "name": "",
          "type": "bool"
        }
      ],
      "stateMutability": "view",
      "type": "function"
    },
    {
      "inputs": [
        {
          "internalType": "address",
          "name": "account",
          "type": "address"
        },
        {
          "internalType": "address",
          "name": "operator",
          "type": "address"
        }
      ],
      "name": "isApprovedForAll",
      "outputs": [
        {
          "internalType": "bool",
          "name": "",
          "type": "bool"
        }
      ],
      "stateMutability": "view",
      "type": "function"
    },
    {
      "inputs": [],
      "name": "owner",
      "outputs": [
        {
          "internalType": "address",
          "name": "",
          "type": "address"
        }
      ],
      "stateMutability": "view",
      "type": "function"
    },
    {
      "inputs": [],
      "name": "renounceOwnership",
      "outputs": [],
      "stateMutability": "nonpayable",
      "type": "function"
    },
    {
      "inputs": [
        {
          "internalType": "bytes32",
          "name": "role",
          "type": "bytes32"
        },
        {
          "internalType": "address",
          "name": "account",
          "type": "address"
        }
      ],
      "name": "renounceRole",
      "outputs": [],
      "stateMutability": "nonpayable",
      "type": "function"
    },
    {
      "inputs": [
        {
          "internalType": "bytes32",
          "name": "role",
          "type": "bytes32"
        },
        {
          "internalType": "address",
          "name": "account",
          "type": "address"
        }
      ],
      "name": "revokeRole",
      "outputs": [],
      "stateMutability": "nonpayable",
      "type": "function"
    },
    {
      "inputs": [
        {
          "internalType": "address",
          "name": "from",
          "type": "address"
        },
        {
          "internalType": "address",
          "name": "to",
          "type": "address"
        },
        {
          "internalType": "uint256[]",
          "name": "ids",
          "type": "uint256[]"
        },
        {
          "internalType": "uint256[]",
          "name": "amounts",
          "type": "uint256[]"
        },
        {
          "internalType": "bytes",
          "name": "data",
          "type": "bytes"
        }
      ],
      "name": "safeBatchTransferFrom",
      "outputs": [],
      "stateMutability": "nonpayable",
      "type": "function"
    },
    {
      "inputs": [
        {
          "internalType": "address",
          "name": "from",
          "type": "address"
        },
        {
          "internalType": "address",
          "name": "to",
          "type": "address"
        },
        {
          "internalType": "uint256",
          "name": "id",
          "type": "uint256"
        },
        {
          "internalType": "uint256",
          "name": "amount",
          "type": "uint256"
        },
        {
          "internalType": "bytes",
          "name": "data",
          "type": "bytes"
        }
      ],
      "name": "safeTransferFrom",
      "outputs": [],
      "stateMutability": "nonpayable",
      "type": "function"
    },
    {
      "inputs": [
        {
          "internalType": "address",
          "name": "operator",
          "type": "address"
        },
        {
          "internalType": "bool",
          "name": "approved",
          "type": "bool"
        }
      ],
      "name": "setApprovalForAll",
      "outputs": [],
      "stateMutability": "nonpayable",
      "type": "function"
    },
    {
      "inputs": [
        {
          "internalType": "bytes4",
          "name": "interfaceId",
          "type": "bytes4"
        }
      ],
      "name": "supportsInterface",
      "outputs": [
        {
          "internalType": "bool",
          "name": "",
          "type": "bool"
        }
      ],
      "stateMutability": "view",
      "type": "function"
    },
    {
      "inputs": [
        {
          "internalType": "uint256",
          "name": "",
          "type": "uint256"
        }
      ],
      "name": "ticketBuild",
      "outputs": [
        {
          "internalType": "string",
          "name": "name",
          "type": "string"
        },
        {
          "internalType": "string",
          "name": "description",
          "type": "string"
        },
        {
          "internalType": "string",
          "name": "bgHue",
          "type": "string"
        },
        {
          "internalType": "string",
          "name": "textHue",
          "type": "string"
        },
        {
          "internalType": "string",
          "name": "value",
          "type": "string"
        },
        {
          "components": [
            {
              "internalType": "uint256",
              "name": "id",
              "type": "uint256"
            },
            {
              "internalType": "uint256",
              "name": "movieId",
              "type": "uint256"
            },
            {
              "internalType": "uint256",
              "name": "slotId",
              "type": "uint256"
            },
            {
              "internalType": "address",
              "name": "owner",
              "type": "address"
            },
            {
              "internalType": "uint256",
              "name": "cost",
              "type": "uint256"
            },
            {
              "internalType": "uint256",
              "name": "timestamp",
              "type": "uint256"
            },
            {
              "internalType": "uint256",
              "name": "day",
              "type": "uint256"
            },
            {
              "internalType": "bool",
              "name": "used",
              "type": "bool"
            },
            {
              "internalType": "bool",
              "name": "refunded",
              "type": "bool"
            }
          ],
          "internalType": "struct DappShared.TicketStruct",
          "name": "ticket",
          "type": "tuple"
        }
      ],
      "stateMutability": "view",
      "type": "function"
    },
    {
      "inputs": [
        {
          "internalType": "address",
          "name": "newOwner",
          "type": "address"
        }
      ],
      "name": "transferOwnership",
      "outputs": [],
      "stateMutability": "nonpayable",
      "type": "function"
    },
    {
      "inputs": [
        {
          "internalType": "uint256",
          "name": "tokenId",
          "type": "uint256"
        }
      ],
      "name": "uri",
      "outputs": [
        {
          "internalType": "string",
          "name": "",
          "type": "string"
        }
      ],
      "stateMutability": "view",
      "type": "function"
    },
    {
      "inputs": [
        {
          "internalType": "address",
          "name": "to",
          "type": "address"
        },
        {
          "internalType": "uint256",
          "name": "amount",
          "type": "uint256"
        }
      ],
      "name": "withdrawTo",
      "outputs": [],
      "stateMutability": "nonpayable",
      "type": "function"
    }
  ],
  "bytecode": "0x60806040523480156200001157600080fd5b5060405162003e5f38038062003e5f8339810160408190526200003491620000e4565b6040805160208101909152600081526200004e8162000080565b506200005a3362000092565b600680546001600160a01b0319166001600160a01b039290921691909117905562000287565b60026200008e8282620001bb565b5050565b600380546001600160a01b038381166001600160a01b0319831681179093556040519116919082907f8be0079c531659141344cd1fd0a4f28419497f9722a3daafe3b4186f6b6457e090600090a35050565b600060208284031215620000f757600080fd5b81516001600160a01b03811681146200010f57600080fd5b9392505050565b634e487b7160e01b600052604160045260246000fd5b600181811c908216806200014157607f821691505b6020821081036200016257634e487b7160e01b600052602260045260246000fd5b50919050565b601f821115620001b657600081815260208120601f850160051c81016020861015620001915750805b601f850160051c820191505b81811015620001b2578281556001016200019d565b5050505b505050565b81516001600160401b03811115620001d757620001d762000116565b620001ef81620001e884546200012c565b8462000168565b602080601f8311600181146200022757600084156200020e5750858301515b600019600386901b1c1916600185901b178555620001b2565b600085815260208120601f198616915b82811015620002585788860151825594840194600190910190840162000237565b5085821015620002775787850151600019600388901b60f8161c191681555b5050505050600190811b01905550565b613bc880620002976000396000f3fe60806040526004361061017f5760003560e01c8063715018a6116100d1578063a70b725e1161008a578063e985e9c511610064578063e985e9c514610491578063f242432a146104da578063f2fde38b146104fa578063f5298aca1461051a57600080fd5b8063a70b725e1461043b578063b69ef8a81461045b578063d547741f1461047157600080fd5b8063715018a6146103965780638627df46146103ab5780638da5cb5b146103be57806391d14854146103e6578063a217fddf14610406578063a22cb4651461041b57600080fd5b8063248a9ca31161013e57806336568abe1161011857806336568abe146102f757806340b882cf146103175780634e1273f4146103495780636b20c4541461037657600080fd5b8063248a9ca3146102875780632eb2c2d6146102b75780632f2ff15d146102d757600080fd5b80622a5cc914610184578062fdd58e146101ba57806301ffc9a7146101e85780630e89341c14610218578063205c28781461024557806322c79ffb14610267575b600080fd5b34801561019057600080fd5b506101a461019f366004612d1f565b61053a565b6040516101b19190612d38565b60405180910390f35b3480156101c657600080fd5b506101da6101d5366004612da1565b6106a8565b6040519081526020016101b1565b3480156101f457600080fd5b50610208610203366004612de1565b610741565b60405190151581526020016101b1565b34801561022457600080fd5b50610238610233366004612d1f565b61074c565b6040516101b19190612e4e565b34801561025157600080fd5b50610265610260366004612da1565b61080a565b005b34801561027357600080fd5b50610265610282366004612d1f565b61087e565b34801561029357600080fd5b506101da6102a2366004612d1f565b60009081526004602052604090206001015490565b3480156102c357600080fd5b506102656102d2366004612fd3565b610947565b3480156102e357600080fd5b506102656102f236600461307c565b610993565b34801561030357600080fd5b5061026561031236600461307c565b6109bd565b34801561032357600080fd5b50610337610332366004612d1f565b610a37565b6040516101b1969594939291906130a8565b34801561035557600080fd5b5061036961036436600461318f565b610d88565b6040516101b19190613294565b34801561038257600080fd5b506102656103913660046132a7565b610eb1565b3480156103a257600080fd5b50610265610ef4565b6102656103b936600461331a565b610f08565b3480156103ca57600080fd5b506003546040516001600160a01b0390911681526020016101b1565b3480156103f257600080fd5b5061020861040136600461307c565b6114d5565b34801561041257600080fd5b506101da600081565b34801561042757600080fd5b5061026561043636600461334a565b611500565b34801561044757600080fd5b50610265610456366004612d1f565b61150b565b34801561046757600080fd5b506101da60075481565b34801561047d57600080fd5b5061026561048c36600461307c565b6115cc565b34801561049d57600080fd5b506102086104ac366004613381565b6001600160a01b03918216600090815260016020908152604080832093909416825291909152205460ff1690565b3480156104e657600080fd5b506102656104f53660046133ab565b6115f1565b34801561050657600080fd5b5061026561051536600461340f565b611636565b34801561052657600080fd5b5061026561053536600461342a565b6116af565b6060600060015b60055481116105a6576000818152600960205260409020600701548414801561058157506000818152600960205260409020600c0154610100900460ff16155b15610594578161059081613473565b9250505b8061059e81613473565b915050610541565b50806001600160401b038111156105bf576105bf612e61565b6040519080825280602002602001820160405280156105e8578160200160208202803683370190505b509150600060015b60055481116106a0576000818152600960205260409020600701548514801561063057506000818152600960205260409020600c0154610100900460ff16155b1561068e576000818152600960205260409020600801546001600160a01b0316848361065b81613473565b94508151811061066d5761066d61348c565b60200260200101906001600160a01b031690816001600160a01b0316815250505b8061069881613473565b9150506105f0565b505050919050565b60006001600160a01b0383166107185760405162461bcd60e51b815260206004820152602a60248201527f455243313135353a2061646472657373207a65726f206973206e6f742061207660448201526930b634b21037bbb732b960b11b60648201526084015b60405180910390fd5b506000818152602081815260408083206001600160a01b03861684529091529020545b92915050565b600061073b826116f2565b60008181526008602052604081208054606092919061076a906134a2565b80601f0160208091040260200160405190810160405280929190818152602001828054610796906134a2565b80156107e35780601f106107b8576101008083540402835291602001916107e3565b820191906000526020600020905b8154815290600101906020018083116107c657829003601f168201915b505050505090506000815111610801576107fc83611717565b610803565b805b9392505050565b6108126117ab565b8060075410156108585760405162461bcd60e51b8152602060048201526011602482015270125b9cdd59999a58da595b9d08199d5b99607a1b604482015260640161070f565b806007600082825461086a91906134dc565b9091555061087a90508282611805565b5050565b6108866117ab565b60065460405163b6da3f0960e01b8152600481018390526001600160a01b039091169063b6da3f0990602401600060405180830381600087803b1580156108cc57600080fd5b505af11580156108e0573d6000803e3d6000fd5b505050506108ed81611865565b7f8b2c14fe955d044ef95ba32b88d2ceb87c6f73fcefdcebe906063a6d75690f2760405161093c906020808252600d908201526c151a58dad95d1cc8189d5c9b9d609a1b604082015260600190565b60405180910390a150565b6001600160a01b038516331480610963575061096385336104ac565b61097f5760405162461bcd60e51b815260040161070f906134ef565b61098c85858585856119a9565b5050505050565b6000828152600460205260409020600101546109ae81611b45565b6109b88383611b4f565b505050565b6001600160a01b0381163314610a2d5760405162461bcd60e51b815260206004820152602f60248201527f416363657373436f6e74726f6c3a2063616e206f6e6c792072656e6f756e636560448201526e103937b632b9903337b91039b2b63360891b606482015260840161070f565b61087a8282611bd5565b600960205260009081526040902080548190610a52906134a2565b80601f0160208091040260200160405190810160405280929190818152602001828054610a7e906134a2565b8015610acb5780601f10610aa057610100808354040283529160200191610acb565b820191906000526020600020905b815481529060010190602001808311610aae57829003601f168201915b505050505090806001018054610ae0906134a2565b80601f0160208091040260200160405190810160405280929190818152602001828054610b0c906134a2565b8015610b595780601f10610b2e57610100808354040283529160200191610b59565b820191906000526020600020905b815481529060010190602001808311610b3c57829003601f168201915b505050505090806002018054610b6e906134a2565b80601f0160208091040260200160405190810160405280929190818152602001828054610b9a906134a2565b8015610be75780601f10610bbc57610100808354040283529160200191610be7565b820191906000526020600020905b815481529060010190602001808311610bca57829003601f168201915b505050505090806003018054610bfc906134a2565b80601f0160208091040260200160405190810160405280929190818152602001828054610c28906134a2565b8015610c755780601f10610c4a57610100808354040283529160200191610c75565b820191906000526020600020905b815481529060010190602001808311610c5857829003601f168201915b505050505090806004018054610c8a906134a2565b80601f0160208091040260200160405190810160405280929190818152602001828054610cb6906134a2565b8015610d035780601f10610cd857610100808354040283529160200191610d03565b820191906000526020600020905b815481529060010190602001808311610ce657829003601f168201915b50506040805161012081018252600587015481526006870154602082015260078701549181019190915260088601546001600160a01b0316606082015260098601546080820152600a86015460a0820152600b86015460c0820152600c9095015460ff808216151560e088015261010091829004161515908601525091929150879050565b60608151835114610ded5760405162461bcd60e51b815260206004820152602960248201527f455243313135353a206163636f756e747320616e6420696473206c656e677468604482015268040dad2e6dac2e8c6d60bb1b606482015260840161070f565b600083516001600160401b03811115610e0857610e08612e61565b604051908082528060200260200182016040528015610e31578160200160208202803683370190505b50905060005b8451811015610ea957610e7c858281518110610e5557610e5561348c565b6020026020010151858381518110610e6f57610e6f61348c565b60200260200101516106a8565b828281518110610e8e57610e8e61348c565b6020908102919091010152610ea281613473565b9050610e37565b509392505050565b6001600160a01b038316331480610ecd5750610ecd83336104ac565b610ee95760405162461bcd60e51b815260040161070f906134ef565b6109b8838383611c3c565b610efc6117ab565b610f066000611dc7565b565b60065460405163358cc11560e21b81526004810184905282916001600160a01b03169063d63304549060240161016060405180830381865afa158015610f52573d6000803e3d6000fd5b505050506040513d601f19601f82011682018060405250810190610f769190613548565b60400151610f8491906135e5565b341015610fc95760405162461bcd60e51b8152602060048201526013602482015272125b9cdd59999a58da595b9d08185b5bdd5b9d606a1b604482015260640161070f565b60065460405163358cc11560e21b8152600481018490526001600160a01b039091169063d63304549060240161016060405180830381865afa158015611013573d6000803e3d6000fd5b505050506040513d601f19601f820116820180604052508101906110379190613548565b60c0015160065460405163358cc11560e21b8152600481018590526001600160a01b039091169063d63304549060240161016060405180830381865afa158015611085573d6000803e3d6000fd5b505050506040513d601f19601f820116820180604052508101906110a99190613548565b60a00151116110ec5760405162461bcd60e51b815260206004820152600f60248201526e4f7574206f6620636170616369747960881b604482015260640161070f565b60005b8181101561134c57611105600580546001019055565b61116160405180610120016040528060008152602001600081526020016000815260200160006001600160a01b031681526020016000815260200160008152602001600081526020016000151581526020016000151581525090565b600554815260065460405163358cc11560e21b8152600481018690526001600160a01b039091169063d63304549060240161016060405180830381865afa1580156111b0573d6000803e3d6000fd5b505050506040513d601f19601f820116820180604052508101906111d49190613548565b6040908101516080830152600654905163358cc11560e21b8152600481018690526001600160a01b039091169063d63304549060240161016060405180830381865afa158015611228573d6000803e3d6000fd5b505050506040513d601f19601f8201168201806040525081019061124c9190613548565b610120015160c08201526040810184905233606082015261126b611e19565b60a08201908152815160009081526009602081815260408084208651600582015582870151600682015581870151600782015560608701516008820180546001600160a01b039092166001600160a01b03199283161790556080880151948201949094559451600a8087019190915560c0870151600b87015560e0870151600c909601805461010098890151151590980261ff00199715159790971661ffff1990981697909717959095179095558783529283529281208054600181018255908252919020018054909116331790558061134481613473565b9150506110ef565b5060065460405163358cc11560e21b81526004810184905282916001600160a01b03169063d63304549060240161016060405180830381865afa158015611397573d6000803e3d6000fd5b505050506040513d601f19601f820116820180604052508101906113bb9190613548565b60c0018181516113cb91906135fc565b90525060065460405163358cc11560e21b81526004810184905282916001600160a01b03169063d63304549060240161016060405180830381865afa158015611418573d6000803e3d6000fd5b505050506040513d601f19601f8201168201806040525081019061143c9190613548565b6040015161144a91906135e5565b60065460405163358cc11560e21b8152600481018590526001600160a01b039091169063d63304549060240161016060405180830381865afa158015611494573d6000803e3d6000fd5b505050506040513d601f19601f820116820180604052508101906114b89190613548565b610140018181516114c991906135fc565b90525061087a81611e34565b60009182526004602090815260408084206001600160a01b0393909316845291905290205460ff1690565b61087a33838361208c565b6115136117ab565b600654604051633b6559c160e01b8152600481018390526001600160a01b0390911690633b6559c190602401600060405180830381600087803b15801561155957600080fd5b505af115801561156d573d6000803e3d6000fd5b5050505061157a8161216c565b7f8b2c14fe955d044ef95ba32b88d2ceb87c6f73fcefdcebe906063a6d75690f2760405161093c9060208082526010908201526f151a58dad95d1cc81c99599d5b99195960821b604082015260600190565b6000828152600460205260409020600101546115e781611b45565b6109b88383611bd5565b6001600160a01b03851633148061160d575061160d85336104ac565b6116295760405162461bcd60e51b815260040161070f906134ef565b61098c85858585856122c6565b61163e6117ab565b6001600160a01b0381166116a35760405162461bcd60e51b815260206004820152602660248201527f4f776e61626c653a206e6577206f776e657220697320746865207a65726f206160448201526564647265737360d01b606482015260840161070f565b6116ac81611dc7565b50565b6001600160a01b0383163314806116cb57506116cb83336104ac565b6116e75760405162461bcd60e51b815260040161070f906134ef565b6109b88383836123f0565b60006001600160e01b03198216637965db0b60e01b148061073b575061073b826124f9565b606060028054611726906134a2565b80601f0160208091040260200160405190810160405280929190818152602001828054611752906134a2565b801561179f5780601f106117745761010080835404028352916020019161179f565b820191906000526020600020905b81548152906001019060200180831161178257829003601f168201915b50505050509050919050565b6003546001600160a01b03163314610f065760405162461bcd60e51b815260206004820181905260248201527f4f776e61626c653a2063616c6c6572206973206e6f7420746865206f776e6572604482015260640161070f565b6000826001600160a01b03168260405160006040518083038185875af1925050503d8060008114611852576040519150601f19603f3d011682016040523d82523d6000602084013e611857565b606091505b50509050806109b857600080fd5b61186d6117ab565b60065460405163358cc11560e21b81526004810183905282916001600160a01b03169063d63304549060240161016060405180830381865afa1580156118b7573d6000803e3d6000fd5b505050506040513d601f19601f820116820180604052508101906118db9190613548565b511461191a5760405162461bcd60e51b815260206004820152600e60248201526d14db1bdd081b9bdd08199bdd5b9960921b604482015260640161070f565b60015b600554811161087a576000818152600960205260409020600501548114801561195857506000818152600960205260409020600c015460ff16155b156119975760008181526009602081905260408220600c8101805460ff19166001179055015460078054919290916119919084906135fc565b90915550505b806119a181613473565b91505061191d565b81518351146119ca5760405162461bcd60e51b815260040161070f9061360f565b6001600160a01b0384166119f05760405162461bcd60e51b815260040161070f90613657565b3360005b8451811015611ad7576000858281518110611a1157611a1161348c565b602002602001015190506000858381518110611a2f57611a2f61348c565b602090810291909101810151600084815280835260408082206001600160a01b038e168352909352919091205490915081811015611a7f5760405162461bcd60e51b815260040161070f9061369c565b6000838152602081815260408083206001600160a01b038e8116855292528083208585039055908b16825281208054849290611abc9084906135fc565b9250508190555050505080611ad090613473565b90506119f4565b50846001600160a01b0316866001600160a01b0316826001600160a01b03167f4a39dc06d4c0dbc64b70af90fd698a233a518aa5d07e595d983b8c0526c8f7fb8787604051611b279291906136e6565b60405180910390a4611b3d818787878787612549565b505050505050565b6116ac81336126a4565b611b5982826114d5565b61087a5760008281526004602090815260408083206001600160a01b03851684529091529020805460ff19166001179055611b913390565b6001600160a01b0316816001600160a01b0316837f2f8788117e7eff1d82e926ec794901d17c78024a50270940304540a733656f0d60405160405180910390a45050565b611bdf82826114d5565b1561087a5760008281526004602090815260408083206001600160a01b0385168085529252808320805460ff1916905551339285917ff6391f5c32d9c69d2a47ea670b442974b53935d1edc7fd64eb21e047a839171b9190a45050565b6001600160a01b038316611c625760405162461bcd60e51b815260040161070f9061370b565b8051825114611c835760405162461bcd60e51b815260040161070f9061360f565b604080516020810190915260009081905233905b8351811015611d59576000848281518110611cb457611cb461348c565b602002602001015190506000848381518110611cd257611cd261348c565b602090810291909101810151600084815280835260408082206001600160a01b038c168352909352919091205490915081811015611d225760405162461bcd60e51b815260040161070f9061374e565b6000928352602083815260408085206001600160a01b038b1686529091529092209103905580611d5181613473565b915050611c97565b5060006001600160a01b0316846001600160a01b0316826001600160a01b03167f4a39dc06d4c0dbc64b70af90fd698a233a518aa5d07e595d983b8c0526c8f7fb8686604051611daa9291906136e6565b60405180910390a460408051602081019091526000905250505050565b600380546001600160a01b038381166001600160a01b0319831681179093556040519116919082907f8be0079c531659141344cd1fd0a4f28419497f9722a3daafe3b4186f6b6457e090600090a35050565b600080611e28426103e86135e5565b61073b906103e86135fc565b6000816001600160401b03811115611e4e57611e4e612e61565b604051908082528060200260200182016040528015611e77578160200160208202803683370190505b5090506000826001600160401b03811115611e9457611e94612e61565b604051908082528060200260200182016040528015611ebd578160200160208202803683370190505b509050600083611ecc60055490565b611ed691906134dc565b905060005b848110156120595781611eed81613473565b9250506000611efb836126fd565b9050600081604051602001611f109190613792565b60408051601f1981840301815260608301909152603180835290925060009190613b6260208301396000868152600960205260409020909150611f538382613805565b506000858152600960205260409020600101611f6f8282613805565b50611f8c611f87610169611f81611e19565b8861278f565b6126fd565b600086815260096020526040902060020190611fa89082613805565b50611fb9611f87610169428861278f565b600086815260096020526040902060030190611fd59082613805565b506000858152600960205260409020600401611ff18382613805565b5061200485611fff8761074c565b6127f7565b848785815181106120175761201761348c565b60200260200101818152505060018685815181106120375761203761348c565b602002602001018181525050505050808061205190613473565b915050611edb565b506000838360405160200161206f9291906138e9565b604051602081830303815290604052905061098c3385858461280f565b816001600160a01b0316836001600160a01b0316036120ff5760405162461bcd60e51b815260206004820152602960248201527f455243313135353a2073657474696e6720617070726f76616c20737461747573604482015268103337b91039b2b63360b91b606482015260840161070f565b6001600160a01b03838116600081815260016020908152604080832094871680845294825291829020805460ff191686151590811790915591519182527f17307eab39ab6107e8899845ad3d59bd9653f200f220920489ca2b5937696c31910160405180910390a3505050565b6121746117ab565b60065460405163358cc11560e21b81526004810183905282916001600160a01b03169063d63304549060240161016060405180830381865afa1580156121be573d6000803e3d6000fd5b505050506040513d601f19601f820116820180604052508101906121e29190613548565b51146122215760405162461bcd60e51b815260206004820152600e60248201526d14db1bdd081b9bdd08199bdd5b9960921b604482015260640161070f565b60015b600554811161087a5760008181526009602081905260409091206005810154918101546008909101546001600160a01b0316828414801561227757506000848152600960205260409020600c015460ff16155b156122b0576000848152600960205260409020600c01805461ff0019166101001790556122a48183611805565b6122b0818460016123f0565b50505080806122be90613473565b915050612224565b6001600160a01b0384166122ec5760405162461bcd60e51b815260040161070f90613657565b3360006122f885612994565b9050600061230585612994565b90506000868152602081815260408083206001600160a01b038c168452909152902054858110156123485760405162461bcd60e51b815260040161070f9061369c565b6000878152602081815260408083206001600160a01b038d8116855292528083208985039055908a168252812080548892906123859084906135fc565b909155505060408051888152602081018890526001600160a01b03808b16928c821692918816917fc3d58168c5ae7397731d063d5bbf3d657854427343f4c083240f7aacaa2d0f62910160405180910390a46123e5848a8a8a8a8a6129df565b505050505050505050565b6001600160a01b0383166124165760405162461bcd60e51b815260040161070f9061370b565b33600061242284612994565b9050600061242f84612994565b60408051602080820183526000918290528882528181528282206001600160a01b038b168352905220549091508481101561247c5760405162461bcd60e51b815260040161070f9061374e565b6000868152602081815260408083206001600160a01b038b81168086529184528285208a8703905582518b81529384018a90529092908816917fc3d58168c5ae7397731d063d5bbf3d657854427343f4c083240f7aacaa2d0f62910160405180910390a46040805160208101909152600090525b50505050505050565b60006001600160e01b03198216636cdb3d1360e11b148061252a57506001600160e01b031982166303a24d0760e21b145b8061073b57506301ffc9a760e01b6001600160e01b031983161461073b565b6001600160a01b0384163b15611b3d5760405163bc197c8160e01b81526001600160a01b0385169063bc197c819061258d9089908990889088908890600401613906565b6020604051808303816000875af19250505080156125c8575060408051601f3d908101601f191682019092526125c591810190613964565b60015b612674576125d4613981565b806308c379a00361260d57506125e861399d565b806125f3575061260f565b8060405162461bcd60e51b815260040161070f9190612e4e565b505b60405162461bcd60e51b815260206004820152603460248201527f455243313135353a207472616e7366657220746f206e6f6e2d455243313135356044820152732932b1b2b4bb32b91034b6b83632b6b2b73a32b960611b606482015260840161070f565b6001600160e01b0319811663bc197c8160e01b146124f05760405162461bcd60e51b815260040161070f90613a26565b6126ae82826114d5565b61087a576126bb81612a9a565b6126c6836020612aac565b6040516020016126d7929190613a6e565b60408051601f198184030181529082905262461bcd60e51b825261070f91600401612e4e565b6060600061270a83612c47565b60010190506000816001600160401b0381111561272957612729612e61565b6040519080825280601f01601f191660200182016040528015612753576020820181803683370190505b5090508181016020015b600019016f181899199a1a9b1b9c1cb0b131b232b360811b600a86061a8153600a850494508461275d57509392505050565b604080514260208201526bffffffffffffffffffffffff193360601b16918101919091526054810183905260748101829052600090819085906094016040516020818303038152906040528051906020012060001c6127ee9190613ae3565b95945050505050565b60008281526008602052604090206109b88282613805565b6001600160a01b03841661286f5760405162461bcd60e51b815260206004820152602160248201527f455243313135353a206d696e7420746f20746865207a65726f206164647265736044820152607360f81b606482015260840161070f565b81518351146128905760405162461bcd60e51b815260040161070f9061360f565b3360005b845181101561292c578381815181106128af576128af61348c565b60200260200101516000808784815181106128cc576128cc61348c565b602002602001015181526020019081526020016000206000886001600160a01b03166001600160a01b03168152602001908152602001600020600082825461291491906135fc565b9091555081905061292481613473565b915050612894565b50846001600160a01b031660006001600160a01b0316826001600160a01b03167f4a39dc06d4c0dbc64b70af90fd698a233a518aa5d07e595d983b8c0526c8f7fb878760405161297d9291906136e6565b60405180910390a461098c81600087878787612549565b604080516001808252818301909252606091600091906020808301908036833701905050905082816000815181106129ce576129ce61348c565b602090810291909101015292915050565b6001600160a01b0384163b15611b3d5760405163f23a6e6160e01b81526001600160a01b0385169063f23a6e6190612a239089908990889088908890600401613b05565b6020604051808303816000875af1925050508015612a5e575060408051601f3d908101601f19168201909252612a5b91810190613964565b60015b612a6a576125d4613981565b6001600160e01b0319811663f23a6e6160e01b146124f05760405162461bcd60e51b815260040161070f90613a26565b606061073b6001600160a01b03831660145b60606000612abb8360026135e5565b612ac69060026135fc565b6001600160401b03811115612add57612add612e61565b6040519080825280601f01601f191660200182016040528015612b07576020820181803683370190505b509050600360fc1b81600081518110612b2257612b2261348c565b60200101906001600160f81b031916908160001a905350600f60fb1b81600181518110612b5157612b5161348c565b60200101906001600160f81b031916908160001a9053506000612b758460026135e5565b612b809060016135fc565b90505b6001811115612bf8576f181899199a1a9b1b9c1cb0b131b232b360811b85600f1660108110612bb457612bb461348c565b1a60f81b828281518110612bca57612bca61348c565b60200101906001600160f81b031916908160001a90535060049490941c93612bf181613b4a565b9050612b83565b5083156108035760405162461bcd60e51b815260206004820181905260248201527f537472696e67733a20686578206c656e67746820696e73756666696369656e74604482015260640161070f565b60008072184f03e93ff9f4daa797ed6e38ed64bf6a1f0160401b8310612c865772184f03e93ff9f4daa797ed6e38ed64bf6a1f0160401b830492506040015b6d04ee2d6d415b85acef81000000008310612cb2576d04ee2d6d415b85acef8100000000830492506020015b662386f26fc100008310612cd057662386f26fc10000830492506010015b6305f5e1008310612ce8576305f5e100830492506008015b6127108310612cfc57612710830492506004015b60648310612d0e576064830492506002015b600a83106108015760010192915050565b600060208284031215612d3157600080fd5b5035919050565b6020808252825182820181905260009190848201906040850190845b81811015612d795783516001600160a01b031683529284019291840191600101612d54565b50909695505050505050565b80356001600160a01b0381168114612d9c57600080fd5b919050565b60008060408385031215612db457600080fd5b612dbd83612d85565b946020939093013593505050565b6001600160e01b0319811681146116ac57600080fd5b600060208284031215612df357600080fd5b813561080381612dcb565b60005b83811015612e19578181015183820152602001612e01565b50506000910152565b60008151808452612e3a816020860160208601612dfe565b601f01601f19169290920160200192915050565b6020815260006108036020830184612e22565b634e487b7160e01b600052604160045260246000fd5b601f8201601f191681016001600160401b0381118282101715612e9c57612e9c612e61565b6040525050565b60405161016081016001600160401b0381118282101715612ec657612ec6612e61565b60405290565b60006001600160401b03821115612ee557612ee5612e61565b5060051b60200190565b600082601f830112612f0057600080fd5b81356020612f0d82612ecc565b604051612f1a8282612e77565b83815260059390931b8501820192828101915086841115612f3a57600080fd5b8286015b84811015612f555780358352918301918301612f3e565b509695505050505050565b600082601f830112612f7157600080fd5b81356001600160401b03811115612f8a57612f8a612e61565b604051612fa1601f8301601f191660200182612e77565b818152846020838601011115612fb657600080fd5b816020850160208301376000918101602001919091529392505050565b600080600080600060a08688031215612feb57600080fd5b612ff486612d85565b945061300260208701612d85565b935060408601356001600160401b038082111561301e57600080fd5b61302a89838a01612eef565b9450606088013591508082111561304057600080fd5b61304c89838a01612eef565b9350608088013591508082111561306257600080fd5b5061306f88828901612f60565b9150509295509295909350565b6000806040838503121561308f57600080fd5b8235915061309f60208401612d85565b90509250929050565b60006101c08083526130bc8184018a612e22565b905082810360208401526130d08189612e22565b905082810360408401526130e48188612e22565b905082810360608401526130f88187612e22565b9050828103608084015261310c8186612e22565b915050825160a0830152602083015160c0830152604083015160e0830152606083015161010060018060a01b03821681850152608085015161012085015260a085015161014085015260c085015161016085015260e08501511515610180850152808501519150506131836101a084018215159052565b50979650505050505050565b600080604083850312156131a257600080fd5b82356001600160401b03808211156131b957600080fd5b818501915085601f8301126131cd57600080fd5b813560206131da82612ecc565b6040516131e78282612e77565b83815260059390931b850182019282810191508984111561320757600080fd5b948201945b8386101561322c5761321d86612d85565b8252948201949082019061320c565b9650508601359250508082111561324257600080fd5b5061324f85828601612eef565b9150509250929050565b600081518084526020808501945080840160005b838110156132895781518752958201959082019060010161326d565b509495945050505050565b6020815260006108036020830184613259565b6000806000606084860312156132bc57600080fd5b6132c584612d85565b925060208401356001600160401b03808211156132e157600080fd5b6132ed87838801612eef565b9350604086013591508082111561330357600080fd5b5061331086828701612eef565b9150509250925092565b6000806040838503121561332d57600080fd5b50508035926020909101359150565b80151581146116ac57600080fd5b6000806040838503121561335d57600080fd5b61336683612d85565b915060208301356133768161333c565b809150509250929050565b6000806040838503121561339457600080fd5b61339d83612d85565b915061309f60208401612d85565b600080600080600060a086880312156133c357600080fd5b6133cc86612d85565b94506133da60208701612d85565b9350604086013592506060860135915060808601356001600160401b0381111561340357600080fd5b61306f88828901612f60565b60006020828403121561342157600080fd5b61080382612d85565b60008060006060848603121561343f57600080fd5b61344884612d85565b95602085013595506040909401359392505050565b634e487b7160e01b600052601160045260246000fd5b6000600182016134855761348561345d565b5060010190565b634e487b7160e01b600052603260045260246000fd5b600181811c908216806134b657607f821691505b6020821081036134d657634e487b7160e01b600052602260045260246000fd5b50919050565b8181038181111561073b5761073b61345d565b6020808252602e908201527f455243313135353a2063616c6c6572206973206e6f7420746f6b656e206f776e60408201526d195c881bdc88185c1c1c9bdd995960921b606082015260800190565b8051612d9c8161333c565b6000610160828403121561355b57600080fd5b613563612ea3565b825181526020830151602082015260408301516040820152606083015160608201526080830151608082015260a083015160a082015260c083015160c08201526135af60e0840161353d565b60e08201526101006135c281850161353d565b908201526101208381015190820152610140928301519281019290925250919050565b808202811582820484141761073b5761073b61345d565b8082018082111561073b5761073b61345d565b60208082526028908201527f455243313135353a2069647320616e6420616d6f756e7473206c656e677468206040820152670dad2e6dac2e8c6d60c31b606082015260800190565b60208082526025908201527f455243313135353a207472616e7366657220746f20746865207a65726f206164604082015264647265737360d81b606082015260800190565b6020808252602a908201527f455243313135353a20696e73756666696369656e742062616c616e636520666f60408201526939103a3930b739b332b960b11b606082015260800190565b6040815260006136f96040830185613259565b82810360208401526127ee8185613259565b60208082526023908201527f455243313135353a206275726e2066726f6d20746865207a65726f206164647260408201526265737360e81b606082015260800190565b60208082526024908201527f455243313135353a206275726e20616d6f756e7420657863656564732062616c604082015263616e636560e01b606082015260800190565b64445043202360d81b8152600082516137b2816005850160208701612dfe565b9190910160050192915050565b601f8211156109b857600081815260208120601f850160051c810160208610156137e65750805b601f850160051c820191505b81811015611b3d578281556001016137f2565b81516001600160401b0381111561381e5761381e612e61565b6138328161382c84546134a2565b846137bf565b602080601f831160018114613867576000841561384f5750858301515b600019600386901b1c1916600185901b178555611b3d565b600085815260208120601f198616915b8281101561389657888601518255948401946001909101908401613877565b50858210156138b45787850151600019600388901b60f8161c191681555b5050505050600190811b01905550565b805160009060208084018383156132895781518752958201959082019060010161326d565b60006138fe6138f883866138c4565b846138c4565b949350505050565b6001600160a01b0386811682528516602082015260a06040820181905260009061393290830186613259565b82810360608401526139448186613259565b905082810360808401526139588185612e22565b98975050505050505050565b60006020828403121561397657600080fd5b815161080381612dcb565b600060033d111561399a5760046000803e5060005160e01c5b90565b600060443d10156139ab5790565b6040516003193d81016004833e81513d6001600160401b0381602484011181841117156139da57505050505090565b82850191508151818111156139f25750505050505090565b843d8701016020828501011115613a0c5750505050505090565b613a1b60208286010187612e77565b509095945050505050565b60208082526028908201527f455243313135353a204552433131353552656365697665722072656a656374656040820152676420746f6b656e7360c01b606082015260800190565b7f416363657373436f6e74726f6c3a206163636f756e7420000000000000000000815260008351613aa6816017850160208801612dfe565b7001034b99036b4b9b9b4b733903937b6329607d1b6017918401918201528351613ad7816028840160208801612dfe565b01602801949350505050565b600082613b0057634e487b7160e01b600052601260045260246000fd5b500690565b6001600160a01b03868116825285166020820152604081018490526060810183905260a060808201819052600090613b3f90830184612e22565b979650505050505050565b600081613b5957613b5961345d565b50600019019056fe5468657365204e465473206172652061637475616c6c79207469636b65747320666f7220446170702043696e656d61732ea2646970667358221220f7138aec80825d6c3b72b05787fc3bf37af2d11797c8e2af8ecd77cec547322c64736f6c63430008130033",
  "linkReferences": {},
  "deployedLinkReferences": {}
}