{
  "_format": "hh-sol-artifact-1",
  "contractName": "DappTickets",
  "sourceName": "contracts/DappTickets.sol",
  "abi": [
    {
      "inputs": [
        {
          "internalType": "address",
          "name": "_dappCinemas",
          "type": "address"
        },
        {
          "internalType": "string",
          "name": "_name",
          "type": "string"
        },
        {
          "internalType": "string",
          "name": "_symbol",
          "type": "string"
        }
      ],
      "stateMutability": "nonpayable",
      "type": "constructor"
    },
    {
      "anonymous": false,
      "inputs": [
        {
          "indexed": false,
          "internalType": "string",
          "name": "actionType",
          "type": "string"
        }
      ],
      "name": "Action",
      "type": "event"
    },
    {
      "anonymous": false,
      "inputs": [
        {
          "indexed": true,
          "internalType": "address",
          "name": "account",
          "type": "address"
        },
        {
          "indexed": true,
          "internalType": "address",
          "name": "operator",
          "type": "address"
        },
        {
          "indexed": false,
          "internalType": "bool",
          "name": "approved",
          "type": "bool"
        }
      ],
      "name": "ApprovalForAll",
      "type": "event"
    },
    {
      "anonymous": false,
      "inputs": [
        {
          "indexed": true,
          "internalType": "address",
          "name": "previousOwner",
          "type": "address"
        },
        {
          "indexed": true,
          "internalType": "address",
          "name": "newOwner",
          "type": "address"
        }
      ],
      "name": "OwnershipTransferred",
      "type": "event"
    },
    {
      "anonymous": false,
      "inputs": [
        {
          "indexed": true,
          "internalType": "address",
          "name": "operator",
          "type": "address"
        },
        {
          "indexed": true,
          "internalType": "address",
          "name": "from",
          "type": "address"
        },
        {
          "indexed": true,
          "internalType": "address",
          "name": "to",
          "type": "address"
        },
        {
          "indexed": false,
          "internalType": "uint256[]",
          "name": "ids",
          "type": "uint256[]"
        },
        {
          "indexed": false,
          "internalType": "uint256[]",
          "name": "values",
          "type": "uint256[]"
        }
      ],
      "name": "TransferBatch",
      "type": "event"
    },
    {
      "anonymous": false,
      "inputs": [
        {
          "indexed": true,
          "internalType": "address",
          "name": "operator",
          "type": "address"
        },
        {
          "indexed": true,
          "internalType": "address",
          "name": "from",
          "type": "address"
        },
        {
          "indexed": true,
          "internalType": "address",
          "name": "to",
          "type": "address"
        },
        {
          "indexed": false,
          "internalType": "uint256",
          "name": "id",
          "type": "uint256"
        },
        {
          "indexed": false,
          "internalType": "uint256",
          "name": "value",
          "type": "uint256"
        }
      ],
      "name": "TransferSingle",
      "type": "event"
    },
    {
      "anonymous": false,
      "inputs": [
        {
          "indexed": false,
          "internalType": "string",
          "name": "value",
          "type": "string"
        },
        {
          "indexed": true,
          "internalType": "uint256",
          "name": "id",
          "type": "uint256"
        }
      ],
      "name": "URI",
      "type": "event"
    },
    {
      "inputs": [],
      "name": "balance",
      "outputs": [
        {
          "internalType": "uint256",
          "name": "",
          "type": "uint256"
        }
      ],
      "stateMutability": "view",
      "type": "function"
    },
    {
      "inputs": [
        {
          "internalType": "address",
          "name": "account",
          "type": "address"
        },
        {
          "internalType": "uint256",
          "name": "id",
          "type": "uint256"
        }
      ],
      "name": "balanceOf",
      "outputs": [
        {
          "internalType": "uint256",
          "name": "",
          "type": "uint256"
        }
      ],
      "stateMutability": "view",
      "type": "function"
    },
    {
      "inputs": [
        {
          "internalType": "address[]",
          "name": "accounts",
          "type": "address[]"
        },
        {
          "internalType": "uint256[]",
          "name": "ids",
          "type": "uint256[]"
        }
      ],
      "name": "balanceOfBatch",
      "outputs": [
        {
          "internalType": "uint256[]",
          "name": "",
          "type": "uint256[]"
        }
      ],
      "stateMutability": "view",
      "type": "function"
    },
    {
      "inputs": [
        {
          "internalType": "address",
          "name": "account",
          "type": "address"
        },
        {
          "internalType": "uint256",
          "name": "id",
          "type": "uint256"
        },
        {
          "internalType": "uint256",
          "name": "value",
          "type": "uint256"
        }
      ],
      "name": "burn",
      "outputs": [],
      "stateMutability": "nonpayable",
      "type": "function"
    },
    {
      "inputs": [
        {
          "internalType": "address",
          "name": "account",
          "type": "address"
        },
        {
          "internalType": "uint256[]",
          "name": "ids",
          "type": "uint256[]"
        },
        {
          "internalType": "uint256[]",
          "name": "values",
          "type": "uint256[]"
        }
      ],
      "name": "burnBatch",
      "outputs": [],
      "stateMutability": "nonpayable",
      "type": "function"
    },
    {
      "inputs": [
        {
          "internalType": "uint256",
          "name": "slotId",
          "type": "uint256"
        },
        {
          "internalType": "uint256",
          "name": "tickets",
          "type": "uint256"
        }
      ],
      "name": "buyTickets",
      "outputs": [],
      "stateMutability": "payable",
      "type": "function"
    },
    {
      "inputs": [
        {
          "internalType": "uint256",
          "name": "_slotId",
          "type": "uint256"
        }
      ],
      "name": "completeTickets",
      "outputs": [],
      "stateMutability": "nonpayable",
      "type": "function"
    },
    {
      "inputs": [
        {
          "internalType": "uint256",
          "name": "_slotId",
          "type": "uint256"
        }
      ],
      "name": "deleteTickets",
      "outputs": [],
      "stateMutability": "nonpayable",
      "type": "function"
    },
    {
      "inputs": [
        {
          "internalType": "uint256",
          "name": "slotId",
          "type": "uint256"
        }
      ],
      "name": "getTicketHolders",
      "outputs": [
        {
          "internalType": "address[]",
          "name": "Holders",
          "type": "address[]"
        }
      ],
      "stateMutability": "view",
      "type": "function"
    },
    {
      "inputs": [
        {
          "internalType": "address",
          "name": "account",
          "type": "address"
        },
        {
          "internalType": "address",
          "name": "operator",
          "type": "address"
        }
      ],
      "name": "isApprovedForAll",
      "outputs": [
        {
          "internalType": "bool",
          "name": "",
          "type": "bool"
        }
      ],
      "stateMutability": "view",
      "type": "function"
    },
    {
      "inputs": [],
      "name": "name",
      "outputs": [
        {
          "internalType": "string",
          "name": "",
          "type": "string"
        }
      ],
      "stateMutability": "view",
      "type": "function"
    },
    {
      "inputs": [],
      "name": "owner",
      "outputs": [
        {
          "internalType": "address",
          "name": "",
          "type": "address"
        }
      ],
      "stateMutability": "view",
      "type": "function"
    },
    {
      "inputs": [],
      "name": "renounceOwnership",
      "outputs": [],
      "stateMutability": "nonpayable",
      "type": "function"
    },
    {
      "inputs": [
        {
          "internalType": "address",
          "name": "from",
          "type": "address"
        },
        {
          "internalType": "address",
          "name": "to",
          "type": "address"
        },
        {
          "internalType": "uint256[]",
          "name": "ids",
          "type": "uint256[]"
        },
        {
          "internalType": "uint256[]",
          "name": "amounts",
          "type": "uint256[]"
        },
        {
          "internalType": "bytes",
          "name": "data",
          "type": "bytes"
        }
      ],
      "name": "safeBatchTransferFrom",
      "outputs": [],
      "stateMutability": "nonpayable",
      "type": "function"
    },
    {
      "inputs": [
        {
          "internalType": "address",
          "name": "from",
          "type": "address"
        },
        {
          "internalType": "address",
          "name": "to",
          "type": "address"
        },
        {
          "internalType": "uint256",
          "name": "id",
          "type": "uint256"
        },
        {
          "internalType": "uint256",
          "name": "amount",
          "type": "uint256"
        },
        {
          "internalType": "bytes",
          "name": "data",
          "type": "bytes"
        }
      ],
      "name": "safeTransferFrom",
      "outputs": [],
      "stateMutability": "nonpayable",
      "type": "function"
    },
    {
      "inputs": [
        {
          "internalType": "address",
          "name": "operator",
          "type": "address"
        },
        {
          "internalType": "bool",
          "name": "approved",
          "type": "bool"
        }
      ],
      "name": "setApprovalForAll",
      "outputs": [],
      "stateMutability": "nonpayable",
      "type": "function"
    },
    {
      "inputs": [
        {
          "internalType": "bytes4",
          "name": "interfaceId",
          "type": "bytes4"
        }
      ],
      "name": "supportsInterface",
      "outputs": [
        {
          "internalType": "bool",
          "name": "",
          "type": "bool"
        }
      ],
      "stateMutability": "view",
      "type": "function"
    },
    {
      "inputs": [],
      "name": "symbol",
      "outputs": [
        {
          "internalType": "string",
          "name": "",
          "type": "string"
        }
      ],
      "stateMutability": "view",
      "type": "function"
    },
    {
      "inputs": [
        {
          "internalType": "uint256",
          "name": "",
          "type": "uint256"
        }
      ],
      "name": "ticketBuild",
      "outputs": [
        {
          "internalType": "string",
          "name": "name",
          "type": "string"
        },
        {
          "internalType": "string",
          "name": "description",
          "type": "string"
        },
        {
          "internalType": "string",
          "name": "bgHue",
          "type": "string"
        },
        {
          "internalType": "string",
          "name": "textHue",
          "type": "string"
        },
        {
          "internalType": "string",
          "name": "value",
          "type": "string"
        },
        {
          "components": [
            {
              "internalType": "uint256",
              "name": "id",
              "type": "uint256"
            },
            {
              "internalType": "uint256",
              "name": "movieId",
              "type": "uint256"
            },
            {
              "internalType": "uint256",
              "name": "slotId",
              "type": "uint256"
            },
            {
              "internalType": "address",
              "name": "owner",
              "type": "address"
            },
            {
              "internalType": "uint256",
              "name": "cost",
              "type": "uint256"
            },
            {
              "internalType": "uint256",
              "name": "timestamp",
              "type": "uint256"
            },
            {
              "internalType": "uint256",
              "name": "day",
              "type": "uint256"
            },
            {
              "internalType": "bool",
              "name": "used",
              "type": "bool"
            },
            {
              "internalType": "bool",
              "name": "refunded",
              "type": "bool"
            }
          ],
          "internalType": "struct DappTickets.TicketStruct",
          "name": "ticket",
          "type": "tuple"
        }
      ],
      "stateMutability": "view",
      "type": "function"
    },
    {
      "inputs": [
        {
          "internalType": "address",
          "name": "newOwner",
          "type": "address"
        }
      ],
      "name": "transferOwnership",
      "outputs": [],
      "stateMutability": "nonpayable",
      "type": "function"
    },
    {
      "inputs": [
        {
          "internalType": "uint256",
          "name": "tokenId",
          "type": "uint256"
        }
      ],
      "name": "uri",
      "outputs": [
        {
          "internalType": "string",
          "name": "",
          "type": "string"
        }
      ],
      "stateMutability": "view",
      "type": "function"
    },
    {
      "inputs": [
        {
          "internalType": "address",
          "name": "to",
          "type": "address"
        },
        {
          "internalType": "uint256",
          "name": "amount",
          "type": "uint256"
        }
      ],
      "name": "withdrawTo",
      "outputs": [],
      "stateMutability": "nonpayable",
      "type": "function"
    }
  ],
  "bytecode": "0x60806040523480156200001157600080fd5b506040516200466b3803806200466b8339810160408190526200003491620001c3565b6040805160208101909152600081526200004e336200009c565b6200005981620000ec565b50600580546001600160a01b0319166001600160a01b0385161790556007620000838382620002dc565b506008620000928282620002dc565b50505050620003a8565b600080546001600160a01b038381166001600160a01b0319831681178455604051919092169283917f8be0079c531659141344cd1fd0a4f28419497f9722a3daafe3b4186f6b6457e09190a35050565b6003620000fa8282620002dc565b5050565b634e487b7160e01b600052604160045260246000fd5b600082601f8301126200012657600080fd5b81516001600160401b0380821115620001435762000143620000fe565b604051601f8301601f19908116603f011681019082821181831017156200016e576200016e620000fe565b816040528381526020925086838588010111156200018b57600080fd5b600091505b83821015620001af578582018301518183018401529082019062000190565b600093810190920192909252949350505050565b600080600060608486031215620001d957600080fd5b83516001600160a01b0381168114620001f157600080fd5b60208501519093506001600160401b03808211156200020f57600080fd5b6200021d8783880162000114565b935060408601519150808211156200023457600080fd5b50620002438682870162000114565b9150509250925092565b600181811c908216806200026257607f821691505b6020821081036200028357634e487b7160e01b600052602260045260246000fd5b50919050565b601f821115620002d757600081815260208120601f850160051c81016020861015620002b25750805b601f850160051c820191505b81811015620002d357828155600101620002be565b5050505b505050565b81516001600160401b03811115620002f857620002f8620000fe565b62000310816200030984546200024d565b8462000289565b602080601f8311600181146200034857600084156200032f5750858301515b600019600386901b1c1916600185901b178555620002d3565b600085815260208120601f198616915b82811015620003795788860151825594840194600190910190840162000358565b5085821015620003985787850151600019600388901b60f8161c191681555b5050505050600190811b01905550565b6142b380620003b86000396000f3fe6080604052600436106101335760003560e01c8063715018a6116100ab578063a70b725e1161006f578063a70b725e14610374578063b69ef8a814610394578063e985e9c5146103aa578063f242432a146103f3578063f2fde38b14610413578063f5298aca1461043357600080fd5b8063715018a6146102ef5780638627df46146103045780638da5cb5b1461031757806395d89b411461033f578063a22cb4651461035457600080fd5b8063205c2878116100fd578063205c28781461020e57806322c79ffb146102305780632eb2c2d61461025057806340b882cf146102705780634e1273f4146102a25780636b20c454146102cf57600080fd5b80622a5cc914610138578062fdd58e1461016e57806301ffc9a71461019c57806306fdde03146101cc5780630e89341c146101ee575b600080fd5b34801561014457600080fd5b5061015861015336600461307d565b610453565b6040516101659190613096565b60405180910390f35b34801561017a57600080fd5b5061018e6101893660046130ff565b6105c1565b604051908152602001610165565b3480156101a857600080fd5b506101bc6101b736600461313f565b61065c565b6040519015158152602001610165565b3480156101d857600080fd5b506101e16106ac565b60405161016591906131ac565b3480156101fa57600080fd5b506101e161020936600461307d565b61073a565b34801561021a57600080fd5b5061022e6102293660046130ff565b610745565b005b34801561023c57600080fd5b5061022e61024b36600461307d565b6107b9565b34801561025c57600080fd5b5061022e61026b366004613331565b610882565b34801561027c57600080fd5b5061029061028b36600461307d565b6108ce565b604051610165969594939291906133da565b3480156102ae57600080fd5b506102c26102bd3660046134c1565b610c1f565b60405161016591906135c6565b3480156102db57600080fd5b5061022e6102ea3660046135d9565b610d48565b3480156102fb57600080fd5b5061022e610d90565b61022e61031236600461364c565b610da4565b34801561032357600080fd5b506000546040516001600160a01b039091168152602001610165565b34801561034b57600080fd5b506101e1611373565b34801561036057600080fd5b5061022e61036f36600461367c565b611380565b34801561038057600080fd5b5061022e61038f36600461307d565b61138b565b3480156103a057600080fd5b5061018e60065481565b3480156103b657600080fd5b506101bc6103c53660046136b3565b6001600160a01b03918216600090815260026020908152604080832093909416825291909152205460ff1690565b3480156103ff57600080fd5b5061022e61040e3660046136e6565b61144c565b34801561041f57600080fd5b5061022e61042e36600461374a565b611491565b34801561043f57600080fd5b5061022e61044e366004613765565b61150a565b6060600060015b60045481116104bf576000818152600a60205260409020600701548414801561049a57506000818152600a60205260409020600c0154610100900460ff16155b156104ad57816104a9816137ae565b9250505b806104b7816137ae565b91505061045a565b50806001600160401b038111156104d8576104d86131bf565b604051908082528060200260200182016040528015610501578160200160208202803683370190505b509150600060015b60045481116105b9576000818152600a60205260409020600701548514801561054957506000818152600a60205260409020600c0154610100900460ff16155b156105a7576000818152600a60205260409020600801546001600160a01b03168483610574816137ae565b945081518110610586576105866137c7565b60200260200101906001600160a01b031690816001600160a01b0316815250505b806105b1816137ae565b915050610509565b505050919050565b60006001600160a01b0383166106315760405162461bcd60e51b815260206004820152602a60248201527f455243313135353a2061646472657373207a65726f206973206e6f742061207660448201526930b634b21037bbb732b960b11b60648201526084015b60405180910390fd5b5060008181526001602090815260408083206001600160a01b03861684529091529020545b92915050565b60006001600160e01b03198216636cdb3d1360e11b148061068d57506001600160e01b031982166303a24d0760e21b145b8061065657506301ffc9a760e01b6001600160e01b0319831614610656565b600780546106b9906137dd565b80601f01602080910402602001604051908101604052809291908181526020018280546106e5906137dd565b80156107325780601f1061070757610100808354040283529160200191610732565b820191906000526020600020905b81548152906001019060200180831161071557829003601f168201915b505050505081565b60606106568261154d565b61074d61193b565b8060065410156107935760405162461bcd60e51b8152602060048201526011602482015270125b9cdd59999a58da595b9d08199d5b99607a1b6044820152606401610628565b80600660008282546107a59190613817565b909155506107b590508282611995565b5050565b6107c161193b565b60055460405163b6da3f0960e01b8152600481018390526001600160a01b039091169063b6da3f0990602401600060405180830381600087803b15801561080757600080fd5b505af115801561081b573d6000803e3d6000fd5b50505050610828816119f5565b7f8b2c14fe955d044ef95ba32b88d2ceb87c6f73fcefdcebe906063a6d75690f27604051610877906020808252600d908201526c151a58dad95d1cc8189d5c9b9d609a1b604082015260600190565b60405180910390a150565b6001600160a01b03851633148061089e575061089e85336103c5565b6108ba5760405162461bcd60e51b81526004016106289061382a565b6108c78585858585611b39565b5050505050565b600a602052600090815260409020805481906108e9906137dd565b80601f0160208091040260200160405190810160405280929190818152602001828054610915906137dd565b80156109625780601f1061093757610100808354040283529160200191610962565b820191906000526020600020905b81548152906001019060200180831161094557829003601f168201915b505050505090806001018054610977906137dd565b80601f01602080910402602001604051908101604052809291908181526020018280546109a3906137dd565b80156109f05780601f106109c5576101008083540402835291602001916109f0565b820191906000526020600020905b8154815290600101906020018083116109d357829003601f168201915b505050505090806002018054610a05906137dd565b80601f0160208091040260200160405190810160405280929190818152602001828054610a31906137dd565b8015610a7e5780601f10610a5357610100808354040283529160200191610a7e565b820191906000526020600020905b815481529060010190602001808311610a6157829003601f168201915b505050505090806003018054610a93906137dd565b80601f0160208091040260200160405190810160405280929190818152602001828054610abf906137dd565b8015610b0c5780601f10610ae157610100808354040283529160200191610b0c565b820191906000526020600020905b815481529060010190602001808311610aef57829003601f168201915b505050505090806004018054610b21906137dd565b80601f0160208091040260200160405190810160405280929190818152602001828054610b4d906137dd565b8015610b9a5780601f10610b6f57610100808354040283529160200191610b9a565b820191906000526020600020905b815481529060010190602001808311610b7d57829003601f168201915b50506040805161012081018252600587015481526006870154602082015260078701549181019190915260088601546001600160a01b0316606082015260098601546080820152600a86015460a0820152600b86015460c0820152600c9095015460ff808216151560e088015261010091829004161515908601525091929150879050565b60608151835114610c845760405162461bcd60e51b815260206004820152602960248201527f455243313135353a206163636f756e747320616e6420696473206c656e677468604482015268040dad2e6dac2e8c6d60bb1b6064820152608401610628565b600083516001600160401b03811115610c9f57610c9f6131bf565b604051908082528060200260200182016040528015610cc8578160200160208202803683370190505b50905060005b8451811015610d4057610d13858281518110610cec57610cec6137c7565b6020026020010151858381518110610d0657610d066137c7565b60200260200101516105c1565b828281518110610d2557610d256137c7565b6020908102919091010152610d39816137ae565b9050610cce565b509392505050565b6001600160a01b038316331480610d645750610d6483336103c5565b610d805760405162461bcd60e51b81526004016106289061382a565b610d8b838383611cd8565b505050565b610d9861193b565b610da26000611e66565b565b60055460405163358cc11560e21b81526004810184905282916001600160a01b03169063d63304549060240161016060405180830381865afa158015610dee573d6000803e3d6000fd5b505050506040513d601f19601f82011682018060405250810190610e129190613883565b60400151610e209190613920565b341015610e655760405162461bcd60e51b8152602060048201526013602482015272125b9cdd59999a58da595b9d08185b5bdd5b9d606a1b6044820152606401610628565b60055460405163358cc11560e21b8152600481018490526001600160a01b039091169063d63304549060240161016060405180830381865afa158015610eaf573d6000803e3d6000fd5b505050506040513d601f19601f82011682018060405250810190610ed39190613883565b60c0015160055460405163358cc11560e21b8152600481018590526001600160a01b039091169063d63304549060240161016060405180830381865afa158015610f21573d6000803e3d6000fd5b505050506040513d601f19601f82011682018060405250810190610f459190613883565b60a0015111610f885760405162461bcd60e51b815260206004820152600f60248201526e4f7574206f6620636170616369747960881b6044820152606401610628565b60005b818110156111ea57610fa1600480546001019055565b610ffd60405180610120016040528060008152602001600081526020016000815260200160006001600160a01b031681526020016000815260200160008152602001600081526020016000151581526020016000151581525090565b600454815260055460405163358cc11560e21b8152600481018690526001600160a01b039091169063d63304549060240161016060405180830381865afa15801561104c573d6000803e3d6000fd5b505050506040513d601f19601f820116820180604052508101906110709190613883565b6040908101516080830152600554905163358cc11560e21b8152600481018690526001600160a01b039091169063d63304549060240161016060405180830381865afa1580156110c4573d6000803e3d6000fd5b505050506040513d601f19601f820116820180604052508101906110e89190613883565b610120015160c082015260408101849052336060820152611107611eb6565b60a0820190815281516000908152600a602081815260408084208651600582015582870151600682015581870151600782015560608701516008820180546001600160a01b039092166001600160a01b03199283161790556080880151600983015595519381019390935560c0860151600b8085019190915560e0870151600c909401805461010098890151151590980261ff00199515159590951661ffff1990981697909717939093179095558783529081529281208054600181018255908252929020909101805490911633179055806111e2816137ae565b915050610f8b565b5060055460405163358cc11560e21b81526004810184905282916001600160a01b03169063d63304549060240161016060405180830381865afa158015611235573d6000803e3d6000fd5b505050506040513d601f19601f820116820180604052508101906112599190613883565b60c0018181516112699190613937565b90525060055460405163358cc11560e21b81526004810184905282916001600160a01b03169063d63304549060240161016060405180830381865afa1580156112b6573d6000803e3d6000fd5b505050506040513d601f19601f820116820180604052508101906112da9190613883565b604001516112e89190613920565b60055460405163358cc11560e21b8152600481018590526001600160a01b039091169063d63304549060240161016060405180830381865afa158015611332573d6000803e3d6000fd5b505050506040513d601f19601f820116820180604052508101906113569190613883565b610140018181516113679190613937565b9052506107b581611ed1565b600880546106b9906137dd565b6107b533838361213d565b61139361193b565b600554604051633b6559c160e01b8152600481018390526001600160a01b0390911690633b6559c190602401600060405180830381600087803b1580156113d957600080fd5b505af11580156113ed573d6000803e3d6000fd5b505050506113fa8161221d565b7f8b2c14fe955d044ef95ba32b88d2ceb87c6f73fcefdcebe906063a6d75690f276040516108779060208082526010908201526f151a58dad95d1cc81c99599d5b99195960821b604082015260600190565b6001600160a01b038516331480611468575061146885336103c5565b6114845760405162461bcd60e51b81526004016106289061382a565b6108c78585858585612378565b61149961193b565b6001600160a01b0381166114fe5760405162461bcd60e51b815260206004820152602660248201527f4f776e61626c653a206e6577206f776e657220697320746865207a65726f206160448201526564647265737360d01b6064820152608401610628565b61150781611e66565b50565b6001600160a01b038316331480611526575061152683336103c5565b6115425760405162461bcd60e51b81526004016106289061382a565b610d8b8383836124a6565b60606000600a60008481526020019081526020016000206040518060c001604052908160008201805461157f906137dd565b80601f01602080910402602001604051908101604052809291908181526020018280546115ab906137dd565b80156115f85780601f106115cd576101008083540402835291602001916115f8565b820191906000526020600020905b8154815290600101906020018083116115db57829003601f168201915b50505050508152602001600182018054611611906137dd565b80601f016020809104026020016040519081016040528092919081815260200182805461163d906137dd565b801561168a5780601f1061165f5761010080835404028352916020019161168a565b820191906000526020600020905b81548152906001019060200180831161166d57829003601f168201915b505050505081526020016002820180546116a3906137dd565b80601f01602080910402602001604051908101604052809291908181526020018280546116cf906137dd565b801561171c5780601f106116f15761010080835404028352916020019161171c565b820191906000526020600020905b8154815290600101906020018083116116ff57829003601f168201915b50505050508152602001600382018054611735906137dd565b80601f0160208091040260200160405190810160405280929190818152602001828054611761906137dd565b80156117ae5780601f10611783576101008083540402835291602001916117ae565b820191906000526020600020905b81548152906001019060200180831161179157829003601f168201915b505050505081526020016004820180546117c7906137dd565b80601f01602080910402602001604051908101604052809291908181526020018280546117f3906137dd565b80156118405780601f1061181557610100808354040283529160200191611840565b820191906000526020600020905b81548152906001019060200180831161182357829003601f168201915b5050509183525050604080516101208101825260058401548152600684015460208281019190915260078501549282019290925260088401546001600160a01b0316606082015260098401546080820152600a84015460a0820152600b84015460c0820152600c9093015460ff808216151560e0860152610100918290041615159084015290810191909152815190820151919250611914916118e2866125b2565b84604001518560600151604051602001611900959493929190613966565b60405160208183030381529060405261295e565b6040516020016119249190613ae2565b604051602081830303815290604052915050919050565b6000546001600160a01b03163314610da25760405162461bcd60e51b815260206004820181905260248201527f4f776e61626c653a2063616c6c6572206973206e6f7420746865206f776e65726044820152606401610628565b6000826001600160a01b03168260405160006040518083038185875af1925050503d80600081146119e2576040519150601f19603f3d011682016040523d82523d6000602084013e6119e7565b606091505b5050905080610d8b57600080fd5b6119fd61193b565b60055460405163358cc11560e21b81526004810183905282916001600160a01b03169063d63304549060240161016060405180830381865afa158015611a47573d6000803e3d6000fd5b505050506040513d601f19601f82011682018060405250810190611a6b9190613883565b5114611aaa5760405162461bcd60e51b815260206004820152600e60248201526d14db1bdd081b9bdd08199bdd5b9960921b6044820152606401610628565b60015b60045481116107b5576000818152600a602052604090206005015481148015611ae857506000818152600a60205260409020600c015460ff16155b15611b27576000818152600a60205260408120600c8101805460ff19166001179055600901546006805491929091611b21908490613937565b90915550505b80611b31816137ae565b915050611aad565b8151835114611b5a5760405162461bcd60e51b815260040161062890613b27565b6001600160a01b038416611b805760405162461bcd60e51b815260040161062890613b6f565b3360005b8451811015611c6a576000858281518110611ba157611ba16137c7565b602002602001015190506000858381518110611bbf57611bbf6137c7565b60209081029190910181015160008481526001835260408082206001600160a01b038e168352909352919091205490915081811015611c105760405162461bcd60e51b815260040161062890613bb4565b60008381526001602090815260408083206001600160a01b038e8116855292528083208585039055908b16825281208054849290611c4f908490613937565b9250508190555050505080611c63906137ae565b9050611b84565b50846001600160a01b0316866001600160a01b0316826001600160a01b03167f4a39dc06d4c0dbc64b70af90fd698a233a518aa5d07e595d983b8c0526c8f7fb8787604051611cba929190613bfe565b60405180910390a4611cd0818787878787612ac4565b505050505050565b6001600160a01b038316611cfe5760405162461bcd60e51b815260040161062890613c23565b8051825114611d1f5760405162461bcd60e51b815260040161062890613b27565b604080516020810190915260009081905233905b8351811015611df8576000848281518110611d5057611d506137c7565b602002602001015190506000848381518110611d6e57611d6e6137c7565b60209081029190910181015160008481526001835260408082206001600160a01b038c168352909352919091205490915081811015611dbf5760405162461bcd60e51b815260040161062890613c66565b60009283526001602090815260408085206001600160a01b038b1686529091529092209103905580611df0816137ae565b915050611d33565b5060006001600160a01b0316846001600160a01b0316826001600160a01b03167f4a39dc06d4c0dbc64b70af90fd698a233a518aa5d07e595d983b8c0526c8f7fb8686604051611e49929190613bfe565b60405180910390a460408051602081019091526000905250505050565b600080546001600160a01b038381166001600160a01b0319831681178455604051919092169283917f8be0079c531659141344cd1fd0a4f28419497f9722a3daafe3b4186f6b6457e09190a35050565b600080611ec5426103e8613920565b610656906103e8613937565b6000816001600160401b03811115611eeb57611eeb6131bf565b604051908082528060200260200182016040528015611f14578160200160208202803683370190505b5090506000826001600160401b03811115611f3157611f316131bf565b604051908082528060200260200182016040528015611f5a578160200160208202803683370190505b509050600083611f6960045490565b611f739190613817565b905060005b8481101561210a5781611f8a816137ae565b9250506000611f9883612c1f565b90506000600882604051602001611fb0929190613caa565b60408051601f198184030181526060830190915260318083529092506000919061420d60208301396000868152600a60205260409020909150611ff38382613d85565b506000858152600a6020526040902060010161200f8282613d85565b5061202c612027610169612021611eb6565b88612cb1565b612c1f565b6000868152600a60205260409020600201906120489082613d85565b506120596120276101694288612cb1565b6000868152600a60205260409020600301906120759082613d85565b506000858152600a602052604090206004016120918382613d85565b5061209b8561073a565b6000868152600960205260409020906120b49082613d85565b50848785815181106120c8576120c86137c7565b60200260200101818152505060018685815181106120e8576120e86137c7565b6020026020010181815250505050508080612102906137ae565b915050611f78565b5060008383604051602001612120929190613e69565b60405160208183030381529060405290506108c733858584612d19565b816001600160a01b0316836001600160a01b0316036121b05760405162461bcd60e51b815260206004820152602960248201527f455243313135353a2073657474696e6720617070726f76616c20737461747573604482015268103337b91039b2b63360b91b6064820152608401610628565b6001600160a01b03838116600081815260026020908152604080832094871680845294825291829020805460ff191686151590811790915591519182527f17307eab39ab6107e8899845ad3d59bd9653f200f220920489ca2b5937696c31910160405180910390a3505050565b61222561193b565b60055460405163358cc11560e21b81526004810183905282916001600160a01b03169063d63304549060240161016060405180830381865afa15801561226f573d6000803e3d6000fd5b505050506040513d601f19601f820116820180604052508101906122939190613883565b51146122d25760405162461bcd60e51b815260206004820152600e60248201526d14db1bdd081b9bdd08199bdd5b9960921b6044820152606401610628565b60015b60045481116107b5576000818152600a60205260409020600581015460098201546008909201549091906001600160a01b0316828414801561232957506000848152600a60205260409020600c015460ff16155b15612362576000848152600a60205260409020600c01805461ff0019166101001790556123568183611995565b612362818460016124a6565b5050508080612370906137ae565b9150506122d5565b6001600160a01b03841661239e5760405162461bcd60e51b815260040161062890613b6f565b3360006123aa85612e9f565b905060006123b785612e9f565b905060008681526001602090815260408083206001600160a01b038c168452909152902054858110156123fc5760405162461bcd60e51b815260040161062890613bb4565b60008781526001602090815260408083206001600160a01b038d8116855292528083208985039055908a1682528120805488929061243b908490613937565b909155505060408051888152602081018890526001600160a01b03808b16928c821692918816917fc3d58168c5ae7397731d063d5bbf3d657854427343f4c083240f7aacaa2d0f62910160405180910390a461249b848a8a8a8a8a612eea565b505050505050505050565b6001600160a01b0383166124cc5760405162461bcd60e51b815260040161062890613c23565b3360006124d884612e9f565b905060006124e584612e9f565b6040805160208082018352600091829052888252600181528282206001600160a01b038b16835290522054909150848110156125335760405162461bcd60e51b815260040161062890613c66565b60008681526001602090815260408083206001600160a01b038b81168086529184528285208a8703905582518b81529384018a90529092908816917fc3d58168c5ae7397731d063d5bbf3d657854427343f4c083240f7aacaa2d0f62910160405180910390a46040805160208101909152600090525b50505050505050565b60606000600a60008481526020019081526020016000206040518060c00160405290816000820180546125e4906137dd565b80601f0160208091040260200160405190810160405280929190818152602001828054612610906137dd565b801561265d5780601f106126325761010080835404028352916020019161265d565b820191906000526020600020905b81548152906001019060200180831161264057829003601f168201915b50505050508152602001600182018054612676906137dd565b80601f01602080910402602001604051908101604052809291908181526020018280546126a2906137dd565b80156126ef5780601f106126c4576101008083540402835291602001916126ef565b820191906000526020600020905b8154815290600101906020018083116126d257829003601f168201915b50505050508152602001600282018054612708906137dd565b80601f0160208091040260200160405190810160405280929190818152602001828054612734906137dd565b80156127815780601f1061275657610100808354040283529160200191612781565b820191906000526020600020905b81548152906001019060200180831161276457829003601f168201915b5050505050815260200160038201805461279a906137dd565b80601f01602080910402602001604051908101604052809291908181526020018280546127c6906137dd565b80156128135780601f106127e857610100808354040283529160200191612813565b820191906000526020600020905b8154815290600101906020018083116127f657829003601f168201915b5050505050815260200160048201805461282c906137dd565b80601f0160208091040260200160405190810160405280929190818152602001828054612858906137dd565b80156128a55780601f1061287a576101008083540402835291602001916128a5565b820191906000526020600020905b81548152906001019060200180831161288857829003601f168201915b5050509183525050604080516101208101825260058401548152600684015460208281019190915260078501548284015260088501546001600160a01b03166060808401919091526009860154608080850191909152600a87015460a0850152600b87015460c0850152600c9096015460ff808216151560e086015261010091829004161515908401529381019190915284820151928501519385015191519495506129579461190094929101613e86565b9392505050565b6060815160000361297d57505060408051602081019091526000815290565b600060405180606001604052806040815260200161423e60409139905060006003845160026129ac9190613937565b6129b69190614042565b6129c1906004613920565b905060006129d0826020613937565b6001600160401b038111156129e7576129e76131bf565b6040519080825280601f01601f191660200182016040528015612a11576020820181803683370190505b509050818152600183018586518101602084015b81831015612a7f5760039283018051603f601282901c811687015160f890811b8552600c83901c8216880151811b6001860152600683901c8216880151811b60028601529116860151901b93820193909352600401612a25565b600389510660018114612a995760028114612aaa57612ab6565b613d3d60f01b600119830152612ab6565b603d60f81b6000198301525b509398975050505050505050565b6001600160a01b0384163b15611cd05760405163bc197c8160e01b81526001600160a01b0385169063bc197c8190612b089089908990889088908890600401614056565b6020604051808303816000875af1925050508015612b43575060408051601f3d908101601f19168201909252612b40918101906140b4565b60015b612bef57612b4f6140d1565b806308c379a003612b885750612b636140ed565b80612b6e5750612b8a565b8060405162461bcd60e51b815260040161062891906131ac565b505b60405162461bcd60e51b815260206004820152603460248201527f455243313135353a207472616e7366657220746f206e6f6e2d455243313135356044820152732932b1b2b4bb32b91034b6b83632b6b2b73a32b960611b6064820152608401610628565b6001600160e01b0319811663bc197c8160e01b146125a95760405162461bcd60e51b815260040161062890614176565b60606000612c2c83612fa5565b60010190506000816001600160401b03811115612c4b57612c4b6131bf565b6040519080825280601f01601f191660200182016040528015612c75576020820181803683370190505b5090508181016020015b600019016f181899199a1a9b1b9c1cb0b131b232b360811b600a86061a8153600a8504945084612c7f57509392505050565b604080514260208201526bffffffffffffffffffffffff193360601b16918101919091526054810183905260748101829052600090819085906094016040516020818303038152906040528051906020012060001c612d1091906141be565b95945050505050565b6001600160a01b038416612d795760405162461bcd60e51b815260206004820152602160248201527f455243313135353a206d696e7420746f20746865207a65726f206164647265736044820152607360f81b6064820152608401610628565b8151835114612d9a5760405162461bcd60e51b815260040161062890613b27565b3360005b8451811015612e3757838181518110612db957612db96137c7565b602002602001015160016000878481518110612dd757612dd76137c7565b602002602001015181526020019081526020016000206000886001600160a01b03166001600160a01b031681526020019081526020016000206000828254612e1f9190613937565b90915550819050612e2f816137ae565b915050612d9e565b50846001600160a01b031660006001600160a01b0316826001600160a01b03167f4a39dc06d4c0dbc64b70af90fd698a233a518aa5d07e595d983b8c0526c8f7fb8787604051612e88929190613bfe565b60405180910390a46108c781600087878787612ac4565b60408051600180825281830190925260609160009190602080830190803683370190505090508281600081518110612ed957612ed96137c7565b602090810291909101015292915050565b6001600160a01b0384163b15611cd05760405163f23a6e6160e01b81526001600160a01b0385169063f23a6e6190612f2e90899089908890889088906004016141d2565b6020604051808303816000875af1925050508015612f69575060408051601f3d908101601f19168201909252612f66918101906140b4565b60015b612f7557612b4f6140d1565b6001600160e01b0319811663f23a6e6160e01b146125a95760405162461bcd60e51b815260040161062890614176565b60008072184f03e93ff9f4daa797ed6e38ed64bf6a1f0160401b8310612fe45772184f03e93ff9f4daa797ed6e38ed64bf6a1f0160401b830492506040015b6d04ee2d6d415b85acef81000000008310613010576d04ee2d6d415b85acef8100000000830492506020015b662386f26fc10000831061302e57662386f26fc10000830492506010015b6305f5e1008310613046576305f5e100830492506008015b612710831061305a57612710830492506004015b6064831061306c576064830492506002015b600a83106106565760010192915050565b60006020828403121561308f57600080fd5b5035919050565b6020808252825182820181905260009190848201906040850190845b818110156130d75783516001600160a01b0316835292840192918401916001016130b2565b50909695505050505050565b80356001600160a01b03811681146130fa57600080fd5b919050565b6000806040838503121561311257600080fd5b61311b836130e3565b946020939093013593505050565b6001600160e01b03198116811461150757600080fd5b60006020828403121561315157600080fd5b813561295781613129565b60005b8381101561317757818101518382015260200161315f565b50506000910152565b6000815180845261319881602086016020860161315c565b601f01601f19169290920160200192915050565b6020815260006129576020830184613180565b634e487b7160e01b600052604160045260246000fd5b601f8201601f191681016001600160401b03811182821017156131fa576131fa6131bf565b6040525050565b60405161016081016001600160401b0381118282101715613224576132246131bf565b60405290565b60006001600160401b03821115613243576132436131bf565b5060051b60200190565b600082601f83011261325e57600080fd5b8135602061326b8261322a565b60405161327882826131d5565b83815260059390931b850182019282810191508684111561329857600080fd5b8286015b848110156132b3578035835291830191830161329c565b509695505050505050565b600082601f8301126132cf57600080fd5b81356001600160401b038111156132e8576132e86131bf565b6040516132ff601f8301601f1916602001826131d5565b81815284602083860101111561331457600080fd5b816020850160208301376000918101602001919091529392505050565b600080600080600060a0868803121561334957600080fd5b613352866130e3565b9450613360602087016130e3565b935060408601356001600160401b038082111561337c57600080fd5b61338889838a0161324d565b9450606088013591508082111561339e57600080fd5b6133aa89838a0161324d565b935060808801359150808211156133c057600080fd5b506133cd888289016132be565b9150509295509295909350565b60006101c08083526133ee8184018a613180565b905082810360208401526134028189613180565b905082810360408401526134168188613180565b9050828103606084015261342a8187613180565b9050828103608084015261343e8186613180565b915050825160a0830152602083015160c0830152604083015160e0830152606083015161010060018060a01b03821681850152608085015161012085015260a085015161014085015260c085015161016085015260e08501511515610180850152808501519150506134b56101a084018215159052565b50979650505050505050565b600080604083850312156134d457600080fd5b82356001600160401b03808211156134eb57600080fd5b818501915085601f8301126134ff57600080fd5b8135602061350c8261322a565b60405161351982826131d5565b83815260059390931b850182019282810191508984111561353957600080fd5b948201945b8386101561355e5761354f866130e3565b8252948201949082019061353e565b9650508601359250508082111561357457600080fd5b506135818582860161324d565b9150509250929050565b600081518084526020808501945080840160005b838110156135bb5781518752958201959082019060010161359f565b509495945050505050565b602081526000612957602083018461358b565b6000806000606084860312156135ee57600080fd5b6135f7846130e3565b925060208401356001600160401b038082111561361357600080fd5b61361f8783880161324d565b9350604086013591508082111561363557600080fd5b506136428682870161324d565b9150509250925092565b6000806040838503121561365f57600080fd5b50508035926020909101359150565b801515811461150757600080fd5b6000806040838503121561368f57600080fd5b613698836130e3565b915060208301356136a88161366e565b809150509250929050565b600080604083850312156136c657600080fd5b6136cf836130e3565b91506136dd602084016130e3565b90509250929050565b600080600080600060a086880312156136fe57600080fd5b613707866130e3565b9450613715602087016130e3565b9350604086013592506060860135915060808601356001600160401b0381111561373e57600080fd5b6133cd888289016132be565b60006020828403121561375c57600080fd5b612957826130e3565b60008060006060848603121561377a57600080fd5b613783846130e3565b95602085013595506040909401359392505050565b634e487b7160e01b600052601160045260246000fd5b6000600182016137c0576137c0613798565b5060010190565b634e487b7160e01b600052603260045260246000fd5b600181811c908216806137f157607f821691505b60208210810361381157634e487b7160e01b600052602260045260246000fd5b50919050565b8181038181111561065657610656613798565b6020808252602e908201527f455243313135353a2063616c6c6572206973206e6f7420746f6b656e206f776e60408201526d195c881bdc88185c1c1c9bdd995960921b606082015260800190565b80516130fa8161366e565b6000610160828403121561389657600080fd5b61389e613201565b825181526020830151602082015260408301516040820152606083015160608201526080830151608082015260a083015160a082015260c083015160c08201526138ea60e08401613878565b60e08201526101006138fd818501613878565b908201526101208381015190820152610140928301519281019290925250919050565b808202811582820484141761065657610656613798565b8082018082111561065657610656613798565b6000815161395c81856020860161315c565b9290920192915050565b683d913730b6b2911d1160b91b8152855160009061398b816009850160208b0161315c565b71111610113232b9b1b934b83a34b7b7111d1160711b60099184019182015286516139bd81601b840160208b0161315c565b6c1116101134b6b0b3b2911d101160991b601b92909101918201527f646174613a696d6167652f7376672b786d6c3b6261736536342c00000000000060288201528551613a11816042840160208a0161315c565b7f222c202261747472696275746573223a205b7b2274726169745f74797065223a604292909101918201527f20224261636b67726f756e6420487565222c202276616c7565223a202200000060628201528451613a7581607f84016020890161315c565b613ad5613ac5613abf607f848601017f227d2c207b2274726169745f74797065223a20225465787420487565222c20228152683b30b63ab2911d101160b91b602082015260290190565b8761394a565b63227d5d7d60e01b815260040190565b9998505050505050505050565b7f646174613a6170706c69636174696f6e2f6a736f6e3b6261736536342c000000815260008251613b1a81601d85016020870161315c565b91909101601d0192915050565b60208082526028908201527f455243313135353a2069647320616e6420616d6f756e7473206c656e677468206040820152670dad2e6dac2e8c6d60c31b606082015260800190565b60208082526025908201527f455243313135353a207472616e7366657220746f20746865207a65726f206164604082015264647265737360d81b606082015260800190565b6020808252602a908201527f455243313135353a20696e73756666696369656e742062616c616e636520666f60408201526939103a3930b739b332b960b11b606082015260800190565b604081526000613c11604083018561358b565b8281036020840152612d10818561358b565b60208082526023908201527f455243313135353a206275726e2066726f6d20746865207a65726f206164647260408201526265737360e81b606082015260800190565b60208082526024908201527f455243313135353a206275726e20616d6f756e7420657863656564732062616c604082015263616e636560e01b606082015260800190565b6000808454613cb8816137dd565b60018281168015613cd05760018114613ce557613d14565b60ff1984168752821515830287019450613d14565b8860005260208060002060005b85811015613d0b5781548a820152908401908201613cf2565b50505082870194505b5050505061202360f01b81528351613d3381600284016020880161315c565b01600201949350505050565b601f821115610d8b57600081815260208120601f850160051c81016020861015613d665750805b601f850160051c820191505b81811015611cd057828155600101613d72565b81516001600160401b03811115613d9e57613d9e6131bf565b613db281613dac84546137dd565b84613d3f565b602080601f831160018114613de75760008415613dcf5750858301515b600019600386901b1c1916600185901b178555611cd0565b600085815260208120601f198616915b82811015613e1657888601518255948401946001909101908401613df7565b5085821015613e345787850151600019600388901b60f8161c191681555b5050505050600190811b01905550565b805160009060208084018383156135bb5781518752958201959082019060010161359f565b6000613e7e613e788386613e44565b84613e44565b949350505050565b7f3c7376672077696474683d2235303022206865696768743d223530302220786d81527f6c6e733d22687474703a2f2f7777772e77332e6f72672f323030302f737667226020820152601f60f91b60408201527f3c72656374206865696768743d22353030222077696474683d223530302220666041820152680d2d8d87a44d0e6d8560bb1b606182015260008451613f2681606a85016020890161315c565b6d16101a98129610191a929491179f60911b606a918401918201527f3c7465787420783d223530252220793d223530252220646f6d696e616e742d6260788201527f6173656c696e653d226d6964646c65222066696c6c3d2268736c28000000000060988201528451613fa08160b384016020890161315c565b61402161400f613ffc613ff660b3858701017f2c20313030252c20383025292220746578742d616e63686f723d226d6964646c8152713291103337b73a16b9b4bd329e911a18911f60711b602082015260320190565b8861394a565b661e17ba32bc3a1f60c91b815260070190565b651e17b9bb339f60d11b815260060190565b979650505050505050565b634e487b7160e01b600052601260045260246000fd5b6000826140515761405161402c565b500490565b6001600160a01b0386811682528516602082015260a0604082018190526000906140829083018661358b565b8281036060840152614094818661358b565b905082810360808401526140a88185613180565b98975050505050505050565b6000602082840312156140c657600080fd5b815161295781613129565b600060033d11156140ea5760046000803e5060005160e01c5b90565b600060443d10156140fb5790565b6040516003193d81016004833e81513d6001600160401b03816024840111818411171561412a57505050505090565b82850191508151818111156141425750505050505090565b843d870101602082850101111561415c5750505050505090565b61416b602082860101876131d5565b509095945050505050565b60208082526028908201527f455243313135353a204552433131353552656365697665722072656a656374656040820152676420746f6b656e7360c01b606082015260800190565b6000826141cd576141cd61402c565b500690565b6001600160a01b03868116825285166020820152604081018490526060810183905260a0608082018190526000906140219083018461318056fe5468657365204e465473206172652061637475616c6c79207469636b65747320666f7220446170702043696e656d61732e4142434445464748494a4b4c4d4e4f505152535455565758595a6162636465666768696a6b6c6d6e6f707172737475767778797a303132333435363738392b2fa2646970667358221220ed3e16579cfc804baa78840b35bbab1655ccd18d7ef06981e540494b48f49cac64736f6c63430008130033",
  "linkReferences": {},
  "deployedLinkReferences": {}
}