{
  "_format": "hh-sol-artifact-1",
  "contractName": "DappTickets",
  "sourceName": "contracts/DappTickets.sol",
  "abi": [
    {
      "inputs": [
        {
          "internalType": "address",
          "name": "_dappCinemas",
          "type": "address"
        },
        {
          "internalType": "string",
          "name": "_name",
          "type": "string"
        },
        {
          "internalType": "string",
          "name": "_symbol",
          "type": "string"
        }
      ],
      "stateMutability": "nonpayable",
      "type": "constructor"
    },
    {
      "anonymous": false,
      "inputs": [
        {
          "indexed": false,
          "internalType": "string",
          "name": "actionType",
          "type": "string"
        }
      ],
      "name": "Action",
      "type": "event"
    },
    {
      "anonymous": false,
      "inputs": [
        {
          "indexed": true,
          "internalType": "address",
          "name": "account",
          "type": "address"
        },
        {
          "indexed": true,
          "internalType": "address",
          "name": "operator",
          "type": "address"
        },
        {
          "indexed": false,
          "internalType": "bool",
          "name": "approved",
          "type": "bool"
        }
      ],
      "name": "ApprovalForAll",
      "type": "event"
    },
    {
      "anonymous": false,
      "inputs": [
        {
          "indexed": true,
          "internalType": "address",
          "name": "previousOwner",
          "type": "address"
        },
        {
          "indexed": true,
          "internalType": "address",
          "name": "newOwner",
          "type": "address"
        }
      ],
      "name": "OwnershipTransferred",
      "type": "event"
    },
    {
      "anonymous": false,
      "inputs": [
        {
          "indexed": true,
          "internalType": "address",
          "name": "operator",
          "type": "address"
        },
        {
          "indexed": true,
          "internalType": "address",
          "name": "from",
          "type": "address"
        },
        {
          "indexed": true,
          "internalType": "address",
          "name": "to",
          "type": "address"
        },
        {
          "indexed": false,
          "internalType": "uint256[]",
          "name": "ids",
          "type": "uint256[]"
        },
        {
          "indexed": false,
          "internalType": "uint256[]",
          "name": "values",
          "type": "uint256[]"
        }
      ],
      "name": "TransferBatch",
      "type": "event"
    },
    {
      "anonymous": false,
      "inputs": [
        {
          "indexed": true,
          "internalType": "address",
          "name": "operator",
          "type": "address"
        },
        {
          "indexed": true,
          "internalType": "address",
          "name": "from",
          "type": "address"
        },
        {
          "indexed": true,
          "internalType": "address",
          "name": "to",
          "type": "address"
        },
        {
          "indexed": false,
          "internalType": "uint256",
          "name": "id",
          "type": "uint256"
        },
        {
          "indexed": false,
          "internalType": "uint256",
          "name": "value",
          "type": "uint256"
        }
      ],
      "name": "TransferSingle",
      "type": "event"
    },
    {
      "anonymous": false,
      "inputs": [
        {
          "indexed": false,
          "internalType": "string",
          "name": "value",
          "type": "string"
        },
        {
          "indexed": true,
          "internalType": "uint256",
          "name": "id",
          "type": "uint256"
        }
      ],
      "name": "URI",
      "type": "event"
    },
    {
      "inputs": [],
      "name": "balance",
      "outputs": [
        {
          "internalType": "uint256",
          "name": "",
          "type": "uint256"
        }
      ],
      "stateMutability": "view",
      "type": "function"
    },
    {
      "inputs": [
        {
          "internalType": "address",
          "name": "account",
          "type": "address"
        },
        {
          "internalType": "uint256",
          "name": "id",
          "type": "uint256"
        }
      ],
      "name": "balanceOf",
      "outputs": [
        {
          "internalType": "uint256",
          "name": "",
          "type": "uint256"
        }
      ],
      "stateMutability": "view",
      "type": "function"
    },
    {
      "inputs": [
        {
          "internalType": "address[]",
          "name": "accounts",
          "type": "address[]"
        },
        {
          "internalType": "uint256[]",
          "name": "ids",
          "type": "uint256[]"
        }
      ],
      "name": "balanceOfBatch",
      "outputs": [
        {
          "internalType": "uint256[]",
          "name": "",
          "type": "uint256[]"
        }
      ],
      "stateMutability": "view",
      "type": "function"
    },
    {
      "inputs": [
        {
          "internalType": "address",
          "name": "account",
          "type": "address"
        },
        {
          "internalType": "uint256",
          "name": "id",
          "type": "uint256"
        },
        {
          "internalType": "uint256",
          "name": "value",
          "type": "uint256"
        }
      ],
      "name": "burn",
      "outputs": [],
      "stateMutability": "nonpayable",
      "type": "function"
    },
    {
      "inputs": [
        {
          "internalType": "address",
          "name": "account",
          "type": "address"
        },
        {
          "internalType": "uint256[]",
          "name": "ids",
          "type": "uint256[]"
        },
        {
          "internalType": "uint256[]",
          "name": "values",
          "type": "uint256[]"
        }
      ],
      "name": "burnBatch",
      "outputs": [],
      "stateMutability": "nonpayable",
      "type": "function"
    },
    {
      "inputs": [
        {
          "internalType": "uint256",
          "name": "slotId",
          "type": "uint256"
        },
        {
          "internalType": "uint256",
          "name": "tickets",
          "type": "uint256"
        }
      ],
      "name": "buyTickets",
      "outputs": [],
      "stateMutability": "payable",
      "type": "function"
    },
    {
      "inputs": [
        {
          "internalType": "uint256",
          "name": "_slotId",
          "type": "uint256"
        }
      ],
      "name": "completeTickets",
      "outputs": [],
      "stateMutability": "nonpayable",
      "type": "function"
    },
    {
      "inputs": [
        {
          "internalType": "uint256",
          "name": "_slotId",
          "type": "uint256"
        }
      ],
      "name": "deleteTickets",
      "outputs": [],
      "stateMutability": "nonpayable",
      "type": "function"
    },
    {
      "inputs": [
        {
          "internalType": "uint256",
          "name": "slotId",
          "type": "uint256"
        }
      ],
      "name": "getTicketHolders",
      "outputs": [
        {
          "internalType": "address[]",
          "name": "Holders",
          "type": "address[]"
        }
      ],
      "stateMutability": "view",
      "type": "function"
    },
    {
      "inputs": [
        {
          "internalType": "address",
          "name": "account",
          "type": "address"
        },
        {
          "internalType": "address",
          "name": "operator",
          "type": "address"
        }
      ],
      "name": "isApprovedForAll",
      "outputs": [
        {
          "internalType": "bool",
          "name": "",
          "type": "bool"
        }
      ],
      "stateMutability": "view",
      "type": "function"
    },
    {
      "inputs": [],
      "name": "name",
      "outputs": [
        {
          "internalType": "string",
          "name": "",
          "type": "string"
        }
      ],
      "stateMutability": "view",
      "type": "function"
    },
    {
      "inputs": [],
      "name": "owner",
      "outputs": [
        {
          "internalType": "address",
          "name": "",
          "type": "address"
        }
      ],
      "stateMutability": "view",
      "type": "function"
    },
    {
      "inputs": [],
      "name": "renounceOwnership",
      "outputs": [],
      "stateMutability": "nonpayable",
      "type": "function"
    },
    {
      "inputs": [
        {
          "internalType": "address",
          "name": "from",
          "type": "address"
        },
        {
          "internalType": "address",
          "name": "to",
          "type": "address"
        },
        {
          "internalType": "uint256[]",
          "name": "ids",
          "type": "uint256[]"
        },
        {
          "internalType": "uint256[]",
          "name": "amounts",
          "type": "uint256[]"
        },
        {
          "internalType": "bytes",
          "name": "data",
          "type": "bytes"
        }
      ],
      "name": "safeBatchTransferFrom",
      "outputs": [],
      "stateMutability": "nonpayable",
      "type": "function"
    },
    {
      "inputs": [
        {
          "internalType": "address",
          "name": "from",
          "type": "address"
        },
        {
          "internalType": "address",
          "name": "to",
          "type": "address"
        },
        {
          "internalType": "uint256",
          "name": "id",
          "type": "uint256"
        },
        {
          "internalType": "uint256",
          "name": "amount",
          "type": "uint256"
        },
        {
          "internalType": "bytes",
          "name": "data",
          "type": "bytes"
        }
      ],
      "name": "safeTransferFrom",
      "outputs": [],
      "stateMutability": "nonpayable",
      "type": "function"
    },
    {
      "inputs": [
        {
          "internalType": "address",
          "name": "operator",
          "type": "address"
        },
        {
          "internalType": "bool",
          "name": "approved",
          "type": "bool"
        }
      ],
      "name": "setApprovalForAll",
      "outputs": [],
      "stateMutability": "nonpayable",
      "type": "function"
    },
    {
      "inputs": [
        {
          "internalType": "bytes4",
          "name": "interfaceId",
          "type": "bytes4"
        }
      ],
      "name": "supportsInterface",
      "outputs": [
        {
          "internalType": "bool",
          "name": "",
          "type": "bool"
        }
      ],
      "stateMutability": "view",
      "type": "function"
    },
    {
      "inputs": [],
      "name": "symbol",
      "outputs": [
        {
          "internalType": "string",
          "name": "",
          "type": "string"
        }
      ],
      "stateMutability": "view",
      "type": "function"
    },
    {
      "inputs": [
        {
          "internalType": "uint256",
          "name": "",
          "type": "uint256"
        }
      ],
      "name": "ticketBuild",
      "outputs": [
        {
          "internalType": "string",
          "name": "name",
          "type": "string"
        },
        {
          "internalType": "string",
          "name": "description",
          "type": "string"
        },
        {
          "internalType": "string",
          "name": "bgHue",
          "type": "string"
        },
        {
          "internalType": "string",
          "name": "textHue",
          "type": "string"
        },
        {
          "internalType": "string",
          "name": "value",
          "type": "string"
        },
        {
          "components": [
            {
              "internalType": "uint256",
              "name": "id",
              "type": "uint256"
            },
            {
              "internalType": "uint256",
              "name": "movieId",
              "type": "uint256"
            },
            {
              "internalType": "uint256",
              "name": "slotId",
              "type": "uint256"
            },
            {
              "internalType": "address",
              "name": "owner",
              "type": "address"
            },
            {
              "internalType": "uint256",
              "name": "cost",
              "type": "uint256"
            },
            {
              "internalType": "uint256",
              "name": "timestamp",
              "type": "uint256"
            },
            {
              "internalType": "uint256",
              "name": "day",
              "type": "uint256"
            },
            {
              "internalType": "bool",
              "name": "used",
              "type": "bool"
            },
            {
              "internalType": "bool",
              "name": "refunded",
              "type": "bool"
            }
          ],
          "internalType": "struct DappTickets.TicketStruct",
          "name": "ticket",
          "type": "tuple"
        }
      ],
      "stateMutability": "view",
      "type": "function"
    },
    {
      "inputs": [
        {
          "internalType": "address",
          "name": "newOwner",
          "type": "address"
        }
      ],
      "name": "transferOwnership",
      "outputs": [],
      "stateMutability": "nonpayable",
      "type": "function"
    },
    {
      "inputs": [
        {
          "internalType": "uint256",
          "name": "tokenId",
          "type": "uint256"
        }
      ],
      "name": "uri",
      "outputs": [
        {
          "internalType": "string",
          "name": "",
          "type": "string"
        }
      ],
      "stateMutability": "view",
      "type": "function"
    },
    {
      "inputs": [
        {
          "internalType": "address",
          "name": "to",
          "type": "address"
        },
        {
          "internalType": "uint256",
          "name": "amount",
          "type": "uint256"
        }
      ],
      "name": "withdrawTo",
      "outputs": [],
      "stateMutability": "nonpayable",
      "type": "function"
    }
  ],
  "bytecode": "0x60806040523480156200001157600080fd5b506040516200445e3803806200445e8339810160408190526200003491620001c3565b6040805160208101909152600081526200004e336200009c565b6200005981620000ec565b50600580546001600160a01b0319166001600160a01b0385161790556007620000838382620002dc565b506008620000928282620002dc565b50505050620003a8565b600080546001600160a01b038381166001600160a01b0319831681178455604051919092169283917f8be0079c531659141344cd1fd0a4f28419497f9722a3daafe3b4186f6b6457e09190a35050565b6003620000fa8282620002dc565b5050565b634e487b7160e01b600052604160045260246000fd5b600082601f8301126200012657600080fd5b81516001600160401b0380821115620001435762000143620000fe565b604051601f8301601f19908116603f011681019082821181831017156200016e576200016e620000fe565b816040528381526020925086838588010111156200018b57600080fd5b600091505b83821015620001af578582018301518183018401529082019062000190565b600093810190920192909252949350505050565b600080600060608486031215620001d957600080fd5b83516001600160a01b0381168114620001f157600080fd5b60208501519093506001600160401b03808211156200020f57600080fd5b6200021d8783880162000114565b935060408601519150808211156200023457600080fd5b50620002438682870162000114565b9150509250925092565b600181811c908216806200026257607f821691505b6020821081036200028357634e487b7160e01b600052602260045260246000fd5b50919050565b601f821115620002d757600081815260208120601f850160051c81016020861015620002b25750805b601f850160051c820191505b81811015620002d357828155600101620002be565b5050505b505050565b81516001600160401b03811115620002f857620002f8620000fe565b62000310816200030984546200024d565b8462000289565b602080601f8311600181146200034857600084156200032f5750858301515b600019600386901b1c1916600185901b178555620002d3565b600085815260208120601f198616915b82811015620003795788860151825594840194600190910190840162000358565b5085821015620003985787850151600019600388901b60f8161c191681555b5050505050600190811b01905550565b6140a680620003b86000396000f3fe6080604052600436106101335760003560e01c8063715018a6116100ab578063a70b725e1161006f578063a70b725e14610374578063b69ef8a814610394578063e985e9c5146103aa578063f242432a146103f3578063f2fde38b14610413578063f5298aca1461043357600080fd5b8063715018a6146102ef5780638627df46146103045780638da5cb5b1461031757806395d89b411461033f578063a22cb4651461035457600080fd5b8063205c2878116100fd578063205c28781461020e57806322c79ffb146102305780632eb2c2d61461025057806340b882cf146102705780634e1273f4146102a25780636b20c454146102cf57600080fd5b80622a5cc914610138578062fdd58e1461016e57806301ffc9a71461019c57806306fdde03146101cc5780630e89341c146101ee575b600080fd5b34801561014457600080fd5b50610158610153366004612de9565b610453565b6040516101659190612e02565b60405180910390f35b34801561017a57600080fd5b5061018e610189366004612e6b565b6105c1565b604051908152602001610165565b3480156101a857600080fd5b506101bc6101b7366004612eab565b61065c565b6040519015158152602001610165565b3480156101d857600080fd5b506101e16106ac565b6040516101659190612f18565b3480156101fa57600080fd5b506101e1610209366004612de9565b61073a565b34801561021a57600080fd5b5061022e610229366004612e6b565b610745565b005b34801561023c57600080fd5b5061022e61024b366004612de9565b6107b9565b34801561025c57600080fd5b5061022e61026b36600461309d565b610882565b34801561027c57600080fd5b5061029061028b366004612de9565b6108ce565b60405161016596959493929190613146565b3480156102ae57600080fd5b506102c26102bd36600461322d565b610c1f565b6040516101659190613332565b3480156102db57600080fd5b5061022e6102ea366004613345565b610d48565b3480156102fb57600080fd5b5061022e610d90565b61022e6103123660046133b8565b610da4565b34801561032357600080fd5b506000546040516001600160a01b039091168152602001610165565b34801561034b57600080fd5b506101e16110e4565b34801561036057600080fd5b5061022e61036f3660046133e8565b6110f1565b34801561038057600080fd5b5061022e61038f366004612de9565b6110fc565b3480156103a057600080fd5b5061018e60065481565b3480156103b657600080fd5b506101bc6103c536600461341f565b6001600160a01b03918216600090815260026020908152604080832093909416825291909152205460ff1690565b3480156103ff57600080fd5b5061022e61040e366004613452565b6111bd565b34801561041f57600080fd5b5061022e61042e3660046134b6565b611202565b34801561043f57600080fd5b5061022e61044e3660046134d1565b61127b565b6060600060015b60045481116104bf576000818152600a60205260409020600701548414801561049a57506000818152600a60205260409020600c0154610100900460ff16155b156104ad57816104a98161351a565b9250505b806104b78161351a565b91505061045a565b50806001600160401b038111156104d8576104d8612f2b565b604051908082528060200260200182016040528015610501578160200160208202803683370190505b509150600060015b60045481116105b9576000818152600a60205260409020600701548514801561054957506000818152600a60205260409020600c0154610100900460ff16155b156105a7576000818152600a60205260409020600801546001600160a01b031684836105748161351a565b94508151811061058657610586613533565b60200260200101906001600160a01b031690816001600160a01b0316815250505b806105b18161351a565b915050610509565b505050919050565b60006001600160a01b0383166106315760405162461bcd60e51b815260206004820152602a60248201527f455243313135353a2061646472657373207a65726f206973206e6f742061207660448201526930b634b21037bbb732b960b11b60648201526084015b60405180910390fd5b5060008181526001602090815260408083206001600160a01b03861684529091529020545b92915050565b60006001600160e01b03198216636cdb3d1360e11b148061068d57506001600160e01b031982166303a24d0760e21b145b8061065657506301ffc9a760e01b6001600160e01b0319831614610656565b600780546106b990613549565b80601f01602080910402602001604051908101604052809291908181526020018280546106e590613549565b80156107325780601f1061070757610100808354040283529160200191610732565b820191906000526020600020905b81548152906001019060200180831161071557829003601f168201915b505050505081565b6060610656826112be565b61074d6116ac565b8060065410156107935760405162461bcd60e51b8152602060048201526011602482015270125b9cdd59999a58da595b9d08199d5b99607a1b6044820152606401610628565b80600660008282546107a59190613583565b909155506107b590508282611706565b5050565b6107c16116ac565b60055460405163b6da3f0960e01b8152600481018390526001600160a01b039091169063b6da3f0990602401600060405180830381600087803b15801561080757600080fd5b505af115801561081b573d6000803e3d6000fd5b5050505061082881611766565b7f8b2c14fe955d044ef95ba32b88d2ceb87c6f73fcefdcebe906063a6d75690f27604051610877906020808252600d908201526c151a58dad95d1cc8189d5c9b9d609a1b604082015260600190565b60405180910390a150565b6001600160a01b03851633148061089e575061089e85336103c5565b6108ba5760405162461bcd60e51b815260040161062890613596565b6108c785858585856118aa565b5050505050565b600a602052600090815260409020805481906108e990613549565b80601f016020809104026020016040519081016040528092919081815260200182805461091590613549565b80156109625780601f1061093757610100808354040283529160200191610962565b820191906000526020600020905b81548152906001019060200180831161094557829003601f168201915b50505050509080600101805461097790613549565b80601f01602080910402602001604051908101604052809291908181526020018280546109a390613549565b80156109f05780601f106109c5576101008083540402835291602001916109f0565b820191906000526020600020905b8154815290600101906020018083116109d357829003601f168201915b505050505090806002018054610a0590613549565b80601f0160208091040260200160405190810160405280929190818152602001828054610a3190613549565b8015610a7e5780601f10610a5357610100808354040283529160200191610a7e565b820191906000526020600020905b815481529060010190602001808311610a6157829003601f168201915b505050505090806003018054610a9390613549565b80601f0160208091040260200160405190810160405280929190818152602001828054610abf90613549565b8015610b0c5780601f10610ae157610100808354040283529160200191610b0c565b820191906000526020600020905b815481529060010190602001808311610aef57829003601f168201915b505050505090806004018054610b2190613549565b80601f0160208091040260200160405190810160405280929190818152602001828054610b4d90613549565b8015610b9a5780601f10610b6f57610100808354040283529160200191610b9a565b820191906000526020600020905b815481529060010190602001808311610b7d57829003601f168201915b50506040805161012081018252600587015481526006870154602082015260078701549181019190915260088601546001600160a01b0316606082015260098601546080820152600a86015460a0820152600b86015460c0820152600c9095015460ff808216151560e088015261010091829004161515908601525091929150879050565b60608151835114610c845760405162461bcd60e51b815260206004820152602960248201527f455243313135353a206163636f756e747320616e6420696473206c656e677468604482015268040dad2e6dac2e8c6d60bb1b6064820152608401610628565b600083516001600160401b03811115610c9f57610c9f612f2b565b604051908082528060200260200182016040528015610cc8578160200160208202803683370190505b50905060005b8451811015610d4057610d13858281518110610cec57610cec613533565b6020026020010151858381518110610d0657610d06613533565b60200260200101516105c1565b828281518110610d2557610d25613533565b6020908102919091010152610d398161351a565b9050610cce565b509392505050565b6001600160a01b038316331480610d645750610d6483336103c5565b610d805760405162461bcd60e51b815260040161062890613596565b610d8b838383611a49565b505050565b610d986116ac565b610da26000611bd7565b565b600554604051632b85dcc960e01b8152600481018490526000916001600160a01b031690632b85dcc99060240161016060405180830381865afa158015610def573d6000803e3d6000fd5b505050506040513d601f19601f82011682018060405250810190610e1391906135ef565b9050818160400151610e25919061368c565b341015610e6a5760405162461bcd60e51b8152602060048201526013602482015272125b9cdd59999a58da595b9d08185b5bdd5b9d606a1b6044820152606401610628565b8060c001518160a0015111610eb35760405162461bcd60e51b815260206004820152600f60248201526e4f7574206f6620636170616369747960881b6044820152606401610628565b60005b8281101561103957610ecc600480546001019055565b610f2860405180610120016040528060008152602001600081526020016000815260200160006001600160a01b031681526020016000815260200160008152602001600081526020016000151581526020016000151581525090565b6004548152604080840151608083015261012084015160c08301528101859052336060820152610f56611c27565b60a0820190815281516000908152600a602081815260408084208651600582015582870151600682015581870151600782015560608701516008820180546001600160a01b039092166001600160a01b03199283161790556080880151600983015595519381019390935560c0860151600b8085019190915560e0870151600c909401805461010098890151151590980261ff00199515159590951661ffff1990981697909717939093179095558883529081529281208054600181018255908252929020909101805490911633179055806110318161351a565b915050610eb6565b50818160c00181815161104c91906136a3565b905250604081015161105f90839061368c565b816101400181815161107191906136a3565b90525061107d82611c42565b6005546040516361853e9360e01b81526001600160a01b03909116906361853e93906110ad9084906004016136b6565b600060405180830381600087803b1580156110c757600080fd5b505af11580156110db573d6000803e3d6000fd5b50505050505050565b600880546106b990613549565b6107b5338383611eae565b6111046116ac565b600554604051633b6559c160e01b8152600481018390526001600160a01b0390911690633b6559c190602401600060405180830381600087803b15801561114a57600080fd5b505af115801561115e573d6000803e3d6000fd5b5050505061116b81611f8e565b7f8b2c14fe955d044ef95ba32b88d2ceb87c6f73fcefdcebe906063a6d75690f276040516108779060208082526010908201526f151a58dad95d1cc81c99599d5b99195960821b604082015260600190565b6001600160a01b0385163314806111d957506111d985336103c5565b6111f55760405162461bcd60e51b815260040161062890613596565b6108c785858585856120e9565b61120a6116ac565b6001600160a01b03811661126f5760405162461bcd60e51b815260206004820152602660248201527f4f776e61626c653a206e6577206f776e657220697320746865207a65726f206160448201526564647265737360d01b6064820152608401610628565b61127881611bd7565b50565b6001600160a01b038316331480611297575061129783336103c5565b6112b35760405162461bcd60e51b815260040161062890613596565b610d8b838383612217565b60606000600a60008481526020019081526020016000206040518060c00160405290816000820180546112f090613549565b80601f016020809104026020016040519081016040528092919081815260200182805461131c90613549565b80156113695780601f1061133e57610100808354040283529160200191611369565b820191906000526020600020905b81548152906001019060200180831161134c57829003601f168201915b5050505050815260200160018201805461138290613549565b80601f01602080910402602001604051908101604052809291908181526020018280546113ae90613549565b80156113fb5780601f106113d0576101008083540402835291602001916113fb565b820191906000526020600020905b8154815290600101906020018083116113de57829003601f168201915b5050505050815260200160028201805461141490613549565b80601f016020809104026020016040519081016040528092919081815260200182805461144090613549565b801561148d5780601f106114625761010080835404028352916020019161148d565b820191906000526020600020905b81548152906001019060200180831161147057829003601f168201915b505050505081526020016003820180546114a690613549565b80601f01602080910402602001604051908101604052809291908181526020018280546114d290613549565b801561151f5780601f106114f45761010080835404028352916020019161151f565b820191906000526020600020905b81548152906001019060200180831161150257829003601f168201915b5050505050815260200160048201805461153890613549565b80601f016020809104026020016040519081016040528092919081815260200182805461156490613549565b80156115b15780601f10611586576101008083540402835291602001916115b1565b820191906000526020600020905b81548152906001019060200180831161159457829003601f168201915b5050509183525050604080516101208101825260058401548152600684015460208281019190915260078501549282019290925260088401546001600160a01b0316606082015260098401546080820152600a84015460a0820152600b84015460c0820152600c9093015460ff808216151560e0860152610100918290041615159084015290810191909152815190820151919250611685916116538661231e565b84604001518560600151604051602001611671959493929190613759565b6040516020818303038152906040526126ca565b60405160200161169591906138d5565b604051602081830303815290604052915050919050565b6000546001600160a01b03163314610da25760405162461bcd60e51b815260206004820181905260248201527f4f776e61626c653a2063616c6c6572206973206e6f7420746865206f776e65726044820152606401610628565b6000826001600160a01b03168260405160006040518083038185875af1925050503d8060008114611753576040519150601f19603f3d011682016040523d82523d6000602084013e611758565b606091505b5050905080610d8b57600080fd5b61176e6116ac565b600554604051632b85dcc960e01b81526004810183905282916001600160a01b031690632b85dcc99060240161016060405180830381865afa1580156117b8573d6000803e3d6000fd5b505050506040513d601f19601f820116820180604052508101906117dc91906135ef565b511461181b5760405162461bcd60e51b815260206004820152600e60248201526d14db1bdd081b9bdd08199bdd5b9960921b6044820152606401610628565b60015b60045481116107b5576000818152600a60205260409020600501548114801561185957506000818152600a60205260409020600c015460ff16155b15611898576000818152600a60205260408120600c8101805460ff191660011790556009015460068054919290916118929084906136a3565b90915550505b806118a28161351a565b91505061181e565b81518351146118cb5760405162461bcd60e51b81526004016106289061391a565b6001600160a01b0384166118f15760405162461bcd60e51b815260040161062890613962565b3360005b84518110156119db57600085828151811061191257611912613533565b60200260200101519050600085838151811061193057611930613533565b60209081029190910181015160008481526001835260408082206001600160a01b038e1683529093529190912054909150818110156119815760405162461bcd60e51b8152600401610628906139a7565b60008381526001602090815260408083206001600160a01b038e8116855292528083208585039055908b168252812080548492906119c09084906136a3565b92505081905550505050806119d49061351a565b90506118f5565b50846001600160a01b0316866001600160a01b0316826001600160a01b03167f4a39dc06d4c0dbc64b70af90fd698a233a518aa5d07e595d983b8c0526c8f7fb8787604051611a2b9291906139f1565b60405180910390a4611a41818787878787612830565b505050505050565b6001600160a01b038316611a6f5760405162461bcd60e51b815260040161062890613a16565b8051825114611a905760405162461bcd60e51b81526004016106289061391a565b604080516020810190915260009081905233905b8351811015611b69576000848281518110611ac157611ac1613533565b602002602001015190506000848381518110611adf57611adf613533565b60209081029190910181015160008481526001835260408082206001600160a01b038c168352909352919091205490915081811015611b305760405162461bcd60e51b815260040161062890613a59565b60009283526001602090815260408085206001600160a01b038b1686529091529092209103905580611b618161351a565b915050611aa4565b5060006001600160a01b0316846001600160a01b0316826001600160a01b03167f4a39dc06d4c0dbc64b70af90fd698a233a518aa5d07e595d983b8c0526c8f7fb8686604051611bba9291906139f1565b60405180910390a460408051602081019091526000905250505050565b600080546001600160a01b038381166001600160a01b0319831681178455604051919092169283917f8be0079c531659141344cd1fd0a4f28419497f9722a3daafe3b4186f6b6457e09190a35050565b600080611c36426103e861368c565b610656906103e86136a3565b6000816001600160401b03811115611c5c57611c5c612f2b565b604051908082528060200260200182016040528015611c85578160200160208202803683370190505b5090506000826001600160401b03811115611ca257611ca2612f2b565b604051908082528060200260200182016040528015611ccb578160200160208202803683370190505b509050600083611cda60045490565b611ce49190613583565b905060005b84811015611e7b5781611cfb8161351a565b9250506000611d098361298b565b90506000600882604051602001611d21929190613a9d565b60408051601f198184030181526060830190915260318083529092506000919061400060208301396000868152600a60205260409020909150611d648382613b78565b506000858152600a60205260409020600101611d808282613b78565b50611d9d611d98610169611d92611c27565b88612a1d565b61298b565b6000868152600a6020526040902060020190611db99082613b78565b50611dca611d986101694288612a1d565b6000868152600a6020526040902060030190611de69082613b78565b506000858152600a60205260409020600401611e028382613b78565b50611e0c8561073a565b600086815260096020526040902090611e259082613b78565b5084878581518110611e3957611e39613533565b6020026020010181815250506001868581518110611e5957611e59613533565b6020026020010181815250505050508080611e739061351a565b915050611ce9565b5060008383604051602001611e91929190613c5c565b60405160208183030381529060405290506108c733858584612a85565b816001600160a01b0316836001600160a01b031603611f215760405162461bcd60e51b815260206004820152602960248201527f455243313135353a2073657474696e6720617070726f76616c20737461747573604482015268103337b91039b2b63360b91b6064820152608401610628565b6001600160a01b03838116600081815260026020908152604080832094871680845294825291829020805460ff191686151590811790915591519182527f17307eab39ab6107e8899845ad3d59bd9653f200f220920489ca2b5937696c31910160405180910390a3505050565b611f966116ac565b600554604051632b85dcc960e01b81526004810183905282916001600160a01b031690632b85dcc99060240161016060405180830381865afa158015611fe0573d6000803e3d6000fd5b505050506040513d601f19601f8201168201806040525081019061200491906135ef565b51146120435760405162461bcd60e51b815260206004820152600e60248201526d14db1bdd081b9bdd08199bdd5b9960921b6044820152606401610628565b60015b60045481116107b5576000818152600a60205260409020600581015460098201546008909201549091906001600160a01b0316828414801561209a57506000848152600a60205260409020600c015460ff16155b156120d3576000848152600a60205260409020600c01805461ff0019166101001790556120c78183611706565b6120d381846001612217565b50505080806120e19061351a565b915050612046565b6001600160a01b03841661210f5760405162461bcd60e51b815260040161062890613962565b33600061211b85612c0b565b9050600061212885612c0b565b905060008681526001602090815260408083206001600160a01b038c1684529091529020548581101561216d5760405162461bcd60e51b8152600401610628906139a7565b60008781526001602090815260408083206001600160a01b038d8116855292528083208985039055908a168252812080548892906121ac9084906136a3565b909155505060408051888152602081018890526001600160a01b03808b16928c821692918816917fc3d58168c5ae7397731d063d5bbf3d657854427343f4c083240f7aacaa2d0f62910160405180910390a461220c848a8a8a8a8a612c56565b505050505050505050565b6001600160a01b03831661223d5760405162461bcd60e51b815260040161062890613a16565b33600061224984612c0b565b9050600061225684612c0b565b6040805160208082018352600091829052888252600181528282206001600160a01b038b16835290522054909150848110156122a45760405162461bcd60e51b815260040161062890613a59565b60008681526001602090815260408083206001600160a01b038b81168086529184528285208a8703905582518b81529384018a90529092908816917fc3d58168c5ae7397731d063d5bbf3d657854427343f4c083240f7aacaa2d0f62910160405180910390a46040805160208101909152600090526110db565b60606000600a60008481526020019081526020016000206040518060c001604052908160008201805461235090613549565b80601f016020809104026020016040519081016040528092919081815260200182805461237c90613549565b80156123c95780601f1061239e576101008083540402835291602001916123c9565b820191906000526020600020905b8154815290600101906020018083116123ac57829003601f168201915b505050505081526020016001820180546123e290613549565b80601f016020809104026020016040519081016040528092919081815260200182805461240e90613549565b801561245b5780601f106124305761010080835404028352916020019161245b565b820191906000526020600020905b81548152906001019060200180831161243e57829003601f168201915b5050505050815260200160028201805461247490613549565b80601f01602080910402602001604051908101604052809291908181526020018280546124a090613549565b80156124ed5780601f106124c2576101008083540402835291602001916124ed565b820191906000526020600020905b8154815290600101906020018083116124d057829003601f168201915b5050505050815260200160038201805461250690613549565b80601f016020809104026020016040519081016040528092919081815260200182805461253290613549565b801561257f5780601f106125545761010080835404028352916020019161257f565b820191906000526020600020905b81548152906001019060200180831161256257829003601f168201915b5050505050815260200160048201805461259890613549565b80601f01602080910402602001604051908101604052809291908181526020018280546125c490613549565b80156126115780601f106125e657610100808354040283529160200191612611565b820191906000526020600020905b8154815290600101906020018083116125f457829003601f168201915b5050509183525050604080516101208101825260058401548152600684015460208281019190915260078501548284015260088501546001600160a01b03166060808401919091526009860154608080850191909152600a87015460a0850152600b87015460c0850152600c9096015460ff808216151560e086015261010091829004161515908401529381019190915284820151928501519385015191519495506126c39461167194929101613c79565b9392505050565b606081516000036126e957505060408051602081019091526000815290565b6000604051806060016040528060408152602001614031604091399050600060038451600261271891906136a3565b6127229190613e35565b61272d90600461368c565b9050600061273c8260206136a3565b6001600160401b0381111561275357612753612f2b565b6040519080825280601f01601f19166020018201604052801561277d576020820181803683370190505b509050818152600183018586518101602084015b818310156127eb5760039283018051603f601282901c811687015160f890811b8552600c83901c8216880151811b6001860152600683901c8216880151811b60028601529116860151901b93820193909352600401612791565b600389510660018114612805576002811461281657612822565b613d3d60f01b600119830152612822565b603d60f81b6000198301525b509398975050505050505050565b6001600160a01b0384163b15611a415760405163bc197c8160e01b81526001600160a01b0385169063bc197c81906128749089908990889088908890600401613e49565b6020604051808303816000875af19250505080156128af575060408051601f3d908101601f191682019092526128ac91810190613ea7565b60015b61295b576128bb613ec4565b806308c379a0036128f457506128cf613ee0565b806128da57506128f6565b8060405162461bcd60e51b81526004016106289190612f18565b505b60405162461bcd60e51b815260206004820152603460248201527f455243313135353a207472616e7366657220746f206e6f6e2d455243313135356044820152732932b1b2b4bb32b91034b6b83632b6b2b73a32b960611b6064820152608401610628565b6001600160e01b0319811663bc197c8160e01b146110db5760405162461bcd60e51b815260040161062890613f69565b6060600061299883612d11565b60010190506000816001600160401b038111156129b7576129b7612f2b565b6040519080825280601f01601f1916602001820160405280156129e1576020820181803683370190505b5090508181016020015b600019016f181899199a1a9b1b9c1cb0b131b232b360811b600a86061a8153600a85049450846129eb57509392505050565b604080514260208201526bffffffffffffffffffffffff193360601b16918101919091526054810183905260748101829052600090819085906094016040516020818303038152906040528051906020012060001c612a7c9190613fb1565b95945050505050565b6001600160a01b038416612ae55760405162461bcd60e51b815260206004820152602160248201527f455243313135353a206d696e7420746f20746865207a65726f206164647265736044820152607360f81b6064820152608401610628565b8151835114612b065760405162461bcd60e51b81526004016106289061391a565b3360005b8451811015612ba357838181518110612b2557612b25613533565b602002602001015160016000878481518110612b4357612b43613533565b602002602001015181526020019081526020016000206000886001600160a01b03166001600160a01b031681526020019081526020016000206000828254612b8b91906136a3565b90915550819050612b9b8161351a565b915050612b0a565b50846001600160a01b031660006001600160a01b0316826001600160a01b03167f4a39dc06d4c0dbc64b70af90fd698a233a518aa5d07e595d983b8c0526c8f7fb8787604051612bf49291906139f1565b60405180910390a46108c781600087878787612830565b60408051600180825281830190925260609160009190602080830190803683370190505090508281600081518110612c4557612c45613533565b602090810291909101015292915050565b6001600160a01b0384163b15611a415760405163f23a6e6160e01b81526001600160a01b0385169063f23a6e6190612c9a9089908990889088908890600401613fc5565b6020604051808303816000875af1925050508015612cd5575060408051601f3d908101601f19168201909252612cd291810190613ea7565b60015b612ce1576128bb613ec4565b6001600160e01b0319811663f23a6e6160e01b146110db5760405162461bcd60e51b815260040161062890613f69565b60008072184f03e93ff9f4daa797ed6e38ed64bf6a1f0160401b8310612d505772184f03e93ff9f4daa797ed6e38ed64bf6a1f0160401b830492506040015b6d04ee2d6d415b85acef81000000008310612d7c576d04ee2d6d415b85acef8100000000830492506020015b662386f26fc100008310612d9a57662386f26fc10000830492506010015b6305f5e1008310612db2576305f5e100830492506008015b6127108310612dc657612710830492506004015b60648310612dd8576064830492506002015b600a83106106565760010192915050565b600060208284031215612dfb57600080fd5b5035919050565b6020808252825182820181905260009190848201906040850190845b81811015612e435783516001600160a01b031683529284019291840191600101612e1e565b50909695505050505050565b80356001600160a01b0381168114612e6657600080fd5b919050565b60008060408385031215612e7e57600080fd5b612e8783612e4f565b946020939093013593505050565b6001600160e01b03198116811461127857600080fd5b600060208284031215612ebd57600080fd5b81356126c381612e95565b60005b83811015612ee3578181015183820152602001612ecb565b50506000910152565b60008151808452612f04816020860160208601612ec8565b601f01601f19169290920160200192915050565b6020815260006126c36020830184612eec565b634e487b7160e01b600052604160045260246000fd5b601f8201601f191681016001600160401b0381118282101715612f6657612f66612f2b565b6040525050565b60405161016081016001600160401b0381118282101715612f9057612f90612f2b565b60405290565b60006001600160401b03821115612faf57612faf612f2b565b5060051b60200190565b600082601f830112612fca57600080fd5b81356020612fd782612f96565b604051612fe48282612f41565b83815260059390931b850182019282810191508684111561300457600080fd5b8286015b8481101561301f5780358352918301918301613008565b509695505050505050565b600082601f83011261303b57600080fd5b81356001600160401b0381111561305457613054612f2b565b60405161306b601f8301601f191660200182612f41565b81815284602083860101111561308057600080fd5b816020850160208301376000918101602001919091529392505050565b600080600080600060a086880312156130b557600080fd5b6130be86612e4f565b94506130cc60208701612e4f565b935060408601356001600160401b03808211156130e857600080fd5b6130f489838a01612fb9565b9450606088013591508082111561310a57600080fd5b61311689838a01612fb9565b9350608088013591508082111561312c57600080fd5b506131398882890161302a565b9150509295509295909350565b60006101c080835261315a8184018a612eec565b9050828103602084015261316e8189612eec565b905082810360408401526131828188612eec565b905082810360608401526131968187612eec565b905082810360808401526131aa8186612eec565b915050825160a0830152602083015160c0830152604083015160e0830152606083015161010060018060a01b03821681850152608085015161012085015260a085015161014085015260c085015161016085015260e08501511515610180850152808501519150506132216101a084018215159052565b50979650505050505050565b6000806040838503121561324057600080fd5b82356001600160401b038082111561325757600080fd5b818501915085601f83011261326b57600080fd5b8135602061327882612f96565b6040516132858282612f41565b83815260059390931b85018201928281019150898411156132a557600080fd5b948201945b838610156132ca576132bb86612e4f565b825294820194908201906132aa565b965050860135925050808211156132e057600080fd5b506132ed85828601612fb9565b9150509250929050565b600081518084526020808501945080840160005b838110156133275781518752958201959082019060010161330b565b509495945050505050565b6020815260006126c360208301846132f7565b60008060006060848603121561335a57600080fd5b61336384612e4f565b925060208401356001600160401b038082111561337f57600080fd5b61338b87838801612fb9565b935060408601359150808211156133a157600080fd5b506133ae86828701612fb9565b9150509250925092565b600080604083850312156133cb57600080fd5b50508035926020909101359150565b801515811461127857600080fd5b600080604083850312156133fb57600080fd5b61340483612e4f565b91506020830135613414816133da565b809150509250929050565b6000806040838503121561343257600080fd5b61343b83612e4f565b915061344960208401612e4f565b90509250929050565b600080600080600060a0868803121561346a57600080fd5b61347386612e4f565b945061348160208701612e4f565b9350604086013592506060860135915060808601356001600160401b038111156134aa57600080fd5b6131398882890161302a565b6000602082840312156134c857600080fd5b6126c382612e4f565b6000806000606084860312156134e657600080fd5b6134ef84612e4f565b95602085013595506040909401359392505050565b634e487b7160e01b600052601160045260246000fd5b60006001820161352c5761352c613504565b5060010190565b634e487b7160e01b600052603260045260246000fd5b600181811c9082168061355d57607f821691505b60208210810361357d57634e487b7160e01b600052602260045260246000fd5b50919050565b8181038181111561065657610656613504565b6020808252602e908201527f455243313135353a2063616c6c6572206973206e6f7420746f6b656e206f776e60408201526d195c881bdc88185c1c1c9bdd995960921b606082015260800190565b8051612e66816133da565b6000610160828403121561360257600080fd5b61360a612f6d565b825181526020830151602082015260408301516040820152606083015160608201526080830151608082015260a083015160a082015260c083015160c082015261365660e084016135e4565b60e08201526101006136698185016135e4565b908201526101208381015190820152610140928301519281019290925250919050565b808202811582820484141761065657610656613504565b8082018082111561065657610656613504565b600061016082019050825182526020830151602083015260408301516040830152606083015160608301526080830151608083015260a083015160a083015260c083015160c083015260e083015161371260e084018215159052565b5061010083810151151590830152610120808401519083015261014092830151929091019190915290565b6000815161374f818560208601612ec8565b9290920192915050565b683d913730b6b2911d1160b91b8152855160009061377e816009850160208b01612ec8565b71111610113232b9b1b934b83a34b7b7111d1160711b60099184019182015286516137b081601b840160208b01612ec8565b6c1116101134b6b0b3b2911d101160991b601b92909101918201527f646174613a696d6167652f7376672b786d6c3b6261736536342c00000000000060288201528551613804816042840160208a01612ec8565b7f222c202261747472696275746573223a205b7b2274726169745f74797065223a604292909101918201527f20224261636b67726f756e6420487565222c202276616c7565223a20220000006062820152845161386881607f840160208901612ec8565b6138c86138b86138b2607f848601017f227d2c207b2274726169745f74797065223a20225465787420487565222c20228152683b30b63ab2911d101160b91b602082015260290190565b8761373d565b63227d5d7d60e01b815260040190565b9998505050505050505050565b7f646174613a6170706c69636174696f6e2f6a736f6e3b6261736536342c00000081526000825161390d81601d850160208701612ec8565b91909101601d0192915050565b60208082526028908201527f455243313135353a2069647320616e6420616d6f756e7473206c656e677468206040820152670dad2e6dac2e8c6d60c31b606082015260800190565b60208082526025908201527f455243313135353a207472616e7366657220746f20746865207a65726f206164604082015264647265737360d81b606082015260800190565b6020808252602a908201527f455243313135353a20696e73756666696369656e742062616c616e636520666f60408201526939103a3930b739b332b960b11b606082015260800190565b604081526000613a0460408301856132f7565b8281036020840152612a7c81856132f7565b60208082526023908201527f455243313135353a206275726e2066726f6d20746865207a65726f206164647260408201526265737360e81b606082015260800190565b60208082526024908201527f455243313135353a206275726e20616d6f756e7420657863656564732062616c604082015263616e636560e01b606082015260800190565b6000808454613aab81613549565b60018281168015613ac35760018114613ad857613b07565b60ff1984168752821515830287019450613b07565b8860005260208060002060005b85811015613afe5781548a820152908401908201613ae5565b50505082870194505b5050505061202360f01b81528351613b26816002840160208801612ec8565b01600201949350505050565b601f821115610d8b57600081815260208120601f850160051c81016020861015613b595750805b601f850160051c820191505b81811015611a4157828155600101613b65565b81516001600160401b03811115613b9157613b91612f2b565b613ba581613b9f8454613549565b84613b32565b602080601f831160018114613bda5760008415613bc25750858301515b600019600386901b1c1916600185901b178555611a41565b600085815260208120601f198616915b82811015613c0957888601518255948401946001909101908401613bea565b5085821015613c275787850151600019600388901b60f8161c191681555b5050505050600190811b01905550565b805160009060208084018383156133275781518752958201959082019060010161330b565b6000613c71613c6b8386613c37565b84613c37565b949350505050565b7f3c7376672077696474683d2235303022206865696768743d223530302220786d81527f6c6e733d22687474703a2f2f7777772e77332e6f72672f323030302f737667226020820152601f60f91b60408201527f3c72656374206865696768743d22353030222077696474683d223530302220666041820152680d2d8d87a44d0e6d8560bb1b606182015260008451613d1981606a850160208901612ec8565b6d16101a98129610191a929491179f60911b606a918401918201527f3c7465787420783d223530252220793d223530252220646f6d696e616e742d6260788201527f6173656c696e653d226d6964646c65222066696c6c3d2268736c28000000000060988201528451613d938160b3840160208901612ec8565b613e14613e02613def613de960b3858701017f2c20313030252c20383025292220746578742d616e63686f723d226d6964646c8152713291103337b73a16b9b4bd329e911a18911f60711b602082015260320190565b8861373d565b661e17ba32bc3a1f60c91b815260070190565b651e17b9bb339f60d11b815260060190565b979650505050505050565b634e487b7160e01b600052601260045260246000fd5b600082613e4457613e44613e1f565b500490565b6001600160a01b0386811682528516602082015260a060408201819052600090613e75908301866132f7565b8281036060840152613e8781866132f7565b90508281036080840152613e9b8185612eec565b98975050505050505050565b600060208284031215613eb957600080fd5b81516126c381612e95565b600060033d1115613edd5760046000803e5060005160e01c5b90565b600060443d1015613eee5790565b6040516003193d81016004833e81513d6001600160401b038160248401118184111715613f1d57505050505090565b8285019150815181811115613f355750505050505090565b843d8701016020828501011115613f4f5750505050505090565b613f5e60208286010187612f41565b509095945050505050565b60208082526028908201527f455243313135353a204552433131353552656365697665722072656a656374656040820152676420746f6b656e7360c01b606082015260800190565b600082613fc057613fc0613e1f565b500690565b6001600160a01b03868116825285166020820152604081018490526060810183905260a060808201819052600090613e1490830184612eec56fe5468657365204e465473206172652061637475616c6c79207469636b65747320666f7220446170702043696e656d61732e4142434445464748494a4b4c4d4e4f505152535455565758595a6162636465666768696a6b6c6d6e6f707172737475767778797a303132333435363738392b2fa2646970667358221220bfce4447156023ad231a51bd0100c9ffde04d6625ec828aa8d8f76b45379a7b764736f6c63430008130033",
  "linkReferences": {},
  "deployedLinkReferences": {}
}