{
  "_format": "hh-sol-artifact-1",
  "contractName": "DappTickets",
  "sourceName": "contracts/DappTickets.sol",
  "abi": [
    {
      "inputs": [
        {
          "internalType": "address",
          "name": "_dappCinemas",
          "type": "address"
        },
        {
          "internalType": "string",
          "name": "_name",
          "type": "string"
        },
        {
          "internalType": "string",
          "name": "_symbol",
          "type": "string"
        }
      ],
      "stateMutability": "nonpayable",
      "type": "constructor"
    },
    {
      "anonymous": false,
      "inputs": [
        {
          "indexed": false,
          "internalType": "string",
          "name": "actionType",
          "type": "string"
        }
      ],
      "name": "Action",
      "type": "event"
    },
    {
      "anonymous": false,
      "inputs": [
        {
          "indexed": true,
          "internalType": "address",
          "name": "account",
          "type": "address"
        },
        {
          "indexed": true,
          "internalType": "address",
          "name": "operator",
          "type": "address"
        },
        {
          "indexed": false,
          "internalType": "bool",
          "name": "approved",
          "type": "bool"
        }
      ],
      "name": "ApprovalForAll",
      "type": "event"
    },
    {
      "anonymous": false,
      "inputs": [
        {
          "indexed": true,
          "internalType": "address",
          "name": "previousOwner",
          "type": "address"
        },
        {
          "indexed": true,
          "internalType": "address",
          "name": "newOwner",
          "type": "address"
        }
      ],
      "name": "OwnershipTransferred",
      "type": "event"
    },
    {
      "anonymous": false,
      "inputs": [
        {
          "indexed": true,
          "internalType": "address",
          "name": "operator",
          "type": "address"
        },
        {
          "indexed": true,
          "internalType": "address",
          "name": "from",
          "type": "address"
        },
        {
          "indexed": true,
          "internalType": "address",
          "name": "to",
          "type": "address"
        },
        {
          "indexed": false,
          "internalType": "uint256[]",
          "name": "ids",
          "type": "uint256[]"
        },
        {
          "indexed": false,
          "internalType": "uint256[]",
          "name": "values",
          "type": "uint256[]"
        }
      ],
      "name": "TransferBatch",
      "type": "event"
    },
    {
      "anonymous": false,
      "inputs": [
        {
          "indexed": true,
          "internalType": "address",
          "name": "operator",
          "type": "address"
        },
        {
          "indexed": true,
          "internalType": "address",
          "name": "from",
          "type": "address"
        },
        {
          "indexed": true,
          "internalType": "address",
          "name": "to",
          "type": "address"
        },
        {
          "indexed": false,
          "internalType": "uint256",
          "name": "id",
          "type": "uint256"
        },
        {
          "indexed": false,
          "internalType": "uint256",
          "name": "value",
          "type": "uint256"
        }
      ],
      "name": "TransferSingle",
      "type": "event"
    },
    {
      "anonymous": false,
      "inputs": [
        {
          "indexed": false,
          "internalType": "string",
          "name": "value",
          "type": "string"
        },
        {
          "indexed": true,
          "internalType": "uint256",
          "name": "id",
          "type": "uint256"
        }
      ],
      "name": "URI",
      "type": "event"
    },
    {
      "inputs": [],
      "name": "balance",
      "outputs": [
        {
          "internalType": "uint256",
          "name": "",
          "type": "uint256"
        }
      ],
      "stateMutability": "view",
      "type": "function"
    },
    {
      "inputs": [
        {
          "internalType": "address",
          "name": "account",
          "type": "address"
        },
        {
          "internalType": "uint256",
          "name": "id",
          "type": "uint256"
        }
      ],
      "name": "balanceOf",
      "outputs": [
        {
          "internalType": "uint256",
          "name": "",
          "type": "uint256"
        }
      ],
      "stateMutability": "view",
      "type": "function"
    },
    {
      "inputs": [
        {
          "internalType": "address[]",
          "name": "accounts",
          "type": "address[]"
        },
        {
          "internalType": "uint256[]",
          "name": "ids",
          "type": "uint256[]"
        }
      ],
      "name": "balanceOfBatch",
      "outputs": [
        {
          "internalType": "uint256[]",
          "name": "",
          "type": "uint256[]"
        }
      ],
      "stateMutability": "view",
      "type": "function"
    },
    {
      "inputs": [
        {
          "internalType": "address",
          "name": "account",
          "type": "address"
        },
        {
          "internalType": "uint256",
          "name": "id",
          "type": "uint256"
        },
        {
          "internalType": "uint256",
          "name": "value",
          "type": "uint256"
        }
      ],
      "name": "burn",
      "outputs": [],
      "stateMutability": "nonpayable",
      "type": "function"
    },
    {
      "inputs": [
        {
          "internalType": "address",
          "name": "account",
          "type": "address"
        },
        {
          "internalType": "uint256[]",
          "name": "ids",
          "type": "uint256[]"
        },
        {
          "internalType": "uint256[]",
          "name": "values",
          "type": "uint256[]"
        }
      ],
      "name": "burnBatch",
      "outputs": [],
      "stateMutability": "nonpayable",
      "type": "function"
    },
    {
      "inputs": [
        {
          "internalType": "uint256",
          "name": "slotId",
          "type": "uint256"
        },
        {
          "internalType": "uint256",
          "name": "tickets",
          "type": "uint256"
        }
      ],
      "name": "buyTickets",
      "outputs": [],
      "stateMutability": "payable",
      "type": "function"
    },
    {
      "inputs": [
        {
          "internalType": "uint256",
          "name": "_slotId",
          "type": "uint256"
        }
      ],
      "name": "completeTickets",
      "outputs": [],
      "stateMutability": "nonpayable",
      "type": "function"
    },
    {
      "inputs": [
        {
          "internalType": "uint256",
          "name": "_slotId",
          "type": "uint256"
        }
      ],
      "name": "deleteTickets",
      "outputs": [],
      "stateMutability": "nonpayable",
      "type": "function"
    },
    {
      "inputs": [
        {
          "internalType": "uint256",
          "name": "slotId",
          "type": "uint256"
        }
      ],
      "name": "getTicketHolders",
      "outputs": [
        {
          "internalType": "address[]",
          "name": "Holders",
          "type": "address[]"
        }
      ],
      "stateMutability": "view",
      "type": "function"
    },
    {
      "inputs": [
        {
          "internalType": "uint256",
          "name": "slotId",
          "type": "uint256"
        }
      ],
      "name": "getTickets",
      "outputs": [
        {
          "components": [
            {
              "internalType": "uint256",
              "name": "id",
              "type": "uint256"
            },
            {
              "internalType": "uint256",
              "name": "movieId",
              "type": "uint256"
            },
            {
              "internalType": "uint256",
              "name": "slotId",
              "type": "uint256"
            },
            {
              "internalType": "address",
              "name": "owner",
              "type": "address"
            },
            {
              "internalType": "uint256",
              "name": "cost",
              "type": "uint256"
            },
            {
              "internalType": "uint256",
              "name": "timestamp",
              "type": "uint256"
            },
            {
              "internalType": "uint256",
              "name": "day",
              "type": "uint256"
            },
            {
              "internalType": "bool",
              "name": "used",
              "type": "bool"
            },
            {
              "internalType": "bool",
              "name": "refunded",
              "type": "bool"
            }
          ],
          "internalType": "struct DappTickets.TicketStruct[]",
          "name": "Tickets",
          "type": "tuple[]"
        }
      ],
      "stateMutability": "view",
      "type": "function"
    },
    {
      "inputs": [
        {
          "internalType": "address",
          "name": "account",
          "type": "address"
        },
        {
          "internalType": "address",
          "name": "operator",
          "type": "address"
        }
      ],
      "name": "isApprovedForAll",
      "outputs": [
        {
          "internalType": "bool",
          "name": "",
          "type": "bool"
        }
      ],
      "stateMutability": "view",
      "type": "function"
    },
    {
      "inputs": [],
      "name": "name",
      "outputs": [
        {
          "internalType": "string",
          "name": "",
          "type": "string"
        }
      ],
      "stateMutability": "view",
      "type": "function"
    },
    {
      "inputs": [],
      "name": "owner",
      "outputs": [
        {
          "internalType": "address",
          "name": "",
          "type": "address"
        }
      ],
      "stateMutability": "view",
      "type": "function"
    },
    {
      "inputs": [],
      "name": "renounceOwnership",
      "outputs": [],
      "stateMutability": "nonpayable",
      "type": "function"
    },
    {
      "inputs": [
        {
          "internalType": "address",
          "name": "from",
          "type": "address"
        },
        {
          "internalType": "address",
          "name": "to",
          "type": "address"
        },
        {
          "internalType": "uint256[]",
          "name": "ids",
          "type": "uint256[]"
        },
        {
          "internalType": "uint256[]",
          "name": "amounts",
          "type": "uint256[]"
        },
        {
          "internalType": "bytes",
          "name": "data",
          "type": "bytes"
        }
      ],
      "name": "safeBatchTransferFrom",
      "outputs": [],
      "stateMutability": "nonpayable",
      "type": "function"
    },
    {
      "inputs": [
        {
          "internalType": "address",
          "name": "from",
          "type": "address"
        },
        {
          "internalType": "address",
          "name": "to",
          "type": "address"
        },
        {
          "internalType": "uint256",
          "name": "id",
          "type": "uint256"
        },
        {
          "internalType": "uint256",
          "name": "amount",
          "type": "uint256"
        },
        {
          "internalType": "bytes",
          "name": "data",
          "type": "bytes"
        }
      ],
      "name": "safeTransferFrom",
      "outputs": [],
      "stateMutability": "nonpayable",
      "type": "function"
    },
    {
      "inputs": [
        {
          "internalType": "address",
          "name": "operator",
          "type": "address"
        },
        {
          "internalType": "bool",
          "name": "approved",
          "type": "bool"
        }
      ],
      "name": "setApprovalForAll",
      "outputs": [],
      "stateMutability": "nonpayable",
      "type": "function"
    },
    {
      "inputs": [
        {
          "internalType": "bytes4",
          "name": "interfaceId",
          "type": "bytes4"
        }
      ],
      "name": "supportsInterface",
      "outputs": [
        {
          "internalType": "bool",
          "name": "",
          "type": "bool"
        }
      ],
      "stateMutability": "view",
      "type": "function"
    },
    {
      "inputs": [],
      "name": "symbol",
      "outputs": [
        {
          "internalType": "string",
          "name": "",
          "type": "string"
        }
      ],
      "stateMutability": "view",
      "type": "function"
    },
    {
      "inputs": [
        {
          "internalType": "uint256",
          "name": "",
          "type": "uint256"
        }
      ],
      "name": "ticketBuild",
      "outputs": [
        {
          "internalType": "string",
          "name": "name",
          "type": "string"
        },
        {
          "internalType": "string",
          "name": "description",
          "type": "string"
        },
        {
          "internalType": "string",
          "name": "bgHue",
          "type": "string"
        },
        {
          "internalType": "string",
          "name": "textHue",
          "type": "string"
        },
        {
          "internalType": "string",
          "name": "value",
          "type": "string"
        },
        {
          "components": [
            {
              "internalType": "uint256",
              "name": "id",
              "type": "uint256"
            },
            {
              "internalType": "uint256",
              "name": "movieId",
              "type": "uint256"
            },
            {
              "internalType": "uint256",
              "name": "slotId",
              "type": "uint256"
            },
            {
              "internalType": "address",
              "name": "owner",
              "type": "address"
            },
            {
              "internalType": "uint256",
              "name": "cost",
              "type": "uint256"
            },
            {
              "internalType": "uint256",
              "name": "timestamp",
              "type": "uint256"
            },
            {
              "internalType": "uint256",
              "name": "day",
              "type": "uint256"
            },
            {
              "internalType": "bool",
              "name": "used",
              "type": "bool"
            },
            {
              "internalType": "bool",
              "name": "refunded",
              "type": "bool"
            }
          ],
          "internalType": "struct DappTickets.TicketStruct",
          "name": "ticket",
          "type": "tuple"
        }
      ],
      "stateMutability": "view",
      "type": "function"
    },
    {
      "inputs": [
        {
          "internalType": "address",
          "name": "newOwner",
          "type": "address"
        }
      ],
      "name": "transferOwnership",
      "outputs": [],
      "stateMutability": "nonpayable",
      "type": "function"
    },
    {
      "inputs": [
        {
          "internalType": "uint256",
          "name": "tokenId",
          "type": "uint256"
        }
      ],
      "name": "uri",
      "outputs": [
        {
          "internalType": "string",
          "name": "",
          "type": "string"
        }
      ],
      "stateMutability": "view",
      "type": "function"
    },
    {
      "inputs": [
        {
          "internalType": "address",
          "name": "to",
          "type": "address"
        },
        {
          "internalType": "uint256",
          "name": "amount",
          "type": "uint256"
        }
      ],
      "name": "withdrawTo",
      "outputs": [],
      "stateMutability": "nonpayable",
      "type": "function"
    }
  ],
  "bytecode": "0x60806040523480156200001157600080fd5b50604051620046a7380380620046a78339810160408190526200003491620001c3565b6040805160208101909152600081526200004e336200009c565b6200005981620000ec565b50600580546001600160a01b0319166001600160a01b0385161790556007620000838382620002dc565b506008620000928282620002dc565b50505050620003a8565b600080546001600160a01b038381166001600160a01b0319831681178455604051919092169283917f8be0079c531659141344cd1fd0a4f28419497f9722a3daafe3b4186f6b6457e09190a35050565b6003620000fa8282620002dc565b5050565b634e487b7160e01b600052604160045260246000fd5b600082601f8301126200012657600080fd5b81516001600160401b0380821115620001435762000143620000fe565b604051601f8301601f19908116603f011681019082821181831017156200016e576200016e620000fe565b816040528381526020925086838588010111156200018b57600080fd5b600091505b83821015620001af578582018301518183018401529082019062000190565b600093810190920192909252949350505050565b600080600060608486031215620001d957600080fd5b83516001600160a01b0381168114620001f157600080fd5b60208501519093506001600160401b03808211156200020f57600080fd5b6200021d8783880162000114565b935060408601519150808211156200023457600080fd5b50620002438682870162000114565b9150509250925092565b600181811c908216806200026257607f821691505b6020821081036200028357634e487b7160e01b600052602260045260246000fd5b50919050565b601f821115620002d757600081815260208120601f850160051c81016020861015620002b25750805b601f850160051c820191505b81811015620002d357828155600101620002be565b5050505b505050565b81516001600160401b03811115620002f857620002f8620000fe565b62000310816200030984546200024d565b8462000289565b602080601f8311600181146200034857600084156200032f5750858301515b600019600386901b1c1916600185901b178555620002d3565b600085815260208120601f198616915b82811015620003795788860151825594840194600190910190840162000358565b5085821015620003985787850151600019600388901b60f8161c191681555b5050505050600190811b01905550565b6142ef80620003b86000396000f3fe60806040526004361061013e5760003560e01c80636b20c454116100b6578063a70b725e1161006f578063a70b725e146103ac578063b69ef8a8146103cc578063e985e9c5146103e2578063f242432a1461042b578063f2fde38b1461044b578063f5298aca1461046b57600080fd5b80636b20c45414610307578063715018a6146103275780638627df461461033c5780638da5cb5b1461034f57806395d89b4114610377578063a22cb4651461038c57600080fd5b806314f2979f1161010857806314f2979f14610219578063205c28781461024657806322c79ffb146102685780632eb2c2d61461028857806340b882cf146102a85780634e1273f4146102da57600080fd5b80622a5cc914610143578062fdd58e1461017957806301ffc9a7146101a757806306fdde03146101d75780630e89341c146101f9575b600080fd5b34801561014f57600080fd5b5061016361015e366004612ffa565b61048b565b6040516101709190613013565b60405180910390f35b34801561018557600080fd5b5061019961019436600461307c565b6105f9565b604051908152602001610170565b3480156101b357600080fd5b506101c76101c23660046130bc565b610694565b6040519015158152602001610170565b3480156101e357600080fd5b506101ec6106e4565b6040516101709190613129565b34801561020557600080fd5b506101ec610214366004612ffa565b610772565b34801561022557600080fd5b50610239610234366004612ffa565b61077d565b60405161017091906131a4565b34801561025257600080fd5b5061026661026136600461307c565b61094d565b005b34801561027457600080fd5b50610266610283366004612ffa565b6109c1565b34801561029457600080fd5b506102666102a3366004613359565b610a8a565b3480156102b457600080fd5b506102c86102c3366004612ffa565b610ad6565b60405161017096959493929190613402565b3480156102e657600080fd5b506102fa6102f5366004613481565b610e27565b6040516101709190613586565b34801561031357600080fd5b50610266610322366004613599565b610f50565b34801561033357600080fd5b50610266610f98565b61026661034a36600461360c565b610fac565b34801561035b57600080fd5b506000546040516001600160a01b039091168152602001610170565b34801561038357600080fd5b506101ec611298565b34801561039857600080fd5b506102666103a736600461363c565b6112a5565b3480156103b857600080fd5b506102666103c7366004612ffa565b6112b0565b3480156103d857600080fd5b5061019960065481565b3480156103ee57600080fd5b506101c76103fd366004613673565b6001600160a01b03918216600090815260026020908152604080832093909416825291909152205460ff1690565b34801561043757600080fd5b506102666104463660046136a6565b611371565b34801561045757600080fd5b5061026661046636600461370a565b6113b6565b34801561047757600080fd5b50610266610486366004613725565b61142f565b6060600060015b60045481116104f7576000818152600a6020526040902060070154841480156104d257506000818152600a60205260409020600c0154610100900460ff16155b156104e557816104e18161376e565b9250505b806104ef8161376e565b915050610492565b50806001600160401b03811115610510576105106131e7565b604051908082528060200260200182016040528015610539578160200160208202803683370190505b509150600060015b60045481116105f1576000818152600a60205260409020600701548514801561058157506000818152600a60205260409020600c0154610100900460ff16155b156105df576000818152600a60205260409020600801546001600160a01b031684836105ac8161376e565b9450815181106105be576105be613787565b60200260200101906001600160a01b031690816001600160a01b0316815250505b806105e98161376e565b915050610541565b505050919050565b60006001600160a01b0383166106695760405162461bcd60e51b815260206004820152602a60248201527f455243313135353a2061646472657373207a65726f206973206e6f742061207660448201526930b634b21037bbb732b960b11b60648201526084015b60405180910390fd5b5060008181526001602090815260408083206001600160a01b03861684529091529020545b92915050565b60006001600160e01b03198216636cdb3d1360e11b14806106c557506001600160e01b031982166303a24d0760e21b145b8061068e57506301ffc9a760e01b6001600160e01b031983161461068e565b600780546106f19061379d565b80601f016020809104026020016040519081016040528092919081815260200182805461071d9061379d565b801561076a5780601f1061073f5761010080835404028352916020019161076a565b820191906000526020600020905b81548152906001019060200180831161074d57829003601f168201915b505050505081565b606061068e82611472565b6060600060015b60045481116107e9576000818152600a6020526040902060070154841480156107c457506000818152600a60205260409020600c0154610100900460ff16155b156107d757816107d38161376e565b9250505b806107e18161376e565b915050610784565b50806001600160401b03811115610802576108026131e7565b60405190808252806020026020018201604052801561083b57816020015b610828612fa1565b8152602001906001900390816108205790505b509150600060015b60045481116105f1576000818152600a60205260409020600701548514801561088357506000818152600a60205260409020600c0154610100900460ff16155b1561093b576000818152600a60208181526040928390208351610120810185526005820154815260068201549281019290925260078101549382019390935260088301546001600160a01b03166060820152600983015460808201529082015460a0820152600b82015460c0820152600c9091015460ff808216151560e08401526101009182900416151590820152848361091d8161376e565b94508151811061092f5761092f613787565b60200260200101819052505b806109458161376e565b915050610843565b610955611860565b80600654101561099b5760405162461bcd60e51b8152602060048201526011602482015270125b9cdd59999a58da595b9d08199d5b99607a1b6044820152606401610660565b80600660008282546109ad91906137d7565b909155506109bd905082826118ba565b5050565b6109c9611860565b60055460405163b6da3f0960e01b8152600481018390526001600160a01b039091169063b6da3f0990602401600060405180830381600087803b158015610a0f57600080fd5b505af1158015610a23573d6000803e3d6000fd5b50505050610a308161191a565b7f8b2c14fe955d044ef95ba32b88d2ceb87c6f73fcefdcebe906063a6d75690f27604051610a7f906020808252600d908201526c151a58dad95d1cc8189d5c9b9d609a1b604082015260600190565b60405180910390a150565b6001600160a01b038516331480610aa65750610aa685336103fd565b610ac25760405162461bcd60e51b8152600401610660906137ea565b610acf8585858585611a5e565b5050505050565b600a60205260009081526040902080548190610af19061379d565b80601f0160208091040260200160405190810160405280929190818152602001828054610b1d9061379d565b8015610b6a5780601f10610b3f57610100808354040283529160200191610b6a565b820191906000526020600020905b815481529060010190602001808311610b4d57829003601f168201915b505050505090806001018054610b7f9061379d565b80601f0160208091040260200160405190810160405280929190818152602001828054610bab9061379d565b8015610bf85780601f10610bcd57610100808354040283529160200191610bf8565b820191906000526020600020905b815481529060010190602001808311610bdb57829003601f168201915b505050505090806002018054610c0d9061379d565b80601f0160208091040260200160405190810160405280929190818152602001828054610c399061379d565b8015610c865780601f10610c5b57610100808354040283529160200191610c86565b820191906000526020600020905b815481529060010190602001808311610c6957829003601f168201915b505050505090806003018054610c9b9061379d565b80601f0160208091040260200160405190810160405280929190818152602001828054610cc79061379d565b8015610d145780601f10610ce957610100808354040283529160200191610d14565b820191906000526020600020905b815481529060010190602001808311610cf757829003601f168201915b505050505090806004018054610d299061379d565b80601f0160208091040260200160405190810160405280929190818152602001828054610d559061379d565b8015610da25780601f10610d7757610100808354040283529160200191610da2565b820191906000526020600020905b815481529060010190602001808311610d8557829003601f168201915b50506040805161012081018252600587015481526006870154602082015260078701549181019190915260088601546001600160a01b0316606082015260098601546080820152600a86015460a0820152600b86015460c0820152600c9095015460ff808216151560e088015261010091829004161515908601525091929150879050565b60608151835114610e8c5760405162461bcd60e51b815260206004820152602960248201527f455243313135353a206163636f756e747320616e6420696473206c656e677468604482015268040dad2e6dac2e8c6d60bb1b6064820152608401610660565b600083516001600160401b03811115610ea757610ea76131e7565b604051908082528060200260200182016040528015610ed0578160200160208202803683370190505b50905060005b8451811015610f4857610f1b858281518110610ef457610ef4613787565b6020026020010151858381518110610f0e57610f0e613787565b60200260200101516105f9565b828281518110610f2d57610f2d613787565b6020908102919091010152610f418161376e565b9050610ed6565b509392505050565b6001600160a01b038316331480610f6c5750610f6c83336103fd565b610f885760405162461bcd60e51b8152600401610660906137ea565b610f93838383611bfd565b505050565b610fa0611860565b610faa6000611d8c565b565b600554604051632b85dcc960e01b8152600481018490526000916001600160a01b031690632b85dcc99060240161016060405180830381865afa158015610ff7573d6000803e3d6000fd5b505050506040513d601f19601f8201168201806040525081019061101b9190613843565b905081816040015161102d91906138e0565b3410156110725760405162461bcd60e51b8152602060048201526013602482015272125b9cdd59999a58da595b9d08185b5bdd5b9d606a1b6044820152606401610660565b8060c001518160a00151116110bb5760405162461bcd60e51b815260206004820152600f60248201526e4f7574206f6620636170616369747960881b6044820152606401610660565b60005b828110156111ed576110d4600480546001019055565b6110dc612fa1565b6004548152604080840151608083015261012084015160c0830152810185905233606082015261110a611ddc565b60a0820190815281516000908152600a602081815260408084208651600582015582870151600682015581870151600782015560608701516008820180546001600160a01b039092166001600160a01b03199283161790556080880151600983015595519381019390935560c0860151600b8085019190915560e0870151600c909401805461010098890151151590980261ff00199515159590951661ffff1990981697909717939093179095558883529081529281208054600181018255908252929020909101805490911633179055806111e58161376e565b9150506110be565b50818160c00181815161120091906138f7565b90525060408101516112139083906138e0565b816101400181815161122591906138f7565b90525061123182611df7565b6005546040516361853e9360e01b81526001600160a01b03909116906361853e939061126190849060040161390a565b600060405180830381600087803b15801561127b57600080fd5b505af115801561128f573d6000803e3d6000fd5b50505050505050565b600880546106f19061379d565b6109bd338383612063565b6112b8611860565b600554604051633b6559c160e01b8152600481018390526001600160a01b0390911690633b6559c190602401600060405180830381600087803b1580156112fe57600080fd5b505af1158015611312573d6000803e3d6000fd5b5050505061131f81612143565b7f8b2c14fe955d044ef95ba32b88d2ceb87c6f73fcefdcebe906063a6d75690f27604051610a7f9060208082526010908201526f151a58dad95d1cc81c99599d5b99195960821b604082015260600190565b6001600160a01b03851633148061138d575061138d85336103fd565b6113a95760405162461bcd60e51b8152600401610660906137ea565b610acf85858585856122a1565b6113be611860565b6001600160a01b0381166114235760405162461bcd60e51b815260206004820152602660248201527f4f776e61626c653a206e6577206f776e657220697320746865207a65726f206160448201526564647265737360d01b6064820152608401610660565b61142c81611d8c565b50565b6001600160a01b03831633148061144b575061144b83336103fd565b6114675760405162461bcd60e51b8152600401610660906137ea565b610f938383836123cf565b60606000600a60008481526020019081526020016000206040518060c00160405290816000820180546114a49061379d565b80601f01602080910402602001604051908101604052809291908181526020018280546114d09061379d565b801561151d5780601f106114f25761010080835404028352916020019161151d565b820191906000526020600020905b81548152906001019060200180831161150057829003601f168201915b505050505081526020016001820180546115369061379d565b80601f01602080910402602001604051908101604052809291908181526020018280546115629061379d565b80156115af5780601f10611584576101008083540402835291602001916115af565b820191906000526020600020905b81548152906001019060200180831161159257829003601f168201915b505050505081526020016002820180546115c89061379d565b80601f01602080910402602001604051908101604052809291908181526020018280546115f49061379d565b80156116415780601f1061161657610100808354040283529160200191611641565b820191906000526020600020905b81548152906001019060200180831161162457829003601f168201915b5050505050815260200160038201805461165a9061379d565b80601f01602080910402602001604051908101604052809291908181526020018280546116869061379d565b80156116d35780601f106116a8576101008083540402835291602001916116d3565b820191906000526020600020905b8154815290600101906020018083116116b657829003601f168201915b505050505081526020016004820180546116ec9061379d565b80601f01602080910402602001604051908101604052809291908181526020018280546117189061379d565b80156117655780601f1061173a57610100808354040283529160200191611765565b820191906000526020600020905b81548152906001019060200180831161174857829003601f168201915b5050509183525050604080516101208101825260058401548152600684015460208281019190915260078501549282019290925260088401546001600160a01b0316606082015260098401546080820152600a84015460a0820152600b84015460c0820152600c9093015460ff808216151560e086015261010091829004161515908401529081019190915281519082015191925061183991611807866124d6565b846040015185606001516040516020016118259594939291906139ad565b604051602081830303815290604052612882565b6040516020016118499190613b29565b604051602081830303815290604052915050919050565b6000546001600160a01b03163314610faa5760405162461bcd60e51b815260206004820181905260248201527f4f776e61626c653a2063616c6c6572206973206e6f7420746865206f776e65726044820152606401610660565b6000826001600160a01b03168260405160006040518083038185875af1925050503d8060008114611907576040519150601f19603f3d011682016040523d82523d6000602084013e61190c565b606091505b5050905080610f9357600080fd5b611922611860565b600554604051632b85dcc960e01b81526004810183905282916001600160a01b031690632b85dcc99060240161016060405180830381865afa15801561196c573d6000803e3d6000fd5b505050506040513d601f19601f820116820180604052508101906119909190613843565b51146119cf5760405162461bcd60e51b815260206004820152600e60248201526d14db1bdd081b9bdd08199bdd5b9960921b6044820152606401610660565b60015b60045481116109bd576000818152600a602052604090206007015482148015611a0d57506000818152600a60205260409020600c015460ff16155b15611a4c576000818152600a60205260408120600c8101805460ff19166001179055600901546006805491929091611a469084906138f7565b90915550505b80611a568161376e565b9150506119d2565b8151835114611a7f5760405162461bcd60e51b815260040161066090613b6e565b6001600160a01b038416611aa55760405162461bcd60e51b815260040161066090613bb6565b3360005b8451811015611b8f576000858281518110611ac657611ac6613787565b602002602001015190506000858381518110611ae457611ae4613787565b60209081029190910181015160008481526001835260408082206001600160a01b038e168352909352919091205490915081811015611b355760405162461bcd60e51b815260040161066090613bfb565b60008381526001602090815260408083206001600160a01b038e8116855292528083208585039055908b16825281208054849290611b749084906138f7565b9250508190555050505080611b889061376e565b9050611aa9565b50846001600160a01b0316866001600160a01b0316826001600160a01b03167f4a39dc06d4c0dbc64b70af90fd698a233a518aa5d07e595d983b8c0526c8f7fb8787604051611bdf929190613c45565b60405180910390a4611bf58187878787876129e8565b505050505050565b6001600160a01b038316611c235760405162461bcd60e51b815260040161066090613c6a565b8051825114611c445760405162461bcd60e51b815260040161066090613b6e565b604080516020810190915260009081905233905b8351811015611d1d576000848281518110611c7557611c75613787565b602002602001015190506000848381518110611c9357611c93613787565b60209081029190910181015160008481526001835260408082206001600160a01b038c168352909352919091205490915081811015611ce45760405162461bcd60e51b815260040161066090613cad565b60009283526001602090815260408085206001600160a01b038b1686529091529092209103905580611d158161376e565b915050611c58565b5060006001600160a01b0316846001600160a01b0316826001600160a01b03167f4a39dc06d4c0dbc64b70af90fd698a233a518aa5d07e595d983b8c0526c8f7fb8686604051611d6e929190613c45565b60405180910390a46040805160208101909152600090525b50505050565b600080546001600160a01b038381166001600160a01b0319831681178455604051919092169283917f8be0079c531659141344cd1fd0a4f28419497f9722a3daafe3b4186f6b6457e09190a35050565b600080611deb426103e86138e0565b61068e906103e86138f7565b6000816001600160401b03811115611e1157611e116131e7565b604051908082528060200260200182016040528015611e3a578160200160208202803683370190505b5090506000826001600160401b03811115611e5757611e576131e7565b604051908082528060200260200182016040528015611e80578160200160208202803683370190505b509050600083611e8f60045490565b611e9991906137d7565b905060005b848110156120305781611eb08161376e565b9250506000611ebe83612b43565b90506000600882604051602001611ed6929190613cf1565b60408051601f198184030181526060830190915260318083529092506000919061424960208301396000868152600a60205260409020909150611f198382613dcc565b506000858152600a60205260409020600101611f358282613dcc565b50611f52611f4d610169611f47611ddc565b88612bd5565b612b43565b6000868152600a6020526040902060020190611f6e9082613dcc565b50611f7f611f4d6101694288612bd5565b6000868152600a6020526040902060030190611f9b9082613dcc565b506000858152600a60205260409020600401611fb78382613dcc565b50611fc185610772565b600086815260096020526040902090611fda9082613dcc565b5084878581518110611fee57611fee613787565b602002602001018181525050600186858151811061200e5761200e613787565b60200260200101818152505050505080806120289061376e565b915050611e9e565b5060008383604051602001612046929190613eb0565b6040516020818303038152906040529050610acf33858584612c3d565b816001600160a01b0316836001600160a01b0316036120d65760405162461bcd60e51b815260206004820152602960248201527f455243313135353a2073657474696e6720617070726f76616c20737461747573604482015268103337b91039b2b63360b91b6064820152608401610660565b6001600160a01b03838116600081815260026020908152604080832094871680845294825291829020805460ff191686151590811790915591519182527f17307eab39ab6107e8899845ad3d59bd9653f200f220920489ca2b5937696c31910160405180910390a3505050565b61214b611860565b600554604051632b85dcc960e01b81526004810183905282916001600160a01b031690632b85dcc99060240161016060405180830381865afa158015612195573d6000803e3d6000fd5b505050506040513d601f19601f820116820180604052508101906121b99190613843565b51146121f85760405162461bcd60e51b815260206004820152600e60248201526d14db1bdd081b9bdd08199bdd5b9960921b6044820152606401610660565b60015b60045481116109bd576000818152600a60205260409020600701548214801561223657506000818152600a60205260409020600c015460ff16155b1561228f576000818152600a60205260409020600581015460098201546008830154600c909301805461ff00191661010017905590916001600160a01b031661227f81836118ba565b61228b818460016123cf565b5050505b806122998161376e565b9150506121fb565b6001600160a01b0384166122c75760405162461bcd60e51b815260040161066090613bb6565b3360006122d385612dc3565b905060006122e085612dc3565b905060008681526001602090815260408083206001600160a01b038c168452909152902054858110156123255760405162461bcd60e51b815260040161066090613bfb565b60008781526001602090815260408083206001600160a01b038d8116855292528083208985039055908a168252812080548892906123649084906138f7565b909155505060408051888152602081018890526001600160a01b03808b16928c821692918816917fc3d58168c5ae7397731d063d5bbf3d657854427343f4c083240f7aacaa2d0f62910160405180910390a46123c4848a8a8a8a8a612e0e565b505050505050505050565b6001600160a01b0383166123f55760405162461bcd60e51b815260040161066090613c6a565b33600061240184612dc3565b9050600061240e84612dc3565b6040805160208082018352600091829052888252600181528282206001600160a01b038b168352905220549091508481101561245c5760405162461bcd60e51b815260040161066090613cad565b60008681526001602090815260408083206001600160a01b038b81168086529184528285208a8703905582518b81529384018a90529092908816917fc3d58168c5ae7397731d063d5bbf3d657854427343f4c083240f7aacaa2d0f62910160405180910390a460408051602081019091526000905261128f565b60606000600a60008481526020019081526020016000206040518060c00160405290816000820180546125089061379d565b80601f01602080910402602001604051908101604052809291908181526020018280546125349061379d565b80156125815780601f1061255657610100808354040283529160200191612581565b820191906000526020600020905b81548152906001019060200180831161256457829003601f168201915b5050505050815260200160018201805461259a9061379d565b80601f01602080910402602001604051908101604052809291908181526020018280546125c69061379d565b80156126135780601f106125e857610100808354040283529160200191612613565b820191906000526020600020905b8154815290600101906020018083116125f657829003601f168201915b5050505050815260200160028201805461262c9061379d565b80601f01602080910402602001604051908101604052809291908181526020018280546126589061379d565b80156126a55780601f1061267a576101008083540402835291602001916126a5565b820191906000526020600020905b81548152906001019060200180831161268857829003601f168201915b505050505081526020016003820180546126be9061379d565b80601f01602080910402602001604051908101604052809291908181526020018280546126ea9061379d565b80156127375780601f1061270c57610100808354040283529160200191612737565b820191906000526020600020905b81548152906001019060200180831161271a57829003601f168201915b505050505081526020016004820180546127509061379d565b80601f016020809104026020016040519081016040528092919081815260200182805461277c9061379d565b80156127c95780601f1061279e576101008083540402835291602001916127c9565b820191906000526020600020905b8154815290600101906020018083116127ac57829003601f168201915b5050509183525050604080516101208101825260058401548152600684015460208281019190915260078501548284015260088501546001600160a01b03166060808401919091526009860154608080850191909152600a87015460a0850152600b87015460c0850152600c9096015460ff808216151560e0860152610100918290041615159084015293810191909152848201519285015193850151915194955061287b9461182594929101613ecd565b9392505050565b606081516000036128a157505060408051602081019091526000815290565b600060405180606001604052806040815260200161427a60409139905060006003845160026128d091906138f7565b6128da919061407e565b6128e59060046138e0565b905060006128f48260206138f7565b6001600160401b0381111561290b5761290b6131e7565b6040519080825280601f01601f191660200182016040528015612935576020820181803683370190505b509050818152600183018586518101602084015b818310156129a35760039283018051603f601282901c811687015160f890811b8552600c83901c8216880151811b6001860152600683901c8216880151811b60028601529116860151901b93820193909352600401612949565b6003895106600181146129bd57600281146129ce576129da565b613d3d60f01b6001198301526129da565b603d60f81b6000198301525b509398975050505050505050565b6001600160a01b0384163b15611bf55760405163bc197c8160e01b81526001600160a01b0385169063bc197c8190612a2c9089908990889088908890600401614092565b6020604051808303816000875af1925050508015612a67575060408051601f3d908101601f19168201909252612a64918101906140f0565b60015b612b1357612a7361410d565b806308c379a003612aac5750612a87614129565b80612a925750612aae565b8060405162461bcd60e51b81526004016106609190613129565b505b60405162461bcd60e51b815260206004820152603460248201527f455243313135353a207472616e7366657220746f206e6f6e2d455243313135356044820152732932b1b2b4bb32b91034b6b83632b6b2b73a32b960611b6064820152608401610660565b6001600160e01b0319811663bc197c8160e01b1461128f5760405162461bcd60e51b8152600401610660906141b2565b60606000612b5083612ec9565b60010190506000816001600160401b03811115612b6f57612b6f6131e7565b6040519080825280601f01601f191660200182016040528015612b99576020820181803683370190505b5090508181016020015b600019016f181899199a1a9b1b9c1cb0b131b232b360811b600a86061a8153600a8504945084612ba357509392505050565b604080514260208201526bffffffffffffffffffffffff193360601b16918101919091526054810183905260748101829052600090819085906094016040516020818303038152906040528051906020012060001c612c3491906141fa565b95945050505050565b6001600160a01b038416612c9d5760405162461bcd60e51b815260206004820152602160248201527f455243313135353a206d696e7420746f20746865207a65726f206164647265736044820152607360f81b6064820152608401610660565b8151835114612cbe5760405162461bcd60e51b815260040161066090613b6e565b3360005b8451811015612d5b57838181518110612cdd57612cdd613787565b602002602001015160016000878481518110612cfb57612cfb613787565b602002602001015181526020019081526020016000206000886001600160a01b03166001600160a01b031681526020019081526020016000206000828254612d4391906138f7565b90915550819050612d538161376e565b915050612cc2565b50846001600160a01b031660006001600160a01b0316826001600160a01b03167f4a39dc06d4c0dbc64b70af90fd698a233a518aa5d07e595d983b8c0526c8f7fb8787604051612dac929190613c45565b60405180910390a4610acf816000878787876129e8565b60408051600180825281830190925260609160009190602080830190803683370190505090508281600081518110612dfd57612dfd613787565b602090810291909101015292915050565b6001600160a01b0384163b15611bf55760405163f23a6e6160e01b81526001600160a01b0385169063f23a6e6190612e52908990899088908890889060040161420e565b6020604051808303816000875af1925050508015612e8d575060408051601f3d908101601f19168201909252612e8a918101906140f0565b60015b612e9957612a7361410d565b6001600160e01b0319811663f23a6e6160e01b1461128f5760405162461bcd60e51b8152600401610660906141b2565b60008072184f03e93ff9f4daa797ed6e38ed64bf6a1f0160401b8310612f085772184f03e93ff9f4daa797ed6e38ed64bf6a1f0160401b830492506040015b6d04ee2d6d415b85acef81000000008310612f34576d04ee2d6d415b85acef8100000000830492506020015b662386f26fc100008310612f5257662386f26fc10000830492506010015b6305f5e1008310612f6a576305f5e100830492506008015b6127108310612f7e57612710830492506004015b60648310612f90576064830492506002015b600a831061068e5760010192915050565b60405180610120016040528060008152602001600081526020016000815260200160006001600160a01b031681526020016000815260200160008152602001600081526020016000151581526020016000151581525090565b60006020828403121561300c57600080fd5b5035919050565b6020808252825182820181905260009190848201906040850190845b818110156130545783516001600160a01b03168352928401929184019160010161302f565b50909695505050505050565b80356001600160a01b038116811461307757600080fd5b919050565b6000806040838503121561308f57600080fd5b61309883613060565b946020939093013593505050565b6001600160e01b03198116811461142c57600080fd5b6000602082840312156130ce57600080fd5b813561287b816130a6565b60005b838110156130f45781810151838201526020016130dc565b50506000910152565b600081518084526131158160208601602086016130d9565b601f01601f19169290920160200192915050565b60208152600061287b60208301846130fd565b80518252602081015160208301526040810151604083015260018060a01b0360608201511660608301526080810151608083015260a081015160a083015260c081015160c083015260e0810151151560e083015261010080820151611d868285018215159052565b6020808252825182820181905260009190848201906040850190845b81811015613054576131d383855161313c565b9284019261012092909201916001016131c0565b634e487b7160e01b600052604160045260246000fd5b601f8201601f191681016001600160401b0381118282101715613222576132226131e7565b6040525050565b60405161016081016001600160401b038111828210171561324c5761324c6131e7565b60405290565b60006001600160401b0382111561326b5761326b6131e7565b5060051b60200190565b600082601f83011261328657600080fd5b8135602061329382613252565b6040516132a082826131fd565b83815260059390931b85018201928281019150868411156132c057600080fd5b8286015b848110156132db57803583529183019183016132c4565b509695505050505050565b600082601f8301126132f757600080fd5b81356001600160401b03811115613310576133106131e7565b604051613327601f8301601f1916602001826131fd565b81815284602083860101111561333c57600080fd5b816020850160208301376000918101602001919091529392505050565b600080600080600060a0868803121561337157600080fd5b61337a86613060565b945061338860208701613060565b935060408601356001600160401b03808211156133a457600080fd5b6133b089838a01613275565b945060608801359150808211156133c657600080fd5b6133d289838a01613275565b935060808801359150808211156133e857600080fd5b506133f5888289016132e6565b9150509295509295909350565b60006101c08083526134168184018a6130fd565b9050828103602084015261342a81896130fd565b9050828103604084015261343e81886130fd565b9050828103606084015261345281876130fd565b9050828103608084015261346681866130fd565b91505061347660a083018461313c565b979650505050505050565b6000806040838503121561349457600080fd5b82356001600160401b03808211156134ab57600080fd5b818501915085601f8301126134bf57600080fd5b813560206134cc82613252565b6040516134d982826131fd565b83815260059390931b85018201928281019150898411156134f957600080fd5b948201945b8386101561351e5761350f86613060565b825294820194908201906134fe565b9650508601359250508082111561353457600080fd5b5061354185828601613275565b9150509250929050565b600081518084526020808501945080840160005b8381101561357b5781518752958201959082019060010161355f565b509495945050505050565b60208152600061287b602083018461354b565b6000806000606084860312156135ae57600080fd5b6135b784613060565b925060208401356001600160401b03808211156135d357600080fd5b6135df87838801613275565b935060408601359150808211156135f557600080fd5b5061360286828701613275565b9150509250925092565b6000806040838503121561361f57600080fd5b50508035926020909101359150565b801515811461142c57600080fd5b6000806040838503121561364f57600080fd5b61365883613060565b915060208301356136688161362e565b809150509250929050565b6000806040838503121561368657600080fd5b61368f83613060565b915061369d60208401613060565b90509250929050565b600080600080600060a086880312156136be57600080fd5b6136c786613060565b94506136d560208701613060565b9350604086013592506060860135915060808601356001600160401b038111156136fe57600080fd5b6133f5888289016132e6565b60006020828403121561371c57600080fd5b61287b82613060565b60008060006060848603121561373a57600080fd5b61374384613060565b95602085013595506040909401359392505050565b634e487b7160e01b600052601160045260246000fd5b60006001820161378057613780613758565b5060010190565b634e487b7160e01b600052603260045260246000fd5b600181811c908216806137b157607f821691505b6020821081036137d157634e487b7160e01b600052602260045260246000fd5b50919050565b8181038181111561068e5761068e613758565b6020808252602e908201527f455243313135353a2063616c6c6572206973206e6f7420746f6b656e206f776e60408201526d195c881bdc88185c1c1c9bdd995960921b606082015260800190565b80516130778161362e565b6000610160828403121561385657600080fd5b61385e613229565b825181526020830151602082015260408301516040820152606083015160608201526080830151608082015260a083015160a082015260c083015160c08201526138aa60e08401613838565b60e08201526101006138bd818501613838565b908201526101208381015190820152610140928301519281019290925250919050565b808202811582820484141761068e5761068e613758565b8082018082111561068e5761068e613758565b600061016082019050825182526020830151602083015260408301516040830152606083015160608301526080830151608083015260a083015160a083015260c083015160c083015260e083015161396660e084018215159052565b5061010083810151151590830152610120808401519083015261014092830151929091019190915290565b600081516139a38185602086016130d9565b9290920192915050565b683d913730b6b2911d1160b91b815285516000906139d2816009850160208b016130d9565b71111610113232b9b1b934b83a34b7b7111d1160711b6009918401918201528651613a0481601b840160208b016130d9565b6c1116101134b6b0b3b2911d101160991b601b92909101918201527f646174613a696d6167652f7376672b786d6c3b6261736536342c00000000000060288201528551613a58816042840160208a016130d9565b7f222c202261747472696275746573223a205b7b2274726169745f74797065223a604292909101918201527f20224261636b67726f756e6420487565222c202276616c7565223a202200000060628201528451613abc81607f8401602089016130d9565b613b1c613b0c613b06607f848601017f227d2c207b2274726169745f74797065223a20225465787420487565222c20228152683b30b63ab2911d101160b91b602082015260290190565b87613991565b63227d5d7d60e01b815260040190565b9998505050505050505050565b7f646174613a6170706c69636174696f6e2f6a736f6e3b6261736536342c000000815260008251613b6181601d8501602087016130d9565b91909101601d0192915050565b60208082526028908201527f455243313135353a2069647320616e6420616d6f756e7473206c656e677468206040820152670dad2e6dac2e8c6d60c31b606082015260800190565b60208082526025908201527f455243313135353a207472616e7366657220746f20746865207a65726f206164604082015264647265737360d81b606082015260800190565b6020808252602a908201527f455243313135353a20696e73756666696369656e742062616c616e636520666f60408201526939103a3930b739b332b960b11b606082015260800190565b604081526000613c58604083018561354b565b8281036020840152612c34818561354b565b60208082526023908201527f455243313135353a206275726e2066726f6d20746865207a65726f206164647260408201526265737360e81b606082015260800190565b60208082526024908201527f455243313135353a206275726e20616d6f756e7420657863656564732062616c604082015263616e636560e01b606082015260800190565b6000808454613cff8161379d565b60018281168015613d175760018114613d2c57613d5b565b60ff1984168752821515830287019450613d5b565b8860005260208060002060005b85811015613d525781548a820152908401908201613d39565b50505082870194505b5050505061202360f01b81528351613d7a8160028401602088016130d9565b01600201949350505050565b601f821115610f9357600081815260208120601f850160051c81016020861015613dad5750805b601f850160051c820191505b81811015611bf557828155600101613db9565b81516001600160401b03811115613de557613de56131e7565b613df981613df3845461379d565b84613d86565b602080601f831160018114613e2e5760008415613e165750858301515b600019600386901b1c1916600185901b178555611bf5565b600085815260208120601f198616915b82811015613e5d57888601518255948401946001909101908401613e3e565b5085821015613e7b5787850151600019600388901b60f8161c191681555b5050505050600190811b01905550565b8051600090602080840183831561357b5781518752958201959082019060010161355f565b6000613ec5613ebf8386613e8b565b84613e8b565b949350505050565b7f3c7376672077696474683d2235303022206865696768743d223530302220786d81527f6c6e733d22687474703a2f2f7777772e77332e6f72672f323030302f737667226020820152601f60f91b60408201527f3c72656374206865696768743d22353030222077696474683d223530302220666041820152680d2d8d87a44d0e6d8560bb1b606182015260008451613f6d81606a8501602089016130d9565b6d16101a98129610191a929491179f60911b606a918401918201527f3c7465787420783d223530252220793d223530252220646f6d696e616e742d6260788201527f6173656c696e653d226d6964646c65222066696c6c3d2268736c28000000000060988201528451613fe78160b38401602089016130d9565b61347661405661404361403d60b3858701017f2c20313030252c20383025292220746578742d616e63686f723d226d6964646c8152713291103337b73a16b9b4bd329e911a18911f60711b602082015260320190565b88613991565b661e17ba32bc3a1f60c91b815260070190565b651e17b9bb339f60d11b815260060190565b634e487b7160e01b600052601260045260246000fd5b60008261408d5761408d614068565b500490565b6001600160a01b0386811682528516602082015260a0604082018190526000906140be9083018661354b565b82810360608401526140d0818661354b565b905082810360808401526140e481856130fd565b98975050505050505050565b60006020828403121561410257600080fd5b815161287b816130a6565b600060033d11156141265760046000803e5060005160e01c5b90565b600060443d10156141375790565b6040516003193d81016004833e81513d6001600160401b03816024840111818411171561416657505050505090565b828501915081518181111561417e5750505050505090565b843d87010160208285010111156141985750505050505090565b6141a7602082860101876131fd565b509095945050505050565b60208082526028908201527f455243313135353a204552433131353552656365697665722072656a656374656040820152676420746f6b656e7360c01b606082015260800190565b60008261420957614209614068565b500690565b6001600160a01b03868116825285166020820152604081018490526060810183905260a060808201819052600090613476908301846130fd56fe5468657365204e465473206172652061637475616c6c79207469636b65747320666f7220446170702043696e656d61732e4142434445464748494a4b4c4d4e4f505152535455565758595a6162636465666768696a6b6c6d6e6f707172737475767778797a303132333435363738392b2fa26469706673582212204da7c9fd294c6f58a1872b70e54861c6339a4be3ca7cebed8ca9d6c1078ae70464736f6c63430008130033",
  "linkReferences": {},
  "deployedLinkReferences": {}
}